{
	"contracts/Twitter4.sol": {
		"Twitter": {
			"abi": [
				{
					"inputs": [],
					"stateMutability": "nonpayable",
					"type": "constructor"
				},
				{
					"inputs": [],
					"name": "MAX_TWEET_LENGTH",
					"outputs": [
						{
							"internalType": "uint256",
							"name": "",
							"type": "uint256"
						}
					],
					"stateMutability": "view",
					"type": "function"
				},
				{
					"inputs": [],
					"name": "_owner",
					"outputs": [
						{
							"internalType": "address",
							"name": "",
							"type": "address"
						}
					],
					"stateMutability": "view",
					"type": "function"
				},
				{
					"inputs": [
						{
							"internalType": "uint256",
							"name": "newTweetLength",
							"type": "uint256"
						}
					],
					"name": "changeTweetLength",
					"outputs": [],
					"stateMutability": "nonpayable",
					"type": "function"
				},
				{
					"inputs": [
						{
							"internalType": "string",
							"name": "_tweet",
							"type": "string"
						}
					],
					"name": "createTweet",
					"outputs": [],
					"stateMutability": "nonpayable",
					"type": "function"
				},
				{
					"inputs": [
						{
							"internalType": "address",
							"name": "author",
							"type": "address"
						},
						{
							"internalType": "uint256",
							"name": "id",
							"type": "uint256"
						}
					],
					"name": "dislikeTweet",
					"outputs": [],
					"stateMutability": "nonpayable",
					"type": "function"
				},
				{
					"inputs": [
						{
							"internalType": "address",
							"name": "owner",
							"type": "address"
						}
					],
					"name": "getAllTweets",
					"outputs": [
						{
							"components": [
								{
									"internalType": "uint256",
									"name": "id",
									"type": "uint256"
								},
								{
									"internalType": "address",
									"name": "owner",
									"type": "address"
								},
								{
									"internalType": "uint256",
									"name": "timestamp",
									"type": "uint256"
								},
								{
									"internalType": "string",
									"name": "content",
									"type": "string"
								},
								{
									"internalType": "uint256",
									"name": "likes",
									"type": "uint256"
								}
							],
							"internalType": "struct Twitter.Tweet[]",
							"name": "",
							"type": "tuple[]"
						}
					],
					"stateMutability": "view",
					"type": "function"
				},
				{
					"inputs": [
						{
							"internalType": "uint256",
							"name": "_i",
							"type": "uint256"
						}
					],
					"name": "getTweet",
					"outputs": [
						{
							"components": [
								{
									"internalType": "uint256",
									"name": "id",
									"type": "uint256"
								},
								{
									"internalType": "address",
									"name": "owner",
									"type": "address"
								},
								{
									"internalType": "uint256",
									"name": "timestamp",
									"type": "uint256"
								},
								{
									"internalType": "string",
									"name": "content",
									"type": "string"
								},
								{
									"internalType": "uint256",
									"name": "likes",
									"type": "uint256"
								}
							],
							"internalType": "struct Twitter.Tweet",
							"name": "",
							"type": "tuple"
						}
					],
					"stateMutability": "view",
					"type": "function"
				},
				{
					"inputs": [
						{
							"internalType": "address",
							"name": "author",
							"type": "address"
						},
						{
							"internalType": "uint256",
							"name": "id",
							"type": "uint256"
						}
					],
					"name": "likeTweet",
					"outputs": [],
					"stateMutability": "nonpayable",
					"type": "function"
				},
				{
					"inputs": [
						{
							"internalType": "address",
							"name": "",
							"type": "address"
						},
						{
							"internalType": "uint256",
							"name": "",
							"type": "uint256"
						}
					],
					"name": "tweet",
					"outputs": [
						{
							"internalType": "uint256",
							"name": "id",
							"type": "uint256"
						},
						{
							"internalType": "address",
							"name": "owner",
							"type": "address"
						},
						{
							"internalType": "uint256",
							"name": "timestamp",
							"type": "uint256"
						},
						{
							"internalType": "string",
							"name": "content",
							"type": "string"
						},
						{
							"internalType": "uint256",
							"name": "likes",
							"type": "uint256"
						}
					],
					"stateMutability": "view",
					"type": "function"
				}
			],
			"devdoc": {
				"kind": "dev",
				"methods": {},
				"version": 1
			},
			"evm": {
				"assembly": "    /* \"contracts/Twitter4.sol\":61:1734  contract Twitter{... */\n  mstore(0x40, 0x80)\n    /* \"contracts/Twitter4.sol\":266:269  200 */\n  0xc8\n    /* \"contracts/Twitter4.sol\":232:269  uint256 public MAX_TWEET_LENGTH = 200 */\n  0x00\n  sstore\n    /* \"contracts/Twitter4.sol\":351:449  constructor(){ // when we deploy the contract it get executed... */\n  callvalue\n  dup1\n  iszero\n  tag_1\n  jumpi\n  0x00\n  dup1\n  revert\ntag_1:\n  pop\n    /* \"contracts/Twitter4.sol\":431:441  msg.sender */\n  caller\n    /* \"contracts/Twitter4.sol\":422:428  _owner */\n  0x01\n  0x00\n    /* \"contracts/Twitter4.sol\":422:441  _owner = msg.sender */\n  0x0100\n  exp\n  dup2\n  sload\n  dup2\n  0xffffffffffffffffffffffffffffffffffffffff\n  mul\n  not\n  and\n  swap1\n  dup4\n  0xffffffffffffffffffffffffffffffffffffffff\n  and\n  mul\n  or\n  swap1\n  sstore\n  pop\n    /* \"contracts/Twitter4.sol\":61:1734  contract Twitter{... */\n  dataSize(sub_0)\n  dup1\n  dataOffset(sub_0)\n  0x00\n  codecopy\n  0x00\n  return\nstop\n\nsub_0: assembly {\n        /* \"contracts/Twitter4.sol\":61:1734  contract Twitter{... */\n      mstore(0x40, 0x80)\n      callvalue\n      dup1\n      iszero\n      tag_1\n      jumpi\n      0x00\n      dup1\n      revert\n    tag_1:\n      pop\n      jumpi(tag_2, lt(calldatasize, 0x04))\n      shr(0xe0, calldataload(0x00))\n      dup1\n      0x888a7880\n      gt\n      tag_12\n      jumpi\n      dup1\n      0x888a7880\n      eq\n      tag_7\n      jumpi\n      dup1\n      0x9531656f\n      eq\n      tag_8\n      jumpi\n      dup1\n      0xae775e95\n      eq\n      tag_9\n      jumpi\n      dup1\n      0xb2bdfa7b\n      eq\n      tag_10\n      jumpi\n      dup1\n      0xc3ad5ecb\n      eq\n      tag_11\n      jumpi\n      jump(tag_2)\n    tag_12:\n      dup1\n      0x12e7ee1c\n      eq\n      tag_3\n      jumpi\n      dup1\n      0x63378216\n      eq\n      tag_4\n      jumpi\n      dup1\n      0x6eb10797\n      eq\n      tag_5\n      jumpi\n      dup1\n      0x7c9cd2bc\n      eq\n      tag_6\n      jumpi\n    tag_2:\n      0x00\n      dup1\n      revert\n        /* \"contracts/Twitter4.sol\":918:1029  function getAllTweets(address owner) public view returns(Tweet[] memory) {... */\n    tag_3:\n      tag_13\n      0x04\n      dup1\n      calldatasize\n      sub\n      dup2\n      add\n      swap1\n      tag_14\n      swap2\n      swap1\n      tag_15\n      jump\t// in\n    tag_14:\n      tag_16\n      jump\t// in\n    tag_13:\n      mload(0x40)\n      tag_17\n      swap2\n      swap1\n      tag_18\n      jump\t// in\n    tag_17:\n      mload(0x40)\n      dup1\n      swap2\n      sub\n      swap1\n      return\n        /* \"contracts/Twitter4.sol\":1319:1488  function likeTweet(address author,uint256 id) external  {... */\n    tag_4:\n      tag_19\n      0x04\n      dup1\n      calldatasize\n      sub\n      dup2\n      add\n      swap1\n      tag_20\n      swap2\n      swap1\n      tag_21\n      jump\t// in\n    tag_20:\n      tag_22\n      jump\t// in\n    tag_19:\n      stop\n        /* \"contracts/Twitter4.sol\":232:269  uint256 public MAX_TWEET_LENGTH = 200 */\n    tag_5:\n      tag_23\n      tag_24\n      jump\t// in\n    tag_23:\n      mload(0x40)\n      tag_25\n      swap2\n      swap1\n      tag_26\n      jump\t// in\n    tag_25:\n      mload(0x40)\n      dup1\n      swap2\n      sub\n      swap1\n      return\n        /* \"contracts/Twitter4.sol\":593:912  function createTweet(string memory _tweet) public {... */\n    tag_6:\n      tag_27\n      0x04\n      dup1\n      calldatasize\n      sub\n      dup2\n      add\n      swap1\n      tag_28\n      swap2\n      swap1\n      tag_29\n      jump\t// in\n    tag_28:\n      tag_30\n      jump\t// in\n    tag_27:\n      stop\n        /* \"contracts/Twitter4.sol\":1153:1313  function changeTweetLength(uint256 newTweetLength) public onlyOwner {... */\n    tag_7:\n      tag_31\n      0x04\n      dup1\n      calldatasize\n      sub\n      dup2\n      add\n      swap1\n      tag_32\n      swap2\n      swap1\n      tag_33\n      jump\t// in\n    tag_32:\n      tag_34\n      jump\t// in\n    tag_31:\n      stop\n        /* \"contracts/Twitter4.sol\":304:342  mapping(address=>Tweet[]) public tweet */\n    tag_8:\n      tag_35\n      0x04\n      dup1\n      calldatasize\n      sub\n      dup2\n      add\n      swap1\n      tag_36\n      swap2\n      swap1\n      tag_21\n      jump\t// in\n    tag_36:\n      tag_37\n      jump\t// in\n    tag_35:\n      mload(0x40)\n      tag_38\n      swap6\n      swap5\n      swap4\n      swap3\n      swap2\n      swap1\n      tag_39\n      jump\t// in\n    tag_38:\n      mload(0x40)\n      dup1\n      swap2\n      sub\n      swap1\n      return\n        /* \"contracts/Twitter4.sol\":1494:1731  function dislikeTweet(address author, uint256 id) external {... */\n    tag_9:\n      tag_40\n      0x04\n      dup1\n      calldatasize\n      sub\n      dup2\n      add\n      swap1\n      tag_41\n      swap2\n      swap1\n      tag_21\n      jump\t// in\n    tag_41:\n      tag_42\n      jump\t// in\n    tag_40:\n      stop\n        /* \"contracts/Twitter4.sol\":276:297  address public _owner */\n    tag_10:\n      tag_43\n      tag_44\n      jump\t// in\n    tag_43:\n      mload(0x40)\n      tag_45\n      swap2\n      swap1\n      tag_46\n      jump\t// in\n    tag_45:\n      mload(0x40)\n      dup1\n      swap2\n      sub\n      swap1\n      return\n        /* \"contracts/Twitter4.sol\":1035:1147  function getTweet(uint256 _i) public view returns (Tweet memory ){... */\n    tag_11:\n      tag_47\n      0x04\n      dup1\n      calldatasize\n      sub\n      dup2\n      add\n      swap1\n      tag_48\n      swap2\n      swap1\n      tag_33\n      jump\t// in\n    tag_48:\n      tag_49\n      jump\t// in\n    tag_47:\n      mload(0x40)\n      tag_50\n      swap2\n      swap1\n      tag_51\n      jump\t// in\n    tag_50:\n      mload(0x40)\n      dup1\n      swap2\n      sub\n      swap1\n      return\n        /* \"contracts/Twitter4.sol\":918:1029  function getAllTweets(address owner) public view returns(Tweet[] memory) {... */\n    tag_16:\n        /* \"contracts/Twitter4.sol\":975:989  Tweet[] memory */\n      0x60\n        /* \"contracts/Twitter4.sol\":1009:1014  tweet */\n      0x02\n        /* \"contracts/Twitter4.sol\":1009:1021  tweet[owner] */\n      0x00\n        /* \"contracts/Twitter4.sol\":1015:1020  owner */\n      dup4\n        /* \"contracts/Twitter4.sol\":1009:1021  tweet[owner] */\n      0xffffffffffffffffffffffffffffffffffffffff\n      and\n      0xffffffffffffffffffffffffffffffffffffffff\n      and\n      dup2\n      mstore\n      0x20\n      add\n      swap1\n      dup2\n      mstore\n      0x20\n      add\n      0x00\n      keccak256\n        /* \"contracts/Twitter4.sol\":1002:1021  return tweet[owner] */\n      dup1\n      sload\n      dup1\n      0x20\n      mul\n      0x20\n      add\n      mload(0x40)\n      swap1\n      dup2\n      add\n      0x40\n      mstore\n      dup1\n      swap3\n      swap2\n      swap1\n      dup2\n      dup2\n      mstore\n      0x20\n      add\n      0x00\n      swap1\n    tag_53:\n      dup3\n      dup3\n      lt\n      iszero\n      tag_54\n      jumpi\n      dup4\n      dup3\n      swap1\n      0x00\n      mstore\n      keccak256(0x00, 0x20)\n      swap1\n      0x05\n      mul\n      add\n      mload(0x40)\n      dup1\n      0xa0\n      add\n      0x40\n      mstore\n      swap1\n      dup2\n      0x00\n      dup3\n      add\n      sload\n      dup2\n      mstore\n      0x20\n      add\n      0x01\n      dup3\n      add\n      0x00\n      swap1\n      sload\n      swap1\n      0x0100\n      exp\n      swap1\n      div\n      0xffffffffffffffffffffffffffffffffffffffff\n      and\n      0xffffffffffffffffffffffffffffffffffffffff\n      and\n      0xffffffffffffffffffffffffffffffffffffffff\n      and\n      dup2\n      mstore\n      0x20\n      add\n      0x02\n      dup3\n      add\n      sload\n      dup2\n      mstore\n      0x20\n      add\n      0x03\n      dup3\n      add\n      dup1\n      sload\n      tag_56\n      swap1\n      tag_57\n      jump\t// in\n    tag_56:\n      dup1\n      0x1f\n      add\n      0x20\n      dup1\n      swap2\n      div\n      mul\n      0x20\n      add\n      mload(0x40)\n      swap1\n      dup2\n      add\n      0x40\n      mstore\n      dup1\n      swap3\n      swap2\n      swap1\n      dup2\n      dup2\n      mstore\n      0x20\n      add\n      dup3\n      dup1\n      sload\n      tag_58\n      swap1\n      tag_57\n      jump\t// in\n    tag_58:\n      dup1\n      iszero\n      tag_59\n      jumpi\n      dup1\n      0x1f\n      lt\n      tag_60\n      jumpi\n      0x0100\n      dup1\n      dup4\n      sload\n      div\n      mul\n      dup4\n      mstore\n      swap2\n      0x20\n      add\n      swap2\n      jump(tag_59)\n    tag_60:\n      dup3\n      add\n      swap2\n      swap1\n      0x00\n      mstore\n      keccak256(0x00, 0x20)\n      swap1\n    tag_61:\n      dup2\n      sload\n      dup2\n      mstore\n      swap1\n      0x01\n      add\n      swap1\n      0x20\n      add\n      dup1\n      dup4\n      gt\n      tag_61\n      jumpi\n      dup3\n      swap1\n      sub\n      0x1f\n      and\n      dup3\n      add\n      swap2\n    tag_59:\n      pop\n      pop\n      pop\n      pop\n      pop\n      dup2\n      mstore\n      0x20\n      add\n      0x04\n      dup3\n      add\n      sload\n      dup2\n      mstore\n      pop\n      pop\n      dup2\n      mstore\n      0x20\n      add\n      swap1\n      0x01\n      add\n      swap1\n      jump(tag_53)\n    tag_54:\n      pop\n      pop\n      pop\n      pop\n      swap1\n      pop\n        /* \"contracts/Twitter4.sol\":918:1029  function getAllTweets(address owner) public view returns(Tweet[] memory) {... */\n      swap2\n      swap1\n      pop\n      jump\t// out\n        /* \"contracts/Twitter4.sol\":1319:1488  function likeTweet(address author,uint256 id) external  {... */\n    tag_22:\n        /* \"contracts/Twitter4.sol\":1418:1420  id */\n      dup1\n        /* \"contracts/Twitter4.sol\":1394:1399  tweet */\n      0x02\n        /* \"contracts/Twitter4.sol\":1394:1407  tweet[author] */\n      0x00\n        /* \"contracts/Twitter4.sol\":1400:1406  author */\n      dup5\n        /* \"contracts/Twitter4.sol\":1394:1407  tweet[author] */\n      0xffffffffffffffffffffffffffffffffffffffff\n      and\n      0xffffffffffffffffffffffffffffffffffffffff\n      and\n      dup2\n      mstore\n      0x20\n      add\n      swap1\n      dup2\n      mstore\n      0x20\n      add\n      0x00\n      keccak256\n        /* \"contracts/Twitter4.sol\":1408:1410  id */\n      dup3\n        /* \"contracts/Twitter4.sol\":1394:1411  tweet[author][id] */\n      dup2\n      sload\n      dup2\n      lt\n      tag_63\n      jumpi\n      tag_64\n      tag_65\n      jump\t// in\n    tag_64:\n    tag_63:\n      swap1\n      0x00\n      mstore\n      keccak256(0x00, 0x20)\n      swap1\n      0x05\n      mul\n      add\n        /* \"contracts/Twitter4.sol\":1394:1414  tweet[author][id].id */\n      0x00\n      add\n      sload\n        /* \"contracts/Twitter4.sol\":1394:1420  tweet[author][id].id == id */\n      eq\n        /* \"contracts/Twitter4.sol\":1386:1444  require(tweet[author][id].id == id,\"Tweet does not exist\") */\n      tag_67\n      jumpi\n      mload(0x40)\n      0x08c379a000000000000000000000000000000000000000000000000000000000\n      dup2\n      mstore\n      0x04\n      add\n      tag_68\n      swap1\n      tag_69\n      jump\t// in\n    tag_68:\n      mload(0x40)\n      dup1\n      swap2\n      sub\n      swap1\n      revert\n    tag_67:\n        /* \"contracts/Twitter4.sol\":1455:1460  tweet */\n      0x02\n        /* \"contracts/Twitter4.sol\":1455:1468  tweet[author] */\n      0x00\n        /* \"contracts/Twitter4.sol\":1461:1467  author */\n      dup4\n        /* \"contracts/Twitter4.sol\":1455:1468  tweet[author] */\n      0xffffffffffffffffffffffffffffffffffffffff\n      and\n      0xffffffffffffffffffffffffffffffffffffffff\n      and\n      dup2\n      mstore\n      0x20\n      add\n      swap1\n      dup2\n      mstore\n      0x20\n      add\n      0x00\n      keccak256\n        /* \"contracts/Twitter4.sol\":1469:1471  id */\n      dup2\n        /* \"contracts/Twitter4.sol\":1455:1472  tweet[author][id] */\n      dup2\n      sload\n      dup2\n      lt\n      tag_70\n      jumpi\n      tag_71\n      tag_65\n      jump\t// in\n    tag_71:\n    tag_70:\n      swap1\n      0x00\n      mstore\n      keccak256(0x00, 0x20)\n      swap1\n      0x05\n      mul\n      add\n        /* \"contracts/Twitter4.sol\":1455:1478  tweet[author][id].likes */\n      0x04\n      add\n      0x00\n        /* \"contracts/Twitter4.sol\":1455:1480  tweet[author][id].likes++ */\n      dup2\n      sload\n      dup1\n      swap3\n      swap2\n      swap1\n      tag_73\n      swap1\n      tag_74\n      jump\t// in\n    tag_73:\n      swap2\n      swap1\n      pop\n      sstore\n      pop\n        /* \"contracts/Twitter4.sol\":1319:1488  function likeTweet(address author,uint256 id) external  {... */\n      pop\n      pop\n      jump\t// out\n        /* \"contracts/Twitter4.sol\":232:269  uint256 public MAX_TWEET_LENGTH = 200 */\n    tag_24:\n      sload(0x00)\n      dup2\n      jump\t// out\n        /* \"contracts/Twitter4.sol\":593:912  function createTweet(string memory _tweet) public {... */\n    tag_30:\n        /* \"contracts/Twitter4.sol\":654:675  Tweet memory newTweet */\n      0x00\n        /* \"contracts/Twitter4.sol\":678:861  Tweet({... */\n      mload(0x40)\n      dup1\n      0xa0\n      add\n      0x40\n      mstore\n      dup1\n        /* \"contracts/Twitter4.sol\":702:707  tweet */\n      0x02\n        /* \"contracts/Twitter4.sol\":702:719  tweet[msg.sender] */\n      0x00\n        /* \"contracts/Twitter4.sol\":708:718  msg.sender */\n      caller\n        /* \"contracts/Twitter4.sol\":702:719  tweet[msg.sender] */\n      0xffffffffffffffffffffffffffffffffffffffff\n      and\n      0xffffffffffffffffffffffffffffffffffffffff\n      and\n      dup2\n      mstore\n      0x20\n      add\n      swap1\n      dup2\n      mstore\n      0x20\n      add\n      0x00\n      keccak256\n        /* \"contracts/Twitter4.sol\":702:726  tweet[msg.sender].length */\n      dup1\n      sload\n      swap1\n      pop\n        /* \"contracts/Twitter4.sol\":678:861  Tweet({... */\n      dup2\n      mstore\n      0x20\n      add\n        /* \"contracts/Twitter4.sol\":747:757  msg.sender */\n      caller\n        /* \"contracts/Twitter4.sol\":678:861  Tweet({... */\n      0xffffffffffffffffffffffffffffffffffffffff\n      and\n      dup2\n      mstore\n      0x20\n      add\n        /* \"contracts/Twitter4.sol\":782:797  block.timestamp */\n      timestamp\n        /* \"contracts/Twitter4.sol\":678:861  Tweet({... */\n      dup2\n      mstore\n      0x20\n      add\n        /* \"contracts/Twitter4.sol\":821:827  _tweet */\n      dup4\n        /* \"contracts/Twitter4.sol\":678:861  Tweet({... */\n      dup2\n      mstore\n      0x20\n      add\n        /* \"contracts/Twitter4.sol\":848:849  0 */\n      0x00\n        /* \"contracts/Twitter4.sol\":678:861  Tweet({... */\n      dup2\n      mstore\n      pop\n        /* \"contracts/Twitter4.sol\":654:861  Tweet memory newTweet = Tweet({... */\n      swap1\n      pop\n        /* \"contracts/Twitter4.sol\":872:877  tweet */\n      0x02\n        /* \"contracts/Twitter4.sol\":872:889  tweet[msg.sender] */\n      0x00\n        /* \"contracts/Twitter4.sol\":878:888  msg.sender */\n      caller\n        /* \"contracts/Twitter4.sol\":872:889  tweet[msg.sender] */\n      0xffffffffffffffffffffffffffffffffffffffff\n      and\n      0xffffffffffffffffffffffffffffffffffffffff\n      and\n      dup2\n      mstore\n      0x20\n      add\n      swap1\n      dup2\n      mstore\n      0x20\n      add\n      0x00\n      keccak256\n        /* \"contracts/Twitter4.sol\":895:903  newTweet */\n      dup2\n        /* \"contracts/Twitter4.sol\":872:904  tweet[msg.sender].push(newTweet) */\n      swap1\n      dup1\n      0x01\n      dup2\n      sload\n      add\n      dup1\n      dup3\n      sstore\n      dup1\n      swap2\n      pop\n      pop\n      0x01\n      swap1\n      sub\n      swap1\n      0x00\n      mstore\n      keccak256(0x00, 0x20)\n      swap1\n      0x05\n      mul\n      add\n      0x00\n      swap1\n      swap2\n      swap1\n      swap2\n      swap1\n      swap2\n      pop\n      0x00\n      dup3\n      add\n      mload\n      dup2\n      0x00\n      add\n      sstore\n      0x20\n      dup3\n      add\n      mload\n      dup2\n      0x01\n      add\n      exp(0x0100, 0x00)\n      dup2\n      sload\n      dup2\n      0xffffffffffffffffffffffffffffffffffffffff\n      mul\n      not\n      and\n      swap1\n      dup4\n      0xffffffffffffffffffffffffffffffffffffffff\n      and\n      mul\n      or\n      swap1\n      sstore\n      pop\n      0x40\n      dup3\n      add\n      mload\n      dup2\n      0x02\n      add\n      sstore\n      0x60\n      dup3\n      add\n      mload\n      dup2\n      0x03\n      add\n      swap1\n      dup2\n      tag_77\n      swap2\n      swap1\n      tag_78\n      jump\t// in\n    tag_77:\n      pop\n      0x80\n      dup3\n      add\n      mload\n      dup2\n      0x04\n      add\n      sstore\n      pop\n      pop\n        /* \"contracts/Twitter4.sol\":643:912  {... */\n      pop\n        /* \"contracts/Twitter4.sol\":593:912  function createTweet(string memory _tweet) public {... */\n      pop\n      jump\t// out\n        /* \"contracts/Twitter4.sol\":1153:1313  function changeTweetLength(uint256 newTweetLength) public onlyOwner {... */\n    tag_34:\n        /* \"contracts/Twitter4.sol\":504:514  msg.sender */\n      caller\n        /* \"contracts/Twitter4.sol\":494:514  _owner == msg.sender */\n      0xffffffffffffffffffffffffffffffffffffffff\n      and\n        /* \"contracts/Twitter4.sol\":494:500  _owner */\n      0x01\n      0x00\n      swap1\n      sload\n      swap1\n      0x0100\n      exp\n      swap1\n      div\n      0xffffffffffffffffffffffffffffffffffffffff\n      and\n        /* \"contracts/Twitter4.sol\":494:514  _owner == msg.sender */\n      0xffffffffffffffffffffffffffffffffffffffff\n      and\n      eq\n        /* \"contracts/Twitter4.sol\":486:538  require(_owner == msg.sender,\"You are not an owner\") */\n      tag_80\n      jumpi\n      mload(0x40)\n      0x08c379a000000000000000000000000000000000000000000000000000000000\n      dup2\n      mstore\n      0x04\n      add\n      tag_81\n      swap1\n      tag_82\n      jump\t// in\n    tag_81:\n      mload(0x40)\n      dup1\n      swap2\n      sub\n      swap1\n      revert\n    tag_80:\n        /* \"contracts/Twitter4.sol\":1249:1263  newTweetLength */\n      dup1\n        /* \"contracts/Twitter4.sol\":1232:1248  MAX_TWEET_LENGTH */\n      0x00\n        /* \"contracts/Twitter4.sol\":1232:1263  MAX_TWEET_LENGTH=newTweetLength */\n      dup2\n      swap1\n      sstore\n      pop\n        /* \"contracts/Twitter4.sol\":1153:1313  function changeTweetLength(uint256 newTweetLength) public onlyOwner {... */\n      pop\n      jump\t// out\n        /* \"contracts/Twitter4.sol\":304:342  mapping(address=>Tweet[]) public tweet */\n    tag_37:\n      mstore(0x20, 0x02)\n      dup2\n      0x00\n      mstore\n      keccak256(0x00, 0x40)\n      dup2\n      dup2\n      sload\n      dup2\n      lt\n      tag_84\n      jumpi\n      0x00\n      dup1\n      revert\n    tag_84:\n      swap1\n      0x00\n      mstore\n      keccak256(0x00, 0x20)\n      swap1\n      0x05\n      mul\n      add\n      0x00\n      swap2\n      pop\n      swap2\n      pop\n      pop\n      dup1\n      0x00\n      add\n      sload\n      swap1\n      dup1\n      0x01\n      add\n      0x00\n      swap1\n      sload\n      swap1\n      0x0100\n      exp\n      swap1\n      div\n      0xffffffffffffffffffffffffffffffffffffffff\n      and\n      swap1\n      dup1\n      0x02\n      add\n      sload\n      swap1\n      dup1\n      0x03\n      add\n      dup1\n      sload\n      tag_86\n      swap1\n      tag_57\n      jump\t// in\n    tag_86:\n      dup1\n      0x1f\n      add\n      0x20\n      dup1\n      swap2\n      div\n      mul\n      0x20\n      add\n      mload(0x40)\n      swap1\n      dup2\n      add\n      0x40\n      mstore\n      dup1\n      swap3\n      swap2\n      swap1\n      dup2\n      dup2\n      mstore\n      0x20\n      add\n      dup3\n      dup1\n      sload\n      tag_87\n      swap1\n      tag_57\n      jump\t// in\n    tag_87:\n      dup1\n      iszero\n      tag_88\n      jumpi\n      dup1\n      0x1f\n      lt\n      tag_89\n      jumpi\n      0x0100\n      dup1\n      dup4\n      sload\n      div\n      mul\n      dup4\n      mstore\n      swap2\n      0x20\n      add\n      swap2\n      jump(tag_88)\n    tag_89:\n      dup3\n      add\n      swap2\n      swap1\n      0x00\n      mstore\n      keccak256(0x00, 0x20)\n      swap1\n    tag_90:\n      dup2\n      sload\n      dup2\n      mstore\n      swap1\n      0x01\n      add\n      swap1\n      0x20\n      add\n      dup1\n      dup4\n      gt\n      tag_90\n      jumpi\n      dup3\n      swap1\n      sub\n      0x1f\n      and\n      dup3\n      add\n      swap2\n    tag_88:\n      pop\n      pop\n      pop\n      pop\n      pop\n      swap1\n      dup1\n      0x04\n      add\n      sload\n      swap1\n      pop\n      dup6\n      jump\t// out\n        /* \"contracts/Twitter4.sol\":1494:1731  function dislikeTweet(address author, uint256 id) external {... */\n    tag_42:\n        /* \"contracts/Twitter4.sol\":1594:1596  id */\n      dup1\n        /* \"contracts/Twitter4.sol\":1572:1577  tweet */\n      0x02\n        /* \"contracts/Twitter4.sol\":1572:1585  tweet[author] */\n      0x00\n        /* \"contracts/Twitter4.sol\":1578:1584  author */\n      dup5\n        /* \"contracts/Twitter4.sol\":1572:1585  tweet[author] */\n      0xffffffffffffffffffffffffffffffffffffffff\n      and\n      0xffffffffffffffffffffffffffffffffffffffff\n      and\n      dup2\n      mstore\n      0x20\n      add\n      swap1\n      dup2\n      mstore\n      0x20\n      add\n      0x00\n      keccak256\n        /* \"contracts/Twitter4.sol\":1586:1588  id */\n      dup3\n        /* \"contracts/Twitter4.sol\":1572:1589  tweet[author][id] */\n      dup2\n      sload\n      dup2\n      lt\n      tag_92\n      jumpi\n      tag_93\n      tag_65\n      jump\t// in\n    tag_93:\n    tag_92:\n      swap1\n      0x00\n      mstore\n      keccak256(0x00, 0x20)\n      swap1\n      0x05\n      mul\n      add\n        /* \"contracts/Twitter4.sol\":1572:1592  tweet[author][id].id */\n      0x00\n      add\n      sload\n        /* \"contracts/Twitter4.sol\":1572:1596  tweet[author][id].id==id */\n      eq\n        /* \"contracts/Twitter4.sol\":1564:1621  require(tweet[author][id].id==id, \"Tweet does not exist\") */\n      tag_95\n      jumpi\n      mload(0x40)\n      0x08c379a000000000000000000000000000000000000000000000000000000000\n      dup2\n      mstore\n      0x04\n      add\n      tag_96\n      swap1\n      tag_69\n      jump\t// in\n    tag_96:\n      mload(0x40)\n      dup1\n      swap2\n      sub\n      swap1\n      revert\n    tag_95:\n        /* \"contracts/Twitter4.sol\":1664:1665  0 */\n      0x00\n        /* \"contracts/Twitter4.sol\":1640:1645  tweet */\n      0x02\n        /* \"contracts/Twitter4.sol\":1640:1653  tweet[author] */\n      0x00\n        /* \"contracts/Twitter4.sol\":1646:1652  author */\n      dup5\n        /* \"contracts/Twitter4.sol\":1640:1653  tweet[author] */\n      0xffffffffffffffffffffffffffffffffffffffff\n      and\n      0xffffffffffffffffffffffffffffffffffffffff\n      and\n      dup2\n      mstore\n      0x20\n      add\n      swap1\n      dup2\n      mstore\n      0x20\n      add\n      0x00\n      keccak256\n        /* \"contracts/Twitter4.sol\":1654:1656  id */\n      dup3\n        /* \"contracts/Twitter4.sol\":1640:1657  tweet[author][id] */\n      dup2\n      sload\n      dup2\n      lt\n      tag_97\n      jumpi\n      tag_98\n      tag_65\n      jump\t// in\n    tag_98:\n    tag_97:\n      swap1\n      0x00\n      mstore\n      keccak256(0x00, 0x20)\n      swap1\n      0x05\n      mul\n      add\n        /* \"contracts/Twitter4.sol\":1640:1663  tweet[author][id].likes */\n      0x04\n      add\n      sload\n        /* \"contracts/Twitter4.sol\":1640:1665  tweet[author][id].likes>0 */\n      gt\n        /* \"contracts/Twitter4.sol\":1632:1687  require(tweet[author][id].likes>0, \"Tweet has no like\") */\n      tag_100\n      jumpi\n      mload(0x40)\n      0x08c379a000000000000000000000000000000000000000000000000000000000\n      dup2\n      mstore\n      0x04\n      add\n      tag_101\n      swap1\n      tag_102\n      jump\t// in\n    tag_101:\n      mload(0x40)\n      dup1\n      swap2\n      sub\n      swap1\n      revert\n    tag_100:\n        /* \"contracts/Twitter4.sol\":1698:1703  tweet */\n      0x02\n        /* \"contracts/Twitter4.sol\":1698:1711  tweet[author] */\n      0x00\n        /* \"contracts/Twitter4.sol\":1704:1710  author */\n      dup4\n        /* \"contracts/Twitter4.sol\":1698:1711  tweet[author] */\n      0xffffffffffffffffffffffffffffffffffffffff\n      and\n      0xffffffffffffffffffffffffffffffffffffffff\n      and\n      dup2\n      mstore\n      0x20\n      add\n      swap1\n      dup2\n      mstore\n      0x20\n      add\n      0x00\n      keccak256\n        /* \"contracts/Twitter4.sol\":1712:1714  id */\n      dup2\n        /* \"contracts/Twitter4.sol\":1698:1715  tweet[author][id] */\n      dup2\n      sload\n      dup2\n      lt\n      tag_103\n      jumpi\n      tag_104\n      tag_65\n      jump\t// in\n    tag_104:\n    tag_103:\n      swap1\n      0x00\n      mstore\n      keccak256(0x00, 0x20)\n      swap1\n      0x05\n      mul\n      add\n        /* \"contracts/Twitter4.sol\":1698:1721  tweet[author][id].likes */\n      0x04\n      add\n      0x00\n        /* \"contracts/Twitter4.sol\":1698:1723  tweet[author][id].likes-- */\n      dup2\n      sload\n      dup1\n      swap3\n      swap2\n      swap1\n      tag_106\n      swap1\n      tag_107\n      jump\t// in\n    tag_106:\n      swap2\n      swap1\n      pop\n      sstore\n      pop\n        /* \"contracts/Twitter4.sol\":1494:1731  function dislikeTweet(address author, uint256 id) external {... */\n      pop\n      pop\n      jump\t// out\n        /* \"contracts/Twitter4.sol\":276:297  address public _owner */\n    tag_44:\n      0x01\n      0x00\n      swap1\n      sload\n      swap1\n      0x0100\n      exp\n      swap1\n      div\n      0xffffffffffffffffffffffffffffffffffffffff\n      and\n      dup2\n      jump\t// out\n        /* \"contracts/Twitter4.sol\":1035:1147  function getTweet(uint256 _i) public view returns (Tweet memory ){... */\n    tag_49:\n        /* \"contracts/Twitter4.sol\":1086:1098  Tweet memory */\n      tag_108\n      tag_109\n      jump\t// in\n    tag_108:\n        /* \"contracts/Twitter4.sol\":1118:1123  tweet */\n      0x02\n        /* \"contracts/Twitter4.sol\":1118:1135  tweet[msg.sender] */\n      0x00\n        /* \"contracts/Twitter4.sol\":1124:1134  msg.sender */\n      caller\n        /* \"contracts/Twitter4.sol\":1118:1135  tweet[msg.sender] */\n      0xffffffffffffffffffffffffffffffffffffffff\n      and\n      0xffffffffffffffffffffffffffffffffffffffff\n      and\n      dup2\n      mstore\n      0x20\n      add\n      swap1\n      dup2\n      mstore\n      0x20\n      add\n      0x00\n      keccak256\n        /* \"contracts/Twitter4.sol\":1136:1138  _i */\n      dup3\n        /* \"contracts/Twitter4.sol\":1118:1139  tweet[msg.sender][_i] */\n      dup2\n      sload\n      dup2\n      lt\n      tag_111\n      jumpi\n      tag_112\n      tag_65\n      jump\t// in\n    tag_112:\n    tag_111:\n      swap1\n      0x00\n      mstore\n      keccak256(0x00, 0x20)\n      swap1\n      0x05\n      mul\n      add\n        /* \"contracts/Twitter4.sol\":1111:1139  return tweet[msg.sender][_i] */\n      mload(0x40)\n      dup1\n      0xa0\n      add\n      0x40\n      mstore\n      swap1\n      dup2\n      0x00\n      dup3\n      add\n      sload\n      dup2\n      mstore\n      0x20\n      add\n      0x01\n      dup3\n      add\n      0x00\n      swap1\n      sload\n      swap1\n      0x0100\n      exp\n      swap1\n      div\n      0xffffffffffffffffffffffffffffffffffffffff\n      and\n      0xffffffffffffffffffffffffffffffffffffffff\n      and\n      0xffffffffffffffffffffffffffffffffffffffff\n      and\n      dup2\n      mstore\n      0x20\n      add\n      0x02\n      dup3\n      add\n      sload\n      dup2\n      mstore\n      0x20\n      add\n      0x03\n      dup3\n      add\n      dup1\n      sload\n      tag_114\n      swap1\n      tag_57\n      jump\t// in\n    tag_114:\n      dup1\n      0x1f\n      add\n      0x20\n      dup1\n      swap2\n      div\n      mul\n      0x20\n      add\n      mload(0x40)\n      swap1\n      dup2\n      add\n      0x40\n      mstore\n      dup1\n      swap3\n      swap2\n      swap1\n      dup2\n      dup2\n      mstore\n      0x20\n      add\n      dup3\n      dup1\n      sload\n      tag_115\n      swap1\n      tag_57\n      jump\t// in\n    tag_115:\n      dup1\n      iszero\n      tag_116\n      jumpi\n      dup1\n      0x1f\n      lt\n      tag_117\n      jumpi\n      0x0100\n      dup1\n      dup4\n      sload\n      div\n      mul\n      dup4\n      mstore\n      swap2\n      0x20\n      add\n      swap2\n      jump(tag_116)\n    tag_117:\n      dup3\n      add\n      swap2\n      swap1\n      0x00\n      mstore\n      keccak256(0x00, 0x20)\n      swap1\n    tag_118:\n      dup2\n      sload\n      dup2\n      mstore\n      swap1\n      0x01\n      add\n      swap1\n      0x20\n      add\n      dup1\n      dup4\n      gt\n      tag_118\n      jumpi\n      dup3\n      swap1\n      sub\n      0x1f\n      and\n      dup3\n      add\n      swap2\n    tag_116:\n      pop\n      pop\n      pop\n      pop\n      pop\n      dup2\n      mstore\n      0x20\n      add\n      0x04\n      dup3\n      add\n      sload\n      dup2\n      mstore\n      pop\n      pop\n      swap1\n      pop\n        /* \"contracts/Twitter4.sol\":1035:1147  function getTweet(uint256 _i) public view returns (Tweet memory ){... */\n      swap2\n      swap1\n      pop\n      jump\t// out\n    tag_109:\n      mload(0x40)\n      dup1\n      0xa0\n      add\n      0x40\n      mstore\n      dup1\n      0x00\n      dup2\n      mstore\n      0x20\n      add\n      and(0xffffffffffffffffffffffffffffffffffffffff, 0x00)\n      dup2\n      mstore\n      0x20\n      add\n      0x00\n      dup2\n      mstore\n      0x20\n      add\n      0x60\n      dup2\n      mstore\n      0x20\n      add\n      0x00\n      dup2\n      mstore\n      pop\n      swap1\n      jump\t// out\n        /* \"#utility.yul\":7:82   */\n    tag_119:\n        /* \"#utility.yul\":40:46   */\n      0x00\n        /* \"#utility.yul\":73:75   */\n      0x40\n        /* \"#utility.yul\":67:76   */\n      mload\n        /* \"#utility.yul\":57:76   */\n      swap1\n      pop\n        /* \"#utility.yul\":7:82   */\n      swap1\n      jump\t// out\n        /* \"#utility.yul\":88:205   */\n    tag_120:\n        /* \"#utility.yul\":197:198   */\n      0x00\n        /* \"#utility.yul\":194:195   */\n      dup1\n        /* \"#utility.yul\":187:199   */\n      revert\n        /* \"#utility.yul\":211:328   */\n    tag_121:\n        /* \"#utility.yul\":320:321   */\n      0x00\n        /* \"#utility.yul\":317:318   */\n      dup1\n        /* \"#utility.yul\":310:322   */\n      revert\n        /* \"#utility.yul\":334:460   */\n    tag_122:\n        /* \"#utility.yul\":371:378   */\n      0x00\n        /* \"#utility.yul\":411:453   */\n      0xffffffffffffffffffffffffffffffffffffffff\n        /* \"#utility.yul\":404:409   */\n      dup3\n        /* \"#utility.yul\":400:454   */\n      and\n        /* \"#utility.yul\":389:454   */\n      swap1\n      pop\n        /* \"#utility.yul\":334:460   */\n      swap2\n      swap1\n      pop\n      jump\t// out\n        /* \"#utility.yul\":466:562   */\n    tag_123:\n        /* \"#utility.yul\":503:510   */\n      0x00\n        /* \"#utility.yul\":532:556   */\n      tag_186\n        /* \"#utility.yul\":550:555   */\n      dup3\n        /* \"#utility.yul\":532:556   */\n      tag_122\n      jump\t// in\n    tag_186:\n        /* \"#utility.yul\":521:556   */\n      swap1\n      pop\n        /* \"#utility.yul\":466:562   */\n      swap2\n      swap1\n      pop\n      jump\t// out\n        /* \"#utility.yul\":568:690   */\n    tag_124:\n        /* \"#utility.yul\":641:665   */\n      tag_188\n        /* \"#utility.yul\":659:664   */\n      dup2\n        /* \"#utility.yul\":641:665   */\n      tag_123\n      jump\t// in\n    tag_188:\n        /* \"#utility.yul\":634:639   */\n      dup2\n        /* \"#utility.yul\":631:666   */\n      eq\n        /* \"#utility.yul\":621:684   */\n      tag_189\n      jumpi\n        /* \"#utility.yul\":680:681   */\n      0x00\n        /* \"#utility.yul\":677:678   */\n      dup1\n        /* \"#utility.yul\":670:682   */\n      revert\n        /* \"#utility.yul\":621:684   */\n    tag_189:\n        /* \"#utility.yul\":568:690   */\n      pop\n      jump\t// out\n        /* \"#utility.yul\":696:835   */\n    tag_125:\n        /* \"#utility.yul\":742:747   */\n      0x00\n        /* \"#utility.yul\":780:786   */\n      dup2\n        /* \"#utility.yul\":767:787   */\n      calldataload\n        /* \"#utility.yul\":758:787   */\n      swap1\n      pop\n        /* \"#utility.yul\":796:829   */\n      tag_191\n        /* \"#utility.yul\":823:828   */\n      dup2\n        /* \"#utility.yul\":796:829   */\n      tag_124\n      jump\t// in\n    tag_191:\n        /* \"#utility.yul\":696:835   */\n      swap3\n      swap2\n      pop\n      pop\n      jump\t// out\n        /* \"#utility.yul\":841:1170   */\n    tag_15:\n        /* \"#utility.yul\":900:906   */\n      0x00\n        /* \"#utility.yul\":949:951   */\n      0x20\n        /* \"#utility.yul\":937:946   */\n      dup3\n        /* \"#utility.yul\":928:935   */\n      dup5\n        /* \"#utility.yul\":924:947   */\n      sub\n        /* \"#utility.yul\":920:952   */\n      slt\n        /* \"#utility.yul\":917:1036   */\n      iszero\n      tag_193\n      jumpi\n        /* \"#utility.yul\":955:1034   */\n      tag_194\n      tag_120\n      jump\t// in\n    tag_194:\n        /* \"#utility.yul\":917:1036   */\n    tag_193:\n        /* \"#utility.yul\":1075:1076   */\n      0x00\n        /* \"#utility.yul\":1100:1153   */\n      tag_195\n        /* \"#utility.yul\":1145:1152   */\n      dup5\n        /* \"#utility.yul\":1136:1142   */\n      dup3\n        /* \"#utility.yul\":1125:1134   */\n      dup6\n        /* \"#utility.yul\":1121:1143   */\n      add\n        /* \"#utility.yul\":1100:1153   */\n      tag_125\n      jump\t// in\n    tag_195:\n        /* \"#utility.yul\":1090:1153   */\n      swap2\n      pop\n        /* \"#utility.yul\":1046:1163   */\n      pop\n        /* \"#utility.yul\":841:1170   */\n      swap3\n      swap2\n      pop\n      pop\n      jump\t// out\n        /* \"#utility.yul\":1176:1311   */\n    tag_126:\n        /* \"#utility.yul\":1264:1270   */\n      0x00\n        /* \"#utility.yul\":1298:1303   */\n      dup2\n        /* \"#utility.yul\":1292:1304   */\n      mload\n        /* \"#utility.yul\":1282:1304   */\n      swap1\n      pop\n        /* \"#utility.yul\":1176:1311   */\n      swap2\n      swap1\n      pop\n      jump\t// out\n        /* \"#utility.yul\":1317:1522   */\n    tag_127:\n        /* \"#utility.yul\":1437:1448   */\n      0x00\n        /* \"#utility.yul\":1471:1477   */\n      dup3\n        /* \"#utility.yul\":1466:1469   */\n      dup3\n        /* \"#utility.yul\":1459:1478   */\n      mstore\n        /* \"#utility.yul\":1511:1515   */\n      0x20\n        /* \"#utility.yul\":1506:1509   */\n      dup3\n        /* \"#utility.yul\":1502:1516   */\n      add\n        /* \"#utility.yul\":1487:1516   */\n      swap1\n      pop\n        /* \"#utility.yul\":1317:1522   */\n      swap3\n      swap2\n      pop\n      pop\n      jump\t// out\n        /* \"#utility.yul\":1528:1681   */\n    tag_128:\n        /* \"#utility.yul\":1616:1620   */\n      0x00\n        /* \"#utility.yul\":1639:1642   */\n      dup2\n        /* \"#utility.yul\":1631:1642   */\n      swap1\n      pop\n        /* \"#utility.yul\":1669:1673   */\n      0x20\n        /* \"#utility.yul\":1664:1667   */\n      dup3\n        /* \"#utility.yul\":1660:1674   */\n      add\n        /* \"#utility.yul\":1652:1674   */\n      swap1\n      pop\n        /* \"#utility.yul\":1528:1681   */\n      swap2\n      swap1\n      pop\n      jump\t// out\n        /* \"#utility.yul\":1687:1764   */\n    tag_129:\n        /* \"#utility.yul\":1724:1731   */\n      0x00\n        /* \"#utility.yul\":1753:1758   */\n      dup2\n        /* \"#utility.yul\":1742:1758   */\n      swap1\n      pop\n        /* \"#utility.yul\":1687:1764   */\n      swap2\n      swap1\n      pop\n      jump\t// out\n        /* \"#utility.yul\":1770:1878   */\n    tag_130:\n        /* \"#utility.yul\":1847:1871   */\n      tag_201\n        /* \"#utility.yul\":1865:1870   */\n      dup2\n        /* \"#utility.yul\":1847:1871   */\n      tag_129\n      jump\t// in\n    tag_201:\n        /* \"#utility.yul\":1842:1845   */\n      dup3\n        /* \"#utility.yul\":1835:1872   */\n      mstore\n        /* \"#utility.yul\":1770:1878   */\n      pop\n      pop\n      jump\t// out\n        /* \"#utility.yul\":1884:1992   */\n    tag_131:\n        /* \"#utility.yul\":1961:1985   */\n      tag_203\n        /* \"#utility.yul\":1979:1984   */\n      dup2\n        /* \"#utility.yul\":1961:1985   */\n      tag_123\n      jump\t// in\n    tag_203:\n        /* \"#utility.yul\":1956:1959   */\n      dup3\n        /* \"#utility.yul\":1949:1986   */\n      mstore\n        /* \"#utility.yul\":1884:1992   */\n      pop\n      pop\n      jump\t// out\n        /* \"#utility.yul\":1998:2097   */\n    tag_132:\n        /* \"#utility.yul\":2050:2056   */\n      0x00\n        /* \"#utility.yul\":2084:2089   */\n      dup2\n        /* \"#utility.yul\":2078:2090   */\n      mload\n        /* \"#utility.yul\":2068:2090   */\n      swap1\n      pop\n        /* \"#utility.yul\":1998:2097   */\n      swap2\n      swap1\n      pop\n      jump\t// out\n        /* \"#utility.yul\":2103:2262   */\n    tag_133:\n        /* \"#utility.yul\":2177:2188   */\n      0x00\n        /* \"#utility.yul\":2211:2217   */\n      dup3\n        /* \"#utility.yul\":2206:2209   */\n      dup3\n        /* \"#utility.yul\":2199:2218   */\n      mstore\n        /* \"#utility.yul\":2251:2255   */\n      0x20\n        /* \"#utility.yul\":2246:2249   */\n      dup3\n        /* \"#utility.yul\":2242:2256   */\n      add\n        /* \"#utility.yul\":2227:2256   */\n      swap1\n      pop\n        /* \"#utility.yul\":2103:2262   */\n      swap3\n      swap2\n      pop\n      pop\n      jump\t// out\n        /* \"#utility.yul\":2268:2407   */\n    tag_134:\n        /* \"#utility.yul\":2357:2363   */\n      dup3\n        /* \"#utility.yul\":2352:2355   */\n      dup2\n        /* \"#utility.yul\":2347:2350   */\n      dup4\n        /* \"#utility.yul\":2341:2364   */\n      mcopy\n        /* \"#utility.yul\":2398:2399   */\n      0x00\n        /* \"#utility.yul\":2389:2395   */\n      dup4\n        /* \"#utility.yul\":2384:2387   */\n      dup4\n        /* \"#utility.yul\":2380:2396   */\n      add\n        /* \"#utility.yul\":2373:2400   */\n      mstore\n        /* \"#utility.yul\":2268:2407   */\n      pop\n      pop\n      pop\n      jump\t// out\n        /* \"#utility.yul\":2413:2515   */\n    tag_135:\n        /* \"#utility.yul\":2454:2460   */\n      0x00\n        /* \"#utility.yul\":2505:2507   */\n      0x1f\n        /* \"#utility.yul\":2501:2508   */\n      not\n        /* \"#utility.yul\":2496:2498   */\n      0x1f\n        /* \"#utility.yul\":2489:2494   */\n      dup4\n        /* \"#utility.yul\":2485:2499   */\n      add\n        /* \"#utility.yul\":2481:2509   */\n      and\n        /* \"#utility.yul\":2471:2509   */\n      swap1\n      pop\n        /* \"#utility.yul\":2413:2515   */\n      swap2\n      swap1\n      pop\n      jump\t// out\n        /* \"#utility.yul\":2521:2878   */\n    tag_136:\n        /* \"#utility.yul\":2599:2602   */\n      0x00\n        /* \"#utility.yul\":2627:2666   */\n      tag_209\n        /* \"#utility.yul\":2660:2665   */\n      dup3\n        /* \"#utility.yul\":2627:2666   */\n      tag_132\n      jump\t// in\n    tag_209:\n        /* \"#utility.yul\":2682:2743   */\n      tag_210\n        /* \"#utility.yul\":2736:2742   */\n      dup2\n        /* \"#utility.yul\":2731:2734   */\n      dup6\n        /* \"#utility.yul\":2682:2743   */\n      tag_133\n      jump\t// in\n    tag_210:\n        /* \"#utility.yul\":2675:2743   */\n      swap4\n      pop\n        /* \"#utility.yul\":2752:2817   */\n      tag_211\n        /* \"#utility.yul\":2810:2816   */\n      dup2\n        /* \"#utility.yul\":2805:2808   */\n      dup6\n        /* \"#utility.yul\":2798:2802   */\n      0x20\n        /* \"#utility.yul\":2791:2796   */\n      dup7\n        /* \"#utility.yul\":2787:2803   */\n      add\n        /* \"#utility.yul\":2752:2817   */\n      tag_134\n      jump\t// in\n    tag_211:\n        /* \"#utility.yul\":2842:2871   */\n      tag_212\n        /* \"#utility.yul\":2864:2870   */\n      dup2\n        /* \"#utility.yul\":2842:2871   */\n      tag_135\n      jump\t// in\n    tag_212:\n        /* \"#utility.yul\":2837:2840   */\n      dup5\n        /* \"#utility.yul\":2833:2872   */\n      add\n        /* \"#utility.yul\":2826:2872   */\n      swap2\n      pop\n        /* \"#utility.yul\":2603:2878   */\n      pop\n        /* \"#utility.yul\":2521:2878   */\n      swap3\n      swap2\n      pop\n      pop\n      jump\t// out\n        /* \"#utility.yul\":2936:4054   */\n    tag_137:\n        /* \"#utility.yul\":3037:3040   */\n      0x00\n        /* \"#utility.yul\":3073:3077   */\n      0xa0\n        /* \"#utility.yul\":3068:3071   */\n      dup4\n        /* \"#utility.yul\":3064:3078   */\n      add\n        /* \"#utility.yul\":3158:3162   */\n      0x00\n        /* \"#utility.yul\":3151:3156   */\n      dup4\n        /* \"#utility.yul\":3147:3163   */\n      add\n        /* \"#utility.yul\":3141:3164   */\n      mload\n        /* \"#utility.yul\":3177:3240   */\n      tag_214\n        /* \"#utility.yul\":3234:3238   */\n      0x00\n        /* \"#utility.yul\":3229:3232   */\n      dup7\n        /* \"#utility.yul\":3225:3239   */\n      add\n        /* \"#utility.yul\":3211:3223   */\n      dup3\n        /* \"#utility.yul\":3177:3240   */\n      tag_130\n      jump\t// in\n    tag_214:\n        /* \"#utility.yul\":3088:3250   */\n      pop\n        /* \"#utility.yul\":3333:3337   */\n      0x20\n        /* \"#utility.yul\":3326:3331   */\n      dup4\n        /* \"#utility.yul\":3322:3338   */\n      add\n        /* \"#utility.yul\":3316:3339   */\n      mload\n        /* \"#utility.yul\":3352:3415   */\n      tag_215\n        /* \"#utility.yul\":3409:3413   */\n      0x20\n        /* \"#utility.yul\":3404:3407   */\n      dup7\n        /* \"#utility.yul\":3400:3414   */\n      add\n        /* \"#utility.yul\":3386:3398   */\n      dup3\n        /* \"#utility.yul\":3352:3415   */\n      tag_131\n      jump\t// in\n    tag_215:\n        /* \"#utility.yul\":3260:3425   */\n      pop\n        /* \"#utility.yul\":3512:3516   */\n      0x40\n        /* \"#utility.yul\":3505:3510   */\n      dup4\n        /* \"#utility.yul\":3501:3517   */\n      add\n        /* \"#utility.yul\":3495:3518   */\n      mload\n        /* \"#utility.yul\":3531:3594   */\n      tag_216\n        /* \"#utility.yul\":3588:3592   */\n      0x40\n        /* \"#utility.yul\":3583:3586   */\n      dup7\n        /* \"#utility.yul\":3579:3593   */\n      add\n        /* \"#utility.yul\":3565:3577   */\n      dup3\n        /* \"#utility.yul\":3531:3594   */\n      tag_130\n      jump\t// in\n    tag_216:\n        /* \"#utility.yul\":3435:3604   */\n      pop\n        /* \"#utility.yul\":3689:3693   */\n      0x60\n        /* \"#utility.yul\":3682:3687   */\n      dup4\n        /* \"#utility.yul\":3678:3694   */\n      add\n        /* \"#utility.yul\":3672:3695   */\n      mload\n        /* \"#utility.yul\":3742:3745   */\n      dup5\n        /* \"#utility.yul\":3736:3740   */\n      dup3\n        /* \"#utility.yul\":3732:3746   */\n      sub\n        /* \"#utility.yul\":3725:3729   */\n      0x60\n        /* \"#utility.yul\":3720:3723   */\n      dup7\n        /* \"#utility.yul\":3716:3730   */\n      add\n        /* \"#utility.yul\":3709:3747   */\n      mstore\n        /* \"#utility.yul\":3768:3841   */\n      tag_217\n        /* \"#utility.yul\":3836:3840   */\n      dup3\n        /* \"#utility.yul\":3822:3834   */\n      dup3\n        /* \"#utility.yul\":3768:3841   */\n      tag_136\n      jump\t// in\n    tag_217:\n        /* \"#utility.yul\":3760:3841   */\n      swap2\n      pop\n        /* \"#utility.yul\":3614:3852   */\n      pop\n        /* \"#utility.yul\":3935:3939   */\n      0x80\n        /* \"#utility.yul\":3928:3933   */\n      dup4\n        /* \"#utility.yul\":3924:3940   */\n      add\n        /* \"#utility.yul\":3918:3941   */\n      mload\n        /* \"#utility.yul\":3954:4017   */\n      tag_218\n        /* \"#utility.yul\":4011:4015   */\n      0x80\n        /* \"#utility.yul\":4006:4009   */\n      dup7\n        /* \"#utility.yul\":4002:4016   */\n      add\n        /* \"#utility.yul\":3988:4000   */\n      dup3\n        /* \"#utility.yul\":3954:4017   */\n      tag_130\n      jump\t// in\n    tag_218:\n        /* \"#utility.yul\":3862:4027   */\n      pop\n        /* \"#utility.yul\":4044:4048   */\n      dup1\n        /* \"#utility.yul\":4037:4048   */\n      swap2\n      pop\n        /* \"#utility.yul\":3042:4054   */\n      pop\n        /* \"#utility.yul\":2936:4054   */\n      swap3\n      swap2\n      pop\n      pop\n      jump\t// out\n        /* \"#utility.yul\":4060:4300   */\n    tag_138:\n        /* \"#utility.yul\":4171:4181   */\n      0x00\n        /* \"#utility.yul\":4206:4294   */\n      tag_220\n        /* \"#utility.yul\":4290:4293   */\n      dup4\n        /* \"#utility.yul\":4282:4288   */\n      dup4\n        /* \"#utility.yul\":4206:4294   */\n      tag_137\n      jump\t// in\n    tag_220:\n        /* \"#utility.yul\":4192:4294   */\n      swap1\n      pop\n        /* \"#utility.yul\":4060:4300   */\n      swap3\n      swap2\n      pop\n      pop\n      jump\t// out\n        /* \"#utility.yul\":4306:4440   */\n    tag_139:\n        /* \"#utility.yul\":4397:4401   */\n      0x00\n        /* \"#utility.yul\":4429:4433   */\n      0x20\n        /* \"#utility.yul\":4424:4427   */\n      dup3\n        /* \"#utility.yul\":4420:4434   */\n      add\n        /* \"#utility.yul\":4412:4434   */\n      swap1\n      pop\n        /* \"#utility.yul\":4306:4440   */\n      swap2\n      swap1\n      pop\n      jump\t// out\n        /* \"#utility.yul\":4502:5581   */\n    tag_140:\n        /* \"#utility.yul\":4663:4666   */\n      0x00\n        /* \"#utility.yul\":4692:4767   */\n      tag_223\n        /* \"#utility.yul\":4761:4766   */\n      dup3\n        /* \"#utility.yul\":4692:4767   */\n      tag_126\n      jump\t// in\n    tag_223:\n        /* \"#utility.yul\":4783:4890   */\n      tag_224\n        /* \"#utility.yul\":4883:4889   */\n      dup2\n        /* \"#utility.yul\":4878:4881   */\n      dup6\n        /* \"#utility.yul\":4783:4890   */\n      tag_127\n      jump\t// in\n    tag_224:\n        /* \"#utility.yul\":4776:4890   */\n      swap4\n      pop\n        /* \"#utility.yul\":4916:4919   */\n      dup4\n        /* \"#utility.yul\":4961:4965   */\n      0x20\n        /* \"#utility.yul\":4953:4959   */\n      dup3\n        /* \"#utility.yul\":4949:4966   */\n      mul\n        /* \"#utility.yul\":4944:4947   */\n      dup6\n        /* \"#utility.yul\":4940:4967   */\n      add\n        /* \"#utility.yul\":4991:5068   */\n      tag_225\n        /* \"#utility.yul\":5062:5067   */\n      dup6\n        /* \"#utility.yul\":4991:5068   */\n      tag_128\n      jump\t// in\n    tag_225:\n        /* \"#utility.yul\":5091:5098   */\n      dup1\n        /* \"#utility.yul\":5122:5123   */\n      0x00\n        /* \"#utility.yul\":5107:5536   */\n    tag_226:\n        /* \"#utility.yul\":5132:5138   */\n      dup6\n        /* \"#utility.yul\":5129:5130   */\n      dup2\n        /* \"#utility.yul\":5126:5139   */\n      lt\n        /* \"#utility.yul\":5107:5536   */\n      iszero\n      tag_228\n      jumpi\n        /* \"#utility.yul\":5203:5212   */\n      dup5\n        /* \"#utility.yul\":5197:5201   */\n      dup5\n        /* \"#utility.yul\":5193:5213   */\n      sub\n        /* \"#utility.yul\":5188:5191   */\n      dup10\n        /* \"#utility.yul\":5181:5214   */\n      mstore\n        /* \"#utility.yul\":5254:5260   */\n      dup2\n        /* \"#utility.yul\":5248:5261   */\n      mload\n        /* \"#utility.yul\":5282:5388   */\n      tag_229\n        /* \"#utility.yul\":5383:5387   */\n      dup6\n        /* \"#utility.yul\":5368:5381   */\n      dup3\n        /* \"#utility.yul\":5282:5388   */\n      tag_138\n      jump\t// in\n    tag_229:\n        /* \"#utility.yul\":5274:5388   */\n      swap5\n      pop\n        /* \"#utility.yul\":5411:5492   */\n      tag_230\n        /* \"#utility.yul\":5485:5491   */\n      dup4\n        /* \"#utility.yul\":5411:5492   */\n      tag_139\n      jump\t// in\n    tag_230:\n        /* \"#utility.yul\":5401:5492   */\n      swap3\n      pop\n        /* \"#utility.yul\":5521:5525   */\n      0x20\n        /* \"#utility.yul\":5516:5519   */\n      dup11\n        /* \"#utility.yul\":5512:5526   */\n      add\n        /* \"#utility.yul\":5505:5526   */\n      swap10\n      pop\n        /* \"#utility.yul\":5167:5536   */\n      pop\n        /* \"#utility.yul\":5154:5155   */\n      0x01\n        /* \"#utility.yul\":5151:5152   */\n      dup2\n        /* \"#utility.yul\":5147:5156   */\n      add\n        /* \"#utility.yul\":5142:5156   */\n      swap1\n      pop\n        /* \"#utility.yul\":5107:5536   */\n      jump(tag_226)\n    tag_228:\n        /* \"#utility.yul\":5111:5125   */\n      pop\n        /* \"#utility.yul\":5552:5556   */\n      dup3\n        /* \"#utility.yul\":5545:5556   */\n      swap8\n      pop\n        /* \"#utility.yul\":5572:5575   */\n      dup8\n        /* \"#utility.yul\":5565:5575   */\n      swap6\n      pop\n        /* \"#utility.yul\":4668:5581   */\n      pop\n      pop\n      pop\n      pop\n      pop\n        /* \"#utility.yul\":4502:5581   */\n      swap3\n      swap2\n      pop\n      pop\n      jump\t// out\n        /* \"#utility.yul\":5587:6044   */\n    tag_18:\n        /* \"#utility.yul\":5772:5776   */\n      0x00\n        /* \"#utility.yul\":5810:5812   */\n      0x20\n        /* \"#utility.yul\":5799:5808   */\n      dup3\n        /* \"#utility.yul\":5795:5813   */\n      add\n        /* \"#utility.yul\":5787:5813   */\n      swap1\n      pop\n        /* \"#utility.yul\":5859:5868   */\n      dup2\n        /* \"#utility.yul\":5853:5857   */\n      dup2\n        /* \"#utility.yul\":5849:5869   */\n      sub\n        /* \"#utility.yul\":5845:5846   */\n      0x00\n        /* \"#utility.yul\":5834:5843   */\n      dup4\n        /* \"#utility.yul\":5830:5847   */\n      add\n        /* \"#utility.yul\":5823:5870   */\n      mstore\n        /* \"#utility.yul\":5887:6037   */\n      tag_232\n        /* \"#utility.yul\":6032:6036   */\n      dup2\n        /* \"#utility.yul\":6023:6029   */\n      dup5\n        /* \"#utility.yul\":5887:6037   */\n      tag_140\n      jump\t// in\n    tag_232:\n        /* \"#utility.yul\":5879:6037   */\n      swap1\n      pop\n        /* \"#utility.yul\":5587:6044   */\n      swap3\n      swap2\n      pop\n      pop\n      jump\t// out\n        /* \"#utility.yul\":6050:6172   */\n    tag_141:\n        /* \"#utility.yul\":6123:6147   */\n      tag_234\n        /* \"#utility.yul\":6141:6146   */\n      dup2\n        /* \"#utility.yul\":6123:6147   */\n      tag_129\n      jump\t// in\n    tag_234:\n        /* \"#utility.yul\":6116:6121   */\n      dup2\n        /* \"#utility.yul\":6113:6148   */\n      eq\n        /* \"#utility.yul\":6103:6166   */\n      tag_235\n      jumpi\n        /* \"#utility.yul\":6162:6163   */\n      0x00\n        /* \"#utility.yul\":6159:6160   */\n      dup1\n        /* \"#utility.yul\":6152:6164   */\n      revert\n        /* \"#utility.yul\":6103:6166   */\n    tag_235:\n        /* \"#utility.yul\":6050:6172   */\n      pop\n      jump\t// out\n        /* \"#utility.yul\":6178:6317   */\n    tag_142:\n        /* \"#utility.yul\":6224:6229   */\n      0x00\n        /* \"#utility.yul\":6262:6268   */\n      dup2\n        /* \"#utility.yul\":6249:6269   */\n      calldataload\n        /* \"#utility.yul\":6240:6269   */\n      swap1\n      pop\n        /* \"#utility.yul\":6278:6311   */\n      tag_237\n        /* \"#utility.yul\":6305:6310   */\n      dup2\n        /* \"#utility.yul\":6278:6311   */\n      tag_141\n      jump\t// in\n    tag_237:\n        /* \"#utility.yul\":6178:6317   */\n      swap3\n      swap2\n      pop\n      pop\n      jump\t// out\n        /* \"#utility.yul\":6323:6797   */\n    tag_21:\n        /* \"#utility.yul\":6391:6397   */\n      0x00\n        /* \"#utility.yul\":6399:6405   */\n      dup1\n        /* \"#utility.yul\":6448:6450   */\n      0x40\n        /* \"#utility.yul\":6436:6445   */\n      dup4\n        /* \"#utility.yul\":6427:6434   */\n      dup6\n        /* \"#utility.yul\":6423:6446   */\n      sub\n        /* \"#utility.yul\":6419:6451   */\n      slt\n        /* \"#utility.yul\":6416:6535   */\n      iszero\n      tag_239\n      jumpi\n        /* \"#utility.yul\":6454:6533   */\n      tag_240\n      tag_120\n      jump\t// in\n    tag_240:\n        /* \"#utility.yul\":6416:6535   */\n    tag_239:\n        /* \"#utility.yul\":6574:6575   */\n      0x00\n        /* \"#utility.yul\":6599:6652   */\n      tag_241\n        /* \"#utility.yul\":6644:6651   */\n      dup6\n        /* \"#utility.yul\":6635:6641   */\n      dup3\n        /* \"#utility.yul\":6624:6633   */\n      dup7\n        /* \"#utility.yul\":6620:6642   */\n      add\n        /* \"#utility.yul\":6599:6652   */\n      tag_125\n      jump\t// in\n    tag_241:\n        /* \"#utility.yul\":6589:6652   */\n      swap3\n      pop\n        /* \"#utility.yul\":6545:6662   */\n      pop\n        /* \"#utility.yul\":6701:6703   */\n      0x20\n        /* \"#utility.yul\":6727:6780   */\n      tag_242\n        /* \"#utility.yul\":6772:6779   */\n      dup6\n        /* \"#utility.yul\":6763:6769   */\n      dup3\n        /* \"#utility.yul\":6752:6761   */\n      dup7\n        /* \"#utility.yul\":6748:6770   */\n      add\n        /* \"#utility.yul\":6727:6780   */\n      tag_142\n      jump\t// in\n    tag_242:\n        /* \"#utility.yul\":6717:6780   */\n      swap2\n      pop\n        /* \"#utility.yul\":6672:6790   */\n      pop\n        /* \"#utility.yul\":6323:6797   */\n      swap3\n      pop\n      swap3\n      swap1\n      pop\n      jump\t// out\n        /* \"#utility.yul\":6803:6921   */\n    tag_143:\n        /* \"#utility.yul\":6890:6914   */\n      tag_244\n        /* \"#utility.yul\":6908:6913   */\n      dup2\n        /* \"#utility.yul\":6890:6914   */\n      tag_129\n      jump\t// in\n    tag_244:\n        /* \"#utility.yul\":6885:6888   */\n      dup3\n        /* \"#utility.yul\":6878:6915   */\n      mstore\n        /* \"#utility.yul\":6803:6921   */\n      pop\n      pop\n      jump\t// out\n        /* \"#utility.yul\":6927:7149   */\n    tag_26:\n        /* \"#utility.yul\":7020:7024   */\n      0x00\n        /* \"#utility.yul\":7058:7060   */\n      0x20\n        /* \"#utility.yul\":7047:7056   */\n      dup3\n        /* \"#utility.yul\":7043:7061   */\n      add\n        /* \"#utility.yul\":7035:7061   */\n      swap1\n      pop\n        /* \"#utility.yul\":7071:7142   */\n      tag_246\n        /* \"#utility.yul\":7139:7140   */\n      0x00\n        /* \"#utility.yul\":7128:7137   */\n      dup4\n        /* \"#utility.yul\":7124:7141   */\n      add\n        /* \"#utility.yul\":7115:7121   */\n      dup5\n        /* \"#utility.yul\":7071:7142   */\n      tag_143\n      jump\t// in\n    tag_246:\n        /* \"#utility.yul\":6927:7149   */\n      swap3\n      swap2\n      pop\n      pop\n      jump\t// out\n        /* \"#utility.yul\":7155:7272   */\n    tag_144:\n        /* \"#utility.yul\":7264:7265   */\n      0x00\n        /* \"#utility.yul\":7261:7262   */\n      dup1\n        /* \"#utility.yul\":7254:7266   */\n      revert\n        /* \"#utility.yul\":7278:7395   */\n    tag_145:\n        /* \"#utility.yul\":7387:7388   */\n      0x00\n        /* \"#utility.yul\":7384:7385   */\n      dup1\n        /* \"#utility.yul\":7377:7389   */\n      revert\n        /* \"#utility.yul\":7401:7581   */\n    tag_146:\n        /* \"#utility.yul\":7449:7526   */\n      0x4e487b7100000000000000000000000000000000000000000000000000000000\n        /* \"#utility.yul\":7446:7447   */\n      0x00\n        /* \"#utility.yul\":7439:7527   */\n      mstore\n        /* \"#utility.yul\":7546:7550   */\n      0x41\n        /* \"#utility.yul\":7543:7544   */\n      0x04\n        /* \"#utility.yul\":7536:7551   */\n      mstore\n        /* \"#utility.yul\":7570:7574   */\n      0x24\n        /* \"#utility.yul\":7567:7568   */\n      0x00\n        /* \"#utility.yul\":7560:7575   */\n      revert\n        /* \"#utility.yul\":7587:7868   */\n    tag_147:\n        /* \"#utility.yul\":7670:7697   */\n      tag_251\n        /* \"#utility.yul\":7692:7696   */\n      dup3\n        /* \"#utility.yul\":7670:7697   */\n      tag_135\n      jump\t// in\n    tag_251:\n        /* \"#utility.yul\":7662:7668   */\n      dup2\n        /* \"#utility.yul\":7658:7698   */\n      add\n        /* \"#utility.yul\":7800:7806   */\n      dup2\n        /* \"#utility.yul\":7788:7798   */\n      dup2\n        /* \"#utility.yul\":7785:7807   */\n      lt\n        /* \"#utility.yul\":7764:7782   */\n      0xffffffffffffffff\n        /* \"#utility.yul\":7752:7762   */\n      dup3\n        /* \"#utility.yul\":7749:7783   */\n      gt\n        /* \"#utility.yul\":7746:7808   */\n      or\n        /* \"#utility.yul\":7743:7831   */\n      iszero\n      tag_252\n      jumpi\n        /* \"#utility.yul\":7811:7829   */\n      tag_253\n      tag_146\n      jump\t// in\n    tag_253:\n        /* \"#utility.yul\":7743:7831   */\n    tag_252:\n        /* \"#utility.yul\":7851:7861   */\n      dup1\n        /* \"#utility.yul\":7847:7849   */\n      0x40\n        /* \"#utility.yul\":7840:7862   */\n      mstore\n        /* \"#utility.yul\":7630:7868   */\n      pop\n        /* \"#utility.yul\":7587:7868   */\n      pop\n      pop\n      jump\t// out\n        /* \"#utility.yul\":7874:8003   */\n    tag_148:\n        /* \"#utility.yul\":7908:7914   */\n      0x00\n        /* \"#utility.yul\":7935:7955   */\n      tag_255\n      tag_119\n      jump\t// in\n    tag_255:\n        /* \"#utility.yul\":7925:7955   */\n      swap1\n      pop\n        /* \"#utility.yul\":7964:7997   */\n      tag_256\n        /* \"#utility.yul\":7992:7996   */\n      dup3\n        /* \"#utility.yul\":7984:7990   */\n      dup3\n        /* \"#utility.yul\":7964:7997   */\n      tag_147\n      jump\t// in\n    tag_256:\n        /* \"#utility.yul\":7874:8003   */\n      swap2\n      swap1\n      pop\n      jump\t// out\n        /* \"#utility.yul\":8009:8317   */\n    tag_149:\n        /* \"#utility.yul\":8071:8075   */\n      0x00\n        /* \"#utility.yul\":8161:8179   */\n      0xffffffffffffffff\n        /* \"#utility.yul\":8153:8159   */\n      dup3\n        /* \"#utility.yul\":8150:8180   */\n      gt\n        /* \"#utility.yul\":8147:8203   */\n      iszero\n      tag_258\n      jumpi\n        /* \"#utility.yul\":8183:8201   */\n      tag_259\n      tag_146\n      jump\t// in\n    tag_259:\n        /* \"#utility.yul\":8147:8203   */\n    tag_258:\n        /* \"#utility.yul\":8221:8250   */\n      tag_260\n        /* \"#utility.yul\":8243:8249   */\n      dup3\n        /* \"#utility.yul\":8221:8250   */\n      tag_135\n      jump\t// in\n    tag_260:\n        /* \"#utility.yul\":8213:8250   */\n      swap1\n      pop\n        /* \"#utility.yul\":8305:8309   */\n      0x20\n        /* \"#utility.yul\":8299:8303   */\n      dup2\n        /* \"#utility.yul\":8295:8310   */\n      add\n        /* \"#utility.yul\":8287:8310   */\n      swap1\n      pop\n        /* \"#utility.yul\":8009:8317   */\n      swap2\n      swap1\n      pop\n      jump\t// out\n        /* \"#utility.yul\":8323:8471   */\n    tag_150:\n        /* \"#utility.yul\":8421:8427   */\n      dup3\n        /* \"#utility.yul\":8416:8419   */\n      dup2\n        /* \"#utility.yul\":8411:8414   */\n      dup4\n        /* \"#utility.yul\":8398:8428   */\n      calldatacopy\n        /* \"#utility.yul\":8462:8463   */\n      0x00\n        /* \"#utility.yul\":8453:8459   */\n      dup4\n        /* \"#utility.yul\":8448:8451   */\n      dup4\n        /* \"#utility.yul\":8444:8460   */\n      add\n        /* \"#utility.yul\":8437:8464   */\n      mstore\n        /* \"#utility.yul\":8323:8471   */\n      pop\n      pop\n      pop\n      jump\t// out\n        /* \"#utility.yul\":8477:8902   */\n    tag_151:\n        /* \"#utility.yul\":8555:8560   */\n      0x00\n        /* \"#utility.yul\":8580:8646   */\n      tag_263\n        /* \"#utility.yul\":8596:8645   */\n      tag_264\n        /* \"#utility.yul\":8638:8644   */\n      dup5\n        /* \"#utility.yul\":8596:8645   */\n      tag_149\n      jump\t// in\n    tag_264:\n        /* \"#utility.yul\":8580:8646   */\n      tag_148\n      jump\t// in\n    tag_263:\n        /* \"#utility.yul\":8571:8646   */\n      swap1\n      pop\n        /* \"#utility.yul\":8669:8675   */\n      dup3\n        /* \"#utility.yul\":8662:8667   */\n      dup2\n        /* \"#utility.yul\":8655:8676   */\n      mstore\n        /* \"#utility.yul\":8707:8711   */\n      0x20\n        /* \"#utility.yul\":8700:8705   */\n      dup2\n        /* \"#utility.yul\":8696:8712   */\n      add\n        /* \"#utility.yul\":8745:8748   */\n      dup5\n        /* \"#utility.yul\":8736:8742   */\n      dup5\n        /* \"#utility.yul\":8731:8734   */\n      dup5\n        /* \"#utility.yul\":8727:8743   */\n      add\n        /* \"#utility.yul\":8724:8749   */\n      gt\n        /* \"#utility.yul\":8721:8833   */\n      iszero\n      tag_265\n      jumpi\n        /* \"#utility.yul\":8752:8831   */\n      tag_266\n      tag_145\n      jump\t// in\n    tag_266:\n        /* \"#utility.yul\":8721:8833   */\n    tag_265:\n        /* \"#utility.yul\":8842:8896   */\n      tag_267\n        /* \"#utility.yul\":8889:8895   */\n      dup5\n        /* \"#utility.yul\":8884:8887   */\n      dup3\n        /* \"#utility.yul\":8879:8882   */\n      dup6\n        /* \"#utility.yul\":8842:8896   */\n      tag_150\n      jump\t// in\n    tag_267:\n        /* \"#utility.yul\":8561:8902   */\n      pop\n        /* \"#utility.yul\":8477:8902   */\n      swap4\n      swap3\n      pop\n      pop\n      pop\n      jump\t// out\n        /* \"#utility.yul\":8922:9262   */\n    tag_152:\n        /* \"#utility.yul\":8978:8983   */\n      0x00\n        /* \"#utility.yul\":9027:9030   */\n      dup3\n        /* \"#utility.yul\":9020:9024   */\n      0x1f\n        /* \"#utility.yul\":9012:9018   */\n      dup4\n        /* \"#utility.yul\":9008:9025   */\n      add\n        /* \"#utility.yul\":9004:9031   */\n      slt\n        /* \"#utility.yul\":8994:9116   */\n      tag_269\n      jumpi\n        /* \"#utility.yul\":9035:9114   */\n      tag_270\n      tag_144\n      jump\t// in\n    tag_270:\n        /* \"#utility.yul\":8994:9116   */\n    tag_269:\n        /* \"#utility.yul\":9152:9158   */\n      dup2\n        /* \"#utility.yul\":9139:9159   */\n      calldataload\n        /* \"#utility.yul\":9177:9256   */\n      tag_271\n        /* \"#utility.yul\":9252:9255   */\n      dup5\n        /* \"#utility.yul\":9244:9250   */\n      dup3\n        /* \"#utility.yul\":9237:9241   */\n      0x20\n        /* \"#utility.yul\":9229:9235   */\n      dup7\n        /* \"#utility.yul\":9225:9242   */\n      add\n        /* \"#utility.yul\":9177:9256   */\n      tag_151\n      jump\t// in\n    tag_271:\n        /* \"#utility.yul\":9168:9256   */\n      swap2\n      pop\n        /* \"#utility.yul\":8984:9262   */\n      pop\n        /* \"#utility.yul\":8922:9262   */\n      swap3\n      swap2\n      pop\n      pop\n      jump\t// out\n        /* \"#utility.yul\":9268:9777   */\n    tag_29:\n        /* \"#utility.yul\":9337:9343   */\n      0x00\n        /* \"#utility.yul\":9386:9388   */\n      0x20\n        /* \"#utility.yul\":9374:9383   */\n      dup3\n        /* \"#utility.yul\":9365:9372   */\n      dup5\n        /* \"#utility.yul\":9361:9384   */\n      sub\n        /* \"#utility.yul\":9357:9389   */\n      slt\n        /* \"#utility.yul\":9354:9473   */\n      iszero\n      tag_273\n      jumpi\n        /* \"#utility.yul\":9392:9471   */\n      tag_274\n      tag_120\n      jump\t// in\n    tag_274:\n        /* \"#utility.yul\":9354:9473   */\n    tag_273:\n        /* \"#utility.yul\":9540:9541   */\n      0x00\n        /* \"#utility.yul\":9529:9538   */\n      dup3\n        /* \"#utility.yul\":9525:9542   */\n      add\n        /* \"#utility.yul\":9512:9543   */\n      calldataload\n        /* \"#utility.yul\":9570:9588   */\n      0xffffffffffffffff\n        /* \"#utility.yul\":9562:9568   */\n      dup2\n        /* \"#utility.yul\":9559:9589   */\n      gt\n        /* \"#utility.yul\":9556:9673   */\n      iszero\n      tag_275\n      jumpi\n        /* \"#utility.yul\":9592:9671   */\n      tag_276\n      tag_121\n      jump\t// in\n    tag_276:\n        /* \"#utility.yul\":9556:9673   */\n    tag_275:\n        /* \"#utility.yul\":9697:9760   */\n      tag_277\n        /* \"#utility.yul\":9752:9759   */\n      dup5\n        /* \"#utility.yul\":9743:9749   */\n      dup3\n        /* \"#utility.yul\":9732:9741   */\n      dup6\n        /* \"#utility.yul\":9728:9750   */\n      add\n        /* \"#utility.yul\":9697:9760   */\n      tag_152\n      jump\t// in\n    tag_277:\n        /* \"#utility.yul\":9687:9760   */\n      swap2\n      pop\n        /* \"#utility.yul\":9483:9770   */\n      pop\n        /* \"#utility.yul\":9268:9777   */\n      swap3\n      swap2\n      pop\n      pop\n      jump\t// out\n        /* \"#utility.yul\":9783:10112   */\n    tag_33:\n        /* \"#utility.yul\":9842:9848   */\n      0x00\n        /* \"#utility.yul\":9891:9893   */\n      0x20\n        /* \"#utility.yul\":9879:9888   */\n      dup3\n        /* \"#utility.yul\":9870:9877   */\n      dup5\n        /* \"#utility.yul\":9866:9889   */\n      sub\n        /* \"#utility.yul\":9862:9894   */\n      slt\n        /* \"#utility.yul\":9859:9978   */\n      iszero\n      tag_279\n      jumpi\n        /* \"#utility.yul\":9897:9976   */\n      tag_280\n      tag_120\n      jump\t// in\n    tag_280:\n        /* \"#utility.yul\":9859:9978   */\n    tag_279:\n        /* \"#utility.yul\":10017:10018   */\n      0x00\n        /* \"#utility.yul\":10042:10095   */\n      tag_281\n        /* \"#utility.yul\":10087:10094   */\n      dup5\n        /* \"#utility.yul\":10078:10084   */\n      dup3\n        /* \"#utility.yul\":10067:10076   */\n      dup6\n        /* \"#utility.yul\":10063:10085   */\n      add\n        /* \"#utility.yul\":10042:10095   */\n      tag_142\n      jump\t// in\n    tag_281:\n        /* \"#utility.yul\":10032:10095   */\n      swap2\n      pop\n        /* \"#utility.yul\":9988:10105   */\n      pop\n        /* \"#utility.yul\":9783:10112   */\n      swap3\n      swap2\n      pop\n      pop\n      jump\t// out\n        /* \"#utility.yul\":10118:10236   */\n    tag_153:\n        /* \"#utility.yul\":10205:10229   */\n      tag_283\n        /* \"#utility.yul\":10223:10228   */\n      dup2\n        /* \"#utility.yul\":10205:10229   */\n      tag_123\n      jump\t// in\n    tag_283:\n        /* \"#utility.yul\":10200:10203   */\n      dup3\n        /* \"#utility.yul\":10193:10230   */\n      mstore\n        /* \"#utility.yul\":10118:10236   */\n      pop\n      pop\n      jump\t// out\n        /* \"#utility.yul\":10242:10411   */\n    tag_154:\n        /* \"#utility.yul\":10326:10337   */\n      0x00\n        /* \"#utility.yul\":10360:10366   */\n      dup3\n        /* \"#utility.yul\":10355:10358   */\n      dup3\n        /* \"#utility.yul\":10348:10367   */\n      mstore\n        /* \"#utility.yul\":10400:10404   */\n      0x20\n        /* \"#utility.yul\":10395:10398   */\n      dup3\n        /* \"#utility.yul\":10391:10405   */\n      add\n        /* \"#utility.yul\":10376:10405   */\n      swap1\n      pop\n        /* \"#utility.yul\":10242:10411   */\n      swap3\n      swap2\n      pop\n      pop\n      jump\t// out\n        /* \"#utility.yul\":10417:10794   */\n    tag_155:\n        /* \"#utility.yul\":10505:10508   */\n      0x00\n        /* \"#utility.yul\":10533:10572   */\n      tag_286\n        /* \"#utility.yul\":10566:10571   */\n      dup3\n        /* \"#utility.yul\":10533:10572   */\n      tag_132\n      jump\t// in\n    tag_286:\n        /* \"#utility.yul\":10588:10659   */\n      tag_287\n        /* \"#utility.yul\":10652:10658   */\n      dup2\n        /* \"#utility.yul\":10647:10650   */\n      dup6\n        /* \"#utility.yul\":10588:10659   */\n      tag_154\n      jump\t// in\n    tag_287:\n        /* \"#utility.yul\":10581:10659   */\n      swap4\n      pop\n        /* \"#utility.yul\":10668:10733   */\n      tag_288\n        /* \"#utility.yul\":10726:10732   */\n      dup2\n        /* \"#utility.yul\":10721:10724   */\n      dup6\n        /* \"#utility.yul\":10714:10718   */\n      0x20\n        /* \"#utility.yul\":10707:10712   */\n      dup7\n        /* \"#utility.yul\":10703:10719   */\n      add\n        /* \"#utility.yul\":10668:10733   */\n      tag_134\n      jump\t// in\n    tag_288:\n        /* \"#utility.yul\":10758:10787   */\n      tag_289\n        /* \"#utility.yul\":10780:10786   */\n      dup2\n        /* \"#utility.yul\":10758:10787   */\n      tag_135\n      jump\t// in\n    tag_289:\n        /* \"#utility.yul\":10753:10756   */\n      dup5\n        /* \"#utility.yul\":10749:10788   */\n      add\n        /* \"#utility.yul\":10742:10788   */\n      swap2\n      pop\n        /* \"#utility.yul\":10509:10794   */\n      pop\n        /* \"#utility.yul\":10417:10794   */\n      swap3\n      swap2\n      pop\n      pop\n      jump\t// out\n        /* \"#utility.yul\":10800:11555   */\n    tag_39:\n        /* \"#utility.yul\":11025:11029   */\n      0x00\n        /* \"#utility.yul\":11063:11066   */\n      0xa0\n        /* \"#utility.yul\":11052:11061   */\n      dup3\n        /* \"#utility.yul\":11048:11067   */\n      add\n        /* \"#utility.yul\":11040:11067   */\n      swap1\n      pop\n        /* \"#utility.yul\":11077:11148   */\n      tag_291\n        /* \"#utility.yul\":11145:11146   */\n      0x00\n        /* \"#utility.yul\":11134:11143   */\n      dup4\n        /* \"#utility.yul\":11130:11147   */\n      add\n        /* \"#utility.yul\":11121:11127   */\n      dup9\n        /* \"#utility.yul\":11077:11148   */\n      tag_143\n      jump\t// in\n    tag_291:\n        /* \"#utility.yul\":11158:11230   */\n      tag_292\n        /* \"#utility.yul\":11226:11228   */\n      0x20\n        /* \"#utility.yul\":11215:11224   */\n      dup4\n        /* \"#utility.yul\":11211:11229   */\n      add\n        /* \"#utility.yul\":11202:11208   */\n      dup8\n        /* \"#utility.yul\":11158:11230   */\n      tag_153\n      jump\t// in\n    tag_292:\n        /* \"#utility.yul\":11240:11312   */\n      tag_293\n        /* \"#utility.yul\":11308:11310   */\n      0x40\n        /* \"#utility.yul\":11297:11306   */\n      dup4\n        /* \"#utility.yul\":11293:11311   */\n      add\n        /* \"#utility.yul\":11284:11290   */\n      dup7\n        /* \"#utility.yul\":11240:11312   */\n      tag_143\n      jump\t// in\n    tag_293:\n        /* \"#utility.yul\":11359:11368   */\n      dup2\n        /* \"#utility.yul\":11353:11357   */\n      dup2\n        /* \"#utility.yul\":11349:11369   */\n      sub\n        /* \"#utility.yul\":11344:11346   */\n      0x60\n        /* \"#utility.yul\":11333:11342   */\n      dup4\n        /* \"#utility.yul\":11329:11347   */\n      add\n        /* \"#utility.yul\":11322:11370   */\n      mstore\n        /* \"#utility.yul\":11387:11465   */\n      tag_294\n        /* \"#utility.yul\":11460:11464   */\n      dup2\n        /* \"#utility.yul\":11451:11457   */\n      dup6\n        /* \"#utility.yul\":11387:11465   */\n      tag_155\n      jump\t// in\n    tag_294:\n        /* \"#utility.yul\":11379:11465   */\n      swap1\n      pop\n        /* \"#utility.yul\":11475:11548   */\n      tag_295\n        /* \"#utility.yul\":11543:11546   */\n      0x80\n        /* \"#utility.yul\":11532:11541   */\n      dup4\n        /* \"#utility.yul\":11528:11547   */\n      add\n        /* \"#utility.yul\":11519:11525   */\n      dup5\n        /* \"#utility.yul\":11475:11548   */\n      tag_143\n      jump\t// in\n    tag_295:\n        /* \"#utility.yul\":10800:11555   */\n      swap7\n      swap6\n      pop\n      pop\n      pop\n      pop\n      pop\n      pop\n      jump\t// out\n        /* \"#utility.yul\":11561:11783   */\n    tag_46:\n        /* \"#utility.yul\":11654:11658   */\n      0x00\n        /* \"#utility.yul\":11692:11694   */\n      0x20\n        /* \"#utility.yul\":11681:11690   */\n      dup3\n        /* \"#utility.yul\":11677:11695   */\n      add\n        /* \"#utility.yul\":11669:11695   */\n      swap1\n      pop\n        /* \"#utility.yul\":11705:11776   */\n      tag_297\n        /* \"#utility.yul\":11773:11774   */\n      0x00\n        /* \"#utility.yul\":11762:11771   */\n      dup4\n        /* \"#utility.yul\":11758:11775   */\n      add\n        /* \"#utility.yul\":11749:11755   */\n      dup5\n        /* \"#utility.yul\":11705:11776   */\n      tag_153\n      jump\t// in\n    tag_297:\n        /* \"#utility.yul\":11561:11783   */\n      swap3\n      swap2\n      pop\n      pop\n      jump\t// out\n        /* \"#utility.yul\":11841:12969   */\n    tag_156:\n        /* \"#utility.yul\":11952:11955   */\n      0x00\n        /* \"#utility.yul\":11988:11992   */\n      0xa0\n        /* \"#utility.yul\":11983:11986   */\n      dup4\n        /* \"#utility.yul\":11979:11993   */\n      add\n        /* \"#utility.yul\":12073:12077   */\n      0x00\n        /* \"#utility.yul\":12066:12071   */\n      dup4\n        /* \"#utility.yul\":12062:12078   */\n      add\n        /* \"#utility.yul\":12056:12079   */\n      mload\n        /* \"#utility.yul\":12092:12155   */\n      tag_299\n        /* \"#utility.yul\":12149:12153   */\n      0x00\n        /* \"#utility.yul\":12144:12147   */\n      dup7\n        /* \"#utility.yul\":12140:12154   */\n      add\n        /* \"#utility.yul\":12126:12138   */\n      dup3\n        /* \"#utility.yul\":12092:12155   */\n      tag_130\n      jump\t// in\n    tag_299:\n        /* \"#utility.yul\":12003:12165   */\n      pop\n        /* \"#utility.yul\":12248:12252   */\n      0x20\n        /* \"#utility.yul\":12241:12246   */\n      dup4\n        /* \"#utility.yul\":12237:12253   */\n      add\n        /* \"#utility.yul\":12231:12254   */\n      mload\n        /* \"#utility.yul\":12267:12330   */\n      tag_300\n        /* \"#utility.yul\":12324:12328   */\n      0x20\n        /* \"#utility.yul\":12319:12322   */\n      dup7\n        /* \"#utility.yul\":12315:12329   */\n      add\n        /* \"#utility.yul\":12301:12313   */\n      dup3\n        /* \"#utility.yul\":12267:12330   */\n      tag_131\n      jump\t// in\n    tag_300:\n        /* \"#utility.yul\":12175:12340   */\n      pop\n        /* \"#utility.yul\":12427:12431   */\n      0x40\n        /* \"#utility.yul\":12420:12425   */\n      dup4\n        /* \"#utility.yul\":12416:12432   */\n      add\n        /* \"#utility.yul\":12410:12433   */\n      mload\n        /* \"#utility.yul\":12446:12509   */\n      tag_301\n        /* \"#utility.yul\":12503:12507   */\n      0x40\n        /* \"#utility.yul\":12498:12501   */\n      dup7\n        /* \"#utility.yul\":12494:12508   */\n      add\n        /* \"#utility.yul\":12480:12492   */\n      dup3\n        /* \"#utility.yul\":12446:12509   */\n      tag_130\n      jump\t// in\n    tag_301:\n        /* \"#utility.yul\":12350:12519   */\n      pop\n        /* \"#utility.yul\":12604:12608   */\n      0x60\n        /* \"#utility.yul\":12597:12602   */\n      dup4\n        /* \"#utility.yul\":12593:12609   */\n      add\n        /* \"#utility.yul\":12587:12610   */\n      mload\n        /* \"#utility.yul\":12657:12660   */\n      dup5\n        /* \"#utility.yul\":12651:12655   */\n      dup3\n        /* \"#utility.yul\":12647:12661   */\n      sub\n        /* \"#utility.yul\":12640:12644   */\n      0x60\n        /* \"#utility.yul\":12635:12638   */\n      dup7\n        /* \"#utility.yul\":12631:12645   */\n      add\n        /* \"#utility.yul\":12624:12662   */\n      mstore\n        /* \"#utility.yul\":12683:12756   */\n      tag_302\n        /* \"#utility.yul\":12751:12755   */\n      dup3\n        /* \"#utility.yul\":12737:12749   */\n      dup3\n        /* \"#utility.yul\":12683:12756   */\n      tag_136\n      jump\t// in\n    tag_302:\n        /* \"#utility.yul\":12675:12756   */\n      swap2\n      pop\n        /* \"#utility.yul\":12529:12767   */\n      pop\n        /* \"#utility.yul\":12850:12854   */\n      0x80\n        /* \"#utility.yul\":12843:12848   */\n      dup4\n        /* \"#utility.yul\":12839:12855   */\n      add\n        /* \"#utility.yul\":12833:12856   */\n      mload\n        /* \"#utility.yul\":12869:12932   */\n      tag_303\n        /* \"#utility.yul\":12926:12930   */\n      0x80\n        /* \"#utility.yul\":12921:12924   */\n      dup7\n        /* \"#utility.yul\":12917:12931   */\n      add\n        /* \"#utility.yul\":12903:12915   */\n      dup3\n        /* \"#utility.yul\":12869:12932   */\n      tag_130\n      jump\t// in\n    tag_303:\n        /* \"#utility.yul\":12777:12942   */\n      pop\n        /* \"#utility.yul\":12959:12963   */\n      dup1\n        /* \"#utility.yul\":12952:12963   */\n      swap2\n      pop\n        /* \"#utility.yul\":11957:12969   */\n      pop\n        /* \"#utility.yul\":11841:12969   */\n      swap3\n      swap2\n      pop\n      pop\n      jump\t// out\n        /* \"#utility.yul\":12975:13332   */\n    tag_51:\n        /* \"#utility.yul\":13110:13114   */\n      0x00\n        /* \"#utility.yul\":13148:13150   */\n      0x20\n        /* \"#utility.yul\":13137:13146   */\n      dup3\n        /* \"#utility.yul\":13133:13151   */\n      add\n        /* \"#utility.yul\":13125:13151   */\n      swap1\n      pop\n        /* \"#utility.yul\":13197:13206   */\n      dup2\n        /* \"#utility.yul\":13191:13195   */\n      dup2\n        /* \"#utility.yul\":13187:13207   */\n      sub\n        /* \"#utility.yul\":13183:13184   */\n      0x00\n        /* \"#utility.yul\":13172:13181   */\n      dup4\n        /* \"#utility.yul\":13168:13185   */\n      add\n        /* \"#utility.yul\":13161:13208   */\n      mstore\n        /* \"#utility.yul\":13225:13325   */\n      tag_305\n        /* \"#utility.yul\":13320:13324   */\n      dup2\n        /* \"#utility.yul\":13311:13317   */\n      dup5\n        /* \"#utility.yul\":13225:13325   */\n      tag_156\n      jump\t// in\n    tag_305:\n        /* \"#utility.yul\":13217:13325   */\n      swap1\n      pop\n        /* \"#utility.yul\":12975:13332   */\n      swap3\n      swap2\n      pop\n      pop\n      jump\t// out\n        /* \"#utility.yul\":13338:13518   */\n    tag_157:\n        /* \"#utility.yul\":13386:13463   */\n      0x4e487b7100000000000000000000000000000000000000000000000000000000\n        /* \"#utility.yul\":13383:13384   */\n      0x00\n        /* \"#utility.yul\":13376:13464   */\n      mstore\n        /* \"#utility.yul\":13483:13487   */\n      0x22\n        /* \"#utility.yul\":13480:13481   */\n      0x04\n        /* \"#utility.yul\":13473:13488   */\n      mstore\n        /* \"#utility.yul\":13507:13511   */\n      0x24\n        /* \"#utility.yul\":13504:13505   */\n      0x00\n        /* \"#utility.yul\":13497:13512   */\n      revert\n        /* \"#utility.yul\":13524:13844   */\n    tag_57:\n        /* \"#utility.yul\":13568:13574   */\n      0x00\n        /* \"#utility.yul\":13605:13606   */\n      0x02\n        /* \"#utility.yul\":13599:13603   */\n      dup3\n        /* \"#utility.yul\":13595:13607   */\n      div\n        /* \"#utility.yul\":13585:13607   */\n      swap1\n      pop\n        /* \"#utility.yul\":13652:13653   */\n      0x01\n        /* \"#utility.yul\":13646:13650   */\n      dup3\n        /* \"#utility.yul\":13642:13654   */\n      and\n        /* \"#utility.yul\":13673:13691   */\n      dup1\n        /* \"#utility.yul\":13663:13744   */\n      tag_308\n      jumpi\n        /* \"#utility.yul\":13729:13733   */\n      0x7f\n        /* \"#utility.yul\":13721:13727   */\n      dup3\n        /* \"#utility.yul\":13717:13734   */\n      and\n        /* \"#utility.yul\":13707:13734   */\n      swap2\n      pop\n        /* \"#utility.yul\":13663:13744   */\n    tag_308:\n        /* \"#utility.yul\":13791:13793   */\n      0x20\n        /* \"#utility.yul\":13783:13789   */\n      dup3\n        /* \"#utility.yul\":13780:13794   */\n      lt\n        /* \"#utility.yul\":13760:13778   */\n      dup2\n        /* \"#utility.yul\":13757:13795   */\n      sub\n        /* \"#utility.yul\":13754:13838   */\n      tag_309\n      jumpi\n        /* \"#utility.yul\":13810:13828   */\n      tag_310\n      tag_157\n      jump\t// in\n    tag_310:\n        /* \"#utility.yul\":13754:13838   */\n    tag_309:\n        /* \"#utility.yul\":13575:13844   */\n      pop\n        /* \"#utility.yul\":13524:13844   */\n      swap2\n      swap1\n      pop\n      jump\t// out\n        /* \"#utility.yul\":13850:14030   */\n    tag_65:\n        /* \"#utility.yul\":13898:13975   */\n      0x4e487b7100000000000000000000000000000000000000000000000000000000\n        /* \"#utility.yul\":13895:13896   */\n      0x00\n        /* \"#utility.yul\":13888:13976   */\n      mstore\n        /* \"#utility.yul\":13995:13999   */\n      0x32\n        /* \"#utility.yul\":13992:13993   */\n      0x04\n        /* \"#utility.yul\":13985:14000   */\n      mstore\n        /* \"#utility.yul\":14019:14023   */\n      0x24\n        /* \"#utility.yul\":14016:14017   */\n      0x00\n        /* \"#utility.yul\":14009:14024   */\n      revert\n        /* \"#utility.yul\":14036:14206   */\n    tag_158:\n        /* \"#utility.yul\":14176:14198   */\n      0x547765657420646f6573206e6f74206578697374000000000000000000000000\n        /* \"#utility.yul\":14172:14173   */\n      0x00\n        /* \"#utility.yul\":14164:14170   */\n      dup3\n        /* \"#utility.yul\":14160:14174   */\n      add\n        /* \"#utility.yul\":14153:14199   */\n      mstore\n        /* \"#utility.yul\":14036:14206   */\n      pop\n      jump\t// out\n        /* \"#utility.yul\":14212:14578   */\n    tag_159:\n        /* \"#utility.yul\":14354:14357   */\n      0x00\n        /* \"#utility.yul\":14375:14442   */\n      tag_314\n        /* \"#utility.yul\":14439:14441   */\n      0x14\n        /* \"#utility.yul\":14434:14437   */\n      dup4\n        /* \"#utility.yul\":14375:14442   */\n      tag_154\n      jump\t// in\n    tag_314:\n        /* \"#utility.yul\":14368:14442   */\n      swap2\n      pop\n        /* \"#utility.yul\":14451:14544   */\n      tag_315\n        /* \"#utility.yul\":14540:14543   */\n      dup3\n        /* \"#utility.yul\":14451:14544   */\n      tag_158\n      jump\t// in\n    tag_315:\n        /* \"#utility.yul\":14569:14571   */\n      0x20\n        /* \"#utility.yul\":14564:14567   */\n      dup3\n        /* \"#utility.yul\":14560:14572   */\n      add\n        /* \"#utility.yul\":14553:14572   */\n      swap1\n      pop\n        /* \"#utility.yul\":14212:14578   */\n      swap2\n      swap1\n      pop\n      jump\t// out\n        /* \"#utility.yul\":14584:15003   */\n    tag_69:\n        /* \"#utility.yul\":14750:14754   */\n      0x00\n        /* \"#utility.yul\":14788:14790   */\n      0x20\n        /* \"#utility.yul\":14777:14786   */\n      dup3\n        /* \"#utility.yul\":14773:14791   */\n      add\n        /* \"#utility.yul\":14765:14791   */\n      swap1\n      pop\n        /* \"#utility.yul\":14837:14846   */\n      dup2\n        /* \"#utility.yul\":14831:14835   */\n      dup2\n        /* \"#utility.yul\":14827:14847   */\n      sub\n        /* \"#utility.yul\":14823:14824   */\n      0x00\n        /* \"#utility.yul\":14812:14821   */\n      dup4\n        /* \"#utility.yul\":14808:14825   */\n      add\n        /* \"#utility.yul\":14801:14848   */\n      mstore\n        /* \"#utility.yul\":14865:14996   */\n      tag_317\n        /* \"#utility.yul\":14991:14995   */\n      dup2\n        /* \"#utility.yul\":14865:14996   */\n      tag_159\n      jump\t// in\n    tag_317:\n        /* \"#utility.yul\":14857:14996   */\n      swap1\n      pop\n        /* \"#utility.yul\":14584:15003   */\n      swap2\n      swap1\n      pop\n      jump\t// out\n        /* \"#utility.yul\":15009:15189   */\n    tag_160:\n        /* \"#utility.yul\":15057:15134   */\n      0x4e487b7100000000000000000000000000000000000000000000000000000000\n        /* \"#utility.yul\":15054:15055   */\n      0x00\n        /* \"#utility.yul\":15047:15135   */\n      mstore\n        /* \"#utility.yul\":15154:15158   */\n      0x11\n        /* \"#utility.yul\":15151:15152   */\n      0x04\n        /* \"#utility.yul\":15144:15159   */\n      mstore\n        /* \"#utility.yul\":15178:15182   */\n      0x24\n        /* \"#utility.yul\":15175:15176   */\n      0x00\n        /* \"#utility.yul\":15168:15183   */\n      revert\n        /* \"#utility.yul\":15195:15428   */\n    tag_74:\n        /* \"#utility.yul\":15234:15237   */\n      0x00\n        /* \"#utility.yul\":15257:15281   */\n      tag_320\n        /* \"#utility.yul\":15275:15280   */\n      dup3\n        /* \"#utility.yul\":15257:15281   */\n      tag_129\n      jump\t// in\n    tag_320:\n        /* \"#utility.yul\":15248:15281   */\n      swap2\n      pop\n        /* \"#utility.yul\":15303:15369   */\n      0xffffffffffffffffffffffffffffffffffffffffffffffffffffffffffffffff\n        /* \"#utility.yul\":15296:15301   */\n      dup3\n        /* \"#utility.yul\":15293:15370   */\n      sub\n        /* \"#utility.yul\":15290:15393   */\n      tag_321\n      jumpi\n        /* \"#utility.yul\":15373:15391   */\n      tag_322\n      tag_160\n      jump\t// in\n    tag_322:\n        /* \"#utility.yul\":15290:15393   */\n    tag_321:\n        /* \"#utility.yul\":15420:15421   */\n      0x01\n        /* \"#utility.yul\":15413:15418   */\n      dup3\n        /* \"#utility.yul\":15409:15422   */\n      add\n        /* \"#utility.yul\":15402:15422   */\n      swap1\n      pop\n        /* \"#utility.yul\":15195:15428   */\n      swap2\n      swap1\n      pop\n      jump\t// out\n        /* \"#utility.yul\":15434:15575   */\n    tag_161:\n        /* \"#utility.yul\":15483:15487   */\n      0x00\n        /* \"#utility.yul\":15506:15509   */\n      dup2\n        /* \"#utility.yul\":15498:15509   */\n      swap1\n      pop\n        /* \"#utility.yul\":15529:15532   */\n      dup2\n        /* \"#utility.yul\":15526:15527   */\n      0x00\n        /* \"#utility.yul\":15519:15533   */\n      mstore\n        /* \"#utility.yul\":15563:15567   */\n      0x20\n        /* \"#utility.yul\":15560:15561   */\n      0x00\n        /* \"#utility.yul\":15550:15568   */\n      keccak256\n        /* \"#utility.yul\":15542:15568   */\n      swap1\n      pop\n        /* \"#utility.yul\":15434:15575   */\n      swap2\n      swap1\n      pop\n      jump\t// out\n        /* \"#utility.yul\":15581:15674   */\n    tag_162:\n        /* \"#utility.yul\":15618:15624   */\n      0x00\n        /* \"#utility.yul\":15665:15667   */\n      0x20\n        /* \"#utility.yul\":15660:15662   */\n      0x1f\n        /* \"#utility.yul\":15653:15658   */\n      dup4\n        /* \"#utility.yul\":15649:15663   */\n      add\n        /* \"#utility.yul\":15645:15668   */\n      div\n        /* \"#utility.yul\":15635:15668   */\n      swap1\n      pop\n        /* \"#utility.yul\":15581:15674   */\n      swap2\n      swap1\n      pop\n      jump\t// out\n        /* \"#utility.yul\":15680:15787   */\n    tag_163:\n        /* \"#utility.yul\":15724:15732   */\n      0x00\n        /* \"#utility.yul\":15774:15779   */\n      dup3\n        /* \"#utility.yul\":15768:15772   */\n      dup3\n        /* \"#utility.yul\":15764:15780   */\n      shl\n        /* \"#utility.yul\":15743:15780   */\n      swap1\n      pop\n        /* \"#utility.yul\":15680:15787   */\n      swap3\n      swap2\n      pop\n      pop\n      jump\t// out\n        /* \"#utility.yul\":15793:16186   */\n    tag_164:\n        /* \"#utility.yul\":15862:15868   */\n      0x00\n        /* \"#utility.yul\":15912:15913   */\n      0x08\n        /* \"#utility.yul\":15900:15910   */\n      dup4\n        /* \"#utility.yul\":15896:15914   */\n      mul\n        /* \"#utility.yul\":15935:16032   */\n      tag_327\n        /* \"#utility.yul\":15965:16031   */\n      0xffffffffffffffffffffffffffffffffffffffffffffffffffffffffffffffff\n        /* \"#utility.yul\":15954:15963   */\n      dup3\n        /* \"#utility.yul\":15935:16032   */\n      tag_163\n      jump\t// in\n    tag_327:\n        /* \"#utility.yul\":16053:16092   */\n      tag_328\n        /* \"#utility.yul\":16083:16091   */\n      dup7\n        /* \"#utility.yul\":16072:16081   */\n      dup4\n        /* \"#utility.yul\":16053:16092   */\n      tag_163\n      jump\t// in\n    tag_328:\n        /* \"#utility.yul\":16041:16092   */\n      swap6\n      pop\n        /* \"#utility.yul\":16125:16129   */\n      dup1\n        /* \"#utility.yul\":16121:16130   */\n      not\n        /* \"#utility.yul\":16114:16119   */\n      dup5\n        /* \"#utility.yul\":16110:16131   */\n      and\n        /* \"#utility.yul\":16101:16131   */\n      swap4\n      pop\n        /* \"#utility.yul\":16174:16178   */\n      dup1\n        /* \"#utility.yul\":16164:16172   */\n      dup7\n        /* \"#utility.yul\":16160:16179   */\n      and\n        /* \"#utility.yul\":16153:16158   */\n      dup5\n        /* \"#utility.yul\":16150:16180   */\n      or\n        /* \"#utility.yul\":16140:16180   */\n      swap3\n      pop\n        /* \"#utility.yul\":15869:16186   */\n      pop\n      pop\n        /* \"#utility.yul\":15793:16186   */\n      swap4\n      swap3\n      pop\n      pop\n      pop\n      jump\t// out\n        /* \"#utility.yul\":16192:16252   */\n    tag_165:\n        /* \"#utility.yul\":16220:16223   */\n      0x00\n        /* \"#utility.yul\":16241:16246   */\n      dup2\n        /* \"#utility.yul\":16234:16246   */\n      swap1\n      pop\n        /* \"#utility.yul\":16192:16252   */\n      swap2\n      swap1\n      pop\n      jump\t// out\n        /* \"#utility.yul\":16258:16400   */\n    tag_166:\n        /* \"#utility.yul\":16308:16317   */\n      0x00\n        /* \"#utility.yul\":16341:16394   */\n      tag_331\n        /* \"#utility.yul\":16359:16393   */\n      tag_332\n        /* \"#utility.yul\":16368:16392   */\n      tag_333\n        /* \"#utility.yul\":16386:16391   */\n      dup5\n        /* \"#utility.yul\":16368:16392   */\n      tag_129\n      jump\t// in\n    tag_333:\n        /* \"#utility.yul\":16359:16393   */\n      tag_165\n      jump\t// in\n    tag_332:\n        /* \"#utility.yul\":16341:16394   */\n      tag_129\n      jump\t// in\n    tag_331:\n        /* \"#utility.yul\":16328:16394   */\n      swap1\n      pop\n        /* \"#utility.yul\":16258:16400   */\n      swap2\n      swap1\n      pop\n      jump\t// out\n        /* \"#utility.yul\":16406:16481   */\n    tag_167:\n        /* \"#utility.yul\":16449:16452   */\n      0x00\n        /* \"#utility.yul\":16470:16475   */\n      dup2\n        /* \"#utility.yul\":16463:16475   */\n      swap1\n      pop\n        /* \"#utility.yul\":16406:16481   */\n      swap2\n      swap1\n      pop\n      jump\t// out\n        /* \"#utility.yul\":16487:16756   */\n    tag_168:\n        /* \"#utility.yul\":16597:16636   */\n      tag_336\n        /* \"#utility.yul\":16628:16635   */\n      dup4\n        /* \"#utility.yul\":16597:16636   */\n      tag_166\n      jump\t// in\n    tag_336:\n        /* \"#utility.yul\":16658:16749   */\n      tag_337\n        /* \"#utility.yul\":16707:16748   */\n      tag_338\n        /* \"#utility.yul\":16731:16747   */\n      dup3\n        /* \"#utility.yul\":16707:16748   */\n      tag_167\n      jump\t// in\n    tag_338:\n        /* \"#utility.yul\":16699:16705   */\n      dup5\n        /* \"#utility.yul\":16692:16696   */\n      dup5\n        /* \"#utility.yul\":16686:16697   */\n      sload\n        /* \"#utility.yul\":16658:16749   */\n      tag_164\n      jump\t// in\n    tag_337:\n        /* \"#utility.yul\":16652:16656   */\n      dup3\n        /* \"#utility.yul\":16645:16750   */\n      sstore\n        /* \"#utility.yul\":16563:16756   */\n      pop\n        /* \"#utility.yul\":16487:16756   */\n      pop\n      pop\n      pop\n      jump\t// out\n        /* \"#utility.yul\":16762:16835   */\n    tag_169:\n        /* \"#utility.yul\":16807:16810   */\n      0x00\n        /* \"#utility.yul\":16762:16835   */\n      swap1\n      jump\t// out\n        /* \"#utility.yul\":16841:17030   */\n    tag_170:\n        /* \"#utility.yul\":16918:16950   */\n      tag_341\n      tag_169\n      jump\t// in\n    tag_341:\n        /* \"#utility.yul\":16959:17024   */\n      tag_342\n        /* \"#utility.yul\":17017:17023   */\n      dup2\n        /* \"#utility.yul\":17009:17015   */\n      dup5\n        /* \"#utility.yul\":17003:17007   */\n      dup5\n        /* \"#utility.yul\":16959:17024   */\n      tag_168\n      jump\t// in\n    tag_342:\n        /* \"#utility.yul\":16894:17030   */\n      pop\n        /* \"#utility.yul\":16841:17030   */\n      pop\n      pop\n      jump\t// out\n        /* \"#utility.yul\":17036:17222   */\n    tag_171:\n        /* \"#utility.yul\":17096:17216   */\n    tag_344:\n        /* \"#utility.yul\":17113:17116   */\n      dup2\n        /* \"#utility.yul\":17106:17111   */\n      dup2\n        /* \"#utility.yul\":17103:17117   */\n      lt\n        /* \"#utility.yul\":17096:17216   */\n      iszero\n      tag_346\n      jumpi\n        /* \"#utility.yul\":17167:17206   */\n      tag_347\n        /* \"#utility.yul\":17204:17205   */\n      0x00\n        /* \"#utility.yul\":17197:17202   */\n      dup3\n        /* \"#utility.yul\":17167:17206   */\n      tag_170\n      jump\t// in\n    tag_347:\n        /* \"#utility.yul\":17140:17141   */\n      0x01\n        /* \"#utility.yul\":17133:17138   */\n      dup2\n        /* \"#utility.yul\":17129:17142   */\n      add\n        /* \"#utility.yul\":17120:17142   */\n      swap1\n      pop\n        /* \"#utility.yul\":17096:17216   */\n      jump(tag_344)\n    tag_346:\n        /* \"#utility.yul\":17036:17222   */\n      pop\n      pop\n      jump\t// out\n        /* \"#utility.yul\":17228:17771   */\n    tag_172:\n        /* \"#utility.yul\":17329:17331   */\n      0x1f\n        /* \"#utility.yul\":17324:17327   */\n      dup3\n        /* \"#utility.yul\":17321:17332   */\n      gt\n        /* \"#utility.yul\":17318:17764   */\n      iszero\n      tag_349\n      jumpi\n        /* \"#utility.yul\":17363:17401   */\n      tag_350\n        /* \"#utility.yul\":17395:17400   */\n      dup2\n        /* \"#utility.yul\":17363:17401   */\n      tag_161\n      jump\t// in\n    tag_350:\n        /* \"#utility.yul\":17447:17476   */\n      tag_351\n        /* \"#utility.yul\":17465:17475   */\n      dup5\n        /* \"#utility.yul\":17447:17476   */\n      tag_162\n      jump\t// in\n    tag_351:\n        /* \"#utility.yul\":17437:17445   */\n      dup2\n        /* \"#utility.yul\":17433:17477   */\n      add\n        /* \"#utility.yul\":17630:17632   */\n      0x20\n        /* \"#utility.yul\":17618:17628   */\n      dup6\n        /* \"#utility.yul\":17615:17633   */\n      lt\n        /* \"#utility.yul\":17612:17661   */\n      iszero\n      tag_352\n      jumpi\n        /* \"#utility.yul\":17651:17659   */\n      dup2\n        /* \"#utility.yul\":17636:17659   */\n      swap1\n      pop\n        /* \"#utility.yul\":17612:17661   */\n    tag_352:\n        /* \"#utility.yul\":17674:17754   */\n      tag_353\n        /* \"#utility.yul\":17730:17752   */\n      tag_354\n        /* \"#utility.yul\":17748:17751   */\n      dup6\n        /* \"#utility.yul\":17730:17752   */\n      tag_162\n      jump\t// in\n    tag_354:\n        /* \"#utility.yul\":17720:17728   */\n      dup4\n        /* \"#utility.yul\":17716:17753   */\n      add\n        /* \"#utility.yul\":17703:17714   */\n      dup3\n        /* \"#utility.yul\":17674:17754   */\n      tag_171\n      jump\t// in\n    tag_353:\n        /* \"#utility.yul\":17333:17764   */\n      pop\n      pop\n        /* \"#utility.yul\":17318:17764   */\n    tag_349:\n        /* \"#utility.yul\":17228:17771   */\n      pop\n      pop\n      pop\n      jump\t// out\n        /* \"#utility.yul\":17777:17894   */\n    tag_173:\n        /* \"#utility.yul\":17831:17839   */\n      0x00\n        /* \"#utility.yul\":17881:17886   */\n      dup3\n        /* \"#utility.yul\":17875:17879   */\n      dup3\n        /* \"#utility.yul\":17871:17887   */\n      shr\n        /* \"#utility.yul\":17850:17887   */\n      swap1\n      pop\n        /* \"#utility.yul\":17777:17894   */\n      swap3\n      swap2\n      pop\n      pop\n      jump\t// out\n        /* \"#utility.yul\":17900:18069   */\n    tag_174:\n        /* \"#utility.yul\":17944:17950   */\n      0x00\n        /* \"#utility.yul\":17977:18028   */\n      tag_357\n        /* \"#utility.yul\":18025:18026   */\n      0x00\n        /* \"#utility.yul\":18021:18027   */\n      not\n        /* \"#utility.yul\":18013:18018   */\n      dup5\n        /* \"#utility.yul\":18010:18011   */\n      0x08\n        /* \"#utility.yul\":18006:18019   */\n      mul\n        /* \"#utility.yul\":17977:18028   */\n      tag_173\n      jump\t// in\n    tag_357:\n        /* \"#utility.yul\":17973:18029   */\n      not\n        /* \"#utility.yul\":18058:18062   */\n      dup1\n        /* \"#utility.yul\":18052:18056   */\n      dup4\n        /* \"#utility.yul\":18048:18063   */\n      and\n        /* \"#utility.yul\":18038:18063   */\n      swap2\n      pop\n        /* \"#utility.yul\":17951:18069   */\n      pop\n        /* \"#utility.yul\":17900:18069   */\n      swap3\n      swap2\n      pop\n      pop\n      jump\t// out\n        /* \"#utility.yul\":18074:18369   */\n    tag_175:\n        /* \"#utility.yul\":18150:18154   */\n      0x00\n        /* \"#utility.yul\":18296:18325   */\n      tag_359\n        /* \"#utility.yul\":18321:18324   */\n      dup4\n        /* \"#utility.yul\":18315:18319   */\n      dup4\n        /* \"#utility.yul\":18296:18325   */\n      tag_174\n      jump\t// in\n    tag_359:\n        /* \"#utility.yul\":18288:18325   */\n      swap2\n      pop\n        /* \"#utility.yul\":18358:18361   */\n      dup3\n        /* \"#utility.yul\":18355:18356   */\n      0x02\n        /* \"#utility.yul\":18351:18362   */\n      mul\n        /* \"#utility.yul\":18345:18349   */\n      dup3\n        /* \"#utility.yul\":18342:18363   */\n      or\n        /* \"#utility.yul\":18334:18363   */\n      swap1\n      pop\n        /* \"#utility.yul\":18074:18369   */\n      swap3\n      swap2\n      pop\n      pop\n      jump\t// out\n        /* \"#utility.yul\":18374:19769   */\n    tag_78:\n        /* \"#utility.yul\":18491:18528   */\n      tag_361\n        /* \"#utility.yul\":18524:18527   */\n      dup3\n        /* \"#utility.yul\":18491:18528   */\n      tag_132\n      jump\t// in\n    tag_361:\n        /* \"#utility.yul\":18593:18611   */\n      0xffffffffffffffff\n        /* \"#utility.yul\":18585:18591   */\n      dup2\n        /* \"#utility.yul\":18582:18612   */\n      gt\n        /* \"#utility.yul\":18579:18635   */\n      iszero\n      tag_362\n      jumpi\n        /* \"#utility.yul\":18615:18633   */\n      tag_363\n      tag_146\n      jump\t// in\n    tag_363:\n        /* \"#utility.yul\":18579:18635   */\n    tag_362:\n        /* \"#utility.yul\":18659:18697   */\n      tag_364\n        /* \"#utility.yul\":18691:18695   */\n      dup3\n        /* \"#utility.yul\":18685:18696   */\n      sload\n        /* \"#utility.yul\":18659:18697   */\n      tag_57\n      jump\t// in\n    tag_364:\n        /* \"#utility.yul\":18744:18811   */\n      tag_365\n        /* \"#utility.yul\":18804:18810   */\n      dup3\n        /* \"#utility.yul\":18796:18802   */\n      dup3\n        /* \"#utility.yul\":18790:18794   */\n      dup6\n        /* \"#utility.yul\":18744:18811   */\n      tag_172\n      jump\t// in\n    tag_365:\n        /* \"#utility.yul\":18838:18839   */\n      0x00\n        /* \"#utility.yul\":18862:18866   */\n      0x20\n        /* \"#utility.yul\":18849:18866   */\n      swap1\n      pop\n        /* \"#utility.yul\":18894:18896   */\n      0x1f\n        /* \"#utility.yul\":18886:18892   */\n      dup4\n        /* \"#utility.yul\":18883:18897   */\n      gt\n        /* \"#utility.yul\":18911:18912   */\n      0x01\n        /* \"#utility.yul\":18906:19524   */\n      dup2\n      eq\n      tag_367\n      jumpi\n        /* \"#utility.yul\":19568:19569   */\n      0x00\n        /* \"#utility.yul\":19585:19591   */\n      dup5\n        /* \"#utility.yul\":19582:19659   */\n      iszero\n      tag_368\n      jumpi\n        /* \"#utility.yul\":19634:19643   */\n      dup3\n        /* \"#utility.yul\":19629:19632   */\n      dup8\n        /* \"#utility.yul\":19625:19644   */\n      add\n        /* \"#utility.yul\":19619:19645   */\n      mload\n        /* \"#utility.yul\":19610:19645   */\n      swap1\n      pop\n        /* \"#utility.yul\":19582:19659   */\n    tag_368:\n        /* \"#utility.yul\":19685:19752   */\n      tag_369\n        /* \"#utility.yul\":19745:19751   */\n      dup6\n        /* \"#utility.yul\":19738:19743   */\n      dup3\n        /* \"#utility.yul\":19685:19752   */\n      tag_175\n      jump\t// in\n    tag_369:\n        /* \"#utility.yul\":19679:19683   */\n      dup7\n        /* \"#utility.yul\":19672:19753   */\n      sstore\n        /* \"#utility.yul\":19541:19763   */\n      pop\n        /* \"#utility.yul\":18876:19763   */\n      jump(tag_366)\n        /* \"#utility.yul\":18906:19524   */\n    tag_367:\n        /* \"#utility.yul\":18958:18962   */\n      0x1f\n        /* \"#utility.yul\":18954:18963   */\n      not\n        /* \"#utility.yul\":18946:18952   */\n      dup5\n        /* \"#utility.yul\":18942:18964   */\n      and\n        /* \"#utility.yul\":18992:19029   */\n      tag_370\n        /* \"#utility.yul\":19024:19028   */\n      dup7\n        /* \"#utility.yul\":18992:19029   */\n      tag_161\n      jump\t// in\n    tag_370:\n        /* \"#utility.yul\":19051:19052   */\n      0x00\n        /* \"#utility.yul\":19065:19273   */\n    tag_371:\n        /* \"#utility.yul\":19079:19086   */\n      dup3\n        /* \"#utility.yul\":19076:19077   */\n      dup2\n        /* \"#utility.yul\":19073:19087   */\n      lt\n        /* \"#utility.yul\":19065:19273   */\n      iszero\n      tag_373\n      jumpi\n        /* \"#utility.yul\":19158:19167   */\n      dup5\n        /* \"#utility.yul\":19153:19156   */\n      dup10\n        /* \"#utility.yul\":19149:19168   */\n      add\n        /* \"#utility.yul\":19143:19169   */\n      mload\n        /* \"#utility.yul\":19135:19141   */\n      dup3\n        /* \"#utility.yul\":19128:19170   */\n      sstore\n        /* \"#utility.yul\":19209:19210   */\n      0x01\n        /* \"#utility.yul\":19201:19207   */\n      dup3\n        /* \"#utility.yul\":19197:19211   */\n      add\n        /* \"#utility.yul\":19187:19211   */\n      swap2\n      pop\n        /* \"#utility.yul\":19256:19258   */\n      0x20\n        /* \"#utility.yul\":19245:19254   */\n      dup6\n        /* \"#utility.yul\":19241:19259   */\n      add\n        /* \"#utility.yul\":19228:19259   */\n      swap5\n      pop\n        /* \"#utility.yul\":19102:19106   */\n      0x20\n        /* \"#utility.yul\":19099:19100   */\n      dup2\n        /* \"#utility.yul\":19095:19107   */\n      add\n        /* \"#utility.yul\":19090:19107   */\n      swap1\n      pop\n        /* \"#utility.yul\":19065:19273   */\n      jump(tag_371)\n    tag_373:\n        /* \"#utility.yul\":19301:19307   */\n      dup7\n        /* \"#utility.yul\":19292:19299   */\n      dup4\n        /* \"#utility.yul\":19289:19308   */\n      lt\n        /* \"#utility.yul\":19286:19465   */\n      iszero\n      tag_374\n      jumpi\n        /* \"#utility.yul\":19359:19368   */\n      dup5\n        /* \"#utility.yul\":19354:19357   */\n      dup10\n        /* \"#utility.yul\":19350:19369   */\n      add\n        /* \"#utility.yul\":19344:19370   */\n      mload\n        /* \"#utility.yul\":19402:19450   */\n      tag_375\n        /* \"#utility.yul\":19444:19448   */\n      0x1f\n        /* \"#utility.yul\":19436:19442   */\n      dup10\n        /* \"#utility.yul\":19432:19449   */\n      and\n        /* \"#utility.yul\":19421:19430   */\n      dup3\n        /* \"#utility.yul\":19402:19450   */\n      tag_174\n      jump\t// in\n    tag_375:\n        /* \"#utility.yul\":19394:19400   */\n      dup4\n        /* \"#utility.yul\":19387:19451   */\n      sstore\n        /* \"#utility.yul\":19309:19465   */\n      pop\n        /* \"#utility.yul\":19286:19465   */\n    tag_374:\n        /* \"#utility.yul\":19511:19512   */\n      0x01\n        /* \"#utility.yul\":19507:19508   */\n      0x02\n        /* \"#utility.yul\":19499:19505   */\n      dup9\n        /* \"#utility.yul\":19495:19509   */\n      mul\n        /* \"#utility.yul\":19491:19513   */\n      add\n        /* \"#utility.yul\":19485:19489   */\n      dup9\n        /* \"#utility.yul\":19478:19514   */\n      sstore\n        /* \"#utility.yul\":18913:19524   */\n      pop\n      pop\n      pop\n        /* \"#utility.yul\":18876:19763   */\n    tag_366:\n      pop\n        /* \"#utility.yul\":18466:19769   */\n      pop\n      pop\n      pop\n        /* \"#utility.yul\":18374:19769   */\n      pop\n      pop\n      jump\t// out\n        /* \"#utility.yul\":19775:19945   */\n    tag_176:\n        /* \"#utility.yul\":19915:19937   */\n      0x596f7520617265206e6f7420616e206f776e6572000000000000000000000000\n        /* \"#utility.yul\":19911:19912   */\n      0x00\n        /* \"#utility.yul\":19903:19909   */\n      dup3\n        /* \"#utility.yul\":19899:19913   */\n      add\n        /* \"#utility.yul\":19892:19938   */\n      mstore\n        /* \"#utility.yul\":19775:19945   */\n      pop\n      jump\t// out\n        /* \"#utility.yul\":19951:20317   */\n    tag_177:\n        /* \"#utility.yul\":20093:20096   */\n      0x00\n        /* \"#utility.yul\":20114:20181   */\n      tag_378\n        /* \"#utility.yul\":20178:20180   */\n      0x14\n        /* \"#utility.yul\":20173:20176   */\n      dup4\n        /* \"#utility.yul\":20114:20181   */\n      tag_154\n      jump\t// in\n    tag_378:\n        /* \"#utility.yul\":20107:20181   */\n      swap2\n      pop\n        /* \"#utility.yul\":20190:20283   */\n      tag_379\n        /* \"#utility.yul\":20279:20282   */\n      dup3\n        /* \"#utility.yul\":20190:20283   */\n      tag_176\n      jump\t// in\n    tag_379:\n        /* \"#utility.yul\":20308:20310   */\n      0x20\n        /* \"#utility.yul\":20303:20306   */\n      dup3\n        /* \"#utility.yul\":20299:20311   */\n      add\n        /* \"#utility.yul\":20292:20311   */\n      swap1\n      pop\n        /* \"#utility.yul\":19951:20317   */\n      swap2\n      swap1\n      pop\n      jump\t// out\n        /* \"#utility.yul\":20323:20742   */\n    tag_82:\n        /* \"#utility.yul\":20489:20493   */\n      0x00\n        /* \"#utility.yul\":20527:20529   */\n      0x20\n        /* \"#utility.yul\":20516:20525   */\n      dup3\n        /* \"#utility.yul\":20512:20530   */\n      add\n        /* \"#utility.yul\":20504:20530   */\n      swap1\n      pop\n        /* \"#utility.yul\":20576:20585   */\n      dup2\n        /* \"#utility.yul\":20570:20574   */\n      dup2\n        /* \"#utility.yul\":20566:20586   */\n      sub\n        /* \"#utility.yul\":20562:20563   */\n      0x00\n        /* \"#utility.yul\":20551:20560   */\n      dup4\n        /* \"#utility.yul\":20547:20564   */\n      add\n        /* \"#utility.yul\":20540:20587   */\n      mstore\n        /* \"#utility.yul\":20604:20735   */\n      tag_381\n        /* \"#utility.yul\":20730:20734   */\n      dup2\n        /* \"#utility.yul\":20604:20735   */\n      tag_177\n      jump\t// in\n    tag_381:\n        /* \"#utility.yul\":20596:20735   */\n      swap1\n      pop\n        /* \"#utility.yul\":20323:20742   */\n      swap2\n      swap1\n      pop\n      jump\t// out\n        /* \"#utility.yul\":20748:20915   */\n    tag_178:\n        /* \"#utility.yul\":20888:20907   */\n      0x547765657420686173206e6f206c696b65000000000000000000000000000000\n        /* \"#utility.yul\":20884:20885   */\n      0x00\n        /* \"#utility.yul\":20876:20882   */\n      dup3\n        /* \"#utility.yul\":20872:20886   */\n      add\n        /* \"#utility.yul\":20865:20908   */\n      mstore\n        /* \"#utility.yul\":20748:20915   */\n      pop\n      jump\t// out\n        /* \"#utility.yul\":20921:21287   */\n    tag_179:\n        /* \"#utility.yul\":21063:21066   */\n      0x00\n        /* \"#utility.yul\":21084:21151   */\n      tag_384\n        /* \"#utility.yul\":21148:21150   */\n      0x11\n        /* \"#utility.yul\":21143:21146   */\n      dup4\n        /* \"#utility.yul\":21084:21151   */\n      tag_154\n      jump\t// in\n    tag_384:\n        /* \"#utility.yul\":21077:21151   */\n      swap2\n      pop\n        /* \"#utility.yul\":21160:21253   */\n      tag_385\n        /* \"#utility.yul\":21249:21252   */\n      dup3\n        /* \"#utility.yul\":21160:21253   */\n      tag_178\n      jump\t// in\n    tag_385:\n        /* \"#utility.yul\":21278:21280   */\n      0x20\n        /* \"#utility.yul\":21273:21276   */\n      dup3\n        /* \"#utility.yul\":21269:21281   */\n      add\n        /* \"#utility.yul\":21262:21281   */\n      swap1\n      pop\n        /* \"#utility.yul\":20921:21287   */\n      swap2\n      swap1\n      pop\n      jump\t// out\n        /* \"#utility.yul\":21293:21712   */\n    tag_102:\n        /* \"#utility.yul\":21459:21463   */\n      0x00\n        /* \"#utility.yul\":21497:21499   */\n      0x20\n        /* \"#utility.yul\":21486:21495   */\n      dup3\n        /* \"#utility.yul\":21482:21500   */\n      add\n        /* \"#utility.yul\":21474:21500   */\n      swap1\n      pop\n        /* \"#utility.yul\":21546:21555   */\n      dup2\n        /* \"#utility.yul\":21540:21544   */\n      dup2\n        /* \"#utility.yul\":21536:21556   */\n      sub\n        /* \"#utility.yul\":21532:21533   */\n      0x00\n        /* \"#utility.yul\":21521:21530   */\n      dup4\n        /* \"#utility.yul\":21517:21534   */\n      add\n        /* \"#utility.yul\":21510:21557   */\n      mstore\n        /* \"#utility.yul\":21574:21705   */\n      tag_387\n        /* \"#utility.yul\":21700:21704   */\n      dup2\n        /* \"#utility.yul\":21574:21705   */\n      tag_179\n      jump\t// in\n    tag_387:\n        /* \"#utility.yul\":21566:21705   */\n      swap1\n      pop\n        /* \"#utility.yul\":21293:21712   */\n      swap2\n      swap1\n      pop\n      jump\t// out\n        /* \"#utility.yul\":21718:21889   */\n    tag_107:\n        /* \"#utility.yul\":21757:21760   */\n      0x00\n        /* \"#utility.yul\":21780:21804   */\n      tag_389\n        /* \"#utility.yul\":21798:21803   */\n      dup3\n        /* \"#utility.yul\":21780:21804   */\n      tag_129\n      jump\t// in\n    tag_389:\n        /* \"#utility.yul\":21771:21804   */\n      swap2\n      pop\n        /* \"#utility.yul\":21826:21830   */\n      0x00\n        /* \"#utility.yul\":21819:21824   */\n      dup3\n        /* \"#utility.yul\":21816:21831   */\n      sub\n        /* \"#utility.yul\":21813:21854   */\n      tag_390\n      jumpi\n        /* \"#utility.yul\":21834:21852   */\n      tag_391\n      tag_160\n      jump\t// in\n    tag_391:\n        /* \"#utility.yul\":21813:21854   */\n    tag_390:\n        /* \"#utility.yul\":21881:21882   */\n      0x01\n        /* \"#utility.yul\":21874:21879   */\n      dup3\n        /* \"#utility.yul\":21870:21883   */\n      sub\n        /* \"#utility.yul\":21863:21883   */\n      swap1\n      pop\n        /* \"#utility.yul\":21718:21889   */\n      swap2\n      swap1\n      pop\n      jump\t// out\n\n    auxdata: 0xa26469706673582212203cd29e090d3a116f60e3618c844513acc014cfacb577cbea43085299eb2bd4e964736f6c634300081a0033\n}\n",
				"bytecode": {
					"linkReferences": {},
					"object": "608060405260c85f553480156012575f80fd5b503360015f6101000a81548173ffffffffffffffffffffffffffffffffffffffff021916908373ffffffffffffffffffffffffffffffffffffffff16021790555061160c806100605f395ff3fe608060405234801561000f575f80fd5b5060043610610091575f3560e01c8063888a788011610064578063888a78801461011b5780639531656f14610137578063ae775e951461016b578063b2bdfa7b14610187578063c3ad5ecb146101a557610091565b806312e7ee1c1461009557806363378216146100c55780636eb10797146100e15780637c9cd2bc146100ff575b5f80fd5b6100af60048036038101906100aa9190610b74565b6101d5565b6040516100bc9190610d64565b60405180910390f35b6100df60048036038101906100da9190610dae565b610370565b005b6100e9610486565b6040516100f69190610dfb565b60405180910390f35b61011960048036038101906101149190610f40565b61048b565b005b61013560048036038101906101309190610f87565b6105ed565b005b610151600480360381019061014c9190610dae565b610685565b604051610162959493929190611009565b60405180910390f35b61018560048036038101906101809190610dae565b610776565b005b61018f61092c565b60405161019c9190611061565b60405180910390f35b6101bf60048036038101906101ba9190610f87565b610951565b6040516101cc91906110ed565b60405180910390f35b606060025f8373ffffffffffffffffffffffffffffffffffffffff1673ffffffffffffffffffffffffffffffffffffffff1681526020019081526020015f20805480602002602001604051908101604052809291908181526020015f905b82821015610365578382905f5260205f2090600502016040518060a00160405290815f8201548152602001600182015f9054906101000a900473ffffffffffffffffffffffffffffffffffffffff1673ffffffffffffffffffffffffffffffffffffffff1673ffffffffffffffffffffffffffffffffffffffff168152602001600282015481526020016003820180546102cc9061113a565b80601f01602080910402602001604051908101604052809291908181526020018280546102f89061113a565b80156103435780601f1061031a57610100808354040283529160200191610343565b820191905f5260205f20905b81548152906001019060200180831161032657829003601f168201915b5050505050815260200160048201548152505081526020019060010190610233565b505050509050919050565b8060025f8473ffffffffffffffffffffffffffffffffffffffff1673ffffffffffffffffffffffffffffffffffffffff1681526020019081526020015f2082815481106103c0576103bf61116a565b5b905f5260205f2090600502015f01541461040f576040517f08c379a0000000000000000000000000000000000000000000000000000000008152600401610406906111e1565b60405180910390fd5b60025f8373ffffffffffffffffffffffffffffffffffffffff1673ffffffffffffffffffffffffffffffffffffffff1681526020019081526020015f20818154811061045e5761045d61116a565b5b905f5260205f2090600502016004015f81548092919061047d9061122c565b91905055505050565b5f5481565b5f6040518060a0016040528060025f3373ffffffffffffffffffffffffffffffffffffffff1673ffffffffffffffffffffffffffffffffffffffff1681526020019081526020015f208054905081526020013373ffffffffffffffffffffffffffffffffffffffff1681526020014281526020018381526020015f815250905060025f3373ffffffffffffffffffffffffffffffffffffffff1673ffffffffffffffffffffffffffffffffffffffff1681526020019081526020015f2081908060018154018082558091505060019003905f5260205f2090600502015f909190919091505f820151815f01556020820151816001015f6101000a81548173ffffffffffffffffffffffffffffffffffffffff021916908373ffffffffffffffffffffffffffffffffffffffff1602179055506040820151816002015560608201518160030190816105dc9190611410565b506080820151816004015550505050565b3373ffffffffffffffffffffffffffffffffffffffff1660015f9054906101000a900473ffffffffffffffffffffffffffffffffffffffff1673ffffffffffffffffffffffffffffffffffffffff161461067c576040517f08c379a000000000000000000000000000000000000000000000000000000000815260040161067390611529565b60405180910390fd5b805f8190555050565b6002602052815f5260405f20818154811061069e575f80fd5b905f5260205f2090600502015f9150915050805f015490806001015f9054906101000a900473ffffffffffffffffffffffffffffffffffffffff16908060020154908060030180546106ef9061113a565b80601f016020809104026020016040519081016040528092919081815260200182805461071b9061113a565b80156107665780601f1061073d57610100808354040283529160200191610766565b820191905f5260205f20905b81548152906001019060200180831161074957829003601f168201915b5050505050908060040154905085565b8060025f8473ffffffffffffffffffffffffffffffffffffffff1673ffffffffffffffffffffffffffffffffffffffff1681526020019081526020015f2082815481106107c6576107c561116a565b5b905f5260205f2090600502015f015414610815576040517f08c379a000000000000000000000000000000000000000000000000000000000815260040161080c906111e1565b60405180910390fd5b5f60025f8473ffffffffffffffffffffffffffffffffffffffff1673ffffffffffffffffffffffffffffffffffffffff1681526020019081526020015f2082815481106108655761086461116a565b5b905f5260205f20906005020160040154116108b5576040517f08c379a00000000000000000000000000000000000000000000000000000000081526004016108ac90611591565b60405180910390fd5b60025f8373ffffffffffffffffffffffffffffffffffffffff1673ffffffffffffffffffffffffffffffffffffffff1681526020019081526020015f2081815481106109045761090361116a565b5b905f5260205f2090600502016004015f815480929190610923906115af565b91905055505050565b60015f9054906101000a900473ffffffffffffffffffffffffffffffffffffffff1681565b610959610ac8565b60025f3373ffffffffffffffffffffffffffffffffffffffff1673ffffffffffffffffffffffffffffffffffffffff1681526020019081526020015f2082815481106109a8576109a761116a565b5b905f5260205f2090600502016040518060a00160405290815f8201548152602001600182015f9054906101000a900473ffffffffffffffffffffffffffffffffffffffff1673ffffffffffffffffffffffffffffffffffffffff1673ffffffffffffffffffffffffffffffffffffffff16815260200160028201548152602001600382018054610a379061113a565b80601f0160208091040260200160405190810160405280929190818152602001828054610a639061113a565b8015610aae5780601f10610a8557610100808354040283529160200191610aae565b820191905f5260205f20905b815481529060010190602001808311610a9157829003601f168201915b505050505081526020016004820154815250509050919050565b6040518060a001604052805f81526020015f73ffffffffffffffffffffffffffffffffffffffff1681526020015f8152602001606081526020015f81525090565b5f604051905090565b5f80fd5b5f80fd5b5f73ffffffffffffffffffffffffffffffffffffffff82169050919050565b5f610b4382610b1a565b9050919050565b610b5381610b39565b8114610b5d575f80fd5b50565b5f81359050610b6e81610b4a565b92915050565b5f60208284031215610b8957610b88610b12565b5b5f610b9684828501610b60565b91505092915050565b5f81519050919050565b5f82825260208201905092915050565b5f819050602082019050919050565b5f819050919050565b610bda81610bc8565b82525050565b610be981610b39565b82525050565b5f81519050919050565b5f82825260208201905092915050565b8281835e5f83830152505050565b5f601f19601f8301169050919050565b5f610c3182610bef565b610c3b8185610bf9565b9350610c4b818560208601610c09565b610c5481610c17565b840191505092915050565b5f60a083015f830151610c745f860182610bd1565b506020830151610c876020860182610be0565b506040830151610c9a6040860182610bd1565b5060608301518482036060860152610cb28282610c27565b9150506080830151610cc76080860182610bd1565b508091505092915050565b5f610cdd8383610c5f565b905092915050565b5f602082019050919050565b5f610cfb82610b9f565b610d058185610ba9565b935083602082028501610d1785610bb9565b805f5b85811015610d525784840389528151610d338582610cd2565b9450610d3e83610ce5565b925060208a01995050600181019050610d1a565b50829750879550505050505092915050565b5f6020820190508181035f830152610d7c8184610cf1565b905092915050565b610d8d81610bc8565b8114610d97575f80fd5b50565b5f81359050610da881610d84565b92915050565b5f8060408385031215610dc457610dc3610b12565b5b5f610dd185828601610b60565b9250506020610de285828601610d9a565b9150509250929050565b610df581610bc8565b82525050565b5f602082019050610e0e5f830184610dec565b92915050565b5f80fd5b5f80fd5b7f4e487b71000000000000000000000000000000000000000000000000000000005f52604160045260245ffd5b610e5282610c17565b810181811067ffffffffffffffff82111715610e7157610e70610e1c565b5b80604052505050565b5f610e83610b09565b9050610e8f8282610e49565b919050565b5f67ffffffffffffffff821115610eae57610ead610e1c565b5b610eb782610c17565b9050602081019050919050565b828183375f83830152505050565b5f610ee4610edf84610e94565b610e7a565b905082815260208101848484011115610f0057610eff610e18565b5b610f0b848285610ec4565b509392505050565b5f82601f830112610f2757610f26610e14565b5b8135610f37848260208601610ed2565b91505092915050565b5f60208284031215610f5557610f54610b12565b5b5f82013567ffffffffffffffff811115610f7257610f71610b16565b5b610f7e84828501610f13565b91505092915050565b5f60208284031215610f9c57610f9b610b12565b5b5f610fa984828501610d9a565b91505092915050565b610fbb81610b39565b82525050565b5f82825260208201905092915050565b5f610fdb82610bef565b610fe58185610fc1565b9350610ff5818560208601610c09565b610ffe81610c17565b840191505092915050565b5f60a08201905061101c5f830188610dec565b6110296020830187610fb2565b6110366040830186610dec565b81810360608301526110488185610fd1565b90506110576080830184610dec565b9695505050505050565b5f6020820190506110745f830184610fb2565b92915050565b5f60a083015f83015161108f5f860182610bd1565b5060208301516110a26020860182610be0565b5060408301516110b56040860182610bd1565b50606083015184820360608601526110cd8282610c27565b91505060808301516110e26080860182610bd1565b508091505092915050565b5f6020820190508181035f830152611105818461107a565b905092915050565b7f4e487b71000000000000000000000000000000000000000000000000000000005f52602260045260245ffd5b5f600282049050600182168061115157607f821691505b6020821081036111645761116361110d565b5b50919050565b7f4e487b71000000000000000000000000000000000000000000000000000000005f52603260045260245ffd5b7f547765657420646f6573206e6f742065786973740000000000000000000000005f82015250565b5f6111cb601483610fc1565b91506111d682611197565b602082019050919050565b5f6020820190508181035f8301526111f8816111bf565b9050919050565b7f4e487b71000000000000000000000000000000000000000000000000000000005f52601160045260245ffd5b5f61123682610bc8565b91507fffffffffffffffffffffffffffffffffffffffffffffffffffffffffffffffff8203611268576112676111ff565b5b600182019050919050565b5f819050815f5260205f209050919050565b5f6020601f8301049050919050565b5f82821b905092915050565b5f600883026112cf7fffffffffffffffffffffffffffffffffffffffffffffffffffffffffffffffff82611294565b6112d98683611294565b95508019841693508086168417925050509392505050565b5f819050919050565b5f61131461130f61130a84610bc8565b6112f1565b610bc8565b9050919050565b5f819050919050565b61132d836112fa565b6113416113398261131b565b8484546112a0565b825550505050565b5f90565b611355611349565b611360818484611324565b505050565b5b81811015611383576113785f8261134d565b600181019050611366565b5050565b601f8211156113c85761139981611273565b6113a284611285565b810160208510156113b1578190505b6113c56113bd85611285565b830182611365565b50505b505050565b5f82821c905092915050565b5f6113e85f19846008026113cd565b1980831691505092915050565b5f61140083836113d9565b9150826002028217905092915050565b61141982610bef565b67ffffffffffffffff81111561143257611431610e1c565b5b61143c825461113a565b611447828285611387565b5f60209050601f831160018114611478575f8415611466578287015190505b61147085826113f5565b8655506114d7565b601f19841661148686611273565b5f5b828110156114ad57848901518255600182019150602085019450602081019050611488565b868310156114ca57848901516114c6601f8916826113d9565b8355505b6001600288020188555050505b505050505050565b7f596f7520617265206e6f7420616e206f776e65720000000000000000000000005f82015250565b5f611513601483610fc1565b915061151e826114df565b602082019050919050565b5f6020820190508181035f83015261154081611507565b9050919050565b7f547765657420686173206e6f206c696b650000000000000000000000000000005f82015250565b5f61157b601183610fc1565b915061158682611547565b602082019050919050565b5f6020820190508181035f8301526115a88161156f565b9050919050565b5f6115b982610bc8565b91505f82036115cb576115ca6111ff565b5b60018203905091905056fea26469706673582212203cd29e090d3a116f60e3618c844513acc014cfacb577cbea43085299eb2bd4e964736f6c634300081a0033",
					"opcodes": "PUSH1 0x80 PUSH1 0x40 MSTORE PUSH1 0xC8 PUSH0 SSTORE CALLVALUE DUP1 ISZERO PUSH1 0x12 JUMPI PUSH0 DUP1 REVERT JUMPDEST POP CALLER PUSH1 0x1 PUSH0 PUSH2 0x100 EXP DUP2 SLOAD DUP2 PUSH20 0xFFFFFFFFFFFFFFFFFFFFFFFFFFFFFFFFFFFFFFFF MUL NOT AND SWAP1 DUP4 PUSH20 0xFFFFFFFFFFFFFFFFFFFFFFFFFFFFFFFFFFFFFFFF AND MUL OR SWAP1 SSTORE POP PUSH2 0x160C DUP1 PUSH2 0x60 PUSH0 CODECOPY PUSH0 RETURN INVALID PUSH1 0x80 PUSH1 0x40 MSTORE CALLVALUE DUP1 ISZERO PUSH2 0xF JUMPI PUSH0 DUP1 REVERT JUMPDEST POP PUSH1 0x4 CALLDATASIZE LT PUSH2 0x91 JUMPI PUSH0 CALLDATALOAD PUSH1 0xE0 SHR DUP1 PUSH4 0x888A7880 GT PUSH2 0x64 JUMPI DUP1 PUSH4 0x888A7880 EQ PUSH2 0x11B JUMPI DUP1 PUSH4 0x9531656F EQ PUSH2 0x137 JUMPI DUP1 PUSH4 0xAE775E95 EQ PUSH2 0x16B JUMPI DUP1 PUSH4 0xB2BDFA7B EQ PUSH2 0x187 JUMPI DUP1 PUSH4 0xC3AD5ECB EQ PUSH2 0x1A5 JUMPI PUSH2 0x91 JUMP JUMPDEST DUP1 PUSH4 0x12E7EE1C EQ PUSH2 0x95 JUMPI DUP1 PUSH4 0x63378216 EQ PUSH2 0xC5 JUMPI DUP1 PUSH4 0x6EB10797 EQ PUSH2 0xE1 JUMPI DUP1 PUSH4 0x7C9CD2BC EQ PUSH2 0xFF JUMPI JUMPDEST PUSH0 DUP1 REVERT JUMPDEST PUSH2 0xAF PUSH1 0x4 DUP1 CALLDATASIZE SUB DUP2 ADD SWAP1 PUSH2 0xAA SWAP2 SWAP1 PUSH2 0xB74 JUMP JUMPDEST PUSH2 0x1D5 JUMP JUMPDEST PUSH1 0x40 MLOAD PUSH2 0xBC SWAP2 SWAP1 PUSH2 0xD64 JUMP JUMPDEST PUSH1 0x40 MLOAD DUP1 SWAP2 SUB SWAP1 RETURN JUMPDEST PUSH2 0xDF PUSH1 0x4 DUP1 CALLDATASIZE SUB DUP2 ADD SWAP1 PUSH2 0xDA SWAP2 SWAP1 PUSH2 0xDAE JUMP JUMPDEST PUSH2 0x370 JUMP JUMPDEST STOP JUMPDEST PUSH2 0xE9 PUSH2 0x486 JUMP JUMPDEST PUSH1 0x40 MLOAD PUSH2 0xF6 SWAP2 SWAP1 PUSH2 0xDFB JUMP JUMPDEST PUSH1 0x40 MLOAD DUP1 SWAP2 SUB SWAP1 RETURN JUMPDEST PUSH2 0x119 PUSH1 0x4 DUP1 CALLDATASIZE SUB DUP2 ADD SWAP1 PUSH2 0x114 SWAP2 SWAP1 PUSH2 0xF40 JUMP JUMPDEST PUSH2 0x48B JUMP JUMPDEST STOP JUMPDEST PUSH2 0x135 PUSH1 0x4 DUP1 CALLDATASIZE SUB DUP2 ADD SWAP1 PUSH2 0x130 SWAP2 SWAP1 PUSH2 0xF87 JUMP JUMPDEST PUSH2 0x5ED JUMP JUMPDEST STOP JUMPDEST PUSH2 0x151 PUSH1 0x4 DUP1 CALLDATASIZE SUB DUP2 ADD SWAP1 PUSH2 0x14C SWAP2 SWAP1 PUSH2 0xDAE JUMP JUMPDEST PUSH2 0x685 JUMP JUMPDEST PUSH1 0x40 MLOAD PUSH2 0x162 SWAP6 SWAP5 SWAP4 SWAP3 SWAP2 SWAP1 PUSH2 0x1009 JUMP JUMPDEST PUSH1 0x40 MLOAD DUP1 SWAP2 SUB SWAP1 RETURN JUMPDEST PUSH2 0x185 PUSH1 0x4 DUP1 CALLDATASIZE SUB DUP2 ADD SWAP1 PUSH2 0x180 SWAP2 SWAP1 PUSH2 0xDAE JUMP JUMPDEST PUSH2 0x776 JUMP JUMPDEST STOP JUMPDEST PUSH2 0x18F PUSH2 0x92C JUMP JUMPDEST PUSH1 0x40 MLOAD PUSH2 0x19C SWAP2 SWAP1 PUSH2 0x1061 JUMP JUMPDEST PUSH1 0x40 MLOAD DUP1 SWAP2 SUB SWAP1 RETURN JUMPDEST PUSH2 0x1BF PUSH1 0x4 DUP1 CALLDATASIZE SUB DUP2 ADD SWAP1 PUSH2 0x1BA SWAP2 SWAP1 PUSH2 0xF87 JUMP JUMPDEST PUSH2 0x951 JUMP JUMPDEST PUSH1 0x40 MLOAD PUSH2 0x1CC SWAP2 SWAP1 PUSH2 0x10ED JUMP JUMPDEST PUSH1 0x40 MLOAD DUP1 SWAP2 SUB SWAP1 RETURN JUMPDEST PUSH1 0x60 PUSH1 0x2 PUSH0 DUP4 PUSH20 0xFFFFFFFFFFFFFFFFFFFFFFFFFFFFFFFFFFFFFFFF AND PUSH20 0xFFFFFFFFFFFFFFFFFFFFFFFFFFFFFFFFFFFFFFFF AND DUP2 MSTORE PUSH1 0x20 ADD SWAP1 DUP2 MSTORE PUSH1 0x20 ADD PUSH0 KECCAK256 DUP1 SLOAD DUP1 PUSH1 0x20 MUL PUSH1 0x20 ADD PUSH1 0x40 MLOAD SWAP1 DUP2 ADD PUSH1 0x40 MSTORE DUP1 SWAP3 SWAP2 SWAP1 DUP2 DUP2 MSTORE PUSH1 0x20 ADD PUSH0 SWAP1 JUMPDEST DUP3 DUP3 LT ISZERO PUSH2 0x365 JUMPI DUP4 DUP3 SWAP1 PUSH0 MSTORE PUSH1 0x20 PUSH0 KECCAK256 SWAP1 PUSH1 0x5 MUL ADD PUSH1 0x40 MLOAD DUP1 PUSH1 0xA0 ADD PUSH1 0x40 MSTORE SWAP1 DUP2 PUSH0 DUP3 ADD SLOAD DUP2 MSTORE PUSH1 0x20 ADD PUSH1 0x1 DUP3 ADD PUSH0 SWAP1 SLOAD SWAP1 PUSH2 0x100 EXP SWAP1 DIV PUSH20 0xFFFFFFFFFFFFFFFFFFFFFFFFFFFFFFFFFFFFFFFF AND PUSH20 0xFFFFFFFFFFFFFFFFFFFFFFFFFFFFFFFFFFFFFFFF AND PUSH20 0xFFFFFFFFFFFFFFFFFFFFFFFFFFFFFFFFFFFFFFFF AND DUP2 MSTORE PUSH1 0x20 ADD PUSH1 0x2 DUP3 ADD SLOAD DUP2 MSTORE PUSH1 0x20 ADD PUSH1 0x3 DUP3 ADD DUP1 SLOAD PUSH2 0x2CC SWAP1 PUSH2 0x113A JUMP JUMPDEST DUP1 PUSH1 0x1F ADD PUSH1 0x20 DUP1 SWAP2 DIV MUL PUSH1 0x20 ADD PUSH1 0x40 MLOAD SWAP1 DUP2 ADD PUSH1 0x40 MSTORE DUP1 SWAP3 SWAP2 SWAP1 DUP2 DUP2 MSTORE PUSH1 0x20 ADD DUP3 DUP1 SLOAD PUSH2 0x2F8 SWAP1 PUSH2 0x113A JUMP JUMPDEST DUP1 ISZERO PUSH2 0x343 JUMPI DUP1 PUSH1 0x1F LT PUSH2 0x31A JUMPI PUSH2 0x100 DUP1 DUP4 SLOAD DIV MUL DUP4 MSTORE SWAP2 PUSH1 0x20 ADD SWAP2 PUSH2 0x343 JUMP JUMPDEST DUP3 ADD SWAP2 SWAP1 PUSH0 MSTORE PUSH1 0x20 PUSH0 KECCAK256 SWAP1 JUMPDEST DUP2 SLOAD DUP2 MSTORE SWAP1 PUSH1 0x1 ADD SWAP1 PUSH1 0x20 ADD DUP1 DUP4 GT PUSH2 0x326 JUMPI DUP3 SWAP1 SUB PUSH1 0x1F AND DUP3 ADD SWAP2 JUMPDEST POP POP POP POP POP DUP2 MSTORE PUSH1 0x20 ADD PUSH1 0x4 DUP3 ADD SLOAD DUP2 MSTORE POP POP DUP2 MSTORE PUSH1 0x20 ADD SWAP1 PUSH1 0x1 ADD SWAP1 PUSH2 0x233 JUMP JUMPDEST POP POP POP POP SWAP1 POP SWAP2 SWAP1 POP JUMP JUMPDEST DUP1 PUSH1 0x2 PUSH0 DUP5 PUSH20 0xFFFFFFFFFFFFFFFFFFFFFFFFFFFFFFFFFFFFFFFF AND PUSH20 0xFFFFFFFFFFFFFFFFFFFFFFFFFFFFFFFFFFFFFFFF AND DUP2 MSTORE PUSH1 0x20 ADD SWAP1 DUP2 MSTORE PUSH1 0x20 ADD PUSH0 KECCAK256 DUP3 DUP2 SLOAD DUP2 LT PUSH2 0x3C0 JUMPI PUSH2 0x3BF PUSH2 0x116A JUMP JUMPDEST JUMPDEST SWAP1 PUSH0 MSTORE PUSH1 0x20 PUSH0 KECCAK256 SWAP1 PUSH1 0x5 MUL ADD PUSH0 ADD SLOAD EQ PUSH2 0x40F JUMPI PUSH1 0x40 MLOAD PUSH32 0x8C379A000000000000000000000000000000000000000000000000000000000 DUP2 MSTORE PUSH1 0x4 ADD PUSH2 0x406 SWAP1 PUSH2 0x11E1 JUMP JUMPDEST PUSH1 0x40 MLOAD DUP1 SWAP2 SUB SWAP1 REVERT JUMPDEST PUSH1 0x2 PUSH0 DUP4 PUSH20 0xFFFFFFFFFFFFFFFFFFFFFFFFFFFFFFFFFFFFFFFF AND PUSH20 0xFFFFFFFFFFFFFFFFFFFFFFFFFFFFFFFFFFFFFFFF AND DUP2 MSTORE PUSH1 0x20 ADD SWAP1 DUP2 MSTORE PUSH1 0x20 ADD PUSH0 KECCAK256 DUP2 DUP2 SLOAD DUP2 LT PUSH2 0x45E JUMPI PUSH2 0x45D PUSH2 0x116A JUMP JUMPDEST JUMPDEST SWAP1 PUSH0 MSTORE PUSH1 0x20 PUSH0 KECCAK256 SWAP1 PUSH1 0x5 MUL ADD PUSH1 0x4 ADD PUSH0 DUP2 SLOAD DUP1 SWAP3 SWAP2 SWAP1 PUSH2 0x47D SWAP1 PUSH2 0x122C JUMP JUMPDEST SWAP2 SWAP1 POP SSTORE POP POP POP JUMP JUMPDEST PUSH0 SLOAD DUP2 JUMP JUMPDEST PUSH0 PUSH1 0x40 MLOAD DUP1 PUSH1 0xA0 ADD PUSH1 0x40 MSTORE DUP1 PUSH1 0x2 PUSH0 CALLER PUSH20 0xFFFFFFFFFFFFFFFFFFFFFFFFFFFFFFFFFFFFFFFF AND PUSH20 0xFFFFFFFFFFFFFFFFFFFFFFFFFFFFFFFFFFFFFFFF AND DUP2 MSTORE PUSH1 0x20 ADD SWAP1 DUP2 MSTORE PUSH1 0x20 ADD PUSH0 KECCAK256 DUP1 SLOAD SWAP1 POP DUP2 MSTORE PUSH1 0x20 ADD CALLER PUSH20 0xFFFFFFFFFFFFFFFFFFFFFFFFFFFFFFFFFFFFFFFF AND DUP2 MSTORE PUSH1 0x20 ADD TIMESTAMP DUP2 MSTORE PUSH1 0x20 ADD DUP4 DUP2 MSTORE PUSH1 0x20 ADD PUSH0 DUP2 MSTORE POP SWAP1 POP PUSH1 0x2 PUSH0 CALLER PUSH20 0xFFFFFFFFFFFFFFFFFFFFFFFFFFFFFFFFFFFFFFFF AND PUSH20 0xFFFFFFFFFFFFFFFFFFFFFFFFFFFFFFFFFFFFFFFF AND DUP2 MSTORE PUSH1 0x20 ADD SWAP1 DUP2 MSTORE PUSH1 0x20 ADD PUSH0 KECCAK256 DUP2 SWAP1 DUP1 PUSH1 0x1 DUP2 SLOAD ADD DUP1 DUP3 SSTORE DUP1 SWAP2 POP POP PUSH1 0x1 SWAP1 SUB SWAP1 PUSH0 MSTORE PUSH1 0x20 PUSH0 KECCAK256 SWAP1 PUSH1 0x5 MUL ADD PUSH0 SWAP1 SWAP2 SWAP1 SWAP2 SWAP1 SWAP2 POP PUSH0 DUP3 ADD MLOAD DUP2 PUSH0 ADD SSTORE PUSH1 0x20 DUP3 ADD MLOAD DUP2 PUSH1 0x1 ADD PUSH0 PUSH2 0x100 EXP DUP2 SLOAD DUP2 PUSH20 0xFFFFFFFFFFFFFFFFFFFFFFFFFFFFFFFFFFFFFFFF MUL NOT AND SWAP1 DUP4 PUSH20 0xFFFFFFFFFFFFFFFFFFFFFFFFFFFFFFFFFFFFFFFF AND MUL OR SWAP1 SSTORE POP PUSH1 0x40 DUP3 ADD MLOAD DUP2 PUSH1 0x2 ADD SSTORE PUSH1 0x60 DUP3 ADD MLOAD DUP2 PUSH1 0x3 ADD SWAP1 DUP2 PUSH2 0x5DC SWAP2 SWAP1 PUSH2 0x1410 JUMP JUMPDEST POP PUSH1 0x80 DUP3 ADD MLOAD DUP2 PUSH1 0x4 ADD SSTORE POP POP POP POP JUMP JUMPDEST CALLER PUSH20 0xFFFFFFFFFFFFFFFFFFFFFFFFFFFFFFFFFFFFFFFF AND PUSH1 0x1 PUSH0 SWAP1 SLOAD SWAP1 PUSH2 0x100 EXP SWAP1 DIV PUSH20 0xFFFFFFFFFFFFFFFFFFFFFFFFFFFFFFFFFFFFFFFF AND PUSH20 0xFFFFFFFFFFFFFFFFFFFFFFFFFFFFFFFFFFFFFFFF AND EQ PUSH2 0x67C JUMPI PUSH1 0x40 MLOAD PUSH32 0x8C379A000000000000000000000000000000000000000000000000000000000 DUP2 MSTORE PUSH1 0x4 ADD PUSH2 0x673 SWAP1 PUSH2 0x1529 JUMP JUMPDEST PUSH1 0x40 MLOAD DUP1 SWAP2 SUB SWAP1 REVERT JUMPDEST DUP1 PUSH0 DUP2 SWAP1 SSTORE POP POP JUMP JUMPDEST PUSH1 0x2 PUSH1 0x20 MSTORE DUP2 PUSH0 MSTORE PUSH1 0x40 PUSH0 KECCAK256 DUP2 DUP2 SLOAD DUP2 LT PUSH2 0x69E JUMPI PUSH0 DUP1 REVERT JUMPDEST SWAP1 PUSH0 MSTORE PUSH1 0x20 PUSH0 KECCAK256 SWAP1 PUSH1 0x5 MUL ADD PUSH0 SWAP2 POP SWAP2 POP POP DUP1 PUSH0 ADD SLOAD SWAP1 DUP1 PUSH1 0x1 ADD PUSH0 SWAP1 SLOAD SWAP1 PUSH2 0x100 EXP SWAP1 DIV PUSH20 0xFFFFFFFFFFFFFFFFFFFFFFFFFFFFFFFFFFFFFFFF AND SWAP1 DUP1 PUSH1 0x2 ADD SLOAD SWAP1 DUP1 PUSH1 0x3 ADD DUP1 SLOAD PUSH2 0x6EF SWAP1 PUSH2 0x113A JUMP JUMPDEST DUP1 PUSH1 0x1F ADD PUSH1 0x20 DUP1 SWAP2 DIV MUL PUSH1 0x20 ADD PUSH1 0x40 MLOAD SWAP1 DUP2 ADD PUSH1 0x40 MSTORE DUP1 SWAP3 SWAP2 SWAP1 DUP2 DUP2 MSTORE PUSH1 0x20 ADD DUP3 DUP1 SLOAD PUSH2 0x71B SWAP1 PUSH2 0x113A JUMP JUMPDEST DUP1 ISZERO PUSH2 0x766 JUMPI DUP1 PUSH1 0x1F LT PUSH2 0x73D JUMPI PUSH2 0x100 DUP1 DUP4 SLOAD DIV MUL DUP4 MSTORE SWAP2 PUSH1 0x20 ADD SWAP2 PUSH2 0x766 JUMP JUMPDEST DUP3 ADD SWAP2 SWAP1 PUSH0 MSTORE PUSH1 0x20 PUSH0 KECCAK256 SWAP1 JUMPDEST DUP2 SLOAD DUP2 MSTORE SWAP1 PUSH1 0x1 ADD SWAP1 PUSH1 0x20 ADD DUP1 DUP4 GT PUSH2 0x749 JUMPI DUP3 SWAP1 SUB PUSH1 0x1F AND DUP3 ADD SWAP2 JUMPDEST POP POP POP POP POP SWAP1 DUP1 PUSH1 0x4 ADD SLOAD SWAP1 POP DUP6 JUMP JUMPDEST DUP1 PUSH1 0x2 PUSH0 DUP5 PUSH20 0xFFFFFFFFFFFFFFFFFFFFFFFFFFFFFFFFFFFFFFFF AND PUSH20 0xFFFFFFFFFFFFFFFFFFFFFFFFFFFFFFFFFFFFFFFF AND DUP2 MSTORE PUSH1 0x20 ADD SWAP1 DUP2 MSTORE PUSH1 0x20 ADD PUSH0 KECCAK256 DUP3 DUP2 SLOAD DUP2 LT PUSH2 0x7C6 JUMPI PUSH2 0x7C5 PUSH2 0x116A JUMP JUMPDEST JUMPDEST SWAP1 PUSH0 MSTORE PUSH1 0x20 PUSH0 KECCAK256 SWAP1 PUSH1 0x5 MUL ADD PUSH0 ADD SLOAD EQ PUSH2 0x815 JUMPI PUSH1 0x40 MLOAD PUSH32 0x8C379A000000000000000000000000000000000000000000000000000000000 DUP2 MSTORE PUSH1 0x4 ADD PUSH2 0x80C SWAP1 PUSH2 0x11E1 JUMP JUMPDEST PUSH1 0x40 MLOAD DUP1 SWAP2 SUB SWAP1 REVERT JUMPDEST PUSH0 PUSH1 0x2 PUSH0 DUP5 PUSH20 0xFFFFFFFFFFFFFFFFFFFFFFFFFFFFFFFFFFFFFFFF AND PUSH20 0xFFFFFFFFFFFFFFFFFFFFFFFFFFFFFFFFFFFFFFFF AND DUP2 MSTORE PUSH1 0x20 ADD SWAP1 DUP2 MSTORE PUSH1 0x20 ADD PUSH0 KECCAK256 DUP3 DUP2 SLOAD DUP2 LT PUSH2 0x865 JUMPI PUSH2 0x864 PUSH2 0x116A JUMP JUMPDEST JUMPDEST SWAP1 PUSH0 MSTORE PUSH1 0x20 PUSH0 KECCAK256 SWAP1 PUSH1 0x5 MUL ADD PUSH1 0x4 ADD SLOAD GT PUSH2 0x8B5 JUMPI PUSH1 0x40 MLOAD PUSH32 0x8C379A000000000000000000000000000000000000000000000000000000000 DUP2 MSTORE PUSH1 0x4 ADD PUSH2 0x8AC SWAP1 PUSH2 0x1591 JUMP JUMPDEST PUSH1 0x40 MLOAD DUP1 SWAP2 SUB SWAP1 REVERT JUMPDEST PUSH1 0x2 PUSH0 DUP4 PUSH20 0xFFFFFFFFFFFFFFFFFFFFFFFFFFFFFFFFFFFFFFFF AND PUSH20 0xFFFFFFFFFFFFFFFFFFFFFFFFFFFFFFFFFFFFFFFF AND DUP2 MSTORE PUSH1 0x20 ADD SWAP1 DUP2 MSTORE PUSH1 0x20 ADD PUSH0 KECCAK256 DUP2 DUP2 SLOAD DUP2 LT PUSH2 0x904 JUMPI PUSH2 0x903 PUSH2 0x116A JUMP JUMPDEST JUMPDEST SWAP1 PUSH0 MSTORE PUSH1 0x20 PUSH0 KECCAK256 SWAP1 PUSH1 0x5 MUL ADD PUSH1 0x4 ADD PUSH0 DUP2 SLOAD DUP1 SWAP3 SWAP2 SWAP1 PUSH2 0x923 SWAP1 PUSH2 0x15AF JUMP JUMPDEST SWAP2 SWAP1 POP SSTORE POP POP POP JUMP JUMPDEST PUSH1 0x1 PUSH0 SWAP1 SLOAD SWAP1 PUSH2 0x100 EXP SWAP1 DIV PUSH20 0xFFFFFFFFFFFFFFFFFFFFFFFFFFFFFFFFFFFFFFFF AND DUP2 JUMP JUMPDEST PUSH2 0x959 PUSH2 0xAC8 JUMP JUMPDEST PUSH1 0x2 PUSH0 CALLER PUSH20 0xFFFFFFFFFFFFFFFFFFFFFFFFFFFFFFFFFFFFFFFF AND PUSH20 0xFFFFFFFFFFFFFFFFFFFFFFFFFFFFFFFFFFFFFFFF AND DUP2 MSTORE PUSH1 0x20 ADD SWAP1 DUP2 MSTORE PUSH1 0x20 ADD PUSH0 KECCAK256 DUP3 DUP2 SLOAD DUP2 LT PUSH2 0x9A8 JUMPI PUSH2 0x9A7 PUSH2 0x116A JUMP JUMPDEST JUMPDEST SWAP1 PUSH0 MSTORE PUSH1 0x20 PUSH0 KECCAK256 SWAP1 PUSH1 0x5 MUL ADD PUSH1 0x40 MLOAD DUP1 PUSH1 0xA0 ADD PUSH1 0x40 MSTORE SWAP1 DUP2 PUSH0 DUP3 ADD SLOAD DUP2 MSTORE PUSH1 0x20 ADD PUSH1 0x1 DUP3 ADD PUSH0 SWAP1 SLOAD SWAP1 PUSH2 0x100 EXP SWAP1 DIV PUSH20 0xFFFFFFFFFFFFFFFFFFFFFFFFFFFFFFFFFFFFFFFF AND PUSH20 0xFFFFFFFFFFFFFFFFFFFFFFFFFFFFFFFFFFFFFFFF AND PUSH20 0xFFFFFFFFFFFFFFFFFFFFFFFFFFFFFFFFFFFFFFFF AND DUP2 MSTORE PUSH1 0x20 ADD PUSH1 0x2 DUP3 ADD SLOAD DUP2 MSTORE PUSH1 0x20 ADD PUSH1 0x3 DUP3 ADD DUP1 SLOAD PUSH2 0xA37 SWAP1 PUSH2 0x113A JUMP JUMPDEST DUP1 PUSH1 0x1F ADD PUSH1 0x20 DUP1 SWAP2 DIV MUL PUSH1 0x20 ADD PUSH1 0x40 MLOAD SWAP1 DUP2 ADD PUSH1 0x40 MSTORE DUP1 SWAP3 SWAP2 SWAP1 DUP2 DUP2 MSTORE PUSH1 0x20 ADD DUP3 DUP1 SLOAD PUSH2 0xA63 SWAP1 PUSH2 0x113A JUMP JUMPDEST DUP1 ISZERO PUSH2 0xAAE JUMPI DUP1 PUSH1 0x1F LT PUSH2 0xA85 JUMPI PUSH2 0x100 DUP1 DUP4 SLOAD DIV MUL DUP4 MSTORE SWAP2 PUSH1 0x20 ADD SWAP2 PUSH2 0xAAE JUMP JUMPDEST DUP3 ADD SWAP2 SWAP1 PUSH0 MSTORE PUSH1 0x20 PUSH0 KECCAK256 SWAP1 JUMPDEST DUP2 SLOAD DUP2 MSTORE SWAP1 PUSH1 0x1 ADD SWAP1 PUSH1 0x20 ADD DUP1 DUP4 GT PUSH2 0xA91 JUMPI DUP3 SWAP1 SUB PUSH1 0x1F AND DUP3 ADD SWAP2 JUMPDEST POP POP POP POP POP DUP2 MSTORE PUSH1 0x20 ADD PUSH1 0x4 DUP3 ADD SLOAD DUP2 MSTORE POP POP SWAP1 POP SWAP2 SWAP1 POP JUMP JUMPDEST PUSH1 0x40 MLOAD DUP1 PUSH1 0xA0 ADD PUSH1 0x40 MSTORE DUP1 PUSH0 DUP2 MSTORE PUSH1 0x20 ADD PUSH0 PUSH20 0xFFFFFFFFFFFFFFFFFFFFFFFFFFFFFFFFFFFFFFFF AND DUP2 MSTORE PUSH1 0x20 ADD PUSH0 DUP2 MSTORE PUSH1 0x20 ADD PUSH1 0x60 DUP2 MSTORE PUSH1 0x20 ADD PUSH0 DUP2 MSTORE POP SWAP1 JUMP JUMPDEST PUSH0 PUSH1 0x40 MLOAD SWAP1 POP SWAP1 JUMP JUMPDEST PUSH0 DUP1 REVERT JUMPDEST PUSH0 DUP1 REVERT JUMPDEST PUSH0 PUSH20 0xFFFFFFFFFFFFFFFFFFFFFFFFFFFFFFFFFFFFFFFF DUP3 AND SWAP1 POP SWAP2 SWAP1 POP JUMP JUMPDEST PUSH0 PUSH2 0xB43 DUP3 PUSH2 0xB1A JUMP JUMPDEST SWAP1 POP SWAP2 SWAP1 POP JUMP JUMPDEST PUSH2 0xB53 DUP2 PUSH2 0xB39 JUMP JUMPDEST DUP2 EQ PUSH2 0xB5D JUMPI PUSH0 DUP1 REVERT JUMPDEST POP JUMP JUMPDEST PUSH0 DUP2 CALLDATALOAD SWAP1 POP PUSH2 0xB6E DUP2 PUSH2 0xB4A JUMP JUMPDEST SWAP3 SWAP2 POP POP JUMP JUMPDEST PUSH0 PUSH1 0x20 DUP3 DUP5 SUB SLT ISZERO PUSH2 0xB89 JUMPI PUSH2 0xB88 PUSH2 0xB12 JUMP JUMPDEST JUMPDEST PUSH0 PUSH2 0xB96 DUP5 DUP3 DUP6 ADD PUSH2 0xB60 JUMP JUMPDEST SWAP2 POP POP SWAP3 SWAP2 POP POP JUMP JUMPDEST PUSH0 DUP2 MLOAD SWAP1 POP SWAP2 SWAP1 POP JUMP JUMPDEST PUSH0 DUP3 DUP3 MSTORE PUSH1 0x20 DUP3 ADD SWAP1 POP SWAP3 SWAP2 POP POP JUMP JUMPDEST PUSH0 DUP2 SWAP1 POP PUSH1 0x20 DUP3 ADD SWAP1 POP SWAP2 SWAP1 POP JUMP JUMPDEST PUSH0 DUP2 SWAP1 POP SWAP2 SWAP1 POP JUMP JUMPDEST PUSH2 0xBDA DUP2 PUSH2 0xBC8 JUMP JUMPDEST DUP3 MSTORE POP POP JUMP JUMPDEST PUSH2 0xBE9 DUP2 PUSH2 0xB39 JUMP JUMPDEST DUP3 MSTORE POP POP JUMP JUMPDEST PUSH0 DUP2 MLOAD SWAP1 POP SWAP2 SWAP1 POP JUMP JUMPDEST PUSH0 DUP3 DUP3 MSTORE PUSH1 0x20 DUP3 ADD SWAP1 POP SWAP3 SWAP2 POP POP JUMP JUMPDEST DUP3 DUP2 DUP4 MCOPY PUSH0 DUP4 DUP4 ADD MSTORE POP POP POP JUMP JUMPDEST PUSH0 PUSH1 0x1F NOT PUSH1 0x1F DUP4 ADD AND SWAP1 POP SWAP2 SWAP1 POP JUMP JUMPDEST PUSH0 PUSH2 0xC31 DUP3 PUSH2 0xBEF JUMP JUMPDEST PUSH2 0xC3B DUP2 DUP6 PUSH2 0xBF9 JUMP JUMPDEST SWAP4 POP PUSH2 0xC4B DUP2 DUP6 PUSH1 0x20 DUP7 ADD PUSH2 0xC09 JUMP JUMPDEST PUSH2 0xC54 DUP2 PUSH2 0xC17 JUMP JUMPDEST DUP5 ADD SWAP2 POP POP SWAP3 SWAP2 POP POP JUMP JUMPDEST PUSH0 PUSH1 0xA0 DUP4 ADD PUSH0 DUP4 ADD MLOAD PUSH2 0xC74 PUSH0 DUP7 ADD DUP3 PUSH2 0xBD1 JUMP JUMPDEST POP PUSH1 0x20 DUP4 ADD MLOAD PUSH2 0xC87 PUSH1 0x20 DUP7 ADD DUP3 PUSH2 0xBE0 JUMP JUMPDEST POP PUSH1 0x40 DUP4 ADD MLOAD PUSH2 0xC9A PUSH1 0x40 DUP7 ADD DUP3 PUSH2 0xBD1 JUMP JUMPDEST POP PUSH1 0x60 DUP4 ADD MLOAD DUP5 DUP3 SUB PUSH1 0x60 DUP7 ADD MSTORE PUSH2 0xCB2 DUP3 DUP3 PUSH2 0xC27 JUMP JUMPDEST SWAP2 POP POP PUSH1 0x80 DUP4 ADD MLOAD PUSH2 0xCC7 PUSH1 0x80 DUP7 ADD DUP3 PUSH2 0xBD1 JUMP JUMPDEST POP DUP1 SWAP2 POP POP SWAP3 SWAP2 POP POP JUMP JUMPDEST PUSH0 PUSH2 0xCDD DUP4 DUP4 PUSH2 0xC5F JUMP JUMPDEST SWAP1 POP SWAP3 SWAP2 POP POP JUMP JUMPDEST PUSH0 PUSH1 0x20 DUP3 ADD SWAP1 POP SWAP2 SWAP1 POP JUMP JUMPDEST PUSH0 PUSH2 0xCFB DUP3 PUSH2 0xB9F JUMP JUMPDEST PUSH2 0xD05 DUP2 DUP6 PUSH2 0xBA9 JUMP JUMPDEST SWAP4 POP DUP4 PUSH1 0x20 DUP3 MUL DUP6 ADD PUSH2 0xD17 DUP6 PUSH2 0xBB9 JUMP JUMPDEST DUP1 PUSH0 JUMPDEST DUP6 DUP2 LT ISZERO PUSH2 0xD52 JUMPI DUP5 DUP5 SUB DUP10 MSTORE DUP2 MLOAD PUSH2 0xD33 DUP6 DUP3 PUSH2 0xCD2 JUMP JUMPDEST SWAP5 POP PUSH2 0xD3E DUP4 PUSH2 0xCE5 JUMP JUMPDEST SWAP3 POP PUSH1 0x20 DUP11 ADD SWAP10 POP POP PUSH1 0x1 DUP2 ADD SWAP1 POP PUSH2 0xD1A JUMP JUMPDEST POP DUP3 SWAP8 POP DUP8 SWAP6 POP POP POP POP POP POP SWAP3 SWAP2 POP POP JUMP JUMPDEST PUSH0 PUSH1 0x20 DUP3 ADD SWAP1 POP DUP2 DUP2 SUB PUSH0 DUP4 ADD MSTORE PUSH2 0xD7C DUP2 DUP5 PUSH2 0xCF1 JUMP JUMPDEST SWAP1 POP SWAP3 SWAP2 POP POP JUMP JUMPDEST PUSH2 0xD8D DUP2 PUSH2 0xBC8 JUMP JUMPDEST DUP2 EQ PUSH2 0xD97 JUMPI PUSH0 DUP1 REVERT JUMPDEST POP JUMP JUMPDEST PUSH0 DUP2 CALLDATALOAD SWAP1 POP PUSH2 0xDA8 DUP2 PUSH2 0xD84 JUMP JUMPDEST SWAP3 SWAP2 POP POP JUMP JUMPDEST PUSH0 DUP1 PUSH1 0x40 DUP4 DUP6 SUB SLT ISZERO PUSH2 0xDC4 JUMPI PUSH2 0xDC3 PUSH2 0xB12 JUMP JUMPDEST JUMPDEST PUSH0 PUSH2 0xDD1 DUP6 DUP3 DUP7 ADD PUSH2 0xB60 JUMP JUMPDEST SWAP3 POP POP PUSH1 0x20 PUSH2 0xDE2 DUP6 DUP3 DUP7 ADD PUSH2 0xD9A JUMP JUMPDEST SWAP2 POP POP SWAP3 POP SWAP3 SWAP1 POP JUMP JUMPDEST PUSH2 0xDF5 DUP2 PUSH2 0xBC8 JUMP JUMPDEST DUP3 MSTORE POP POP JUMP JUMPDEST PUSH0 PUSH1 0x20 DUP3 ADD SWAP1 POP PUSH2 0xE0E PUSH0 DUP4 ADD DUP5 PUSH2 0xDEC JUMP JUMPDEST SWAP3 SWAP2 POP POP JUMP JUMPDEST PUSH0 DUP1 REVERT JUMPDEST PUSH0 DUP1 REVERT JUMPDEST PUSH32 0x4E487B7100000000000000000000000000000000000000000000000000000000 PUSH0 MSTORE PUSH1 0x41 PUSH1 0x4 MSTORE PUSH1 0x24 PUSH0 REVERT JUMPDEST PUSH2 0xE52 DUP3 PUSH2 0xC17 JUMP JUMPDEST DUP2 ADD DUP2 DUP2 LT PUSH8 0xFFFFFFFFFFFFFFFF DUP3 GT OR ISZERO PUSH2 0xE71 JUMPI PUSH2 0xE70 PUSH2 0xE1C JUMP JUMPDEST JUMPDEST DUP1 PUSH1 0x40 MSTORE POP POP POP JUMP JUMPDEST PUSH0 PUSH2 0xE83 PUSH2 0xB09 JUMP JUMPDEST SWAP1 POP PUSH2 0xE8F DUP3 DUP3 PUSH2 0xE49 JUMP JUMPDEST SWAP2 SWAP1 POP JUMP JUMPDEST PUSH0 PUSH8 0xFFFFFFFFFFFFFFFF DUP3 GT ISZERO PUSH2 0xEAE JUMPI PUSH2 0xEAD PUSH2 0xE1C JUMP JUMPDEST JUMPDEST PUSH2 0xEB7 DUP3 PUSH2 0xC17 JUMP JUMPDEST SWAP1 POP PUSH1 0x20 DUP2 ADD SWAP1 POP SWAP2 SWAP1 POP JUMP JUMPDEST DUP3 DUP2 DUP4 CALLDATACOPY PUSH0 DUP4 DUP4 ADD MSTORE POP POP POP JUMP JUMPDEST PUSH0 PUSH2 0xEE4 PUSH2 0xEDF DUP5 PUSH2 0xE94 JUMP JUMPDEST PUSH2 0xE7A JUMP JUMPDEST SWAP1 POP DUP3 DUP2 MSTORE PUSH1 0x20 DUP2 ADD DUP5 DUP5 DUP5 ADD GT ISZERO PUSH2 0xF00 JUMPI PUSH2 0xEFF PUSH2 0xE18 JUMP JUMPDEST JUMPDEST PUSH2 0xF0B DUP5 DUP3 DUP6 PUSH2 0xEC4 JUMP JUMPDEST POP SWAP4 SWAP3 POP POP POP JUMP JUMPDEST PUSH0 DUP3 PUSH1 0x1F DUP4 ADD SLT PUSH2 0xF27 JUMPI PUSH2 0xF26 PUSH2 0xE14 JUMP JUMPDEST JUMPDEST DUP2 CALLDATALOAD PUSH2 0xF37 DUP5 DUP3 PUSH1 0x20 DUP7 ADD PUSH2 0xED2 JUMP JUMPDEST SWAP2 POP POP SWAP3 SWAP2 POP POP JUMP JUMPDEST PUSH0 PUSH1 0x20 DUP3 DUP5 SUB SLT ISZERO PUSH2 0xF55 JUMPI PUSH2 0xF54 PUSH2 0xB12 JUMP JUMPDEST JUMPDEST PUSH0 DUP3 ADD CALLDATALOAD PUSH8 0xFFFFFFFFFFFFFFFF DUP2 GT ISZERO PUSH2 0xF72 JUMPI PUSH2 0xF71 PUSH2 0xB16 JUMP JUMPDEST JUMPDEST PUSH2 0xF7E DUP5 DUP3 DUP6 ADD PUSH2 0xF13 JUMP JUMPDEST SWAP2 POP POP SWAP3 SWAP2 POP POP JUMP JUMPDEST PUSH0 PUSH1 0x20 DUP3 DUP5 SUB SLT ISZERO PUSH2 0xF9C JUMPI PUSH2 0xF9B PUSH2 0xB12 JUMP JUMPDEST JUMPDEST PUSH0 PUSH2 0xFA9 DUP5 DUP3 DUP6 ADD PUSH2 0xD9A JUMP JUMPDEST SWAP2 POP POP SWAP3 SWAP2 POP POP JUMP JUMPDEST PUSH2 0xFBB DUP2 PUSH2 0xB39 JUMP JUMPDEST DUP3 MSTORE POP POP JUMP JUMPDEST PUSH0 DUP3 DUP3 MSTORE PUSH1 0x20 DUP3 ADD SWAP1 POP SWAP3 SWAP2 POP POP JUMP JUMPDEST PUSH0 PUSH2 0xFDB DUP3 PUSH2 0xBEF JUMP JUMPDEST PUSH2 0xFE5 DUP2 DUP6 PUSH2 0xFC1 JUMP JUMPDEST SWAP4 POP PUSH2 0xFF5 DUP2 DUP6 PUSH1 0x20 DUP7 ADD PUSH2 0xC09 JUMP JUMPDEST PUSH2 0xFFE DUP2 PUSH2 0xC17 JUMP JUMPDEST DUP5 ADD SWAP2 POP POP SWAP3 SWAP2 POP POP JUMP JUMPDEST PUSH0 PUSH1 0xA0 DUP3 ADD SWAP1 POP PUSH2 0x101C PUSH0 DUP4 ADD DUP9 PUSH2 0xDEC JUMP JUMPDEST PUSH2 0x1029 PUSH1 0x20 DUP4 ADD DUP8 PUSH2 0xFB2 JUMP JUMPDEST PUSH2 0x1036 PUSH1 0x40 DUP4 ADD DUP7 PUSH2 0xDEC JUMP JUMPDEST DUP2 DUP2 SUB PUSH1 0x60 DUP4 ADD MSTORE PUSH2 0x1048 DUP2 DUP6 PUSH2 0xFD1 JUMP JUMPDEST SWAP1 POP PUSH2 0x1057 PUSH1 0x80 DUP4 ADD DUP5 PUSH2 0xDEC JUMP JUMPDEST SWAP7 SWAP6 POP POP POP POP POP POP JUMP JUMPDEST PUSH0 PUSH1 0x20 DUP3 ADD SWAP1 POP PUSH2 0x1074 PUSH0 DUP4 ADD DUP5 PUSH2 0xFB2 JUMP JUMPDEST SWAP3 SWAP2 POP POP JUMP JUMPDEST PUSH0 PUSH1 0xA0 DUP4 ADD PUSH0 DUP4 ADD MLOAD PUSH2 0x108F PUSH0 DUP7 ADD DUP3 PUSH2 0xBD1 JUMP JUMPDEST POP PUSH1 0x20 DUP4 ADD MLOAD PUSH2 0x10A2 PUSH1 0x20 DUP7 ADD DUP3 PUSH2 0xBE0 JUMP JUMPDEST POP PUSH1 0x40 DUP4 ADD MLOAD PUSH2 0x10B5 PUSH1 0x40 DUP7 ADD DUP3 PUSH2 0xBD1 JUMP JUMPDEST POP PUSH1 0x60 DUP4 ADD MLOAD DUP5 DUP3 SUB PUSH1 0x60 DUP7 ADD MSTORE PUSH2 0x10CD DUP3 DUP3 PUSH2 0xC27 JUMP JUMPDEST SWAP2 POP POP PUSH1 0x80 DUP4 ADD MLOAD PUSH2 0x10E2 PUSH1 0x80 DUP7 ADD DUP3 PUSH2 0xBD1 JUMP JUMPDEST POP DUP1 SWAP2 POP POP SWAP3 SWAP2 POP POP JUMP JUMPDEST PUSH0 PUSH1 0x20 DUP3 ADD SWAP1 POP DUP2 DUP2 SUB PUSH0 DUP4 ADD MSTORE PUSH2 0x1105 DUP2 DUP5 PUSH2 0x107A JUMP JUMPDEST SWAP1 POP SWAP3 SWAP2 POP POP JUMP JUMPDEST PUSH32 0x4E487B7100000000000000000000000000000000000000000000000000000000 PUSH0 MSTORE PUSH1 0x22 PUSH1 0x4 MSTORE PUSH1 0x24 PUSH0 REVERT JUMPDEST PUSH0 PUSH1 0x2 DUP3 DIV SWAP1 POP PUSH1 0x1 DUP3 AND DUP1 PUSH2 0x1151 JUMPI PUSH1 0x7F DUP3 AND SWAP2 POP JUMPDEST PUSH1 0x20 DUP3 LT DUP2 SUB PUSH2 0x1164 JUMPI PUSH2 0x1163 PUSH2 0x110D JUMP JUMPDEST JUMPDEST POP SWAP2 SWAP1 POP JUMP JUMPDEST PUSH32 0x4E487B7100000000000000000000000000000000000000000000000000000000 PUSH0 MSTORE PUSH1 0x32 PUSH1 0x4 MSTORE PUSH1 0x24 PUSH0 REVERT JUMPDEST PUSH32 0x547765657420646F6573206E6F74206578697374000000000000000000000000 PUSH0 DUP3 ADD MSTORE POP JUMP JUMPDEST PUSH0 PUSH2 0x11CB PUSH1 0x14 DUP4 PUSH2 0xFC1 JUMP JUMPDEST SWAP2 POP PUSH2 0x11D6 DUP3 PUSH2 0x1197 JUMP JUMPDEST PUSH1 0x20 DUP3 ADD SWAP1 POP SWAP2 SWAP1 POP JUMP JUMPDEST PUSH0 PUSH1 0x20 DUP3 ADD SWAP1 POP DUP2 DUP2 SUB PUSH0 DUP4 ADD MSTORE PUSH2 0x11F8 DUP2 PUSH2 0x11BF JUMP JUMPDEST SWAP1 POP SWAP2 SWAP1 POP JUMP JUMPDEST PUSH32 0x4E487B7100000000000000000000000000000000000000000000000000000000 PUSH0 MSTORE PUSH1 0x11 PUSH1 0x4 MSTORE PUSH1 0x24 PUSH0 REVERT JUMPDEST PUSH0 PUSH2 0x1236 DUP3 PUSH2 0xBC8 JUMP JUMPDEST SWAP2 POP PUSH32 0xFFFFFFFFFFFFFFFFFFFFFFFFFFFFFFFFFFFFFFFFFFFFFFFFFFFFFFFFFFFFFFFF DUP3 SUB PUSH2 0x1268 JUMPI PUSH2 0x1267 PUSH2 0x11FF JUMP JUMPDEST JUMPDEST PUSH1 0x1 DUP3 ADD SWAP1 POP SWAP2 SWAP1 POP JUMP JUMPDEST PUSH0 DUP2 SWAP1 POP DUP2 PUSH0 MSTORE PUSH1 0x20 PUSH0 KECCAK256 SWAP1 POP SWAP2 SWAP1 POP JUMP JUMPDEST PUSH0 PUSH1 0x20 PUSH1 0x1F DUP4 ADD DIV SWAP1 POP SWAP2 SWAP1 POP JUMP JUMPDEST PUSH0 DUP3 DUP3 SHL SWAP1 POP SWAP3 SWAP2 POP POP JUMP JUMPDEST PUSH0 PUSH1 0x8 DUP4 MUL PUSH2 0x12CF PUSH32 0xFFFFFFFFFFFFFFFFFFFFFFFFFFFFFFFFFFFFFFFFFFFFFFFFFFFFFFFFFFFFFFFF DUP3 PUSH2 0x1294 JUMP JUMPDEST PUSH2 0x12D9 DUP7 DUP4 PUSH2 0x1294 JUMP JUMPDEST SWAP6 POP DUP1 NOT DUP5 AND SWAP4 POP DUP1 DUP7 AND DUP5 OR SWAP3 POP POP POP SWAP4 SWAP3 POP POP POP JUMP JUMPDEST PUSH0 DUP2 SWAP1 POP SWAP2 SWAP1 POP JUMP JUMPDEST PUSH0 PUSH2 0x1314 PUSH2 0x130F PUSH2 0x130A DUP5 PUSH2 0xBC8 JUMP JUMPDEST PUSH2 0x12F1 JUMP JUMPDEST PUSH2 0xBC8 JUMP JUMPDEST SWAP1 POP SWAP2 SWAP1 POP JUMP JUMPDEST PUSH0 DUP2 SWAP1 POP SWAP2 SWAP1 POP JUMP JUMPDEST PUSH2 0x132D DUP4 PUSH2 0x12FA JUMP JUMPDEST PUSH2 0x1341 PUSH2 0x1339 DUP3 PUSH2 0x131B JUMP JUMPDEST DUP5 DUP5 SLOAD PUSH2 0x12A0 JUMP JUMPDEST DUP3 SSTORE POP POP POP POP JUMP JUMPDEST PUSH0 SWAP1 JUMP JUMPDEST PUSH2 0x1355 PUSH2 0x1349 JUMP JUMPDEST PUSH2 0x1360 DUP2 DUP5 DUP5 PUSH2 0x1324 JUMP JUMPDEST POP POP POP JUMP JUMPDEST JUMPDEST DUP2 DUP2 LT ISZERO PUSH2 0x1383 JUMPI PUSH2 0x1378 PUSH0 DUP3 PUSH2 0x134D JUMP JUMPDEST PUSH1 0x1 DUP2 ADD SWAP1 POP PUSH2 0x1366 JUMP JUMPDEST POP POP JUMP JUMPDEST PUSH1 0x1F DUP3 GT ISZERO PUSH2 0x13C8 JUMPI PUSH2 0x1399 DUP2 PUSH2 0x1273 JUMP JUMPDEST PUSH2 0x13A2 DUP5 PUSH2 0x1285 JUMP JUMPDEST DUP2 ADD PUSH1 0x20 DUP6 LT ISZERO PUSH2 0x13B1 JUMPI DUP2 SWAP1 POP JUMPDEST PUSH2 0x13C5 PUSH2 0x13BD DUP6 PUSH2 0x1285 JUMP JUMPDEST DUP4 ADD DUP3 PUSH2 0x1365 JUMP JUMPDEST POP POP JUMPDEST POP POP POP JUMP JUMPDEST PUSH0 DUP3 DUP3 SHR SWAP1 POP SWAP3 SWAP2 POP POP JUMP JUMPDEST PUSH0 PUSH2 0x13E8 PUSH0 NOT DUP5 PUSH1 0x8 MUL PUSH2 0x13CD JUMP JUMPDEST NOT DUP1 DUP4 AND SWAP2 POP POP SWAP3 SWAP2 POP POP JUMP JUMPDEST PUSH0 PUSH2 0x1400 DUP4 DUP4 PUSH2 0x13D9 JUMP JUMPDEST SWAP2 POP DUP3 PUSH1 0x2 MUL DUP3 OR SWAP1 POP SWAP3 SWAP2 POP POP JUMP JUMPDEST PUSH2 0x1419 DUP3 PUSH2 0xBEF JUMP JUMPDEST PUSH8 0xFFFFFFFFFFFFFFFF DUP2 GT ISZERO PUSH2 0x1432 JUMPI PUSH2 0x1431 PUSH2 0xE1C JUMP JUMPDEST JUMPDEST PUSH2 0x143C DUP3 SLOAD PUSH2 0x113A JUMP JUMPDEST PUSH2 0x1447 DUP3 DUP3 DUP6 PUSH2 0x1387 JUMP JUMPDEST PUSH0 PUSH1 0x20 SWAP1 POP PUSH1 0x1F DUP4 GT PUSH1 0x1 DUP2 EQ PUSH2 0x1478 JUMPI PUSH0 DUP5 ISZERO PUSH2 0x1466 JUMPI DUP3 DUP8 ADD MLOAD SWAP1 POP JUMPDEST PUSH2 0x1470 DUP6 DUP3 PUSH2 0x13F5 JUMP JUMPDEST DUP7 SSTORE POP PUSH2 0x14D7 JUMP JUMPDEST PUSH1 0x1F NOT DUP5 AND PUSH2 0x1486 DUP7 PUSH2 0x1273 JUMP JUMPDEST PUSH0 JUMPDEST DUP3 DUP2 LT ISZERO PUSH2 0x14AD JUMPI DUP5 DUP10 ADD MLOAD DUP3 SSTORE PUSH1 0x1 DUP3 ADD SWAP2 POP PUSH1 0x20 DUP6 ADD SWAP5 POP PUSH1 0x20 DUP2 ADD SWAP1 POP PUSH2 0x1488 JUMP JUMPDEST DUP7 DUP4 LT ISZERO PUSH2 0x14CA JUMPI DUP5 DUP10 ADD MLOAD PUSH2 0x14C6 PUSH1 0x1F DUP10 AND DUP3 PUSH2 0x13D9 JUMP JUMPDEST DUP4 SSTORE POP JUMPDEST PUSH1 0x1 PUSH1 0x2 DUP9 MUL ADD DUP9 SSTORE POP POP POP JUMPDEST POP POP POP POP POP POP JUMP JUMPDEST PUSH32 0x596F7520617265206E6F7420616E206F776E6572000000000000000000000000 PUSH0 DUP3 ADD MSTORE POP JUMP JUMPDEST PUSH0 PUSH2 0x1513 PUSH1 0x14 DUP4 PUSH2 0xFC1 JUMP JUMPDEST SWAP2 POP PUSH2 0x151E DUP3 PUSH2 0x14DF JUMP JUMPDEST PUSH1 0x20 DUP3 ADD SWAP1 POP SWAP2 SWAP1 POP JUMP JUMPDEST PUSH0 PUSH1 0x20 DUP3 ADD SWAP1 POP DUP2 DUP2 SUB PUSH0 DUP4 ADD MSTORE PUSH2 0x1540 DUP2 PUSH2 0x1507 JUMP JUMPDEST SWAP1 POP SWAP2 SWAP1 POP JUMP JUMPDEST PUSH32 0x547765657420686173206E6F206C696B65000000000000000000000000000000 PUSH0 DUP3 ADD MSTORE POP JUMP JUMPDEST PUSH0 PUSH2 0x157B PUSH1 0x11 DUP4 PUSH2 0xFC1 JUMP JUMPDEST SWAP2 POP PUSH2 0x1586 DUP3 PUSH2 0x1547 JUMP JUMPDEST PUSH1 0x20 DUP3 ADD SWAP1 POP SWAP2 SWAP1 POP JUMP JUMPDEST PUSH0 PUSH1 0x20 DUP3 ADD SWAP1 POP DUP2 DUP2 SUB PUSH0 DUP4 ADD MSTORE PUSH2 0x15A8 DUP2 PUSH2 0x156F JUMP JUMPDEST SWAP1 POP SWAP2 SWAP1 POP JUMP JUMPDEST PUSH0 PUSH2 0x15B9 DUP3 PUSH2 0xBC8 JUMP JUMPDEST SWAP2 POP PUSH0 DUP3 SUB PUSH2 0x15CB JUMPI PUSH2 0x15CA PUSH2 0x11FF JUMP JUMPDEST JUMPDEST PUSH1 0x1 DUP3 SUB SWAP1 POP SWAP2 SWAP1 POP JUMP INVALID LOG2 PUSH5 0x6970667358 0x22 SLT KECCAK256 EXTCODECOPY 0xD2 SWAP15 MULMOD 0xD GASPRICE GT PUSH16 0x60E3618C844513ACC014CFACB577CBEA NUMBER ADDMOD MSTORE SWAP10 0xEB 0x2B 0xD4 0xE9 PUSH5 0x736F6C6343 STOP ADDMOD BYTE STOP CALLER "
				},
				"gasEstimates": {
					"creation": {
						"codeDepositCost": "1128800",
						"executionCost": "47542",
						"totalCost": "1176342"
					},
					"external": {
						"MAX_TWEET_LENGTH()": "2469",
						"_owner()": "2574",
						"changeTweetLength(uint256)": "24683",
						"createTweet(string)": "infinite",
						"dislikeTweet(address,uint256)": "infinite",
						"getAllTweets(address)": "infinite",
						"getTweet(uint256)": "infinite",
						"likeTweet(address,uint256)": "infinite",
						"tweet(address,uint256)": "infinite"
					}
				},
				"methodIdentifiers": {
					"MAX_TWEET_LENGTH()": "6eb10797",
					"_owner()": "b2bdfa7b",
					"changeTweetLength(uint256)": "888a7880",
					"createTweet(string)": "7c9cd2bc",
					"dislikeTweet(address,uint256)": "ae775e95",
					"getAllTweets(address)": "12e7ee1c",
					"getTweet(uint256)": "c3ad5ecb",
					"likeTweet(address,uint256)": "63378216",
					"tweet(address,uint256)": "9531656f"
				}
			},
			"storageLayout": {
				"storage": [
					{
						"astId": 15,
						"contract": "contracts/Twitter4.sol:Twitter",
						"label": "MAX_TWEET_LENGTH",
						"offset": 0,
						"slot": "0",
						"type": "t_uint256"
					},
					{
						"astId": 17,
						"contract": "contracts/Twitter4.sol:Twitter",
						"label": "_owner",
						"offset": 0,
						"slot": "1",
						"type": "t_address"
					},
					{
						"astId": 23,
						"contract": "contracts/Twitter4.sol:Twitter",
						"label": "tweet",
						"offset": 0,
						"slot": "2",
						"type": "t_mapping(t_address,t_array(t_struct(Tweet)12_storage)dyn_storage)"
					}
				],
				"types": {
					"t_address": {
						"encoding": "inplace",
						"label": "address",
						"numberOfBytes": "20"
					},
					"t_array(t_struct(Tweet)12_storage)dyn_storage": {
						"base": "t_struct(Tweet)12_storage",
						"encoding": "dynamic_array",
						"label": "struct Twitter.Tweet[]",
						"numberOfBytes": "32"
					},
					"t_mapping(t_address,t_array(t_struct(Tweet)12_storage)dyn_storage)": {
						"encoding": "mapping",
						"key": "t_address",
						"label": "mapping(address => struct Twitter.Tweet[])",
						"numberOfBytes": "32",
						"value": "t_array(t_struct(Tweet)12_storage)dyn_storage"
					},
					"t_string_storage": {
						"encoding": "bytes",
						"label": "string",
						"numberOfBytes": "32"
					},
					"t_struct(Tweet)12_storage": {
						"encoding": "inplace",
						"label": "struct Twitter.Tweet",
						"members": [
							{
								"astId": 3,
								"contract": "contracts/Twitter4.sol:Twitter",
								"label": "id",
								"offset": 0,
								"slot": "0",
								"type": "t_uint256"
							},
							{
								"astId": 5,
								"contract": "contracts/Twitter4.sol:Twitter",
								"label": "owner",
								"offset": 0,
								"slot": "1",
								"type": "t_address"
							},
							{
								"astId": 7,
								"contract": "contracts/Twitter4.sol:Twitter",
								"label": "timestamp",
								"offset": 0,
								"slot": "2",
								"type": "t_uint256"
							},
							{
								"astId": 9,
								"contract": "contracts/Twitter4.sol:Twitter",
								"label": "content",
								"offset": 0,
								"slot": "3",
								"type": "t_string_storage"
							},
							{
								"astId": 11,
								"contract": "contracts/Twitter4.sol:Twitter",
								"label": "likes",
								"offset": 0,
								"slot": "4",
								"type": "t_uint256"
							}
						],
						"numberOfBytes": "160"
					},
					"t_uint256": {
						"encoding": "inplace",
						"label": "uint256",
						"numberOfBytes": "32"
					}
				}
			},
			"userdoc": {
				"kind": "user",
				"methods": {},
				"version": 1
			}
		}
	}
}