{
	"contracts/Twitter-Interaction-Main.sol": {
		"Twitter": {
			"abi": [
				{
					"inputs": [
						{
							"internalType": "address",
							"name": "_profileContractAddress",
							"type": "address"
						}
					],
					"stateMutability": "nonpayable",
					"type": "constructor"
				},
				{
					"inputs": [
						{
							"internalType": "address",
							"name": "owner",
							"type": "address"
						}
					],
					"name": "OwnableInvalidOwner",
					"type": "error"
				},
				{
					"inputs": [
						{
							"internalType": "address",
							"name": "account",
							"type": "address"
						}
					],
					"name": "OwnableUnauthorizedAccount",
					"type": "error"
				},
				{
					"anonymous": false,
					"inputs": [
						{
							"indexed": true,
							"internalType": "address",
							"name": "previousOwner",
							"type": "address"
						},
						{
							"indexed": true,
							"internalType": "address",
							"name": "newOwner",
							"type": "address"
						}
					],
					"name": "OwnershipTransferred",
					"type": "event"
				},
				{
					"anonymous": false,
					"inputs": [
						{
							"indexed": false,
							"internalType": "uint256",
							"name": "id",
							"type": "uint256"
						},
						{
							"indexed": false,
							"internalType": "address",
							"name": "author",
							"type": "address"
						},
						{
							"indexed": false,
							"internalType": "string",
							"name": "content",
							"type": "string"
						},
						{
							"indexed": false,
							"internalType": "uint256",
							"name": "timestamp",
							"type": "uint256"
						}
					],
					"name": "TweetCreated",
					"type": "event"
				},
				{
					"anonymous": false,
					"inputs": [
						{
							"indexed": false,
							"internalType": "address",
							"name": "disLiker",
							"type": "address"
						},
						{
							"indexed": false,
							"internalType": "address",
							"name": "tweetAuthor",
							"type": "address"
						},
						{
							"indexed": false,
							"internalType": "uint256",
							"name": "tweetId",
							"type": "uint256"
						},
						{
							"indexed": false,
							"internalType": "uint256",
							"name": "newDisikeCount",
							"type": "uint256"
						}
					],
					"name": "TweetDisliked",
					"type": "event"
				},
				{
					"anonymous": false,
					"inputs": [
						{
							"indexed": false,
							"internalType": "address",
							"name": "liker",
							"type": "address"
						},
						{
							"indexed": false,
							"internalType": "address",
							"name": "tweetAuthor",
							"type": "address"
						},
						{
							"indexed": false,
							"internalType": "uint256",
							"name": "tweetId",
							"type": "uint256"
						},
						{
							"indexed": false,
							"internalType": "uint256",
							"name": "newLikeCount",
							"type": "uint256"
						}
					],
					"name": "TweetLiked",
					"type": "event"
				},
				{
					"inputs": [],
					"name": "MAX_TWEET_LENGTH",
					"outputs": [
						{
							"internalType": "uint256",
							"name": "",
							"type": "uint256"
						}
					],
					"stateMutability": "view",
					"type": "function"
				},
				{
					"inputs": [
						{
							"internalType": "uint256",
							"name": "newTweetLength",
							"type": "uint256"
						}
					],
					"name": "changeTweetLength",
					"outputs": [],
					"stateMutability": "nonpayable",
					"type": "function"
				},
				{
					"inputs": [
						{
							"internalType": "string",
							"name": "_tweet",
							"type": "string"
						}
					],
					"name": "createTweet",
					"outputs": [],
					"stateMutability": "nonpayable",
					"type": "function"
				},
				{
					"inputs": [
						{
							"internalType": "address",
							"name": "author",
							"type": "address"
						},
						{
							"internalType": "uint256",
							"name": "id",
							"type": "uint256"
						}
					],
					"name": "dislikeTweet",
					"outputs": [],
					"stateMutability": "nonpayable",
					"type": "function"
				},
				{
					"inputs": [
						{
							"internalType": "address",
							"name": "_author",
							"type": "address"
						}
					],
					"name": "getAllLikes",
					"outputs": [
						{
							"internalType": "uint256",
							"name": "",
							"type": "uint256"
						}
					],
					"stateMutability": "view",
					"type": "function"
				},
				{
					"inputs": [],
					"name": "getAllTweets",
					"outputs": [
						{
							"components": [
								{
									"internalType": "uint256",
									"name": "id",
									"type": "uint256"
								},
								{
									"internalType": "address",
									"name": "author",
									"type": "address"
								},
								{
									"internalType": "string",
									"name": "content",
									"type": "string"
								},
								{
									"internalType": "uint256",
									"name": "timestamp",
									"type": "uint256"
								},
								{
									"internalType": "uint256",
									"name": "likes",
									"type": "uint256"
								}
							],
							"internalType": "struct Twitter.Tweet[]",
							"name": "",
							"type": "tuple[]"
						}
					],
					"stateMutability": "view",
					"type": "function"
				},
				{
					"inputs": [
						{
							"internalType": "uint256",
							"name": "_i",
							"type": "uint256"
						}
					],
					"name": "getTweet",
					"outputs": [
						{
							"components": [
								{
									"internalType": "uint256",
									"name": "id",
									"type": "uint256"
								},
								{
									"internalType": "address",
									"name": "author",
									"type": "address"
								},
								{
									"internalType": "string",
									"name": "content",
									"type": "string"
								},
								{
									"internalType": "uint256",
									"name": "timestamp",
									"type": "uint256"
								},
								{
									"internalType": "uint256",
									"name": "likes",
									"type": "uint256"
								}
							],
							"internalType": "struct Twitter.Tweet",
							"name": "",
							"type": "tuple"
						}
					],
					"stateMutability": "view",
					"type": "function"
				},
				{
					"inputs": [
						{
							"internalType": "address",
							"name": "author",
							"type": "address"
						},
						{
							"internalType": "uint256",
							"name": "id",
							"type": "uint256"
						}
					],
					"name": "likedTweet",
					"outputs": [],
					"stateMutability": "nonpayable",
					"type": "function"
				},
				{
					"inputs": [],
					"name": "owner",
					"outputs": [
						{
							"internalType": "address",
							"name": "",
							"type": "address"
						}
					],
					"stateMutability": "view",
					"type": "function"
				},
				{
					"inputs": [],
					"name": "profileContract",
					"outputs": [
						{
							"internalType": "contract IProfile",
							"name": "",
							"type": "address"
						}
					],
					"stateMutability": "view",
					"type": "function"
				},
				{
					"inputs": [],
					"name": "renounceOwnership",
					"outputs": [],
					"stateMutability": "nonpayable",
					"type": "function"
				},
				{
					"inputs": [
						{
							"internalType": "address",
							"name": "newOwner",
							"type": "address"
						}
					],
					"name": "transferOwnership",
					"outputs": [],
					"stateMutability": "nonpayable",
					"type": "function"
				},
				{
					"inputs": [
						{
							"internalType": "address",
							"name": "",
							"type": "address"
						},
						{
							"internalType": "uint256",
							"name": "",
							"type": "uint256"
						}
					],
					"name": "tweets",
					"outputs": [
						{
							"internalType": "uint256",
							"name": "id",
							"type": "uint256"
						},
						{
							"internalType": "address",
							"name": "author",
							"type": "address"
						},
						{
							"internalType": "string",
							"name": "content",
							"type": "string"
						},
						{
							"internalType": "uint256",
							"name": "timestamp",
							"type": "uint256"
						},
						{
							"internalType": "uint256",
							"name": "likes",
							"type": "uint256"
						}
					],
					"stateMutability": "view",
					"type": "function"
				}
			],
			"devdoc": {
				"errors": {
					"OwnableInvalidOwner(address)": [
						{
							"details": "The owner is not a valid owner account. (eg. `address(0)`)"
						}
					],
					"OwnableUnauthorizedAccount(address)": [
						{
							"details": "The caller account is not authorized to perform an operation."
						}
					]
				},
				"kind": "dev",
				"methods": {
					"owner()": {
						"details": "Returns the address of the current owner."
					},
					"renounceOwnership()": {
						"details": "Leaves the contract without owner. It will not be possible to call `onlyOwner` functions. Can only be called by the current owner. NOTE: Renouncing ownership will leave the contract without an owner, thereby disabling any functionality that is only available to the owner."
					},
					"transferOwnership(address)": {
						"details": "Transfers ownership of the contract to a new account (`newOwner`). Can only be called by the current owner."
					}
				},
				"version": 1
			},
			"evm": {
				"assembly": "    /* \"contracts/Twitter-Interaction-Main.sol\":504:3381  contract Twitter is Ownable{ // Twitter contract inherites with ownable contract... */\n  mstore(0x40, 0x80)\n    /* \"contracts/Twitter-Interaction-Main.sol\":621:622  2 */\n  0x02\n    /* \"contracts/Twitter-Interaction-Main.sol\":590:622  uint public MAX_TWEET_LENGTH = 2 */\n  0x01\n  sstore\n    /* \"contracts/Twitter-Interaction-Main.sol\":1378:1554  constructor(address _profileContractAddress) Ownable(msg.sender){... */\n  callvalue\n  dup1\n  iszero\n  tag_1\n  jumpi\n  0x00\n  dup1\n  revert\ntag_1:\n  pop\n  mload(0x40)\n  sub(codesize, bytecodeSize)\n  dup1\n  bytecodeSize\n  dup4\n  codecopy\n  dup2\n  dup2\n  add\n  0x40\n  mstore\n  dup2\n  add\n  swap1\n  tag_2\n  swap2\n  swap1\n  tag_3\n  jump\t// in\ntag_2:\n    /* \"contracts/Twitter-Interaction-Main.sol\":1431:1441  msg.sender */\n  caller\n    /* \"@openzeppelin/contracts/access/Ownable.sol\":1297:1298  0 */\n  0x00\n    /* \"@openzeppelin/contracts/access/Ownable.sol\":1273:1299  initialOwner == address(0) */\n  0xffffffffffffffffffffffffffffffffffffffff\n  and\n    /* \"@openzeppelin/contracts/access/Ownable.sol\":1273:1285  initialOwner */\n  dup2\n    /* \"@openzeppelin/contracts/access/Ownable.sol\":1273:1299  initialOwner == address(0) */\n  0xffffffffffffffffffffffffffffffffffffffff\n  and\n  sub\n    /* \"@openzeppelin/contracts/access/Ownable.sol\":1269:1364  if (initialOwner == address(0)) {... */\n  tag_7\n  jumpi\n    /* \"@openzeppelin/contracts/access/Ownable.sol\":1350:1351  0 */\n  0x00\n    /* \"@openzeppelin/contracts/access/Ownable.sol\":1322:1353  OwnableInvalidOwner(address(0)) */\n  mload(0x40)\n  0x1e4fbdf700000000000000000000000000000000000000000000000000000000\n  dup2\n  mstore\n  0x04\n  add\n  tag_8\n  swap2\n  swap1\n  tag_9\n  jump\t// in\ntag_8:\n  mload(0x40)\n  dup1\n  swap2\n  sub\n  swap1\n  revert\n    /* \"@openzeppelin/contracts/access/Ownable.sol\":1269:1364  if (initialOwner == address(0)) {... */\ntag_7:\n    /* \"@openzeppelin/contracts/access/Ownable.sol\":1373:1405  _transferOwnership(initialOwner) */\n  tag_10\n    /* \"@openzeppelin/contracts/access/Ownable.sol\":1392:1404  initialOwner */\n  dup2\n    /* \"@openzeppelin/contracts/access/Ownable.sol\":1373:1391  _transferOwnership */\n  shl(0x20, tag_11)\n    /* \"@openzeppelin/contracts/access/Ownable.sol\":1373:1405  _transferOwnership(initialOwner) */\n  0x20\n  shr\n  jump\t// in\ntag_10:\n    /* \"@openzeppelin/contracts/access/Ownable.sol\":1225:1412  constructor(address initialOwner) {... */\n  pop\n    /* \"contracts/Twitter-Interaction-Main.sol\":1480:1503  _profileContractAddress */\n  dup1\n    /* \"contracts/Twitter-Interaction-Main.sol\":1453:1468  profileContract */\n  0x02\n  0x00\n    /* \"contracts/Twitter-Interaction-Main.sol\":1453:1504  profileContract = IProfile(_profileContractAddress) */\n  0x0100\n  exp\n  dup2\n  sload\n  dup2\n  0xffffffffffffffffffffffffffffffffffffffff\n  mul\n  not\n  and\n  swap1\n  dup4\n  0xffffffffffffffffffffffffffffffffffffffff\n  and\n  mul\n  or\n  swap1\n  sstore\n  pop\n    /* \"contracts/Twitter-Interaction-Main.sol\":1378:1554  constructor(address _profileContractAddress) Ownable(msg.sender){... */\n  pop\n    /* \"contracts/Twitter-Interaction-Main.sol\":504:3381  contract Twitter is Ownable{ // Twitter contract inherites with ownable contract... */\n  jump(tag_13)\n    /* \"@openzeppelin/contracts/access/Ownable.sol\":2912:3099  function _transferOwnership(address newOwner) internal virtual {... */\ntag_11:\n    /* \"@openzeppelin/contracts/access/Ownable.sol\":2985:3001  address oldOwner */\n  0x00\n    /* \"@openzeppelin/contracts/access/Ownable.sol\":3004:3010  _owner */\n  dup1\n  0x00\n  swap1\n  sload\n  swap1\n  0x0100\n  exp\n  swap1\n  div\n  0xffffffffffffffffffffffffffffffffffffffff\n  and\n    /* \"@openzeppelin/contracts/access/Ownable.sol\":2985:3010  address oldOwner = _owner */\n  swap1\n  pop\n    /* \"@openzeppelin/contracts/access/Ownable.sol\":3029:3037  newOwner */\n  dup2\n    /* \"@openzeppelin/contracts/access/Ownable.sol\":3020:3026  _owner */\n  0x00\n  dup1\n    /* \"@openzeppelin/contracts/access/Ownable.sol\":3020:3037  _owner = newOwner */\n  0x0100\n  exp\n  dup2\n  sload\n  dup2\n  0xffffffffffffffffffffffffffffffffffffffff\n  mul\n  not\n  and\n  swap1\n  dup4\n  0xffffffffffffffffffffffffffffffffffffffff\n  and\n  mul\n  or\n  swap1\n  sstore\n  pop\n    /* \"@openzeppelin/contracts/access/Ownable.sol\":3083:3091  newOwner */\n  dup2\n    /* \"@openzeppelin/contracts/access/Ownable.sol\":3052:3092  OwnershipTransferred(oldOwner, newOwner) */\n  0xffffffffffffffffffffffffffffffffffffffff\n  and\n    /* \"@openzeppelin/contracts/access/Ownable.sol\":3073:3081  oldOwner */\n  dup2\n    /* \"@openzeppelin/contracts/access/Ownable.sol\":3052:3092  OwnershipTransferred(oldOwner, newOwner) */\n  0xffffffffffffffffffffffffffffffffffffffff\n  and\n  0x8be0079c531659141344cd1fd0a4f28419497f9722a3daafe3b4186f6b6457e0\n  mload(0x40)\n  mload(0x40)\n  dup1\n  swap2\n  sub\n  swap1\n  log3\n    /* \"@openzeppelin/contracts/access/Ownable.sol\":2975:3099  {... */\n  pop\n    /* \"@openzeppelin/contracts/access/Ownable.sol\":2912:3099  function _transferOwnership(address newOwner) internal virtual {... */\n  pop\n  jump\t// out\n    /* \"#utility.yul\":88:205   */\ntag_16:\n    /* \"#utility.yul\":197:198   */\n  0x00\n    /* \"#utility.yul\":194:195   */\n  dup1\n    /* \"#utility.yul\":187:199   */\n  revert\n    /* \"#utility.yul\":334:460   */\ntag_18:\n    /* \"#utility.yul\":371:378   */\n  0x00\n    /* \"#utility.yul\":411:453   */\n  0xffffffffffffffffffffffffffffffffffffffff\n    /* \"#utility.yul\":404:409   */\n  dup3\n    /* \"#utility.yul\":400:454   */\n  and\n    /* \"#utility.yul\":389:454   */\n  swap1\n  pop\n    /* \"#utility.yul\":334:460   */\n  swap2\n  swap1\n  pop\n  jump\t// out\n    /* \"#utility.yul\":466:562   */\ntag_19:\n    /* \"#utility.yul\":503:510   */\n  0x00\n    /* \"#utility.yul\":532:556   */\n  tag_29\n    /* \"#utility.yul\":550:555   */\n  dup3\n    /* \"#utility.yul\":532:556   */\n  tag_18\n  jump\t// in\ntag_29:\n    /* \"#utility.yul\":521:556   */\n  swap1\n  pop\n    /* \"#utility.yul\":466:562   */\n  swap2\n  swap1\n  pop\n  jump\t// out\n    /* \"#utility.yul\":568:690   */\ntag_20:\n    /* \"#utility.yul\":641:665   */\n  tag_31\n    /* \"#utility.yul\":659:664   */\n  dup2\n    /* \"#utility.yul\":641:665   */\n  tag_19\n  jump\t// in\ntag_31:\n    /* \"#utility.yul\":634:639   */\n  dup2\n    /* \"#utility.yul\":631:666   */\n  eq\n    /* \"#utility.yul\":621:684   */\n  tag_32\n  jumpi\n    /* \"#utility.yul\":680:681   */\n  0x00\n    /* \"#utility.yul\":677:678   */\n  dup1\n    /* \"#utility.yul\":670:682   */\n  revert\n    /* \"#utility.yul\":621:684   */\ntag_32:\n    /* \"#utility.yul\":568:690   */\n  pop\n  jump\t// out\n    /* \"#utility.yul\":696:839   */\ntag_21:\n    /* \"#utility.yul\":753:758   */\n  0x00\n    /* \"#utility.yul\":784:790   */\n  dup2\n    /* \"#utility.yul\":778:791   */\n  mload\n    /* \"#utility.yul\":769:791   */\n  swap1\n  pop\n    /* \"#utility.yul\":800:833   */\n  tag_34\n    /* \"#utility.yul\":827:832   */\n  dup2\n    /* \"#utility.yul\":800:833   */\n  tag_20\n  jump\t// in\ntag_34:\n    /* \"#utility.yul\":696:839   */\n  swap3\n  swap2\n  pop\n  pop\n  jump\t// out\n    /* \"#utility.yul\":845:1196   */\ntag_3:\n    /* \"#utility.yul\":915:921   */\n  0x00\n    /* \"#utility.yul\":964:966   */\n  0x20\n    /* \"#utility.yul\":952:961   */\n  dup3\n    /* \"#utility.yul\":943:950   */\n  dup5\n    /* \"#utility.yul\":939:962   */\n  sub\n    /* \"#utility.yul\":935:967   */\n  slt\n    /* \"#utility.yul\":932:1051   */\n  iszero\n  tag_36\n  jumpi\n    /* \"#utility.yul\":970:1049   */\n  tag_37\n  tag_16\n  jump\t// in\ntag_37:\n    /* \"#utility.yul\":932:1051   */\ntag_36:\n    /* \"#utility.yul\":1090:1091   */\n  0x00\n    /* \"#utility.yul\":1115:1179   */\n  tag_38\n    /* \"#utility.yul\":1171:1178   */\n  dup5\n    /* \"#utility.yul\":1162:1168   */\n  dup3\n    /* \"#utility.yul\":1151:1160   */\n  dup6\n    /* \"#utility.yul\":1147:1169   */\n  add\n    /* \"#utility.yul\":1115:1179   */\n  tag_21\n  jump\t// in\ntag_38:\n    /* \"#utility.yul\":1105:1179   */\n  swap2\n  pop\n    /* \"#utility.yul\":1061:1189   */\n  pop\n    /* \"#utility.yul\":845:1196   */\n  swap3\n  swap2\n  pop\n  pop\n  jump\t// out\n    /* \"#utility.yul\":1202:1320   */\ntag_22:\n    /* \"#utility.yul\":1289:1313   */\n  tag_40\n    /* \"#utility.yul\":1307:1312   */\n  dup2\n    /* \"#utility.yul\":1289:1313   */\n  tag_19\n  jump\t// in\ntag_40:\n    /* \"#utility.yul\":1284:1287   */\n  dup3\n    /* \"#utility.yul\":1277:1314   */\n  mstore\n    /* \"#utility.yul\":1202:1320   */\n  pop\n  pop\n  jump\t// out\n    /* \"#utility.yul\":1326:1548   */\ntag_9:\n    /* \"#utility.yul\":1419:1423   */\n  0x00\n    /* \"#utility.yul\":1457:1459   */\n  0x20\n    /* \"#utility.yul\":1446:1455   */\n  dup3\n    /* \"#utility.yul\":1442:1460   */\n  add\n    /* \"#utility.yul\":1434:1460   */\n  swap1\n  pop\n    /* \"#utility.yul\":1470:1541   */\n  tag_42\n    /* \"#utility.yul\":1538:1539   */\n  0x00\n    /* \"#utility.yul\":1527:1536   */\n  dup4\n    /* \"#utility.yul\":1523:1540   */\n  add\n    /* \"#utility.yul\":1514:1520   */\n  dup5\n    /* \"#utility.yul\":1470:1541   */\n  tag_22\n  jump\t// in\ntag_42:\n    /* \"#utility.yul\":1326:1548   */\n  swap3\n  swap2\n  pop\n  pop\n  jump\t// out\n    /* \"contracts/Twitter-Interaction-Main.sol\":504:3381  contract Twitter is Ownable{ // Twitter contract inherites with ownable contract... */\ntag_13:\n  dataSize(sub_0)\n  dup1\n  dataOffset(sub_0)\n  0x00\n  codecopy\n  0x00\n  return\nstop\n\nsub_0: assembly {\n        /* \"contracts/Twitter-Interaction-Main.sol\":504:3381  contract Twitter is Ownable{ // Twitter contract inherites with ownable contract... */\n      mstore(0x40, 0x80)\n      callvalue\n      dup1\n      iszero\n      tag_1\n      jumpi\n      0x00\n      dup1\n      revert\n    tag_1:\n      pop\n      jumpi(tag_2, lt(calldatasize, 0x04))\n      shr(0xe0, calldataload(0x00))\n      dup1\n      0x8da5cb5b\n      gt\n      tag_16\n      jumpi\n      dup1\n      0xae775e95\n      gt\n      tag_17\n      jumpi\n      dup1\n      0xae775e95\n      eq\n      tag_12\n      jumpi\n      dup1\n      0xc3ad5ecb\n      eq\n      tag_13\n      jumpi\n      dup1\n      0xe1549d85\n      eq\n      tag_14\n      jumpi\n      dup1\n      0xf2fde38b\n      eq\n      tag_15\n      jumpi\n      jump(tag_2)\n    tag_17:\n      dup1\n      0x8da5cb5b\n      eq\n      tag_9\n      jumpi\n      dup1\n      0xa0d96b6f\n      eq\n      tag_10\n      jumpi\n      dup1\n      0xa3974b21\n      eq\n      tag_11\n      jumpi\n      jump(tag_2)\n    tag_16:\n      dup1\n      0x05a1b4a9\n      eq\n      tag_3\n      jumpi\n      dup1\n      0x53256135\n      eq\n      tag_4\n      jumpi\n      dup1\n      0x6eb10797\n      eq\n      tag_5\n      jumpi\n      dup1\n      0x715018a6\n      eq\n      tag_6\n      jumpi\n      dup1\n      0x7c9cd2bc\n      eq\n      tag_7\n      jumpi\n      dup1\n      0x888a7880\n      eq\n      tag_8\n      jumpi\n    tag_2:\n      0x00\n      dup1\n      revert\n        /* \"contracts/Twitter-Interaction-Main.sol\":1602:1641  mapping(address=>Tweet[]) public tweets */\n    tag_3:\n      tag_18\n      0x04\n      dup1\n      calldatasize\n      sub\n      dup2\n      add\n      swap1\n      tag_19\n      swap2\n      swap1\n      tag_20\n      jump\t// in\n    tag_19:\n      tag_21\n      jump\t// in\n    tag_18:\n      mload(0x40)\n      tag_22\n      swap6\n      swap5\n      swap4\n      swap3\n      swap2\n      swap1\n      tag_23\n      jump\t// in\n    tag_22:\n      mload(0x40)\n      dup1\n      swap2\n      sub\n      swap1\n      return\n        /* \"contracts/Twitter-Interaction-Main.sol\":2164:2268  function getAllTweets() public view returns (Tweet[] memory){... */\n    tag_4:\n      tag_24\n      tag_25\n      jump\t// in\n    tag_24:\n      mload(0x40)\n      tag_26\n      swap2\n      swap1\n      tag_27\n      jump\t// in\n    tag_26:\n      mload(0x40)\n      dup1\n      swap2\n      sub\n      swap1\n      return\n        /* \"contracts/Twitter-Interaction-Main.sol\":590:622  uint public MAX_TWEET_LENGTH = 2 */\n    tag_5:\n      tag_28\n      tag_29\n      jump\t// in\n    tag_28:\n      mload(0x40)\n      tag_30\n      swap2\n      swap1\n      tag_31\n      jump\t// in\n    tag_30:\n      mload(0x40)\n      dup1\n      swap2\n      sub\n      swap1\n      return\n        /* \"@openzeppelin/contracts/access/Ownable.sol\":2293:2394  function renounceOwnership() public virtual onlyOwner {... */\n    tag_6:\n      tag_32\n      tag_33\n      jump\t// in\n    tag_32:\n      stop\n        /* \"contracts/Twitter-Interaction-Main.sol\":1650:2158  function createTweet(string memory _tweet) public onlyRegistered{... */\n    tag_7:\n      tag_34\n      0x04\n      dup1\n      calldatasize\n      sub\n      dup2\n      add\n      swap1\n      tag_35\n      swap2\n      swap1\n      tag_36\n      jump\t// in\n    tag_35:\n      tag_37\n      jump\t// in\n    tag_34:\n      stop\n        /* \"contracts/Twitter-Interaction-Main.sol\":2963:3079  function changeTweetLength(uint newTweetLength) public onlyOwner{... */\n    tag_8:\n      tag_38\n      0x04\n      dup1\n      calldatasize\n      sub\n      dup2\n      add\n      swap1\n      tag_39\n      swap2\n      swap1\n      tag_40\n      jump\t// in\n    tag_39:\n      tag_41\n      jump\t// in\n    tag_38:\n      stop\n        /* \"@openzeppelin/contracts/access/Ownable.sol\":1638:1723  function owner() public view virtual returns (address) {... */\n    tag_9:\n      tag_42\n      tag_43\n      jump\t// in\n    tag_42:\n      mload(0x40)\n      tag_44\n      swap2\n      swap1\n      tag_45\n      jump\t// in\n    tag_44:\n      mload(0x40)\n      dup1\n      swap2\n      sub\n      swap1\n      return\n        /* \"contracts/Twitter-Interaction-Main.sol\":2393:2636  function likedTweet(address author, uint256 id) external {... */\n    tag_10:\n      tag_46\n      0x04\n      dup1\n      calldatasize\n      sub\n      dup2\n      add\n      swap1\n      tag_47\n      swap2\n      swap1\n      tag_20\n      jump\t// in\n    tag_47:\n      tag_48\n      jump\t// in\n    tag_46:\n      stop\n        /* \"contracts/Twitter-Interaction-Main.sol\":629:660  IProfile public profileContract */\n    tag_11:\n      tag_49\n      tag_50\n      jump\t// in\n    tag_49:\n      mload(0x40)\n      tag_51\n      swap2\n      swap1\n      tag_52\n      jump\t// in\n    tag_51:\n      mload(0x40)\n      dup1\n      swap2\n      sub\n      swap1\n      return\n        /* \"contracts/Twitter-Interaction-Main.sol\":2642:2957  function dislikeTweet(address author, uint256 id) external {... */\n    tag_12:\n      tag_53\n      0x04\n      dup1\n      calldatasize\n      sub\n      dup2\n      add\n      swap1\n      tag_54\n      swap2\n      swap1\n      tag_20\n      jump\t// in\n    tag_54:\n      tag_55\n      jump\t// in\n    tag_53:\n      stop\n        /* \"contracts/Twitter-Interaction-Main.sol\":2274:2387  function getTweet(uint256 _i) public view returns (Tweet memory) {... */\n    tag_13:\n      tag_56\n      0x04\n      dup1\n      calldatasize\n      sub\n      dup2\n      add\n      swap1\n      tag_57\n      swap2\n      swap1\n      tag_40\n      jump\t// in\n    tag_57:\n      tag_58\n      jump\t// in\n    tag_56:\n      mload(0x40)\n      tag_59\n      swap2\n      swap1\n      tag_60\n      jump\t// in\n    tag_59:\n      mload(0x40)\n      dup1\n      swap2\n      sub\n      swap1\n      return\n        /* \"contracts/Twitter-Interaction-Main.sol\":3085:3378  function getAllLikes(address _author) public view returns (uint){... */\n    tag_14:\n      tag_61\n      0x04\n      dup1\n      calldatasize\n      sub\n      dup2\n      add\n      swap1\n      tag_62\n      swap2\n      swap1\n      tag_63\n      jump\t// in\n    tag_62:\n      tag_64\n      jump\t// in\n    tag_61:\n      mload(0x40)\n      tag_65\n      swap2\n      swap1\n      tag_31\n      jump\t// in\n    tag_65:\n      mload(0x40)\n      dup1\n      swap2\n      sub\n      swap1\n      return\n        /* \"@openzeppelin/contracts/access/Ownable.sol\":2543:2758  function transferOwnership(address newOwner) public virtual onlyOwner {... */\n    tag_15:\n      tag_66\n      0x04\n      dup1\n      calldatasize\n      sub\n      dup2\n      add\n      swap1\n      tag_67\n      swap2\n      swap1\n      tag_63\n      jump\t// in\n    tag_67:\n      tag_68\n      jump\t// in\n    tag_66:\n      stop\n        /* \"contracts/Twitter-Interaction-Main.sol\":1602:1641  mapping(address=>Tweet[]) public tweets */\n    tag_21:\n      mstore(0x20, 0x03)\n      dup2\n      0x00\n      mstore\n      keccak256(0x00, 0x40)\n      dup2\n      dup2\n      sload\n      dup2\n      lt\n      tag_69\n      jumpi\n      0x00\n      dup1\n      revert\n    tag_69:\n      swap1\n      0x00\n      mstore\n      keccak256(0x00, 0x20)\n      swap1\n      0x05\n      mul\n      add\n      0x00\n      swap2\n      pop\n      swap2\n      pop\n      pop\n      dup1\n      0x00\n      add\n      sload\n      swap1\n      dup1\n      0x01\n      add\n      0x00\n      swap1\n      sload\n      swap1\n      0x0100\n      exp\n      swap1\n      div\n      0xffffffffffffffffffffffffffffffffffffffff\n      and\n      swap1\n      dup1\n      0x02\n      add\n      dup1\n      sload\n      tag_71\n      swap1\n      tag_72\n      jump\t// in\n    tag_71:\n      dup1\n      0x1f\n      add\n      0x20\n      dup1\n      swap2\n      div\n      mul\n      0x20\n      add\n      mload(0x40)\n      swap1\n      dup2\n      add\n      0x40\n      mstore\n      dup1\n      swap3\n      swap2\n      swap1\n      dup2\n      dup2\n      mstore\n      0x20\n      add\n      dup3\n      dup1\n      sload\n      tag_73\n      swap1\n      tag_72\n      jump\t// in\n    tag_73:\n      dup1\n      iszero\n      tag_74\n      jumpi\n      dup1\n      0x1f\n      lt\n      tag_75\n      jumpi\n      0x0100\n      dup1\n      dup4\n      sload\n      div\n      mul\n      dup4\n      mstore\n      swap2\n      0x20\n      add\n      swap2\n      jump(tag_74)\n    tag_75:\n      dup3\n      add\n      swap2\n      swap1\n      0x00\n      mstore\n      keccak256(0x00, 0x20)\n      swap1\n    tag_76:\n      dup2\n      sload\n      dup2\n      mstore\n      swap1\n      0x01\n      add\n      swap1\n      0x20\n      add\n      dup1\n      dup4\n      gt\n      tag_76\n      jumpi\n      dup3\n      swap1\n      sub\n      0x1f\n      and\n      dup3\n      add\n      swap2\n    tag_74:\n      pop\n      pop\n      pop\n      pop\n      pop\n      swap1\n      dup1\n      0x03\n      add\n      sload\n      swap1\n      dup1\n      0x04\n      add\n      sload\n      swap1\n      pop\n      dup6\n      jump\t// out\n        /* \"contracts/Twitter-Interaction-Main.sol\":2164:2268  function getAllTweets() public view returns (Tweet[] memory){... */\n    tag_25:\n        /* \"contracts/Twitter-Interaction-Main.sol\":2209:2223  Tweet[] memory */\n      0x60\n        /* \"contracts/Twitter-Interaction-Main.sol\":2242:2248  tweets */\n      0x03\n        /* \"contracts/Twitter-Interaction-Main.sol\":2242:2260  tweets[msg.sender] */\n      0x00\n        /* \"contracts/Twitter-Interaction-Main.sol\":2249:2259  msg.sender */\n      caller\n        /* \"contracts/Twitter-Interaction-Main.sol\":2242:2260  tweets[msg.sender] */\n      0xffffffffffffffffffffffffffffffffffffffff\n      and\n      0xffffffffffffffffffffffffffffffffffffffff\n      and\n      dup2\n      mstore\n      0x20\n      add\n      swap1\n      dup2\n      mstore\n      0x20\n      add\n      0x00\n      keccak256\n        /* \"contracts/Twitter-Interaction-Main.sol\":2235:2260  return tweets[msg.sender] */\n      dup1\n      sload\n      dup1\n      0x20\n      mul\n      0x20\n      add\n      mload(0x40)\n      swap1\n      dup2\n      add\n      0x40\n      mstore\n      dup1\n      swap3\n      swap2\n      swap1\n      dup2\n      dup2\n      mstore\n      0x20\n      add\n      0x00\n      swap1\n    tag_78:\n      dup3\n      dup3\n      lt\n      iszero\n      tag_79\n      jumpi\n      dup4\n      dup3\n      swap1\n      0x00\n      mstore\n      keccak256(0x00, 0x20)\n      swap1\n      0x05\n      mul\n      add\n      mload(0x40)\n      dup1\n      0xa0\n      add\n      0x40\n      mstore\n      swap1\n      dup2\n      0x00\n      dup3\n      add\n      sload\n      dup2\n      mstore\n      0x20\n      add\n      0x01\n      dup3\n      add\n      0x00\n      swap1\n      sload\n      swap1\n      0x0100\n      exp\n      swap1\n      div\n      0xffffffffffffffffffffffffffffffffffffffff\n      and\n      0xffffffffffffffffffffffffffffffffffffffff\n      and\n      0xffffffffffffffffffffffffffffffffffffffff\n      and\n      dup2\n      mstore\n      0x20\n      add\n      0x02\n      dup3\n      add\n      dup1\n      sload\n      tag_81\n      swap1\n      tag_72\n      jump\t// in\n    tag_81:\n      dup1\n      0x1f\n      add\n      0x20\n      dup1\n      swap2\n      div\n      mul\n      0x20\n      add\n      mload(0x40)\n      swap1\n      dup2\n      add\n      0x40\n      mstore\n      dup1\n      swap3\n      swap2\n      swap1\n      dup2\n      dup2\n      mstore\n      0x20\n      add\n      dup3\n      dup1\n      sload\n      tag_82\n      swap1\n      tag_72\n      jump\t// in\n    tag_82:\n      dup1\n      iszero\n      tag_83\n      jumpi\n      dup1\n      0x1f\n      lt\n      tag_84\n      jumpi\n      0x0100\n      dup1\n      dup4\n      sload\n      div\n      mul\n      dup4\n      mstore\n      swap2\n      0x20\n      add\n      swap2\n      jump(tag_83)\n    tag_84:\n      dup3\n      add\n      swap2\n      swap1\n      0x00\n      mstore\n      keccak256(0x00, 0x20)\n      swap1\n    tag_85:\n      dup2\n      sload\n      dup2\n      mstore\n      swap1\n      0x01\n      add\n      swap1\n      0x20\n      add\n      dup1\n      dup4\n      gt\n      tag_85\n      jumpi\n      dup3\n      swap1\n      sub\n      0x1f\n      and\n      dup3\n      add\n      swap2\n    tag_83:\n      pop\n      pop\n      pop\n      pop\n      pop\n      dup2\n      mstore\n      0x20\n      add\n      0x03\n      dup3\n      add\n      sload\n      dup2\n      mstore\n      0x20\n      add\n      0x04\n      dup3\n      add\n      sload\n      dup2\n      mstore\n      pop\n      pop\n      dup2\n      mstore\n      0x20\n      add\n      swap1\n      0x01\n      add\n      swap1\n      jump(tag_78)\n    tag_79:\n      pop\n      pop\n      pop\n      pop\n      swap1\n      pop\n        /* \"contracts/Twitter-Interaction-Main.sol\":2164:2268  function getAllTweets() public view returns (Tweet[] memory){... */\n      swap1\n      jump\t// out\n        /* \"contracts/Twitter-Interaction-Main.sol\":590:622  uint public MAX_TWEET_LENGTH = 2 */\n    tag_29:\n      sload(0x01)\n      dup2\n      jump\t// out\n        /* \"@openzeppelin/contracts/access/Ownable.sol\":2293:2394  function renounceOwnership() public virtual onlyOwner {... */\n    tag_33:\n        /* \"@openzeppelin/contracts/access/Ownable.sol\":1531:1544  _checkOwner() */\n      tag_87\n        /* \"@openzeppelin/contracts/access/Ownable.sol\":1531:1542  _checkOwner */\n      tag_88\n        /* \"@openzeppelin/contracts/access/Ownable.sol\":1531:1544  _checkOwner() */\n      jump\t// in\n    tag_87:\n        /* \"@openzeppelin/contracts/access/Ownable.sol\":2357:2387  _transferOwnership(address(0)) */\n      tag_90\n        /* \"@openzeppelin/contracts/access/Ownable.sol\":2384:2385  0 */\n      0x00\n        /* \"@openzeppelin/contracts/access/Ownable.sol\":2357:2375  _transferOwnership */\n      tag_91\n        /* \"@openzeppelin/contracts/access/Ownable.sol\":2357:2387  _transferOwnership(address(0)) */\n      jump\t// in\n    tag_90:\n        /* \"@openzeppelin/contracts/access/Ownable.sol\":2293:2394  function renounceOwnership() public virtual onlyOwner {... */\n      jump\t// out\n        /* \"contracts/Twitter-Interaction-Main.sol\":1650:2158  function createTweet(string memory _tweet) public onlyRegistered{... */\n    tag_37:\n        /* \"contracts/Twitter-Interaction-Main.sol\":891:934  IProfile.UserProfile memory userProfileTemp */\n      0x00\n        /* \"contracts/Twitter-Interaction-Main.sol\":937:952  profileContract */\n      0x02\n      0x00\n      swap1\n      sload\n      swap1\n      0x0100\n      exp\n      swap1\n      div\n      0xffffffffffffffffffffffffffffffffffffffff\n      and\n        /* \"contracts/Twitter-Interaction-Main.sol\":937:963  profileContract.getProfile */\n      0xffffffffffffffffffffffffffffffffffffffff\n      and\n      0x0f53a470\n        /* \"contracts/Twitter-Interaction-Main.sol\":964:974  msg.sender */\n      caller\n        /* \"contracts/Twitter-Interaction-Main.sol\":937:975  profileContract.getProfile(msg.sender) */\n      mload(0x40)\n      dup3\n      0xffffffff\n      and\n      0xe0\n      shl\n      dup2\n      mstore\n      0x04\n      add\n      tag_93\n      swap2\n      swap1\n      tag_45\n      jump\t// in\n    tag_93:\n      0x00\n      mload(0x40)\n      dup1\n      dup4\n      sub\n      dup2\n      dup7\n      gas\n      staticcall\n      iszero\n      dup1\n      iszero\n      tag_95\n      jumpi\n      returndatasize\n      0x00\n      dup1\n      returndatacopy\n      revert(0x00, returndatasize)\n    tag_95:\n      pop\n      pop\n      pop\n      pop\n      mload(0x40)\n      returndatasize\n      0x00\n      dup3\n      returndatacopy\n      returndatasize\n      not(0x1f)\n      0x1f\n      dup3\n      add\n      and\n      dup3\n      add\n      dup1\n      0x40\n      mstore\n      pop\n      dup2\n      add\n      swap1\n      tag_96\n      swap2\n      swap1\n      tag_97\n      jump\t// in\n    tag_96:\n        /* \"contracts/Twitter-Interaction-Main.sol\":891:975  IProfile.UserProfile memory userProfileTemp = profileContract.getProfile(msg.sender) */\n      swap1\n      pop\n        /* \"contracts/Twitter-Interaction-Main.sol\":1036:1037  0 */\n      0x00\n        /* \"contracts/Twitter-Interaction-Main.sol\":1000:1015  userProfileTemp */\n      dup2\n        /* \"contracts/Twitter-Interaction-Main.sol\":1000:1027  userProfileTemp.displayName */\n      0x00\n      add\n      mload\n        /* \"contracts/Twitter-Interaction-Main.sol\":994:1035  bytes(userProfileTemp.displayName).length */\n      mload\n        /* \"contracts/Twitter-Interaction-Main.sol\":994:1037  bytes(userProfileTemp.displayName).length>0 */\n      gt\n        /* \"contracts/Twitter-Interaction-Main.sol\":986:1060  require(bytes(userProfileTemp.displayName).length>0,\"User not registered\") */\n      tag_98\n      jumpi\n      mload(0x40)\n      0x08c379a000000000000000000000000000000000000000000000000000000000\n      dup2\n      mstore\n      0x04\n      add\n      tag_99\n      swap1\n      tag_100\n      jump\t// in\n    tag_99:\n      mload(0x40)\n      dup1\n      swap2\n      sub\n      swap1\n      revert\n    tag_98:\n        /* \"contracts/Twitter-Interaction-Main.sol\":1756:1772  MAX_TWEET_LENGTH */\n      sload(0x01)\n        /* \"contracts/Twitter-Interaction-Main.sol\":1739:1745  _tweet */\n      dup3\n        /* \"contracts/Twitter-Interaction-Main.sol\":1733:1753  bytes(_tweet).length */\n      mload\n        /* \"contracts/Twitter-Interaction-Main.sol\":1733:1772  bytes(_tweet).length < MAX_TWEET_LENGTH */\n      lt\n        /* \"contracts/Twitter-Interaction-Main.sol\":1725:1794  require(bytes(_tweet).length < MAX_TWEET_LENGTH,\"Tweet is too long!\") */\n      tag_102\n      jumpi\n      mload(0x40)\n      0x08c379a000000000000000000000000000000000000000000000000000000000\n      dup2\n      mstore\n      0x04\n      add\n      tag_103\n      swap1\n      tag_104\n      jump\t// in\n    tag_103:\n      mload(0x40)\n      dup1\n      swap2\n      sub\n      swap1\n      revert\n    tag_102:\n        /* \"contracts/Twitter-Interaction-Main.sol\":1805:1826  Tweet memory newTweet */\n      0x00\n        /* \"contracts/Twitter-Interaction-Main.sol\":1829:2013  Tweet({... */\n      mload(0x40)\n      dup1\n      0xa0\n      add\n      0x40\n      mstore\n      dup1\n        /* \"contracts/Twitter-Interaction-Main.sol\":1853:1859  tweets */\n      0x03\n        /* \"contracts/Twitter-Interaction-Main.sol\":1853:1871  tweets[msg.sender] */\n      0x00\n        /* \"contracts/Twitter-Interaction-Main.sol\":1860:1870  msg.sender */\n      caller\n        /* \"contracts/Twitter-Interaction-Main.sol\":1853:1871  tweets[msg.sender] */\n      0xffffffffffffffffffffffffffffffffffffffff\n      and\n      0xffffffffffffffffffffffffffffffffffffffff\n      and\n      dup2\n      mstore\n      0x20\n      add\n      swap1\n      dup2\n      mstore\n      0x20\n      add\n      0x00\n      keccak256\n        /* \"contracts/Twitter-Interaction-Main.sol\":1853:1878  tweets[msg.sender].length */\n      dup1\n      sload\n      swap1\n      pop\n        /* \"contracts/Twitter-Interaction-Main.sol\":1829:2013  Tweet({... */\n      dup2\n      mstore\n      0x20\n      add\n        /* \"contracts/Twitter-Interaction-Main.sol\":1900:1910  msg.sender */\n      caller\n        /* \"contracts/Twitter-Interaction-Main.sol\":1829:2013  Tweet({... */\n      0xffffffffffffffffffffffffffffffffffffffff\n      and\n      dup2\n      mstore\n      0x20\n      add\n        /* \"contracts/Twitter-Interaction-Main.sol\":1933:1939  _tweet */\n      dup5\n        /* \"contracts/Twitter-Interaction-Main.sol\":1829:2013  Tweet({... */\n      dup2\n      mstore\n      0x20\n      add\n        /* \"contracts/Twitter-Interaction-Main.sol\":1964:1979  block.timestamp */\n      timestamp\n        /* \"contracts/Twitter-Interaction-Main.sol\":1829:2013  Tweet({... */\n      dup2\n      mstore\n      0x20\n      add\n        /* \"contracts/Twitter-Interaction-Main.sol\":2000:2001  0 */\n      0x00\n        /* \"contracts/Twitter-Interaction-Main.sol\":1829:2013  Tweet({... */\n      dup2\n      mstore\n      pop\n        /* \"contracts/Twitter-Interaction-Main.sol\":1805:2013  Tweet memory newTweet = Tweet({... */\n      swap1\n      pop\n        /* \"contracts/Twitter-Interaction-Main.sol\":2024:2030  tweets */\n      0x03\n        /* \"contracts/Twitter-Interaction-Main.sol\":2024:2042  tweets[msg.sender] */\n      0x00\n        /* \"contracts/Twitter-Interaction-Main.sol\":2031:2041  msg.sender */\n      caller\n        /* \"contracts/Twitter-Interaction-Main.sol\":2024:2042  tweets[msg.sender] */\n      0xffffffffffffffffffffffffffffffffffffffff\n      and\n      0xffffffffffffffffffffffffffffffffffffffff\n      and\n      dup2\n      mstore\n      0x20\n      add\n      swap1\n      dup2\n      mstore\n      0x20\n      add\n      0x00\n      keccak256\n        /* \"contracts/Twitter-Interaction-Main.sol\":2048:2056  newTweet */\n      dup2\n        /* \"contracts/Twitter-Interaction-Main.sol\":2024:2057  tweets[msg.sender].push(newTweet) */\n      swap1\n      dup1\n      0x01\n      dup2\n      sload\n      add\n      dup1\n      dup3\n      sstore\n      dup1\n      swap2\n      pop\n      pop\n      0x01\n      swap1\n      sub\n      swap1\n      0x00\n      mstore\n      keccak256(0x00, 0x20)\n      swap1\n      0x05\n      mul\n      add\n      0x00\n      swap1\n      swap2\n      swap1\n      swap2\n      swap1\n      swap2\n      pop\n      0x00\n      dup3\n      add\n      mload\n      dup2\n      0x00\n      add\n      sstore\n      0x20\n      dup3\n      add\n      mload\n      dup2\n      0x01\n      add\n      exp(0x0100, 0x00)\n      dup2\n      sload\n      dup2\n      0xffffffffffffffffffffffffffffffffffffffff\n      mul\n      not\n      and\n      swap1\n      dup4\n      0xffffffffffffffffffffffffffffffffffffffff\n      and\n      mul\n      or\n      swap1\n      sstore\n      pop\n      0x40\n      dup3\n      add\n      mload\n      dup2\n      0x02\n      add\n      swap1\n      dup2\n      tag_106\n      swap2\n      swap1\n      tag_107\n      jump\t// in\n    tag_106:\n      pop\n      0x60\n      dup3\n      add\n      mload\n      dup2\n      0x03\n      add\n      sstore\n      0x80\n      dup3\n      add\n      mload\n      dup2\n      0x04\n      add\n      sstore\n      pop\n      pop\n        /* \"contracts/Twitter-Interaction-Main.sol\":2073:2150  TweetCreated(newTweet.id,newTweet.author,newTweet.content,newTweet.timestamp) */\n      0x16fd3c13e9d46923e0a8bce11c7b473ec508a72e6c96cd2404b29ce972afc29e\n        /* \"contracts/Twitter-Interaction-Main.sol\":2086:2094  newTweet */\n      dup2\n        /* \"contracts/Twitter-Interaction-Main.sol\":2086:2097  newTweet.id */\n      0x00\n      add\n      mload\n        /* \"contracts/Twitter-Interaction-Main.sol\":2098:2106  newTweet */\n      dup3\n        /* \"contracts/Twitter-Interaction-Main.sol\":2098:2113  newTweet.author */\n      0x20\n      add\n      mload\n        /* \"contracts/Twitter-Interaction-Main.sol\":2114:2122  newTweet */\n      dup4\n        /* \"contracts/Twitter-Interaction-Main.sol\":2114:2130  newTweet.content */\n      0x40\n      add\n      mload\n        /* \"contracts/Twitter-Interaction-Main.sol\":2131:2139  newTweet */\n      dup5\n        /* \"contracts/Twitter-Interaction-Main.sol\":2131:2149  newTweet.timestamp */\n      0x60\n      add\n      mload\n        /* \"contracts/Twitter-Interaction-Main.sol\":2073:2150  TweetCreated(newTweet.id,newTweet.author,newTweet.content,newTweet.timestamp) */\n      mload(0x40)\n      tag_108\n      swap5\n      swap4\n      swap3\n      swap2\n      swap1\n      tag_109\n      jump\t// in\n    tag_108:\n      mload(0x40)\n      dup1\n      swap2\n      sub\n      swap1\n      log1\n        /* \"contracts/Twitter-Interaction-Main.sol\":1714:2158  {... */\n      pop\n        /* \"contracts/Twitter-Interaction-Main.sol\":880:1080  {... */\n      pop\n        /* \"contracts/Twitter-Interaction-Main.sol\":1650:2158  function createTweet(string memory _tweet) public onlyRegistered{... */\n      pop\n      jump\t// out\n        /* \"contracts/Twitter-Interaction-Main.sol\":2963:3079  function changeTweetLength(uint newTweetLength) public onlyOwner{... */\n    tag_41:\n        /* \"@openzeppelin/contracts/access/Ownable.sol\":1531:1544  _checkOwner() */\n      tag_111\n        /* \"@openzeppelin/contracts/access/Ownable.sol\":1531:1542  _checkOwner */\n      tag_88\n        /* \"@openzeppelin/contracts/access/Ownable.sol\":1531:1544  _checkOwner() */\n      jump\t// in\n    tag_111:\n        /* \"contracts/Twitter-Interaction-Main.sol\":3057:3071  newTweetLength */\n      dup1\n        /* \"contracts/Twitter-Interaction-Main.sol\":3038:3054  MAX_TWEET_LENGTH */\n      0x01\n        /* \"contracts/Twitter-Interaction-Main.sol\":3038:3071  MAX_TWEET_LENGTH = newTweetLength */\n      dup2\n      swap1\n      sstore\n      pop\n        /* \"contracts/Twitter-Interaction-Main.sol\":2963:3079  function changeTweetLength(uint newTweetLength) public onlyOwner{... */\n      pop\n      jump\t// out\n        /* \"@openzeppelin/contracts/access/Ownable.sol\":1638:1723  function owner() public view virtual returns (address) {... */\n    tag_43:\n        /* \"@openzeppelin/contracts/access/Ownable.sol\":1684:1691  address */\n      0x00\n        /* \"@openzeppelin/contracts/access/Ownable.sol\":1710:1716  _owner */\n      dup1\n      0x00\n      swap1\n      sload\n      swap1\n      0x0100\n      exp\n      swap1\n      div\n      0xffffffffffffffffffffffffffffffffffffffff\n      and\n        /* \"@openzeppelin/contracts/access/Ownable.sol\":1703:1716  return _owner */\n      swap1\n      pop\n        /* \"@openzeppelin/contracts/access/Ownable.sol\":1638:1723  function owner() public view virtual returns (address) {... */\n      swap1\n      jump\t// out\n        /* \"contracts/Twitter-Interaction-Main.sol\":2393:2636  function likedTweet(address author, uint256 id) external {... */\n    tag_48:\n        /* \"contracts/Twitter-Interaction-Main.sol\":2492:2494  id */\n      dup1\n        /* \"contracts/Twitter-Interaction-Main.sol\":2469:2475  tweets */\n      0x03\n        /* \"contracts/Twitter-Interaction-Main.sol\":2469:2483  tweets[author] */\n      0x00\n        /* \"contracts/Twitter-Interaction-Main.sol\":2476:2482  author */\n      dup5\n        /* \"contracts/Twitter-Interaction-Main.sol\":2469:2483  tweets[author] */\n      0xffffffffffffffffffffffffffffffffffffffff\n      and\n      0xffffffffffffffffffffffffffffffffffffffff\n      and\n      dup2\n      mstore\n      0x20\n      add\n      swap1\n      dup2\n      mstore\n      0x20\n      add\n      0x00\n      keccak256\n        /* \"contracts/Twitter-Interaction-Main.sol\":2484:2486  id */\n      dup3\n        /* \"contracts/Twitter-Interaction-Main.sol\":2469:2487  tweets[author][id] */\n      dup2\n      sload\n      dup2\n      lt\n      tag_115\n      jumpi\n      tag_116\n      tag_117\n      jump\t// in\n    tag_116:\n    tag_115:\n      swap1\n      0x00\n      mstore\n      keccak256(0x00, 0x20)\n      swap1\n      0x05\n      mul\n      add\n        /* \"contracts/Twitter-Interaction-Main.sol\":2469:2490  tweets[author][id].id */\n      0x00\n      add\n      sload\n        /* \"contracts/Twitter-Interaction-Main.sol\":2469:2494  tweets[author][id].id==id */\n      eq\n        /* \"contracts/Twitter-Interaction-Main.sol\":2461:2518  require(tweets[author][id].id==id,\"Tweet does not exist\") */\n      tag_119\n      jumpi\n      mload(0x40)\n      0x08c379a000000000000000000000000000000000000000000000000000000000\n      dup2\n      mstore\n      0x04\n      add\n      tag_120\n      swap1\n      tag_121\n      jump\t// in\n    tag_120:\n      mload(0x40)\n      dup1\n      swap2\n      sub\n      swap1\n      revert\n    tag_119:\n        /* \"contracts/Twitter-Interaction-Main.sol\":2529:2535  tweets */\n      0x03\n        /* \"contracts/Twitter-Interaction-Main.sol\":2529:2543  tweets[author] */\n      0x00\n        /* \"contracts/Twitter-Interaction-Main.sol\":2536:2542  author */\n      dup4\n        /* \"contracts/Twitter-Interaction-Main.sol\":2529:2543  tweets[author] */\n      0xffffffffffffffffffffffffffffffffffffffff\n      and\n      0xffffffffffffffffffffffffffffffffffffffff\n      and\n      dup2\n      mstore\n      0x20\n      add\n      swap1\n      dup2\n      mstore\n      0x20\n      add\n      0x00\n      keccak256\n        /* \"contracts/Twitter-Interaction-Main.sol\":2544:2546  id */\n      dup2\n        /* \"contracts/Twitter-Interaction-Main.sol\":2529:2547  tweets[author][id] */\n      dup2\n      sload\n      dup2\n      lt\n      tag_122\n      jumpi\n      tag_123\n      tag_117\n      jump\t// in\n    tag_123:\n    tag_122:\n      swap1\n      0x00\n      mstore\n      keccak256(0x00, 0x20)\n      swap1\n      0x05\n      mul\n      add\n        /* \"contracts/Twitter-Interaction-Main.sol\":2529:2553  tweets[author][id].likes */\n      0x04\n      add\n      0x00\n        /* \"contracts/Twitter-Interaction-Main.sol\":2529:2555  tweets[author][id].likes++ */\n      dup2\n      sload\n      dup1\n      swap3\n      swap2\n      swap1\n      tag_125\n      swap1\n      tag_126\n      jump\t// in\n    tag_125:\n      swap2\n      swap1\n      pop\n      sstore\n      pop\n        /* \"contracts/Twitter-Interaction-Main.sol\":2571:2628  TweetLiked(msg.sender,author,id,tweets[author][id].likes) */\n      0xe8a76fc0f16d11a00d1e93b689b63d76cf60af914dd3d915375dc41d01a0c3c8\n        /* \"contracts/Twitter-Interaction-Main.sol\":2582:2592  msg.sender */\n      caller\n        /* \"contracts/Twitter-Interaction-Main.sol\":2593:2599  author */\n      dup4\n        /* \"contracts/Twitter-Interaction-Main.sol\":2600:2602  id */\n      dup4\n        /* \"contracts/Twitter-Interaction-Main.sol\":2603:2609  tweets */\n      0x03\n        /* \"contracts/Twitter-Interaction-Main.sol\":2603:2617  tweets[author] */\n      0x00\n        /* \"contracts/Twitter-Interaction-Main.sol\":2610:2616  author */\n      dup8\n        /* \"contracts/Twitter-Interaction-Main.sol\":2603:2617  tweets[author] */\n      0xffffffffffffffffffffffffffffffffffffffff\n      and\n      0xffffffffffffffffffffffffffffffffffffffff\n      and\n      dup2\n      mstore\n      0x20\n      add\n      swap1\n      dup2\n      mstore\n      0x20\n      add\n      0x00\n      keccak256\n        /* \"contracts/Twitter-Interaction-Main.sol\":2618:2620  id */\n      dup6\n        /* \"contracts/Twitter-Interaction-Main.sol\":2603:2621  tweets[author][id] */\n      dup2\n      sload\n      dup2\n      lt\n      tag_127\n      jumpi\n      tag_128\n      tag_117\n      jump\t// in\n    tag_128:\n    tag_127:\n      swap1\n      0x00\n      mstore\n      keccak256(0x00, 0x20)\n      swap1\n      0x05\n      mul\n      add\n        /* \"contracts/Twitter-Interaction-Main.sol\":2603:2627  tweets[author][id].likes */\n      0x04\n      add\n      sload\n        /* \"contracts/Twitter-Interaction-Main.sol\":2571:2628  TweetLiked(msg.sender,author,id,tweets[author][id].likes) */\n      mload(0x40)\n      tag_130\n      swap5\n      swap4\n      swap3\n      swap2\n      swap1\n      tag_131\n      jump\t// in\n    tag_130:\n      mload(0x40)\n      dup1\n      swap2\n      sub\n      swap1\n      log1\n        /* \"contracts/Twitter-Interaction-Main.sol\":2393:2636  function likedTweet(address author, uint256 id) external {... */\n      pop\n      pop\n      jump\t// out\n        /* \"contracts/Twitter-Interaction-Main.sol\":629:660  IProfile public profileContract */\n    tag_50:\n      0x02\n      0x00\n      swap1\n      sload\n      swap1\n      0x0100\n      exp\n      swap1\n      div\n      0xffffffffffffffffffffffffffffffffffffffff\n      and\n      dup2\n      jump\t// out\n        /* \"contracts/Twitter-Interaction-Main.sol\":2642:2957  function dislikeTweet(address author, uint256 id) external {... */\n    tag_55:\n        /* \"contracts/Twitter-Interaction-Main.sol\":2743:2745  id */\n      dup1\n        /* \"contracts/Twitter-Interaction-Main.sol\":2720:2726  tweets */\n      0x03\n        /* \"contracts/Twitter-Interaction-Main.sol\":2720:2734  tweets[author] */\n      0x00\n        /* \"contracts/Twitter-Interaction-Main.sol\":2727:2733  author */\n      dup5\n        /* \"contracts/Twitter-Interaction-Main.sol\":2720:2734  tweets[author] */\n      0xffffffffffffffffffffffffffffffffffffffff\n      and\n      0xffffffffffffffffffffffffffffffffffffffff\n      and\n      dup2\n      mstore\n      0x20\n      add\n      swap1\n      dup2\n      mstore\n      0x20\n      add\n      0x00\n      keccak256\n        /* \"contracts/Twitter-Interaction-Main.sol\":2735:2737  id */\n      dup3\n        /* \"contracts/Twitter-Interaction-Main.sol\":2720:2738  tweets[author][id] */\n      dup2\n      sload\n      dup2\n      lt\n      tag_133\n      jumpi\n      tag_134\n      tag_117\n      jump\t// in\n    tag_134:\n    tag_133:\n      swap1\n      0x00\n      mstore\n      keccak256(0x00, 0x20)\n      swap1\n      0x05\n      mul\n      add\n        /* \"contracts/Twitter-Interaction-Main.sol\":2720:2741  tweets[author][id].id */\n      0x00\n      add\n      sload\n        /* \"contracts/Twitter-Interaction-Main.sol\":2720:2745  tweets[author][id].id==id */\n      eq\n        /* \"contracts/Twitter-Interaction-Main.sol\":2712:2769  require(tweets[author][id].id==id,\"Tweet does not exist\") */\n      tag_136\n      jumpi\n      mload(0x40)\n      0x08c379a000000000000000000000000000000000000000000000000000000000\n      dup2\n      mstore\n      0x04\n      add\n      tag_137\n      swap1\n      tag_121\n      jump\t// in\n    tag_137:\n      mload(0x40)\n      dup1\n      swap2\n      sub\n      swap1\n      revert\n    tag_136:\n        /* \"contracts/Twitter-Interaction-Main.sol\":2813:2814  0 */\n      0x00\n        /* \"contracts/Twitter-Interaction-Main.sol\":2788:2794  tweets */\n      0x03\n        /* \"contracts/Twitter-Interaction-Main.sol\":2788:2802  tweets[author] */\n      0x00\n        /* \"contracts/Twitter-Interaction-Main.sol\":2795:2801  author */\n      dup5\n        /* \"contracts/Twitter-Interaction-Main.sol\":2788:2802  tweets[author] */\n      0xffffffffffffffffffffffffffffffffffffffff\n      and\n      0xffffffffffffffffffffffffffffffffffffffff\n      and\n      dup2\n      mstore\n      0x20\n      add\n      swap1\n      dup2\n      mstore\n      0x20\n      add\n      0x00\n      keccak256\n        /* \"contracts/Twitter-Interaction-Main.sol\":2803:2805  id */\n      dup3\n        /* \"contracts/Twitter-Interaction-Main.sol\":2788:2806  tweets[author][id] */\n      dup2\n      sload\n      dup2\n      lt\n      tag_138\n      jumpi\n      tag_139\n      tag_117\n      jump\t// in\n    tag_139:\n    tag_138:\n      swap1\n      0x00\n      mstore\n      keccak256(0x00, 0x20)\n      swap1\n      0x05\n      mul\n      add\n        /* \"contracts/Twitter-Interaction-Main.sol\":2788:2812  tweets[author][id].likes */\n      0x04\n      add\n      sload\n        /* \"contracts/Twitter-Interaction-Main.sol\":2788:2814  tweets[author][id].likes>0 */\n      gt\n        /* \"contracts/Twitter-Interaction-Main.sol\":2780:2836  require(tweets[author][id].likes>0,\"TWEET HAS NO LIKES\") */\n      tag_141\n      jumpi\n      mload(0x40)\n      0x08c379a000000000000000000000000000000000000000000000000000000000\n      dup2\n      mstore\n      0x04\n      add\n      tag_142\n      swap1\n      tag_143\n      jump\t// in\n    tag_142:\n      mload(0x40)\n      dup1\n      swap2\n      sub\n      swap1\n      revert\n    tag_141:\n        /* \"contracts/Twitter-Interaction-Main.sol\":2847:2853  tweets */\n      0x03\n        /* \"contracts/Twitter-Interaction-Main.sol\":2847:2861  tweets[author] */\n      0x00\n        /* \"contracts/Twitter-Interaction-Main.sol\":2854:2860  author */\n      dup4\n        /* \"contracts/Twitter-Interaction-Main.sol\":2847:2861  tweets[author] */\n      0xffffffffffffffffffffffffffffffffffffffff\n      and\n      0xffffffffffffffffffffffffffffffffffffffff\n      and\n      dup2\n      mstore\n      0x20\n      add\n      swap1\n      dup2\n      mstore\n      0x20\n      add\n      0x00\n      keccak256\n        /* \"contracts/Twitter-Interaction-Main.sol\":2862:2864  id */\n      dup2\n        /* \"contracts/Twitter-Interaction-Main.sol\":2847:2865  tweets[author][id] */\n      dup2\n      sload\n      dup2\n      lt\n      tag_144\n      jumpi\n      tag_145\n      tag_117\n      jump\t// in\n    tag_145:\n    tag_144:\n      swap1\n      0x00\n      mstore\n      keccak256(0x00, 0x20)\n      swap1\n      0x05\n      mul\n      add\n        /* \"contracts/Twitter-Interaction-Main.sol\":2847:2871  tweets[author][id].likes */\n      0x04\n      add\n      0x00\n        /* \"contracts/Twitter-Interaction-Main.sol\":2847:2873  tweets[author][id].likes-- */\n      dup2\n      sload\n      dup1\n      swap3\n      swap2\n      swap1\n      tag_147\n      swap1\n      tag_148\n      jump\t// in\n    tag_147:\n      swap2\n      swap1\n      pop\n      sstore\n      pop\n        /* \"contracts/Twitter-Interaction-Main.sol\":2889:2949  TweetDisliked(msg.sender,author,id,tweets[author][id].likes) */\n      0xd0d4999471ec2d64ef3082b701ea632e73cf03302f43274ab6d09a2b11cb1ae6\n        /* \"contracts/Twitter-Interaction-Main.sol\":2903:2913  msg.sender */\n      caller\n        /* \"contracts/Twitter-Interaction-Main.sol\":2914:2920  author */\n      dup4\n        /* \"contracts/Twitter-Interaction-Main.sol\":2921:2923  id */\n      dup4\n        /* \"contracts/Twitter-Interaction-Main.sol\":2924:2930  tweets */\n      0x03\n        /* \"contracts/Twitter-Interaction-Main.sol\":2924:2938  tweets[author] */\n      0x00\n        /* \"contracts/Twitter-Interaction-Main.sol\":2931:2937  author */\n      dup8\n        /* \"contracts/Twitter-Interaction-Main.sol\":2924:2938  tweets[author] */\n      0xffffffffffffffffffffffffffffffffffffffff\n      and\n      0xffffffffffffffffffffffffffffffffffffffff\n      and\n      dup2\n      mstore\n      0x20\n      add\n      swap1\n      dup2\n      mstore\n      0x20\n      add\n      0x00\n      keccak256\n        /* \"contracts/Twitter-Interaction-Main.sol\":2939:2941  id */\n      dup6\n        /* \"contracts/Twitter-Interaction-Main.sol\":2924:2942  tweets[author][id] */\n      dup2\n      sload\n      dup2\n      lt\n      tag_149\n      jumpi\n      tag_150\n      tag_117\n      jump\t// in\n    tag_150:\n    tag_149:\n      swap1\n      0x00\n      mstore\n      keccak256(0x00, 0x20)\n      swap1\n      0x05\n      mul\n      add\n        /* \"contracts/Twitter-Interaction-Main.sol\":2924:2948  tweets[author][id].likes */\n      0x04\n      add\n      sload\n        /* \"contracts/Twitter-Interaction-Main.sol\":2889:2949  TweetDisliked(msg.sender,author,id,tweets[author][id].likes) */\n      mload(0x40)\n      tag_152\n      swap5\n      swap4\n      swap3\n      swap2\n      swap1\n      tag_131\n      jump\t// in\n    tag_152:\n      mload(0x40)\n      dup1\n      swap2\n      sub\n      swap1\n      log1\n        /* \"contracts/Twitter-Interaction-Main.sol\":2642:2957  function dislikeTweet(address author, uint256 id) external {... */\n      pop\n      pop\n      jump\t// out\n        /* \"contracts/Twitter-Interaction-Main.sol\":2274:2387  function getTweet(uint256 _i) public view returns (Tweet memory) {... */\n    tag_58:\n        /* \"contracts/Twitter-Interaction-Main.sol\":2325:2337  Tweet memory */\n      tag_153\n      tag_154\n      jump\t// in\n    tag_153:\n        /* \"contracts/Twitter-Interaction-Main.sol\":2357:2363  tweets */\n      0x03\n        /* \"contracts/Twitter-Interaction-Main.sol\":2357:2375  tweets[msg.sender] */\n      0x00\n        /* \"contracts/Twitter-Interaction-Main.sol\":2364:2374  msg.sender */\n      caller\n        /* \"contracts/Twitter-Interaction-Main.sol\":2357:2375  tweets[msg.sender] */\n      0xffffffffffffffffffffffffffffffffffffffff\n      and\n      0xffffffffffffffffffffffffffffffffffffffff\n      and\n      dup2\n      mstore\n      0x20\n      add\n      swap1\n      dup2\n      mstore\n      0x20\n      add\n      0x00\n      keccak256\n        /* \"contracts/Twitter-Interaction-Main.sol\":2376:2378  _i */\n      dup3\n        /* \"contracts/Twitter-Interaction-Main.sol\":2357:2379  tweets[msg.sender][_i] */\n      dup2\n      sload\n      dup2\n      lt\n      tag_156\n      jumpi\n      tag_157\n      tag_117\n      jump\t// in\n    tag_157:\n    tag_156:\n      swap1\n      0x00\n      mstore\n      keccak256(0x00, 0x20)\n      swap1\n      0x05\n      mul\n      add\n        /* \"contracts/Twitter-Interaction-Main.sol\":2350:2379  return tweets[msg.sender][_i] */\n      mload(0x40)\n      dup1\n      0xa0\n      add\n      0x40\n      mstore\n      swap1\n      dup2\n      0x00\n      dup3\n      add\n      sload\n      dup2\n      mstore\n      0x20\n      add\n      0x01\n      dup3\n      add\n      0x00\n      swap1\n      sload\n      swap1\n      0x0100\n      exp\n      swap1\n      div\n      0xffffffffffffffffffffffffffffffffffffffff\n      and\n      0xffffffffffffffffffffffffffffffffffffffff\n      and\n      0xffffffffffffffffffffffffffffffffffffffff\n      and\n      dup2\n      mstore\n      0x20\n      add\n      0x02\n      dup3\n      add\n      dup1\n      sload\n      tag_159\n      swap1\n      tag_72\n      jump\t// in\n    tag_159:\n      dup1\n      0x1f\n      add\n      0x20\n      dup1\n      swap2\n      div\n      mul\n      0x20\n      add\n      mload(0x40)\n      swap1\n      dup2\n      add\n      0x40\n      mstore\n      dup1\n      swap3\n      swap2\n      swap1\n      dup2\n      dup2\n      mstore\n      0x20\n      add\n      dup3\n      dup1\n      sload\n      tag_160\n      swap1\n      tag_72\n      jump\t// in\n    tag_160:\n      dup1\n      iszero\n      tag_161\n      jumpi\n      dup1\n      0x1f\n      lt\n      tag_162\n      jumpi\n      0x0100\n      dup1\n      dup4\n      sload\n      div\n      mul\n      dup4\n      mstore\n      swap2\n      0x20\n      add\n      swap2\n      jump(tag_161)\n    tag_162:\n      dup3\n      add\n      swap2\n      swap1\n      0x00\n      mstore\n      keccak256(0x00, 0x20)\n      swap1\n    tag_163:\n      dup2\n      sload\n      dup2\n      mstore\n      swap1\n      0x01\n      add\n      swap1\n      0x20\n      add\n      dup1\n      dup4\n      gt\n      tag_163\n      jumpi\n      dup3\n      swap1\n      sub\n      0x1f\n      and\n      dup3\n      add\n      swap2\n    tag_161:\n      pop\n      pop\n      pop\n      pop\n      pop\n      dup2\n      mstore\n      0x20\n      add\n      0x03\n      dup3\n      add\n      sload\n      dup2\n      mstore\n      0x20\n      add\n      0x04\n      dup3\n      add\n      sload\n      dup2\n      mstore\n      pop\n      pop\n      swap1\n      pop\n        /* \"contracts/Twitter-Interaction-Main.sol\":2274:2387  function getTweet(uint256 _i) public view returns (Tweet memory) {... */\n      swap2\n      swap1\n      pop\n      jump\t// out\n        /* \"contracts/Twitter-Interaction-Main.sol\":3085:3378  function getAllLikes(address _author) public view returns (uint){... */\n    tag_64:\n        /* \"contracts/Twitter-Interaction-Main.sol\":3144:3148  uint */\n      0x00\n        /* \"contracts/Twitter-Interaction-Main.sol\":3160:3175  uint totalLikes */\n      dup1\n        /* \"contracts/Twitter-Interaction-Main.sol\":3242:3248  uint i */\n      0x00\n        /* \"contracts/Twitter-Interaction-Main.sol\":3238:3343  for(uint i=0;i<tweets[_author].length;i++){... */\n    tag_165:\n        /* \"contracts/Twitter-Interaction-Main.sol\":3253:3259  tweets */\n      0x03\n        /* \"contracts/Twitter-Interaction-Main.sol\":3253:3268  tweets[_author] */\n      0x00\n        /* \"contracts/Twitter-Interaction-Main.sol\":3260:3267  _author */\n      dup6\n        /* \"contracts/Twitter-Interaction-Main.sol\":3253:3268  tweets[_author] */\n      0xffffffffffffffffffffffffffffffffffffffff\n      and\n      0xffffffffffffffffffffffffffffffffffffffff\n      and\n      dup2\n      mstore\n      0x20\n      add\n      swap1\n      dup2\n      mstore\n      0x20\n      add\n      0x00\n      keccak256\n        /* \"contracts/Twitter-Interaction-Main.sol\":3253:3275  tweets[_author].length */\n      dup1\n      sload\n      swap1\n      pop\n        /* \"contracts/Twitter-Interaction-Main.sol\":3251:3252  i */\n      dup2\n        /* \"contracts/Twitter-Interaction-Main.sol\":3251:3275  i<tweets[_author].length */\n      lt\n        /* \"contracts/Twitter-Interaction-Main.sol\":3238:3343  for(uint i=0;i<tweets[_author].length;i++){... */\n      iszero\n      tag_166\n      jumpi\n        /* \"contracts/Twitter-Interaction-Main.sol\":3307:3313  tweets */\n      0x03\n        /* \"contracts/Twitter-Interaction-Main.sol\":3307:3322  tweets[_author] */\n      0x00\n        /* \"contracts/Twitter-Interaction-Main.sol\":3314:3321  _author */\n      dup6\n        /* \"contracts/Twitter-Interaction-Main.sol\":3307:3322  tweets[_author] */\n      0xffffffffffffffffffffffffffffffffffffffff\n      and\n      0xffffffffffffffffffffffffffffffffffffffff\n      and\n      dup2\n      mstore\n      0x20\n      add\n      swap1\n      dup2\n      mstore\n      0x20\n      add\n      0x00\n      keccak256\n        /* \"contracts/Twitter-Interaction-Main.sol\":3323:3324  i */\n      dup2\n        /* \"contracts/Twitter-Interaction-Main.sol\":3307:3325  tweets[_author][i] */\n      dup2\n      sload\n      dup2\n      lt\n      tag_168\n      jumpi\n      tag_169\n      tag_117\n      jump\t// in\n    tag_169:\n    tag_168:\n      swap1\n      0x00\n      mstore\n      keccak256(0x00, 0x20)\n      swap1\n      0x05\n      mul\n      add\n        /* \"contracts/Twitter-Interaction-Main.sol\":3307:3331  tweets[_author][i].likes */\n      0x04\n      add\n      sload\n        /* \"contracts/Twitter-Interaction-Main.sol\":3295:3331  totalLikes+=tweets[_author][i].likes */\n      dup3\n      tag_171\n      swap2\n      swap1\n      tag_172\n      jump\t// in\n    tag_171:\n      swap2\n      pop\n        /* \"contracts/Twitter-Interaction-Main.sol\":3276:3279  i++ */\n      dup1\n      dup1\n      0x01\n      add\n      swap2\n      pop\n      pop\n        /* \"contracts/Twitter-Interaction-Main.sol\":3238:3343  for(uint i=0;i<tweets[_author].length;i++){... */\n      jump(tag_165)\n    tag_166:\n      pop\n        /* \"contracts/Twitter-Interaction-Main.sol\":3360:3370  totalLikes */\n      dup1\n        /* \"contracts/Twitter-Interaction-Main.sol\":3353:3370  return totalLikes */\n      swap2\n      pop\n      pop\n        /* \"contracts/Twitter-Interaction-Main.sol\":3085:3378  function getAllLikes(address _author) public view returns (uint){... */\n      swap2\n      swap1\n      pop\n      jump\t// out\n        /* \"@openzeppelin/contracts/access/Ownable.sol\":2543:2758  function transferOwnership(address newOwner) public virtual onlyOwner {... */\n    tag_68:\n        /* \"@openzeppelin/contracts/access/Ownable.sol\":1531:1544  _checkOwner() */\n      tag_174\n        /* \"@openzeppelin/contracts/access/Ownable.sol\":1531:1542  _checkOwner */\n      tag_88\n        /* \"@openzeppelin/contracts/access/Ownable.sol\":1531:1544  _checkOwner() */\n      jump\t// in\n    tag_174:\n        /* \"@openzeppelin/contracts/access/Ownable.sol\":2647:2648  0 */\n      0x00\n        /* \"@openzeppelin/contracts/access/Ownable.sol\":2627:2649  newOwner == address(0) */\n      0xffffffffffffffffffffffffffffffffffffffff\n      and\n        /* \"@openzeppelin/contracts/access/Ownable.sol\":2627:2635  newOwner */\n      dup2\n        /* \"@openzeppelin/contracts/access/Ownable.sol\":2627:2649  newOwner == address(0) */\n      0xffffffffffffffffffffffffffffffffffffffff\n      and\n      sub\n        /* \"@openzeppelin/contracts/access/Ownable.sol\":2623:2714  if (newOwner == address(0)) {... */\n      tag_176\n      jumpi\n        /* \"@openzeppelin/contracts/access/Ownable.sol\":2700:2701  0 */\n      0x00\n        /* \"@openzeppelin/contracts/access/Ownable.sol\":2672:2703  OwnableInvalidOwner(address(0)) */\n      mload(0x40)\n      0x1e4fbdf700000000000000000000000000000000000000000000000000000000\n      dup2\n      mstore\n      0x04\n      add\n      tag_177\n      swap2\n      swap1\n      tag_45\n      jump\t// in\n    tag_177:\n      mload(0x40)\n      dup1\n      swap2\n      sub\n      swap1\n      revert\n        /* \"@openzeppelin/contracts/access/Ownable.sol\":2623:2714  if (newOwner == address(0)) {... */\n    tag_176:\n        /* \"@openzeppelin/contracts/access/Ownable.sol\":2723:2751  _transferOwnership(newOwner) */\n      tag_178\n        /* \"@openzeppelin/contracts/access/Ownable.sol\":2742:2750  newOwner */\n      dup2\n        /* \"@openzeppelin/contracts/access/Ownable.sol\":2723:2741  _transferOwnership */\n      tag_91\n        /* \"@openzeppelin/contracts/access/Ownable.sol\":2723:2751  _transferOwnership(newOwner) */\n      jump\t// in\n    tag_178:\n        /* \"@openzeppelin/contracts/access/Ownable.sol\":2543:2758  function transferOwnership(address newOwner) public virtual onlyOwner {... */\n      pop\n      jump\t// out\n        /* \"@openzeppelin/contracts/access/Ownable.sol\":1796:1958  function _checkOwner() internal view virtual {... */\n    tag_88:\n        /* \"@openzeppelin/contracts/access/Ownable.sol\":1866:1878  _msgSender() */\n      tag_180\n        /* \"@openzeppelin/contracts/access/Ownable.sol\":1866:1876  _msgSender */\n      tag_181\n        /* \"@openzeppelin/contracts/access/Ownable.sol\":1866:1878  _msgSender() */\n      jump\t// in\n    tag_180:\n        /* \"@openzeppelin/contracts/access/Ownable.sol\":1855:1878  owner() != _msgSender() */\n      0xffffffffffffffffffffffffffffffffffffffff\n      and\n        /* \"@openzeppelin/contracts/access/Ownable.sol\":1855:1862  owner() */\n      tag_182\n        /* \"@openzeppelin/contracts/access/Ownable.sol\":1855:1860  owner */\n      tag_43\n        /* \"@openzeppelin/contracts/access/Ownable.sol\":1855:1862  owner() */\n      jump\t// in\n    tag_182:\n        /* \"@openzeppelin/contracts/access/Ownable.sol\":1855:1878  owner() != _msgSender() */\n      0xffffffffffffffffffffffffffffffffffffffff\n      and\n      eq\n        /* \"@openzeppelin/contracts/access/Ownable.sol\":1851:1952  if (owner() != _msgSender()) {... */\n      tag_183\n      jumpi\n        /* \"@openzeppelin/contracts/access/Ownable.sol\":1928:1940  _msgSender() */\n      tag_184\n        /* \"@openzeppelin/contracts/access/Ownable.sol\":1928:1938  _msgSender */\n      tag_181\n        /* \"@openzeppelin/contracts/access/Ownable.sol\":1928:1940  _msgSender() */\n      jump\t// in\n    tag_184:\n        /* \"@openzeppelin/contracts/access/Ownable.sol\":1901:1941  OwnableUnauthorizedAccount(_msgSender()) */\n      mload(0x40)\n      0x118cdaa700000000000000000000000000000000000000000000000000000000\n      dup2\n      mstore\n      0x04\n      add\n      tag_185\n      swap2\n      swap1\n      tag_45\n      jump\t// in\n    tag_185:\n      mload(0x40)\n      dup1\n      swap2\n      sub\n      swap1\n      revert\n        /* \"@openzeppelin/contracts/access/Ownable.sol\":1851:1952  if (owner() != _msgSender()) {... */\n    tag_183:\n        /* \"@openzeppelin/contracts/access/Ownable.sol\":1796:1958  function _checkOwner() internal view virtual {... */\n      jump\t// out\n        /* \"@openzeppelin/contracts/access/Ownable.sol\":2912:3099  function _transferOwnership(address newOwner) internal virtual {... */\n    tag_91:\n        /* \"@openzeppelin/contracts/access/Ownable.sol\":2985:3001  address oldOwner */\n      0x00\n        /* \"@openzeppelin/contracts/access/Ownable.sol\":3004:3010  _owner */\n      dup1\n      0x00\n      swap1\n      sload\n      swap1\n      0x0100\n      exp\n      swap1\n      div\n      0xffffffffffffffffffffffffffffffffffffffff\n      and\n        /* \"@openzeppelin/contracts/access/Ownable.sol\":2985:3010  address oldOwner = _owner */\n      swap1\n      pop\n        /* \"@openzeppelin/contracts/access/Ownable.sol\":3029:3037  newOwner */\n      dup2\n        /* \"@openzeppelin/contracts/access/Ownable.sol\":3020:3026  _owner */\n      0x00\n      dup1\n        /* \"@openzeppelin/contracts/access/Ownable.sol\":3020:3037  _owner = newOwner */\n      0x0100\n      exp\n      dup2\n      sload\n      dup2\n      0xffffffffffffffffffffffffffffffffffffffff\n      mul\n      not\n      and\n      swap1\n      dup4\n      0xffffffffffffffffffffffffffffffffffffffff\n      and\n      mul\n      or\n      swap1\n      sstore\n      pop\n        /* \"@openzeppelin/contracts/access/Ownable.sol\":3083:3091  newOwner */\n      dup2\n        /* \"@openzeppelin/contracts/access/Ownable.sol\":3052:3092  OwnershipTransferred(oldOwner, newOwner) */\n      0xffffffffffffffffffffffffffffffffffffffff\n      and\n        /* \"@openzeppelin/contracts/access/Ownable.sol\":3073:3081  oldOwner */\n      dup2\n        /* \"@openzeppelin/contracts/access/Ownable.sol\":3052:3092  OwnershipTransferred(oldOwner, newOwner) */\n      0xffffffffffffffffffffffffffffffffffffffff\n      and\n      0x8be0079c531659141344cd1fd0a4f28419497f9722a3daafe3b4186f6b6457e0\n      mload(0x40)\n      mload(0x40)\n      dup1\n      swap2\n      sub\n      swap1\n      log3\n        /* \"@openzeppelin/contracts/access/Ownable.sol\":2975:3099  {... */\n      pop\n        /* \"@openzeppelin/contracts/access/Ownable.sol\":2912:3099  function _transferOwnership(address newOwner) internal virtual {... */\n      pop\n      jump\t// out\n        /* \"@openzeppelin/contracts/utils/Context.sol\":656:752  function _msgSender() internal view virtual returns (address) {... */\n    tag_181:\n        /* \"@openzeppelin/contracts/utils/Context.sol\":709:716  address */\n      0x00\n        /* \"@openzeppelin/contracts/utils/Context.sol\":735:745  msg.sender */\n      caller\n        /* \"@openzeppelin/contracts/utils/Context.sol\":728:745  return msg.sender */\n      swap1\n      pop\n        /* \"@openzeppelin/contracts/utils/Context.sol\":656:752  function _msgSender() internal view virtual returns (address) {... */\n      swap1\n      jump\t// out\n    tag_154:\n      mload(0x40)\n      dup1\n      0xa0\n      add\n      0x40\n      mstore\n      dup1\n      0x00\n      dup2\n      mstore\n      0x20\n      add\n      and(0xffffffffffffffffffffffffffffffffffffffff, 0x00)\n      dup2\n      mstore\n      0x20\n      add\n      0x60\n      dup2\n      mstore\n      0x20\n      add\n      0x00\n      dup2\n      mstore\n      0x20\n      add\n      0x00\n      dup2\n      mstore\n      pop\n      swap1\n      jump\t// out\n        /* \"#utility.yul\":7:82   */\n    tag_188:\n        /* \"#utility.yul\":40:46   */\n      0x00\n        /* \"#utility.yul\":73:75   */\n      0x40\n        /* \"#utility.yul\":67:76   */\n      mload\n        /* \"#utility.yul\":57:76   */\n      swap1\n      pop\n        /* \"#utility.yul\":7:82   */\n      swap1\n      jump\t// out\n        /* \"#utility.yul\":88:205   */\n    tag_189:\n        /* \"#utility.yul\":197:198   */\n      0x00\n        /* \"#utility.yul\":194:195   */\n      dup1\n        /* \"#utility.yul\":187:199   */\n      revert\n        /* \"#utility.yul\":211:328   */\n    tag_190:\n        /* \"#utility.yul\":320:321   */\n      0x00\n        /* \"#utility.yul\":317:318   */\n      dup1\n        /* \"#utility.yul\":310:322   */\n      revert\n        /* \"#utility.yul\":334:460   */\n    tag_191:\n        /* \"#utility.yul\":371:378   */\n      0x00\n        /* \"#utility.yul\":411:453   */\n      0xffffffffffffffffffffffffffffffffffffffff\n        /* \"#utility.yul\":404:409   */\n      dup3\n        /* \"#utility.yul\":400:454   */\n      and\n        /* \"#utility.yul\":389:454   */\n      swap1\n      pop\n        /* \"#utility.yul\":334:460   */\n      swap2\n      swap1\n      pop\n      jump\t// out\n        /* \"#utility.yul\":466:562   */\n    tag_192:\n        /* \"#utility.yul\":503:510   */\n      0x00\n        /* \"#utility.yul\":532:556   */\n      tag_266\n        /* \"#utility.yul\":550:555   */\n      dup3\n        /* \"#utility.yul\":532:556   */\n      tag_191\n      jump\t// in\n    tag_266:\n        /* \"#utility.yul\":521:556   */\n      swap1\n      pop\n        /* \"#utility.yul\":466:562   */\n      swap2\n      swap1\n      pop\n      jump\t// out\n        /* \"#utility.yul\":568:690   */\n    tag_193:\n        /* \"#utility.yul\":641:665   */\n      tag_268\n        /* \"#utility.yul\":659:664   */\n      dup2\n        /* \"#utility.yul\":641:665   */\n      tag_192\n      jump\t// in\n    tag_268:\n        /* \"#utility.yul\":634:639   */\n      dup2\n        /* \"#utility.yul\":631:666   */\n      eq\n        /* \"#utility.yul\":621:684   */\n      tag_269\n      jumpi\n        /* \"#utility.yul\":680:681   */\n      0x00\n        /* \"#utility.yul\":677:678   */\n      dup1\n        /* \"#utility.yul\":670:682   */\n      revert\n        /* \"#utility.yul\":621:684   */\n    tag_269:\n        /* \"#utility.yul\":568:690   */\n      pop\n      jump\t// out\n        /* \"#utility.yul\":696:835   */\n    tag_194:\n        /* \"#utility.yul\":742:747   */\n      0x00\n        /* \"#utility.yul\":780:786   */\n      dup2\n        /* \"#utility.yul\":767:787   */\n      calldataload\n        /* \"#utility.yul\":758:787   */\n      swap1\n      pop\n        /* \"#utility.yul\":796:829   */\n      tag_271\n        /* \"#utility.yul\":823:828   */\n      dup2\n        /* \"#utility.yul\":796:829   */\n      tag_193\n      jump\t// in\n    tag_271:\n        /* \"#utility.yul\":696:835   */\n      swap3\n      swap2\n      pop\n      pop\n      jump\t// out\n        /* \"#utility.yul\":841:918   */\n    tag_195:\n        /* \"#utility.yul\":878:885   */\n      0x00\n        /* \"#utility.yul\":907:912   */\n      dup2\n        /* \"#utility.yul\":896:912   */\n      swap1\n      pop\n        /* \"#utility.yul\":841:918   */\n      swap2\n      swap1\n      pop\n      jump\t// out\n        /* \"#utility.yul\":924:1046   */\n    tag_196:\n        /* \"#utility.yul\":997:1021   */\n      tag_274\n        /* \"#utility.yul\":1015:1020   */\n      dup2\n        /* \"#utility.yul\":997:1021   */\n      tag_195\n      jump\t// in\n    tag_274:\n        /* \"#utility.yul\":990:995   */\n      dup2\n        /* \"#utility.yul\":987:1022   */\n      eq\n        /* \"#utility.yul\":977:1040   */\n      tag_275\n      jumpi\n        /* \"#utility.yul\":1036:1037   */\n      0x00\n        /* \"#utility.yul\":1033:1034   */\n      dup1\n        /* \"#utility.yul\":1026:1038   */\n      revert\n        /* \"#utility.yul\":977:1040   */\n    tag_275:\n        /* \"#utility.yul\":924:1046   */\n      pop\n      jump\t// out\n        /* \"#utility.yul\":1052:1191   */\n    tag_197:\n        /* \"#utility.yul\":1098:1103   */\n      0x00\n        /* \"#utility.yul\":1136:1142   */\n      dup2\n        /* \"#utility.yul\":1123:1143   */\n      calldataload\n        /* \"#utility.yul\":1114:1143   */\n      swap1\n      pop\n        /* \"#utility.yul\":1152:1185   */\n      tag_277\n        /* \"#utility.yul\":1179:1184   */\n      dup2\n        /* \"#utility.yul\":1152:1185   */\n      tag_196\n      jump\t// in\n    tag_277:\n        /* \"#utility.yul\":1052:1191   */\n      swap3\n      swap2\n      pop\n      pop\n      jump\t// out\n        /* \"#utility.yul\":1197:1671   */\n    tag_20:\n        /* \"#utility.yul\":1265:1271   */\n      0x00\n        /* \"#utility.yul\":1273:1279   */\n      dup1\n        /* \"#utility.yul\":1322:1324   */\n      0x40\n        /* \"#utility.yul\":1310:1319   */\n      dup4\n        /* \"#utility.yul\":1301:1308   */\n      dup6\n        /* \"#utility.yul\":1297:1320   */\n      sub\n        /* \"#utility.yul\":1293:1325   */\n      slt\n        /* \"#utility.yul\":1290:1409   */\n      iszero\n      tag_279\n      jumpi\n        /* \"#utility.yul\":1328:1407   */\n      tag_280\n      tag_189\n      jump\t// in\n    tag_280:\n        /* \"#utility.yul\":1290:1409   */\n    tag_279:\n        /* \"#utility.yul\":1448:1449   */\n      0x00\n        /* \"#utility.yul\":1473:1526   */\n      tag_281\n        /* \"#utility.yul\":1518:1525   */\n      dup6\n        /* \"#utility.yul\":1509:1515   */\n      dup3\n        /* \"#utility.yul\":1498:1507   */\n      dup7\n        /* \"#utility.yul\":1494:1516   */\n      add\n        /* \"#utility.yul\":1473:1526   */\n      tag_194\n      jump\t// in\n    tag_281:\n        /* \"#utility.yul\":1463:1526   */\n      swap3\n      pop\n        /* \"#utility.yul\":1419:1536   */\n      pop\n        /* \"#utility.yul\":1575:1577   */\n      0x20\n        /* \"#utility.yul\":1601:1654   */\n      tag_282\n        /* \"#utility.yul\":1646:1653   */\n      dup6\n        /* \"#utility.yul\":1637:1643   */\n      dup3\n        /* \"#utility.yul\":1626:1635   */\n      dup7\n        /* \"#utility.yul\":1622:1644   */\n      add\n        /* \"#utility.yul\":1601:1654   */\n      tag_197\n      jump\t// in\n    tag_282:\n        /* \"#utility.yul\":1591:1654   */\n      swap2\n      pop\n        /* \"#utility.yul\":1546:1664   */\n      pop\n        /* \"#utility.yul\":1197:1671   */\n      swap3\n      pop\n      swap3\n      swap1\n      pop\n      jump\t// out\n        /* \"#utility.yul\":1677:1795   */\n    tag_198:\n        /* \"#utility.yul\":1764:1788   */\n      tag_284\n        /* \"#utility.yul\":1782:1787   */\n      dup2\n        /* \"#utility.yul\":1764:1788   */\n      tag_195\n      jump\t// in\n    tag_284:\n        /* \"#utility.yul\":1759:1762   */\n      dup3\n        /* \"#utility.yul\":1752:1789   */\n      mstore\n        /* \"#utility.yul\":1677:1795   */\n      pop\n      pop\n      jump\t// out\n        /* \"#utility.yul\":1801:1919   */\n    tag_199:\n        /* \"#utility.yul\":1888:1912   */\n      tag_286\n        /* \"#utility.yul\":1906:1911   */\n      dup2\n        /* \"#utility.yul\":1888:1912   */\n      tag_192\n      jump\t// in\n    tag_286:\n        /* \"#utility.yul\":1883:1886   */\n      dup3\n        /* \"#utility.yul\":1876:1913   */\n      mstore\n        /* \"#utility.yul\":1801:1919   */\n      pop\n      pop\n      jump\t// out\n        /* \"#utility.yul\":1925:2024   */\n    tag_200:\n        /* \"#utility.yul\":1977:1983   */\n      0x00\n        /* \"#utility.yul\":2011:2016   */\n      dup2\n        /* \"#utility.yul\":2005:2017   */\n      mload\n        /* \"#utility.yul\":1995:2017   */\n      swap1\n      pop\n        /* \"#utility.yul\":1925:2024   */\n      swap2\n      swap1\n      pop\n      jump\t// out\n        /* \"#utility.yul\":2030:2199   */\n    tag_201:\n        /* \"#utility.yul\":2114:2125   */\n      0x00\n        /* \"#utility.yul\":2148:2154   */\n      dup3\n        /* \"#utility.yul\":2143:2146   */\n      dup3\n        /* \"#utility.yul\":2136:2155   */\n      mstore\n        /* \"#utility.yul\":2188:2192   */\n      0x20\n        /* \"#utility.yul\":2183:2186   */\n      dup3\n        /* \"#utility.yul\":2179:2193   */\n      add\n        /* \"#utility.yul\":2164:2193   */\n      swap1\n      pop\n        /* \"#utility.yul\":2030:2199   */\n      swap3\n      swap2\n      pop\n      pop\n      jump\t// out\n        /* \"#utility.yul\":2205:2344   */\n    tag_202:\n        /* \"#utility.yul\":2294:2300   */\n      dup3\n        /* \"#utility.yul\":2289:2292   */\n      dup2\n        /* \"#utility.yul\":2284:2287   */\n      dup4\n        /* \"#utility.yul\":2278:2301   */\n      mcopy\n        /* \"#utility.yul\":2335:2336   */\n      0x00\n        /* \"#utility.yul\":2326:2332   */\n      dup4\n        /* \"#utility.yul\":2321:2324   */\n      dup4\n        /* \"#utility.yul\":2317:2333   */\n      add\n        /* \"#utility.yul\":2310:2337   */\n      mstore\n        /* \"#utility.yul\":2205:2344   */\n      pop\n      pop\n      pop\n      jump\t// out\n        /* \"#utility.yul\":2350:2452   */\n    tag_203:\n        /* \"#utility.yul\":2391:2397   */\n      0x00\n        /* \"#utility.yul\":2442:2444   */\n      0x1f\n        /* \"#utility.yul\":2438:2445   */\n      not\n        /* \"#utility.yul\":2433:2435   */\n      0x1f\n        /* \"#utility.yul\":2426:2431   */\n      dup4\n        /* \"#utility.yul\":2422:2436   */\n      add\n        /* \"#utility.yul\":2418:2446   */\n      and\n        /* \"#utility.yul\":2408:2446   */\n      swap1\n      pop\n        /* \"#utility.yul\":2350:2452   */\n      swap2\n      swap1\n      pop\n      jump\t// out\n        /* \"#utility.yul\":2458:2835   */\n    tag_204:\n        /* \"#utility.yul\":2546:2549   */\n      0x00\n        /* \"#utility.yul\":2574:2613   */\n      tag_292\n        /* \"#utility.yul\":2607:2612   */\n      dup3\n        /* \"#utility.yul\":2574:2613   */\n      tag_200\n      jump\t// in\n    tag_292:\n        /* \"#utility.yul\":2629:2700   */\n      tag_293\n        /* \"#utility.yul\":2693:2699   */\n      dup2\n        /* \"#utility.yul\":2688:2691   */\n      dup6\n        /* \"#utility.yul\":2629:2700   */\n      tag_201\n      jump\t// in\n    tag_293:\n        /* \"#utility.yul\":2622:2700   */\n      swap4\n      pop\n        /* \"#utility.yul\":2709:2774   */\n      tag_294\n        /* \"#utility.yul\":2767:2773   */\n      dup2\n        /* \"#utility.yul\":2762:2765   */\n      dup6\n        /* \"#utility.yul\":2755:2759   */\n      0x20\n        /* \"#utility.yul\":2748:2753   */\n      dup7\n        /* \"#utility.yul\":2744:2760   */\n      add\n        /* \"#utility.yul\":2709:2774   */\n      tag_202\n      jump\t// in\n    tag_294:\n        /* \"#utility.yul\":2799:2828   */\n      tag_295\n        /* \"#utility.yul\":2821:2827   */\n      dup2\n        /* \"#utility.yul\":2799:2828   */\n      tag_203\n      jump\t// in\n    tag_295:\n        /* \"#utility.yul\":2794:2797   */\n      dup5\n        /* \"#utility.yul\":2790:2829   */\n      add\n        /* \"#utility.yul\":2783:2829   */\n      swap2\n      pop\n        /* \"#utility.yul\":2550:2835   */\n      pop\n        /* \"#utility.yul\":2458:2835   */\n      swap3\n      swap2\n      pop\n      pop\n      jump\t// out\n        /* \"#utility.yul\":2841:3596   */\n    tag_23:\n        /* \"#utility.yul\":3066:3070   */\n      0x00\n        /* \"#utility.yul\":3104:3107   */\n      0xa0\n        /* \"#utility.yul\":3093:3102   */\n      dup3\n        /* \"#utility.yul\":3089:3108   */\n      add\n        /* \"#utility.yul\":3081:3108   */\n      swap1\n      pop\n        /* \"#utility.yul\":3118:3189   */\n      tag_297\n        /* \"#utility.yul\":3186:3187   */\n      0x00\n        /* \"#utility.yul\":3175:3184   */\n      dup4\n        /* \"#utility.yul\":3171:3188   */\n      add\n        /* \"#utility.yul\":3162:3168   */\n      dup9\n        /* \"#utility.yul\":3118:3189   */\n      tag_198\n      jump\t// in\n    tag_297:\n        /* \"#utility.yul\":3199:3271   */\n      tag_298\n        /* \"#utility.yul\":3267:3269   */\n      0x20\n        /* \"#utility.yul\":3256:3265   */\n      dup4\n        /* \"#utility.yul\":3252:3270   */\n      add\n        /* \"#utility.yul\":3243:3249   */\n      dup8\n        /* \"#utility.yul\":3199:3271   */\n      tag_199\n      jump\t// in\n    tag_298:\n        /* \"#utility.yul\":3318:3327   */\n      dup2\n        /* \"#utility.yul\":3312:3316   */\n      dup2\n        /* \"#utility.yul\":3308:3328   */\n      sub\n        /* \"#utility.yul\":3303:3305   */\n      0x40\n        /* \"#utility.yul\":3292:3301   */\n      dup4\n        /* \"#utility.yul\":3288:3306   */\n      add\n        /* \"#utility.yul\":3281:3329   */\n      mstore\n        /* \"#utility.yul\":3346:3424   */\n      tag_299\n        /* \"#utility.yul\":3419:3423   */\n      dup2\n        /* \"#utility.yul\":3410:3416   */\n      dup7\n        /* \"#utility.yul\":3346:3424   */\n      tag_204\n      jump\t// in\n    tag_299:\n        /* \"#utility.yul\":3338:3424   */\n      swap1\n      pop\n        /* \"#utility.yul\":3434:3506   */\n      tag_300\n        /* \"#utility.yul\":3502:3504   */\n      0x60\n        /* \"#utility.yul\":3491:3500   */\n      dup4\n        /* \"#utility.yul\":3487:3505   */\n      add\n        /* \"#utility.yul\":3478:3484   */\n      dup6\n        /* \"#utility.yul\":3434:3506   */\n      tag_198\n      jump\t// in\n    tag_300:\n        /* \"#utility.yul\":3516:3589   */\n      tag_301\n        /* \"#utility.yul\":3584:3587   */\n      0x80\n        /* \"#utility.yul\":3573:3582   */\n      dup4\n        /* \"#utility.yul\":3569:3588   */\n      add\n        /* \"#utility.yul\":3560:3566   */\n      dup5\n        /* \"#utility.yul\":3516:3589   */\n      tag_198\n      jump\t// in\n    tag_301:\n        /* \"#utility.yul\":2841:3596   */\n      swap7\n      swap6\n      pop\n      pop\n      pop\n      pop\n      pop\n      pop\n      jump\t// out\n        /* \"#utility.yul\":3602:3738   */\n    tag_205:\n        /* \"#utility.yul\":3691:3697   */\n      0x00\n        /* \"#utility.yul\":3725:3730   */\n      dup2\n        /* \"#utility.yul\":3719:3731   */\n      mload\n        /* \"#utility.yul\":3709:3731   */\n      swap1\n      pop\n        /* \"#utility.yul\":3602:3738   */\n      swap2\n      swap1\n      pop\n      jump\t// out\n        /* \"#utility.yul\":3744:3950   */\n    tag_206:\n        /* \"#utility.yul\":3865:3876   */\n      0x00\n        /* \"#utility.yul\":3899:3905   */\n      dup3\n        /* \"#utility.yul\":3894:3897   */\n      dup3\n        /* \"#utility.yul\":3887:3906   */\n      mstore\n        /* \"#utility.yul\":3939:3943   */\n      0x20\n        /* \"#utility.yul\":3934:3937   */\n      dup3\n        /* \"#utility.yul\":3930:3944   */\n      add\n        /* \"#utility.yul\":3915:3944   */\n      swap1\n      pop\n        /* \"#utility.yul\":3744:3950   */\n      swap3\n      swap2\n      pop\n      pop\n      jump\t// out\n        /* \"#utility.yul\":3956:4110   */\n    tag_207:\n        /* \"#utility.yul\":4045:4049   */\n      0x00\n        /* \"#utility.yul\":4068:4071   */\n      dup2\n        /* \"#utility.yul\":4060:4071   */\n      swap1\n      pop\n        /* \"#utility.yul\":4098:4102   */\n      0x20\n        /* \"#utility.yul\":4093:4096   */\n      dup3\n        /* \"#utility.yul\":4089:4103   */\n      add\n        /* \"#utility.yul\":4081:4103   */\n      swap1\n      pop\n        /* \"#utility.yul\":3956:4110   */\n      swap2\n      swap1\n      pop\n      jump\t// out\n        /* \"#utility.yul\":4116:4224   */\n    tag_208:\n        /* \"#utility.yul\":4193:4217   */\n      tag_306\n        /* \"#utility.yul\":4211:4216   */\n      dup2\n        /* \"#utility.yul\":4193:4217   */\n      tag_195\n      jump\t// in\n    tag_306:\n        /* \"#utility.yul\":4188:4191   */\n      dup3\n        /* \"#utility.yul\":4181:4218   */\n      mstore\n        /* \"#utility.yul\":4116:4224   */\n      pop\n      pop\n      jump\t// out\n        /* \"#utility.yul\":4230:4338   */\n    tag_209:\n        /* \"#utility.yul\":4307:4331   */\n      tag_308\n        /* \"#utility.yul\":4325:4330   */\n      dup2\n        /* \"#utility.yul\":4307:4331   */\n      tag_192\n      jump\t// in\n    tag_308:\n        /* \"#utility.yul\":4302:4305   */\n      dup3\n        /* \"#utility.yul\":4295:4332   */\n      mstore\n        /* \"#utility.yul\":4230:4338   */\n      pop\n      pop\n      jump\t// out\n        /* \"#utility.yul\":4344:4503   */\n    tag_210:\n        /* \"#utility.yul\":4418:4429   */\n      0x00\n        /* \"#utility.yul\":4452:4458   */\n      dup3\n        /* \"#utility.yul\":4447:4450   */\n      dup3\n        /* \"#utility.yul\":4440:4459   */\n      mstore\n        /* \"#utility.yul\":4492:4496   */\n      0x20\n        /* \"#utility.yul\":4487:4490   */\n      dup3\n        /* \"#utility.yul\":4483:4497   */\n      add\n        /* \"#utility.yul\":4468:4497   */\n      swap1\n      pop\n        /* \"#utility.yul\":4344:4503   */\n      swap3\n      swap2\n      pop\n      pop\n      jump\t// out\n        /* \"#utility.yul\":4509:4866   */\n    tag_211:\n        /* \"#utility.yul\":4587:4590   */\n      0x00\n        /* \"#utility.yul\":4615:4654   */\n      tag_311\n        /* \"#utility.yul\":4648:4653   */\n      dup3\n        /* \"#utility.yul\":4615:4654   */\n      tag_200\n      jump\t// in\n    tag_311:\n        /* \"#utility.yul\":4670:4731   */\n      tag_312\n        /* \"#utility.yul\":4724:4730   */\n      dup2\n        /* \"#utility.yul\":4719:4722   */\n      dup6\n        /* \"#utility.yul\":4670:4731   */\n      tag_210\n      jump\t// in\n    tag_312:\n        /* \"#utility.yul\":4663:4731   */\n      swap4\n      pop\n        /* \"#utility.yul\":4740:4805   */\n      tag_313\n        /* \"#utility.yul\":4798:4804   */\n      dup2\n        /* \"#utility.yul\":4793:4796   */\n      dup6\n        /* \"#utility.yul\":4786:4790   */\n      0x20\n        /* \"#utility.yul\":4779:4784   */\n      dup7\n        /* \"#utility.yul\":4775:4791   */\n      add\n        /* \"#utility.yul\":4740:4805   */\n      tag_202\n      jump\t// in\n    tag_313:\n        /* \"#utility.yul\":4830:4859   */\n      tag_314\n        /* \"#utility.yul\":4852:4858   */\n      dup2\n        /* \"#utility.yul\":4830:4859   */\n      tag_203\n      jump\t// in\n    tag_314:\n        /* \"#utility.yul\":4825:4828   */\n      dup5\n        /* \"#utility.yul\":4821:4860   */\n      add\n        /* \"#utility.yul\":4814:4860   */\n      swap2\n      pop\n        /* \"#utility.yul\":4591:4866   */\n      pop\n        /* \"#utility.yul\":4509:4866   */\n      swap3\n      swap2\n      pop\n      pop\n      jump\t// out\n        /* \"#utility.yul\":4924:6045   */\n    tag_212:\n        /* \"#utility.yul\":5027:5030   */\n      0x00\n        /* \"#utility.yul\":5063:5067   */\n      0xa0\n        /* \"#utility.yul\":5058:5061   */\n      dup4\n        /* \"#utility.yul\":5054:5068   */\n      add\n        /* \"#utility.yul\":5148:5152   */\n      0x00\n        /* \"#utility.yul\":5141:5146   */\n      dup4\n        /* \"#utility.yul\":5137:5153   */\n      add\n        /* \"#utility.yul\":5131:5154   */\n      mload\n        /* \"#utility.yul\":5167:5230   */\n      tag_316\n        /* \"#utility.yul\":5224:5228   */\n      0x00\n        /* \"#utility.yul\":5219:5222   */\n      dup7\n        /* \"#utility.yul\":5215:5229   */\n      add\n        /* \"#utility.yul\":5201:5213   */\n      dup3\n        /* \"#utility.yul\":5167:5230   */\n      tag_208\n      jump\t// in\n    tag_316:\n        /* \"#utility.yul\":5078:5240   */\n      pop\n        /* \"#utility.yul\":5324:5328   */\n      0x20\n        /* \"#utility.yul\":5317:5322   */\n      dup4\n        /* \"#utility.yul\":5313:5329   */\n      add\n        /* \"#utility.yul\":5307:5330   */\n      mload\n        /* \"#utility.yul\":5343:5406   */\n      tag_317\n        /* \"#utility.yul\":5400:5404   */\n      0x20\n        /* \"#utility.yul\":5395:5398   */\n      dup7\n        /* \"#utility.yul\":5391:5405   */\n      add\n        /* \"#utility.yul\":5377:5389   */\n      dup3\n        /* \"#utility.yul\":5343:5406   */\n      tag_209\n      jump\t// in\n    tag_317:\n        /* \"#utility.yul\":5250:5416   */\n      pop\n        /* \"#utility.yul\":5501:5505   */\n      0x40\n        /* \"#utility.yul\":5494:5499   */\n      dup4\n        /* \"#utility.yul\":5490:5506   */\n      add\n        /* \"#utility.yul\":5484:5507   */\n      mload\n        /* \"#utility.yul\":5554:5557   */\n      dup5\n        /* \"#utility.yul\":5548:5552   */\n      dup3\n        /* \"#utility.yul\":5544:5558   */\n      sub\n        /* \"#utility.yul\":5537:5541   */\n      0x40\n        /* \"#utility.yul\":5532:5535   */\n      dup7\n        /* \"#utility.yul\":5528:5542   */\n      add\n        /* \"#utility.yul\":5521:5559   */\n      mstore\n        /* \"#utility.yul\":5580:5653   */\n      tag_318\n        /* \"#utility.yul\":5648:5652   */\n      dup3\n        /* \"#utility.yul\":5634:5646   */\n      dup3\n        /* \"#utility.yul\":5580:5653   */\n      tag_211\n      jump\t// in\n    tag_318:\n        /* \"#utility.yul\":5572:5653   */\n      swap2\n      pop\n        /* \"#utility.yul\":5426:5664   */\n      pop\n        /* \"#utility.yul\":5751:5755   */\n      0x60\n        /* \"#utility.yul\":5744:5749   */\n      dup4\n        /* \"#utility.yul\":5740:5756   */\n      add\n        /* \"#utility.yul\":5734:5757   */\n      mload\n        /* \"#utility.yul\":5770:5833   */\n      tag_319\n        /* \"#utility.yul\":5827:5831   */\n      0x60\n        /* \"#utility.yul\":5822:5825   */\n      dup7\n        /* \"#utility.yul\":5818:5832   */\n      add\n        /* \"#utility.yul\":5804:5816   */\n      dup3\n        /* \"#utility.yul\":5770:5833   */\n      tag_208\n      jump\t// in\n    tag_319:\n        /* \"#utility.yul\":5674:5843   */\n      pop\n        /* \"#utility.yul\":5926:5930   */\n      0x80\n        /* \"#utility.yul\":5919:5924   */\n      dup4\n        /* \"#utility.yul\":5915:5931   */\n      add\n        /* \"#utility.yul\":5909:5932   */\n      mload\n        /* \"#utility.yul\":5945:6008   */\n      tag_320\n        /* \"#utility.yul\":6002:6006   */\n      0x80\n        /* \"#utility.yul\":5997:6000   */\n      dup7\n        /* \"#utility.yul\":5993:6007   */\n      add\n        /* \"#utility.yul\":5979:5991   */\n      dup3\n        /* \"#utility.yul\":5945:6008   */\n      tag_208\n      jump\t// in\n    tag_320:\n        /* \"#utility.yul\":5853:6018   */\n      pop\n        /* \"#utility.yul\":6035:6039   */\n      dup1\n        /* \"#utility.yul\":6028:6039   */\n      swap2\n      pop\n        /* \"#utility.yul\":5032:6045   */\n      pop\n        /* \"#utility.yul\":4924:6045   */\n      swap3\n      swap2\n      pop\n      pop\n      jump\t// out\n        /* \"#utility.yul\":6051:6295   */\n    tag_213:\n        /* \"#utility.yul\":6164:6174   */\n      0x00\n        /* \"#utility.yul\":6199:6289   */\n      tag_322\n        /* \"#utility.yul\":6285:6288   */\n      dup4\n        /* \"#utility.yul\":6277:6283   */\n      dup4\n        /* \"#utility.yul\":6199:6289   */\n      tag_212\n      jump\t// in\n    tag_322:\n        /* \"#utility.yul\":6185:6289   */\n      swap1\n      pop\n        /* \"#utility.yul\":6051:6295   */\n      swap3\n      swap2\n      pop\n      pop\n      jump\t// out\n        /* \"#utility.yul\":6301:6436   */\n    tag_214:\n        /* \"#utility.yul\":6393:6397   */\n      0x00\n        /* \"#utility.yul\":6425:6429   */\n      0x20\n        /* \"#utility.yul\":6420:6423   */\n      dup3\n        /* \"#utility.yul\":6416:6430   */\n      add\n        /* \"#utility.yul\":6408:6430   */\n      swap1\n      pop\n        /* \"#utility.yul\":6301:6436   */\n      swap2\n      swap1\n      pop\n      jump\t// out\n        /* \"#utility.yul\":6498:7585   */\n    tag_215:\n        /* \"#utility.yul\":6661:6664   */\n      0x00\n        /* \"#utility.yul\":6690:6766   */\n      tag_325\n        /* \"#utility.yul\":6760:6765   */\n      dup3\n        /* \"#utility.yul\":6690:6766   */\n      tag_205\n      jump\t// in\n    tag_325:\n        /* \"#utility.yul\":6782:6890   */\n      tag_326\n        /* \"#utility.yul\":6883:6889   */\n      dup2\n        /* \"#utility.yul\":6878:6881   */\n      dup6\n        /* \"#utility.yul\":6782:6890   */\n      tag_206\n      jump\t// in\n    tag_326:\n        /* \"#utility.yul\":6775:6890   */\n      swap4\n      pop\n        /* \"#utility.yul\":6916:6919   */\n      dup4\n        /* \"#utility.yul\":6961:6965   */\n      0x20\n        /* \"#utility.yul\":6953:6959   */\n      dup3\n        /* \"#utility.yul\":6949:6966   */\n      mul\n        /* \"#utility.yul\":6944:6947   */\n      dup6\n        /* \"#utility.yul\":6940:6967   */\n      add\n        /* \"#utility.yul\":6991:7069   */\n      tag_327\n        /* \"#utility.yul\":7063:7068   */\n      dup6\n        /* \"#utility.yul\":6991:7069   */\n      tag_207\n      jump\t// in\n    tag_327:\n        /* \"#utility.yul\":7092:7099   */\n      dup1\n        /* \"#utility.yul\":7123:7124   */\n      0x00\n        /* \"#utility.yul\":7108:7540   */\n    tag_328:\n        /* \"#utility.yul\":7133:7139   */\n      dup6\n        /* \"#utility.yul\":7130:7131   */\n      dup2\n        /* \"#utility.yul\":7127:7140   */\n      lt\n        /* \"#utility.yul\":7108:7540   */\n      iszero\n      tag_330\n      jumpi\n        /* \"#utility.yul\":7204:7213   */\n      dup5\n        /* \"#utility.yul\":7198:7202   */\n      dup5\n        /* \"#utility.yul\":7194:7214   */\n      sub\n        /* \"#utility.yul\":7189:7192   */\n      dup10\n        /* \"#utility.yul\":7182:7215   */\n      mstore\n        /* \"#utility.yul\":7255:7261   */\n      dup2\n        /* \"#utility.yul\":7249:7262   */\n      mload\n        /* \"#utility.yul\":7283:7391   */\n      tag_331\n        /* \"#utility.yul\":7386:7390   */\n      dup6\n        /* \"#utility.yul\":7371:7384   */\n      dup3\n        /* \"#utility.yul\":7283:7391   */\n      tag_213\n      jump\t// in\n    tag_331:\n        /* \"#utility.yul\":7275:7391   */\n      swap5\n      pop\n        /* \"#utility.yul\":7414:7496   */\n      tag_332\n        /* \"#utility.yul\":7489:7495   */\n      dup4\n        /* \"#utility.yul\":7414:7496   */\n      tag_214\n      jump\t// in\n    tag_332:\n        /* \"#utility.yul\":7404:7496   */\n      swap3\n      pop\n        /* \"#utility.yul\":7525:7529   */\n      0x20\n        /* \"#utility.yul\":7520:7523   */\n      dup11\n        /* \"#utility.yul\":7516:7530   */\n      add\n        /* \"#utility.yul\":7509:7530   */\n      swap10\n      pop\n        /* \"#utility.yul\":7168:7540   */\n      pop\n        /* \"#utility.yul\":7155:7156   */\n      0x01\n        /* \"#utility.yul\":7152:7153   */\n      dup2\n        /* \"#utility.yul\":7148:7157   */\n      add\n        /* \"#utility.yul\":7143:7157   */\n      swap1\n      pop\n        /* \"#utility.yul\":7108:7540   */\n      jump(tag_328)\n    tag_330:\n        /* \"#utility.yul\":7112:7126   */\n      pop\n        /* \"#utility.yul\":7556:7560   */\n      dup3\n        /* \"#utility.yul\":7549:7560   */\n      swap8\n      pop\n        /* \"#utility.yul\":7576:7579   */\n      dup8\n        /* \"#utility.yul\":7569:7579   */\n      swap6\n      pop\n        /* \"#utility.yul\":6666:7585   */\n      pop\n      pop\n      pop\n      pop\n      pop\n        /* \"#utility.yul\":6498:7585   */\n      swap3\n      swap2\n      pop\n      pop\n      jump\t// out\n        /* \"#utility.yul\":7591:8052   */\n    tag_27:\n        /* \"#utility.yul\":7778:7782   */\n      0x00\n        /* \"#utility.yul\":7816:7818   */\n      0x20\n        /* \"#utility.yul\":7805:7814   */\n      dup3\n        /* \"#utility.yul\":7801:7819   */\n      add\n        /* \"#utility.yul\":7793:7819   */\n      swap1\n      pop\n        /* \"#utility.yul\":7865:7874   */\n      dup2\n        /* \"#utility.yul\":7859:7863   */\n      dup2\n        /* \"#utility.yul\":7855:7875   */\n      sub\n        /* \"#utility.yul\":7851:7852   */\n      0x00\n        /* \"#utility.yul\":7840:7849   */\n      dup4\n        /* \"#utility.yul\":7836:7853   */\n      add\n        /* \"#utility.yul\":7829:7876   */\n      mstore\n        /* \"#utility.yul\":7893:8045   */\n      tag_334\n        /* \"#utility.yul\":8040:8044   */\n      dup2\n        /* \"#utility.yul\":8031:8037   */\n      dup5\n        /* \"#utility.yul\":7893:8045   */\n      tag_215\n      jump\t// in\n    tag_334:\n        /* \"#utility.yul\":7885:8045   */\n      swap1\n      pop\n        /* \"#utility.yul\":7591:8052   */\n      swap3\n      swap2\n      pop\n      pop\n      jump\t// out\n        /* \"#utility.yul\":8058:8280   */\n    tag_31:\n        /* \"#utility.yul\":8151:8155   */\n      0x00\n        /* \"#utility.yul\":8189:8191   */\n      0x20\n        /* \"#utility.yul\":8178:8187   */\n      dup3\n        /* \"#utility.yul\":8174:8192   */\n      add\n        /* \"#utility.yul\":8166:8192   */\n      swap1\n      pop\n        /* \"#utility.yul\":8202:8273   */\n      tag_336\n        /* \"#utility.yul\":8270:8271   */\n      0x00\n        /* \"#utility.yul\":8259:8268   */\n      dup4\n        /* \"#utility.yul\":8255:8272   */\n      add\n        /* \"#utility.yul\":8246:8252   */\n      dup5\n        /* \"#utility.yul\":8202:8273   */\n      tag_198\n      jump\t// in\n    tag_336:\n        /* \"#utility.yul\":8058:8280   */\n      swap3\n      swap2\n      pop\n      pop\n      jump\t// out\n        /* \"#utility.yul\":8286:8403   */\n    tag_216:\n        /* \"#utility.yul\":8395:8396   */\n      0x00\n        /* \"#utility.yul\":8392:8393   */\n      dup1\n        /* \"#utility.yul\":8385:8397   */\n      revert\n        /* \"#utility.yul\":8409:8526   */\n    tag_217:\n        /* \"#utility.yul\":8518:8519   */\n      0x00\n        /* \"#utility.yul\":8515:8516   */\n      dup1\n        /* \"#utility.yul\":8508:8520   */\n      revert\n        /* \"#utility.yul\":8532:8712   */\n    tag_218:\n        /* \"#utility.yul\":8580:8657   */\n      0x4e487b7100000000000000000000000000000000000000000000000000000000\n        /* \"#utility.yul\":8577:8578   */\n      0x00\n        /* \"#utility.yul\":8570:8658   */\n      mstore\n        /* \"#utility.yul\":8677:8681   */\n      0x41\n        /* \"#utility.yul\":8674:8675   */\n      0x04\n        /* \"#utility.yul\":8667:8682   */\n      mstore\n        /* \"#utility.yul\":8701:8705   */\n      0x24\n        /* \"#utility.yul\":8698:8699   */\n      0x00\n        /* \"#utility.yul\":8691:8706   */\n      revert\n        /* \"#utility.yul\":8718:8999   */\n    tag_219:\n        /* \"#utility.yul\":8801:8828   */\n      tag_341\n        /* \"#utility.yul\":8823:8827   */\n      dup3\n        /* \"#utility.yul\":8801:8828   */\n      tag_203\n      jump\t// in\n    tag_341:\n        /* \"#utility.yul\":8793:8799   */\n      dup2\n        /* \"#utility.yul\":8789:8829   */\n      add\n        /* \"#utility.yul\":8931:8937   */\n      dup2\n        /* \"#utility.yul\":8919:8929   */\n      dup2\n        /* \"#utility.yul\":8916:8938   */\n      lt\n        /* \"#utility.yul\":8895:8913   */\n      0xffffffffffffffff\n        /* \"#utility.yul\":8883:8893   */\n      dup3\n        /* \"#utility.yul\":8880:8914   */\n      gt\n        /* \"#utility.yul\":8877:8939   */\n      or\n        /* \"#utility.yul\":8874:8962   */\n      iszero\n      tag_342\n      jumpi\n        /* \"#utility.yul\":8942:8960   */\n      tag_343\n      tag_218\n      jump\t// in\n    tag_343:\n        /* \"#utility.yul\":8874:8962   */\n    tag_342:\n        /* \"#utility.yul\":8982:8992   */\n      dup1\n        /* \"#utility.yul\":8978:8980   */\n      0x40\n        /* \"#utility.yul\":8971:8993   */\n      mstore\n        /* \"#utility.yul\":8761:8999   */\n      pop\n        /* \"#utility.yul\":8718:8999   */\n      pop\n      pop\n      jump\t// out\n        /* \"#utility.yul\":9005:9134   */\n    tag_220:\n        /* \"#utility.yul\":9039:9045   */\n      0x00\n        /* \"#utility.yul\":9066:9086   */\n      tag_345\n      tag_188\n      jump\t// in\n    tag_345:\n        /* \"#utility.yul\":9056:9086   */\n      swap1\n      pop\n        /* \"#utility.yul\":9095:9128   */\n      tag_346\n        /* \"#utility.yul\":9123:9127   */\n      dup3\n        /* \"#utility.yul\":9115:9121   */\n      dup3\n        /* \"#utility.yul\":9095:9128   */\n      tag_219\n      jump\t// in\n    tag_346:\n        /* \"#utility.yul\":9005:9134   */\n      swap2\n      swap1\n      pop\n      jump\t// out\n        /* \"#utility.yul\":9140:9448   */\n    tag_221:\n        /* \"#utility.yul\":9202:9206   */\n      0x00\n        /* \"#utility.yul\":9292:9310   */\n      0xffffffffffffffff\n        /* \"#utility.yul\":9284:9290   */\n      dup3\n        /* \"#utility.yul\":9281:9311   */\n      gt\n        /* \"#utility.yul\":9278:9334   */\n      iszero\n      tag_348\n      jumpi\n        /* \"#utility.yul\":9314:9332   */\n      tag_349\n      tag_218\n      jump\t// in\n    tag_349:\n        /* \"#utility.yul\":9278:9334   */\n    tag_348:\n        /* \"#utility.yul\":9352:9381   */\n      tag_350\n        /* \"#utility.yul\":9374:9380   */\n      dup3\n        /* \"#utility.yul\":9352:9381   */\n      tag_203\n      jump\t// in\n    tag_350:\n        /* \"#utility.yul\":9344:9381   */\n      swap1\n      pop\n        /* \"#utility.yul\":9436:9440   */\n      0x20\n        /* \"#utility.yul\":9430:9434   */\n      dup2\n        /* \"#utility.yul\":9426:9441   */\n      add\n        /* \"#utility.yul\":9418:9441   */\n      swap1\n      pop\n        /* \"#utility.yul\":9140:9448   */\n      swap2\n      swap1\n      pop\n      jump\t// out\n        /* \"#utility.yul\":9454:9602   */\n    tag_222:\n        /* \"#utility.yul\":9552:9558   */\n      dup3\n        /* \"#utility.yul\":9547:9550   */\n      dup2\n        /* \"#utility.yul\":9542:9545   */\n      dup4\n        /* \"#utility.yul\":9529:9559   */\n      calldatacopy\n        /* \"#utility.yul\":9593:9594   */\n      0x00\n        /* \"#utility.yul\":9584:9590   */\n      dup4\n        /* \"#utility.yul\":9579:9582   */\n      dup4\n        /* \"#utility.yul\":9575:9591   */\n      add\n        /* \"#utility.yul\":9568:9595   */\n      mstore\n        /* \"#utility.yul\":9454:9602   */\n      pop\n      pop\n      pop\n      jump\t// out\n        /* \"#utility.yul\":9608:10033   */\n    tag_223:\n        /* \"#utility.yul\":9686:9691   */\n      0x00\n        /* \"#utility.yul\":9711:9777   */\n      tag_353\n        /* \"#utility.yul\":9727:9776   */\n      tag_354\n        /* \"#utility.yul\":9769:9775   */\n      dup5\n        /* \"#utility.yul\":9727:9776   */\n      tag_221\n      jump\t// in\n    tag_354:\n        /* \"#utility.yul\":9711:9777   */\n      tag_220\n      jump\t// in\n    tag_353:\n        /* \"#utility.yul\":9702:9777   */\n      swap1\n      pop\n        /* \"#utility.yul\":9800:9806   */\n      dup3\n        /* \"#utility.yul\":9793:9798   */\n      dup2\n        /* \"#utility.yul\":9786:9807   */\n      mstore\n        /* \"#utility.yul\":9838:9842   */\n      0x20\n        /* \"#utility.yul\":9831:9836   */\n      dup2\n        /* \"#utility.yul\":9827:9843   */\n      add\n        /* \"#utility.yul\":9876:9879   */\n      dup5\n        /* \"#utility.yul\":9867:9873   */\n      dup5\n        /* \"#utility.yul\":9862:9865   */\n      dup5\n        /* \"#utility.yul\":9858:9874   */\n      add\n        /* \"#utility.yul\":9855:9880   */\n      gt\n        /* \"#utility.yul\":9852:9964   */\n      iszero\n      tag_355\n      jumpi\n        /* \"#utility.yul\":9883:9962   */\n      tag_356\n      tag_217\n      jump\t// in\n    tag_356:\n        /* \"#utility.yul\":9852:9964   */\n    tag_355:\n        /* \"#utility.yul\":9973:10027   */\n      tag_357\n        /* \"#utility.yul\":10020:10026   */\n      dup5\n        /* \"#utility.yul\":10015:10018   */\n      dup3\n        /* \"#utility.yul\":10010:10013   */\n      dup6\n        /* \"#utility.yul\":9973:10027   */\n      tag_222\n      jump\t// in\n    tag_357:\n        /* \"#utility.yul\":9692:10033   */\n      pop\n        /* \"#utility.yul\":9608:10033   */\n      swap4\n      swap3\n      pop\n      pop\n      pop\n      jump\t// out\n        /* \"#utility.yul\":10053:10393   */\n    tag_224:\n        /* \"#utility.yul\":10109:10114   */\n      0x00\n        /* \"#utility.yul\":10158:10161   */\n      dup3\n        /* \"#utility.yul\":10151:10155   */\n      0x1f\n        /* \"#utility.yul\":10143:10149   */\n      dup4\n        /* \"#utility.yul\":10139:10156   */\n      add\n        /* \"#utility.yul\":10135:10162   */\n      slt\n        /* \"#utility.yul\":10125:10247   */\n      tag_359\n      jumpi\n        /* \"#utility.yul\":10166:10245   */\n      tag_360\n      tag_216\n      jump\t// in\n    tag_360:\n        /* \"#utility.yul\":10125:10247   */\n    tag_359:\n        /* \"#utility.yul\":10283:10289   */\n      dup2\n        /* \"#utility.yul\":10270:10290   */\n      calldataload\n        /* \"#utility.yul\":10308:10387   */\n      tag_361\n        /* \"#utility.yul\":10383:10386   */\n      dup5\n        /* \"#utility.yul\":10375:10381   */\n      dup3\n        /* \"#utility.yul\":10368:10372   */\n      0x20\n        /* \"#utility.yul\":10360:10366   */\n      dup7\n        /* \"#utility.yul\":10356:10373   */\n      add\n        /* \"#utility.yul\":10308:10387   */\n      tag_223\n      jump\t// in\n    tag_361:\n        /* \"#utility.yul\":10299:10387   */\n      swap2\n      pop\n        /* \"#utility.yul\":10115:10393   */\n      pop\n        /* \"#utility.yul\":10053:10393   */\n      swap3\n      swap2\n      pop\n      pop\n      jump\t// out\n        /* \"#utility.yul\":10399:10908   */\n    tag_36:\n        /* \"#utility.yul\":10468:10474   */\n      0x00\n        /* \"#utility.yul\":10517:10519   */\n      0x20\n        /* \"#utility.yul\":10505:10514   */\n      dup3\n        /* \"#utility.yul\":10496:10503   */\n      dup5\n        /* \"#utility.yul\":10492:10515   */\n      sub\n        /* \"#utility.yul\":10488:10520   */\n      slt\n        /* \"#utility.yul\":10485:10604   */\n      iszero\n      tag_363\n      jumpi\n        /* \"#utility.yul\":10523:10602   */\n      tag_364\n      tag_189\n      jump\t// in\n    tag_364:\n        /* \"#utility.yul\":10485:10604   */\n    tag_363:\n        /* \"#utility.yul\":10671:10672   */\n      0x00\n        /* \"#utility.yul\":10660:10669   */\n      dup3\n        /* \"#utility.yul\":10656:10673   */\n      add\n        /* \"#utility.yul\":10643:10674   */\n      calldataload\n        /* \"#utility.yul\":10701:10719   */\n      0xffffffffffffffff\n        /* \"#utility.yul\":10693:10699   */\n      dup2\n        /* \"#utility.yul\":10690:10720   */\n      gt\n        /* \"#utility.yul\":10687:10804   */\n      iszero\n      tag_365\n      jumpi\n        /* \"#utility.yul\":10723:10802   */\n      tag_366\n      tag_190\n      jump\t// in\n    tag_366:\n        /* \"#utility.yul\":10687:10804   */\n    tag_365:\n        /* \"#utility.yul\":10828:10891   */\n      tag_367\n        /* \"#utility.yul\":10883:10890   */\n      dup5\n        /* \"#utility.yul\":10874:10880   */\n      dup3\n        /* \"#utility.yul\":10863:10872   */\n      dup6\n        /* \"#utility.yul\":10859:10881   */\n      add\n        /* \"#utility.yul\":10828:10891   */\n      tag_224\n      jump\t// in\n    tag_367:\n        /* \"#utility.yul\":10818:10891   */\n      swap2\n      pop\n        /* \"#utility.yul\":10614:10901   */\n      pop\n        /* \"#utility.yul\":10399:10908   */\n      swap3\n      swap2\n      pop\n      pop\n      jump\t// out\n        /* \"#utility.yul\":10914:11243   */\n    tag_40:\n        /* \"#utility.yul\":10973:10979   */\n      0x00\n        /* \"#utility.yul\":11022:11024   */\n      0x20\n        /* \"#utility.yul\":11010:11019   */\n      dup3\n        /* \"#utility.yul\":11001:11008   */\n      dup5\n        /* \"#utility.yul\":10997:11020   */\n      sub\n        /* \"#utility.yul\":10993:11025   */\n      slt\n        /* \"#utility.yul\":10990:11109   */\n      iszero\n      tag_369\n      jumpi\n        /* \"#utility.yul\":11028:11107   */\n      tag_370\n      tag_189\n      jump\t// in\n    tag_370:\n        /* \"#utility.yul\":10990:11109   */\n    tag_369:\n        /* \"#utility.yul\":11148:11149   */\n      0x00\n        /* \"#utility.yul\":11173:11226   */\n      tag_371\n        /* \"#utility.yul\":11218:11225   */\n      dup5\n        /* \"#utility.yul\":11209:11215   */\n      dup3\n        /* \"#utility.yul\":11198:11207   */\n      dup6\n        /* \"#utility.yul\":11194:11216   */\n      add\n        /* \"#utility.yul\":11173:11226   */\n      tag_197\n      jump\t// in\n    tag_371:\n        /* \"#utility.yul\":11163:11226   */\n      swap2\n      pop\n        /* \"#utility.yul\":11119:11236   */\n      pop\n        /* \"#utility.yul\":10914:11243   */\n      swap3\n      swap2\n      pop\n      pop\n      jump\t// out\n        /* \"#utility.yul\":11249:11471   */\n    tag_45:\n        /* \"#utility.yul\":11342:11346   */\n      0x00\n        /* \"#utility.yul\":11380:11382   */\n      0x20\n        /* \"#utility.yul\":11369:11378   */\n      dup3\n        /* \"#utility.yul\":11365:11383   */\n      add\n        /* \"#utility.yul\":11357:11383   */\n      swap1\n      pop\n        /* \"#utility.yul\":11393:11464   */\n      tag_373\n        /* \"#utility.yul\":11461:11462   */\n      0x00\n        /* \"#utility.yul\":11450:11459   */\n      dup4\n        /* \"#utility.yul\":11446:11463   */\n      add\n        /* \"#utility.yul\":11437:11443   */\n      dup5\n        /* \"#utility.yul\":11393:11464   */\n      tag_199\n      jump\t// in\n    tag_373:\n        /* \"#utility.yul\":11249:11471   */\n      swap3\n      swap2\n      pop\n      pop\n      jump\t// out\n        /* \"#utility.yul\":11477:11537   */\n    tag_225:\n        /* \"#utility.yul\":11505:11508   */\n      0x00\n        /* \"#utility.yul\":11526:11531   */\n      dup2\n        /* \"#utility.yul\":11519:11531   */\n      swap1\n      pop\n        /* \"#utility.yul\":11477:11537   */\n      swap2\n      swap1\n      pop\n      jump\t// out\n        /* \"#utility.yul\":11543:11685   */\n    tag_226:\n        /* \"#utility.yul\":11593:11602   */\n      0x00\n        /* \"#utility.yul\":11626:11679   */\n      tag_376\n        /* \"#utility.yul\":11644:11678   */\n      tag_377\n        /* \"#utility.yul\":11653:11677   */\n      tag_378\n        /* \"#utility.yul\":11671:11676   */\n      dup5\n        /* \"#utility.yul\":11653:11677   */\n      tag_191\n      jump\t// in\n    tag_378:\n        /* \"#utility.yul\":11644:11678   */\n      tag_225\n      jump\t// in\n    tag_377:\n        /* \"#utility.yul\":11626:11679   */\n      tag_191\n      jump\t// in\n    tag_376:\n        /* \"#utility.yul\":11613:11679   */\n      swap1\n      pop\n        /* \"#utility.yul\":11543:11685   */\n      swap2\n      swap1\n      pop\n      jump\t// out\n        /* \"#utility.yul\":11691:11817   */\n    tag_227:\n        /* \"#utility.yul\":11741:11750   */\n      0x00\n        /* \"#utility.yul\":11774:11811   */\n      tag_380\n        /* \"#utility.yul\":11805:11810   */\n      dup3\n        /* \"#utility.yul\":11774:11811   */\n      tag_226\n      jump\t// in\n    tag_380:\n        /* \"#utility.yul\":11761:11811   */\n      swap1\n      pop\n        /* \"#utility.yul\":11691:11817   */\n      swap2\n      swap1\n      pop\n      jump\t// out\n        /* \"#utility.yul\":11823:11965   */\n    tag_228:\n        /* \"#utility.yul\":11889:11898   */\n      0x00\n        /* \"#utility.yul\":11922:11959   */\n      tag_382\n        /* \"#utility.yul\":11953:11958   */\n      dup3\n        /* \"#utility.yul\":11922:11959   */\n      tag_227\n      jump\t// in\n    tag_382:\n        /* \"#utility.yul\":11909:11959   */\n      swap1\n      pop\n        /* \"#utility.yul\":11823:11965   */\n      swap2\n      swap1\n      pop\n      jump\t// out\n        /* \"#utility.yul\":11971:12134   */\n    tag_229:\n        /* \"#utility.yul\":12074:12127   */\n      tag_384\n        /* \"#utility.yul\":12121:12126   */\n      dup2\n        /* \"#utility.yul\":12074:12127   */\n      tag_228\n      jump\t// in\n    tag_384:\n        /* \"#utility.yul\":12069:12072   */\n      dup3\n        /* \"#utility.yul\":12062:12128   */\n      mstore\n        /* \"#utility.yul\":11971:12134   */\n      pop\n      pop\n      jump\t// out\n        /* \"#utility.yul\":12140:12394   */\n    tag_52:\n        /* \"#utility.yul\":12249:12253   */\n      0x00\n        /* \"#utility.yul\":12287:12289   */\n      0x20\n        /* \"#utility.yul\":12276:12285   */\n      dup3\n        /* \"#utility.yul\":12272:12290   */\n      add\n        /* \"#utility.yul\":12264:12290   */\n      swap1\n      pop\n        /* \"#utility.yul\":12300:12387   */\n      tag_386\n        /* \"#utility.yul\":12384:12385   */\n      0x00\n        /* \"#utility.yul\":12373:12382   */\n      dup4\n        /* \"#utility.yul\":12369:12386   */\n      add\n        /* \"#utility.yul\":12360:12366   */\n      dup5\n        /* \"#utility.yul\":12300:12387   */\n      tag_229\n      jump\t// in\n    tag_386:\n        /* \"#utility.yul\":12140:12394   */\n      swap3\n      swap2\n      pop\n      pop\n      jump\t// out\n        /* \"#utility.yul\":12452:13583   */\n    tag_230:\n        /* \"#utility.yul\":12565:12568   */\n      0x00\n        /* \"#utility.yul\":12601:12605   */\n      0xa0\n        /* \"#utility.yul\":12596:12599   */\n      dup4\n        /* \"#utility.yul\":12592:12606   */\n      add\n        /* \"#utility.yul\":12686:12690   */\n      0x00\n        /* \"#utility.yul\":12679:12684   */\n      dup4\n        /* \"#utility.yul\":12675:12691   */\n      add\n        /* \"#utility.yul\":12669:12692   */\n      mload\n        /* \"#utility.yul\":12705:12768   */\n      tag_388\n        /* \"#utility.yul\":12762:12766   */\n      0x00\n        /* \"#utility.yul\":12757:12760   */\n      dup7\n        /* \"#utility.yul\":12753:12767   */\n      add\n        /* \"#utility.yul\":12739:12751   */\n      dup3\n        /* \"#utility.yul\":12705:12768   */\n      tag_208\n      jump\t// in\n    tag_388:\n        /* \"#utility.yul\":12616:12778   */\n      pop\n        /* \"#utility.yul\":12862:12866   */\n      0x20\n        /* \"#utility.yul\":12855:12860   */\n      dup4\n        /* \"#utility.yul\":12851:12867   */\n      add\n        /* \"#utility.yul\":12845:12868   */\n      mload\n        /* \"#utility.yul\":12881:12944   */\n      tag_389\n        /* \"#utility.yul\":12938:12942   */\n      0x20\n        /* \"#utility.yul\":12933:12936   */\n      dup7\n        /* \"#utility.yul\":12929:12943   */\n      add\n        /* \"#utility.yul\":12915:12927   */\n      dup3\n        /* \"#utility.yul\":12881:12944   */\n      tag_209\n      jump\t// in\n    tag_389:\n        /* \"#utility.yul\":12788:12954   */\n      pop\n        /* \"#utility.yul\":13039:13043   */\n      0x40\n        /* \"#utility.yul\":13032:13037   */\n      dup4\n        /* \"#utility.yul\":13028:13044   */\n      add\n        /* \"#utility.yul\":13022:13045   */\n      mload\n        /* \"#utility.yul\":13092:13095   */\n      dup5\n        /* \"#utility.yul\":13086:13090   */\n      dup3\n        /* \"#utility.yul\":13082:13096   */\n      sub\n        /* \"#utility.yul\":13075:13079   */\n      0x40\n        /* \"#utility.yul\":13070:13073   */\n      dup7\n        /* \"#utility.yul\":13066:13080   */\n      add\n        /* \"#utility.yul\":13059:13097   */\n      mstore\n        /* \"#utility.yul\":13118:13191   */\n      tag_390\n        /* \"#utility.yul\":13186:13190   */\n      dup3\n        /* \"#utility.yul\":13172:13184   */\n      dup3\n        /* \"#utility.yul\":13118:13191   */\n      tag_211\n      jump\t// in\n    tag_390:\n        /* \"#utility.yul\":13110:13191   */\n      swap2\n      pop\n        /* \"#utility.yul\":12964:13202   */\n      pop\n        /* \"#utility.yul\":13289:13293   */\n      0x60\n        /* \"#utility.yul\":13282:13287   */\n      dup4\n        /* \"#utility.yul\":13278:13294   */\n      add\n        /* \"#utility.yul\":13272:13295   */\n      mload\n        /* \"#utility.yul\":13308:13371   */\n      tag_391\n        /* \"#utility.yul\":13365:13369   */\n      0x60\n        /* \"#utility.yul\":13360:13363   */\n      dup7\n        /* \"#utility.yul\":13356:13370   */\n      add\n        /* \"#utility.yul\":13342:13354   */\n      dup3\n        /* \"#utility.yul\":13308:13371   */\n      tag_208\n      jump\t// in\n    tag_391:\n        /* \"#utility.yul\":13212:13381   */\n      pop\n        /* \"#utility.yul\":13464:13468   */\n      0x80\n        /* \"#utility.yul\":13457:13462   */\n      dup4\n        /* \"#utility.yul\":13453:13469   */\n      add\n        /* \"#utility.yul\":13447:13470   */\n      mload\n        /* \"#utility.yul\":13483:13546   */\n      tag_392\n        /* \"#utility.yul\":13540:13544   */\n      0x80\n        /* \"#utility.yul\":13535:13538   */\n      dup7\n        /* \"#utility.yul\":13531:13545   */\n      add\n        /* \"#utility.yul\":13517:13529   */\n      dup3\n        /* \"#utility.yul\":13483:13546   */\n      tag_208\n      jump\t// in\n    tag_392:\n        /* \"#utility.yul\":13391:13556   */\n      pop\n        /* \"#utility.yul\":13573:13577   */\n      dup1\n        /* \"#utility.yul\":13566:13577   */\n      swap2\n      pop\n        /* \"#utility.yul\":12570:13583   */\n      pop\n        /* \"#utility.yul\":12452:13583   */\n      swap3\n      swap2\n      pop\n      pop\n      jump\t// out\n        /* \"#utility.yul\":13589:13950   */\n    tag_60:\n        /* \"#utility.yul\":13726:13730   */\n      0x00\n        /* \"#utility.yul\":13764:13766   */\n      0x20\n        /* \"#utility.yul\":13753:13762   */\n      dup3\n        /* \"#utility.yul\":13749:13767   */\n      add\n        /* \"#utility.yul\":13741:13767   */\n      swap1\n      pop\n        /* \"#utility.yul\":13813:13822   */\n      dup2\n        /* \"#utility.yul\":13807:13811   */\n      dup2\n        /* \"#utility.yul\":13803:13823   */\n      sub\n        /* \"#utility.yul\":13799:13800   */\n      0x00\n        /* \"#utility.yul\":13788:13797   */\n      dup4\n        /* \"#utility.yul\":13784:13801   */\n      add\n        /* \"#utility.yul\":13777:13824   */\n      mstore\n        /* \"#utility.yul\":13841:13943   */\n      tag_394\n        /* \"#utility.yul\":13938:13942   */\n      dup2\n        /* \"#utility.yul\":13929:13935   */\n      dup5\n        /* \"#utility.yul\":13841:13943   */\n      tag_230\n      jump\t// in\n    tag_394:\n        /* \"#utility.yul\":13833:13943   */\n      swap1\n      pop\n        /* \"#utility.yul\":13589:13950   */\n      swap3\n      swap2\n      pop\n      pop\n      jump\t// out\n        /* \"#utility.yul\":13956:14285   */\n    tag_63:\n        /* \"#utility.yul\":14015:14021   */\n      0x00\n        /* \"#utility.yul\":14064:14066   */\n      0x20\n        /* \"#utility.yul\":14052:14061   */\n      dup3\n        /* \"#utility.yul\":14043:14050   */\n      dup5\n        /* \"#utility.yul\":14039:14062   */\n      sub\n        /* \"#utility.yul\":14035:14067   */\n      slt\n        /* \"#utility.yul\":14032:14151   */\n      iszero\n      tag_396\n      jumpi\n        /* \"#utility.yul\":14070:14149   */\n      tag_397\n      tag_189\n      jump\t// in\n    tag_397:\n        /* \"#utility.yul\":14032:14151   */\n    tag_396:\n        /* \"#utility.yul\":14190:14191   */\n      0x00\n        /* \"#utility.yul\":14215:14268   */\n      tag_398\n        /* \"#utility.yul\":14260:14267   */\n      dup5\n        /* \"#utility.yul\":14251:14257   */\n      dup3\n        /* \"#utility.yul\":14240:14249   */\n      dup6\n        /* \"#utility.yul\":14236:14258   */\n      add\n        /* \"#utility.yul\":14215:14268   */\n      tag_194\n      jump\t// in\n    tag_398:\n        /* \"#utility.yul\":14205:14268   */\n      swap2\n      pop\n        /* \"#utility.yul\":14161:14278   */\n      pop\n        /* \"#utility.yul\":13956:14285   */\n      swap3\n      swap2\n      pop\n      pop\n      jump\t// out\n        /* \"#utility.yul\":14291:14471   */\n    tag_231:\n        /* \"#utility.yul\":14339:14416   */\n      0x4e487b7100000000000000000000000000000000000000000000000000000000\n        /* \"#utility.yul\":14336:14337   */\n      0x00\n        /* \"#utility.yul\":14329:14417   */\n      mstore\n        /* \"#utility.yul\":14436:14440   */\n      0x22\n        /* \"#utility.yul\":14433:14434   */\n      0x04\n        /* \"#utility.yul\":14426:14441   */\n      mstore\n        /* \"#utility.yul\":14460:14464   */\n      0x24\n        /* \"#utility.yul\":14457:14458   */\n      0x00\n        /* \"#utility.yul\":14450:14465   */\n      revert\n        /* \"#utility.yul\":14477:14797   */\n    tag_72:\n        /* \"#utility.yul\":14521:14527   */\n      0x00\n        /* \"#utility.yul\":14558:14559   */\n      0x02\n        /* \"#utility.yul\":14552:14556   */\n      dup3\n        /* \"#utility.yul\":14548:14560   */\n      div\n        /* \"#utility.yul\":14538:14560   */\n      swap1\n      pop\n        /* \"#utility.yul\":14605:14606   */\n      0x01\n        /* \"#utility.yul\":14599:14603   */\n      dup3\n        /* \"#utility.yul\":14595:14607   */\n      and\n        /* \"#utility.yul\":14626:14644   */\n      dup1\n        /* \"#utility.yul\":14616:14697   */\n      tag_401\n      jumpi\n        /* \"#utility.yul\":14682:14686   */\n      0x7f\n        /* \"#utility.yul\":14674:14680   */\n      dup3\n        /* \"#utility.yul\":14670:14687   */\n      and\n        /* \"#utility.yul\":14660:14687   */\n      swap2\n      pop\n        /* \"#utility.yul\":14616:14697   */\n    tag_401:\n        /* \"#utility.yul\":14744:14746   */\n      0x20\n        /* \"#utility.yul\":14736:14742   */\n      dup3\n        /* \"#utility.yul\":14733:14747   */\n      lt\n        /* \"#utility.yul\":14713:14731   */\n      dup2\n        /* \"#utility.yul\":14710:14748   */\n      sub\n        /* \"#utility.yul\":14707:14791   */\n      tag_402\n      jumpi\n        /* \"#utility.yul\":14763:14781   */\n      tag_403\n      tag_231\n      jump\t// in\n    tag_403:\n        /* \"#utility.yul\":14707:14791   */\n    tag_402:\n        /* \"#utility.yul\":14528:14797   */\n      pop\n        /* \"#utility.yul\":14477:14797   */\n      swap2\n      swap1\n      pop\n      jump\t// out\n        /* \"#utility.yul\":14803:14920   */\n    tag_232:\n        /* \"#utility.yul\":14912:14913   */\n      0x00\n        /* \"#utility.yul\":14909:14910   */\n      dup1\n        /* \"#utility.yul\":14902:14914   */\n      revert\n        /* \"#utility.yul\":14926:15043   */\n    tag_233:\n        /* \"#utility.yul\":15035:15036   */\n      0x00\n        /* \"#utility.yul\":15032:15033   */\n      dup1\n        /* \"#utility.yul\":15025:15037   */\n      revert\n        /* \"#utility.yul\":15049:15483   */\n    tag_234:\n        /* \"#utility.yul\":15138:15143   */\n      0x00\n        /* \"#utility.yul\":15163:15229   */\n      tag_407\n        /* \"#utility.yul\":15179:15228   */\n      tag_408\n        /* \"#utility.yul\":15221:15227   */\n      dup5\n        /* \"#utility.yul\":15179:15228   */\n      tag_221\n      jump\t// in\n    tag_408:\n        /* \"#utility.yul\":15163:15229   */\n      tag_220\n      jump\t// in\n    tag_407:\n        /* \"#utility.yul\":15154:15229   */\n      swap1\n      pop\n        /* \"#utility.yul\":15252:15258   */\n      dup3\n        /* \"#utility.yul\":15245:15250   */\n      dup2\n        /* \"#utility.yul\":15238:15259   */\n      mstore\n        /* \"#utility.yul\":15290:15294   */\n      0x20\n        /* \"#utility.yul\":15283:15288   */\n      dup2\n        /* \"#utility.yul\":15279:15295   */\n      add\n        /* \"#utility.yul\":15328:15331   */\n      dup5\n        /* \"#utility.yul\":15319:15325   */\n      dup5\n        /* \"#utility.yul\":15314:15317   */\n      dup5\n        /* \"#utility.yul\":15310:15326   */\n      add\n        /* \"#utility.yul\":15307:15332   */\n      gt\n        /* \"#utility.yul\":15304:15416   */\n      iszero\n      tag_409\n      jumpi\n        /* \"#utility.yul\":15335:15414   */\n      tag_410\n      tag_217\n      jump\t// in\n    tag_410:\n        /* \"#utility.yul\":15304:15416   */\n    tag_409:\n        /* \"#utility.yul\":15425:15477   */\n      tag_411\n        /* \"#utility.yul\":15470:15476   */\n      dup5\n        /* \"#utility.yul\":15465:15468   */\n      dup3\n        /* \"#utility.yul\":15460:15463   */\n      dup6\n        /* \"#utility.yul\":15425:15477   */\n      tag_202\n      jump\t// in\n    tag_411:\n        /* \"#utility.yul\":15144:15483   */\n      pop\n        /* \"#utility.yul\":15049:15483   */\n      swap4\n      swap3\n      pop\n      pop\n      pop\n      jump\t// out\n        /* \"#utility.yul\":15503:15858   */\n    tag_235:\n        /* \"#utility.yul\":15570:15575   */\n      0x00\n        /* \"#utility.yul\":15619:15622   */\n      dup3\n        /* \"#utility.yul\":15612:15616   */\n      0x1f\n        /* \"#utility.yul\":15604:15610   */\n      dup4\n        /* \"#utility.yul\":15600:15617   */\n      add\n        /* \"#utility.yul\":15596:15623   */\n      slt\n        /* \"#utility.yul\":15586:15708   */\n      tag_413\n      jumpi\n        /* \"#utility.yul\":15627:15706   */\n      tag_414\n      tag_216\n      jump\t// in\n    tag_414:\n        /* \"#utility.yul\":15586:15708   */\n    tag_413:\n        /* \"#utility.yul\":15737:15743   */\n      dup2\n        /* \"#utility.yul\":15731:15744   */\n      mload\n        /* \"#utility.yul\":15762:15852   */\n      tag_415\n        /* \"#utility.yul\":15848:15851   */\n      dup5\n        /* \"#utility.yul\":15840:15846   */\n      dup3\n        /* \"#utility.yul\":15833:15837   */\n      0x20\n        /* \"#utility.yul\":15825:15831   */\n      dup7\n        /* \"#utility.yul\":15821:15838   */\n      add\n        /* \"#utility.yul\":15762:15852   */\n      tag_234\n      jump\t// in\n    tag_415:\n        /* \"#utility.yul\":15753:15852   */\n      swap2\n      pop\n        /* \"#utility.yul\":15576:15858   */\n      pop\n        /* \"#utility.yul\":15503:15858   */\n      swap3\n      swap2\n      pop\n      pop\n      jump\t// out\n        /* \"#utility.yul\":15899:16841   */\n    tag_236:\n        /* \"#utility.yul\":15987:15992   */\n      0x00\n        /* \"#utility.yul\":16031:16035   */\n      0x40\n        /* \"#utility.yul\":16019:16028   */\n      dup3\n        /* \"#utility.yul\":16014:16017   */\n      dup5\n        /* \"#utility.yul\":16010:16029   */\n      sub\n        /* \"#utility.yul\":16006:16036   */\n      slt\n        /* \"#utility.yul\":16003:16120   */\n      iszero\n      tag_417\n      jumpi\n        /* \"#utility.yul\":16039:16118   */\n      tag_418\n      tag_232\n      jump\t// in\n    tag_418:\n        /* \"#utility.yul\":16003:16120   */\n    tag_417:\n        /* \"#utility.yul\":16138:16159   */\n      tag_419\n        /* \"#utility.yul\":16154:16158   */\n      0x40\n        /* \"#utility.yul\":16138:16159   */\n      tag_220\n      jump\t// in\n    tag_419:\n        /* \"#utility.yul\":16129:16159   */\n      swap1\n      pop\n        /* \"#utility.yul\":16246:16247   */\n      0x00\n        /* \"#utility.yul\":16235:16244   */\n      dup3\n        /* \"#utility.yul\":16231:16248   */\n      add\n        /* \"#utility.yul\":16225:16249   */\n      mload\n        /* \"#utility.yul\":16276:16294   */\n      0xffffffffffffffff\n        /* \"#utility.yul\":16268:16274   */\n      dup2\n        /* \"#utility.yul\":16265:16295   */\n      gt\n        /* \"#utility.yul\":16262:16379   */\n      iszero\n      tag_420\n      jumpi\n        /* \"#utility.yul\":16298:16377   */\n      tag_421\n      tag_233\n      jump\t// in\n    tag_421:\n        /* \"#utility.yul\":16262:16379   */\n    tag_420:\n        /* \"#utility.yul\":16418:16488   */\n      tag_422\n        /* \"#utility.yul\":16484:16487   */\n      dup5\n        /* \"#utility.yul\":16475:16481   */\n      dup3\n        /* \"#utility.yul\":16464:16473   */\n      dup6\n        /* \"#utility.yul\":16460:16482   */\n      add\n        /* \"#utility.yul\":16418:16488   */\n      tag_235\n      jump\t// in\n    tag_422:\n        /* \"#utility.yul\":16411:16415   */\n      0x00\n        /* \"#utility.yul\":16404:16409   */\n      dup4\n        /* \"#utility.yul\":16400:16416   */\n      add\n        /* \"#utility.yul\":16393:16489   */\n      mstore\n        /* \"#utility.yul\":16169:16500   */\n      pop\n        /* \"#utility.yul\":16579:16581   */\n      0x20\n        /* \"#utility.yul\":16568:16577   */\n      dup3\n        /* \"#utility.yul\":16564:16582   */\n      add\n        /* \"#utility.yul\":16558:16583   */\n      mload\n        /* \"#utility.yul\":16610:16628   */\n      0xffffffffffffffff\n        /* \"#utility.yul\":16602:16608   */\n      dup2\n        /* \"#utility.yul\":16599:16629   */\n      gt\n        /* \"#utility.yul\":16596:16713   */\n      iszero\n      tag_423\n      jumpi\n        /* \"#utility.yul\":16632:16711   */\n      tag_424\n      tag_233\n      jump\t// in\n    tag_424:\n        /* \"#utility.yul\":16596:16713   */\n    tag_423:\n        /* \"#utility.yul\":16752:16822   */\n      tag_425\n        /* \"#utility.yul\":16818:16821   */\n      dup5\n        /* \"#utility.yul\":16809:16815   */\n      dup3\n        /* \"#utility.yul\":16798:16807   */\n      dup6\n        /* \"#utility.yul\":16794:16816   */\n      add\n        /* \"#utility.yul\":16752:16822   */\n      tag_235\n      jump\t// in\n    tag_425:\n        /* \"#utility.yul\":16745:16749   */\n      0x20\n        /* \"#utility.yul\":16738:16743   */\n      dup4\n        /* \"#utility.yul\":16734:16750   */\n      add\n        /* \"#utility.yul\":16727:16823   */\n      mstore\n        /* \"#utility.yul\":16510:16834   */\n      pop\n        /* \"#utility.yul\":15899:16841   */\n      swap3\n      swap2\n      pop\n      pop\n      jump\t// out\n        /* \"#utility.yul\":16847:17407   */\n    tag_97:\n        /* \"#utility.yul\":16945:16951   */\n      0x00\n        /* \"#utility.yul\":16994:16996   */\n      0x20\n        /* \"#utility.yul\":16982:16991   */\n      dup3\n        /* \"#utility.yul\":16973:16980   */\n      dup5\n        /* \"#utility.yul\":16969:16992   */\n      sub\n        /* \"#utility.yul\":16965:16997   */\n      slt\n        /* \"#utility.yul\":16962:17081   */\n      iszero\n      tag_427\n      jumpi\n        /* \"#utility.yul\":17000:17079   */\n      tag_428\n      tag_189\n      jump\t// in\n    tag_428:\n        /* \"#utility.yul\":16962:17081   */\n    tag_427:\n        /* \"#utility.yul\":17141:17142   */\n      0x00\n        /* \"#utility.yul\":17130:17139   */\n      dup3\n        /* \"#utility.yul\":17126:17143   */\n      add\n        /* \"#utility.yul\":17120:17144   */\n      mload\n        /* \"#utility.yul\":17171:17189   */\n      0xffffffffffffffff\n        /* \"#utility.yul\":17163:17169   */\n      dup2\n        /* \"#utility.yul\":17160:17190   */\n      gt\n        /* \"#utility.yul\":17157:17274   */\n      iszero\n      tag_429\n      jumpi\n        /* \"#utility.yul\":17193:17272   */\n      tag_430\n      tag_190\n      jump\t// in\n    tag_430:\n        /* \"#utility.yul\":17157:17274   */\n    tag_429:\n        /* \"#utility.yul\":17298:17390   */\n      tag_431\n        /* \"#utility.yul\":17382:17389   */\n      dup5\n        /* \"#utility.yul\":17373:17379   */\n      dup3\n        /* \"#utility.yul\":17362:17371   */\n      dup6\n        /* \"#utility.yul\":17358:17380   */\n      add\n        /* \"#utility.yul\":17298:17390   */\n      tag_236\n      jump\t// in\n    tag_431:\n        /* \"#utility.yul\":17288:17390   */\n      swap2\n      pop\n        /* \"#utility.yul\":17091:17400   */\n      pop\n        /* \"#utility.yul\":16847:17407   */\n      swap3\n      swap2\n      pop\n      pop\n      jump\t// out\n        /* \"#utility.yul\":17413:17582   */\n    tag_237:\n        /* \"#utility.yul\":17553:17574   */\n      0x55736572206e6f74207265676973746572656400000000000000000000000000\n        /* \"#utility.yul\":17549:17550   */\n      0x00\n        /* \"#utility.yul\":17541:17547   */\n      dup3\n        /* \"#utility.yul\":17537:17551   */\n      add\n        /* \"#utility.yul\":17530:17575   */\n      mstore\n        /* \"#utility.yul\":17413:17582   */\n      pop\n      jump\t// out\n        /* \"#utility.yul\":17588:17954   */\n    tag_238:\n        /* \"#utility.yul\":17730:17733   */\n      0x00\n        /* \"#utility.yul\":17751:17818   */\n      tag_434\n        /* \"#utility.yul\":17815:17817   */\n      0x13\n        /* \"#utility.yul\":17810:17813   */\n      dup4\n        /* \"#utility.yul\":17751:17818   */\n      tag_201\n      jump\t// in\n    tag_434:\n        /* \"#utility.yul\":17744:17818   */\n      swap2\n      pop\n        /* \"#utility.yul\":17827:17920   */\n      tag_435\n        /* \"#utility.yul\":17916:17919   */\n      dup3\n        /* \"#utility.yul\":17827:17920   */\n      tag_237\n      jump\t// in\n    tag_435:\n        /* \"#utility.yul\":17945:17947   */\n      0x20\n        /* \"#utility.yul\":17940:17943   */\n      dup3\n        /* \"#utility.yul\":17936:17948   */\n      add\n        /* \"#utility.yul\":17929:17948   */\n      swap1\n      pop\n        /* \"#utility.yul\":17588:17954   */\n      swap2\n      swap1\n      pop\n      jump\t// out\n        /* \"#utility.yul\":17960:18379   */\n    tag_100:\n        /* \"#utility.yul\":18126:18130   */\n      0x00\n        /* \"#utility.yul\":18164:18166   */\n      0x20\n        /* \"#utility.yul\":18153:18162   */\n      dup3\n        /* \"#utility.yul\":18149:18167   */\n      add\n        /* \"#utility.yul\":18141:18167   */\n      swap1\n      pop\n        /* \"#utility.yul\":18213:18222   */\n      dup2\n        /* \"#utility.yul\":18207:18211   */\n      dup2\n        /* \"#utility.yul\":18203:18223   */\n      sub\n        /* \"#utility.yul\":18199:18200   */\n      0x00\n        /* \"#utility.yul\":18188:18197   */\n      dup4\n        /* \"#utility.yul\":18184:18201   */\n      add\n        /* \"#utility.yul\":18177:18224   */\n      mstore\n        /* \"#utility.yul\":18241:18372   */\n      tag_437\n        /* \"#utility.yul\":18367:18371   */\n      dup2\n        /* \"#utility.yul\":18241:18372   */\n      tag_238\n      jump\t// in\n    tag_437:\n        /* \"#utility.yul\":18233:18372   */\n      swap1\n      pop\n        /* \"#utility.yul\":17960:18379   */\n      swap2\n      swap1\n      pop\n      jump\t// out\n        /* \"#utility.yul\":18385:18553   */\n    tag_239:\n        /* \"#utility.yul\":18525:18545   */\n      0x547765657420697320746f6f206c6f6e67210000000000000000000000000000\n        /* \"#utility.yul\":18521:18522   */\n      0x00\n        /* \"#utility.yul\":18513:18519   */\n      dup3\n        /* \"#utility.yul\":18509:18523   */\n      add\n        /* \"#utility.yul\":18502:18546   */\n      mstore\n        /* \"#utility.yul\":18385:18553   */\n      pop\n      jump\t// out\n        /* \"#utility.yul\":18559:18925   */\n    tag_240:\n        /* \"#utility.yul\":18701:18704   */\n      0x00\n        /* \"#utility.yul\":18722:18789   */\n      tag_440\n        /* \"#utility.yul\":18786:18788   */\n      0x12\n        /* \"#utility.yul\":18781:18784   */\n      dup4\n        /* \"#utility.yul\":18722:18789   */\n      tag_201\n      jump\t// in\n    tag_440:\n        /* \"#utility.yul\":18715:18789   */\n      swap2\n      pop\n        /* \"#utility.yul\":18798:18891   */\n      tag_441\n        /* \"#utility.yul\":18887:18890   */\n      dup3\n        /* \"#utility.yul\":18798:18891   */\n      tag_239\n      jump\t// in\n    tag_441:\n        /* \"#utility.yul\":18916:18918   */\n      0x20\n        /* \"#utility.yul\":18911:18914   */\n      dup3\n        /* \"#utility.yul\":18907:18919   */\n      add\n        /* \"#utility.yul\":18900:18919   */\n      swap1\n      pop\n        /* \"#utility.yul\":18559:18925   */\n      swap2\n      swap1\n      pop\n      jump\t// out\n        /* \"#utility.yul\":18931:19350   */\n    tag_104:\n        /* \"#utility.yul\":19097:19101   */\n      0x00\n        /* \"#utility.yul\":19135:19137   */\n      0x20\n        /* \"#utility.yul\":19124:19133   */\n      dup3\n        /* \"#utility.yul\":19120:19138   */\n      add\n        /* \"#utility.yul\":19112:19138   */\n      swap1\n      pop\n        /* \"#utility.yul\":19184:19193   */\n      dup2\n        /* \"#utility.yul\":19178:19182   */\n      dup2\n        /* \"#utility.yul\":19174:19194   */\n      sub\n        /* \"#utility.yul\":19170:19171   */\n      0x00\n        /* \"#utility.yul\":19159:19168   */\n      dup4\n        /* \"#utility.yul\":19155:19172   */\n      add\n        /* \"#utility.yul\":19148:19195   */\n      mstore\n        /* \"#utility.yul\":19212:19343   */\n      tag_443\n        /* \"#utility.yul\":19338:19342   */\n      dup2\n        /* \"#utility.yul\":19212:19343   */\n      tag_240\n      jump\t// in\n    tag_443:\n        /* \"#utility.yul\":19204:19343   */\n      swap1\n      pop\n        /* \"#utility.yul\":18931:19350   */\n      swap2\n      swap1\n      pop\n      jump\t// out\n        /* \"#utility.yul\":19356:19497   */\n    tag_241:\n        /* \"#utility.yul\":19405:19409   */\n      0x00\n        /* \"#utility.yul\":19428:19431   */\n      dup2\n        /* \"#utility.yul\":19420:19431   */\n      swap1\n      pop\n        /* \"#utility.yul\":19451:19454   */\n      dup2\n        /* \"#utility.yul\":19448:19449   */\n      0x00\n        /* \"#utility.yul\":19441:19455   */\n      mstore\n        /* \"#utility.yul\":19485:19489   */\n      0x20\n        /* \"#utility.yul\":19482:19483   */\n      0x00\n        /* \"#utility.yul\":19472:19490   */\n      keccak256\n        /* \"#utility.yul\":19464:19490   */\n      swap1\n      pop\n        /* \"#utility.yul\":19356:19497   */\n      swap2\n      swap1\n      pop\n      jump\t// out\n        /* \"#utility.yul\":19503:19596   */\n    tag_242:\n        /* \"#utility.yul\":19540:19546   */\n      0x00\n        /* \"#utility.yul\":19587:19589   */\n      0x20\n        /* \"#utility.yul\":19582:19584   */\n      0x1f\n        /* \"#utility.yul\":19575:19580   */\n      dup4\n        /* \"#utility.yul\":19571:19585   */\n      add\n        /* \"#utility.yul\":19567:19590   */\n      div\n        /* \"#utility.yul\":19557:19590   */\n      swap1\n      pop\n        /* \"#utility.yul\":19503:19596   */\n      swap2\n      swap1\n      pop\n      jump\t// out\n        /* \"#utility.yul\":19602:19709   */\n    tag_243:\n        /* \"#utility.yul\":19646:19654   */\n      0x00\n        /* \"#utility.yul\":19696:19701   */\n      dup3\n        /* \"#utility.yul\":19690:19694   */\n      dup3\n        /* \"#utility.yul\":19686:19702   */\n      shl\n        /* \"#utility.yul\":19665:19702   */\n      swap1\n      pop\n        /* \"#utility.yul\":19602:19709   */\n      swap3\n      swap2\n      pop\n      pop\n      jump\t// out\n        /* \"#utility.yul\":19715:20108   */\n    tag_244:\n        /* \"#utility.yul\":19784:19790   */\n      0x00\n        /* \"#utility.yul\":19834:19835   */\n      0x08\n        /* \"#utility.yul\":19822:19832   */\n      dup4\n        /* \"#utility.yul\":19818:19836   */\n      mul\n        /* \"#utility.yul\":19857:19954   */\n      tag_448\n        /* \"#utility.yul\":19887:19953   */\n      0xffffffffffffffffffffffffffffffffffffffffffffffffffffffffffffffff\n        /* \"#utility.yul\":19876:19885   */\n      dup3\n        /* \"#utility.yul\":19857:19954   */\n      tag_243\n      jump\t// in\n    tag_448:\n        /* \"#utility.yul\":19975:20014   */\n      tag_449\n        /* \"#utility.yul\":20005:20013   */\n      dup7\n        /* \"#utility.yul\":19994:20003   */\n      dup4\n        /* \"#utility.yul\":19975:20014   */\n      tag_243\n      jump\t// in\n    tag_449:\n        /* \"#utility.yul\":19963:20014   */\n      swap6\n      pop\n        /* \"#utility.yul\":20047:20051   */\n      dup1\n        /* \"#utility.yul\":20043:20052   */\n      not\n        /* \"#utility.yul\":20036:20041   */\n      dup5\n        /* \"#utility.yul\":20032:20053   */\n      and\n        /* \"#utility.yul\":20023:20053   */\n      swap4\n      pop\n        /* \"#utility.yul\":20096:20100   */\n      dup1\n        /* \"#utility.yul\":20086:20094   */\n      dup7\n        /* \"#utility.yul\":20082:20101   */\n      and\n        /* \"#utility.yul\":20075:20080   */\n      dup5\n        /* \"#utility.yul\":20072:20102   */\n      or\n        /* \"#utility.yul\":20062:20102   */\n      swap3\n      pop\n        /* \"#utility.yul\":19791:20108   */\n      pop\n      pop\n        /* \"#utility.yul\":19715:20108   */\n      swap4\n      swap3\n      pop\n      pop\n      pop\n      jump\t// out\n        /* \"#utility.yul\":20114:20256   */\n    tag_245:\n        /* \"#utility.yul\":20164:20173   */\n      0x00\n        /* \"#utility.yul\":20197:20250   */\n      tag_451\n        /* \"#utility.yul\":20215:20249   */\n      tag_452\n        /* \"#utility.yul\":20224:20248   */\n      tag_453\n        /* \"#utility.yul\":20242:20247   */\n      dup5\n        /* \"#utility.yul\":20224:20248   */\n      tag_195\n      jump\t// in\n    tag_453:\n        /* \"#utility.yul\":20215:20249   */\n      tag_225\n      jump\t// in\n    tag_452:\n        /* \"#utility.yul\":20197:20250   */\n      tag_195\n      jump\t// in\n    tag_451:\n        /* \"#utility.yul\":20184:20250   */\n      swap1\n      pop\n        /* \"#utility.yul\":20114:20256   */\n      swap2\n      swap1\n      pop\n      jump\t// out\n        /* \"#utility.yul\":20262:20337   */\n    tag_246:\n        /* \"#utility.yul\":20305:20308   */\n      0x00\n        /* \"#utility.yul\":20326:20331   */\n      dup2\n        /* \"#utility.yul\":20319:20331   */\n      swap1\n      pop\n        /* \"#utility.yul\":20262:20337   */\n      swap2\n      swap1\n      pop\n      jump\t// out\n        /* \"#utility.yul\":20343:20612   */\n    tag_247:\n        /* \"#utility.yul\":20453:20492   */\n      tag_456\n        /* \"#utility.yul\":20484:20491   */\n      dup4\n        /* \"#utility.yul\":20453:20492   */\n      tag_245\n      jump\t// in\n    tag_456:\n        /* \"#utility.yul\":20514:20605   */\n      tag_457\n        /* \"#utility.yul\":20563:20604   */\n      tag_458\n        /* \"#utility.yul\":20587:20603   */\n      dup3\n        /* \"#utility.yul\":20563:20604   */\n      tag_246\n      jump\t// in\n    tag_458:\n        /* \"#utility.yul\":20555:20561   */\n      dup5\n        /* \"#utility.yul\":20548:20552   */\n      dup5\n        /* \"#utility.yul\":20542:20553   */\n      sload\n        /* \"#utility.yul\":20514:20605   */\n      tag_244\n      jump\t// in\n    tag_457:\n        /* \"#utility.yul\":20508:20512   */\n      dup3\n        /* \"#utility.yul\":20501:20606   */\n      sstore\n        /* \"#utility.yul\":20419:20612   */\n      pop\n        /* \"#utility.yul\":20343:20612   */\n      pop\n      pop\n      pop\n      jump\t// out\n        /* \"#utility.yul\":20618:20691   */\n    tag_248:\n        /* \"#utility.yul\":20663:20666   */\n      0x00\n        /* \"#utility.yul\":20618:20691   */\n      swap1\n      jump\t// out\n        /* \"#utility.yul\":20697:20886   */\n    tag_249:\n        /* \"#utility.yul\":20774:20806   */\n      tag_461\n      tag_248\n      jump\t// in\n    tag_461:\n        /* \"#utility.yul\":20815:20880   */\n      tag_462\n        /* \"#utility.yul\":20873:20879   */\n      dup2\n        /* \"#utility.yul\":20865:20871   */\n      dup5\n        /* \"#utility.yul\":20859:20863   */\n      dup5\n        /* \"#utility.yul\":20815:20880   */\n      tag_247\n      jump\t// in\n    tag_462:\n        /* \"#utility.yul\":20750:20886   */\n      pop\n        /* \"#utility.yul\":20697:20886   */\n      pop\n      pop\n      jump\t// out\n        /* \"#utility.yul\":20892:21078   */\n    tag_250:\n        /* \"#utility.yul\":20952:21072   */\n    tag_464:\n        /* \"#utility.yul\":20969:20972   */\n      dup2\n        /* \"#utility.yul\":20962:20967   */\n      dup2\n        /* \"#utility.yul\":20959:20973   */\n      lt\n        /* \"#utility.yul\":20952:21072   */\n      iszero\n      tag_466\n      jumpi\n        /* \"#utility.yul\":21023:21062   */\n      tag_467\n        /* \"#utility.yul\":21060:21061   */\n      0x00\n        /* \"#utility.yul\":21053:21058   */\n      dup3\n        /* \"#utility.yul\":21023:21062   */\n      tag_249\n      jump\t// in\n    tag_467:\n        /* \"#utility.yul\":20996:20997   */\n      0x01\n        /* \"#utility.yul\":20989:20994   */\n      dup2\n        /* \"#utility.yul\":20985:20998   */\n      add\n        /* \"#utility.yul\":20976:20998   */\n      swap1\n      pop\n        /* \"#utility.yul\":20952:21072   */\n      jump(tag_464)\n    tag_466:\n        /* \"#utility.yul\":20892:21078   */\n      pop\n      pop\n      jump\t// out\n        /* \"#utility.yul\":21084:21627   */\n    tag_251:\n        /* \"#utility.yul\":21185:21187   */\n      0x1f\n        /* \"#utility.yul\":21180:21183   */\n      dup3\n        /* \"#utility.yul\":21177:21188   */\n      gt\n        /* \"#utility.yul\":21174:21620   */\n      iszero\n      tag_469\n      jumpi\n        /* \"#utility.yul\":21219:21257   */\n      tag_470\n        /* \"#utility.yul\":21251:21256   */\n      dup2\n        /* \"#utility.yul\":21219:21257   */\n      tag_241\n      jump\t// in\n    tag_470:\n        /* \"#utility.yul\":21303:21332   */\n      tag_471\n        /* \"#utility.yul\":21321:21331   */\n      dup5\n        /* \"#utility.yul\":21303:21332   */\n      tag_242\n      jump\t// in\n    tag_471:\n        /* \"#utility.yul\":21293:21301   */\n      dup2\n        /* \"#utility.yul\":21289:21333   */\n      add\n        /* \"#utility.yul\":21486:21488   */\n      0x20\n        /* \"#utility.yul\":21474:21484   */\n      dup6\n        /* \"#utility.yul\":21471:21489   */\n      lt\n        /* \"#utility.yul\":21468:21517   */\n      iszero\n      tag_472\n      jumpi\n        /* \"#utility.yul\":21507:21515   */\n      dup2\n        /* \"#utility.yul\":21492:21515   */\n      swap1\n      pop\n        /* \"#utility.yul\":21468:21517   */\n    tag_472:\n        /* \"#utility.yul\":21530:21610   */\n      tag_473\n        /* \"#utility.yul\":21586:21608   */\n      tag_474\n        /* \"#utility.yul\":21604:21607   */\n      dup6\n        /* \"#utility.yul\":21586:21608   */\n      tag_242\n      jump\t// in\n    tag_474:\n        /* \"#utility.yul\":21576:21584   */\n      dup4\n        /* \"#utility.yul\":21572:21609   */\n      add\n        /* \"#utility.yul\":21559:21570   */\n      dup3\n        /* \"#utility.yul\":21530:21610   */\n      tag_250\n      jump\t// in\n    tag_473:\n        /* \"#utility.yul\":21189:21620   */\n      pop\n      pop\n        /* \"#utility.yul\":21174:21620   */\n    tag_469:\n        /* \"#utility.yul\":21084:21627   */\n      pop\n      pop\n      pop\n      jump\t// out\n        /* \"#utility.yul\":21633:21750   */\n    tag_252:\n        /* \"#utility.yul\":21687:21695   */\n      0x00\n        /* \"#utility.yul\":21737:21742   */\n      dup3\n        /* \"#utility.yul\":21731:21735   */\n      dup3\n        /* \"#utility.yul\":21727:21743   */\n      shr\n        /* \"#utility.yul\":21706:21743   */\n      swap1\n      pop\n        /* \"#utility.yul\":21633:21750   */\n      swap3\n      swap2\n      pop\n      pop\n      jump\t// out\n        /* \"#utility.yul\":21756:21925   */\n    tag_253:\n        /* \"#utility.yul\":21800:21806   */\n      0x00\n        /* \"#utility.yul\":21833:21884   */\n      tag_477\n        /* \"#utility.yul\":21881:21882   */\n      0x00\n        /* \"#utility.yul\":21877:21883   */\n      not\n        /* \"#utility.yul\":21869:21874   */\n      dup5\n        /* \"#utility.yul\":21866:21867   */\n      0x08\n        /* \"#utility.yul\":21862:21875   */\n      mul\n        /* \"#utility.yul\":21833:21884   */\n      tag_252\n      jump\t// in\n    tag_477:\n        /* \"#utility.yul\":21829:21885   */\n      not\n        /* \"#utility.yul\":21914:21918   */\n      dup1\n        /* \"#utility.yul\":21908:21912   */\n      dup4\n        /* \"#utility.yul\":21904:21919   */\n      and\n        /* \"#utility.yul\":21894:21919   */\n      swap2\n      pop\n        /* \"#utility.yul\":21807:21925   */\n      pop\n        /* \"#utility.yul\":21756:21925   */\n      swap3\n      swap2\n      pop\n      pop\n      jump\t// out\n        /* \"#utility.yul\":21930:22225   */\n    tag_254:\n        /* \"#utility.yul\":22006:22010   */\n      0x00\n        /* \"#utility.yul\":22152:22181   */\n      tag_479\n        /* \"#utility.yul\":22177:22180   */\n      dup4\n        /* \"#utility.yul\":22171:22175   */\n      dup4\n        /* \"#utility.yul\":22152:22181   */\n      tag_253\n      jump\t// in\n    tag_479:\n        /* \"#utility.yul\":22144:22181   */\n      swap2\n      pop\n        /* \"#utility.yul\":22214:22217   */\n      dup3\n        /* \"#utility.yul\":22211:22212   */\n      0x02\n        /* \"#utility.yul\":22207:22218   */\n      mul\n        /* \"#utility.yul\":22201:22205   */\n      dup3\n        /* \"#utility.yul\":22198:22219   */\n      or\n        /* \"#utility.yul\":22190:22219   */\n      swap1\n      pop\n        /* \"#utility.yul\":21930:22225   */\n      swap3\n      swap2\n      pop\n      pop\n      jump\t// out\n        /* \"#utility.yul\":22230:23625   */\n    tag_107:\n        /* \"#utility.yul\":22347:22384   */\n      tag_481\n        /* \"#utility.yul\":22380:22383   */\n      dup3\n        /* \"#utility.yul\":22347:22384   */\n      tag_200\n      jump\t// in\n    tag_481:\n        /* \"#utility.yul\":22449:22467   */\n      0xffffffffffffffff\n        /* \"#utility.yul\":22441:22447   */\n      dup2\n        /* \"#utility.yul\":22438:22468   */\n      gt\n        /* \"#utility.yul\":22435:22491   */\n      iszero\n      tag_482\n      jumpi\n        /* \"#utility.yul\":22471:22489   */\n      tag_483\n      tag_218\n      jump\t// in\n    tag_483:\n        /* \"#utility.yul\":22435:22491   */\n    tag_482:\n        /* \"#utility.yul\":22515:22553   */\n      tag_484\n        /* \"#utility.yul\":22547:22551   */\n      dup3\n        /* \"#utility.yul\":22541:22552   */\n      sload\n        /* \"#utility.yul\":22515:22553   */\n      tag_72\n      jump\t// in\n    tag_484:\n        /* \"#utility.yul\":22600:22667   */\n      tag_485\n        /* \"#utility.yul\":22660:22666   */\n      dup3\n        /* \"#utility.yul\":22652:22658   */\n      dup3\n        /* \"#utility.yul\":22646:22650   */\n      dup6\n        /* \"#utility.yul\":22600:22667   */\n      tag_251\n      jump\t// in\n    tag_485:\n        /* \"#utility.yul\":22694:22695   */\n      0x00\n        /* \"#utility.yul\":22718:22722   */\n      0x20\n        /* \"#utility.yul\":22705:22722   */\n      swap1\n      pop\n        /* \"#utility.yul\":22750:22752   */\n      0x1f\n        /* \"#utility.yul\":22742:22748   */\n      dup4\n        /* \"#utility.yul\":22739:22753   */\n      gt\n        /* \"#utility.yul\":22767:22768   */\n      0x01\n        /* \"#utility.yul\":22762:23380   */\n      dup2\n      eq\n      tag_487\n      jumpi\n        /* \"#utility.yul\":23424:23425   */\n      0x00\n        /* \"#utility.yul\":23441:23447   */\n      dup5\n        /* \"#utility.yul\":23438:23515   */\n      iszero\n      tag_488\n      jumpi\n        /* \"#utility.yul\":23490:23499   */\n      dup3\n        /* \"#utility.yul\":23485:23488   */\n      dup8\n        /* \"#utility.yul\":23481:23500   */\n      add\n        /* \"#utility.yul\":23475:23501   */\n      mload\n        /* \"#utility.yul\":23466:23501   */\n      swap1\n      pop\n        /* \"#utility.yul\":23438:23515   */\n    tag_488:\n        /* \"#utility.yul\":23541:23608   */\n      tag_489\n        /* \"#utility.yul\":23601:23607   */\n      dup6\n        /* \"#utility.yul\":23594:23599   */\n      dup3\n        /* \"#utility.yul\":23541:23608   */\n      tag_254\n      jump\t// in\n    tag_489:\n        /* \"#utility.yul\":23535:23539   */\n      dup7\n        /* \"#utility.yul\":23528:23609   */\n      sstore\n        /* \"#utility.yul\":23397:23619   */\n      pop\n        /* \"#utility.yul\":22732:23619   */\n      jump(tag_486)\n        /* \"#utility.yul\":22762:23380   */\n    tag_487:\n        /* \"#utility.yul\":22814:22818   */\n      0x1f\n        /* \"#utility.yul\":22810:22819   */\n      not\n        /* \"#utility.yul\":22802:22808   */\n      dup5\n        /* \"#utility.yul\":22798:22820   */\n      and\n        /* \"#utility.yul\":22848:22885   */\n      tag_490\n        /* \"#utility.yul\":22880:22884   */\n      dup7\n        /* \"#utility.yul\":22848:22885   */\n      tag_241\n      jump\t// in\n    tag_490:\n        /* \"#utility.yul\":22907:22908   */\n      0x00\n        /* \"#utility.yul\":22921:23129   */\n    tag_491:\n        /* \"#utility.yul\":22935:22942   */\n      dup3\n        /* \"#utility.yul\":22932:22933   */\n      dup2\n        /* \"#utility.yul\":22929:22943   */\n      lt\n        /* \"#utility.yul\":22921:23129   */\n      iszero\n      tag_493\n      jumpi\n        /* \"#utility.yul\":23014:23023   */\n      dup5\n        /* \"#utility.yul\":23009:23012   */\n      dup10\n        /* \"#utility.yul\":23005:23024   */\n      add\n        /* \"#utility.yul\":22999:23025   */\n      mload\n        /* \"#utility.yul\":22991:22997   */\n      dup3\n        /* \"#utility.yul\":22984:23026   */\n      sstore\n        /* \"#utility.yul\":23065:23066   */\n      0x01\n        /* \"#utility.yul\":23057:23063   */\n      dup3\n        /* \"#utility.yul\":23053:23067   */\n      add\n        /* \"#utility.yul\":23043:23067   */\n      swap2\n      pop\n        /* \"#utility.yul\":23112:23114   */\n      0x20\n        /* \"#utility.yul\":23101:23110   */\n      dup6\n        /* \"#utility.yul\":23097:23115   */\n      add\n        /* \"#utility.yul\":23084:23115   */\n      swap5\n      pop\n        /* \"#utility.yul\":22958:22962   */\n      0x20\n        /* \"#utility.yul\":22955:22956   */\n      dup2\n        /* \"#utility.yul\":22951:22963   */\n      add\n        /* \"#utility.yul\":22946:22963   */\n      swap1\n      pop\n        /* \"#utility.yul\":22921:23129   */\n      jump(tag_491)\n    tag_493:\n        /* \"#utility.yul\":23157:23163   */\n      dup7\n        /* \"#utility.yul\":23148:23155   */\n      dup4\n        /* \"#utility.yul\":23145:23164   */\n      lt\n        /* \"#utility.yul\":23142:23321   */\n      iszero\n      tag_494\n      jumpi\n        /* \"#utility.yul\":23215:23224   */\n      dup5\n        /* \"#utility.yul\":23210:23213   */\n      dup10\n        /* \"#utility.yul\":23206:23225   */\n      add\n        /* \"#utility.yul\":23200:23226   */\n      mload\n        /* \"#utility.yul\":23258:23306   */\n      tag_495\n        /* \"#utility.yul\":23300:23304   */\n      0x1f\n        /* \"#utility.yul\":23292:23298   */\n      dup10\n        /* \"#utility.yul\":23288:23305   */\n      and\n        /* \"#utility.yul\":23277:23286   */\n      dup3\n        /* \"#utility.yul\":23258:23306   */\n      tag_253\n      jump\t// in\n    tag_495:\n        /* \"#utility.yul\":23250:23256   */\n      dup4\n        /* \"#utility.yul\":23243:23307   */\n      sstore\n        /* \"#utility.yul\":23165:23321   */\n      pop\n        /* \"#utility.yul\":23142:23321   */\n    tag_494:\n        /* \"#utility.yul\":23367:23368   */\n      0x01\n        /* \"#utility.yul\":23363:23364   */\n      0x02\n        /* \"#utility.yul\":23355:23361   */\n      dup9\n        /* \"#utility.yul\":23351:23365   */\n      mul\n        /* \"#utility.yul\":23347:23369   */\n      add\n        /* \"#utility.yul\":23341:23345   */\n      dup9\n        /* \"#utility.yul\":23334:23370   */\n      sstore\n        /* \"#utility.yul\":22769:23380   */\n      pop\n      pop\n      pop\n        /* \"#utility.yul\":22732:23619   */\n    tag_486:\n      pop\n        /* \"#utility.yul\":22322:23625   */\n      pop\n      pop\n      pop\n        /* \"#utility.yul\":22230:23625   */\n      pop\n      pop\n      jump\t// out\n        /* \"#utility.yul\":23631:24275   */\n    tag_109:\n        /* \"#utility.yul\":23828:23832   */\n      0x00\n        /* \"#utility.yul\":23866:23869   */\n      0x80\n        /* \"#utility.yul\":23855:23864   */\n      dup3\n        /* \"#utility.yul\":23851:23870   */\n      add\n        /* \"#utility.yul\":23843:23870   */\n      swap1\n      pop\n        /* \"#utility.yul\":23880:23951   */\n      tag_497\n        /* \"#utility.yul\":23948:23949   */\n      0x00\n        /* \"#utility.yul\":23937:23946   */\n      dup4\n        /* \"#utility.yul\":23933:23950   */\n      add\n        /* \"#utility.yul\":23924:23930   */\n      dup8\n        /* \"#utility.yul\":23880:23951   */\n      tag_198\n      jump\t// in\n    tag_497:\n        /* \"#utility.yul\":23961:24033   */\n      tag_498\n        /* \"#utility.yul\":24029:24031   */\n      0x20\n        /* \"#utility.yul\":24018:24027   */\n      dup4\n        /* \"#utility.yul\":24014:24032   */\n      add\n        /* \"#utility.yul\":24005:24011   */\n      dup7\n        /* \"#utility.yul\":23961:24033   */\n      tag_199\n      jump\t// in\n    tag_498:\n        /* \"#utility.yul\":24080:24089   */\n      dup2\n        /* \"#utility.yul\":24074:24078   */\n      dup2\n        /* \"#utility.yul\":24070:24090   */\n      sub\n        /* \"#utility.yul\":24065:24067   */\n      0x40\n        /* \"#utility.yul\":24054:24063   */\n      dup4\n        /* \"#utility.yul\":24050:24068   */\n      add\n        /* \"#utility.yul\":24043:24091   */\n      mstore\n        /* \"#utility.yul\":24108:24186   */\n      tag_499\n        /* \"#utility.yul\":24181:24185   */\n      dup2\n        /* \"#utility.yul\":24172:24178   */\n      dup6\n        /* \"#utility.yul\":24108:24186   */\n      tag_204\n      jump\t// in\n    tag_499:\n        /* \"#utility.yul\":24100:24186   */\n      swap1\n      pop\n        /* \"#utility.yul\":24196:24268   */\n      tag_500\n        /* \"#utility.yul\":24264:24266   */\n      0x60\n        /* \"#utility.yul\":24253:24262   */\n      dup4\n        /* \"#utility.yul\":24249:24267   */\n      add\n        /* \"#utility.yul\":24240:24246   */\n      dup5\n        /* \"#utility.yul\":24196:24268   */\n      tag_198\n      jump\t// in\n    tag_500:\n        /* \"#utility.yul\":23631:24275   */\n      swap6\n      swap5\n      pop\n      pop\n      pop\n      pop\n      pop\n      jump\t// out\n        /* \"#utility.yul\":24281:24461   */\n    tag_117:\n        /* \"#utility.yul\":24329:24406   */\n      0x4e487b7100000000000000000000000000000000000000000000000000000000\n        /* \"#utility.yul\":24326:24327   */\n      0x00\n        /* \"#utility.yul\":24319:24407   */\n      mstore\n        /* \"#utility.yul\":24426:24430   */\n      0x32\n        /* \"#utility.yul\":24423:24424   */\n      0x04\n        /* \"#utility.yul\":24416:24431   */\n      mstore\n        /* \"#utility.yul\":24450:24454   */\n      0x24\n        /* \"#utility.yul\":24447:24448   */\n      0x00\n        /* \"#utility.yul\":24440:24455   */\n      revert\n        /* \"#utility.yul\":24467:24637   */\n    tag_255:\n        /* \"#utility.yul\":24607:24629   */\n      0x547765657420646f6573206e6f74206578697374000000000000000000000000\n        /* \"#utility.yul\":24603:24604   */\n      0x00\n        /* \"#utility.yul\":24595:24601   */\n      dup3\n        /* \"#utility.yul\":24591:24605   */\n      add\n        /* \"#utility.yul\":24584:24630   */\n      mstore\n        /* \"#utility.yul\":24467:24637   */\n      pop\n      jump\t// out\n        /* \"#utility.yul\":24643:25009   */\n    tag_256:\n        /* \"#utility.yul\":24785:24788   */\n      0x00\n        /* \"#utility.yul\":24806:24873   */\n      tag_504\n        /* \"#utility.yul\":24870:24872   */\n      0x14\n        /* \"#utility.yul\":24865:24868   */\n      dup4\n        /* \"#utility.yul\":24806:24873   */\n      tag_201\n      jump\t// in\n    tag_504:\n        /* \"#utility.yul\":24799:24873   */\n      swap2\n      pop\n        /* \"#utility.yul\":24882:24975   */\n      tag_505\n        /* \"#utility.yul\":24971:24974   */\n      dup3\n        /* \"#utility.yul\":24882:24975   */\n      tag_255\n      jump\t// in\n    tag_505:\n        /* \"#utility.yul\":25000:25002   */\n      0x20\n        /* \"#utility.yul\":24995:24998   */\n      dup3\n        /* \"#utility.yul\":24991:25003   */\n      add\n        /* \"#utility.yul\":24984:25003   */\n      swap1\n      pop\n        /* \"#utility.yul\":24643:25009   */\n      swap2\n      swap1\n      pop\n      jump\t// out\n        /* \"#utility.yul\":25015:25434   */\n    tag_121:\n        /* \"#utility.yul\":25181:25185   */\n      0x00\n        /* \"#utility.yul\":25219:25221   */\n      0x20\n        /* \"#utility.yul\":25208:25217   */\n      dup3\n        /* \"#utility.yul\":25204:25222   */\n      add\n        /* \"#utility.yul\":25196:25222   */\n      swap1\n      pop\n        /* \"#utility.yul\":25268:25277   */\n      dup2\n        /* \"#utility.yul\":25262:25266   */\n      dup2\n        /* \"#utility.yul\":25258:25278   */\n      sub\n        /* \"#utility.yul\":25254:25255   */\n      0x00\n        /* \"#utility.yul\":25243:25252   */\n      dup4\n        /* \"#utility.yul\":25239:25256   */\n      add\n        /* \"#utility.yul\":25232:25279   */\n      mstore\n        /* \"#utility.yul\":25296:25427   */\n      tag_507\n        /* \"#utility.yul\":25422:25426   */\n      dup2\n        /* \"#utility.yul\":25296:25427   */\n      tag_256\n      jump\t// in\n    tag_507:\n        /* \"#utility.yul\":25288:25427   */\n      swap1\n      pop\n        /* \"#utility.yul\":25015:25434   */\n      swap2\n      swap1\n      pop\n      jump\t// out\n        /* \"#utility.yul\":25440:25620   */\n    tag_257:\n        /* \"#utility.yul\":25488:25565   */\n      0x4e487b7100000000000000000000000000000000000000000000000000000000\n        /* \"#utility.yul\":25485:25486   */\n      0x00\n        /* \"#utility.yul\":25478:25566   */\n      mstore\n        /* \"#utility.yul\":25585:25589   */\n      0x11\n        /* \"#utility.yul\":25582:25583   */\n      0x04\n        /* \"#utility.yul\":25575:25590   */\n      mstore\n        /* \"#utility.yul\":25609:25613   */\n      0x24\n        /* \"#utility.yul\":25606:25607   */\n      0x00\n        /* \"#utility.yul\":25599:25614   */\n      revert\n        /* \"#utility.yul\":25626:25859   */\n    tag_126:\n        /* \"#utility.yul\":25665:25668   */\n      0x00\n        /* \"#utility.yul\":25688:25712   */\n      tag_510\n        /* \"#utility.yul\":25706:25711   */\n      dup3\n        /* \"#utility.yul\":25688:25712   */\n      tag_195\n      jump\t// in\n    tag_510:\n        /* \"#utility.yul\":25679:25712   */\n      swap2\n      pop\n        /* \"#utility.yul\":25734:25800   */\n      0xffffffffffffffffffffffffffffffffffffffffffffffffffffffffffffffff\n        /* \"#utility.yul\":25727:25732   */\n      dup3\n        /* \"#utility.yul\":25724:25801   */\n      sub\n        /* \"#utility.yul\":25721:25824   */\n      tag_511\n      jumpi\n        /* \"#utility.yul\":25804:25822   */\n      tag_512\n      tag_257\n      jump\t// in\n    tag_512:\n        /* \"#utility.yul\":25721:25824   */\n    tag_511:\n        /* \"#utility.yul\":25851:25852   */\n      0x01\n        /* \"#utility.yul\":25844:25849   */\n      dup3\n        /* \"#utility.yul\":25840:25853   */\n      add\n        /* \"#utility.yul\":25833:25853   */\n      swap1\n      pop\n        /* \"#utility.yul\":25626:25859   */\n      swap2\n      swap1\n      pop\n      jump\t// out\n        /* \"#utility.yul\":25865:26418   */\n    tag_131:\n        /* \"#utility.yul\":26042:26046   */\n      0x00\n        /* \"#utility.yul\":26080:26083   */\n      0x80\n        /* \"#utility.yul\":26069:26078   */\n      dup3\n        /* \"#utility.yul\":26065:26084   */\n      add\n        /* \"#utility.yul\":26057:26084   */\n      swap1\n      pop\n        /* \"#utility.yul\":26094:26165   */\n      tag_514\n        /* \"#utility.yul\":26162:26163   */\n      0x00\n        /* \"#utility.yul\":26151:26160   */\n      dup4\n        /* \"#utility.yul\":26147:26164   */\n      add\n        /* \"#utility.yul\":26138:26144   */\n      dup8\n        /* \"#utility.yul\":26094:26165   */\n      tag_199\n      jump\t// in\n    tag_514:\n        /* \"#utility.yul\":26175:26247   */\n      tag_515\n        /* \"#utility.yul\":26243:26245   */\n      0x20\n        /* \"#utility.yul\":26232:26241   */\n      dup4\n        /* \"#utility.yul\":26228:26246   */\n      add\n        /* \"#utility.yul\":26219:26225   */\n      dup7\n        /* \"#utility.yul\":26175:26247   */\n      tag_199\n      jump\t// in\n    tag_515:\n        /* \"#utility.yul\":26257:26329   */\n      tag_516\n        /* \"#utility.yul\":26325:26327   */\n      0x40\n        /* \"#utility.yul\":26314:26323   */\n      dup4\n        /* \"#utility.yul\":26310:26328   */\n      add\n        /* \"#utility.yul\":26301:26307   */\n      dup6\n        /* \"#utility.yul\":26257:26329   */\n      tag_198\n      jump\t// in\n    tag_516:\n        /* \"#utility.yul\":26339:26411   */\n      tag_517\n        /* \"#utility.yul\":26407:26409   */\n      0x60\n        /* \"#utility.yul\":26396:26405   */\n      dup4\n        /* \"#utility.yul\":26392:26410   */\n      add\n        /* \"#utility.yul\":26383:26389   */\n      dup5\n        /* \"#utility.yul\":26339:26411   */\n      tag_198\n      jump\t// in\n    tag_517:\n        /* \"#utility.yul\":25865:26418   */\n      swap6\n      swap5\n      pop\n      pop\n      pop\n      pop\n      pop\n      jump\t// out\n        /* \"#utility.yul\":26424:26592   */\n    tag_258:\n        /* \"#utility.yul\":26564:26584   */\n      0x545745455420484153204e4f204c494b45530000000000000000000000000000\n        /* \"#utility.yul\":26560:26561   */\n      0x00\n        /* \"#utility.yul\":26552:26558   */\n      dup3\n        /* \"#utility.yul\":26548:26562   */\n      add\n        /* \"#utility.yul\":26541:26585   */\n      mstore\n        /* \"#utility.yul\":26424:26592   */\n      pop\n      jump\t// out\n        /* \"#utility.yul\":26598:26964   */\n    tag_259:\n        /* \"#utility.yul\":26740:26743   */\n      0x00\n        /* \"#utility.yul\":26761:26828   */\n      tag_520\n        /* \"#utility.yul\":26825:26827   */\n      0x12\n        /* \"#utility.yul\":26820:26823   */\n      dup4\n        /* \"#utility.yul\":26761:26828   */\n      tag_201\n      jump\t// in\n    tag_520:\n        /* \"#utility.yul\":26754:26828   */\n      swap2\n      pop\n        /* \"#utility.yul\":26837:26930   */\n      tag_521\n        /* \"#utility.yul\":26926:26929   */\n      dup3\n        /* \"#utility.yul\":26837:26930   */\n      tag_258\n      jump\t// in\n    tag_521:\n        /* \"#utility.yul\":26955:26957   */\n      0x20\n        /* \"#utility.yul\":26950:26953   */\n      dup3\n        /* \"#utility.yul\":26946:26958   */\n      add\n        /* \"#utility.yul\":26939:26958   */\n      swap1\n      pop\n        /* \"#utility.yul\":26598:26964   */\n      swap2\n      swap1\n      pop\n      jump\t// out\n        /* \"#utility.yul\":26970:27389   */\n    tag_143:\n        /* \"#utility.yul\":27136:27140   */\n      0x00\n        /* \"#utility.yul\":27174:27176   */\n      0x20\n        /* \"#utility.yul\":27163:27172   */\n      dup3\n        /* \"#utility.yul\":27159:27177   */\n      add\n        /* \"#utility.yul\":27151:27177   */\n      swap1\n      pop\n        /* \"#utility.yul\":27223:27232   */\n      dup2\n        /* \"#utility.yul\":27217:27221   */\n      dup2\n        /* \"#utility.yul\":27213:27233   */\n      sub\n        /* \"#utility.yul\":27209:27210   */\n      0x00\n        /* \"#utility.yul\":27198:27207   */\n      dup4\n        /* \"#utility.yul\":27194:27211   */\n      add\n        /* \"#utility.yul\":27187:27234   */\n      mstore\n        /* \"#utility.yul\":27251:27382   */\n      tag_523\n        /* \"#utility.yul\":27377:27381   */\n      dup2\n        /* \"#utility.yul\":27251:27382   */\n      tag_259\n      jump\t// in\n    tag_523:\n        /* \"#utility.yul\":27243:27382   */\n      swap1\n      pop\n        /* \"#utility.yul\":26970:27389   */\n      swap2\n      swap1\n      pop\n      jump\t// out\n        /* \"#utility.yul\":27395:27566   */\n    tag_148:\n        /* \"#utility.yul\":27434:27437   */\n      0x00\n        /* \"#utility.yul\":27457:27481   */\n      tag_525\n        /* \"#utility.yul\":27475:27480   */\n      dup3\n        /* \"#utility.yul\":27457:27481   */\n      tag_195\n      jump\t// in\n    tag_525:\n        /* \"#utility.yul\":27448:27481   */\n      swap2\n      pop\n        /* \"#utility.yul\":27503:27507   */\n      0x00\n        /* \"#utility.yul\":27496:27501   */\n      dup3\n        /* \"#utility.yul\":27493:27508   */\n      sub\n        /* \"#utility.yul\":27490:27531   */\n      tag_526\n      jumpi\n        /* \"#utility.yul\":27511:27529   */\n      tag_527\n      tag_257\n      jump\t// in\n    tag_527:\n        /* \"#utility.yul\":27490:27531   */\n    tag_526:\n        /* \"#utility.yul\":27558:27559   */\n      0x01\n        /* \"#utility.yul\":27551:27556   */\n      dup3\n        /* \"#utility.yul\":27547:27560   */\n      sub\n        /* \"#utility.yul\":27540:27560   */\n      swap1\n      pop\n        /* \"#utility.yul\":27395:27566   */\n      swap2\n      swap1\n      pop\n      jump\t// out\n        /* \"#utility.yul\":27572:27763   */\n    tag_172:\n        /* \"#utility.yul\":27612:27615   */\n      0x00\n        /* \"#utility.yul\":27631:27651   */\n      tag_529\n        /* \"#utility.yul\":27649:27650   */\n      dup3\n        /* \"#utility.yul\":27631:27651   */\n      tag_195\n      jump\t// in\n    tag_529:\n        /* \"#utility.yul\":27626:27651   */\n      swap2\n      pop\n        /* \"#utility.yul\":27665:27685   */\n      tag_530\n        /* \"#utility.yul\":27683:27684   */\n      dup4\n        /* \"#utility.yul\":27665:27685   */\n      tag_195\n      jump\t// in\n    tag_530:\n        /* \"#utility.yul\":27660:27685   */\n      swap3\n      pop\n        /* \"#utility.yul\":27708:27709   */\n      dup3\n        /* \"#utility.yul\":27705:27706   */\n      dup3\n        /* \"#utility.yul\":27701:27710   */\n      add\n        /* \"#utility.yul\":27694:27710   */\n      swap1\n      pop\n        /* \"#utility.yul\":27729:27732   */\n      dup1\n        /* \"#utility.yul\":27726:27727   */\n      dup3\n        /* \"#utility.yul\":27723:27733   */\n      gt\n        /* \"#utility.yul\":27720:27756   */\n      iszero\n      tag_531\n      jumpi\n        /* \"#utility.yul\":27736:27754   */\n      tag_532\n      tag_257\n      jump\t// in\n    tag_532:\n        /* \"#utility.yul\":27720:27756   */\n    tag_531:\n        /* \"#utility.yul\":27572:27763   */\n      swap3\n      swap2\n      pop\n      pop\n      jump\t// out\n\n    auxdata: 0xa26469706673582212205c72be8c97c7fa2bfd30fa769ec6becf9d7dd73b519a402c2aeda5b0e05fd57664736f6c634300081a0033\n}\n",
				"bytecode": {
					"linkReferences": {},
					"object": "60806040526002600155348015610014575f80fd5b506040516120fd3803806120fd8339818101604052810190610036919061021c565b335f73ffffffffffffffffffffffffffffffffffffffff168173ffffffffffffffffffffffffffffffffffffffff16036100a7575f6040517f1e4fbdf700000000000000000000000000000000000000000000000000000000815260040161009e9190610256565b60405180910390fd5b6100b6816100fd60201b60201c565b508060025f6101000a81548173ffffffffffffffffffffffffffffffffffffffff021916908373ffffffffffffffffffffffffffffffffffffffff1602179055505061026f565b5f805f9054906101000a900473ffffffffffffffffffffffffffffffffffffffff169050815f806101000a81548173ffffffffffffffffffffffffffffffffffffffff021916908373ffffffffffffffffffffffffffffffffffffffff1602179055508173ffffffffffffffffffffffffffffffffffffffff168173ffffffffffffffffffffffffffffffffffffffff167f8be0079c531659141344cd1fd0a4f28419497f9722a3daafe3b4186f6b6457e060405160405180910390a35050565b5f80fd5b5f73ffffffffffffffffffffffffffffffffffffffff82169050919050565b5f6101eb826101c2565b9050919050565b6101fb816101e1565b8114610205575f80fd5b50565b5f81519050610216816101f2565b92915050565b5f60208284031215610231576102306101be565b5b5f61023e84828501610208565b91505092915050565b610250816101e1565b82525050565b5f6020820190506102695f830184610247565b92915050565b611e818061027c5f395ff3fe608060405234801561000f575f80fd5b50600436106100cd575f3560e01c80638da5cb5b1161008a578063ae775e9511610064578063ae775e95146101db578063c3ad5ecb146101f7578063e1549d8514610227578063f2fde38b14610257576100cd565b80638da5cb5b14610183578063a0d96b6f146101a1578063a3974b21146101bd576100cd565b806305a1b4a9146100d157806353256135146101055780636eb1079714610123578063715018a6146101415780637c9cd2bc1461014b578063888a788014610167575b5f80fd5b6100eb60048036038101906100e69190611147565b610273565b6040516100fc959493929190611213565b60405180910390f35b61010d610364565b60405161011a91906113ff565b60405180910390f35b61012b6104fd565b604051610138919061141f565b60405180910390f35b610149610503565b005b61016560048036038101906101609190611564565b610516565b005b610181600480360381019061017c91906115ab565b6107ef565b005b61018b610801565b60405161019891906115d6565b60405180910390f35b6101bb60048036038101906101b69190611147565b610828565b005b6101c56109d9565b6040516101d2919061164a565b60405180910390f35b6101f560048036038101906101f09190611147565b6109fe565b005b610211600480360381019061020c91906115ab565b610c4f565b60405161021e91906116d6565b60405180910390f35b610241600480360381019061023c91906116f6565b610dc6565b60405161024e919061141f565b60405180910390f35b610271600480360381019061026c91906116f6565b610e95565b005b6003602052815f5260405f20818154811061028c575f80fd5b905f5260205f2090600502015f9150915050805f015490806001015f9054906101000a900473ffffffffffffffffffffffffffffffffffffffff16908060020180546102d79061174e565b80601f01602080910402602001604051908101604052809291908181526020018280546103039061174e565b801561034e5780601f106103255761010080835404028352916020019161034e565b820191905f5260205f20905b81548152906001019060200180831161033157829003601f168201915b5050505050908060030154908060040154905085565b606060035f3373ffffffffffffffffffffffffffffffffffffffff1673ffffffffffffffffffffffffffffffffffffffff1681526020019081526020015f20805480602002602001604051908101604052809291908181526020015f905b828210156104f4578382905f5260205f2090600502016040518060a00160405290815f8201548152602001600182015f9054906101000a900473ffffffffffffffffffffffffffffffffffffffff1673ffffffffffffffffffffffffffffffffffffffff1673ffffffffffffffffffffffffffffffffffffffff1681526020016002820180546104519061174e565b80601f016020809104026020016040519081016040528092919081815260200182805461047d9061174e565b80156104c85780601f1061049f576101008083540402835291602001916104c8565b820191905f5260205f20905b8154815290600101906020018083116104ab57829003601f168201915b5050505050815260200160038201548152602001600482015481525050815260200190600101906103c2565b50505050905090565b60015481565b61050b610f19565b6105145f610fa0565b565b5f60025f9054906101000a900473ffffffffffffffffffffffffffffffffffffffff1673ffffffffffffffffffffffffffffffffffffffff16630f53a470336040518263ffffffff1660e01b815260040161057191906115d6565b5f60405180830381865afa15801561058b573d5f803e3d5ffd5b505050506040513d5f823e3d601f19601f820116820180604052508101906105b39190611879565b90505f815f015151116105fb576040517f08c379a00000000000000000000000000000000000000000000000000000000081526004016105f29061190a565b60405180910390fd5b600154825110610640576040517f08c379a000000000000000000000000000000000000000000000000000000000815260040161063790611972565b60405180910390fd5b5f6040518060a0016040528060035f3373ffffffffffffffffffffffffffffffffffffffff1673ffffffffffffffffffffffffffffffffffffffff1681526020019081526020015f208054905081526020013373ffffffffffffffffffffffffffffffffffffffff1681526020018481526020014281526020015f815250905060035f3373ffffffffffffffffffffffffffffffffffffffff1673ffffffffffffffffffffffffffffffffffffffff1681526020019081526020015f2081908060018154018082558091505060019003905f5260205f2090600502015f909190919091505f820151815f01556020820151816001015f6101000a81548173ffffffffffffffffffffffffffffffffffffffff021916908373ffffffffffffffffffffffffffffffffffffffff16021790555060408201518160020190816107879190611b24565b50606082015181600301556080820151816004015550507f16fd3c13e9d46923e0a8bce11c7b473ec508a72e6c96cd2404b29ce972afc29e815f01518260200151836040015184606001516040516107e29493929190611bf3565b60405180910390a1505050565b6107f7610f19565b8060018190555050565b5f805f9054906101000a900473ffffffffffffffffffffffffffffffffffffffff16905090565b8060035f8473ffffffffffffffffffffffffffffffffffffffff1673ffffffffffffffffffffffffffffffffffffffff1681526020019081526020015f20828154811061087857610877611c3d565b5b905f5260205f2090600502015f0154146108c7576040517f08c379a00000000000000000000000000000000000000000000000000000000081526004016108be90611cb4565b60405180910390fd5b60035f8373ffffffffffffffffffffffffffffffffffffffff1673ffffffffffffffffffffffffffffffffffffffff1681526020019081526020015f20818154811061091657610915611c3d565b5b905f5260205f2090600502016004015f81548092919061093590611cff565b91905055507fe8a76fc0f16d11a00d1e93b689b63d76cf60af914dd3d915375dc41d01a0c3c833838360035f8773ffffffffffffffffffffffffffffffffffffffff1673ffffffffffffffffffffffffffffffffffffffff1681526020019081526020015f2085815481106109ad576109ac611c3d565b5b905f5260205f209060050201600401546040516109cd9493929190611d46565b60405180910390a15050565b60025f9054906101000a900473ffffffffffffffffffffffffffffffffffffffff1681565b8060035f8473ffffffffffffffffffffffffffffffffffffffff1673ffffffffffffffffffffffffffffffffffffffff1681526020019081526020015f208281548110610a4e57610a4d611c3d565b5b905f5260205f2090600502015f015414610a9d576040517f08c379a0000000000000000000000000000000000000000000000000000000008152600401610a9490611cb4565b60405180910390fd5b5f60035f8473ffffffffffffffffffffffffffffffffffffffff1673ffffffffffffffffffffffffffffffffffffffff1681526020019081526020015f208281548110610aed57610aec611c3d565b5b905f5260205f2090600502016004015411610b3d576040517f08c379a0000000000000000000000000000000000000000000000000000000008152600401610b3490611dd3565b60405180910390fd5b60035f8373ffffffffffffffffffffffffffffffffffffffff1673ffffffffffffffffffffffffffffffffffffffff1681526020019081526020015f208181548110610b8c57610b8b611c3d565b5b905f5260205f2090600502016004015f815480929190610bab90611df1565b91905055507fd0d4999471ec2d64ef3082b701ea632e73cf03302f43274ab6d09a2b11cb1ae633838360035f8773ffffffffffffffffffffffffffffffffffffffff1673ffffffffffffffffffffffffffffffffffffffff1681526020019081526020015f208581548110610c2357610c22611c3d565b5b905f5260205f20906005020160040154604051610c439493929190611d46565b60405180910390a15050565b610c57611068565b60035f3373ffffffffffffffffffffffffffffffffffffffff1673ffffffffffffffffffffffffffffffffffffffff1681526020019081526020015f208281548110610ca657610ca5611c3d565b5b905f5260205f2090600502016040518060a00160405290815f8201548152602001600182015f9054906101000a900473ffffffffffffffffffffffffffffffffffffffff1673ffffffffffffffffffffffffffffffffffffffff1673ffffffffffffffffffffffffffffffffffffffff168152602001600282018054610d2b9061174e565b80601f0160208091040260200160405190810160405280929190818152602001828054610d579061174e565b8015610da25780601f10610d7957610100808354040283529160200191610da2565b820191905f5260205f20905b815481529060010190602001808311610d8557829003601f168201915b50505050508152602001600382015481526020016004820154815250509050919050565b5f805f5b60035f8573ffffffffffffffffffffffffffffffffffffffff1673ffffffffffffffffffffffffffffffffffffffff1681526020019081526020015f2080549050811015610e8b5760035f8573ffffffffffffffffffffffffffffffffffffffff1673ffffffffffffffffffffffffffffffffffffffff1681526020019081526020015f208181548110610e6157610e60611c3d565b5b905f5260205f2090600502016004015482610e7c9190611e18565b91508080600101915050610dca565b5080915050919050565b610e9d610f19565b5f73ffffffffffffffffffffffffffffffffffffffff168173ffffffffffffffffffffffffffffffffffffffff1603610f0d575f6040517f1e4fbdf7000000000000000000000000000000000000000000000000000000008152600401610f0491906115d6565b60405180910390fd5b610f1681610fa0565b50565b610f21611061565b73ffffffffffffffffffffffffffffffffffffffff16610f3f610801565b73ffffffffffffffffffffffffffffffffffffffff1614610f9e57610f62611061565b6040517f118cdaa7000000000000000000000000000000000000000000000000000000008152600401610f9591906115d6565b60405180910390fd5b565b5f805f9054906101000a900473ffffffffffffffffffffffffffffffffffffffff169050815f806101000a81548173ffffffffffffffffffffffffffffffffffffffff021916908373ffffffffffffffffffffffffffffffffffffffff1602179055508173ffffffffffffffffffffffffffffffffffffffff168173ffffffffffffffffffffffffffffffffffffffff167f8be0079c531659141344cd1fd0a4f28419497f9722a3daafe3b4186f6b6457e060405160405180910390a35050565b5f33905090565b6040518060a001604052805f81526020015f73ffffffffffffffffffffffffffffffffffffffff168152602001606081526020015f81526020015f81525090565b5f604051905090565b5f80fd5b5f80fd5b5f73ffffffffffffffffffffffffffffffffffffffff82169050919050565b5f6110e3826110ba565b9050919050565b6110f3816110d9565b81146110fd575f80fd5b50565b5f8135905061110e816110ea565b92915050565b5f819050919050565b61112681611114565b8114611130575f80fd5b50565b5f813590506111418161111d565b92915050565b5f806040838503121561115d5761115c6110b2565b5b5f61116a85828601611100565b925050602061117b85828601611133565b9150509250929050565b61118e81611114565b82525050565b61119d816110d9565b82525050565b5f81519050919050565b5f82825260208201905092915050565b8281835e5f83830152505050565b5f601f19601f8301169050919050565b5f6111e5826111a3565b6111ef81856111ad565b93506111ff8185602086016111bd565b611208816111cb565b840191505092915050565b5f60a0820190506112265f830188611185565b6112336020830187611194565b818103604083015261124581866111db565b90506112546060830185611185565b6112616080830184611185565b9695505050505050565b5f81519050919050565b5f82825260208201905092915050565b5f819050602082019050919050565b61129d81611114565b82525050565b6112ac816110d9565b82525050565b5f82825260208201905092915050565b5f6112cc826111a3565b6112d681856112b2565b93506112e68185602086016111bd565b6112ef816111cb565b840191505092915050565b5f60a083015f83015161130f5f860182611294565b50602083015161132260208601826112a3565b506040830151848203604086015261133a82826112c2565b915050606083015161134f6060860182611294565b5060808301516113626080860182611294565b508091505092915050565b5f61137883836112fa565b905092915050565b5f602082019050919050565b5f6113968261126b565b6113a08185611275565b9350836020820285016113b285611285565b805f5b858110156113ed57848403895281516113ce858261136d565b94506113d983611380565b925060208a019950506001810190506113b5565b50829750879550505050505092915050565b5f6020820190508181035f830152611417818461138c565b905092915050565b5f6020820190506114325f830184611185565b92915050565b5f80fd5b5f80fd5b7f4e487b71000000000000000000000000000000000000000000000000000000005f52604160045260245ffd5b611476826111cb565b810181811067ffffffffffffffff8211171561149557611494611440565b5b80604052505050565b5f6114a76110a9565b90506114b3828261146d565b919050565b5f67ffffffffffffffff8211156114d2576114d1611440565b5b6114db826111cb565b9050602081019050919050565b828183375f83830152505050565b5f611508611503846114b8565b61149e565b9050828152602081018484840111156115245761152361143c565b5b61152f8482856114e8565b509392505050565b5f82601f83011261154b5761154a611438565b5b813561155b8482602086016114f6565b91505092915050565b5f60208284031215611579576115786110b2565b5b5f82013567ffffffffffffffff811115611596576115956110b6565b5b6115a284828501611537565b91505092915050565b5f602082840312156115c0576115bf6110b2565b5b5f6115cd84828501611133565b91505092915050565b5f6020820190506115e95f830184611194565b92915050565b5f819050919050565b5f61161261160d611608846110ba565b6115ef565b6110ba565b9050919050565b5f611623826115f8565b9050919050565b5f61163482611619565b9050919050565b6116448161162a565b82525050565b5f60208201905061165d5f83018461163b565b92915050565b5f60a083015f8301516116785f860182611294565b50602083015161168b60208601826112a3565b50604083015184820360408601526116a382826112c2565b91505060608301516116b86060860182611294565b5060808301516116cb6080860182611294565b508091505092915050565b5f6020820190508181035f8301526116ee8184611663565b905092915050565b5f6020828403121561170b5761170a6110b2565b5b5f61171884828501611100565b91505092915050565b7f4e487b71000000000000000000000000000000000000000000000000000000005f52602260045260245ffd5b5f600282049050600182168061176557607f821691505b60208210810361177857611777611721565b5b50919050565b5f80fd5b5f80fd5b5f611798611793846114b8565b61149e565b9050828152602081018484840111156117b4576117b361143c565b5b6117bf8482856111bd565b509392505050565b5f82601f8301126117db576117da611438565b5b81516117eb848260208601611786565b91505092915050565b5f604082840312156118095761180861177e565b5b611813604061149e565b90505f82015167ffffffffffffffff81111561183257611831611782565b5b61183e848285016117c7565b5f83015250602082015167ffffffffffffffff81111561186157611860611782565b5b61186d848285016117c7565b60208301525092915050565b5f6020828403121561188e5761188d6110b2565b5b5f82015167ffffffffffffffff8111156118ab576118aa6110b6565b5b6118b7848285016117f4565b91505092915050565b7f55736572206e6f742072656769737465726564000000000000000000000000005f82015250565b5f6118f46013836111ad565b91506118ff826118c0565b602082019050919050565b5f6020820190508181035f830152611921816118e8565b9050919050565b7f547765657420697320746f6f206c6f6e672100000000000000000000000000005f82015250565b5f61195c6012836111ad565b915061196782611928565b602082019050919050565b5f6020820190508181035f83015261198981611950565b9050919050565b5f819050815f5260205f209050919050565b5f6020601f8301049050919050565b5f82821b905092915050565b5f600883026119ec7fffffffffffffffffffffffffffffffffffffffffffffffffffffffffffffffff826119b1565b6119f686836119b1565b95508019841693508086168417925050509392505050565b5f611a28611a23611a1e84611114565b6115ef565b611114565b9050919050565b5f819050919050565b611a4183611a0e565b611a55611a4d82611a2f565b8484546119bd565b825550505050565b5f90565b611a69611a5d565b611a74818484611a38565b505050565b5b81811015611a9757611a8c5f82611a61565b600181019050611a7a565b5050565b601f821115611adc57611aad81611990565b611ab6846119a2565b81016020851015611ac5578190505b611ad9611ad1856119a2565b830182611a79565b50505b505050565b5f82821c905092915050565b5f611afc5f1984600802611ae1565b1980831691505092915050565b5f611b148383611aed565b9150826002028217905092915050565b611b2d826111a3565b67ffffffffffffffff811115611b4657611b45611440565b5b611b50825461174e565b611b5b828285611a9b565b5f60209050601f831160018114611b8c575f8415611b7a578287015190505b611b848582611b09565b865550611beb565b601f198416611b9a86611990565b5f5b82811015611bc157848901518255600182019150602085019450602081019050611b9c565b86831015611bde5784890151611bda601f891682611aed565b8355505b6001600288020188555050505b505050505050565b5f608082019050611c065f830187611185565b611c136020830186611194565b8181036040830152611c2581856111db565b9050611c346060830184611185565b95945050505050565b7f4e487b71000000000000000000000000000000000000000000000000000000005f52603260045260245ffd5b7f547765657420646f6573206e6f742065786973740000000000000000000000005f82015250565b5f611c9e6014836111ad565b9150611ca982611c6a565b602082019050919050565b5f6020820190508181035f830152611ccb81611c92565b9050919050565b7f4e487b71000000000000000000000000000000000000000000000000000000005f52601160045260245ffd5b5f611d0982611114565b91507fffffffffffffffffffffffffffffffffffffffffffffffffffffffffffffffff8203611d3b57611d3a611cd2565b5b600182019050919050565b5f608082019050611d595f830187611194565b611d666020830186611194565b611d736040830185611185565b611d806060830184611185565b95945050505050565b7f545745455420484153204e4f204c494b455300000000000000000000000000005f82015250565b5f611dbd6012836111ad565b9150611dc882611d89565b602082019050919050565b5f6020820190508181035f830152611dea81611db1565b9050919050565b5f611dfb82611114565b91505f8203611e0d57611e0c611cd2565b5b600182039050919050565b5f611e2282611114565b9150611e2d83611114565b9250828201905080821115611e4557611e44611cd2565b5b9291505056fea26469706673582212205c72be8c97c7fa2bfd30fa769ec6becf9d7dd73b519a402c2aeda5b0e05fd57664736f6c634300081a0033",
					"opcodes": "PUSH1 0x80 PUSH1 0x40 MSTORE PUSH1 0x2 PUSH1 0x1 SSTORE CALLVALUE DUP1 ISZERO PUSH2 0x14 JUMPI PUSH0 DUP1 REVERT JUMPDEST POP PUSH1 0x40 MLOAD PUSH2 0x20FD CODESIZE SUB DUP1 PUSH2 0x20FD DUP4 CODECOPY DUP2 DUP2 ADD PUSH1 0x40 MSTORE DUP2 ADD SWAP1 PUSH2 0x36 SWAP2 SWAP1 PUSH2 0x21C JUMP JUMPDEST CALLER PUSH0 PUSH20 0xFFFFFFFFFFFFFFFFFFFFFFFFFFFFFFFFFFFFFFFF AND DUP2 PUSH20 0xFFFFFFFFFFFFFFFFFFFFFFFFFFFFFFFFFFFFFFFF AND SUB PUSH2 0xA7 JUMPI PUSH0 PUSH1 0x40 MLOAD PUSH32 0x1E4FBDF700000000000000000000000000000000000000000000000000000000 DUP2 MSTORE PUSH1 0x4 ADD PUSH2 0x9E SWAP2 SWAP1 PUSH2 0x256 JUMP JUMPDEST PUSH1 0x40 MLOAD DUP1 SWAP2 SUB SWAP1 REVERT JUMPDEST PUSH2 0xB6 DUP2 PUSH2 0xFD PUSH1 0x20 SHL PUSH1 0x20 SHR JUMP JUMPDEST POP DUP1 PUSH1 0x2 PUSH0 PUSH2 0x100 EXP DUP2 SLOAD DUP2 PUSH20 0xFFFFFFFFFFFFFFFFFFFFFFFFFFFFFFFFFFFFFFFF MUL NOT AND SWAP1 DUP4 PUSH20 0xFFFFFFFFFFFFFFFFFFFFFFFFFFFFFFFFFFFFFFFF AND MUL OR SWAP1 SSTORE POP POP PUSH2 0x26F JUMP JUMPDEST PUSH0 DUP1 PUSH0 SWAP1 SLOAD SWAP1 PUSH2 0x100 EXP SWAP1 DIV PUSH20 0xFFFFFFFFFFFFFFFFFFFFFFFFFFFFFFFFFFFFFFFF AND SWAP1 POP DUP2 PUSH0 DUP1 PUSH2 0x100 EXP DUP2 SLOAD DUP2 PUSH20 0xFFFFFFFFFFFFFFFFFFFFFFFFFFFFFFFFFFFFFFFF MUL NOT AND SWAP1 DUP4 PUSH20 0xFFFFFFFFFFFFFFFFFFFFFFFFFFFFFFFFFFFFFFFF AND MUL OR SWAP1 SSTORE POP DUP2 PUSH20 0xFFFFFFFFFFFFFFFFFFFFFFFFFFFFFFFFFFFFFFFF AND DUP2 PUSH20 0xFFFFFFFFFFFFFFFFFFFFFFFFFFFFFFFFFFFFFFFF AND PUSH32 0x8BE0079C531659141344CD1FD0A4F28419497F9722A3DAAFE3B4186F6B6457E0 PUSH1 0x40 MLOAD PUSH1 0x40 MLOAD DUP1 SWAP2 SUB SWAP1 LOG3 POP POP JUMP JUMPDEST PUSH0 DUP1 REVERT JUMPDEST PUSH0 PUSH20 0xFFFFFFFFFFFFFFFFFFFFFFFFFFFFFFFFFFFFFFFF DUP3 AND SWAP1 POP SWAP2 SWAP1 POP JUMP JUMPDEST PUSH0 PUSH2 0x1EB DUP3 PUSH2 0x1C2 JUMP JUMPDEST SWAP1 POP SWAP2 SWAP1 POP JUMP JUMPDEST PUSH2 0x1FB DUP2 PUSH2 0x1E1 JUMP JUMPDEST DUP2 EQ PUSH2 0x205 JUMPI PUSH0 DUP1 REVERT JUMPDEST POP JUMP JUMPDEST PUSH0 DUP2 MLOAD SWAP1 POP PUSH2 0x216 DUP2 PUSH2 0x1F2 JUMP JUMPDEST SWAP3 SWAP2 POP POP JUMP JUMPDEST PUSH0 PUSH1 0x20 DUP3 DUP5 SUB SLT ISZERO PUSH2 0x231 JUMPI PUSH2 0x230 PUSH2 0x1BE JUMP JUMPDEST JUMPDEST PUSH0 PUSH2 0x23E DUP5 DUP3 DUP6 ADD PUSH2 0x208 JUMP JUMPDEST SWAP2 POP POP SWAP3 SWAP2 POP POP JUMP JUMPDEST PUSH2 0x250 DUP2 PUSH2 0x1E1 JUMP JUMPDEST DUP3 MSTORE POP POP JUMP JUMPDEST PUSH0 PUSH1 0x20 DUP3 ADD SWAP1 POP PUSH2 0x269 PUSH0 DUP4 ADD DUP5 PUSH2 0x247 JUMP JUMPDEST SWAP3 SWAP2 POP POP JUMP JUMPDEST PUSH2 0x1E81 DUP1 PUSH2 0x27C PUSH0 CODECOPY PUSH0 RETURN INVALID PUSH1 0x80 PUSH1 0x40 MSTORE CALLVALUE DUP1 ISZERO PUSH2 0xF JUMPI PUSH0 DUP1 REVERT JUMPDEST POP PUSH1 0x4 CALLDATASIZE LT PUSH2 0xCD JUMPI PUSH0 CALLDATALOAD PUSH1 0xE0 SHR DUP1 PUSH4 0x8DA5CB5B GT PUSH2 0x8A JUMPI DUP1 PUSH4 0xAE775E95 GT PUSH2 0x64 JUMPI DUP1 PUSH4 0xAE775E95 EQ PUSH2 0x1DB JUMPI DUP1 PUSH4 0xC3AD5ECB EQ PUSH2 0x1F7 JUMPI DUP1 PUSH4 0xE1549D85 EQ PUSH2 0x227 JUMPI DUP1 PUSH4 0xF2FDE38B EQ PUSH2 0x257 JUMPI PUSH2 0xCD JUMP JUMPDEST DUP1 PUSH4 0x8DA5CB5B EQ PUSH2 0x183 JUMPI DUP1 PUSH4 0xA0D96B6F EQ PUSH2 0x1A1 JUMPI DUP1 PUSH4 0xA3974B21 EQ PUSH2 0x1BD JUMPI PUSH2 0xCD JUMP JUMPDEST DUP1 PUSH4 0x5A1B4A9 EQ PUSH2 0xD1 JUMPI DUP1 PUSH4 0x53256135 EQ PUSH2 0x105 JUMPI DUP1 PUSH4 0x6EB10797 EQ PUSH2 0x123 JUMPI DUP1 PUSH4 0x715018A6 EQ PUSH2 0x141 JUMPI DUP1 PUSH4 0x7C9CD2BC EQ PUSH2 0x14B JUMPI DUP1 PUSH4 0x888A7880 EQ PUSH2 0x167 JUMPI JUMPDEST PUSH0 DUP1 REVERT JUMPDEST PUSH2 0xEB PUSH1 0x4 DUP1 CALLDATASIZE SUB DUP2 ADD SWAP1 PUSH2 0xE6 SWAP2 SWAP1 PUSH2 0x1147 JUMP JUMPDEST PUSH2 0x273 JUMP JUMPDEST PUSH1 0x40 MLOAD PUSH2 0xFC SWAP6 SWAP5 SWAP4 SWAP3 SWAP2 SWAP1 PUSH2 0x1213 JUMP JUMPDEST PUSH1 0x40 MLOAD DUP1 SWAP2 SUB SWAP1 RETURN JUMPDEST PUSH2 0x10D PUSH2 0x364 JUMP JUMPDEST PUSH1 0x40 MLOAD PUSH2 0x11A SWAP2 SWAP1 PUSH2 0x13FF JUMP JUMPDEST PUSH1 0x40 MLOAD DUP1 SWAP2 SUB SWAP1 RETURN JUMPDEST PUSH2 0x12B PUSH2 0x4FD JUMP JUMPDEST PUSH1 0x40 MLOAD PUSH2 0x138 SWAP2 SWAP1 PUSH2 0x141F JUMP JUMPDEST PUSH1 0x40 MLOAD DUP1 SWAP2 SUB SWAP1 RETURN JUMPDEST PUSH2 0x149 PUSH2 0x503 JUMP JUMPDEST STOP JUMPDEST PUSH2 0x165 PUSH1 0x4 DUP1 CALLDATASIZE SUB DUP2 ADD SWAP1 PUSH2 0x160 SWAP2 SWAP1 PUSH2 0x1564 JUMP JUMPDEST PUSH2 0x516 JUMP JUMPDEST STOP JUMPDEST PUSH2 0x181 PUSH1 0x4 DUP1 CALLDATASIZE SUB DUP2 ADD SWAP1 PUSH2 0x17C SWAP2 SWAP1 PUSH2 0x15AB JUMP JUMPDEST PUSH2 0x7EF JUMP JUMPDEST STOP JUMPDEST PUSH2 0x18B PUSH2 0x801 JUMP JUMPDEST PUSH1 0x40 MLOAD PUSH2 0x198 SWAP2 SWAP1 PUSH2 0x15D6 JUMP JUMPDEST PUSH1 0x40 MLOAD DUP1 SWAP2 SUB SWAP1 RETURN JUMPDEST PUSH2 0x1BB PUSH1 0x4 DUP1 CALLDATASIZE SUB DUP2 ADD SWAP1 PUSH2 0x1B6 SWAP2 SWAP1 PUSH2 0x1147 JUMP JUMPDEST PUSH2 0x828 JUMP JUMPDEST STOP JUMPDEST PUSH2 0x1C5 PUSH2 0x9D9 JUMP JUMPDEST PUSH1 0x40 MLOAD PUSH2 0x1D2 SWAP2 SWAP1 PUSH2 0x164A JUMP JUMPDEST PUSH1 0x40 MLOAD DUP1 SWAP2 SUB SWAP1 RETURN JUMPDEST PUSH2 0x1F5 PUSH1 0x4 DUP1 CALLDATASIZE SUB DUP2 ADD SWAP1 PUSH2 0x1F0 SWAP2 SWAP1 PUSH2 0x1147 JUMP JUMPDEST PUSH2 0x9FE JUMP JUMPDEST STOP JUMPDEST PUSH2 0x211 PUSH1 0x4 DUP1 CALLDATASIZE SUB DUP2 ADD SWAP1 PUSH2 0x20C SWAP2 SWAP1 PUSH2 0x15AB JUMP JUMPDEST PUSH2 0xC4F JUMP JUMPDEST PUSH1 0x40 MLOAD PUSH2 0x21E SWAP2 SWAP1 PUSH2 0x16D6 JUMP JUMPDEST PUSH1 0x40 MLOAD DUP1 SWAP2 SUB SWAP1 RETURN JUMPDEST PUSH2 0x241 PUSH1 0x4 DUP1 CALLDATASIZE SUB DUP2 ADD SWAP1 PUSH2 0x23C SWAP2 SWAP1 PUSH2 0x16F6 JUMP JUMPDEST PUSH2 0xDC6 JUMP JUMPDEST PUSH1 0x40 MLOAD PUSH2 0x24E SWAP2 SWAP1 PUSH2 0x141F JUMP JUMPDEST PUSH1 0x40 MLOAD DUP1 SWAP2 SUB SWAP1 RETURN JUMPDEST PUSH2 0x271 PUSH1 0x4 DUP1 CALLDATASIZE SUB DUP2 ADD SWAP1 PUSH2 0x26C SWAP2 SWAP1 PUSH2 0x16F6 JUMP JUMPDEST PUSH2 0xE95 JUMP JUMPDEST STOP JUMPDEST PUSH1 0x3 PUSH1 0x20 MSTORE DUP2 PUSH0 MSTORE PUSH1 0x40 PUSH0 KECCAK256 DUP2 DUP2 SLOAD DUP2 LT PUSH2 0x28C JUMPI PUSH0 DUP1 REVERT JUMPDEST SWAP1 PUSH0 MSTORE PUSH1 0x20 PUSH0 KECCAK256 SWAP1 PUSH1 0x5 MUL ADD PUSH0 SWAP2 POP SWAP2 POP POP DUP1 PUSH0 ADD SLOAD SWAP1 DUP1 PUSH1 0x1 ADD PUSH0 SWAP1 SLOAD SWAP1 PUSH2 0x100 EXP SWAP1 DIV PUSH20 0xFFFFFFFFFFFFFFFFFFFFFFFFFFFFFFFFFFFFFFFF AND SWAP1 DUP1 PUSH1 0x2 ADD DUP1 SLOAD PUSH2 0x2D7 SWAP1 PUSH2 0x174E JUMP JUMPDEST DUP1 PUSH1 0x1F ADD PUSH1 0x20 DUP1 SWAP2 DIV MUL PUSH1 0x20 ADD PUSH1 0x40 MLOAD SWAP1 DUP2 ADD PUSH1 0x40 MSTORE DUP1 SWAP3 SWAP2 SWAP1 DUP2 DUP2 MSTORE PUSH1 0x20 ADD DUP3 DUP1 SLOAD PUSH2 0x303 SWAP1 PUSH2 0x174E JUMP JUMPDEST DUP1 ISZERO PUSH2 0x34E JUMPI DUP1 PUSH1 0x1F LT PUSH2 0x325 JUMPI PUSH2 0x100 DUP1 DUP4 SLOAD DIV MUL DUP4 MSTORE SWAP2 PUSH1 0x20 ADD SWAP2 PUSH2 0x34E JUMP JUMPDEST DUP3 ADD SWAP2 SWAP1 PUSH0 MSTORE PUSH1 0x20 PUSH0 KECCAK256 SWAP1 JUMPDEST DUP2 SLOAD DUP2 MSTORE SWAP1 PUSH1 0x1 ADD SWAP1 PUSH1 0x20 ADD DUP1 DUP4 GT PUSH2 0x331 JUMPI DUP3 SWAP1 SUB PUSH1 0x1F AND DUP3 ADD SWAP2 JUMPDEST POP POP POP POP POP SWAP1 DUP1 PUSH1 0x3 ADD SLOAD SWAP1 DUP1 PUSH1 0x4 ADD SLOAD SWAP1 POP DUP6 JUMP JUMPDEST PUSH1 0x60 PUSH1 0x3 PUSH0 CALLER PUSH20 0xFFFFFFFFFFFFFFFFFFFFFFFFFFFFFFFFFFFFFFFF AND PUSH20 0xFFFFFFFFFFFFFFFFFFFFFFFFFFFFFFFFFFFFFFFF AND DUP2 MSTORE PUSH1 0x20 ADD SWAP1 DUP2 MSTORE PUSH1 0x20 ADD PUSH0 KECCAK256 DUP1 SLOAD DUP1 PUSH1 0x20 MUL PUSH1 0x20 ADD PUSH1 0x40 MLOAD SWAP1 DUP2 ADD PUSH1 0x40 MSTORE DUP1 SWAP3 SWAP2 SWAP1 DUP2 DUP2 MSTORE PUSH1 0x20 ADD PUSH0 SWAP1 JUMPDEST DUP3 DUP3 LT ISZERO PUSH2 0x4F4 JUMPI DUP4 DUP3 SWAP1 PUSH0 MSTORE PUSH1 0x20 PUSH0 KECCAK256 SWAP1 PUSH1 0x5 MUL ADD PUSH1 0x40 MLOAD DUP1 PUSH1 0xA0 ADD PUSH1 0x40 MSTORE SWAP1 DUP2 PUSH0 DUP3 ADD SLOAD DUP2 MSTORE PUSH1 0x20 ADD PUSH1 0x1 DUP3 ADD PUSH0 SWAP1 SLOAD SWAP1 PUSH2 0x100 EXP SWAP1 DIV PUSH20 0xFFFFFFFFFFFFFFFFFFFFFFFFFFFFFFFFFFFFFFFF AND PUSH20 0xFFFFFFFFFFFFFFFFFFFFFFFFFFFFFFFFFFFFFFFF AND PUSH20 0xFFFFFFFFFFFFFFFFFFFFFFFFFFFFFFFFFFFFFFFF AND DUP2 MSTORE PUSH1 0x20 ADD PUSH1 0x2 DUP3 ADD DUP1 SLOAD PUSH2 0x451 SWAP1 PUSH2 0x174E JUMP JUMPDEST DUP1 PUSH1 0x1F ADD PUSH1 0x20 DUP1 SWAP2 DIV MUL PUSH1 0x20 ADD PUSH1 0x40 MLOAD SWAP1 DUP2 ADD PUSH1 0x40 MSTORE DUP1 SWAP3 SWAP2 SWAP1 DUP2 DUP2 MSTORE PUSH1 0x20 ADD DUP3 DUP1 SLOAD PUSH2 0x47D SWAP1 PUSH2 0x174E JUMP JUMPDEST DUP1 ISZERO PUSH2 0x4C8 JUMPI DUP1 PUSH1 0x1F LT PUSH2 0x49F JUMPI PUSH2 0x100 DUP1 DUP4 SLOAD DIV MUL DUP4 MSTORE SWAP2 PUSH1 0x20 ADD SWAP2 PUSH2 0x4C8 JUMP JUMPDEST DUP3 ADD SWAP2 SWAP1 PUSH0 MSTORE PUSH1 0x20 PUSH0 KECCAK256 SWAP1 JUMPDEST DUP2 SLOAD DUP2 MSTORE SWAP1 PUSH1 0x1 ADD SWAP1 PUSH1 0x20 ADD DUP1 DUP4 GT PUSH2 0x4AB JUMPI DUP3 SWAP1 SUB PUSH1 0x1F AND DUP3 ADD SWAP2 JUMPDEST POP POP POP POP POP DUP2 MSTORE PUSH1 0x20 ADD PUSH1 0x3 DUP3 ADD SLOAD DUP2 MSTORE PUSH1 0x20 ADD PUSH1 0x4 DUP3 ADD SLOAD DUP2 MSTORE POP POP DUP2 MSTORE PUSH1 0x20 ADD SWAP1 PUSH1 0x1 ADD SWAP1 PUSH2 0x3C2 JUMP JUMPDEST POP POP POP POP SWAP1 POP SWAP1 JUMP JUMPDEST PUSH1 0x1 SLOAD DUP2 JUMP JUMPDEST PUSH2 0x50B PUSH2 0xF19 JUMP JUMPDEST PUSH2 0x514 PUSH0 PUSH2 0xFA0 JUMP JUMPDEST JUMP JUMPDEST PUSH0 PUSH1 0x2 PUSH0 SWAP1 SLOAD SWAP1 PUSH2 0x100 EXP SWAP1 DIV PUSH20 0xFFFFFFFFFFFFFFFFFFFFFFFFFFFFFFFFFFFFFFFF AND PUSH20 0xFFFFFFFFFFFFFFFFFFFFFFFFFFFFFFFFFFFFFFFF AND PUSH4 0xF53A470 CALLER PUSH1 0x40 MLOAD DUP3 PUSH4 0xFFFFFFFF AND PUSH1 0xE0 SHL DUP2 MSTORE PUSH1 0x4 ADD PUSH2 0x571 SWAP2 SWAP1 PUSH2 0x15D6 JUMP JUMPDEST PUSH0 PUSH1 0x40 MLOAD DUP1 DUP4 SUB DUP2 DUP7 GAS STATICCALL ISZERO DUP1 ISZERO PUSH2 0x58B JUMPI RETURNDATASIZE PUSH0 DUP1 RETURNDATACOPY RETURNDATASIZE PUSH0 REVERT JUMPDEST POP POP POP POP PUSH1 0x40 MLOAD RETURNDATASIZE PUSH0 DUP3 RETURNDATACOPY RETURNDATASIZE PUSH1 0x1F NOT PUSH1 0x1F DUP3 ADD AND DUP3 ADD DUP1 PUSH1 0x40 MSTORE POP DUP2 ADD SWAP1 PUSH2 0x5B3 SWAP2 SWAP1 PUSH2 0x1879 JUMP JUMPDEST SWAP1 POP PUSH0 DUP2 PUSH0 ADD MLOAD MLOAD GT PUSH2 0x5FB JUMPI PUSH1 0x40 MLOAD PUSH32 0x8C379A000000000000000000000000000000000000000000000000000000000 DUP2 MSTORE PUSH1 0x4 ADD PUSH2 0x5F2 SWAP1 PUSH2 0x190A JUMP JUMPDEST PUSH1 0x40 MLOAD DUP1 SWAP2 SUB SWAP1 REVERT JUMPDEST PUSH1 0x1 SLOAD DUP3 MLOAD LT PUSH2 0x640 JUMPI PUSH1 0x40 MLOAD PUSH32 0x8C379A000000000000000000000000000000000000000000000000000000000 DUP2 MSTORE PUSH1 0x4 ADD PUSH2 0x637 SWAP1 PUSH2 0x1972 JUMP JUMPDEST PUSH1 0x40 MLOAD DUP1 SWAP2 SUB SWAP1 REVERT JUMPDEST PUSH0 PUSH1 0x40 MLOAD DUP1 PUSH1 0xA0 ADD PUSH1 0x40 MSTORE DUP1 PUSH1 0x3 PUSH0 CALLER PUSH20 0xFFFFFFFFFFFFFFFFFFFFFFFFFFFFFFFFFFFFFFFF AND PUSH20 0xFFFFFFFFFFFFFFFFFFFFFFFFFFFFFFFFFFFFFFFF AND DUP2 MSTORE PUSH1 0x20 ADD SWAP1 DUP2 MSTORE PUSH1 0x20 ADD PUSH0 KECCAK256 DUP1 SLOAD SWAP1 POP DUP2 MSTORE PUSH1 0x20 ADD CALLER PUSH20 0xFFFFFFFFFFFFFFFFFFFFFFFFFFFFFFFFFFFFFFFF AND DUP2 MSTORE PUSH1 0x20 ADD DUP5 DUP2 MSTORE PUSH1 0x20 ADD TIMESTAMP DUP2 MSTORE PUSH1 0x20 ADD PUSH0 DUP2 MSTORE POP SWAP1 POP PUSH1 0x3 PUSH0 CALLER PUSH20 0xFFFFFFFFFFFFFFFFFFFFFFFFFFFFFFFFFFFFFFFF AND PUSH20 0xFFFFFFFFFFFFFFFFFFFFFFFFFFFFFFFFFFFFFFFF AND DUP2 MSTORE PUSH1 0x20 ADD SWAP1 DUP2 MSTORE PUSH1 0x20 ADD PUSH0 KECCAK256 DUP2 SWAP1 DUP1 PUSH1 0x1 DUP2 SLOAD ADD DUP1 DUP3 SSTORE DUP1 SWAP2 POP POP PUSH1 0x1 SWAP1 SUB SWAP1 PUSH0 MSTORE PUSH1 0x20 PUSH0 KECCAK256 SWAP1 PUSH1 0x5 MUL ADD PUSH0 SWAP1 SWAP2 SWAP1 SWAP2 SWAP1 SWAP2 POP PUSH0 DUP3 ADD MLOAD DUP2 PUSH0 ADD SSTORE PUSH1 0x20 DUP3 ADD MLOAD DUP2 PUSH1 0x1 ADD PUSH0 PUSH2 0x100 EXP DUP2 SLOAD DUP2 PUSH20 0xFFFFFFFFFFFFFFFFFFFFFFFFFFFFFFFFFFFFFFFF MUL NOT AND SWAP1 DUP4 PUSH20 0xFFFFFFFFFFFFFFFFFFFFFFFFFFFFFFFFFFFFFFFF AND MUL OR SWAP1 SSTORE POP PUSH1 0x40 DUP3 ADD MLOAD DUP2 PUSH1 0x2 ADD SWAP1 DUP2 PUSH2 0x787 SWAP2 SWAP1 PUSH2 0x1B24 JUMP JUMPDEST POP PUSH1 0x60 DUP3 ADD MLOAD DUP2 PUSH1 0x3 ADD SSTORE PUSH1 0x80 DUP3 ADD MLOAD DUP2 PUSH1 0x4 ADD SSTORE POP POP PUSH32 0x16FD3C13E9D46923E0A8BCE11C7B473EC508A72E6C96CD2404B29CE972AFC29E DUP2 PUSH0 ADD MLOAD DUP3 PUSH1 0x20 ADD MLOAD DUP4 PUSH1 0x40 ADD MLOAD DUP5 PUSH1 0x60 ADD MLOAD PUSH1 0x40 MLOAD PUSH2 0x7E2 SWAP5 SWAP4 SWAP3 SWAP2 SWAP1 PUSH2 0x1BF3 JUMP JUMPDEST PUSH1 0x40 MLOAD DUP1 SWAP2 SUB SWAP1 LOG1 POP POP POP JUMP JUMPDEST PUSH2 0x7F7 PUSH2 0xF19 JUMP JUMPDEST DUP1 PUSH1 0x1 DUP2 SWAP1 SSTORE POP POP JUMP JUMPDEST PUSH0 DUP1 PUSH0 SWAP1 SLOAD SWAP1 PUSH2 0x100 EXP SWAP1 DIV PUSH20 0xFFFFFFFFFFFFFFFFFFFFFFFFFFFFFFFFFFFFFFFF AND SWAP1 POP SWAP1 JUMP JUMPDEST DUP1 PUSH1 0x3 PUSH0 DUP5 PUSH20 0xFFFFFFFFFFFFFFFFFFFFFFFFFFFFFFFFFFFFFFFF AND PUSH20 0xFFFFFFFFFFFFFFFFFFFFFFFFFFFFFFFFFFFFFFFF AND DUP2 MSTORE PUSH1 0x20 ADD SWAP1 DUP2 MSTORE PUSH1 0x20 ADD PUSH0 KECCAK256 DUP3 DUP2 SLOAD DUP2 LT PUSH2 0x878 JUMPI PUSH2 0x877 PUSH2 0x1C3D JUMP JUMPDEST JUMPDEST SWAP1 PUSH0 MSTORE PUSH1 0x20 PUSH0 KECCAK256 SWAP1 PUSH1 0x5 MUL ADD PUSH0 ADD SLOAD EQ PUSH2 0x8C7 JUMPI PUSH1 0x40 MLOAD PUSH32 0x8C379A000000000000000000000000000000000000000000000000000000000 DUP2 MSTORE PUSH1 0x4 ADD PUSH2 0x8BE SWAP1 PUSH2 0x1CB4 JUMP JUMPDEST PUSH1 0x40 MLOAD DUP1 SWAP2 SUB SWAP1 REVERT JUMPDEST PUSH1 0x3 PUSH0 DUP4 PUSH20 0xFFFFFFFFFFFFFFFFFFFFFFFFFFFFFFFFFFFFFFFF AND PUSH20 0xFFFFFFFFFFFFFFFFFFFFFFFFFFFFFFFFFFFFFFFF AND DUP2 MSTORE PUSH1 0x20 ADD SWAP1 DUP2 MSTORE PUSH1 0x20 ADD PUSH0 KECCAK256 DUP2 DUP2 SLOAD DUP2 LT PUSH2 0x916 JUMPI PUSH2 0x915 PUSH2 0x1C3D JUMP JUMPDEST JUMPDEST SWAP1 PUSH0 MSTORE PUSH1 0x20 PUSH0 KECCAK256 SWAP1 PUSH1 0x5 MUL ADD PUSH1 0x4 ADD PUSH0 DUP2 SLOAD DUP1 SWAP3 SWAP2 SWAP1 PUSH2 0x935 SWAP1 PUSH2 0x1CFF JUMP JUMPDEST SWAP2 SWAP1 POP SSTORE POP PUSH32 0xE8A76FC0F16D11A00D1E93B689B63D76CF60AF914DD3D915375DC41D01A0C3C8 CALLER DUP4 DUP4 PUSH1 0x3 PUSH0 DUP8 PUSH20 0xFFFFFFFFFFFFFFFFFFFFFFFFFFFFFFFFFFFFFFFF AND PUSH20 0xFFFFFFFFFFFFFFFFFFFFFFFFFFFFFFFFFFFFFFFF AND DUP2 MSTORE PUSH1 0x20 ADD SWAP1 DUP2 MSTORE PUSH1 0x20 ADD PUSH0 KECCAK256 DUP6 DUP2 SLOAD DUP2 LT PUSH2 0x9AD JUMPI PUSH2 0x9AC PUSH2 0x1C3D JUMP JUMPDEST JUMPDEST SWAP1 PUSH0 MSTORE PUSH1 0x20 PUSH0 KECCAK256 SWAP1 PUSH1 0x5 MUL ADD PUSH1 0x4 ADD SLOAD PUSH1 0x40 MLOAD PUSH2 0x9CD SWAP5 SWAP4 SWAP3 SWAP2 SWAP1 PUSH2 0x1D46 JUMP JUMPDEST PUSH1 0x40 MLOAD DUP1 SWAP2 SUB SWAP1 LOG1 POP POP JUMP JUMPDEST PUSH1 0x2 PUSH0 SWAP1 SLOAD SWAP1 PUSH2 0x100 EXP SWAP1 DIV PUSH20 0xFFFFFFFFFFFFFFFFFFFFFFFFFFFFFFFFFFFFFFFF AND DUP2 JUMP JUMPDEST DUP1 PUSH1 0x3 PUSH0 DUP5 PUSH20 0xFFFFFFFFFFFFFFFFFFFFFFFFFFFFFFFFFFFFFFFF AND PUSH20 0xFFFFFFFFFFFFFFFFFFFFFFFFFFFFFFFFFFFFFFFF AND DUP2 MSTORE PUSH1 0x20 ADD SWAP1 DUP2 MSTORE PUSH1 0x20 ADD PUSH0 KECCAK256 DUP3 DUP2 SLOAD DUP2 LT PUSH2 0xA4E JUMPI PUSH2 0xA4D PUSH2 0x1C3D JUMP JUMPDEST JUMPDEST SWAP1 PUSH0 MSTORE PUSH1 0x20 PUSH0 KECCAK256 SWAP1 PUSH1 0x5 MUL ADD PUSH0 ADD SLOAD EQ PUSH2 0xA9D JUMPI PUSH1 0x40 MLOAD PUSH32 0x8C379A000000000000000000000000000000000000000000000000000000000 DUP2 MSTORE PUSH1 0x4 ADD PUSH2 0xA94 SWAP1 PUSH2 0x1CB4 JUMP JUMPDEST PUSH1 0x40 MLOAD DUP1 SWAP2 SUB SWAP1 REVERT JUMPDEST PUSH0 PUSH1 0x3 PUSH0 DUP5 PUSH20 0xFFFFFFFFFFFFFFFFFFFFFFFFFFFFFFFFFFFFFFFF AND PUSH20 0xFFFFFFFFFFFFFFFFFFFFFFFFFFFFFFFFFFFFFFFF AND DUP2 MSTORE PUSH1 0x20 ADD SWAP1 DUP2 MSTORE PUSH1 0x20 ADD PUSH0 KECCAK256 DUP3 DUP2 SLOAD DUP2 LT PUSH2 0xAED JUMPI PUSH2 0xAEC PUSH2 0x1C3D JUMP JUMPDEST JUMPDEST SWAP1 PUSH0 MSTORE PUSH1 0x20 PUSH0 KECCAK256 SWAP1 PUSH1 0x5 MUL ADD PUSH1 0x4 ADD SLOAD GT PUSH2 0xB3D JUMPI PUSH1 0x40 MLOAD PUSH32 0x8C379A000000000000000000000000000000000000000000000000000000000 DUP2 MSTORE PUSH1 0x4 ADD PUSH2 0xB34 SWAP1 PUSH2 0x1DD3 JUMP JUMPDEST PUSH1 0x40 MLOAD DUP1 SWAP2 SUB SWAP1 REVERT JUMPDEST PUSH1 0x3 PUSH0 DUP4 PUSH20 0xFFFFFFFFFFFFFFFFFFFFFFFFFFFFFFFFFFFFFFFF AND PUSH20 0xFFFFFFFFFFFFFFFFFFFFFFFFFFFFFFFFFFFFFFFF AND DUP2 MSTORE PUSH1 0x20 ADD SWAP1 DUP2 MSTORE PUSH1 0x20 ADD PUSH0 KECCAK256 DUP2 DUP2 SLOAD DUP2 LT PUSH2 0xB8C JUMPI PUSH2 0xB8B PUSH2 0x1C3D JUMP JUMPDEST JUMPDEST SWAP1 PUSH0 MSTORE PUSH1 0x20 PUSH0 KECCAK256 SWAP1 PUSH1 0x5 MUL ADD PUSH1 0x4 ADD PUSH0 DUP2 SLOAD DUP1 SWAP3 SWAP2 SWAP1 PUSH2 0xBAB SWAP1 PUSH2 0x1DF1 JUMP JUMPDEST SWAP2 SWAP1 POP SSTORE POP PUSH32 0xD0D4999471EC2D64EF3082B701EA632E73CF03302F43274AB6D09A2B11CB1AE6 CALLER DUP4 DUP4 PUSH1 0x3 PUSH0 DUP8 PUSH20 0xFFFFFFFFFFFFFFFFFFFFFFFFFFFFFFFFFFFFFFFF AND PUSH20 0xFFFFFFFFFFFFFFFFFFFFFFFFFFFFFFFFFFFFFFFF AND DUP2 MSTORE PUSH1 0x20 ADD SWAP1 DUP2 MSTORE PUSH1 0x20 ADD PUSH0 KECCAK256 DUP6 DUP2 SLOAD DUP2 LT PUSH2 0xC23 JUMPI PUSH2 0xC22 PUSH2 0x1C3D JUMP JUMPDEST JUMPDEST SWAP1 PUSH0 MSTORE PUSH1 0x20 PUSH0 KECCAK256 SWAP1 PUSH1 0x5 MUL ADD PUSH1 0x4 ADD SLOAD PUSH1 0x40 MLOAD PUSH2 0xC43 SWAP5 SWAP4 SWAP3 SWAP2 SWAP1 PUSH2 0x1D46 JUMP JUMPDEST PUSH1 0x40 MLOAD DUP1 SWAP2 SUB SWAP1 LOG1 POP POP JUMP JUMPDEST PUSH2 0xC57 PUSH2 0x1068 JUMP JUMPDEST PUSH1 0x3 PUSH0 CALLER PUSH20 0xFFFFFFFFFFFFFFFFFFFFFFFFFFFFFFFFFFFFFFFF AND PUSH20 0xFFFFFFFFFFFFFFFFFFFFFFFFFFFFFFFFFFFFFFFF AND DUP2 MSTORE PUSH1 0x20 ADD SWAP1 DUP2 MSTORE PUSH1 0x20 ADD PUSH0 KECCAK256 DUP3 DUP2 SLOAD DUP2 LT PUSH2 0xCA6 JUMPI PUSH2 0xCA5 PUSH2 0x1C3D JUMP JUMPDEST JUMPDEST SWAP1 PUSH0 MSTORE PUSH1 0x20 PUSH0 KECCAK256 SWAP1 PUSH1 0x5 MUL ADD PUSH1 0x40 MLOAD DUP1 PUSH1 0xA0 ADD PUSH1 0x40 MSTORE SWAP1 DUP2 PUSH0 DUP3 ADD SLOAD DUP2 MSTORE PUSH1 0x20 ADD PUSH1 0x1 DUP3 ADD PUSH0 SWAP1 SLOAD SWAP1 PUSH2 0x100 EXP SWAP1 DIV PUSH20 0xFFFFFFFFFFFFFFFFFFFFFFFFFFFFFFFFFFFFFFFF AND PUSH20 0xFFFFFFFFFFFFFFFFFFFFFFFFFFFFFFFFFFFFFFFF AND PUSH20 0xFFFFFFFFFFFFFFFFFFFFFFFFFFFFFFFFFFFFFFFF AND DUP2 MSTORE PUSH1 0x20 ADD PUSH1 0x2 DUP3 ADD DUP1 SLOAD PUSH2 0xD2B SWAP1 PUSH2 0x174E JUMP JUMPDEST DUP1 PUSH1 0x1F ADD PUSH1 0x20 DUP1 SWAP2 DIV MUL PUSH1 0x20 ADD PUSH1 0x40 MLOAD SWAP1 DUP2 ADD PUSH1 0x40 MSTORE DUP1 SWAP3 SWAP2 SWAP1 DUP2 DUP2 MSTORE PUSH1 0x20 ADD DUP3 DUP1 SLOAD PUSH2 0xD57 SWAP1 PUSH2 0x174E JUMP JUMPDEST DUP1 ISZERO PUSH2 0xDA2 JUMPI DUP1 PUSH1 0x1F LT PUSH2 0xD79 JUMPI PUSH2 0x100 DUP1 DUP4 SLOAD DIV MUL DUP4 MSTORE SWAP2 PUSH1 0x20 ADD SWAP2 PUSH2 0xDA2 JUMP JUMPDEST DUP3 ADD SWAP2 SWAP1 PUSH0 MSTORE PUSH1 0x20 PUSH0 KECCAK256 SWAP1 JUMPDEST DUP2 SLOAD DUP2 MSTORE SWAP1 PUSH1 0x1 ADD SWAP1 PUSH1 0x20 ADD DUP1 DUP4 GT PUSH2 0xD85 JUMPI DUP3 SWAP1 SUB PUSH1 0x1F AND DUP3 ADD SWAP2 JUMPDEST POP POP POP POP POP DUP2 MSTORE PUSH1 0x20 ADD PUSH1 0x3 DUP3 ADD SLOAD DUP2 MSTORE PUSH1 0x20 ADD PUSH1 0x4 DUP3 ADD SLOAD DUP2 MSTORE POP POP SWAP1 POP SWAP2 SWAP1 POP JUMP JUMPDEST PUSH0 DUP1 PUSH0 JUMPDEST PUSH1 0x3 PUSH0 DUP6 PUSH20 0xFFFFFFFFFFFFFFFFFFFFFFFFFFFFFFFFFFFFFFFF AND PUSH20 0xFFFFFFFFFFFFFFFFFFFFFFFFFFFFFFFFFFFFFFFF AND DUP2 MSTORE PUSH1 0x20 ADD SWAP1 DUP2 MSTORE PUSH1 0x20 ADD PUSH0 KECCAK256 DUP1 SLOAD SWAP1 POP DUP2 LT ISZERO PUSH2 0xE8B JUMPI PUSH1 0x3 PUSH0 DUP6 PUSH20 0xFFFFFFFFFFFFFFFFFFFFFFFFFFFFFFFFFFFFFFFF AND PUSH20 0xFFFFFFFFFFFFFFFFFFFFFFFFFFFFFFFFFFFFFFFF AND DUP2 MSTORE PUSH1 0x20 ADD SWAP1 DUP2 MSTORE PUSH1 0x20 ADD PUSH0 KECCAK256 DUP2 DUP2 SLOAD DUP2 LT PUSH2 0xE61 JUMPI PUSH2 0xE60 PUSH2 0x1C3D JUMP JUMPDEST JUMPDEST SWAP1 PUSH0 MSTORE PUSH1 0x20 PUSH0 KECCAK256 SWAP1 PUSH1 0x5 MUL ADD PUSH1 0x4 ADD SLOAD DUP3 PUSH2 0xE7C SWAP2 SWAP1 PUSH2 0x1E18 JUMP JUMPDEST SWAP2 POP DUP1 DUP1 PUSH1 0x1 ADD SWAP2 POP POP PUSH2 0xDCA JUMP JUMPDEST POP DUP1 SWAP2 POP POP SWAP2 SWAP1 POP JUMP JUMPDEST PUSH2 0xE9D PUSH2 0xF19 JUMP JUMPDEST PUSH0 PUSH20 0xFFFFFFFFFFFFFFFFFFFFFFFFFFFFFFFFFFFFFFFF AND DUP2 PUSH20 0xFFFFFFFFFFFFFFFFFFFFFFFFFFFFFFFFFFFFFFFF AND SUB PUSH2 0xF0D JUMPI PUSH0 PUSH1 0x40 MLOAD PUSH32 0x1E4FBDF700000000000000000000000000000000000000000000000000000000 DUP2 MSTORE PUSH1 0x4 ADD PUSH2 0xF04 SWAP2 SWAP1 PUSH2 0x15D6 JUMP JUMPDEST PUSH1 0x40 MLOAD DUP1 SWAP2 SUB SWAP1 REVERT JUMPDEST PUSH2 0xF16 DUP2 PUSH2 0xFA0 JUMP JUMPDEST POP JUMP JUMPDEST PUSH2 0xF21 PUSH2 0x1061 JUMP JUMPDEST PUSH20 0xFFFFFFFFFFFFFFFFFFFFFFFFFFFFFFFFFFFFFFFF AND PUSH2 0xF3F PUSH2 0x801 JUMP JUMPDEST PUSH20 0xFFFFFFFFFFFFFFFFFFFFFFFFFFFFFFFFFFFFFFFF AND EQ PUSH2 0xF9E JUMPI PUSH2 0xF62 PUSH2 0x1061 JUMP JUMPDEST PUSH1 0x40 MLOAD PUSH32 0x118CDAA700000000000000000000000000000000000000000000000000000000 DUP2 MSTORE PUSH1 0x4 ADD PUSH2 0xF95 SWAP2 SWAP1 PUSH2 0x15D6 JUMP JUMPDEST PUSH1 0x40 MLOAD DUP1 SWAP2 SUB SWAP1 REVERT JUMPDEST JUMP JUMPDEST PUSH0 DUP1 PUSH0 SWAP1 SLOAD SWAP1 PUSH2 0x100 EXP SWAP1 DIV PUSH20 0xFFFFFFFFFFFFFFFFFFFFFFFFFFFFFFFFFFFFFFFF AND SWAP1 POP DUP2 PUSH0 DUP1 PUSH2 0x100 EXP DUP2 SLOAD DUP2 PUSH20 0xFFFFFFFFFFFFFFFFFFFFFFFFFFFFFFFFFFFFFFFF MUL NOT AND SWAP1 DUP4 PUSH20 0xFFFFFFFFFFFFFFFFFFFFFFFFFFFFFFFFFFFFFFFF AND MUL OR SWAP1 SSTORE POP DUP2 PUSH20 0xFFFFFFFFFFFFFFFFFFFFFFFFFFFFFFFFFFFFFFFF AND DUP2 PUSH20 0xFFFFFFFFFFFFFFFFFFFFFFFFFFFFFFFFFFFFFFFF AND PUSH32 0x8BE0079C531659141344CD1FD0A4F28419497F9722A3DAAFE3B4186F6B6457E0 PUSH1 0x40 MLOAD PUSH1 0x40 MLOAD DUP1 SWAP2 SUB SWAP1 LOG3 POP POP JUMP JUMPDEST PUSH0 CALLER SWAP1 POP SWAP1 JUMP JUMPDEST PUSH1 0x40 MLOAD DUP1 PUSH1 0xA0 ADD PUSH1 0x40 MSTORE DUP1 PUSH0 DUP2 MSTORE PUSH1 0x20 ADD PUSH0 PUSH20 0xFFFFFFFFFFFFFFFFFFFFFFFFFFFFFFFFFFFFFFFF AND DUP2 MSTORE PUSH1 0x20 ADD PUSH1 0x60 DUP2 MSTORE PUSH1 0x20 ADD PUSH0 DUP2 MSTORE PUSH1 0x20 ADD PUSH0 DUP2 MSTORE POP SWAP1 JUMP JUMPDEST PUSH0 PUSH1 0x40 MLOAD SWAP1 POP SWAP1 JUMP JUMPDEST PUSH0 DUP1 REVERT JUMPDEST PUSH0 DUP1 REVERT JUMPDEST PUSH0 PUSH20 0xFFFFFFFFFFFFFFFFFFFFFFFFFFFFFFFFFFFFFFFF DUP3 AND SWAP1 POP SWAP2 SWAP1 POP JUMP JUMPDEST PUSH0 PUSH2 0x10E3 DUP3 PUSH2 0x10BA JUMP JUMPDEST SWAP1 POP SWAP2 SWAP1 POP JUMP JUMPDEST PUSH2 0x10F3 DUP2 PUSH2 0x10D9 JUMP JUMPDEST DUP2 EQ PUSH2 0x10FD JUMPI PUSH0 DUP1 REVERT JUMPDEST POP JUMP JUMPDEST PUSH0 DUP2 CALLDATALOAD SWAP1 POP PUSH2 0x110E DUP2 PUSH2 0x10EA JUMP JUMPDEST SWAP3 SWAP2 POP POP JUMP JUMPDEST PUSH0 DUP2 SWAP1 POP SWAP2 SWAP1 POP JUMP JUMPDEST PUSH2 0x1126 DUP2 PUSH2 0x1114 JUMP JUMPDEST DUP2 EQ PUSH2 0x1130 JUMPI PUSH0 DUP1 REVERT JUMPDEST POP JUMP JUMPDEST PUSH0 DUP2 CALLDATALOAD SWAP1 POP PUSH2 0x1141 DUP2 PUSH2 0x111D JUMP JUMPDEST SWAP3 SWAP2 POP POP JUMP JUMPDEST PUSH0 DUP1 PUSH1 0x40 DUP4 DUP6 SUB SLT ISZERO PUSH2 0x115D JUMPI PUSH2 0x115C PUSH2 0x10B2 JUMP JUMPDEST JUMPDEST PUSH0 PUSH2 0x116A DUP6 DUP3 DUP7 ADD PUSH2 0x1100 JUMP JUMPDEST SWAP3 POP POP PUSH1 0x20 PUSH2 0x117B DUP6 DUP3 DUP7 ADD PUSH2 0x1133 JUMP JUMPDEST SWAP2 POP POP SWAP3 POP SWAP3 SWAP1 POP JUMP JUMPDEST PUSH2 0x118E DUP2 PUSH2 0x1114 JUMP JUMPDEST DUP3 MSTORE POP POP JUMP JUMPDEST PUSH2 0x119D DUP2 PUSH2 0x10D9 JUMP JUMPDEST DUP3 MSTORE POP POP JUMP JUMPDEST PUSH0 DUP2 MLOAD SWAP1 POP SWAP2 SWAP1 POP JUMP JUMPDEST PUSH0 DUP3 DUP3 MSTORE PUSH1 0x20 DUP3 ADD SWAP1 POP SWAP3 SWAP2 POP POP JUMP JUMPDEST DUP3 DUP2 DUP4 MCOPY PUSH0 DUP4 DUP4 ADD MSTORE POP POP POP JUMP JUMPDEST PUSH0 PUSH1 0x1F NOT PUSH1 0x1F DUP4 ADD AND SWAP1 POP SWAP2 SWAP1 POP JUMP JUMPDEST PUSH0 PUSH2 0x11E5 DUP3 PUSH2 0x11A3 JUMP JUMPDEST PUSH2 0x11EF DUP2 DUP6 PUSH2 0x11AD JUMP JUMPDEST SWAP4 POP PUSH2 0x11FF DUP2 DUP6 PUSH1 0x20 DUP7 ADD PUSH2 0x11BD JUMP JUMPDEST PUSH2 0x1208 DUP2 PUSH2 0x11CB JUMP JUMPDEST DUP5 ADD SWAP2 POP POP SWAP3 SWAP2 POP POP JUMP JUMPDEST PUSH0 PUSH1 0xA0 DUP3 ADD SWAP1 POP PUSH2 0x1226 PUSH0 DUP4 ADD DUP9 PUSH2 0x1185 JUMP JUMPDEST PUSH2 0x1233 PUSH1 0x20 DUP4 ADD DUP8 PUSH2 0x1194 JUMP JUMPDEST DUP2 DUP2 SUB PUSH1 0x40 DUP4 ADD MSTORE PUSH2 0x1245 DUP2 DUP7 PUSH2 0x11DB JUMP JUMPDEST SWAP1 POP PUSH2 0x1254 PUSH1 0x60 DUP4 ADD DUP6 PUSH2 0x1185 JUMP JUMPDEST PUSH2 0x1261 PUSH1 0x80 DUP4 ADD DUP5 PUSH2 0x1185 JUMP JUMPDEST SWAP7 SWAP6 POP POP POP POP POP POP JUMP JUMPDEST PUSH0 DUP2 MLOAD SWAP1 POP SWAP2 SWAP1 POP JUMP JUMPDEST PUSH0 DUP3 DUP3 MSTORE PUSH1 0x20 DUP3 ADD SWAP1 POP SWAP3 SWAP2 POP POP JUMP JUMPDEST PUSH0 DUP2 SWAP1 POP PUSH1 0x20 DUP3 ADD SWAP1 POP SWAP2 SWAP1 POP JUMP JUMPDEST PUSH2 0x129D DUP2 PUSH2 0x1114 JUMP JUMPDEST DUP3 MSTORE POP POP JUMP JUMPDEST PUSH2 0x12AC DUP2 PUSH2 0x10D9 JUMP JUMPDEST DUP3 MSTORE POP POP JUMP JUMPDEST PUSH0 DUP3 DUP3 MSTORE PUSH1 0x20 DUP3 ADD SWAP1 POP SWAP3 SWAP2 POP POP JUMP JUMPDEST PUSH0 PUSH2 0x12CC DUP3 PUSH2 0x11A3 JUMP JUMPDEST PUSH2 0x12D6 DUP2 DUP6 PUSH2 0x12B2 JUMP JUMPDEST SWAP4 POP PUSH2 0x12E6 DUP2 DUP6 PUSH1 0x20 DUP7 ADD PUSH2 0x11BD JUMP JUMPDEST PUSH2 0x12EF DUP2 PUSH2 0x11CB JUMP JUMPDEST DUP5 ADD SWAP2 POP POP SWAP3 SWAP2 POP POP JUMP JUMPDEST PUSH0 PUSH1 0xA0 DUP4 ADD PUSH0 DUP4 ADD MLOAD PUSH2 0x130F PUSH0 DUP7 ADD DUP3 PUSH2 0x1294 JUMP JUMPDEST POP PUSH1 0x20 DUP4 ADD MLOAD PUSH2 0x1322 PUSH1 0x20 DUP7 ADD DUP3 PUSH2 0x12A3 JUMP JUMPDEST POP PUSH1 0x40 DUP4 ADD MLOAD DUP5 DUP3 SUB PUSH1 0x40 DUP7 ADD MSTORE PUSH2 0x133A DUP3 DUP3 PUSH2 0x12C2 JUMP JUMPDEST SWAP2 POP POP PUSH1 0x60 DUP4 ADD MLOAD PUSH2 0x134F PUSH1 0x60 DUP7 ADD DUP3 PUSH2 0x1294 JUMP JUMPDEST POP PUSH1 0x80 DUP4 ADD MLOAD PUSH2 0x1362 PUSH1 0x80 DUP7 ADD DUP3 PUSH2 0x1294 JUMP JUMPDEST POP DUP1 SWAP2 POP POP SWAP3 SWAP2 POP POP JUMP JUMPDEST PUSH0 PUSH2 0x1378 DUP4 DUP4 PUSH2 0x12FA JUMP JUMPDEST SWAP1 POP SWAP3 SWAP2 POP POP JUMP JUMPDEST PUSH0 PUSH1 0x20 DUP3 ADD SWAP1 POP SWAP2 SWAP1 POP JUMP JUMPDEST PUSH0 PUSH2 0x1396 DUP3 PUSH2 0x126B JUMP JUMPDEST PUSH2 0x13A0 DUP2 DUP6 PUSH2 0x1275 JUMP JUMPDEST SWAP4 POP DUP4 PUSH1 0x20 DUP3 MUL DUP6 ADD PUSH2 0x13B2 DUP6 PUSH2 0x1285 JUMP JUMPDEST DUP1 PUSH0 JUMPDEST DUP6 DUP2 LT ISZERO PUSH2 0x13ED JUMPI DUP5 DUP5 SUB DUP10 MSTORE DUP2 MLOAD PUSH2 0x13CE DUP6 DUP3 PUSH2 0x136D JUMP JUMPDEST SWAP5 POP PUSH2 0x13D9 DUP4 PUSH2 0x1380 JUMP JUMPDEST SWAP3 POP PUSH1 0x20 DUP11 ADD SWAP10 POP POP PUSH1 0x1 DUP2 ADD SWAP1 POP PUSH2 0x13B5 JUMP JUMPDEST POP DUP3 SWAP8 POP DUP8 SWAP6 POP POP POP POP POP POP SWAP3 SWAP2 POP POP JUMP JUMPDEST PUSH0 PUSH1 0x20 DUP3 ADD SWAP1 POP DUP2 DUP2 SUB PUSH0 DUP4 ADD MSTORE PUSH2 0x1417 DUP2 DUP5 PUSH2 0x138C JUMP JUMPDEST SWAP1 POP SWAP3 SWAP2 POP POP JUMP JUMPDEST PUSH0 PUSH1 0x20 DUP3 ADD SWAP1 POP PUSH2 0x1432 PUSH0 DUP4 ADD DUP5 PUSH2 0x1185 JUMP JUMPDEST SWAP3 SWAP2 POP POP JUMP JUMPDEST PUSH0 DUP1 REVERT JUMPDEST PUSH0 DUP1 REVERT JUMPDEST PUSH32 0x4E487B7100000000000000000000000000000000000000000000000000000000 PUSH0 MSTORE PUSH1 0x41 PUSH1 0x4 MSTORE PUSH1 0x24 PUSH0 REVERT JUMPDEST PUSH2 0x1476 DUP3 PUSH2 0x11CB JUMP JUMPDEST DUP2 ADD DUP2 DUP2 LT PUSH8 0xFFFFFFFFFFFFFFFF DUP3 GT OR ISZERO PUSH2 0x1495 JUMPI PUSH2 0x1494 PUSH2 0x1440 JUMP JUMPDEST JUMPDEST DUP1 PUSH1 0x40 MSTORE POP POP POP JUMP JUMPDEST PUSH0 PUSH2 0x14A7 PUSH2 0x10A9 JUMP JUMPDEST SWAP1 POP PUSH2 0x14B3 DUP3 DUP3 PUSH2 0x146D JUMP JUMPDEST SWAP2 SWAP1 POP JUMP JUMPDEST PUSH0 PUSH8 0xFFFFFFFFFFFFFFFF DUP3 GT ISZERO PUSH2 0x14D2 JUMPI PUSH2 0x14D1 PUSH2 0x1440 JUMP JUMPDEST JUMPDEST PUSH2 0x14DB DUP3 PUSH2 0x11CB JUMP JUMPDEST SWAP1 POP PUSH1 0x20 DUP2 ADD SWAP1 POP SWAP2 SWAP1 POP JUMP JUMPDEST DUP3 DUP2 DUP4 CALLDATACOPY PUSH0 DUP4 DUP4 ADD MSTORE POP POP POP JUMP JUMPDEST PUSH0 PUSH2 0x1508 PUSH2 0x1503 DUP5 PUSH2 0x14B8 JUMP JUMPDEST PUSH2 0x149E JUMP JUMPDEST SWAP1 POP DUP3 DUP2 MSTORE PUSH1 0x20 DUP2 ADD DUP5 DUP5 DUP5 ADD GT ISZERO PUSH2 0x1524 JUMPI PUSH2 0x1523 PUSH2 0x143C JUMP JUMPDEST JUMPDEST PUSH2 0x152F DUP5 DUP3 DUP6 PUSH2 0x14E8 JUMP JUMPDEST POP SWAP4 SWAP3 POP POP POP JUMP JUMPDEST PUSH0 DUP3 PUSH1 0x1F DUP4 ADD SLT PUSH2 0x154B JUMPI PUSH2 0x154A PUSH2 0x1438 JUMP JUMPDEST JUMPDEST DUP2 CALLDATALOAD PUSH2 0x155B DUP5 DUP3 PUSH1 0x20 DUP7 ADD PUSH2 0x14F6 JUMP JUMPDEST SWAP2 POP POP SWAP3 SWAP2 POP POP JUMP JUMPDEST PUSH0 PUSH1 0x20 DUP3 DUP5 SUB SLT ISZERO PUSH2 0x1579 JUMPI PUSH2 0x1578 PUSH2 0x10B2 JUMP JUMPDEST JUMPDEST PUSH0 DUP3 ADD CALLDATALOAD PUSH8 0xFFFFFFFFFFFFFFFF DUP2 GT ISZERO PUSH2 0x1596 JUMPI PUSH2 0x1595 PUSH2 0x10B6 JUMP JUMPDEST JUMPDEST PUSH2 0x15A2 DUP5 DUP3 DUP6 ADD PUSH2 0x1537 JUMP JUMPDEST SWAP2 POP POP SWAP3 SWAP2 POP POP JUMP JUMPDEST PUSH0 PUSH1 0x20 DUP3 DUP5 SUB SLT ISZERO PUSH2 0x15C0 JUMPI PUSH2 0x15BF PUSH2 0x10B2 JUMP JUMPDEST JUMPDEST PUSH0 PUSH2 0x15CD DUP5 DUP3 DUP6 ADD PUSH2 0x1133 JUMP JUMPDEST SWAP2 POP POP SWAP3 SWAP2 POP POP JUMP JUMPDEST PUSH0 PUSH1 0x20 DUP3 ADD SWAP1 POP PUSH2 0x15E9 PUSH0 DUP4 ADD DUP5 PUSH2 0x1194 JUMP JUMPDEST SWAP3 SWAP2 POP POP JUMP JUMPDEST PUSH0 DUP2 SWAP1 POP SWAP2 SWAP1 POP JUMP JUMPDEST PUSH0 PUSH2 0x1612 PUSH2 0x160D PUSH2 0x1608 DUP5 PUSH2 0x10BA JUMP JUMPDEST PUSH2 0x15EF JUMP JUMPDEST PUSH2 0x10BA JUMP JUMPDEST SWAP1 POP SWAP2 SWAP1 POP JUMP JUMPDEST PUSH0 PUSH2 0x1623 DUP3 PUSH2 0x15F8 JUMP JUMPDEST SWAP1 POP SWAP2 SWAP1 POP JUMP JUMPDEST PUSH0 PUSH2 0x1634 DUP3 PUSH2 0x1619 JUMP JUMPDEST SWAP1 POP SWAP2 SWAP1 POP JUMP JUMPDEST PUSH2 0x1644 DUP2 PUSH2 0x162A JUMP JUMPDEST DUP3 MSTORE POP POP JUMP JUMPDEST PUSH0 PUSH1 0x20 DUP3 ADD SWAP1 POP PUSH2 0x165D PUSH0 DUP4 ADD DUP5 PUSH2 0x163B JUMP JUMPDEST SWAP3 SWAP2 POP POP JUMP JUMPDEST PUSH0 PUSH1 0xA0 DUP4 ADD PUSH0 DUP4 ADD MLOAD PUSH2 0x1678 PUSH0 DUP7 ADD DUP3 PUSH2 0x1294 JUMP JUMPDEST POP PUSH1 0x20 DUP4 ADD MLOAD PUSH2 0x168B PUSH1 0x20 DUP7 ADD DUP3 PUSH2 0x12A3 JUMP JUMPDEST POP PUSH1 0x40 DUP4 ADD MLOAD DUP5 DUP3 SUB PUSH1 0x40 DUP7 ADD MSTORE PUSH2 0x16A3 DUP3 DUP3 PUSH2 0x12C2 JUMP JUMPDEST SWAP2 POP POP PUSH1 0x60 DUP4 ADD MLOAD PUSH2 0x16B8 PUSH1 0x60 DUP7 ADD DUP3 PUSH2 0x1294 JUMP JUMPDEST POP PUSH1 0x80 DUP4 ADD MLOAD PUSH2 0x16CB PUSH1 0x80 DUP7 ADD DUP3 PUSH2 0x1294 JUMP JUMPDEST POP DUP1 SWAP2 POP POP SWAP3 SWAP2 POP POP JUMP JUMPDEST PUSH0 PUSH1 0x20 DUP3 ADD SWAP1 POP DUP2 DUP2 SUB PUSH0 DUP4 ADD MSTORE PUSH2 0x16EE DUP2 DUP5 PUSH2 0x1663 JUMP JUMPDEST SWAP1 POP SWAP3 SWAP2 POP POP JUMP JUMPDEST PUSH0 PUSH1 0x20 DUP3 DUP5 SUB SLT ISZERO PUSH2 0x170B JUMPI PUSH2 0x170A PUSH2 0x10B2 JUMP JUMPDEST JUMPDEST PUSH0 PUSH2 0x1718 DUP5 DUP3 DUP6 ADD PUSH2 0x1100 JUMP JUMPDEST SWAP2 POP POP SWAP3 SWAP2 POP POP JUMP JUMPDEST PUSH32 0x4E487B7100000000000000000000000000000000000000000000000000000000 PUSH0 MSTORE PUSH1 0x22 PUSH1 0x4 MSTORE PUSH1 0x24 PUSH0 REVERT JUMPDEST PUSH0 PUSH1 0x2 DUP3 DIV SWAP1 POP PUSH1 0x1 DUP3 AND DUP1 PUSH2 0x1765 JUMPI PUSH1 0x7F DUP3 AND SWAP2 POP JUMPDEST PUSH1 0x20 DUP3 LT DUP2 SUB PUSH2 0x1778 JUMPI PUSH2 0x1777 PUSH2 0x1721 JUMP JUMPDEST JUMPDEST POP SWAP2 SWAP1 POP JUMP JUMPDEST PUSH0 DUP1 REVERT JUMPDEST PUSH0 DUP1 REVERT JUMPDEST PUSH0 PUSH2 0x1798 PUSH2 0x1793 DUP5 PUSH2 0x14B8 JUMP JUMPDEST PUSH2 0x149E JUMP JUMPDEST SWAP1 POP DUP3 DUP2 MSTORE PUSH1 0x20 DUP2 ADD DUP5 DUP5 DUP5 ADD GT ISZERO PUSH2 0x17B4 JUMPI PUSH2 0x17B3 PUSH2 0x143C JUMP JUMPDEST JUMPDEST PUSH2 0x17BF DUP5 DUP3 DUP6 PUSH2 0x11BD JUMP JUMPDEST POP SWAP4 SWAP3 POP POP POP JUMP JUMPDEST PUSH0 DUP3 PUSH1 0x1F DUP4 ADD SLT PUSH2 0x17DB JUMPI PUSH2 0x17DA PUSH2 0x1438 JUMP JUMPDEST JUMPDEST DUP2 MLOAD PUSH2 0x17EB DUP5 DUP3 PUSH1 0x20 DUP7 ADD PUSH2 0x1786 JUMP JUMPDEST SWAP2 POP POP SWAP3 SWAP2 POP POP JUMP JUMPDEST PUSH0 PUSH1 0x40 DUP3 DUP5 SUB SLT ISZERO PUSH2 0x1809 JUMPI PUSH2 0x1808 PUSH2 0x177E JUMP JUMPDEST JUMPDEST PUSH2 0x1813 PUSH1 0x40 PUSH2 0x149E JUMP JUMPDEST SWAP1 POP PUSH0 DUP3 ADD MLOAD PUSH8 0xFFFFFFFFFFFFFFFF DUP2 GT ISZERO PUSH2 0x1832 JUMPI PUSH2 0x1831 PUSH2 0x1782 JUMP JUMPDEST JUMPDEST PUSH2 0x183E DUP5 DUP3 DUP6 ADD PUSH2 0x17C7 JUMP JUMPDEST PUSH0 DUP4 ADD MSTORE POP PUSH1 0x20 DUP3 ADD MLOAD PUSH8 0xFFFFFFFFFFFFFFFF DUP2 GT ISZERO PUSH2 0x1861 JUMPI PUSH2 0x1860 PUSH2 0x1782 JUMP JUMPDEST JUMPDEST PUSH2 0x186D DUP5 DUP3 DUP6 ADD PUSH2 0x17C7 JUMP JUMPDEST PUSH1 0x20 DUP4 ADD MSTORE POP SWAP3 SWAP2 POP POP JUMP JUMPDEST PUSH0 PUSH1 0x20 DUP3 DUP5 SUB SLT ISZERO PUSH2 0x188E JUMPI PUSH2 0x188D PUSH2 0x10B2 JUMP JUMPDEST JUMPDEST PUSH0 DUP3 ADD MLOAD PUSH8 0xFFFFFFFFFFFFFFFF DUP2 GT ISZERO PUSH2 0x18AB JUMPI PUSH2 0x18AA PUSH2 0x10B6 JUMP JUMPDEST JUMPDEST PUSH2 0x18B7 DUP5 DUP3 DUP6 ADD PUSH2 0x17F4 JUMP JUMPDEST SWAP2 POP POP SWAP3 SWAP2 POP POP JUMP JUMPDEST PUSH32 0x55736572206E6F74207265676973746572656400000000000000000000000000 PUSH0 DUP3 ADD MSTORE POP JUMP JUMPDEST PUSH0 PUSH2 0x18F4 PUSH1 0x13 DUP4 PUSH2 0x11AD JUMP JUMPDEST SWAP2 POP PUSH2 0x18FF DUP3 PUSH2 0x18C0 JUMP JUMPDEST PUSH1 0x20 DUP3 ADD SWAP1 POP SWAP2 SWAP1 POP JUMP JUMPDEST PUSH0 PUSH1 0x20 DUP3 ADD SWAP1 POP DUP2 DUP2 SUB PUSH0 DUP4 ADD MSTORE PUSH2 0x1921 DUP2 PUSH2 0x18E8 JUMP JUMPDEST SWAP1 POP SWAP2 SWAP1 POP JUMP JUMPDEST PUSH32 0x547765657420697320746F6F206C6F6E67210000000000000000000000000000 PUSH0 DUP3 ADD MSTORE POP JUMP JUMPDEST PUSH0 PUSH2 0x195C PUSH1 0x12 DUP4 PUSH2 0x11AD JUMP JUMPDEST SWAP2 POP PUSH2 0x1967 DUP3 PUSH2 0x1928 JUMP JUMPDEST PUSH1 0x20 DUP3 ADD SWAP1 POP SWAP2 SWAP1 POP JUMP JUMPDEST PUSH0 PUSH1 0x20 DUP3 ADD SWAP1 POP DUP2 DUP2 SUB PUSH0 DUP4 ADD MSTORE PUSH2 0x1989 DUP2 PUSH2 0x1950 JUMP JUMPDEST SWAP1 POP SWAP2 SWAP1 POP JUMP JUMPDEST PUSH0 DUP2 SWAP1 POP DUP2 PUSH0 MSTORE PUSH1 0x20 PUSH0 KECCAK256 SWAP1 POP SWAP2 SWAP1 POP JUMP JUMPDEST PUSH0 PUSH1 0x20 PUSH1 0x1F DUP4 ADD DIV SWAP1 POP SWAP2 SWAP1 POP JUMP JUMPDEST PUSH0 DUP3 DUP3 SHL SWAP1 POP SWAP3 SWAP2 POP POP JUMP JUMPDEST PUSH0 PUSH1 0x8 DUP4 MUL PUSH2 0x19EC PUSH32 0xFFFFFFFFFFFFFFFFFFFFFFFFFFFFFFFFFFFFFFFFFFFFFFFFFFFFFFFFFFFFFFFF DUP3 PUSH2 0x19B1 JUMP JUMPDEST PUSH2 0x19F6 DUP7 DUP4 PUSH2 0x19B1 JUMP JUMPDEST SWAP6 POP DUP1 NOT DUP5 AND SWAP4 POP DUP1 DUP7 AND DUP5 OR SWAP3 POP POP POP SWAP4 SWAP3 POP POP POP JUMP JUMPDEST PUSH0 PUSH2 0x1A28 PUSH2 0x1A23 PUSH2 0x1A1E DUP5 PUSH2 0x1114 JUMP JUMPDEST PUSH2 0x15EF JUMP JUMPDEST PUSH2 0x1114 JUMP JUMPDEST SWAP1 POP SWAP2 SWAP1 POP JUMP JUMPDEST PUSH0 DUP2 SWAP1 POP SWAP2 SWAP1 POP JUMP JUMPDEST PUSH2 0x1A41 DUP4 PUSH2 0x1A0E JUMP JUMPDEST PUSH2 0x1A55 PUSH2 0x1A4D DUP3 PUSH2 0x1A2F JUMP JUMPDEST DUP5 DUP5 SLOAD PUSH2 0x19BD JUMP JUMPDEST DUP3 SSTORE POP POP POP POP JUMP JUMPDEST PUSH0 SWAP1 JUMP JUMPDEST PUSH2 0x1A69 PUSH2 0x1A5D JUMP JUMPDEST PUSH2 0x1A74 DUP2 DUP5 DUP5 PUSH2 0x1A38 JUMP JUMPDEST POP POP POP JUMP JUMPDEST JUMPDEST DUP2 DUP2 LT ISZERO PUSH2 0x1A97 JUMPI PUSH2 0x1A8C PUSH0 DUP3 PUSH2 0x1A61 JUMP JUMPDEST PUSH1 0x1 DUP2 ADD SWAP1 POP PUSH2 0x1A7A JUMP JUMPDEST POP POP JUMP JUMPDEST PUSH1 0x1F DUP3 GT ISZERO PUSH2 0x1ADC JUMPI PUSH2 0x1AAD DUP2 PUSH2 0x1990 JUMP JUMPDEST PUSH2 0x1AB6 DUP5 PUSH2 0x19A2 JUMP JUMPDEST DUP2 ADD PUSH1 0x20 DUP6 LT ISZERO PUSH2 0x1AC5 JUMPI DUP2 SWAP1 POP JUMPDEST PUSH2 0x1AD9 PUSH2 0x1AD1 DUP6 PUSH2 0x19A2 JUMP JUMPDEST DUP4 ADD DUP3 PUSH2 0x1A79 JUMP JUMPDEST POP POP JUMPDEST POP POP POP JUMP JUMPDEST PUSH0 DUP3 DUP3 SHR SWAP1 POP SWAP3 SWAP2 POP POP JUMP JUMPDEST PUSH0 PUSH2 0x1AFC PUSH0 NOT DUP5 PUSH1 0x8 MUL PUSH2 0x1AE1 JUMP JUMPDEST NOT DUP1 DUP4 AND SWAP2 POP POP SWAP3 SWAP2 POP POP JUMP JUMPDEST PUSH0 PUSH2 0x1B14 DUP4 DUP4 PUSH2 0x1AED JUMP JUMPDEST SWAP2 POP DUP3 PUSH1 0x2 MUL DUP3 OR SWAP1 POP SWAP3 SWAP2 POP POP JUMP JUMPDEST PUSH2 0x1B2D DUP3 PUSH2 0x11A3 JUMP JUMPDEST PUSH8 0xFFFFFFFFFFFFFFFF DUP2 GT ISZERO PUSH2 0x1B46 JUMPI PUSH2 0x1B45 PUSH2 0x1440 JUMP JUMPDEST JUMPDEST PUSH2 0x1B50 DUP3 SLOAD PUSH2 0x174E JUMP JUMPDEST PUSH2 0x1B5B DUP3 DUP3 DUP6 PUSH2 0x1A9B JUMP JUMPDEST PUSH0 PUSH1 0x20 SWAP1 POP PUSH1 0x1F DUP4 GT PUSH1 0x1 DUP2 EQ PUSH2 0x1B8C JUMPI PUSH0 DUP5 ISZERO PUSH2 0x1B7A JUMPI DUP3 DUP8 ADD MLOAD SWAP1 POP JUMPDEST PUSH2 0x1B84 DUP6 DUP3 PUSH2 0x1B09 JUMP JUMPDEST DUP7 SSTORE POP PUSH2 0x1BEB JUMP JUMPDEST PUSH1 0x1F NOT DUP5 AND PUSH2 0x1B9A DUP7 PUSH2 0x1990 JUMP JUMPDEST PUSH0 JUMPDEST DUP3 DUP2 LT ISZERO PUSH2 0x1BC1 JUMPI DUP5 DUP10 ADD MLOAD DUP3 SSTORE PUSH1 0x1 DUP3 ADD SWAP2 POP PUSH1 0x20 DUP6 ADD SWAP5 POP PUSH1 0x20 DUP2 ADD SWAP1 POP PUSH2 0x1B9C JUMP JUMPDEST DUP7 DUP4 LT ISZERO PUSH2 0x1BDE JUMPI DUP5 DUP10 ADD MLOAD PUSH2 0x1BDA PUSH1 0x1F DUP10 AND DUP3 PUSH2 0x1AED JUMP JUMPDEST DUP4 SSTORE POP JUMPDEST PUSH1 0x1 PUSH1 0x2 DUP9 MUL ADD DUP9 SSTORE POP POP POP JUMPDEST POP POP POP POP POP POP JUMP JUMPDEST PUSH0 PUSH1 0x80 DUP3 ADD SWAP1 POP PUSH2 0x1C06 PUSH0 DUP4 ADD DUP8 PUSH2 0x1185 JUMP JUMPDEST PUSH2 0x1C13 PUSH1 0x20 DUP4 ADD DUP7 PUSH2 0x1194 JUMP JUMPDEST DUP2 DUP2 SUB PUSH1 0x40 DUP4 ADD MSTORE PUSH2 0x1C25 DUP2 DUP6 PUSH2 0x11DB JUMP JUMPDEST SWAP1 POP PUSH2 0x1C34 PUSH1 0x60 DUP4 ADD DUP5 PUSH2 0x1185 JUMP JUMPDEST SWAP6 SWAP5 POP POP POP POP POP JUMP JUMPDEST PUSH32 0x4E487B7100000000000000000000000000000000000000000000000000000000 PUSH0 MSTORE PUSH1 0x32 PUSH1 0x4 MSTORE PUSH1 0x24 PUSH0 REVERT JUMPDEST PUSH32 0x547765657420646F6573206E6F74206578697374000000000000000000000000 PUSH0 DUP3 ADD MSTORE POP JUMP JUMPDEST PUSH0 PUSH2 0x1C9E PUSH1 0x14 DUP4 PUSH2 0x11AD JUMP JUMPDEST SWAP2 POP PUSH2 0x1CA9 DUP3 PUSH2 0x1C6A JUMP JUMPDEST PUSH1 0x20 DUP3 ADD SWAP1 POP SWAP2 SWAP1 POP JUMP JUMPDEST PUSH0 PUSH1 0x20 DUP3 ADD SWAP1 POP DUP2 DUP2 SUB PUSH0 DUP4 ADD MSTORE PUSH2 0x1CCB DUP2 PUSH2 0x1C92 JUMP JUMPDEST SWAP1 POP SWAP2 SWAP1 POP JUMP JUMPDEST PUSH32 0x4E487B7100000000000000000000000000000000000000000000000000000000 PUSH0 MSTORE PUSH1 0x11 PUSH1 0x4 MSTORE PUSH1 0x24 PUSH0 REVERT JUMPDEST PUSH0 PUSH2 0x1D09 DUP3 PUSH2 0x1114 JUMP JUMPDEST SWAP2 POP PUSH32 0xFFFFFFFFFFFFFFFFFFFFFFFFFFFFFFFFFFFFFFFFFFFFFFFFFFFFFFFFFFFFFFFF DUP3 SUB PUSH2 0x1D3B JUMPI PUSH2 0x1D3A PUSH2 0x1CD2 JUMP JUMPDEST JUMPDEST PUSH1 0x1 DUP3 ADD SWAP1 POP SWAP2 SWAP1 POP JUMP JUMPDEST PUSH0 PUSH1 0x80 DUP3 ADD SWAP1 POP PUSH2 0x1D59 PUSH0 DUP4 ADD DUP8 PUSH2 0x1194 JUMP JUMPDEST PUSH2 0x1D66 PUSH1 0x20 DUP4 ADD DUP7 PUSH2 0x1194 JUMP JUMPDEST PUSH2 0x1D73 PUSH1 0x40 DUP4 ADD DUP6 PUSH2 0x1185 JUMP JUMPDEST PUSH2 0x1D80 PUSH1 0x60 DUP4 ADD DUP5 PUSH2 0x1185 JUMP JUMPDEST SWAP6 SWAP5 POP POP POP POP POP JUMP JUMPDEST PUSH32 0x545745455420484153204E4F204C494B45530000000000000000000000000000 PUSH0 DUP3 ADD MSTORE POP JUMP JUMPDEST PUSH0 PUSH2 0x1DBD PUSH1 0x12 DUP4 PUSH2 0x11AD JUMP JUMPDEST SWAP2 POP PUSH2 0x1DC8 DUP3 PUSH2 0x1D89 JUMP JUMPDEST PUSH1 0x20 DUP3 ADD SWAP1 POP SWAP2 SWAP1 POP JUMP JUMPDEST PUSH0 PUSH1 0x20 DUP3 ADD SWAP1 POP DUP2 DUP2 SUB PUSH0 DUP4 ADD MSTORE PUSH2 0x1DEA DUP2 PUSH2 0x1DB1 JUMP JUMPDEST SWAP1 POP SWAP2 SWAP1 POP JUMP JUMPDEST PUSH0 PUSH2 0x1DFB DUP3 PUSH2 0x1114 JUMP JUMPDEST SWAP2 POP PUSH0 DUP3 SUB PUSH2 0x1E0D JUMPI PUSH2 0x1E0C PUSH2 0x1CD2 JUMP JUMPDEST JUMPDEST PUSH1 0x1 DUP3 SUB SWAP1 POP SWAP2 SWAP1 POP JUMP JUMPDEST PUSH0 PUSH2 0x1E22 DUP3 PUSH2 0x1114 JUMP JUMPDEST SWAP2 POP PUSH2 0x1E2D DUP4 PUSH2 0x1114 JUMP JUMPDEST SWAP3 POP DUP3 DUP3 ADD SWAP1 POP DUP1 DUP3 GT ISZERO PUSH2 0x1E45 JUMPI PUSH2 0x1E44 PUSH2 0x1CD2 JUMP JUMPDEST JUMPDEST SWAP3 SWAP2 POP POP JUMP INVALID LOG2 PUSH5 0x6970667358 0x22 SLT KECCAK256 TLOAD PUSH19 0xBE8C97C7FA2BFD30FA769EC6BECF9D7DD73B51 SWAP11 BLOCKHASH 0x2C 0x2A 0xED 0xA5 0xB0 0xE0 PUSH0 0xD5 PUSH23 0x64736F6C634300081A0033000000000000000000000000 "
				},
				"gasEstimates": {
					"creation": {
						"codeDepositCost": "1561800",
						"executionCost": "infinite",
						"totalCost": "infinite"
					},
					"external": {
						"MAX_TWEET_LENGTH()": "2470",
						"changeTweetLength(uint256)": "infinite",
						"createTweet(string)": "infinite",
						"dislikeTweet(address,uint256)": "infinite",
						"getAllLikes(address)": "infinite",
						"getAllTweets()": "infinite",
						"getTweet(uint256)": "infinite",
						"likedTweet(address,uint256)": "infinite",
						"owner()": "2538",
						"profileContract()": "infinite",
						"renounceOwnership()": "infinite",
						"transferOwnership(address)": "infinite",
						"tweets(address,uint256)": "infinite"
					}
				},
				"methodIdentifiers": {
					"MAX_TWEET_LENGTH()": "6eb10797",
					"changeTweetLength(uint256)": "888a7880",
					"createTweet(string)": "7c9cd2bc",
					"dislikeTweet(address,uint256)": "ae775e95",
					"getAllLikes(address)": "e1549d85",
					"getAllTweets()": "53256135",
					"getTweet(uint256)": "c3ad5ecb",
					"likedTweet(address,uint256)": "a0d96b6f",
					"owner()": "8da5cb5b",
					"profileContract()": "a3974b21",
					"renounceOwnership()": "715018a6",
					"transferOwnership(address)": "f2fde38b",
					"tweets(address,uint256)": "05a1b4a9"
				}
			},
			"storageLayout": {
				"storage": [
					{
						"astId": 8,
						"contract": "contracts/Twitter-Interaction-Main.sol:Twitter",
						"label": "_owner",
						"offset": 0,
						"slot": "0",
						"type": "t_address"
					},
					{
						"astId": 199,
						"contract": "contracts/Twitter-Interaction-Main.sol:Twitter",
						"label": "MAX_TWEET_LENGTH",
						"offset": 0,
						"slot": "1",
						"type": "t_uint256"
					},
					{
						"astId": 202,
						"contract": "contracts/Twitter-Interaction-Main.sol:Twitter",
						"label": "profileContract",
						"offset": 0,
						"slot": "2",
						"type": "t_contract(IProfile)194"
					},
					{
						"astId": 292,
						"contract": "contracts/Twitter-Interaction-Main.sol:Twitter",
						"label": "tweets",
						"offset": 0,
						"slot": "3",
						"type": "t_mapping(t_address,t_array(t_struct(Tweet)213_storage)dyn_storage)"
					}
				],
				"types": {
					"t_address": {
						"encoding": "inplace",
						"label": "address",
						"numberOfBytes": "20"
					},
					"t_array(t_struct(Tweet)213_storage)dyn_storage": {
						"base": "t_struct(Tweet)213_storage",
						"encoding": "dynamic_array",
						"label": "struct Twitter.Tweet[]",
						"numberOfBytes": "32"
					},
					"t_contract(IProfile)194": {
						"encoding": "inplace",
						"label": "contract IProfile",
						"numberOfBytes": "20"
					},
					"t_mapping(t_address,t_array(t_struct(Tweet)213_storage)dyn_storage)": {
						"encoding": "mapping",
						"key": "t_address",
						"label": "mapping(address => struct Twitter.Tweet[])",
						"numberOfBytes": "32",
						"value": "t_array(t_struct(Tweet)213_storage)dyn_storage"
					},
					"t_string_storage": {
						"encoding": "bytes",
						"label": "string",
						"numberOfBytes": "32"
					},
					"t_struct(Tweet)213_storage": {
						"encoding": "inplace",
						"label": "struct Twitter.Tweet",
						"members": [
							{
								"astId": 204,
								"contract": "contracts/Twitter-Interaction-Main.sol:Twitter",
								"label": "id",
								"offset": 0,
								"slot": "0",
								"type": "t_uint256"
							},
							{
								"astId": 206,
								"contract": "contracts/Twitter-Interaction-Main.sol:Twitter",
								"label": "author",
								"offset": 0,
								"slot": "1",
								"type": "t_address"
							},
							{
								"astId": 208,
								"contract": "contracts/Twitter-Interaction-Main.sol:Twitter",
								"label": "content",
								"offset": 0,
								"slot": "2",
								"type": "t_string_storage"
							},
							{
								"astId": 210,
								"contract": "contracts/Twitter-Interaction-Main.sol:Twitter",
								"label": "timestamp",
								"offset": 0,
								"slot": "3",
								"type": "t_uint256"
							},
							{
								"astId": 212,
								"contract": "contracts/Twitter-Interaction-Main.sol:Twitter",
								"label": "likes",
								"offset": 0,
								"slot": "4",
								"type": "t_uint256"
							}
						],
						"numberOfBytes": "160"
					},
					"t_uint256": {
						"encoding": "inplace",
						"label": "uint256",
						"numberOfBytes": "32"
					}
				}
			},
			"userdoc": {
				"kind": "user",
				"methods": {},
				"version": 1
			}
		}
	}
}