{
	"contracts/Require.sol": {
		"Twitter": {
			"abi": [
				{
					"inputs": [],
					"name": "MAX_TWEET_LENGTH",
					"outputs": [
						{
							"internalType": "uint256",
							"name": "",
							"type": "uint256"
						}
					],
					"stateMutability": "view",
					"type": "function"
				},
				{
					"inputs": [
						{
							"internalType": "string",
							"name": "_tweets",
							"type": "string"
						}
					],
					"name": "creatTweets",
					"outputs": [],
					"stateMutability": "nonpayable",
					"type": "function"
				},
				{
					"inputs": [
						{
							"internalType": "address",
							"name": "_owner",
							"type": "address"
						}
					],
					"name": "getAllTweets",
					"outputs": [
						{
							"components": [
								{
									"internalType": "address",
									"name": "author",
									"type": "address"
								},
								{
									"internalType": "string",
									"name": "content",
									"type": "string"
								},
								{
									"internalType": "uint256",
									"name": "timestamp",
									"type": "uint256"
								},
								{
									"internalType": "uint256",
									"name": "likes",
									"type": "uint256"
								}
							],
							"internalType": "struct Twitter.TwitterStruct[]",
							"name": "",
							"type": "tuple[]"
						}
					],
					"stateMutability": "view",
					"type": "function"
				},
				{
					"inputs": [
						{
							"internalType": "uint256",
							"name": "_i",
							"type": "uint256"
						}
					],
					"name": "getTweets",
					"outputs": [
						{
							"components": [
								{
									"internalType": "address",
									"name": "author",
									"type": "address"
								},
								{
									"internalType": "string",
									"name": "content",
									"type": "string"
								},
								{
									"internalType": "uint256",
									"name": "timestamp",
									"type": "uint256"
								},
								{
									"internalType": "uint256",
									"name": "likes",
									"type": "uint256"
								}
							],
							"internalType": "struct Twitter.TwitterStruct",
							"name": "",
							"type": "tuple"
						}
					],
					"stateMutability": "view",
					"type": "function"
				},
				{
					"inputs": [
						{
							"internalType": "address",
							"name": "",
							"type": "address"
						},
						{
							"internalType": "uint256",
							"name": "",
							"type": "uint256"
						}
					],
					"name": "tweets",
					"outputs": [
						{
							"internalType": "address",
							"name": "author",
							"type": "address"
						},
						{
							"internalType": "string",
							"name": "content",
							"type": "string"
						},
						{
							"internalType": "uint256",
							"name": "timestamp",
							"type": "uint256"
						},
						{
							"internalType": "uint256",
							"name": "likes",
							"type": "uint256"
						}
					],
					"stateMutability": "view",
					"type": "function"
				}
			],
			"devdoc": {
				"kind": "dev",
				"methods": {},
				"version": 1
			},
			"evm": {
				"assembly": "    /* \"contracts/Require.sol\":59:1218  contract Twitter{... */\n  mstore(0x40, 0x80)\n    /* \"contracts/Require.sol\":116:119  200 */\n  0xc8\n    /* \"contracts/Require.sol\":82:119  uint256 public MAX_TWEET_LENGTH = 200 */\n  0x00\n  sstore\n    /* \"contracts/Require.sol\":59:1218  contract Twitter{... */\n  callvalue\n  dup1\n  iszero\n  tag_1\n  jumpi\n  0x00\n  dup1\n  revert\ntag_1:\n  pop\n  dataSize(sub_0)\n  dup1\n  dataOffset(sub_0)\n  0x00\n  codecopy\n  0x00\n  return\nstop\n\nsub_0: assembly {\n        /* \"contracts/Require.sol\":59:1218  contract Twitter{... */\n      mstore(0x40, 0x80)\n      callvalue\n      dup1\n      iszero\n      tag_1\n      jumpi\n      0x00\n      dup1\n      revert\n    tag_1:\n      pop\n      jumpi(tag_2, lt(calldatasize, 0x04))\n      shr(0xe0, calldataload(0x00))\n      dup1\n      0x05a1b4a9\n      eq\n      tag_3\n      jumpi\n      dup1\n      0x12e7ee1c\n      eq\n      tag_4\n      jumpi\n      dup1\n      0x6eb10797\n      eq\n      tag_5\n      jumpi\n      dup1\n      0xed9bb8d7\n      eq\n      tag_6\n      jumpi\n      dup1\n      0xf86d791b\n      eq\n      tag_7\n      jumpi\n    tag_2:\n      0x00\n      dup1\n      revert\n        /* \"contracts/Require.sol\":290:337  mapping(address=>TwitterStruct[]) public tweets */\n    tag_3:\n      tag_8\n      0x04\n      dup1\n      calldatasize\n      sub\n      dup2\n      add\n      swap1\n      tag_9\n      swap2\n      swap1\n      tag_10\n      jump\t// in\n    tag_9:\n      tag_11\n      jump\t// in\n    tag_8:\n      mload(0x40)\n      tag_12\n      swap5\n      swap4\n      swap3\n      swap2\n      swap1\n      tag_13\n      jump\t// in\n    tag_12:\n      mload(0x40)\n      dup1\n      swap2\n      sub\n      swap1\n      return\n        /* \"contracts/Require.sol\":1092:1215  function getAllTweets(address _owner) public view returns (TwitterStruct[] memory) {... */\n    tag_4:\n      tag_14\n      0x04\n      dup1\n      calldatasize\n      sub\n      dup2\n      add\n      swap1\n      tag_15\n      swap2\n      swap1\n      tag_16\n      jump\t// in\n    tag_15:\n      tag_17\n      jump\t// in\n    tag_14:\n      mload(0x40)\n      tag_18\n      swap2\n      swap1\n      tag_19\n      jump\t// in\n    tag_18:\n      mload(0x40)\n      dup1\n      swap2\n      sub\n      swap1\n      return\n        /* \"contracts/Require.sol\":82:119  uint256 public MAX_TWEET_LENGTH = 200 */\n    tag_5:\n      tag_20\n      tag_21\n      jump\t// in\n    tag_20:\n      mload(0x40)\n      tag_22\n      swap2\n      swap1\n      tag_23\n      jump\t// in\n    tag_22:\n      mload(0x40)\n      dup1\n      swap2\n      sub\n      swap1\n      return\n        /* \"contracts/Require.sol\":964:1086  function getTweets(uint256 _i) public view returns (TwitterStruct memory) {... */\n    tag_6:\n      tag_24\n      0x04\n      dup1\n      calldatasize\n      sub\n      dup2\n      add\n      swap1\n      tag_25\n      swap2\n      swap1\n      tag_26\n      jump\t// in\n    tag_25:\n      tag_27\n      jump\t// in\n    tag_24:\n      mload(0x40)\n      tag_28\n      swap2\n      swap1\n      tag_29\n      jump\t// in\n    tag_28:\n      mload(0x40)\n      dup1\n      swap2\n      sub\n      swap1\n      return\n        /* \"contracts/Require.sol\":346:958  function creatTweets(string memory _tweets) public  {... */\n    tag_7:\n      tag_30\n      0x04\n      dup1\n      calldatasize\n      sub\n      dup2\n      add\n      swap1\n      tag_31\n      swap2\n      swap1\n      tag_32\n      jump\t// in\n    tag_31:\n      tag_33\n      jump\t// in\n    tag_30:\n      stop\n        /* \"contracts/Require.sol\":290:337  mapping(address=>TwitterStruct[]) public tweets */\n    tag_11:\n      mstore(0x20, 0x01)\n      dup2\n      0x00\n      mstore\n      keccak256(0x00, 0x40)\n      dup2\n      dup2\n      sload\n      dup2\n      lt\n      tag_34\n      jumpi\n      0x00\n      dup1\n      revert\n    tag_34:\n      swap1\n      0x00\n      mstore\n      keccak256(0x00, 0x20)\n      swap1\n      0x04\n      mul\n      add\n      0x00\n      swap2\n      pop\n      swap2\n      pop\n      pop\n      dup1\n      0x00\n      add\n      0x00\n      swap1\n      sload\n      swap1\n      0x0100\n      exp\n      swap1\n      div\n      0xffffffffffffffffffffffffffffffffffffffff\n      and\n      swap1\n      dup1\n      0x01\n      add\n      dup1\n      sload\n      tag_36\n      swap1\n      tag_37\n      jump\t// in\n    tag_36:\n      dup1\n      0x1f\n      add\n      0x20\n      dup1\n      swap2\n      div\n      mul\n      0x20\n      add\n      mload(0x40)\n      swap1\n      dup2\n      add\n      0x40\n      mstore\n      dup1\n      swap3\n      swap2\n      swap1\n      dup2\n      dup2\n      mstore\n      0x20\n      add\n      dup3\n      dup1\n      sload\n      tag_38\n      swap1\n      tag_37\n      jump\t// in\n    tag_38:\n      dup1\n      iszero\n      tag_39\n      jumpi\n      dup1\n      0x1f\n      lt\n      tag_40\n      jumpi\n      0x0100\n      dup1\n      dup4\n      sload\n      div\n      mul\n      dup4\n      mstore\n      swap2\n      0x20\n      add\n      swap2\n      jump(tag_39)\n    tag_40:\n      dup3\n      add\n      swap2\n      swap1\n      0x00\n      mstore\n      keccak256(0x00, 0x20)\n      swap1\n    tag_41:\n      dup2\n      sload\n      dup2\n      mstore\n      swap1\n      0x01\n      add\n      swap1\n      0x20\n      add\n      dup1\n      dup4\n      gt\n      tag_41\n      jumpi\n      dup3\n      swap1\n      sub\n      0x1f\n      and\n      dup3\n      add\n      swap2\n    tag_39:\n      pop\n      pop\n      pop\n      pop\n      pop\n      swap1\n      dup1\n      0x02\n      add\n      sload\n      swap1\n      dup1\n      0x03\n      add\n      sload\n      swap1\n      pop\n      dup5\n      jump\t// out\n        /* \"contracts/Require.sol\":1092:1215  function getAllTweets(address _owner) public view returns (TwitterStruct[] memory) {... */\n    tag_17:\n        /* \"contracts/Require.sol\":1151:1173  TwitterStruct[] memory */\n      0x60\n        /* \"contracts/Require.sol\":1193:1199  tweets */\n      0x01\n        /* \"contracts/Require.sol\":1193:1207  tweets[_owner] */\n      0x00\n        /* \"contracts/Require.sol\":1200:1206  _owner */\n      dup4\n        /* \"contracts/Require.sol\":1193:1207  tweets[_owner] */\n      0xffffffffffffffffffffffffffffffffffffffff\n      and\n      0xffffffffffffffffffffffffffffffffffffffff\n      and\n      dup2\n      mstore\n      0x20\n      add\n      swap1\n      dup2\n      mstore\n      0x20\n      add\n      0x00\n      keccak256\n        /* \"contracts/Require.sol\":1186:1207  return tweets[_owner] */\n      dup1\n      sload\n      dup1\n      0x20\n      mul\n      0x20\n      add\n      mload(0x40)\n      swap1\n      dup2\n      add\n      0x40\n      mstore\n      dup1\n      swap3\n      swap2\n      swap1\n      dup2\n      dup2\n      mstore\n      0x20\n      add\n      0x00\n      swap1\n    tag_43:\n      dup3\n      dup3\n      lt\n      iszero\n      tag_44\n      jumpi\n      dup4\n      dup3\n      swap1\n      0x00\n      mstore\n      keccak256(0x00, 0x20)\n      swap1\n      0x04\n      mul\n      add\n      mload(0x40)\n      dup1\n      0x80\n      add\n      0x40\n      mstore\n      swap1\n      dup2\n      0x00\n      dup3\n      add\n      0x00\n      swap1\n      sload\n      swap1\n      0x0100\n      exp\n      swap1\n      div\n      0xffffffffffffffffffffffffffffffffffffffff\n      and\n      0xffffffffffffffffffffffffffffffffffffffff\n      and\n      0xffffffffffffffffffffffffffffffffffffffff\n      and\n      dup2\n      mstore\n      0x20\n      add\n      0x01\n      dup3\n      add\n      dup1\n      sload\n      tag_46\n      swap1\n      tag_37\n      jump\t// in\n    tag_46:\n      dup1\n      0x1f\n      add\n      0x20\n      dup1\n      swap2\n      div\n      mul\n      0x20\n      add\n      mload(0x40)\n      swap1\n      dup2\n      add\n      0x40\n      mstore\n      dup1\n      swap3\n      swap2\n      swap1\n      dup2\n      dup2\n      mstore\n      0x20\n      add\n      dup3\n      dup1\n      sload\n      tag_47\n      swap1\n      tag_37\n      jump\t// in\n    tag_47:\n      dup1\n      iszero\n      tag_48\n      jumpi\n      dup1\n      0x1f\n      lt\n      tag_49\n      jumpi\n      0x0100\n      dup1\n      dup4\n      sload\n      div\n      mul\n      dup4\n      mstore\n      swap2\n      0x20\n      add\n      swap2\n      jump(tag_48)\n    tag_49:\n      dup3\n      add\n      swap2\n      swap1\n      0x00\n      mstore\n      keccak256(0x00, 0x20)\n      swap1\n    tag_50:\n      dup2\n      sload\n      dup2\n      mstore\n      swap1\n      0x01\n      add\n      swap1\n      0x20\n      add\n      dup1\n      dup4\n      gt\n      tag_50\n      jumpi\n      dup3\n      swap1\n      sub\n      0x1f\n      and\n      dup3\n      add\n      swap2\n    tag_48:\n      pop\n      pop\n      pop\n      pop\n      pop\n      dup2\n      mstore\n      0x20\n      add\n      0x02\n      dup3\n      add\n      sload\n      dup2\n      mstore\n      0x20\n      add\n      0x03\n      dup3\n      add\n      sload\n      dup2\n      mstore\n      pop\n      pop\n      dup2\n      mstore\n      0x20\n      add\n      swap1\n      0x01\n      add\n      swap1\n      jump(tag_43)\n    tag_44:\n      pop\n      pop\n      pop\n      pop\n      swap1\n      pop\n        /* \"contracts/Require.sol\":1092:1215  function getAllTweets(address _owner) public view returns (TwitterStruct[] memory) {... */\n      swap2\n      swap1\n      pop\n      jump\t// out\n        /* \"contracts/Require.sol\":82:119  uint256 public MAX_TWEET_LENGTH = 200 */\n    tag_21:\n      sload(0x00)\n      dup2\n      jump\t// out\n        /* \"contracts/Require.sol\":964:1086  function getTweets(uint256 _i) public view returns (TwitterStruct memory) {... */\n    tag_27:\n        /* \"contracts/Require.sol\":1016:1036  TwitterStruct memory */\n      tag_51\n      tag_52\n      jump\t// in\n    tag_51:\n        /* \"contracts/Require.sol\":1056:1062  tweets */\n      0x01\n        /* \"contracts/Require.sol\":1056:1074  tweets[msg.sender] */\n      0x00\n        /* \"contracts/Require.sol\":1063:1073  msg.sender */\n      caller\n        /* \"contracts/Require.sol\":1056:1074  tweets[msg.sender] */\n      0xffffffffffffffffffffffffffffffffffffffff\n      and\n      0xffffffffffffffffffffffffffffffffffffffff\n      and\n      dup2\n      mstore\n      0x20\n      add\n      swap1\n      dup2\n      mstore\n      0x20\n      add\n      0x00\n      keccak256\n        /* \"contracts/Require.sol\":1075:1077  _i */\n      dup3\n        /* \"contracts/Require.sol\":1056:1078  tweets[msg.sender][_i] */\n      dup2\n      sload\n      dup2\n      lt\n      tag_54\n      jumpi\n      tag_55\n      tag_56\n      jump\t// in\n    tag_55:\n    tag_54:\n      swap1\n      0x00\n      mstore\n      keccak256(0x00, 0x20)\n      swap1\n      0x04\n      mul\n      add\n        /* \"contracts/Require.sol\":1049:1078  return tweets[msg.sender][_i] */\n      mload(0x40)\n      dup1\n      0x80\n      add\n      0x40\n      mstore\n      swap1\n      dup2\n      0x00\n      dup3\n      add\n      0x00\n      swap1\n      sload\n      swap1\n      0x0100\n      exp\n      swap1\n      div\n      0xffffffffffffffffffffffffffffffffffffffff\n      and\n      0xffffffffffffffffffffffffffffffffffffffff\n      and\n      0xffffffffffffffffffffffffffffffffffffffff\n      and\n      dup2\n      mstore\n      0x20\n      add\n      0x01\n      dup3\n      add\n      dup1\n      sload\n      tag_58\n      swap1\n      tag_37\n      jump\t// in\n    tag_58:\n      dup1\n      0x1f\n      add\n      0x20\n      dup1\n      swap2\n      div\n      mul\n      0x20\n      add\n      mload(0x40)\n      swap1\n      dup2\n      add\n      0x40\n      mstore\n      dup1\n      swap3\n      swap2\n      swap1\n      dup2\n      dup2\n      mstore\n      0x20\n      add\n      dup3\n      dup1\n      sload\n      tag_59\n      swap1\n      tag_37\n      jump\t// in\n    tag_59:\n      dup1\n      iszero\n      tag_60\n      jumpi\n      dup1\n      0x1f\n      lt\n      tag_61\n      jumpi\n      0x0100\n      dup1\n      dup4\n      sload\n      div\n      mul\n      dup4\n      mstore\n      swap2\n      0x20\n      add\n      swap2\n      jump(tag_60)\n    tag_61:\n      dup3\n      add\n      swap2\n      swap1\n      0x00\n      mstore\n      keccak256(0x00, 0x20)\n      swap1\n    tag_62:\n      dup2\n      sload\n      dup2\n      mstore\n      swap1\n      0x01\n      add\n      swap1\n      0x20\n      add\n      dup1\n      dup4\n      gt\n      tag_62\n      jumpi\n      dup3\n      swap1\n      sub\n      0x1f\n      and\n      dup3\n      add\n      swap2\n    tag_60:\n      pop\n      pop\n      pop\n      pop\n      pop\n      dup2\n      mstore\n      0x20\n      add\n      0x02\n      dup3\n      add\n      sload\n      dup2\n      mstore\n      0x20\n      add\n      0x03\n      dup3\n      add\n      sload\n      dup2\n      mstore\n      pop\n      pop\n      swap1\n      pop\n        /* \"contracts/Require.sol\":964:1086  function getTweets(uint256 _i) public view returns (TwitterStruct memory) {... */\n      swap2\n      swap1\n      pop\n      jump\t// out\n        /* \"contracts/Require.sol\":346:958  function creatTweets(string memory _tweets) public  {... */\n    tag_33:\n        /* \"contracts/Require.sol\":542:558  MAX_TWEET_LENGTH */\n      sload(0x00)\n        /* \"contracts/Require.sol\":523:530  _tweets */\n      dup2\n        /* \"contracts/Require.sol\":517:538  bytes(_tweets).length */\n      mload\n        /* \"contracts/Require.sol\":517:558  bytes(_tweets).length >= MAX_TWEET_LENGTH */\n      lt\n      iszero\n        /* \"contracts/Require.sol\":509:585  require(bytes(_tweets).length >= MAX_TWEET_LENGTH, \"Tweet is too long bro!\") */\n      tag_64\n      jumpi\n      mload(0x40)\n      0x08c379a000000000000000000000000000000000000000000000000000000000\n      dup2\n      mstore\n      0x04\n      add\n      tag_65\n      swap1\n      tag_66\n      jump\t// in\n    tag_65:\n      mload(0x40)\n      dup1\n      swap2\n      sub\n      swap1\n      revert\n    tag_64:\n        /* \"contracts/Require.sol\":651:680  TwitterStruct memory newTweet */\n      0x00\n        /* \"contracts/Require.sol\":683:906  TwitterStruct({ // when you create instance of struct solidity store in temporary memory... */\n      mload(0x40)\n      dup1\n      0x80\n      add\n      0x40\n      mstore\n      dup1\n        /* \"contracts/Require.sol\":792:802  msg.sender */\n      caller\n        /* \"contracts/Require.sol\":683:906  TwitterStruct({ // when you create instance of struct solidity store in temporary memory... */\n      0xffffffffffffffffffffffffffffffffffffffff\n      and\n      dup2\n      mstore\n      0x20\n      add\n        /* \"contracts/Require.sol\":825:832  _tweets */\n      dup4\n        /* \"contracts/Require.sol\":683:906  TwitterStruct({ // when you create instance of struct solidity store in temporary memory... */\n      dup2\n      mstore\n      0x20\n      add\n        /* \"contracts/Require.sol\":857:872  block.timestamp */\n      timestamp\n        /* \"contracts/Require.sol\":683:906  TwitterStruct({ // when you create instance of struct solidity store in temporary memory... */\n      dup2\n      mstore\n      0x20\n      add\n        /* \"contracts/Require.sol\":893:894  0 */\n      0x00\n        /* \"contracts/Require.sol\":683:906  TwitterStruct({ // when you create instance of struct solidity store in temporary memory... */\n      dup2\n      mstore\n      pop\n        /* \"contracts/Require.sol\":651:906  TwitterStruct memory newTweet = TwitterStruct({ // when you create instance of struct solidity store in temporary memory... */\n      swap1\n      pop\n        /* \"contracts/Require.sol\":917:923  tweets */\n      0x01\n        /* \"contracts/Require.sol\":917:935  tweets[msg.sender] */\n      0x00\n        /* \"contracts/Require.sol\":924:934  msg.sender */\n      caller\n        /* \"contracts/Require.sol\":917:935  tweets[msg.sender] */\n      0xffffffffffffffffffffffffffffffffffffffff\n      and\n      0xffffffffffffffffffffffffffffffffffffffff\n      and\n      dup2\n      mstore\n      0x20\n      add\n      swap1\n      dup2\n      mstore\n      0x20\n      add\n      0x00\n      keccak256\n        /* \"contracts/Require.sol\":941:949  newTweet */\n      dup2\n        /* \"contracts/Require.sol\":917:950  tweets[msg.sender].push(newTweet) */\n      swap1\n      dup1\n      0x01\n      dup2\n      sload\n      add\n      dup1\n      dup3\n      sstore\n      dup1\n      swap2\n      pop\n      pop\n      0x01\n      swap1\n      sub\n      swap1\n      0x00\n      mstore\n      keccak256(0x00, 0x20)\n      swap1\n      0x04\n      mul\n      add\n      0x00\n      swap1\n      swap2\n      swap1\n      swap2\n      swap1\n      swap2\n      pop\n      0x00\n      dup3\n      add\n      mload\n      dup2\n      0x00\n      add\n      exp(0x0100, 0x00)\n      dup2\n      sload\n      dup2\n      0xffffffffffffffffffffffffffffffffffffffff\n      mul\n      not\n      and\n      swap1\n      dup4\n      0xffffffffffffffffffffffffffffffffffffffff\n      and\n      mul\n      or\n      swap1\n      sstore\n      pop\n      0x20\n      dup3\n      add\n      mload\n      dup2\n      0x01\n      add\n      swap1\n      dup2\n      tag_68\n      swap2\n      swap1\n      tag_69\n      jump\t// in\n    tag_68:\n      pop\n      0x40\n      dup3\n      add\n      mload\n      dup2\n      0x02\n      add\n      sstore\n      0x60\n      dup3\n      add\n      mload\n      dup2\n      0x03\n      add\n      sstore\n      pop\n      pop\n        /* \"contracts/Require.sol\":398:958  {... */\n      pop\n        /* \"contracts/Require.sol\":346:958  function creatTweets(string memory _tweets) public  {... */\n      pop\n      jump\t// out\n    tag_52:\n      mload(0x40)\n      dup1\n      0x80\n      add\n      0x40\n      mstore\n      dup1\n      and(0xffffffffffffffffffffffffffffffffffffffff, 0x00)\n      dup2\n      mstore\n      0x20\n      add\n      0x60\n      dup2\n      mstore\n      0x20\n      add\n      0x00\n      dup2\n      mstore\n      0x20\n      add\n      0x00\n      dup2\n      mstore\n      pop\n      swap1\n      jump\t// out\n        /* \"#utility.yul\":7:82   */\n    tag_70:\n        /* \"#utility.yul\":40:46   */\n      0x00\n        /* \"#utility.yul\":73:75   */\n      0x40\n        /* \"#utility.yul\":67:76   */\n      mload\n        /* \"#utility.yul\":57:76   */\n      swap1\n      pop\n        /* \"#utility.yul\":7:82   */\n      swap1\n      jump\t// out\n        /* \"#utility.yul\":88:205   */\n    tag_71:\n        /* \"#utility.yul\":197:198   */\n      0x00\n        /* \"#utility.yul\":194:195   */\n      dup1\n        /* \"#utility.yul\":187:199   */\n      revert\n        /* \"#utility.yul\":211:328   */\n    tag_72:\n        /* \"#utility.yul\":320:321   */\n      0x00\n        /* \"#utility.yul\":317:318   */\n      dup1\n        /* \"#utility.yul\":310:322   */\n      revert\n        /* \"#utility.yul\":334:460   */\n    tag_73:\n        /* \"#utility.yul\":371:378   */\n      0x00\n        /* \"#utility.yul\":411:453   */\n      0xffffffffffffffffffffffffffffffffffffffff\n        /* \"#utility.yul\":404:409   */\n      dup3\n        /* \"#utility.yul\":400:454   */\n      and\n        /* \"#utility.yul\":389:454   */\n      swap1\n      pop\n        /* \"#utility.yul\":334:460   */\n      swap2\n      swap1\n      pop\n      jump\t// out\n        /* \"#utility.yul\":466:562   */\n    tag_74:\n        /* \"#utility.yul\":503:510   */\n      0x00\n        /* \"#utility.yul\":532:556   */\n      tag_132\n        /* \"#utility.yul\":550:555   */\n      dup3\n        /* \"#utility.yul\":532:556   */\n      tag_73\n      jump\t// in\n    tag_132:\n        /* \"#utility.yul\":521:556   */\n      swap1\n      pop\n        /* \"#utility.yul\":466:562   */\n      swap2\n      swap1\n      pop\n      jump\t// out\n        /* \"#utility.yul\":568:690   */\n    tag_75:\n        /* \"#utility.yul\":641:665   */\n      tag_134\n        /* \"#utility.yul\":659:664   */\n      dup2\n        /* \"#utility.yul\":641:665   */\n      tag_74\n      jump\t// in\n    tag_134:\n        /* \"#utility.yul\":634:639   */\n      dup2\n        /* \"#utility.yul\":631:666   */\n      eq\n        /* \"#utility.yul\":621:684   */\n      tag_135\n      jumpi\n        /* \"#utility.yul\":680:681   */\n      0x00\n        /* \"#utility.yul\":677:678   */\n      dup1\n        /* \"#utility.yul\":670:682   */\n      revert\n        /* \"#utility.yul\":621:684   */\n    tag_135:\n        /* \"#utility.yul\":568:690   */\n      pop\n      jump\t// out\n        /* \"#utility.yul\":696:835   */\n    tag_76:\n        /* \"#utility.yul\":742:747   */\n      0x00\n        /* \"#utility.yul\":780:786   */\n      dup2\n        /* \"#utility.yul\":767:787   */\n      calldataload\n        /* \"#utility.yul\":758:787   */\n      swap1\n      pop\n        /* \"#utility.yul\":796:829   */\n      tag_137\n        /* \"#utility.yul\":823:828   */\n      dup2\n        /* \"#utility.yul\":796:829   */\n      tag_75\n      jump\t// in\n    tag_137:\n        /* \"#utility.yul\":696:835   */\n      swap3\n      swap2\n      pop\n      pop\n      jump\t// out\n        /* \"#utility.yul\":841:918   */\n    tag_77:\n        /* \"#utility.yul\":878:885   */\n      0x00\n        /* \"#utility.yul\":907:912   */\n      dup2\n        /* \"#utility.yul\":896:912   */\n      swap1\n      pop\n        /* \"#utility.yul\":841:918   */\n      swap2\n      swap1\n      pop\n      jump\t// out\n        /* \"#utility.yul\":924:1046   */\n    tag_78:\n        /* \"#utility.yul\":997:1021   */\n      tag_140\n        /* \"#utility.yul\":1015:1020   */\n      dup2\n        /* \"#utility.yul\":997:1021   */\n      tag_77\n      jump\t// in\n    tag_140:\n        /* \"#utility.yul\":990:995   */\n      dup2\n        /* \"#utility.yul\":987:1022   */\n      eq\n        /* \"#utility.yul\":977:1040   */\n      tag_141\n      jumpi\n        /* \"#utility.yul\":1036:1037   */\n      0x00\n        /* \"#utility.yul\":1033:1034   */\n      dup1\n        /* \"#utility.yul\":1026:1038   */\n      revert\n        /* \"#utility.yul\":977:1040   */\n    tag_141:\n        /* \"#utility.yul\":924:1046   */\n      pop\n      jump\t// out\n        /* \"#utility.yul\":1052:1191   */\n    tag_79:\n        /* \"#utility.yul\":1098:1103   */\n      0x00\n        /* \"#utility.yul\":1136:1142   */\n      dup2\n        /* \"#utility.yul\":1123:1143   */\n      calldataload\n        /* \"#utility.yul\":1114:1143   */\n      swap1\n      pop\n        /* \"#utility.yul\":1152:1185   */\n      tag_143\n        /* \"#utility.yul\":1179:1184   */\n      dup2\n        /* \"#utility.yul\":1152:1185   */\n      tag_78\n      jump\t// in\n    tag_143:\n        /* \"#utility.yul\":1052:1191   */\n      swap3\n      swap2\n      pop\n      pop\n      jump\t// out\n        /* \"#utility.yul\":1197:1671   */\n    tag_10:\n        /* \"#utility.yul\":1265:1271   */\n      0x00\n        /* \"#utility.yul\":1273:1279   */\n      dup1\n        /* \"#utility.yul\":1322:1324   */\n      0x40\n        /* \"#utility.yul\":1310:1319   */\n      dup4\n        /* \"#utility.yul\":1301:1308   */\n      dup6\n        /* \"#utility.yul\":1297:1320   */\n      sub\n        /* \"#utility.yul\":1293:1325   */\n      slt\n        /* \"#utility.yul\":1290:1409   */\n      iszero\n      tag_145\n      jumpi\n        /* \"#utility.yul\":1328:1407   */\n      tag_146\n      tag_71\n      jump\t// in\n    tag_146:\n        /* \"#utility.yul\":1290:1409   */\n    tag_145:\n        /* \"#utility.yul\":1448:1449   */\n      0x00\n        /* \"#utility.yul\":1473:1526   */\n      tag_147\n        /* \"#utility.yul\":1518:1525   */\n      dup6\n        /* \"#utility.yul\":1509:1515   */\n      dup3\n        /* \"#utility.yul\":1498:1507   */\n      dup7\n        /* \"#utility.yul\":1494:1516   */\n      add\n        /* \"#utility.yul\":1473:1526   */\n      tag_76\n      jump\t// in\n    tag_147:\n        /* \"#utility.yul\":1463:1526   */\n      swap3\n      pop\n        /* \"#utility.yul\":1419:1536   */\n      pop\n        /* \"#utility.yul\":1575:1577   */\n      0x20\n        /* \"#utility.yul\":1601:1654   */\n      tag_148\n        /* \"#utility.yul\":1646:1653   */\n      dup6\n        /* \"#utility.yul\":1637:1643   */\n      dup3\n        /* \"#utility.yul\":1626:1635   */\n      dup7\n        /* \"#utility.yul\":1622:1644   */\n      add\n        /* \"#utility.yul\":1601:1654   */\n      tag_79\n      jump\t// in\n    tag_148:\n        /* \"#utility.yul\":1591:1654   */\n      swap2\n      pop\n        /* \"#utility.yul\":1546:1664   */\n      pop\n        /* \"#utility.yul\":1197:1671   */\n      swap3\n      pop\n      swap3\n      swap1\n      pop\n      jump\t// out\n        /* \"#utility.yul\":1677:1795   */\n    tag_80:\n        /* \"#utility.yul\":1764:1788   */\n      tag_150\n        /* \"#utility.yul\":1782:1787   */\n      dup2\n        /* \"#utility.yul\":1764:1788   */\n      tag_74\n      jump\t// in\n    tag_150:\n        /* \"#utility.yul\":1759:1762   */\n      dup3\n        /* \"#utility.yul\":1752:1789   */\n      mstore\n        /* \"#utility.yul\":1677:1795   */\n      pop\n      pop\n      jump\t// out\n        /* \"#utility.yul\":1801:1900   */\n    tag_81:\n        /* \"#utility.yul\":1853:1859   */\n      0x00\n        /* \"#utility.yul\":1887:1892   */\n      dup2\n        /* \"#utility.yul\":1881:1893   */\n      mload\n        /* \"#utility.yul\":1871:1893   */\n      swap1\n      pop\n        /* \"#utility.yul\":1801:1900   */\n      swap2\n      swap1\n      pop\n      jump\t// out\n        /* \"#utility.yul\":1906:2075   */\n    tag_82:\n        /* \"#utility.yul\":1990:2001   */\n      0x00\n        /* \"#utility.yul\":2024:2030   */\n      dup3\n        /* \"#utility.yul\":2019:2022   */\n      dup3\n        /* \"#utility.yul\":2012:2031   */\n      mstore\n        /* \"#utility.yul\":2064:2068   */\n      0x20\n        /* \"#utility.yul\":2059:2062   */\n      dup3\n        /* \"#utility.yul\":2055:2069   */\n      add\n        /* \"#utility.yul\":2040:2069   */\n      swap1\n      pop\n        /* \"#utility.yul\":1906:2075   */\n      swap3\n      swap2\n      pop\n      pop\n      jump\t// out\n        /* \"#utility.yul\":2081:2220   */\n    tag_83:\n        /* \"#utility.yul\":2170:2176   */\n      dup3\n        /* \"#utility.yul\":2165:2168   */\n      dup2\n        /* \"#utility.yul\":2160:2163   */\n      dup4\n        /* \"#utility.yul\":2154:2177   */\n      mcopy\n        /* \"#utility.yul\":2211:2212   */\n      0x00\n        /* \"#utility.yul\":2202:2208   */\n      dup4\n        /* \"#utility.yul\":2197:2200   */\n      dup4\n        /* \"#utility.yul\":2193:2209   */\n      add\n        /* \"#utility.yul\":2186:2213   */\n      mstore\n        /* \"#utility.yul\":2081:2220   */\n      pop\n      pop\n      pop\n      jump\t// out\n        /* \"#utility.yul\":2226:2328   */\n    tag_84:\n        /* \"#utility.yul\":2267:2273   */\n      0x00\n        /* \"#utility.yul\":2318:2320   */\n      0x1f\n        /* \"#utility.yul\":2314:2321   */\n      not\n        /* \"#utility.yul\":2309:2311   */\n      0x1f\n        /* \"#utility.yul\":2302:2307   */\n      dup4\n        /* \"#utility.yul\":2298:2312   */\n      add\n        /* \"#utility.yul\":2294:2322   */\n      and\n        /* \"#utility.yul\":2284:2322   */\n      swap1\n      pop\n        /* \"#utility.yul\":2226:2328   */\n      swap2\n      swap1\n      pop\n      jump\t// out\n        /* \"#utility.yul\":2334:2711   */\n    tag_85:\n        /* \"#utility.yul\":2422:2425   */\n      0x00\n        /* \"#utility.yul\":2450:2489   */\n      tag_156\n        /* \"#utility.yul\":2483:2488   */\n      dup3\n        /* \"#utility.yul\":2450:2489   */\n      tag_81\n      jump\t// in\n    tag_156:\n        /* \"#utility.yul\":2505:2576   */\n      tag_157\n        /* \"#utility.yul\":2569:2575   */\n      dup2\n        /* \"#utility.yul\":2564:2567   */\n      dup6\n        /* \"#utility.yul\":2505:2576   */\n      tag_82\n      jump\t// in\n    tag_157:\n        /* \"#utility.yul\":2498:2576   */\n      swap4\n      pop\n        /* \"#utility.yul\":2585:2650   */\n      tag_158\n        /* \"#utility.yul\":2643:2649   */\n      dup2\n        /* \"#utility.yul\":2638:2641   */\n      dup6\n        /* \"#utility.yul\":2631:2635   */\n      0x20\n        /* \"#utility.yul\":2624:2629   */\n      dup7\n        /* \"#utility.yul\":2620:2636   */\n      add\n        /* \"#utility.yul\":2585:2650   */\n      tag_83\n      jump\t// in\n    tag_158:\n        /* \"#utility.yul\":2675:2704   */\n      tag_159\n        /* \"#utility.yul\":2697:2703   */\n      dup2\n        /* \"#utility.yul\":2675:2704   */\n      tag_84\n      jump\t// in\n    tag_159:\n        /* \"#utility.yul\":2670:2673   */\n      dup5\n        /* \"#utility.yul\":2666:2705   */\n      add\n        /* \"#utility.yul\":2659:2705   */\n      swap2\n      pop\n        /* \"#utility.yul\":2426:2711   */\n      pop\n        /* \"#utility.yul\":2334:2711   */\n      swap3\n      swap2\n      pop\n      pop\n      jump\t// out\n        /* \"#utility.yul\":2717:2835   */\n    tag_86:\n        /* \"#utility.yul\":2804:2828   */\n      tag_161\n        /* \"#utility.yul\":2822:2827   */\n      dup2\n        /* \"#utility.yul\":2804:2828   */\n      tag_77\n      jump\t// in\n    tag_161:\n        /* \"#utility.yul\":2799:2802   */\n      dup3\n        /* \"#utility.yul\":2792:2829   */\n      mstore\n        /* \"#utility.yul\":2717:2835   */\n      pop\n      pop\n      jump\t// out\n        /* \"#utility.yul\":2841:3485   */\n    tag_13:\n        /* \"#utility.yul\":3038:3042   */\n      0x00\n        /* \"#utility.yul\":3076:3079   */\n      0x80\n        /* \"#utility.yul\":3065:3074   */\n      dup3\n        /* \"#utility.yul\":3061:3080   */\n      add\n        /* \"#utility.yul\":3053:3080   */\n      swap1\n      pop\n        /* \"#utility.yul\":3090:3161   */\n      tag_163\n        /* \"#utility.yul\":3158:3159   */\n      0x00\n        /* \"#utility.yul\":3147:3156   */\n      dup4\n        /* \"#utility.yul\":3143:3160   */\n      add\n        /* \"#utility.yul\":3134:3140   */\n      dup8\n        /* \"#utility.yul\":3090:3161   */\n      tag_80\n      jump\t// in\n    tag_163:\n        /* \"#utility.yul\":3208:3217   */\n      dup2\n        /* \"#utility.yul\":3202:3206   */\n      dup2\n        /* \"#utility.yul\":3198:3218   */\n      sub\n        /* \"#utility.yul\":3193:3195   */\n      0x20\n        /* \"#utility.yul\":3182:3191   */\n      dup4\n        /* \"#utility.yul\":3178:3196   */\n      add\n        /* \"#utility.yul\":3171:3219   */\n      mstore\n        /* \"#utility.yul\":3236:3314   */\n      tag_164\n        /* \"#utility.yul\":3309:3313   */\n      dup2\n        /* \"#utility.yul\":3300:3306   */\n      dup7\n        /* \"#utility.yul\":3236:3314   */\n      tag_85\n      jump\t// in\n    tag_164:\n        /* \"#utility.yul\":3228:3314   */\n      swap1\n      pop\n        /* \"#utility.yul\":3324:3396   */\n      tag_165\n        /* \"#utility.yul\":3392:3394   */\n      0x40\n        /* \"#utility.yul\":3381:3390   */\n      dup4\n        /* \"#utility.yul\":3377:3395   */\n      add\n        /* \"#utility.yul\":3368:3374   */\n      dup6\n        /* \"#utility.yul\":3324:3396   */\n      tag_86\n      jump\t// in\n    tag_165:\n        /* \"#utility.yul\":3406:3478   */\n      tag_166\n        /* \"#utility.yul\":3474:3476   */\n      0x60\n        /* \"#utility.yul\":3463:3472   */\n      dup4\n        /* \"#utility.yul\":3459:3477   */\n      add\n        /* \"#utility.yul\":3450:3456   */\n      dup5\n        /* \"#utility.yul\":3406:3478   */\n      tag_86\n      jump\t// in\n    tag_166:\n        /* \"#utility.yul\":2841:3485   */\n      swap6\n      swap5\n      pop\n      pop\n      pop\n      pop\n      pop\n      jump\t// out\n        /* \"#utility.yul\":3491:3820   */\n    tag_16:\n        /* \"#utility.yul\":3550:3556   */\n      0x00\n        /* \"#utility.yul\":3599:3601   */\n      0x20\n        /* \"#utility.yul\":3587:3596   */\n      dup3\n        /* \"#utility.yul\":3578:3585   */\n      dup5\n        /* \"#utility.yul\":3574:3597   */\n      sub\n        /* \"#utility.yul\":3570:3602   */\n      slt\n        /* \"#utility.yul\":3567:3686   */\n      iszero\n      tag_168\n      jumpi\n        /* \"#utility.yul\":3605:3684   */\n      tag_169\n      tag_71\n      jump\t// in\n    tag_169:\n        /* \"#utility.yul\":3567:3686   */\n    tag_168:\n        /* \"#utility.yul\":3725:3726   */\n      0x00\n        /* \"#utility.yul\":3750:3803   */\n      tag_170\n        /* \"#utility.yul\":3795:3802   */\n      dup5\n        /* \"#utility.yul\":3786:3792   */\n      dup3\n        /* \"#utility.yul\":3775:3784   */\n      dup6\n        /* \"#utility.yul\":3771:3793   */\n      add\n        /* \"#utility.yul\":3750:3803   */\n      tag_76\n      jump\t// in\n    tag_170:\n        /* \"#utility.yul\":3740:3803   */\n      swap2\n      pop\n        /* \"#utility.yul\":3696:3813   */\n      pop\n        /* \"#utility.yul\":3491:3820   */\n      swap3\n      swap2\n      pop\n      pop\n      jump\t// out\n        /* \"#utility.yul\":3826:3969   */\n    tag_87:\n        /* \"#utility.yul\":3922:3928   */\n      0x00\n        /* \"#utility.yul\":3956:3961   */\n      dup2\n        /* \"#utility.yul\":3950:3962   */\n      mload\n        /* \"#utility.yul\":3940:3962   */\n      swap1\n      pop\n        /* \"#utility.yul\":3826:3969   */\n      swap2\n      swap1\n      pop\n      jump\t// out\n        /* \"#utility.yul\":3975:4188   */\n    tag_88:\n        /* \"#utility.yul\":4103:4114   */\n      0x00\n        /* \"#utility.yul\":4137:4143   */\n      dup3\n        /* \"#utility.yul\":4132:4135   */\n      dup3\n        /* \"#utility.yul\":4125:4144   */\n      mstore\n        /* \"#utility.yul\":4177:4181   */\n      0x20\n        /* \"#utility.yul\":4172:4175   */\n      dup3\n        /* \"#utility.yul\":4168:4182   */\n      add\n        /* \"#utility.yul\":4153:4182   */\n      swap1\n      pop\n        /* \"#utility.yul\":3975:4188   */\n      swap3\n      swap2\n      pop\n      pop\n      jump\t// out\n        /* \"#utility.yul\":4194:4355   */\n    tag_89:\n        /* \"#utility.yul\":4290:4294   */\n      0x00\n        /* \"#utility.yul\":4313:4316   */\n      dup2\n        /* \"#utility.yul\":4305:4316   */\n      swap1\n      pop\n        /* \"#utility.yul\":4343:4347   */\n      0x20\n        /* \"#utility.yul\":4338:4341   */\n      dup3\n        /* \"#utility.yul\":4334:4348   */\n      add\n        /* \"#utility.yul\":4326:4348   */\n      swap1\n      pop\n        /* \"#utility.yul\":4194:4355   */\n      swap2\n      swap1\n      pop\n      jump\t// out\n        /* \"#utility.yul\":4361:4469   */\n    tag_90:\n        /* \"#utility.yul\":4438:4462   */\n      tag_175\n        /* \"#utility.yul\":4456:4461   */\n      dup2\n        /* \"#utility.yul\":4438:4462   */\n      tag_74\n      jump\t// in\n    tag_175:\n        /* \"#utility.yul\":4433:4436   */\n      dup3\n        /* \"#utility.yul\":4426:4463   */\n      mstore\n        /* \"#utility.yul\":4361:4469   */\n      pop\n      pop\n      jump\t// out\n        /* \"#utility.yul\":4475:4634   */\n    tag_91:\n        /* \"#utility.yul\":4549:4560   */\n      0x00\n        /* \"#utility.yul\":4583:4589   */\n      dup3\n        /* \"#utility.yul\":4578:4581   */\n      dup3\n        /* \"#utility.yul\":4571:4590   */\n      mstore\n        /* \"#utility.yul\":4623:4627   */\n      0x20\n        /* \"#utility.yul\":4618:4621   */\n      dup3\n        /* \"#utility.yul\":4614:4628   */\n      add\n        /* \"#utility.yul\":4599:4628   */\n      swap1\n      pop\n        /* \"#utility.yul\":4475:4634   */\n      swap3\n      swap2\n      pop\n      pop\n      jump\t// out\n        /* \"#utility.yul\":4640:4997   */\n    tag_92:\n        /* \"#utility.yul\":4718:4721   */\n      0x00\n        /* \"#utility.yul\":4746:4785   */\n      tag_178\n        /* \"#utility.yul\":4779:4784   */\n      dup3\n        /* \"#utility.yul\":4746:4785   */\n      tag_81\n      jump\t// in\n    tag_178:\n        /* \"#utility.yul\":4801:4862   */\n      tag_179\n        /* \"#utility.yul\":4855:4861   */\n      dup2\n        /* \"#utility.yul\":4850:4853   */\n      dup6\n        /* \"#utility.yul\":4801:4862   */\n      tag_91\n      jump\t// in\n    tag_179:\n        /* \"#utility.yul\":4794:4862   */\n      swap4\n      pop\n        /* \"#utility.yul\":4871:4936   */\n      tag_180\n        /* \"#utility.yul\":4929:4935   */\n      dup2\n        /* \"#utility.yul\":4924:4927   */\n      dup6\n        /* \"#utility.yul\":4917:4921   */\n      0x20\n        /* \"#utility.yul\":4910:4915   */\n      dup7\n        /* \"#utility.yul\":4906:4922   */\n      add\n        /* \"#utility.yul\":4871:4936   */\n      tag_83\n      jump\t// in\n    tag_180:\n        /* \"#utility.yul\":4961:4990   */\n      tag_181\n        /* \"#utility.yul\":4983:4989   */\n      dup2\n        /* \"#utility.yul\":4961:4990   */\n      tag_84\n      jump\t// in\n    tag_181:\n        /* \"#utility.yul\":4956:4959   */\n      dup5\n        /* \"#utility.yul\":4952:4991   */\n      add\n        /* \"#utility.yul\":4945:4991   */\n      swap2\n      pop\n        /* \"#utility.yul\":4722:4997   */\n      pop\n        /* \"#utility.yul\":4640:4997   */\n      swap3\n      swap2\n      pop\n      pop\n      jump\t// out\n        /* \"#utility.yul\":5003:5111   */\n    tag_93:\n        /* \"#utility.yul\":5080:5104   */\n      tag_183\n        /* \"#utility.yul\":5098:5103   */\n      dup2\n        /* \"#utility.yul\":5080:5104   */\n      tag_77\n      jump\t// in\n    tag_183:\n        /* \"#utility.yul\":5075:5078   */\n      dup3\n        /* \"#utility.yul\":5068:5105   */\n      mstore\n        /* \"#utility.yul\":5003:5111   */\n      pop\n      pop\n      jump\t// out\n        /* \"#utility.yul\":5185:6148   */\n    tag_94:\n        /* \"#utility.yul\":5302:5305   */\n      0x00\n        /* \"#utility.yul\":5338:5342   */\n      0x80\n        /* \"#utility.yul\":5333:5336   */\n      dup4\n        /* \"#utility.yul\":5329:5343   */\n      add\n        /* \"#utility.yul\":5427:5431   */\n      0x00\n        /* \"#utility.yul\":5420:5425   */\n      dup4\n        /* \"#utility.yul\":5416:5432   */\n      add\n        /* \"#utility.yul\":5410:5433   */\n      mload\n        /* \"#utility.yul\":5446:5509   */\n      tag_185\n        /* \"#utility.yul\":5503:5507   */\n      0x00\n        /* \"#utility.yul\":5498:5501   */\n      dup7\n        /* \"#utility.yul\":5494:5508   */\n      add\n        /* \"#utility.yul\":5480:5492   */\n      dup3\n        /* \"#utility.yul\":5446:5509   */\n      tag_90\n      jump\t// in\n    tag_185:\n        /* \"#utility.yul\":5353:5519   */\n      pop\n        /* \"#utility.yul\":5604:5608   */\n      0x20\n        /* \"#utility.yul\":5597:5602   */\n      dup4\n        /* \"#utility.yul\":5593:5609   */\n      add\n        /* \"#utility.yul\":5587:5610   */\n      mload\n        /* \"#utility.yul\":5657:5660   */\n      dup5\n        /* \"#utility.yul\":5651:5655   */\n      dup3\n        /* \"#utility.yul\":5647:5661   */\n      sub\n        /* \"#utility.yul\":5640:5644   */\n      0x20\n        /* \"#utility.yul\":5635:5638   */\n      dup7\n        /* \"#utility.yul\":5631:5645   */\n      add\n        /* \"#utility.yul\":5624:5662   */\n      mstore\n        /* \"#utility.yul\":5683:5756   */\n      tag_186\n        /* \"#utility.yul\":5751:5755   */\n      dup3\n        /* \"#utility.yul\":5737:5749   */\n      dup3\n        /* \"#utility.yul\":5683:5756   */\n      tag_92\n      jump\t// in\n    tag_186:\n        /* \"#utility.yul\":5675:5756   */\n      swap2\n      pop\n        /* \"#utility.yul\":5529:5767   */\n      pop\n        /* \"#utility.yul\":5854:5858   */\n      0x40\n        /* \"#utility.yul\":5847:5852   */\n      dup4\n        /* \"#utility.yul\":5843:5859   */\n      add\n        /* \"#utility.yul\":5837:5860   */\n      mload\n        /* \"#utility.yul\":5873:5936   */\n      tag_187\n        /* \"#utility.yul\":5930:5934   */\n      0x40\n        /* \"#utility.yul\":5925:5928   */\n      dup7\n        /* \"#utility.yul\":5921:5935   */\n      add\n        /* \"#utility.yul\":5907:5919   */\n      dup3\n        /* \"#utility.yul\":5873:5936   */\n      tag_93\n      jump\t// in\n    tag_187:\n        /* \"#utility.yul\":5777:5946   */\n      pop\n        /* \"#utility.yul\":6029:6033   */\n      0x60\n        /* \"#utility.yul\":6022:6027   */\n      dup4\n        /* \"#utility.yul\":6018:6034   */\n      add\n        /* \"#utility.yul\":6012:6035   */\n      mload\n        /* \"#utility.yul\":6048:6111   */\n      tag_188\n        /* \"#utility.yul\":6105:6109   */\n      0x60\n        /* \"#utility.yul\":6100:6103   */\n      dup7\n        /* \"#utility.yul\":6096:6110   */\n      add\n        /* \"#utility.yul\":6082:6094   */\n      dup3\n        /* \"#utility.yul\":6048:6111   */\n      tag_93\n      jump\t// in\n    tag_188:\n        /* \"#utility.yul\":5956:6121   */\n      pop\n        /* \"#utility.yul\":6138:6142   */\n      dup1\n        /* \"#utility.yul\":6131:6142   */\n      swap2\n      pop\n        /* \"#utility.yul\":5307:6148   */\n      pop\n        /* \"#utility.yul\":5185:6148   */\n      swap3\n      swap2\n      pop\n      pop\n      jump\t// out\n        /* \"#utility.yul\":6154:6426   */\n    tag_95:\n        /* \"#utility.yul\":6281:6291   */\n      0x00\n        /* \"#utility.yul\":6316:6420   */\n      tag_190\n        /* \"#utility.yul\":6416:6419   */\n      dup4\n        /* \"#utility.yul\":6408:6414   */\n      dup4\n        /* \"#utility.yul\":6316:6420   */\n      tag_94\n      jump\t// in\n    tag_190:\n        /* \"#utility.yul\":6302:6420   */\n      swap1\n      pop\n        /* \"#utility.yul\":6154:6426   */\n      swap3\n      swap2\n      pop\n      pop\n      jump\t// out\n        /* \"#utility.yul\":6432:6574   */\n    tag_96:\n        /* \"#utility.yul\":6531:6535   */\n      0x00\n        /* \"#utility.yul\":6563:6567   */\n      0x20\n        /* \"#utility.yul\":6558:6561   */\n      dup3\n        /* \"#utility.yul\":6554:6568   */\n      add\n        /* \"#utility.yul\":6546:6568   */\n      swap1\n      pop\n        /* \"#utility.yul\":6432:6574   */\n      swap2\n      swap1\n      pop\n      jump\t// out\n        /* \"#utility.yul\":6652:7795   */\n    tag_97:\n        /* \"#utility.yul\":6829:6832   */\n      0x00\n        /* \"#utility.yul\":6858:6941   */\n      tag_193\n        /* \"#utility.yul\":6935:6940   */\n      dup3\n        /* \"#utility.yul\":6858:6941   */\n      tag_87\n      jump\t// in\n    tag_193:\n        /* \"#utility.yul\":6957:7072   */\n      tag_194\n        /* \"#utility.yul\":7065:7071   */\n      dup2\n        /* \"#utility.yul\":7060:7063   */\n      dup6\n        /* \"#utility.yul\":6957:7072   */\n      tag_88\n      jump\t// in\n    tag_194:\n        /* \"#utility.yul\":6950:7072   */\n      swap4\n      pop\n        /* \"#utility.yul\":7098:7101   */\n      dup4\n        /* \"#utility.yul\":7143:7147   */\n      0x20\n        /* \"#utility.yul\":7135:7141   */\n      dup3\n        /* \"#utility.yul\":7131:7148   */\n      mul\n        /* \"#utility.yul\":7126:7129   */\n      dup6\n        /* \"#utility.yul\":7122:7149   */\n      add\n        /* \"#utility.yul\":7173:7258   */\n      tag_195\n        /* \"#utility.yul\":7252:7257   */\n      dup6\n        /* \"#utility.yul\":7173:7258   */\n      tag_89\n      jump\t// in\n    tag_195:\n        /* \"#utility.yul\":7281:7288   */\n      dup1\n        /* \"#utility.yul\":7312:7313   */\n      0x00\n        /* \"#utility.yul\":7297:7750   */\n    tag_196:\n        /* \"#utility.yul\":7322:7328   */\n      dup6\n        /* \"#utility.yul\":7319:7320   */\n      dup2\n        /* \"#utility.yul\":7316:7329   */\n      lt\n        /* \"#utility.yul\":7297:7750   */\n      iszero\n      tag_198\n      jumpi\n        /* \"#utility.yul\":7393:7402   */\n      dup5\n        /* \"#utility.yul\":7387:7391   */\n      dup5\n        /* \"#utility.yul\":7383:7403   */\n      sub\n        /* \"#utility.yul\":7378:7381   */\n      dup10\n        /* \"#utility.yul\":7371:7404   */\n      mstore\n        /* \"#utility.yul\":7444:7450   */\n      dup2\n        /* \"#utility.yul\":7438:7451   */\n      mload\n        /* \"#utility.yul\":7472:7594   */\n      tag_199\n        /* \"#utility.yul\":7589:7593   */\n      dup6\n        /* \"#utility.yul\":7574:7587   */\n      dup3\n        /* \"#utility.yul\":7472:7594   */\n      tag_95\n      jump\t// in\n    tag_199:\n        /* \"#utility.yul\":7464:7594   */\n      swap5\n      pop\n        /* \"#utility.yul\":7617:7706   */\n      tag_200\n        /* \"#utility.yul\":7699:7705   */\n      dup4\n        /* \"#utility.yul\":7617:7706   */\n      tag_96\n      jump\t// in\n    tag_200:\n        /* \"#utility.yul\":7607:7706   */\n      swap3\n      pop\n        /* \"#utility.yul\":7735:7739   */\n      0x20\n        /* \"#utility.yul\":7730:7733   */\n      dup11\n        /* \"#utility.yul\":7726:7740   */\n      add\n        /* \"#utility.yul\":7719:7740   */\n      swap10\n      pop\n        /* \"#utility.yul\":7357:7750   */\n      pop\n        /* \"#utility.yul\":7344:7345   */\n      0x01\n        /* \"#utility.yul\":7341:7342   */\n      dup2\n        /* \"#utility.yul\":7337:7346   */\n      add\n        /* \"#utility.yul\":7332:7346   */\n      swap1\n      pop\n        /* \"#utility.yul\":7297:7750   */\n      jump(tag_196)\n    tag_198:\n        /* \"#utility.yul\":7301:7315   */\n      pop\n        /* \"#utility.yul\":7766:7770   */\n      dup3\n        /* \"#utility.yul\":7759:7770   */\n      swap8\n      pop\n        /* \"#utility.yul\":7786:7789   */\n      dup8\n        /* \"#utility.yul\":7779:7789   */\n      swap6\n      pop\n        /* \"#utility.yul\":6834:7795   */\n      pop\n      pop\n      pop\n      pop\n      pop\n        /* \"#utility.yul\":6652:7795   */\n      swap3\n      swap2\n      pop\n      pop\n      jump\t// out\n        /* \"#utility.yul\":7801:8290   */\n    tag_19:\n        /* \"#utility.yul\":8002:8006   */\n      0x00\n        /* \"#utility.yul\":8040:8042   */\n      0x20\n        /* \"#utility.yul\":8029:8038   */\n      dup3\n        /* \"#utility.yul\":8025:8043   */\n      add\n        /* \"#utility.yul\":8017:8043   */\n      swap1\n      pop\n        /* \"#utility.yul\":8089:8098   */\n      dup2\n        /* \"#utility.yul\":8083:8087   */\n      dup2\n        /* \"#utility.yul\":8079:8099   */\n      sub\n        /* \"#utility.yul\":8075:8076   */\n      0x00\n        /* \"#utility.yul\":8064:8073   */\n      dup4\n        /* \"#utility.yul\":8060:8077   */\n      add\n        /* \"#utility.yul\":8053:8100   */\n      mstore\n        /* \"#utility.yul\":8117:8283   */\n      tag_202\n        /* \"#utility.yul\":8278:8282   */\n      dup2\n        /* \"#utility.yul\":8269:8275   */\n      dup5\n        /* \"#utility.yul\":8117:8283   */\n      tag_97\n      jump\t// in\n    tag_202:\n        /* \"#utility.yul\":8109:8283   */\n      swap1\n      pop\n        /* \"#utility.yul\":7801:8290   */\n      swap3\n      swap2\n      pop\n      pop\n      jump\t// out\n        /* \"#utility.yul\":8296:8518   */\n    tag_23:\n        /* \"#utility.yul\":8389:8393   */\n      0x00\n        /* \"#utility.yul\":8427:8429   */\n      0x20\n        /* \"#utility.yul\":8416:8425   */\n      dup3\n        /* \"#utility.yul\":8412:8430   */\n      add\n        /* \"#utility.yul\":8404:8430   */\n      swap1\n      pop\n        /* \"#utility.yul\":8440:8511   */\n      tag_204\n        /* \"#utility.yul\":8508:8509   */\n      0x00\n        /* \"#utility.yul\":8497:8506   */\n      dup4\n        /* \"#utility.yul\":8493:8510   */\n      add\n        /* \"#utility.yul\":8484:8490   */\n      dup5\n        /* \"#utility.yul\":8440:8511   */\n      tag_86\n      jump\t// in\n    tag_204:\n        /* \"#utility.yul\":8296:8518   */\n      swap3\n      swap2\n      pop\n      pop\n      jump\t// out\n        /* \"#utility.yul\":8524:8853   */\n    tag_26:\n        /* \"#utility.yul\":8583:8589   */\n      0x00\n        /* \"#utility.yul\":8632:8634   */\n      0x20\n        /* \"#utility.yul\":8620:8629   */\n      dup3\n        /* \"#utility.yul\":8611:8618   */\n      dup5\n        /* \"#utility.yul\":8607:8630   */\n      sub\n        /* \"#utility.yul\":8603:8635   */\n      slt\n        /* \"#utility.yul\":8600:8719   */\n      iszero\n      tag_206\n      jumpi\n        /* \"#utility.yul\":8638:8717   */\n      tag_207\n      tag_71\n      jump\t// in\n    tag_207:\n        /* \"#utility.yul\":8600:8719   */\n    tag_206:\n        /* \"#utility.yul\":8758:8759   */\n      0x00\n        /* \"#utility.yul\":8783:8836   */\n      tag_208\n        /* \"#utility.yul\":8828:8835   */\n      dup5\n        /* \"#utility.yul\":8819:8825   */\n      dup3\n        /* \"#utility.yul\":8808:8817   */\n      dup6\n        /* \"#utility.yul\":8804:8826   */\n      add\n        /* \"#utility.yul\":8783:8836   */\n      tag_79\n      jump\t// in\n    tag_208:\n        /* \"#utility.yul\":8773:8836   */\n      swap2\n      pop\n        /* \"#utility.yul\":8729:8846   */\n      pop\n        /* \"#utility.yul\":8524:8853   */\n      swap3\n      swap2\n      pop\n      pop\n      jump\t// out\n        /* \"#utility.yul\":8927:9900   */\n    tag_98:\n        /* \"#utility.yul\":9054:9057   */\n      0x00\n        /* \"#utility.yul\":9090:9094   */\n      0x80\n        /* \"#utility.yul\":9085:9088   */\n      dup4\n        /* \"#utility.yul\":9081:9095   */\n      add\n        /* \"#utility.yul\":9179:9183   */\n      0x00\n        /* \"#utility.yul\":9172:9177   */\n      dup4\n        /* \"#utility.yul\":9168:9184   */\n      add\n        /* \"#utility.yul\":9162:9185   */\n      mload\n        /* \"#utility.yul\":9198:9261   */\n      tag_210\n        /* \"#utility.yul\":9255:9259   */\n      0x00\n        /* \"#utility.yul\":9250:9253   */\n      dup7\n        /* \"#utility.yul\":9246:9260   */\n      add\n        /* \"#utility.yul\":9232:9244   */\n      dup3\n        /* \"#utility.yul\":9198:9261   */\n      tag_90\n      jump\t// in\n    tag_210:\n        /* \"#utility.yul\":9105:9271   */\n      pop\n        /* \"#utility.yul\":9356:9360   */\n      0x20\n        /* \"#utility.yul\":9349:9354   */\n      dup4\n        /* \"#utility.yul\":9345:9361   */\n      add\n        /* \"#utility.yul\":9339:9362   */\n      mload\n        /* \"#utility.yul\":9409:9412   */\n      dup5\n        /* \"#utility.yul\":9403:9407   */\n      dup3\n        /* \"#utility.yul\":9399:9413   */\n      sub\n        /* \"#utility.yul\":9392:9396   */\n      0x20\n        /* \"#utility.yul\":9387:9390   */\n      dup7\n        /* \"#utility.yul\":9383:9397   */\n      add\n        /* \"#utility.yul\":9376:9414   */\n      mstore\n        /* \"#utility.yul\":9435:9508   */\n      tag_211\n        /* \"#utility.yul\":9503:9507   */\n      dup3\n        /* \"#utility.yul\":9489:9501   */\n      dup3\n        /* \"#utility.yul\":9435:9508   */\n      tag_92\n      jump\t// in\n    tag_211:\n        /* \"#utility.yul\":9427:9508   */\n      swap2\n      pop\n        /* \"#utility.yul\":9281:9519   */\n      pop\n        /* \"#utility.yul\":9606:9610   */\n      0x40\n        /* \"#utility.yul\":9599:9604   */\n      dup4\n        /* \"#utility.yul\":9595:9611   */\n      add\n        /* \"#utility.yul\":9589:9612   */\n      mload\n        /* \"#utility.yul\":9625:9688   */\n      tag_212\n        /* \"#utility.yul\":9682:9686   */\n      0x40\n        /* \"#utility.yul\":9677:9680   */\n      dup7\n        /* \"#utility.yul\":9673:9687   */\n      add\n        /* \"#utility.yul\":9659:9671   */\n      dup3\n        /* \"#utility.yul\":9625:9688   */\n      tag_93\n      jump\t// in\n    tag_212:\n        /* \"#utility.yul\":9529:9698   */\n      pop\n        /* \"#utility.yul\":9781:9785   */\n      0x60\n        /* \"#utility.yul\":9774:9779   */\n      dup4\n        /* \"#utility.yul\":9770:9786   */\n      add\n        /* \"#utility.yul\":9764:9787   */\n      mload\n        /* \"#utility.yul\":9800:9863   */\n      tag_213\n        /* \"#utility.yul\":9857:9861   */\n      0x60\n        /* \"#utility.yul\":9852:9855   */\n      dup7\n        /* \"#utility.yul\":9848:9862   */\n      add\n        /* \"#utility.yul\":9834:9846   */\n      dup3\n        /* \"#utility.yul\":9800:9863   */\n      tag_93\n      jump\t// in\n    tag_213:\n        /* \"#utility.yul\":9708:9873   */\n      pop\n        /* \"#utility.yul\":9890:9894   */\n      dup1\n        /* \"#utility.yul\":9883:9894   */\n      swap2\n      pop\n        /* \"#utility.yul\":9059:9900   */\n      pop\n        /* \"#utility.yul\":8927:9900   */\n      swap3\n      swap2\n      pop\n      pop\n      jump\t// out\n        /* \"#utility.yul\":9906:10295   */\n    tag_29:\n        /* \"#utility.yul\":10057:10061   */\n      0x00\n        /* \"#utility.yul\":10095:10097   */\n      0x20\n        /* \"#utility.yul\":10084:10093   */\n      dup3\n        /* \"#utility.yul\":10080:10098   */\n      add\n        /* \"#utility.yul\":10072:10098   */\n      swap1\n      pop\n        /* \"#utility.yul\":10144:10153   */\n      dup2\n        /* \"#utility.yul\":10138:10142   */\n      dup2\n        /* \"#utility.yul\":10134:10154   */\n      sub\n        /* \"#utility.yul\":10130:10131   */\n      0x00\n        /* \"#utility.yul\":10119:10128   */\n      dup4\n        /* \"#utility.yul\":10115:10132   */\n      add\n        /* \"#utility.yul\":10108:10155   */\n      mstore\n        /* \"#utility.yul\":10172:10288   */\n      tag_215\n        /* \"#utility.yul\":10283:10287   */\n      dup2\n        /* \"#utility.yul\":10274:10280   */\n      dup5\n        /* \"#utility.yul\":10172:10288   */\n      tag_98\n      jump\t// in\n    tag_215:\n        /* \"#utility.yul\":10164:10288   */\n      swap1\n      pop\n        /* \"#utility.yul\":9906:10295   */\n      swap3\n      swap2\n      pop\n      pop\n      jump\t// out\n        /* \"#utility.yul\":10301:10418   */\n    tag_99:\n        /* \"#utility.yul\":10410:10411   */\n      0x00\n        /* \"#utility.yul\":10407:10408   */\n      dup1\n        /* \"#utility.yul\":10400:10412   */\n      revert\n        /* \"#utility.yul\":10424:10541   */\n    tag_100:\n        /* \"#utility.yul\":10533:10534   */\n      0x00\n        /* \"#utility.yul\":10530:10531   */\n      dup1\n        /* \"#utility.yul\":10523:10535   */\n      revert\n        /* \"#utility.yul\":10547:10727   */\n    tag_101:\n        /* \"#utility.yul\":10595:10672   */\n      0x4e487b7100000000000000000000000000000000000000000000000000000000\n        /* \"#utility.yul\":10592:10593   */\n      0x00\n        /* \"#utility.yul\":10585:10673   */\n      mstore\n        /* \"#utility.yul\":10692:10696   */\n      0x41\n        /* \"#utility.yul\":10689:10690   */\n      0x04\n        /* \"#utility.yul\":10682:10697   */\n      mstore\n        /* \"#utility.yul\":10716:10720   */\n      0x24\n        /* \"#utility.yul\":10713:10714   */\n      0x00\n        /* \"#utility.yul\":10706:10721   */\n      revert\n        /* \"#utility.yul\":10733:11014   */\n    tag_102:\n        /* \"#utility.yul\":10816:10843   */\n      tag_220\n        /* \"#utility.yul\":10838:10842   */\n      dup3\n        /* \"#utility.yul\":10816:10843   */\n      tag_84\n      jump\t// in\n    tag_220:\n        /* \"#utility.yul\":10808:10814   */\n      dup2\n        /* \"#utility.yul\":10804:10844   */\n      add\n        /* \"#utility.yul\":10946:10952   */\n      dup2\n        /* \"#utility.yul\":10934:10944   */\n      dup2\n        /* \"#utility.yul\":10931:10953   */\n      lt\n        /* \"#utility.yul\":10910:10928   */\n      0xffffffffffffffff\n        /* \"#utility.yul\":10898:10908   */\n      dup3\n        /* \"#utility.yul\":10895:10929   */\n      gt\n        /* \"#utility.yul\":10892:10954   */\n      or\n        /* \"#utility.yul\":10889:10977   */\n      iszero\n      tag_221\n      jumpi\n        /* \"#utility.yul\":10957:10975   */\n      tag_222\n      tag_101\n      jump\t// in\n    tag_222:\n        /* \"#utility.yul\":10889:10977   */\n    tag_221:\n        /* \"#utility.yul\":10997:11007   */\n      dup1\n        /* \"#utility.yul\":10993:10995   */\n      0x40\n        /* \"#utility.yul\":10986:11008   */\n      mstore\n        /* \"#utility.yul\":10776:11014   */\n      pop\n        /* \"#utility.yul\":10733:11014   */\n      pop\n      pop\n      jump\t// out\n        /* \"#utility.yul\":11020:11149   */\n    tag_103:\n        /* \"#utility.yul\":11054:11060   */\n      0x00\n        /* \"#utility.yul\":11081:11101   */\n      tag_224\n      tag_70\n      jump\t// in\n    tag_224:\n        /* \"#utility.yul\":11071:11101   */\n      swap1\n      pop\n        /* \"#utility.yul\":11110:11143   */\n      tag_225\n        /* \"#utility.yul\":11138:11142   */\n      dup3\n        /* \"#utility.yul\":11130:11136   */\n      dup3\n        /* \"#utility.yul\":11110:11143   */\n      tag_102\n      jump\t// in\n    tag_225:\n        /* \"#utility.yul\":11020:11149   */\n      swap2\n      swap1\n      pop\n      jump\t// out\n        /* \"#utility.yul\":11155:11463   */\n    tag_104:\n        /* \"#utility.yul\":11217:11221   */\n      0x00\n        /* \"#utility.yul\":11307:11325   */\n      0xffffffffffffffff\n        /* \"#utility.yul\":11299:11305   */\n      dup3\n        /* \"#utility.yul\":11296:11326   */\n      gt\n        /* \"#utility.yul\":11293:11349   */\n      iszero\n      tag_227\n      jumpi\n        /* \"#utility.yul\":11329:11347   */\n      tag_228\n      tag_101\n      jump\t// in\n    tag_228:\n        /* \"#utility.yul\":11293:11349   */\n    tag_227:\n        /* \"#utility.yul\":11367:11396   */\n      tag_229\n        /* \"#utility.yul\":11389:11395   */\n      dup3\n        /* \"#utility.yul\":11367:11396   */\n      tag_84\n      jump\t// in\n    tag_229:\n        /* \"#utility.yul\":11359:11396   */\n      swap1\n      pop\n        /* \"#utility.yul\":11451:11455   */\n      0x20\n        /* \"#utility.yul\":11445:11449   */\n      dup2\n        /* \"#utility.yul\":11441:11456   */\n      add\n        /* \"#utility.yul\":11433:11456   */\n      swap1\n      pop\n        /* \"#utility.yul\":11155:11463   */\n      swap2\n      swap1\n      pop\n      jump\t// out\n        /* \"#utility.yul\":11469:11617   */\n    tag_105:\n        /* \"#utility.yul\":11567:11573   */\n      dup3\n        /* \"#utility.yul\":11562:11565   */\n      dup2\n        /* \"#utility.yul\":11557:11560   */\n      dup4\n        /* \"#utility.yul\":11544:11574   */\n      calldatacopy\n        /* \"#utility.yul\":11608:11609   */\n      0x00\n        /* \"#utility.yul\":11599:11605   */\n      dup4\n        /* \"#utility.yul\":11594:11597   */\n      dup4\n        /* \"#utility.yul\":11590:11606   */\n      add\n        /* \"#utility.yul\":11583:11610   */\n      mstore\n        /* \"#utility.yul\":11469:11617   */\n      pop\n      pop\n      pop\n      jump\t// out\n        /* \"#utility.yul\":11623:12048   */\n    tag_106:\n        /* \"#utility.yul\":11701:11706   */\n      0x00\n        /* \"#utility.yul\":11726:11792   */\n      tag_232\n        /* \"#utility.yul\":11742:11791   */\n      tag_233\n        /* \"#utility.yul\":11784:11790   */\n      dup5\n        /* \"#utility.yul\":11742:11791   */\n      tag_104\n      jump\t// in\n    tag_233:\n        /* \"#utility.yul\":11726:11792   */\n      tag_103\n      jump\t// in\n    tag_232:\n        /* \"#utility.yul\":11717:11792   */\n      swap1\n      pop\n        /* \"#utility.yul\":11815:11821   */\n      dup3\n        /* \"#utility.yul\":11808:11813   */\n      dup2\n        /* \"#utility.yul\":11801:11822   */\n      mstore\n        /* \"#utility.yul\":11853:11857   */\n      0x20\n        /* \"#utility.yul\":11846:11851   */\n      dup2\n        /* \"#utility.yul\":11842:11858   */\n      add\n        /* \"#utility.yul\":11891:11894   */\n      dup5\n        /* \"#utility.yul\":11882:11888   */\n      dup5\n        /* \"#utility.yul\":11877:11880   */\n      dup5\n        /* \"#utility.yul\":11873:11889   */\n      add\n        /* \"#utility.yul\":11870:11895   */\n      gt\n        /* \"#utility.yul\":11867:11979   */\n      iszero\n      tag_234\n      jumpi\n        /* \"#utility.yul\":11898:11977   */\n      tag_235\n      tag_100\n      jump\t// in\n    tag_235:\n        /* \"#utility.yul\":11867:11979   */\n    tag_234:\n        /* \"#utility.yul\":11988:12042   */\n      tag_236\n        /* \"#utility.yul\":12035:12041   */\n      dup5\n        /* \"#utility.yul\":12030:12033   */\n      dup3\n        /* \"#utility.yul\":12025:12028   */\n      dup6\n        /* \"#utility.yul\":11988:12042   */\n      tag_105\n      jump\t// in\n    tag_236:\n        /* \"#utility.yul\":11707:12048   */\n      pop\n        /* \"#utility.yul\":11623:12048   */\n      swap4\n      swap3\n      pop\n      pop\n      pop\n      jump\t// out\n        /* \"#utility.yul\":12068:12408   */\n    tag_107:\n        /* \"#utility.yul\":12124:12129   */\n      0x00\n        /* \"#utility.yul\":12173:12176   */\n      dup3\n        /* \"#utility.yul\":12166:12170   */\n      0x1f\n        /* \"#utility.yul\":12158:12164   */\n      dup4\n        /* \"#utility.yul\":12154:12171   */\n      add\n        /* \"#utility.yul\":12150:12177   */\n      slt\n        /* \"#utility.yul\":12140:12262   */\n      tag_238\n      jumpi\n        /* \"#utility.yul\":12181:12260   */\n      tag_239\n      tag_99\n      jump\t// in\n    tag_239:\n        /* \"#utility.yul\":12140:12262   */\n    tag_238:\n        /* \"#utility.yul\":12298:12304   */\n      dup2\n        /* \"#utility.yul\":12285:12305   */\n      calldataload\n        /* \"#utility.yul\":12323:12402   */\n      tag_240\n        /* \"#utility.yul\":12398:12401   */\n      dup5\n        /* \"#utility.yul\":12390:12396   */\n      dup3\n        /* \"#utility.yul\":12383:12387   */\n      0x20\n        /* \"#utility.yul\":12375:12381   */\n      dup7\n        /* \"#utility.yul\":12371:12388   */\n      add\n        /* \"#utility.yul\":12323:12402   */\n      tag_106\n      jump\t// in\n    tag_240:\n        /* \"#utility.yul\":12314:12402   */\n      swap2\n      pop\n        /* \"#utility.yul\":12130:12408   */\n      pop\n        /* \"#utility.yul\":12068:12408   */\n      swap3\n      swap2\n      pop\n      pop\n      jump\t// out\n        /* \"#utility.yul\":12414:12923   */\n    tag_32:\n        /* \"#utility.yul\":12483:12489   */\n      0x00\n        /* \"#utility.yul\":12532:12534   */\n      0x20\n        /* \"#utility.yul\":12520:12529   */\n      dup3\n        /* \"#utility.yul\":12511:12518   */\n      dup5\n        /* \"#utility.yul\":12507:12530   */\n      sub\n        /* \"#utility.yul\":12503:12535   */\n      slt\n        /* \"#utility.yul\":12500:12619   */\n      iszero\n      tag_242\n      jumpi\n        /* \"#utility.yul\":12538:12617   */\n      tag_243\n      tag_71\n      jump\t// in\n    tag_243:\n        /* \"#utility.yul\":12500:12619   */\n    tag_242:\n        /* \"#utility.yul\":12686:12687   */\n      0x00\n        /* \"#utility.yul\":12675:12684   */\n      dup3\n        /* \"#utility.yul\":12671:12688   */\n      add\n        /* \"#utility.yul\":12658:12689   */\n      calldataload\n        /* \"#utility.yul\":12716:12734   */\n      0xffffffffffffffff\n        /* \"#utility.yul\":12708:12714   */\n      dup2\n        /* \"#utility.yul\":12705:12735   */\n      gt\n        /* \"#utility.yul\":12702:12819   */\n      iszero\n      tag_244\n      jumpi\n        /* \"#utility.yul\":12738:12817   */\n      tag_245\n      tag_72\n      jump\t// in\n    tag_245:\n        /* \"#utility.yul\":12702:12819   */\n    tag_244:\n        /* \"#utility.yul\":12843:12906   */\n      tag_246\n        /* \"#utility.yul\":12898:12905   */\n      dup5\n        /* \"#utility.yul\":12889:12895   */\n      dup3\n        /* \"#utility.yul\":12878:12887   */\n      dup6\n        /* \"#utility.yul\":12874:12896   */\n      add\n        /* \"#utility.yul\":12843:12906   */\n      tag_107\n      jump\t// in\n    tag_246:\n        /* \"#utility.yul\":12833:12906   */\n      swap2\n      pop\n        /* \"#utility.yul\":12629:12916   */\n      pop\n        /* \"#utility.yul\":12414:12923   */\n      swap3\n      swap2\n      pop\n      pop\n      jump\t// out\n        /* \"#utility.yul\":12929:13109   */\n    tag_108:\n        /* \"#utility.yul\":12977:13054   */\n      0x4e487b7100000000000000000000000000000000000000000000000000000000\n        /* \"#utility.yul\":12974:12975   */\n      0x00\n        /* \"#utility.yul\":12967:13055   */\n      mstore\n        /* \"#utility.yul\":13074:13078   */\n      0x22\n        /* \"#utility.yul\":13071:13072   */\n      0x04\n        /* \"#utility.yul\":13064:13079   */\n      mstore\n        /* \"#utility.yul\":13098:13102   */\n      0x24\n        /* \"#utility.yul\":13095:13096   */\n      0x00\n        /* \"#utility.yul\":13088:13103   */\n      revert\n        /* \"#utility.yul\":13115:13435   */\n    tag_37:\n        /* \"#utility.yul\":13159:13165   */\n      0x00\n        /* \"#utility.yul\":13196:13197   */\n      0x02\n        /* \"#utility.yul\":13190:13194   */\n      dup3\n        /* \"#utility.yul\":13186:13198   */\n      div\n        /* \"#utility.yul\":13176:13198   */\n      swap1\n      pop\n        /* \"#utility.yul\":13243:13244   */\n      0x01\n        /* \"#utility.yul\":13237:13241   */\n      dup3\n        /* \"#utility.yul\":13233:13245   */\n      and\n        /* \"#utility.yul\":13264:13282   */\n      dup1\n        /* \"#utility.yul\":13254:13335   */\n      tag_249\n      jumpi\n        /* \"#utility.yul\":13320:13324   */\n      0x7f\n        /* \"#utility.yul\":13312:13318   */\n      dup3\n        /* \"#utility.yul\":13308:13325   */\n      and\n        /* \"#utility.yul\":13298:13325   */\n      swap2\n      pop\n        /* \"#utility.yul\":13254:13335   */\n    tag_249:\n        /* \"#utility.yul\":13382:13384   */\n      0x20\n        /* \"#utility.yul\":13374:13380   */\n      dup3\n        /* \"#utility.yul\":13371:13385   */\n      lt\n        /* \"#utility.yul\":13351:13369   */\n      dup2\n        /* \"#utility.yul\":13348:13386   */\n      sub\n        /* \"#utility.yul\":13345:13429   */\n      tag_250\n      jumpi\n        /* \"#utility.yul\":13401:13419   */\n      tag_251\n      tag_108\n      jump\t// in\n    tag_251:\n        /* \"#utility.yul\":13345:13429   */\n    tag_250:\n        /* \"#utility.yul\":13166:13435   */\n      pop\n        /* \"#utility.yul\":13115:13435   */\n      swap2\n      swap1\n      pop\n      jump\t// out\n        /* \"#utility.yul\":13441:13621   */\n    tag_56:\n        /* \"#utility.yul\":13489:13566   */\n      0x4e487b7100000000000000000000000000000000000000000000000000000000\n        /* \"#utility.yul\":13486:13487   */\n      0x00\n        /* \"#utility.yul\":13479:13567   */\n      mstore\n        /* \"#utility.yul\":13586:13590   */\n      0x32\n        /* \"#utility.yul\":13583:13584   */\n      0x04\n        /* \"#utility.yul\":13576:13591   */\n      mstore\n        /* \"#utility.yul\":13610:13614   */\n      0x24\n        /* \"#utility.yul\":13607:13608   */\n      0x00\n        /* \"#utility.yul\":13600:13615   */\n      revert\n        /* \"#utility.yul\":13627:13799   */\n    tag_109:\n        /* \"#utility.yul\":13767:13791   */\n      0x547765657420697320746f6f206c6f6e672062726f2100000000000000000000\n        /* \"#utility.yul\":13763:13764   */\n      0x00\n        /* \"#utility.yul\":13755:13761   */\n      dup3\n        /* \"#utility.yul\":13751:13765   */\n      add\n        /* \"#utility.yul\":13744:13792   */\n      mstore\n        /* \"#utility.yul\":13627:13799   */\n      pop\n      jump\t// out\n        /* \"#utility.yul\":13805:14171   */\n    tag_110:\n        /* \"#utility.yul\":13947:13950   */\n      0x00\n        /* \"#utility.yul\":13968:14035   */\n      tag_255\n        /* \"#utility.yul\":14032:14034   */\n      0x16\n        /* \"#utility.yul\":14027:14030   */\n      dup4\n        /* \"#utility.yul\":13968:14035   */\n      tag_82\n      jump\t// in\n    tag_255:\n        /* \"#utility.yul\":13961:14035   */\n      swap2\n      pop\n        /* \"#utility.yul\":14044:14137   */\n      tag_256\n        /* \"#utility.yul\":14133:14136   */\n      dup3\n        /* \"#utility.yul\":14044:14137   */\n      tag_109\n      jump\t// in\n    tag_256:\n        /* \"#utility.yul\":14162:14164   */\n      0x20\n        /* \"#utility.yul\":14157:14160   */\n      dup3\n        /* \"#utility.yul\":14153:14165   */\n      add\n        /* \"#utility.yul\":14146:14165   */\n      swap1\n      pop\n        /* \"#utility.yul\":13805:14171   */\n      swap2\n      swap1\n      pop\n      jump\t// out\n        /* \"#utility.yul\":14177:14596   */\n    tag_66:\n        /* \"#utility.yul\":14343:14347   */\n      0x00\n        /* \"#utility.yul\":14381:14383   */\n      0x20\n        /* \"#utility.yul\":14370:14379   */\n      dup3\n        /* \"#utility.yul\":14366:14384   */\n      add\n        /* \"#utility.yul\":14358:14384   */\n      swap1\n      pop\n        /* \"#utility.yul\":14430:14439   */\n      dup2\n        /* \"#utility.yul\":14424:14428   */\n      dup2\n        /* \"#utility.yul\":14420:14440   */\n      sub\n        /* \"#utility.yul\":14416:14417   */\n      0x00\n        /* \"#utility.yul\":14405:14414   */\n      dup4\n        /* \"#utility.yul\":14401:14418   */\n      add\n        /* \"#utility.yul\":14394:14441   */\n      mstore\n        /* \"#utility.yul\":14458:14589   */\n      tag_258\n        /* \"#utility.yul\":14584:14588   */\n      dup2\n        /* \"#utility.yul\":14458:14589   */\n      tag_110\n      jump\t// in\n    tag_258:\n        /* \"#utility.yul\":14450:14589   */\n      swap1\n      pop\n        /* \"#utility.yul\":14177:14596   */\n      swap2\n      swap1\n      pop\n      jump\t// out\n        /* \"#utility.yul\":14602:14743   */\n    tag_111:\n        /* \"#utility.yul\":14651:14655   */\n      0x00\n        /* \"#utility.yul\":14674:14677   */\n      dup2\n        /* \"#utility.yul\":14666:14677   */\n      swap1\n      pop\n        /* \"#utility.yul\":14697:14700   */\n      dup2\n        /* \"#utility.yul\":14694:14695   */\n      0x00\n        /* \"#utility.yul\":14687:14701   */\n      mstore\n        /* \"#utility.yul\":14731:14735   */\n      0x20\n        /* \"#utility.yul\":14728:14729   */\n      0x00\n        /* \"#utility.yul\":14718:14736   */\n      keccak256\n        /* \"#utility.yul\":14710:14736   */\n      swap1\n      pop\n        /* \"#utility.yul\":14602:14743   */\n      swap2\n      swap1\n      pop\n      jump\t// out\n        /* \"#utility.yul\":14749:14842   */\n    tag_112:\n        /* \"#utility.yul\":14786:14792   */\n      0x00\n        /* \"#utility.yul\":14833:14835   */\n      0x20\n        /* \"#utility.yul\":14828:14830   */\n      0x1f\n        /* \"#utility.yul\":14821:14826   */\n      dup4\n        /* \"#utility.yul\":14817:14831   */\n      add\n        /* \"#utility.yul\":14813:14836   */\n      div\n        /* \"#utility.yul\":14803:14836   */\n      swap1\n      pop\n        /* \"#utility.yul\":14749:14842   */\n      swap2\n      swap1\n      pop\n      jump\t// out\n        /* \"#utility.yul\":14848:14955   */\n    tag_113:\n        /* \"#utility.yul\":14892:14900   */\n      0x00\n        /* \"#utility.yul\":14942:14947   */\n      dup3\n        /* \"#utility.yul\":14936:14940   */\n      dup3\n        /* \"#utility.yul\":14932:14948   */\n      shl\n        /* \"#utility.yul\":14911:14948   */\n      swap1\n      pop\n        /* \"#utility.yul\":14848:14955   */\n      swap3\n      swap2\n      pop\n      pop\n      jump\t// out\n        /* \"#utility.yul\":14961:15354   */\n    tag_114:\n        /* \"#utility.yul\":15030:15036   */\n      0x00\n        /* \"#utility.yul\":15080:15081   */\n      0x08\n        /* \"#utility.yul\":15068:15078   */\n      dup4\n        /* \"#utility.yul\":15064:15082   */\n      mul\n        /* \"#utility.yul\":15103:15200   */\n      tag_263\n        /* \"#utility.yul\":15133:15199   */\n      0xffffffffffffffffffffffffffffffffffffffffffffffffffffffffffffffff\n        /* \"#utility.yul\":15122:15131   */\n      dup3\n        /* \"#utility.yul\":15103:15200   */\n      tag_113\n      jump\t// in\n    tag_263:\n        /* \"#utility.yul\":15221:15260   */\n      tag_264\n        /* \"#utility.yul\":15251:15259   */\n      dup7\n        /* \"#utility.yul\":15240:15249   */\n      dup4\n        /* \"#utility.yul\":15221:15260   */\n      tag_113\n      jump\t// in\n    tag_264:\n        /* \"#utility.yul\":15209:15260   */\n      swap6\n      pop\n        /* \"#utility.yul\":15293:15297   */\n      dup1\n        /* \"#utility.yul\":15289:15298   */\n      not\n        /* \"#utility.yul\":15282:15287   */\n      dup5\n        /* \"#utility.yul\":15278:15299   */\n      and\n        /* \"#utility.yul\":15269:15299   */\n      swap4\n      pop\n        /* \"#utility.yul\":15342:15346   */\n      dup1\n        /* \"#utility.yul\":15332:15340   */\n      dup7\n        /* \"#utility.yul\":15328:15347   */\n      and\n        /* \"#utility.yul\":15321:15326   */\n      dup5\n        /* \"#utility.yul\":15318:15348   */\n      or\n        /* \"#utility.yul\":15308:15348   */\n      swap3\n      pop\n        /* \"#utility.yul\":15037:15354   */\n      pop\n      pop\n        /* \"#utility.yul\":14961:15354   */\n      swap4\n      swap3\n      pop\n      pop\n      pop\n      jump\t// out\n        /* \"#utility.yul\":15360:15420   */\n    tag_115:\n        /* \"#utility.yul\":15388:15391   */\n      0x00\n        /* \"#utility.yul\":15409:15414   */\n      dup2\n        /* \"#utility.yul\":15402:15414   */\n      swap1\n      pop\n        /* \"#utility.yul\":15360:15420   */\n      swap2\n      swap1\n      pop\n      jump\t// out\n        /* \"#utility.yul\":15426:15568   */\n    tag_116:\n        /* \"#utility.yul\":15476:15485   */\n      0x00\n        /* \"#utility.yul\":15509:15562   */\n      tag_267\n        /* \"#utility.yul\":15527:15561   */\n      tag_268\n        /* \"#utility.yul\":15536:15560   */\n      tag_269\n        /* \"#utility.yul\":15554:15559   */\n      dup5\n        /* \"#utility.yul\":15536:15560   */\n      tag_77\n      jump\t// in\n    tag_269:\n        /* \"#utility.yul\":15527:15561   */\n      tag_115\n      jump\t// in\n    tag_268:\n        /* \"#utility.yul\":15509:15562   */\n      tag_77\n      jump\t// in\n    tag_267:\n        /* \"#utility.yul\":15496:15562   */\n      swap1\n      pop\n        /* \"#utility.yul\":15426:15568   */\n      swap2\n      swap1\n      pop\n      jump\t// out\n        /* \"#utility.yul\":15574:15649   */\n    tag_117:\n        /* \"#utility.yul\":15617:15620   */\n      0x00\n        /* \"#utility.yul\":15638:15643   */\n      dup2\n        /* \"#utility.yul\":15631:15643   */\n      swap1\n      pop\n        /* \"#utility.yul\":15574:15649   */\n      swap2\n      swap1\n      pop\n      jump\t// out\n        /* \"#utility.yul\":15655:15924   */\n    tag_118:\n        /* \"#utility.yul\":15765:15804   */\n      tag_272\n        /* \"#utility.yul\":15796:15803   */\n      dup4\n        /* \"#utility.yul\":15765:15804   */\n      tag_116\n      jump\t// in\n    tag_272:\n        /* \"#utility.yul\":15826:15917   */\n      tag_273\n        /* \"#utility.yul\":15875:15916   */\n      tag_274\n        /* \"#utility.yul\":15899:15915   */\n      dup3\n        /* \"#utility.yul\":15875:15916   */\n      tag_117\n      jump\t// in\n    tag_274:\n        /* \"#utility.yul\":15867:15873   */\n      dup5\n        /* \"#utility.yul\":15860:15864   */\n      dup5\n        /* \"#utility.yul\":15854:15865   */\n      sload\n        /* \"#utility.yul\":15826:15917   */\n      tag_114\n      jump\t// in\n    tag_273:\n        /* \"#utility.yul\":15820:15824   */\n      dup3\n        /* \"#utility.yul\":15813:15918   */\n      sstore\n        /* \"#utility.yul\":15731:15924   */\n      pop\n        /* \"#utility.yul\":15655:15924   */\n      pop\n      pop\n      pop\n      jump\t// out\n        /* \"#utility.yul\":15930:16003   */\n    tag_119:\n        /* \"#utility.yul\":15975:15978   */\n      0x00\n        /* \"#utility.yul\":15930:16003   */\n      swap1\n      jump\t// out\n        /* \"#utility.yul\":16009:16198   */\n    tag_120:\n        /* \"#utility.yul\":16086:16118   */\n      tag_277\n      tag_119\n      jump\t// in\n    tag_277:\n        /* \"#utility.yul\":16127:16192   */\n      tag_278\n        /* \"#utility.yul\":16185:16191   */\n      dup2\n        /* \"#utility.yul\":16177:16183   */\n      dup5\n        /* \"#utility.yul\":16171:16175   */\n      dup5\n        /* \"#utility.yul\":16127:16192   */\n      tag_118\n      jump\t// in\n    tag_278:\n        /* \"#utility.yul\":16062:16198   */\n      pop\n        /* \"#utility.yul\":16009:16198   */\n      pop\n      pop\n      jump\t// out\n        /* \"#utility.yul\":16204:16390   */\n    tag_121:\n        /* \"#utility.yul\":16264:16384   */\n    tag_280:\n        /* \"#utility.yul\":16281:16284   */\n      dup2\n        /* \"#utility.yul\":16274:16279   */\n      dup2\n        /* \"#utility.yul\":16271:16285   */\n      lt\n        /* \"#utility.yul\":16264:16384   */\n      iszero\n      tag_282\n      jumpi\n        /* \"#utility.yul\":16335:16374   */\n      tag_283\n        /* \"#utility.yul\":16372:16373   */\n      0x00\n        /* \"#utility.yul\":16365:16370   */\n      dup3\n        /* \"#utility.yul\":16335:16374   */\n      tag_120\n      jump\t// in\n    tag_283:\n        /* \"#utility.yul\":16308:16309   */\n      0x01\n        /* \"#utility.yul\":16301:16306   */\n      dup2\n        /* \"#utility.yul\":16297:16310   */\n      add\n        /* \"#utility.yul\":16288:16310   */\n      swap1\n      pop\n        /* \"#utility.yul\":16264:16384   */\n      jump(tag_280)\n    tag_282:\n        /* \"#utility.yul\":16204:16390   */\n      pop\n      pop\n      jump\t// out\n        /* \"#utility.yul\":16396:16939   */\n    tag_122:\n        /* \"#utility.yul\":16497:16499   */\n      0x1f\n        /* \"#utility.yul\":16492:16495   */\n      dup3\n        /* \"#utility.yul\":16489:16500   */\n      gt\n        /* \"#utility.yul\":16486:16932   */\n      iszero\n      tag_285\n      jumpi\n        /* \"#utility.yul\":16531:16569   */\n      tag_286\n        /* \"#utility.yul\":16563:16568   */\n      dup2\n        /* \"#utility.yul\":16531:16569   */\n      tag_111\n      jump\t// in\n    tag_286:\n        /* \"#utility.yul\":16615:16644   */\n      tag_287\n        /* \"#utility.yul\":16633:16643   */\n      dup5\n        /* \"#utility.yul\":16615:16644   */\n      tag_112\n      jump\t// in\n    tag_287:\n        /* \"#utility.yul\":16605:16613   */\n      dup2\n        /* \"#utility.yul\":16601:16645   */\n      add\n        /* \"#utility.yul\":16798:16800   */\n      0x20\n        /* \"#utility.yul\":16786:16796   */\n      dup6\n        /* \"#utility.yul\":16783:16801   */\n      lt\n        /* \"#utility.yul\":16780:16829   */\n      iszero\n      tag_288\n      jumpi\n        /* \"#utility.yul\":16819:16827   */\n      dup2\n        /* \"#utility.yul\":16804:16827   */\n      swap1\n      pop\n        /* \"#utility.yul\":16780:16829   */\n    tag_288:\n        /* \"#utility.yul\":16842:16922   */\n      tag_289\n        /* \"#utility.yul\":16898:16920   */\n      tag_290\n        /* \"#utility.yul\":16916:16919   */\n      dup6\n        /* \"#utility.yul\":16898:16920   */\n      tag_112\n      jump\t// in\n    tag_290:\n        /* \"#utility.yul\":16888:16896   */\n      dup4\n        /* \"#utility.yul\":16884:16921   */\n      add\n        /* \"#utility.yul\":16871:16882   */\n      dup3\n        /* \"#utility.yul\":16842:16922   */\n      tag_121\n      jump\t// in\n    tag_289:\n        /* \"#utility.yul\":16501:16932   */\n      pop\n      pop\n        /* \"#utility.yul\":16486:16932   */\n    tag_285:\n        /* \"#utility.yul\":16396:16939   */\n      pop\n      pop\n      pop\n      jump\t// out\n        /* \"#utility.yul\":16945:17062   */\n    tag_123:\n        /* \"#utility.yul\":16999:17007   */\n      0x00\n        /* \"#utility.yul\":17049:17054   */\n      dup3\n        /* \"#utility.yul\":17043:17047   */\n      dup3\n        /* \"#utility.yul\":17039:17055   */\n      shr\n        /* \"#utility.yul\":17018:17055   */\n      swap1\n      pop\n        /* \"#utility.yul\":16945:17062   */\n      swap3\n      swap2\n      pop\n      pop\n      jump\t// out\n        /* \"#utility.yul\":17068:17237   */\n    tag_124:\n        /* \"#utility.yul\":17112:17118   */\n      0x00\n        /* \"#utility.yul\":17145:17196   */\n      tag_293\n        /* \"#utility.yul\":17193:17194   */\n      0x00\n        /* \"#utility.yul\":17189:17195   */\n      not\n        /* \"#utility.yul\":17181:17186   */\n      dup5\n        /* \"#utility.yul\":17178:17179   */\n      0x08\n        /* \"#utility.yul\":17174:17187   */\n      mul\n        /* \"#utility.yul\":17145:17196   */\n      tag_123\n      jump\t// in\n    tag_293:\n        /* \"#utility.yul\":17141:17197   */\n      not\n        /* \"#utility.yul\":17226:17230   */\n      dup1\n        /* \"#utility.yul\":17220:17224   */\n      dup4\n        /* \"#utility.yul\":17216:17231   */\n      and\n        /* \"#utility.yul\":17206:17231   */\n      swap2\n      pop\n        /* \"#utility.yul\":17119:17237   */\n      pop\n        /* \"#utility.yul\":17068:17237   */\n      swap3\n      swap2\n      pop\n      pop\n      jump\t// out\n        /* \"#utility.yul\":17242:17537   */\n    tag_125:\n        /* \"#utility.yul\":17318:17322   */\n      0x00\n        /* \"#utility.yul\":17464:17493   */\n      tag_295\n        /* \"#utility.yul\":17489:17492   */\n      dup4\n        /* \"#utility.yul\":17483:17487   */\n      dup4\n        /* \"#utility.yul\":17464:17493   */\n      tag_124\n      jump\t// in\n    tag_295:\n        /* \"#utility.yul\":17456:17493   */\n      swap2\n      pop\n        /* \"#utility.yul\":17526:17529   */\n      dup3\n        /* \"#utility.yul\":17523:17524   */\n      0x02\n        /* \"#utility.yul\":17519:17530   */\n      mul\n        /* \"#utility.yul\":17513:17517   */\n      dup3\n        /* \"#utility.yul\":17510:17531   */\n      or\n        /* \"#utility.yul\":17502:17531   */\n      swap1\n      pop\n        /* \"#utility.yul\":17242:17537   */\n      swap3\n      swap2\n      pop\n      pop\n      jump\t// out\n        /* \"#utility.yul\":17542:18937   */\n    tag_69:\n        /* \"#utility.yul\":17659:17696   */\n      tag_297\n        /* \"#utility.yul\":17692:17695   */\n      dup3\n        /* \"#utility.yul\":17659:17696   */\n      tag_81\n      jump\t// in\n    tag_297:\n        /* \"#utility.yul\":17761:17779   */\n      0xffffffffffffffff\n        /* \"#utility.yul\":17753:17759   */\n      dup2\n        /* \"#utility.yul\":17750:17780   */\n      gt\n        /* \"#utility.yul\":17747:17803   */\n      iszero\n      tag_298\n      jumpi\n        /* \"#utility.yul\":17783:17801   */\n      tag_299\n      tag_101\n      jump\t// in\n    tag_299:\n        /* \"#utility.yul\":17747:17803   */\n    tag_298:\n        /* \"#utility.yul\":17827:17865   */\n      tag_300\n        /* \"#utility.yul\":17859:17863   */\n      dup3\n        /* \"#utility.yul\":17853:17864   */\n      sload\n        /* \"#utility.yul\":17827:17865   */\n      tag_37\n      jump\t// in\n    tag_300:\n        /* \"#utility.yul\":17912:17979   */\n      tag_301\n        /* \"#utility.yul\":17972:17978   */\n      dup3\n        /* \"#utility.yul\":17964:17970   */\n      dup3\n        /* \"#utility.yul\":17958:17962   */\n      dup6\n        /* \"#utility.yul\":17912:17979   */\n      tag_122\n      jump\t// in\n    tag_301:\n        /* \"#utility.yul\":18006:18007   */\n      0x00\n        /* \"#utility.yul\":18030:18034   */\n      0x20\n        /* \"#utility.yul\":18017:18034   */\n      swap1\n      pop\n        /* \"#utility.yul\":18062:18064   */\n      0x1f\n        /* \"#utility.yul\":18054:18060   */\n      dup4\n        /* \"#utility.yul\":18051:18065   */\n      gt\n        /* \"#utility.yul\":18079:18080   */\n      0x01\n        /* \"#utility.yul\":18074:18692   */\n      dup2\n      eq\n      tag_303\n      jumpi\n        /* \"#utility.yul\":18736:18737   */\n      0x00\n        /* \"#utility.yul\":18753:18759   */\n      dup5\n        /* \"#utility.yul\":18750:18827   */\n      iszero\n      tag_304\n      jumpi\n        /* \"#utility.yul\":18802:18811   */\n      dup3\n        /* \"#utility.yul\":18797:18800   */\n      dup8\n        /* \"#utility.yul\":18793:18812   */\n      add\n        /* \"#utility.yul\":18787:18813   */\n      mload\n        /* \"#utility.yul\":18778:18813   */\n      swap1\n      pop\n        /* \"#utility.yul\":18750:18827   */\n    tag_304:\n        /* \"#utility.yul\":18853:18920   */\n      tag_305\n        /* \"#utility.yul\":18913:18919   */\n      dup6\n        /* \"#utility.yul\":18906:18911   */\n      dup3\n        /* \"#utility.yul\":18853:18920   */\n      tag_125\n      jump\t// in\n    tag_305:\n        /* \"#utility.yul\":18847:18851   */\n      dup7\n        /* \"#utility.yul\":18840:18921   */\n      sstore\n        /* \"#utility.yul\":18709:18931   */\n      pop\n        /* \"#utility.yul\":18044:18931   */\n      jump(tag_302)\n        /* \"#utility.yul\":18074:18692   */\n    tag_303:\n        /* \"#utility.yul\":18126:18130   */\n      0x1f\n        /* \"#utility.yul\":18122:18131   */\n      not\n        /* \"#utility.yul\":18114:18120   */\n      dup5\n        /* \"#utility.yul\":18110:18132   */\n      and\n        /* \"#utility.yul\":18160:18197   */\n      tag_306\n        /* \"#utility.yul\":18192:18196   */\n      dup7\n        /* \"#utility.yul\":18160:18197   */\n      tag_111\n      jump\t// in\n    tag_306:\n        /* \"#utility.yul\":18219:18220   */\n      0x00\n        /* \"#utility.yul\":18233:18441   */\n    tag_307:\n        /* \"#utility.yul\":18247:18254   */\n      dup3\n        /* \"#utility.yul\":18244:18245   */\n      dup2\n        /* \"#utility.yul\":18241:18255   */\n      lt\n        /* \"#utility.yul\":18233:18441   */\n      iszero\n      tag_309\n      jumpi\n        /* \"#utility.yul\":18326:18335   */\n      dup5\n        /* \"#utility.yul\":18321:18324   */\n      dup10\n        /* \"#utility.yul\":18317:18336   */\n      add\n        /* \"#utility.yul\":18311:18337   */\n      mload\n        /* \"#utility.yul\":18303:18309   */\n      dup3\n        /* \"#utility.yul\":18296:18338   */\n      sstore\n        /* \"#utility.yul\":18377:18378   */\n      0x01\n        /* \"#utility.yul\":18369:18375   */\n      dup3\n        /* \"#utility.yul\":18365:18379   */\n      add\n        /* \"#utility.yul\":18355:18379   */\n      swap2\n      pop\n        /* \"#utility.yul\":18424:18426   */\n      0x20\n        /* \"#utility.yul\":18413:18422   */\n      dup6\n        /* \"#utility.yul\":18409:18427   */\n      add\n        /* \"#utility.yul\":18396:18427   */\n      swap5\n      pop\n        /* \"#utility.yul\":18270:18274   */\n      0x20\n        /* \"#utility.yul\":18267:18268   */\n      dup2\n        /* \"#utility.yul\":18263:18275   */\n      add\n        /* \"#utility.yul\":18258:18275   */\n      swap1\n      pop\n        /* \"#utility.yul\":18233:18441   */\n      jump(tag_307)\n    tag_309:\n        /* \"#utility.yul\":18469:18475   */\n      dup7\n        /* \"#utility.yul\":18460:18467   */\n      dup4\n        /* \"#utility.yul\":18457:18476   */\n      lt\n        /* \"#utility.yul\":18454:18633   */\n      iszero\n      tag_310\n      jumpi\n        /* \"#utility.yul\":18527:18536   */\n      dup5\n        /* \"#utility.yul\":18522:18525   */\n      dup10\n        /* \"#utility.yul\":18518:18537   */\n      add\n        /* \"#utility.yul\":18512:18538   */\n      mload\n        /* \"#utility.yul\":18570:18618   */\n      tag_311\n        /* \"#utility.yul\":18612:18616   */\n      0x1f\n        /* \"#utility.yul\":18604:18610   */\n      dup10\n        /* \"#utility.yul\":18600:18617   */\n      and\n        /* \"#utility.yul\":18589:18598   */\n      dup3\n        /* \"#utility.yul\":18570:18618   */\n      tag_124\n      jump\t// in\n    tag_311:\n        /* \"#utility.yul\":18562:18568   */\n      dup4\n        /* \"#utility.yul\":18555:18619   */\n      sstore\n        /* \"#utility.yul\":18477:18633   */\n      pop\n        /* \"#utility.yul\":18454:18633   */\n    tag_310:\n        /* \"#utility.yul\":18679:18680   */\n      0x01\n        /* \"#utility.yul\":18675:18676   */\n      0x02\n        /* \"#utility.yul\":18667:18673   */\n      dup9\n        /* \"#utility.yul\":18663:18677   */\n      mul\n        /* \"#utility.yul\":18659:18681   */\n      add\n        /* \"#utility.yul\":18653:18657   */\n      dup9\n        /* \"#utility.yul\":18646:18682   */\n      sstore\n        /* \"#utility.yul\":18081:18692   */\n      pop\n      pop\n      pop\n        /* \"#utility.yul\":18044:18931   */\n    tag_302:\n      pop\n        /* \"#utility.yul\":17634:18937   */\n      pop\n      pop\n      pop\n        /* \"#utility.yul\":17542:18937   */\n      pop\n      pop\n      jump\t// out\n\n    auxdata: 0xa264697066735822122077be22eeb77bb83706df648216974ca10ed12fae4c8005932438dd925f03114164736f6c634300081a0033\n}\n",
				"bytecode": {
					"linkReferences": {},
					"object": "608060405260c85f553480156012575f80fd5b50610ff1806100205f395ff3fe608060405234801561000f575f80fd5b5060043610610055575f3560e01c806305a1b4a91461005957806312e7ee1c1461008c5780636eb10797146100bc578063ed9bb8d7146100da578063f86d791b1461010a575b5f80fd5b610073600480360381019061006e9190610744565b610126565b6040516100839493929190610810565b60405180910390f35b6100a660048036038101906100a1919061085a565b610211565b6040516100b39190610a06565b60405180910390f35b6100c46103a2565b6040516100d19190610a26565b60405180910390f35b6100f460048036038101906100ef9190610a3f565b6103a7565b6040516101019190610aca565b60405180910390f35b610124600480360381019061011f9190610c16565b610514565b005b6001602052815f5260405f20818154811061013f575f80fd5b905f5260205f2090600402015f9150915050805f015f9054906101000a900473ffffffffffffffffffffffffffffffffffffffff169080600101805461018490610c8a565b80601f01602080910402602001604051908101604052809291908181526020018280546101b090610c8a565b80156101fb5780601f106101d2576101008083540402835291602001916101fb565b820191905f5260205f20905b8154815290600101906020018083116101de57829003601f168201915b5050505050908060020154908060030154905084565b606060015f8373ffffffffffffffffffffffffffffffffffffffff1673ffffffffffffffffffffffffffffffffffffffff1681526020019081526020015f20805480602002602001604051908101604052809291908181526020015f905b82821015610397578382905f5260205f2090600402016040518060800160405290815f82015f9054906101000a900473ffffffffffffffffffffffffffffffffffffffff1673ffffffffffffffffffffffffffffffffffffffff1673ffffffffffffffffffffffffffffffffffffffff1681526020016001820180546102f490610c8a565b80601f016020809104026020016040519081016040528092919081815260200182805461032090610c8a565b801561036b5780601f106103425761010080835404028352916020019161036b565b820191905f5260205f20905b81548152906001019060200180831161034e57829003601f168201915b50505050508152602001600282015481526020016003820154815250508152602001906001019061026f565b505050509050919050565b5f5481565b6103af61066b565b60015f3373ffffffffffffffffffffffffffffffffffffffff1673ffffffffffffffffffffffffffffffffffffffff1681526020019081526020015f2082815481106103fe576103fd610cba565b5b905f5260205f2090600402016040518060800160405290815f82015f9054906101000a900473ffffffffffffffffffffffffffffffffffffffff1673ffffffffffffffffffffffffffffffffffffffff1673ffffffffffffffffffffffffffffffffffffffff16815260200160018201805461047990610c8a565b80601f01602080910402602001604051908101604052809291908181526020018280546104a590610c8a565b80156104f05780601f106104c7576101008083540402835291602001916104f0565b820191905f5260205f20905b8154815290600101906020018083116104d357829003601f168201915b50505050508152602001600282015481526020016003820154815250509050919050565b5f5481511015610559576040517f08c379a000000000000000000000000000000000000000000000000000000000815260040161055090610d31565b60405180910390fd5b5f60405180608001604052803373ffffffffffffffffffffffffffffffffffffffff1681526020018381526020014281526020015f815250905060015f3373ffffffffffffffffffffffffffffffffffffffff1673ffffffffffffffffffffffffffffffffffffffff1681526020019081526020015f2081908060018154018082558091505060019003905f5260205f2090600402015f909190919091505f820151815f015f6101000a81548173ffffffffffffffffffffffffffffffffffffffff021916908373ffffffffffffffffffffffffffffffffffffffff16021790555060208201518160010190816106509190610eec565b50604082015181600201556060820151816003015550505050565b60405180608001604052805f73ffffffffffffffffffffffffffffffffffffffff168152602001606081526020015f81526020015f81525090565b5f604051905090565b5f80fd5b5f80fd5b5f73ffffffffffffffffffffffffffffffffffffffff82169050919050565b5f6106e0826106b7565b9050919050565b6106f0816106d6565b81146106fa575f80fd5b50565b5f8135905061070b816106e7565b92915050565b5f819050919050565b61072381610711565b811461072d575f80fd5b50565b5f8135905061073e8161071a565b92915050565b5f806040838503121561075a576107596106af565b5b5f610767858286016106fd565b925050602061077885828601610730565b9150509250929050565b61078b816106d6565b82525050565b5f81519050919050565b5f82825260208201905092915050565b8281835e5f83830152505050565b5f601f19601f8301169050919050565b5f6107d382610791565b6107dd818561079b565b93506107ed8185602086016107ab565b6107f6816107b9565b840191505092915050565b61080a81610711565b82525050565b5f6080820190506108235f830187610782565b818103602083015261083581866107c9565b90506108446040830185610801565b6108516060830184610801565b95945050505050565b5f6020828403121561086f5761086e6106af565b5b5f61087c848285016106fd565b91505092915050565b5f81519050919050565b5f82825260208201905092915050565b5f819050602082019050919050565b6108b7816106d6565b82525050565b5f82825260208201905092915050565b5f6108d782610791565b6108e181856108bd565b93506108f18185602086016107ab565b6108fa816107b9565b840191505092915050565b61090e81610711565b82525050565b5f608083015f8301516109295f8601826108ae565b506020830151848203602086015261094182826108cd565b91505060408301516109566040860182610905565b5060608301516109696060860182610905565b508091505092915050565b5f61097f8383610914565b905092915050565b5f602082019050919050565b5f61099d82610885565b6109a7818561088f565b9350836020820285016109b98561089f565b805f5b858110156109f457848403895281516109d58582610974565b94506109e083610987565b925060208a019950506001810190506109bc565b50829750879550505050505092915050565b5f6020820190508181035f830152610a1e8184610993565b905092915050565b5f602082019050610a395f830184610801565b92915050565b5f60208284031215610a5457610a536106af565b5b5f610a6184828501610730565b91505092915050565b5f608083015f830151610a7f5f8601826108ae565b5060208301518482036020860152610a9782826108cd565b9150506040830151610aac6040860182610905565b506060830151610abf6060860182610905565b508091505092915050565b5f6020820190508181035f830152610ae28184610a6a565b905092915050565b5f80fd5b5f80fd5b7f4e487b71000000000000000000000000000000000000000000000000000000005f52604160045260245ffd5b610b28826107b9565b810181811067ffffffffffffffff82111715610b4757610b46610af2565b5b80604052505050565b5f610b596106a6565b9050610b658282610b1f565b919050565b5f67ffffffffffffffff821115610b8457610b83610af2565b5b610b8d826107b9565b9050602081019050919050565b828183375f83830152505050565b5f610bba610bb584610b6a565b610b50565b905082815260208101848484011115610bd657610bd5610aee565b5b610be1848285610b9a565b509392505050565b5f82601f830112610bfd57610bfc610aea565b5b8135610c0d848260208601610ba8565b91505092915050565b5f60208284031215610c2b57610c2a6106af565b5b5f82013567ffffffffffffffff811115610c4857610c476106b3565b5b610c5484828501610be9565b91505092915050565b7f4e487b71000000000000000000000000000000000000000000000000000000005f52602260045260245ffd5b5f6002820490506001821680610ca157607f821691505b602082108103610cb457610cb3610c5d565b5b50919050565b7f4e487b71000000000000000000000000000000000000000000000000000000005f52603260045260245ffd5b7f547765657420697320746f6f206c6f6e672062726f21000000000000000000005f82015250565b5f610d1b60168361079b565b9150610d2682610ce7565b602082019050919050565b5f6020820190508181035f830152610d4881610d0f565b9050919050565b5f819050815f5260205f209050919050565b5f6020601f8301049050919050565b5f82821b905092915050565b5f60088302610dab7fffffffffffffffffffffffffffffffffffffffffffffffffffffffffffffffff82610d70565b610db58683610d70565b95508019841693508086168417925050509392505050565b5f819050919050565b5f610df0610deb610de684610711565b610dcd565b610711565b9050919050565b5f819050919050565b610e0983610dd6565b610e1d610e1582610df7565b848454610d7c565b825550505050565b5f90565b610e31610e25565b610e3c818484610e00565b505050565b5b81811015610e5f57610e545f82610e29565b600181019050610e42565b5050565b601f821115610ea457610e7581610d4f565b610e7e84610d61565b81016020851015610e8d578190505b610ea1610e9985610d61565b830182610e41565b50505b505050565b5f82821c905092915050565b5f610ec45f1984600802610ea9565b1980831691505092915050565b5f610edc8383610eb5565b9150826002028217905092915050565b610ef582610791565b67ffffffffffffffff811115610f0e57610f0d610af2565b5b610f188254610c8a565b610f23828285610e63565b5f60209050601f831160018114610f54575f8415610f42578287015190505b610f4c8582610ed1565b865550610fb3565b601f198416610f6286610d4f565b5f5b82811015610f8957848901518255600182019150602085019450602081019050610f64565b86831015610fa65784890151610fa2601f891682610eb5565b8355505b6001600288020188555050505b50505050505056fea264697066735822122077be22eeb77bb83706df648216974ca10ed12fae4c8005932438dd925f03114164736f6c634300081a0033",
					"opcodes": "PUSH1 0x80 PUSH1 0x40 MSTORE PUSH1 0xC8 PUSH0 SSTORE CALLVALUE DUP1 ISZERO PUSH1 0x12 JUMPI PUSH0 DUP1 REVERT JUMPDEST POP PUSH2 0xFF1 DUP1 PUSH2 0x20 PUSH0 CODECOPY PUSH0 RETURN INVALID PUSH1 0x80 PUSH1 0x40 MSTORE CALLVALUE DUP1 ISZERO PUSH2 0xF JUMPI PUSH0 DUP1 REVERT JUMPDEST POP PUSH1 0x4 CALLDATASIZE LT PUSH2 0x55 JUMPI PUSH0 CALLDATALOAD PUSH1 0xE0 SHR DUP1 PUSH4 0x5A1B4A9 EQ PUSH2 0x59 JUMPI DUP1 PUSH4 0x12E7EE1C EQ PUSH2 0x8C JUMPI DUP1 PUSH4 0x6EB10797 EQ PUSH2 0xBC JUMPI DUP1 PUSH4 0xED9BB8D7 EQ PUSH2 0xDA JUMPI DUP1 PUSH4 0xF86D791B EQ PUSH2 0x10A JUMPI JUMPDEST PUSH0 DUP1 REVERT JUMPDEST PUSH2 0x73 PUSH1 0x4 DUP1 CALLDATASIZE SUB DUP2 ADD SWAP1 PUSH2 0x6E SWAP2 SWAP1 PUSH2 0x744 JUMP JUMPDEST PUSH2 0x126 JUMP JUMPDEST PUSH1 0x40 MLOAD PUSH2 0x83 SWAP5 SWAP4 SWAP3 SWAP2 SWAP1 PUSH2 0x810 JUMP JUMPDEST PUSH1 0x40 MLOAD DUP1 SWAP2 SUB SWAP1 RETURN JUMPDEST PUSH2 0xA6 PUSH1 0x4 DUP1 CALLDATASIZE SUB DUP2 ADD SWAP1 PUSH2 0xA1 SWAP2 SWAP1 PUSH2 0x85A JUMP JUMPDEST PUSH2 0x211 JUMP JUMPDEST PUSH1 0x40 MLOAD PUSH2 0xB3 SWAP2 SWAP1 PUSH2 0xA06 JUMP JUMPDEST PUSH1 0x40 MLOAD DUP1 SWAP2 SUB SWAP1 RETURN JUMPDEST PUSH2 0xC4 PUSH2 0x3A2 JUMP JUMPDEST PUSH1 0x40 MLOAD PUSH2 0xD1 SWAP2 SWAP1 PUSH2 0xA26 JUMP JUMPDEST PUSH1 0x40 MLOAD DUP1 SWAP2 SUB SWAP1 RETURN JUMPDEST PUSH2 0xF4 PUSH1 0x4 DUP1 CALLDATASIZE SUB DUP2 ADD SWAP1 PUSH2 0xEF SWAP2 SWAP1 PUSH2 0xA3F JUMP JUMPDEST PUSH2 0x3A7 JUMP JUMPDEST PUSH1 0x40 MLOAD PUSH2 0x101 SWAP2 SWAP1 PUSH2 0xACA JUMP JUMPDEST PUSH1 0x40 MLOAD DUP1 SWAP2 SUB SWAP1 RETURN JUMPDEST PUSH2 0x124 PUSH1 0x4 DUP1 CALLDATASIZE SUB DUP2 ADD SWAP1 PUSH2 0x11F SWAP2 SWAP1 PUSH2 0xC16 JUMP JUMPDEST PUSH2 0x514 JUMP JUMPDEST STOP JUMPDEST PUSH1 0x1 PUSH1 0x20 MSTORE DUP2 PUSH0 MSTORE PUSH1 0x40 PUSH0 KECCAK256 DUP2 DUP2 SLOAD DUP2 LT PUSH2 0x13F JUMPI PUSH0 DUP1 REVERT JUMPDEST SWAP1 PUSH0 MSTORE PUSH1 0x20 PUSH0 KECCAK256 SWAP1 PUSH1 0x4 MUL ADD PUSH0 SWAP2 POP SWAP2 POP POP DUP1 PUSH0 ADD PUSH0 SWAP1 SLOAD SWAP1 PUSH2 0x100 EXP SWAP1 DIV PUSH20 0xFFFFFFFFFFFFFFFFFFFFFFFFFFFFFFFFFFFFFFFF AND SWAP1 DUP1 PUSH1 0x1 ADD DUP1 SLOAD PUSH2 0x184 SWAP1 PUSH2 0xC8A JUMP JUMPDEST DUP1 PUSH1 0x1F ADD PUSH1 0x20 DUP1 SWAP2 DIV MUL PUSH1 0x20 ADD PUSH1 0x40 MLOAD SWAP1 DUP2 ADD PUSH1 0x40 MSTORE DUP1 SWAP3 SWAP2 SWAP1 DUP2 DUP2 MSTORE PUSH1 0x20 ADD DUP3 DUP1 SLOAD PUSH2 0x1B0 SWAP1 PUSH2 0xC8A JUMP JUMPDEST DUP1 ISZERO PUSH2 0x1FB JUMPI DUP1 PUSH1 0x1F LT PUSH2 0x1D2 JUMPI PUSH2 0x100 DUP1 DUP4 SLOAD DIV MUL DUP4 MSTORE SWAP2 PUSH1 0x20 ADD SWAP2 PUSH2 0x1FB JUMP JUMPDEST DUP3 ADD SWAP2 SWAP1 PUSH0 MSTORE PUSH1 0x20 PUSH0 KECCAK256 SWAP1 JUMPDEST DUP2 SLOAD DUP2 MSTORE SWAP1 PUSH1 0x1 ADD SWAP1 PUSH1 0x20 ADD DUP1 DUP4 GT PUSH2 0x1DE JUMPI DUP3 SWAP1 SUB PUSH1 0x1F AND DUP3 ADD SWAP2 JUMPDEST POP POP POP POP POP SWAP1 DUP1 PUSH1 0x2 ADD SLOAD SWAP1 DUP1 PUSH1 0x3 ADD SLOAD SWAP1 POP DUP5 JUMP JUMPDEST PUSH1 0x60 PUSH1 0x1 PUSH0 DUP4 PUSH20 0xFFFFFFFFFFFFFFFFFFFFFFFFFFFFFFFFFFFFFFFF AND PUSH20 0xFFFFFFFFFFFFFFFFFFFFFFFFFFFFFFFFFFFFFFFF AND DUP2 MSTORE PUSH1 0x20 ADD SWAP1 DUP2 MSTORE PUSH1 0x20 ADD PUSH0 KECCAK256 DUP1 SLOAD DUP1 PUSH1 0x20 MUL PUSH1 0x20 ADD PUSH1 0x40 MLOAD SWAP1 DUP2 ADD PUSH1 0x40 MSTORE DUP1 SWAP3 SWAP2 SWAP1 DUP2 DUP2 MSTORE PUSH1 0x20 ADD PUSH0 SWAP1 JUMPDEST DUP3 DUP3 LT ISZERO PUSH2 0x397 JUMPI DUP4 DUP3 SWAP1 PUSH0 MSTORE PUSH1 0x20 PUSH0 KECCAK256 SWAP1 PUSH1 0x4 MUL ADD PUSH1 0x40 MLOAD DUP1 PUSH1 0x80 ADD PUSH1 0x40 MSTORE SWAP1 DUP2 PUSH0 DUP3 ADD PUSH0 SWAP1 SLOAD SWAP1 PUSH2 0x100 EXP SWAP1 DIV PUSH20 0xFFFFFFFFFFFFFFFFFFFFFFFFFFFFFFFFFFFFFFFF AND PUSH20 0xFFFFFFFFFFFFFFFFFFFFFFFFFFFFFFFFFFFFFFFF AND PUSH20 0xFFFFFFFFFFFFFFFFFFFFFFFFFFFFFFFFFFFFFFFF AND DUP2 MSTORE PUSH1 0x20 ADD PUSH1 0x1 DUP3 ADD DUP1 SLOAD PUSH2 0x2F4 SWAP1 PUSH2 0xC8A JUMP JUMPDEST DUP1 PUSH1 0x1F ADD PUSH1 0x20 DUP1 SWAP2 DIV MUL PUSH1 0x20 ADD PUSH1 0x40 MLOAD SWAP1 DUP2 ADD PUSH1 0x40 MSTORE DUP1 SWAP3 SWAP2 SWAP1 DUP2 DUP2 MSTORE PUSH1 0x20 ADD DUP3 DUP1 SLOAD PUSH2 0x320 SWAP1 PUSH2 0xC8A JUMP JUMPDEST DUP1 ISZERO PUSH2 0x36B JUMPI DUP1 PUSH1 0x1F LT PUSH2 0x342 JUMPI PUSH2 0x100 DUP1 DUP4 SLOAD DIV MUL DUP4 MSTORE SWAP2 PUSH1 0x20 ADD SWAP2 PUSH2 0x36B JUMP JUMPDEST DUP3 ADD SWAP2 SWAP1 PUSH0 MSTORE PUSH1 0x20 PUSH0 KECCAK256 SWAP1 JUMPDEST DUP2 SLOAD DUP2 MSTORE SWAP1 PUSH1 0x1 ADD SWAP1 PUSH1 0x20 ADD DUP1 DUP4 GT PUSH2 0x34E JUMPI DUP3 SWAP1 SUB PUSH1 0x1F AND DUP3 ADD SWAP2 JUMPDEST POP POP POP POP POP DUP2 MSTORE PUSH1 0x20 ADD PUSH1 0x2 DUP3 ADD SLOAD DUP2 MSTORE PUSH1 0x20 ADD PUSH1 0x3 DUP3 ADD SLOAD DUP2 MSTORE POP POP DUP2 MSTORE PUSH1 0x20 ADD SWAP1 PUSH1 0x1 ADD SWAP1 PUSH2 0x26F JUMP JUMPDEST POP POP POP POP SWAP1 POP SWAP2 SWAP1 POP JUMP JUMPDEST PUSH0 SLOAD DUP2 JUMP JUMPDEST PUSH2 0x3AF PUSH2 0x66B JUMP JUMPDEST PUSH1 0x1 PUSH0 CALLER PUSH20 0xFFFFFFFFFFFFFFFFFFFFFFFFFFFFFFFFFFFFFFFF AND PUSH20 0xFFFFFFFFFFFFFFFFFFFFFFFFFFFFFFFFFFFFFFFF AND DUP2 MSTORE PUSH1 0x20 ADD SWAP1 DUP2 MSTORE PUSH1 0x20 ADD PUSH0 KECCAK256 DUP3 DUP2 SLOAD DUP2 LT PUSH2 0x3FE JUMPI PUSH2 0x3FD PUSH2 0xCBA JUMP JUMPDEST JUMPDEST SWAP1 PUSH0 MSTORE PUSH1 0x20 PUSH0 KECCAK256 SWAP1 PUSH1 0x4 MUL ADD PUSH1 0x40 MLOAD DUP1 PUSH1 0x80 ADD PUSH1 0x40 MSTORE SWAP1 DUP2 PUSH0 DUP3 ADD PUSH0 SWAP1 SLOAD SWAP1 PUSH2 0x100 EXP SWAP1 DIV PUSH20 0xFFFFFFFFFFFFFFFFFFFFFFFFFFFFFFFFFFFFFFFF AND PUSH20 0xFFFFFFFFFFFFFFFFFFFFFFFFFFFFFFFFFFFFFFFF AND PUSH20 0xFFFFFFFFFFFFFFFFFFFFFFFFFFFFFFFFFFFFFFFF AND DUP2 MSTORE PUSH1 0x20 ADD PUSH1 0x1 DUP3 ADD DUP1 SLOAD PUSH2 0x479 SWAP1 PUSH2 0xC8A JUMP JUMPDEST DUP1 PUSH1 0x1F ADD PUSH1 0x20 DUP1 SWAP2 DIV MUL PUSH1 0x20 ADD PUSH1 0x40 MLOAD SWAP1 DUP2 ADD PUSH1 0x40 MSTORE DUP1 SWAP3 SWAP2 SWAP1 DUP2 DUP2 MSTORE PUSH1 0x20 ADD DUP3 DUP1 SLOAD PUSH2 0x4A5 SWAP1 PUSH2 0xC8A JUMP JUMPDEST DUP1 ISZERO PUSH2 0x4F0 JUMPI DUP1 PUSH1 0x1F LT PUSH2 0x4C7 JUMPI PUSH2 0x100 DUP1 DUP4 SLOAD DIV MUL DUP4 MSTORE SWAP2 PUSH1 0x20 ADD SWAP2 PUSH2 0x4F0 JUMP JUMPDEST DUP3 ADD SWAP2 SWAP1 PUSH0 MSTORE PUSH1 0x20 PUSH0 KECCAK256 SWAP1 JUMPDEST DUP2 SLOAD DUP2 MSTORE SWAP1 PUSH1 0x1 ADD SWAP1 PUSH1 0x20 ADD DUP1 DUP4 GT PUSH2 0x4D3 JUMPI DUP3 SWAP1 SUB PUSH1 0x1F AND DUP3 ADD SWAP2 JUMPDEST POP POP POP POP POP DUP2 MSTORE PUSH1 0x20 ADD PUSH1 0x2 DUP3 ADD SLOAD DUP2 MSTORE PUSH1 0x20 ADD PUSH1 0x3 DUP3 ADD SLOAD DUP2 MSTORE POP POP SWAP1 POP SWAP2 SWAP1 POP JUMP JUMPDEST PUSH0 SLOAD DUP2 MLOAD LT ISZERO PUSH2 0x559 JUMPI PUSH1 0x40 MLOAD PUSH32 0x8C379A000000000000000000000000000000000000000000000000000000000 DUP2 MSTORE PUSH1 0x4 ADD PUSH2 0x550 SWAP1 PUSH2 0xD31 JUMP JUMPDEST PUSH1 0x40 MLOAD DUP1 SWAP2 SUB SWAP1 REVERT JUMPDEST PUSH0 PUSH1 0x40 MLOAD DUP1 PUSH1 0x80 ADD PUSH1 0x40 MSTORE DUP1 CALLER PUSH20 0xFFFFFFFFFFFFFFFFFFFFFFFFFFFFFFFFFFFFFFFF AND DUP2 MSTORE PUSH1 0x20 ADD DUP4 DUP2 MSTORE PUSH1 0x20 ADD TIMESTAMP DUP2 MSTORE PUSH1 0x20 ADD PUSH0 DUP2 MSTORE POP SWAP1 POP PUSH1 0x1 PUSH0 CALLER PUSH20 0xFFFFFFFFFFFFFFFFFFFFFFFFFFFFFFFFFFFFFFFF AND PUSH20 0xFFFFFFFFFFFFFFFFFFFFFFFFFFFFFFFFFFFFFFFF AND DUP2 MSTORE PUSH1 0x20 ADD SWAP1 DUP2 MSTORE PUSH1 0x20 ADD PUSH0 KECCAK256 DUP2 SWAP1 DUP1 PUSH1 0x1 DUP2 SLOAD ADD DUP1 DUP3 SSTORE DUP1 SWAP2 POP POP PUSH1 0x1 SWAP1 SUB SWAP1 PUSH0 MSTORE PUSH1 0x20 PUSH0 KECCAK256 SWAP1 PUSH1 0x4 MUL ADD PUSH0 SWAP1 SWAP2 SWAP1 SWAP2 SWAP1 SWAP2 POP PUSH0 DUP3 ADD MLOAD DUP2 PUSH0 ADD PUSH0 PUSH2 0x100 EXP DUP2 SLOAD DUP2 PUSH20 0xFFFFFFFFFFFFFFFFFFFFFFFFFFFFFFFFFFFFFFFF MUL NOT AND SWAP1 DUP4 PUSH20 0xFFFFFFFFFFFFFFFFFFFFFFFFFFFFFFFFFFFFFFFF AND MUL OR SWAP1 SSTORE POP PUSH1 0x20 DUP3 ADD MLOAD DUP2 PUSH1 0x1 ADD SWAP1 DUP2 PUSH2 0x650 SWAP2 SWAP1 PUSH2 0xEEC JUMP JUMPDEST POP PUSH1 0x40 DUP3 ADD MLOAD DUP2 PUSH1 0x2 ADD SSTORE PUSH1 0x60 DUP3 ADD MLOAD DUP2 PUSH1 0x3 ADD SSTORE POP POP POP POP JUMP JUMPDEST PUSH1 0x40 MLOAD DUP1 PUSH1 0x80 ADD PUSH1 0x40 MSTORE DUP1 PUSH0 PUSH20 0xFFFFFFFFFFFFFFFFFFFFFFFFFFFFFFFFFFFFFFFF AND DUP2 MSTORE PUSH1 0x20 ADD PUSH1 0x60 DUP2 MSTORE PUSH1 0x20 ADD PUSH0 DUP2 MSTORE PUSH1 0x20 ADD PUSH0 DUP2 MSTORE POP SWAP1 JUMP JUMPDEST PUSH0 PUSH1 0x40 MLOAD SWAP1 POP SWAP1 JUMP JUMPDEST PUSH0 DUP1 REVERT JUMPDEST PUSH0 DUP1 REVERT JUMPDEST PUSH0 PUSH20 0xFFFFFFFFFFFFFFFFFFFFFFFFFFFFFFFFFFFFFFFF DUP3 AND SWAP1 POP SWAP2 SWAP1 POP JUMP JUMPDEST PUSH0 PUSH2 0x6E0 DUP3 PUSH2 0x6B7 JUMP JUMPDEST SWAP1 POP SWAP2 SWAP1 POP JUMP JUMPDEST PUSH2 0x6F0 DUP2 PUSH2 0x6D6 JUMP JUMPDEST DUP2 EQ PUSH2 0x6FA JUMPI PUSH0 DUP1 REVERT JUMPDEST POP JUMP JUMPDEST PUSH0 DUP2 CALLDATALOAD SWAP1 POP PUSH2 0x70B DUP2 PUSH2 0x6E7 JUMP JUMPDEST SWAP3 SWAP2 POP POP JUMP JUMPDEST PUSH0 DUP2 SWAP1 POP SWAP2 SWAP1 POP JUMP JUMPDEST PUSH2 0x723 DUP2 PUSH2 0x711 JUMP JUMPDEST DUP2 EQ PUSH2 0x72D JUMPI PUSH0 DUP1 REVERT JUMPDEST POP JUMP JUMPDEST PUSH0 DUP2 CALLDATALOAD SWAP1 POP PUSH2 0x73E DUP2 PUSH2 0x71A JUMP JUMPDEST SWAP3 SWAP2 POP POP JUMP JUMPDEST PUSH0 DUP1 PUSH1 0x40 DUP4 DUP6 SUB SLT ISZERO PUSH2 0x75A JUMPI PUSH2 0x759 PUSH2 0x6AF JUMP JUMPDEST JUMPDEST PUSH0 PUSH2 0x767 DUP6 DUP3 DUP7 ADD PUSH2 0x6FD JUMP JUMPDEST SWAP3 POP POP PUSH1 0x20 PUSH2 0x778 DUP6 DUP3 DUP7 ADD PUSH2 0x730 JUMP JUMPDEST SWAP2 POP POP SWAP3 POP SWAP3 SWAP1 POP JUMP JUMPDEST PUSH2 0x78B DUP2 PUSH2 0x6D6 JUMP JUMPDEST DUP3 MSTORE POP POP JUMP JUMPDEST PUSH0 DUP2 MLOAD SWAP1 POP SWAP2 SWAP1 POP JUMP JUMPDEST PUSH0 DUP3 DUP3 MSTORE PUSH1 0x20 DUP3 ADD SWAP1 POP SWAP3 SWAP2 POP POP JUMP JUMPDEST DUP3 DUP2 DUP4 MCOPY PUSH0 DUP4 DUP4 ADD MSTORE POP POP POP JUMP JUMPDEST PUSH0 PUSH1 0x1F NOT PUSH1 0x1F DUP4 ADD AND SWAP1 POP SWAP2 SWAP1 POP JUMP JUMPDEST PUSH0 PUSH2 0x7D3 DUP3 PUSH2 0x791 JUMP JUMPDEST PUSH2 0x7DD DUP2 DUP6 PUSH2 0x79B JUMP JUMPDEST SWAP4 POP PUSH2 0x7ED DUP2 DUP6 PUSH1 0x20 DUP7 ADD PUSH2 0x7AB JUMP JUMPDEST PUSH2 0x7F6 DUP2 PUSH2 0x7B9 JUMP JUMPDEST DUP5 ADD SWAP2 POP POP SWAP3 SWAP2 POP POP JUMP JUMPDEST PUSH2 0x80A DUP2 PUSH2 0x711 JUMP JUMPDEST DUP3 MSTORE POP POP JUMP JUMPDEST PUSH0 PUSH1 0x80 DUP3 ADD SWAP1 POP PUSH2 0x823 PUSH0 DUP4 ADD DUP8 PUSH2 0x782 JUMP JUMPDEST DUP2 DUP2 SUB PUSH1 0x20 DUP4 ADD MSTORE PUSH2 0x835 DUP2 DUP7 PUSH2 0x7C9 JUMP JUMPDEST SWAP1 POP PUSH2 0x844 PUSH1 0x40 DUP4 ADD DUP6 PUSH2 0x801 JUMP JUMPDEST PUSH2 0x851 PUSH1 0x60 DUP4 ADD DUP5 PUSH2 0x801 JUMP JUMPDEST SWAP6 SWAP5 POP POP POP POP POP JUMP JUMPDEST PUSH0 PUSH1 0x20 DUP3 DUP5 SUB SLT ISZERO PUSH2 0x86F JUMPI PUSH2 0x86E PUSH2 0x6AF JUMP JUMPDEST JUMPDEST PUSH0 PUSH2 0x87C DUP5 DUP3 DUP6 ADD PUSH2 0x6FD JUMP JUMPDEST SWAP2 POP POP SWAP3 SWAP2 POP POP JUMP JUMPDEST PUSH0 DUP2 MLOAD SWAP1 POP SWAP2 SWAP1 POP JUMP JUMPDEST PUSH0 DUP3 DUP3 MSTORE PUSH1 0x20 DUP3 ADD SWAP1 POP SWAP3 SWAP2 POP POP JUMP JUMPDEST PUSH0 DUP2 SWAP1 POP PUSH1 0x20 DUP3 ADD SWAP1 POP SWAP2 SWAP1 POP JUMP JUMPDEST PUSH2 0x8B7 DUP2 PUSH2 0x6D6 JUMP JUMPDEST DUP3 MSTORE POP POP JUMP JUMPDEST PUSH0 DUP3 DUP3 MSTORE PUSH1 0x20 DUP3 ADD SWAP1 POP SWAP3 SWAP2 POP POP JUMP JUMPDEST PUSH0 PUSH2 0x8D7 DUP3 PUSH2 0x791 JUMP JUMPDEST PUSH2 0x8E1 DUP2 DUP6 PUSH2 0x8BD JUMP JUMPDEST SWAP4 POP PUSH2 0x8F1 DUP2 DUP6 PUSH1 0x20 DUP7 ADD PUSH2 0x7AB JUMP JUMPDEST PUSH2 0x8FA DUP2 PUSH2 0x7B9 JUMP JUMPDEST DUP5 ADD SWAP2 POP POP SWAP3 SWAP2 POP POP JUMP JUMPDEST PUSH2 0x90E DUP2 PUSH2 0x711 JUMP JUMPDEST DUP3 MSTORE POP POP JUMP JUMPDEST PUSH0 PUSH1 0x80 DUP4 ADD PUSH0 DUP4 ADD MLOAD PUSH2 0x929 PUSH0 DUP7 ADD DUP3 PUSH2 0x8AE JUMP JUMPDEST POP PUSH1 0x20 DUP4 ADD MLOAD DUP5 DUP3 SUB PUSH1 0x20 DUP7 ADD MSTORE PUSH2 0x941 DUP3 DUP3 PUSH2 0x8CD JUMP JUMPDEST SWAP2 POP POP PUSH1 0x40 DUP4 ADD MLOAD PUSH2 0x956 PUSH1 0x40 DUP7 ADD DUP3 PUSH2 0x905 JUMP JUMPDEST POP PUSH1 0x60 DUP4 ADD MLOAD PUSH2 0x969 PUSH1 0x60 DUP7 ADD DUP3 PUSH2 0x905 JUMP JUMPDEST POP DUP1 SWAP2 POP POP SWAP3 SWAP2 POP POP JUMP JUMPDEST PUSH0 PUSH2 0x97F DUP4 DUP4 PUSH2 0x914 JUMP JUMPDEST SWAP1 POP SWAP3 SWAP2 POP POP JUMP JUMPDEST PUSH0 PUSH1 0x20 DUP3 ADD SWAP1 POP SWAP2 SWAP1 POP JUMP JUMPDEST PUSH0 PUSH2 0x99D DUP3 PUSH2 0x885 JUMP JUMPDEST PUSH2 0x9A7 DUP2 DUP6 PUSH2 0x88F JUMP JUMPDEST SWAP4 POP DUP4 PUSH1 0x20 DUP3 MUL DUP6 ADD PUSH2 0x9B9 DUP6 PUSH2 0x89F JUMP JUMPDEST DUP1 PUSH0 JUMPDEST DUP6 DUP2 LT ISZERO PUSH2 0x9F4 JUMPI DUP5 DUP5 SUB DUP10 MSTORE DUP2 MLOAD PUSH2 0x9D5 DUP6 DUP3 PUSH2 0x974 JUMP JUMPDEST SWAP5 POP PUSH2 0x9E0 DUP4 PUSH2 0x987 JUMP JUMPDEST SWAP3 POP PUSH1 0x20 DUP11 ADD SWAP10 POP POP PUSH1 0x1 DUP2 ADD SWAP1 POP PUSH2 0x9BC JUMP JUMPDEST POP DUP3 SWAP8 POP DUP8 SWAP6 POP POP POP POP POP POP SWAP3 SWAP2 POP POP JUMP JUMPDEST PUSH0 PUSH1 0x20 DUP3 ADD SWAP1 POP DUP2 DUP2 SUB PUSH0 DUP4 ADD MSTORE PUSH2 0xA1E DUP2 DUP5 PUSH2 0x993 JUMP JUMPDEST SWAP1 POP SWAP3 SWAP2 POP POP JUMP JUMPDEST PUSH0 PUSH1 0x20 DUP3 ADD SWAP1 POP PUSH2 0xA39 PUSH0 DUP4 ADD DUP5 PUSH2 0x801 JUMP JUMPDEST SWAP3 SWAP2 POP POP JUMP JUMPDEST PUSH0 PUSH1 0x20 DUP3 DUP5 SUB SLT ISZERO PUSH2 0xA54 JUMPI PUSH2 0xA53 PUSH2 0x6AF JUMP JUMPDEST JUMPDEST PUSH0 PUSH2 0xA61 DUP5 DUP3 DUP6 ADD PUSH2 0x730 JUMP JUMPDEST SWAP2 POP POP SWAP3 SWAP2 POP POP JUMP JUMPDEST PUSH0 PUSH1 0x80 DUP4 ADD PUSH0 DUP4 ADD MLOAD PUSH2 0xA7F PUSH0 DUP7 ADD DUP3 PUSH2 0x8AE JUMP JUMPDEST POP PUSH1 0x20 DUP4 ADD MLOAD DUP5 DUP3 SUB PUSH1 0x20 DUP7 ADD MSTORE PUSH2 0xA97 DUP3 DUP3 PUSH2 0x8CD JUMP JUMPDEST SWAP2 POP POP PUSH1 0x40 DUP4 ADD MLOAD PUSH2 0xAAC PUSH1 0x40 DUP7 ADD DUP3 PUSH2 0x905 JUMP JUMPDEST POP PUSH1 0x60 DUP4 ADD MLOAD PUSH2 0xABF PUSH1 0x60 DUP7 ADD DUP3 PUSH2 0x905 JUMP JUMPDEST POP DUP1 SWAP2 POP POP SWAP3 SWAP2 POP POP JUMP JUMPDEST PUSH0 PUSH1 0x20 DUP3 ADD SWAP1 POP DUP2 DUP2 SUB PUSH0 DUP4 ADD MSTORE PUSH2 0xAE2 DUP2 DUP5 PUSH2 0xA6A JUMP JUMPDEST SWAP1 POP SWAP3 SWAP2 POP POP JUMP JUMPDEST PUSH0 DUP1 REVERT JUMPDEST PUSH0 DUP1 REVERT JUMPDEST PUSH32 0x4E487B7100000000000000000000000000000000000000000000000000000000 PUSH0 MSTORE PUSH1 0x41 PUSH1 0x4 MSTORE PUSH1 0x24 PUSH0 REVERT JUMPDEST PUSH2 0xB28 DUP3 PUSH2 0x7B9 JUMP JUMPDEST DUP2 ADD DUP2 DUP2 LT PUSH8 0xFFFFFFFFFFFFFFFF DUP3 GT OR ISZERO PUSH2 0xB47 JUMPI PUSH2 0xB46 PUSH2 0xAF2 JUMP JUMPDEST JUMPDEST DUP1 PUSH1 0x40 MSTORE POP POP POP JUMP JUMPDEST PUSH0 PUSH2 0xB59 PUSH2 0x6A6 JUMP JUMPDEST SWAP1 POP PUSH2 0xB65 DUP3 DUP3 PUSH2 0xB1F JUMP JUMPDEST SWAP2 SWAP1 POP JUMP JUMPDEST PUSH0 PUSH8 0xFFFFFFFFFFFFFFFF DUP3 GT ISZERO PUSH2 0xB84 JUMPI PUSH2 0xB83 PUSH2 0xAF2 JUMP JUMPDEST JUMPDEST PUSH2 0xB8D DUP3 PUSH2 0x7B9 JUMP JUMPDEST SWAP1 POP PUSH1 0x20 DUP2 ADD SWAP1 POP SWAP2 SWAP1 POP JUMP JUMPDEST DUP3 DUP2 DUP4 CALLDATACOPY PUSH0 DUP4 DUP4 ADD MSTORE POP POP POP JUMP JUMPDEST PUSH0 PUSH2 0xBBA PUSH2 0xBB5 DUP5 PUSH2 0xB6A JUMP JUMPDEST PUSH2 0xB50 JUMP JUMPDEST SWAP1 POP DUP3 DUP2 MSTORE PUSH1 0x20 DUP2 ADD DUP5 DUP5 DUP5 ADD GT ISZERO PUSH2 0xBD6 JUMPI PUSH2 0xBD5 PUSH2 0xAEE JUMP JUMPDEST JUMPDEST PUSH2 0xBE1 DUP5 DUP3 DUP6 PUSH2 0xB9A JUMP JUMPDEST POP SWAP4 SWAP3 POP POP POP JUMP JUMPDEST PUSH0 DUP3 PUSH1 0x1F DUP4 ADD SLT PUSH2 0xBFD JUMPI PUSH2 0xBFC PUSH2 0xAEA JUMP JUMPDEST JUMPDEST DUP2 CALLDATALOAD PUSH2 0xC0D DUP5 DUP3 PUSH1 0x20 DUP7 ADD PUSH2 0xBA8 JUMP JUMPDEST SWAP2 POP POP SWAP3 SWAP2 POP POP JUMP JUMPDEST PUSH0 PUSH1 0x20 DUP3 DUP5 SUB SLT ISZERO PUSH2 0xC2B JUMPI PUSH2 0xC2A PUSH2 0x6AF JUMP JUMPDEST JUMPDEST PUSH0 DUP3 ADD CALLDATALOAD PUSH8 0xFFFFFFFFFFFFFFFF DUP2 GT ISZERO PUSH2 0xC48 JUMPI PUSH2 0xC47 PUSH2 0x6B3 JUMP JUMPDEST JUMPDEST PUSH2 0xC54 DUP5 DUP3 DUP6 ADD PUSH2 0xBE9 JUMP JUMPDEST SWAP2 POP POP SWAP3 SWAP2 POP POP JUMP JUMPDEST PUSH32 0x4E487B7100000000000000000000000000000000000000000000000000000000 PUSH0 MSTORE PUSH1 0x22 PUSH1 0x4 MSTORE PUSH1 0x24 PUSH0 REVERT JUMPDEST PUSH0 PUSH1 0x2 DUP3 DIV SWAP1 POP PUSH1 0x1 DUP3 AND DUP1 PUSH2 0xCA1 JUMPI PUSH1 0x7F DUP3 AND SWAP2 POP JUMPDEST PUSH1 0x20 DUP3 LT DUP2 SUB PUSH2 0xCB4 JUMPI PUSH2 0xCB3 PUSH2 0xC5D JUMP JUMPDEST JUMPDEST POP SWAP2 SWAP1 POP JUMP JUMPDEST PUSH32 0x4E487B7100000000000000000000000000000000000000000000000000000000 PUSH0 MSTORE PUSH1 0x32 PUSH1 0x4 MSTORE PUSH1 0x24 PUSH0 REVERT JUMPDEST PUSH32 0x547765657420697320746F6F206C6F6E672062726F2100000000000000000000 PUSH0 DUP3 ADD MSTORE POP JUMP JUMPDEST PUSH0 PUSH2 0xD1B PUSH1 0x16 DUP4 PUSH2 0x79B JUMP JUMPDEST SWAP2 POP PUSH2 0xD26 DUP3 PUSH2 0xCE7 JUMP JUMPDEST PUSH1 0x20 DUP3 ADD SWAP1 POP SWAP2 SWAP1 POP JUMP JUMPDEST PUSH0 PUSH1 0x20 DUP3 ADD SWAP1 POP DUP2 DUP2 SUB PUSH0 DUP4 ADD MSTORE PUSH2 0xD48 DUP2 PUSH2 0xD0F JUMP JUMPDEST SWAP1 POP SWAP2 SWAP1 POP JUMP JUMPDEST PUSH0 DUP2 SWAP1 POP DUP2 PUSH0 MSTORE PUSH1 0x20 PUSH0 KECCAK256 SWAP1 POP SWAP2 SWAP1 POP JUMP JUMPDEST PUSH0 PUSH1 0x20 PUSH1 0x1F DUP4 ADD DIV SWAP1 POP SWAP2 SWAP1 POP JUMP JUMPDEST PUSH0 DUP3 DUP3 SHL SWAP1 POP SWAP3 SWAP2 POP POP JUMP JUMPDEST PUSH0 PUSH1 0x8 DUP4 MUL PUSH2 0xDAB PUSH32 0xFFFFFFFFFFFFFFFFFFFFFFFFFFFFFFFFFFFFFFFFFFFFFFFFFFFFFFFFFFFFFFFF DUP3 PUSH2 0xD70 JUMP JUMPDEST PUSH2 0xDB5 DUP7 DUP4 PUSH2 0xD70 JUMP JUMPDEST SWAP6 POP DUP1 NOT DUP5 AND SWAP4 POP DUP1 DUP7 AND DUP5 OR SWAP3 POP POP POP SWAP4 SWAP3 POP POP POP JUMP JUMPDEST PUSH0 DUP2 SWAP1 POP SWAP2 SWAP1 POP JUMP JUMPDEST PUSH0 PUSH2 0xDF0 PUSH2 0xDEB PUSH2 0xDE6 DUP5 PUSH2 0x711 JUMP JUMPDEST PUSH2 0xDCD JUMP JUMPDEST PUSH2 0x711 JUMP JUMPDEST SWAP1 POP SWAP2 SWAP1 POP JUMP JUMPDEST PUSH0 DUP2 SWAP1 POP SWAP2 SWAP1 POP JUMP JUMPDEST PUSH2 0xE09 DUP4 PUSH2 0xDD6 JUMP JUMPDEST PUSH2 0xE1D PUSH2 0xE15 DUP3 PUSH2 0xDF7 JUMP JUMPDEST DUP5 DUP5 SLOAD PUSH2 0xD7C JUMP JUMPDEST DUP3 SSTORE POP POP POP POP JUMP JUMPDEST PUSH0 SWAP1 JUMP JUMPDEST PUSH2 0xE31 PUSH2 0xE25 JUMP JUMPDEST PUSH2 0xE3C DUP2 DUP5 DUP5 PUSH2 0xE00 JUMP JUMPDEST POP POP POP JUMP JUMPDEST JUMPDEST DUP2 DUP2 LT ISZERO PUSH2 0xE5F JUMPI PUSH2 0xE54 PUSH0 DUP3 PUSH2 0xE29 JUMP JUMPDEST PUSH1 0x1 DUP2 ADD SWAP1 POP PUSH2 0xE42 JUMP JUMPDEST POP POP JUMP JUMPDEST PUSH1 0x1F DUP3 GT ISZERO PUSH2 0xEA4 JUMPI PUSH2 0xE75 DUP2 PUSH2 0xD4F JUMP JUMPDEST PUSH2 0xE7E DUP5 PUSH2 0xD61 JUMP JUMPDEST DUP2 ADD PUSH1 0x20 DUP6 LT ISZERO PUSH2 0xE8D JUMPI DUP2 SWAP1 POP JUMPDEST PUSH2 0xEA1 PUSH2 0xE99 DUP6 PUSH2 0xD61 JUMP JUMPDEST DUP4 ADD DUP3 PUSH2 0xE41 JUMP JUMPDEST POP POP JUMPDEST POP POP POP JUMP JUMPDEST PUSH0 DUP3 DUP3 SHR SWAP1 POP SWAP3 SWAP2 POP POP JUMP JUMPDEST PUSH0 PUSH2 0xEC4 PUSH0 NOT DUP5 PUSH1 0x8 MUL PUSH2 0xEA9 JUMP JUMPDEST NOT DUP1 DUP4 AND SWAP2 POP POP SWAP3 SWAP2 POP POP JUMP JUMPDEST PUSH0 PUSH2 0xEDC DUP4 DUP4 PUSH2 0xEB5 JUMP JUMPDEST SWAP2 POP DUP3 PUSH1 0x2 MUL DUP3 OR SWAP1 POP SWAP3 SWAP2 POP POP JUMP JUMPDEST PUSH2 0xEF5 DUP3 PUSH2 0x791 JUMP JUMPDEST PUSH8 0xFFFFFFFFFFFFFFFF DUP2 GT ISZERO PUSH2 0xF0E JUMPI PUSH2 0xF0D PUSH2 0xAF2 JUMP JUMPDEST JUMPDEST PUSH2 0xF18 DUP3 SLOAD PUSH2 0xC8A JUMP JUMPDEST PUSH2 0xF23 DUP3 DUP3 DUP6 PUSH2 0xE63 JUMP JUMPDEST PUSH0 PUSH1 0x20 SWAP1 POP PUSH1 0x1F DUP4 GT PUSH1 0x1 DUP2 EQ PUSH2 0xF54 JUMPI PUSH0 DUP5 ISZERO PUSH2 0xF42 JUMPI DUP3 DUP8 ADD MLOAD SWAP1 POP JUMPDEST PUSH2 0xF4C DUP6 DUP3 PUSH2 0xED1 JUMP JUMPDEST DUP7 SSTORE POP PUSH2 0xFB3 JUMP JUMPDEST PUSH1 0x1F NOT DUP5 AND PUSH2 0xF62 DUP7 PUSH2 0xD4F JUMP JUMPDEST PUSH0 JUMPDEST DUP3 DUP2 LT ISZERO PUSH2 0xF89 JUMPI DUP5 DUP10 ADD MLOAD DUP3 SSTORE PUSH1 0x1 DUP3 ADD SWAP2 POP PUSH1 0x20 DUP6 ADD SWAP5 POP PUSH1 0x20 DUP2 ADD SWAP1 POP PUSH2 0xF64 JUMP JUMPDEST DUP7 DUP4 LT ISZERO PUSH2 0xFA6 JUMPI DUP5 DUP10 ADD MLOAD PUSH2 0xFA2 PUSH1 0x1F DUP10 AND DUP3 PUSH2 0xEB5 JUMP JUMPDEST DUP4 SSTORE POP JUMPDEST PUSH1 0x1 PUSH1 0x2 DUP9 MUL ADD DUP9 SSTORE POP POP POP JUMPDEST POP POP POP POP POP POP JUMP INVALID LOG2 PUSH5 0x6970667358 0x22 SLT KECCAK256 PUSH24 0xBE22EEB77BB83706DF648216974CA10ED12FAE4C80059324 CODESIZE 0xDD SWAP3 PUSH0 SUB GT COINBASE PUSH5 0x736F6C6343 STOP ADDMOD BYTE STOP CALLER "
				},
				"gasEstimates": {
					"creation": {
						"codeDepositCost": "816200",
						"executionCost": "22954",
						"totalCost": "839154"
					},
					"external": {
						"MAX_TWEET_LENGTH()": "2446",
						"creatTweets(string)": "infinite",
						"getAllTweets(address)": "infinite",
						"getTweets(uint256)": "infinite",
						"tweets(address,uint256)": "infinite"
					}
				},
				"methodIdentifiers": {
					"MAX_TWEET_LENGTH()": "6eb10797",
					"creatTweets(string)": "f86d791b",
					"getAllTweets(address)": "12e7ee1c",
					"getTweets(uint256)": "ed9bb8d7",
					"tweets(address,uint256)": "05a1b4a9"
				}
			},
			"storageLayout": {
				"storage": [
					{
						"astId": 4,
						"contract": "contracts/Require.sol:Twitter",
						"label": "MAX_TWEET_LENGTH",
						"offset": 0,
						"slot": "0",
						"type": "t_uint256"
					},
					{
						"astId": 19,
						"contract": "contracts/Require.sol:Twitter",
						"label": "tweets",
						"offset": 0,
						"slot": "1",
						"type": "t_mapping(t_address,t_array(t_struct(TwitterStruct)13_storage)dyn_storage)"
					}
				],
				"types": {
					"t_address": {
						"encoding": "inplace",
						"label": "address",
						"numberOfBytes": "20"
					},
					"t_array(t_struct(TwitterStruct)13_storage)dyn_storage": {
						"base": "t_struct(TwitterStruct)13_storage",
						"encoding": "dynamic_array",
						"label": "struct Twitter.TwitterStruct[]",
						"numberOfBytes": "32"
					},
					"t_mapping(t_address,t_array(t_struct(TwitterStruct)13_storage)dyn_storage)": {
						"encoding": "mapping",
						"key": "t_address",
						"label": "mapping(address => struct Twitter.TwitterStruct[])",
						"numberOfBytes": "32",
						"value": "t_array(t_struct(TwitterStruct)13_storage)dyn_storage"
					},
					"t_string_storage": {
						"encoding": "bytes",
						"label": "string",
						"numberOfBytes": "32"
					},
					"t_struct(TwitterStruct)13_storage": {
						"encoding": "inplace",
						"label": "struct Twitter.TwitterStruct",
						"members": [
							{
								"astId": 6,
								"contract": "contracts/Require.sol:Twitter",
								"label": "author",
								"offset": 0,
								"slot": "0",
								"type": "t_address"
							},
							{
								"astId": 8,
								"contract": "contracts/Require.sol:Twitter",
								"label": "content",
								"offset": 0,
								"slot": "1",
								"type": "t_string_storage"
							},
							{
								"astId": 10,
								"contract": "contracts/Require.sol:Twitter",
								"label": "timestamp",
								"offset": 0,
								"slot": "2",
								"type": "t_uint256"
							},
							{
								"astId": 12,
								"contract": "contracts/Require.sol:Twitter",
								"label": "likes",
								"offset": 0,
								"slot": "3",
								"type": "t_uint256"
							}
						],
						"numberOfBytes": "128"
					},
					"t_uint256": {
						"encoding": "inplace",
						"label": "uint256",
						"numberOfBytes": "32"
					}
				}
			},
			"userdoc": {
				"kind": "user",
				"methods": {},
				"version": 1
			}
		}
	}
}