{
	"contracts/practice.sol": {
		"Twitter": {
			"abi": [
				{
					"inputs": [],
					"stateMutability": "nonpayable",
					"type": "constructor"
				},
				{
					"anonymous": false,
					"inputs": [
						{
							"indexed": false,
							"internalType": "uint256",
							"name": "id",
							"type": "uint256"
						},
						{
							"indexed": false,
							"internalType": "address",
							"name": "author",
							"type": "address"
						},
						{
							"indexed": false,
							"internalType": "string",
							"name": "content",
							"type": "string"
						},
						{
							"indexed": false,
							"internalType": "uint256",
							"name": "timestamp",
							"type": "uint256"
						}
					],
					"name": "TweetCreated",
					"type": "event"
				},
				{
					"anonymous": false,
					"inputs": [
						{
							"indexed": false,
							"internalType": "address",
							"name": "disLiker",
							"type": "address"
						},
						{
							"indexed": false,
							"internalType": "address",
							"name": "tweetAuthor",
							"type": "address"
						},
						{
							"indexed": false,
							"internalType": "uint256",
							"name": "tweetId",
							"type": "uint256"
						},
						{
							"indexed": false,
							"internalType": "uint256",
							"name": "newDisikeCount",
							"type": "uint256"
						}
					],
					"name": "TweetDisliked",
					"type": "event"
				},
				{
					"anonymous": false,
					"inputs": [
						{
							"indexed": false,
							"internalType": "address",
							"name": "liker",
							"type": "address"
						},
						{
							"indexed": false,
							"internalType": "address",
							"name": "tweetAuthor",
							"type": "address"
						},
						{
							"indexed": false,
							"internalType": "uint256",
							"name": "tweetId",
							"type": "uint256"
						},
						{
							"indexed": false,
							"internalType": "uint256",
							"name": "newLikeCount",
							"type": "uint256"
						}
					],
					"name": "TweetLiked",
					"type": "event"
				},
				{
					"inputs": [],
					"name": "MAX_TWEET_LENGTH",
					"outputs": [
						{
							"internalType": "uint256",
							"name": "",
							"type": "uint256"
						}
					],
					"stateMutability": "view",
					"type": "function"
				},
				{
					"inputs": [],
					"name": "_owner",
					"outputs": [
						{
							"internalType": "address",
							"name": "",
							"type": "address"
						}
					],
					"stateMutability": "view",
					"type": "function"
				},
				{
					"inputs": [
						{
							"internalType": "uint256",
							"name": "newTweetLength",
							"type": "uint256"
						}
					],
					"name": "changeTweetLength",
					"outputs": [],
					"stateMutability": "nonpayable",
					"type": "function"
				},
				{
					"inputs": [
						{
							"internalType": "string",
							"name": "_tweet",
							"type": "string"
						}
					],
					"name": "createTweet",
					"outputs": [],
					"stateMutability": "nonpayable",
					"type": "function"
				},
				{
					"inputs": [
						{
							"internalType": "address",
							"name": "author",
							"type": "address"
						},
						{
							"internalType": "uint256",
							"name": "id",
							"type": "uint256"
						}
					],
					"name": "dislikeTweet",
					"outputs": [],
					"stateMutability": "nonpayable",
					"type": "function"
				},
				{
					"inputs": [],
					"name": "getAllTweets",
					"outputs": [
						{
							"components": [
								{
									"internalType": "uint256",
									"name": "id",
									"type": "uint256"
								},
								{
									"internalType": "address",
									"name": "author",
									"type": "address"
								},
								{
									"internalType": "string",
									"name": "content",
									"type": "string"
								},
								{
									"internalType": "uint256",
									"name": "timestamp",
									"type": "uint256"
								},
								{
									"internalType": "uint256",
									"name": "likes",
									"type": "uint256"
								}
							],
							"internalType": "struct Twitter.Tweet[]",
							"name": "",
							"type": "tuple[]"
						}
					],
					"stateMutability": "view",
					"type": "function"
				},
				{
					"inputs": [
						{
							"internalType": "uint256",
							"name": "_i",
							"type": "uint256"
						}
					],
					"name": "getTweet",
					"outputs": [
						{
							"components": [
								{
									"internalType": "uint256",
									"name": "id",
									"type": "uint256"
								},
								{
									"internalType": "address",
									"name": "author",
									"type": "address"
								},
								{
									"internalType": "string",
									"name": "content",
									"type": "string"
								},
								{
									"internalType": "uint256",
									"name": "timestamp",
									"type": "uint256"
								},
								{
									"internalType": "uint256",
									"name": "likes",
									"type": "uint256"
								}
							],
							"internalType": "struct Twitter.Tweet",
							"name": "",
							"type": "tuple"
						}
					],
					"stateMutability": "view",
					"type": "function"
				},
				{
					"inputs": [
						{
							"internalType": "address",
							"name": "author",
							"type": "address"
						},
						{
							"internalType": "uint256",
							"name": "id",
							"type": "uint256"
						}
					],
					"name": "likedTweet",
					"outputs": [],
					"stateMutability": "nonpayable",
					"type": "function"
				},
				{
					"inputs": [
						{
							"internalType": "address",
							"name": "",
							"type": "address"
						},
						{
							"internalType": "uint256",
							"name": "",
							"type": "uint256"
						}
					],
					"name": "tweets",
					"outputs": [
						{
							"internalType": "uint256",
							"name": "id",
							"type": "uint256"
						},
						{
							"internalType": "address",
							"name": "author",
							"type": "address"
						},
						{
							"internalType": "string",
							"name": "content",
							"type": "string"
						},
						{
							"internalType": "uint256",
							"name": "timestamp",
							"type": "uint256"
						},
						{
							"internalType": "uint256",
							"name": "likes",
							"type": "uint256"
						}
					],
					"stateMutability": "view",
					"type": "function"
				}
			],
			"devdoc": {
				"kind": "dev",
				"methods": {},
				"version": 1
			},
			"evm": {
				"assembly": "    /* \"contracts/practice.sol\":61:2233  contract Twitter{... */\n  mstore(0x40, 0x80)\n    /* \"contracts/practice.sol\":115:118  200 */\n  0xc8\n    /* \"contracts/practice.sol\":84:118  uint public MAX_TWEET_LENGTH = 200 */\n  0x00\n  sstore\n    /* \"contracts/practice.sol\":596:645  constructor(){... */\n  callvalue\n  dup1\n  iszero\n  tag_1\n  jumpi\n  0x00\n  dup1\n  revert\ntag_1:\n  pop\n    /* \"contracts/practice.sol\":627:637  msg.sender */\n  caller\n    /* \"contracts/practice.sol\":620:626  _owner */\n  0x01\n  0x00\n    /* \"contracts/practice.sol\":620:637  _owner=msg.sender */\n  0x0100\n  exp\n  dup2\n  sload\n  dup2\n  0xffffffffffffffffffffffffffffffffffffffff\n  mul\n  not\n  and\n  swap1\n  dup4\n  0xffffffffffffffffffffffffffffffffffffffff\n  and\n  mul\n  or\n  swap1\n  sstore\n  pop\n    /* \"contracts/practice.sol\":61:2233  contract Twitter{... */\n  dataSize(sub_0)\n  dup1\n  dataOffset(sub_0)\n  0x00\n  codecopy\n  0x00\n  return\nstop\n\nsub_0: assembly {\n        /* \"contracts/practice.sol\":61:2233  contract Twitter{... */\n      mstore(0x40, 0x80)\n      callvalue\n      dup1\n      iszero\n      tag_1\n      jumpi\n      0x00\n      dup1\n      revert\n    tag_1:\n      pop\n      jumpi(tag_2, lt(calldatasize, 0x04))\n      shr(0xe0, calldataload(0x00))\n      dup1\n      0x888a7880\n      gt\n      tag_12\n      jumpi\n      dup1\n      0x888a7880\n      eq\n      tag_7\n      jumpi\n      dup1\n      0xa0d96b6f\n      eq\n      tag_8\n      jumpi\n      dup1\n      0xae775e95\n      eq\n      tag_9\n      jumpi\n      dup1\n      0xb2bdfa7b\n      eq\n      tag_10\n      jumpi\n      dup1\n      0xc3ad5ecb\n      eq\n      tag_11\n      jumpi\n      jump(tag_2)\n    tag_12:\n      dup1\n      0x05a1b4a9\n      eq\n      tag_3\n      jumpi\n      dup1\n      0x53256135\n      eq\n      tag_4\n      jumpi\n      dup1\n      0x6eb10797\n      eq\n      tag_5\n      jumpi\n      dup1\n      0x7c9cd2bc\n      eq\n      tag_6\n      jumpi\n    tag_2:\n      0x00\n      dup1\n      revert\n        /* \"contracts/practice.sol\":651:690  mapping(address=>Tweet[]) public tweets */\n    tag_3:\n      tag_13\n      0x04\n      dup1\n      calldatasize\n      sub\n      dup2\n      add\n      swap1\n      tag_14\n      swap2\n      swap1\n      tag_15\n      jump\t// in\n    tag_14:\n      tag_16\n      jump\t// in\n    tag_13:\n      mload(0x40)\n      tag_17\n      swap6\n      swap5\n      swap4\n      swap3\n      swap2\n      swap1\n      tag_18\n      jump\t// in\n    tag_17:\n      mload(0x40)\n      dup1\n      swap2\n      sub\n      swap1\n      return\n        /* \"contracts/practice.sol\":1311:1415  function getAllTweets() public view returns (Tweet[] memory){... */\n    tag_4:\n      tag_19\n      tag_20\n      jump\t// in\n    tag_19:\n      mload(0x40)\n      tag_21\n      swap2\n      swap1\n      tag_22\n      jump\t// in\n    tag_21:\n      mload(0x40)\n      dup1\n      swap2\n      sub\n      swap1\n      return\n        /* \"contracts/practice.sol\":84:118  uint public MAX_TWEET_LENGTH = 200 */\n    tag_5:\n      tag_23\n      tag_24\n      jump\t// in\n    tag_23:\n      mload(0x40)\n      tag_25\n      swap2\n      swap1\n      tag_26\n      jump\t// in\n    tag_25:\n      mload(0x40)\n      dup1\n      swap2\n      sub\n      swap1\n      return\n        /* \"contracts/practice.sol\":810:1305  function createTweet(string memory _tweet) public {... */\n    tag_6:\n      tag_27\n      0x04\n      dup1\n      calldatasize\n      sub\n      dup2\n      add\n      swap1\n      tag_28\n      swap2\n      swap1\n      tag_29\n      jump\t// in\n    tag_28:\n      tag_30\n      jump\t// in\n    tag_27:\n      stop\n        /* \"contracts/practice.sol\":2110:2226  function changeTweetLength(uint newTweetLength) public onlyOwner{... */\n    tag_7:\n      tag_31\n      0x04\n      dup1\n      calldatasize\n      sub\n      dup2\n      add\n      swap1\n      tag_32\n      swap2\n      swap1\n      tag_33\n      jump\t// in\n    tag_32:\n      tag_34\n      jump\t// in\n    tag_31:\n      stop\n        /* \"contracts/practice.sol\":1540:1783  function likedTweet(address author, uint256 id) external {... */\n    tag_8:\n      tag_35\n      0x04\n      dup1\n      calldatasize\n      sub\n      dup2\n      add\n      swap1\n      tag_36\n      swap2\n      swap1\n      tag_15\n      jump\t// in\n    tag_36:\n      tag_37\n      jump\t// in\n    tag_35:\n      stop\n        /* \"contracts/practice.sol\":1789:2104  function dislikeTweet(address author, uint256 id) external {... */\n    tag_9:\n      tag_38\n      0x04\n      dup1\n      calldatasize\n      sub\n      dup2\n      add\n      swap1\n      tag_39\n      swap2\n      swap1\n      tag_15\n      jump\t// in\n    tag_39:\n      tag_40\n      jump\t// in\n    tag_38:\n      stop\n        /* \"contracts/practice.sol\":274:295  address public _owner */\n    tag_10:\n      tag_41\n      tag_42\n      jump\t// in\n    tag_41:\n      mload(0x40)\n      tag_43\n      swap2\n      swap1\n      tag_44\n      jump\t// in\n    tag_43:\n      mload(0x40)\n      dup1\n      swap2\n      sub\n      swap1\n      return\n        /* \"contracts/practice.sol\":1421:1534  function getTweet(uint256 _i) public view returns (Tweet memory) {... */\n    tag_11:\n      tag_45\n      0x04\n      dup1\n      calldatasize\n      sub\n      dup2\n      add\n      swap1\n      tag_46\n      swap2\n      swap1\n      tag_33\n      jump\t// in\n    tag_46:\n      tag_47\n      jump\t// in\n    tag_45:\n      mload(0x40)\n      tag_48\n      swap2\n      swap1\n      tag_49\n      jump\t// in\n    tag_48:\n      mload(0x40)\n      dup1\n      swap2\n      sub\n      swap1\n      return\n        /* \"contracts/practice.sol\":651:690  mapping(address=>Tweet[]) public tweets */\n    tag_16:\n      mstore(0x20, 0x02)\n      dup2\n      0x00\n      mstore\n      keccak256(0x00, 0x40)\n      dup2\n      dup2\n      sload\n      dup2\n      lt\n      tag_50\n      jumpi\n      0x00\n      dup1\n      revert\n    tag_50:\n      swap1\n      0x00\n      mstore\n      keccak256(0x00, 0x20)\n      swap1\n      0x05\n      mul\n      add\n      0x00\n      swap2\n      pop\n      swap2\n      pop\n      pop\n      dup1\n      0x00\n      add\n      sload\n      swap1\n      dup1\n      0x01\n      add\n      0x00\n      swap1\n      sload\n      swap1\n      0x0100\n      exp\n      swap1\n      div\n      0xffffffffffffffffffffffffffffffffffffffff\n      and\n      swap1\n      dup1\n      0x02\n      add\n      dup1\n      sload\n      tag_52\n      swap1\n      tag_53\n      jump\t// in\n    tag_52:\n      dup1\n      0x1f\n      add\n      0x20\n      dup1\n      swap2\n      div\n      mul\n      0x20\n      add\n      mload(0x40)\n      swap1\n      dup2\n      add\n      0x40\n      mstore\n      dup1\n      swap3\n      swap2\n      swap1\n      dup2\n      dup2\n      mstore\n      0x20\n      add\n      dup3\n      dup1\n      sload\n      tag_54\n      swap1\n      tag_53\n      jump\t// in\n    tag_54:\n      dup1\n      iszero\n      tag_55\n      jumpi\n      dup1\n      0x1f\n      lt\n      tag_56\n      jumpi\n      0x0100\n      dup1\n      dup4\n      sload\n      div\n      mul\n      dup4\n      mstore\n      swap2\n      0x20\n      add\n      swap2\n      jump(tag_55)\n    tag_56:\n      dup3\n      add\n      swap2\n      swap1\n      0x00\n      mstore\n      keccak256(0x00, 0x20)\n      swap1\n    tag_57:\n      dup2\n      sload\n      dup2\n      mstore\n      swap1\n      0x01\n      add\n      swap1\n      0x20\n      add\n      dup1\n      dup4\n      gt\n      tag_57\n      jumpi\n      dup3\n      swap1\n      sub\n      0x1f\n      and\n      dup3\n      add\n      swap2\n    tag_55:\n      pop\n      pop\n      pop\n      pop\n      pop\n      swap1\n      dup1\n      0x03\n      add\n      sload\n      swap1\n      dup1\n      0x04\n      add\n      sload\n      swap1\n      pop\n      dup6\n      jump\t// out\n        /* \"contracts/practice.sol\":1311:1415  function getAllTweets() public view returns (Tweet[] memory){... */\n    tag_20:\n        /* \"contracts/practice.sol\":1356:1370  Tweet[] memory */\n      0x60\n        /* \"contracts/practice.sol\":1389:1395  tweets */\n      0x02\n        /* \"contracts/practice.sol\":1389:1407  tweets[msg.sender] */\n      0x00\n        /* \"contracts/practice.sol\":1396:1406  msg.sender */\n      caller\n        /* \"contracts/practice.sol\":1389:1407  tweets[msg.sender] */\n      0xffffffffffffffffffffffffffffffffffffffff\n      and\n      0xffffffffffffffffffffffffffffffffffffffff\n      and\n      dup2\n      mstore\n      0x20\n      add\n      swap1\n      dup2\n      mstore\n      0x20\n      add\n      0x00\n      keccak256\n        /* \"contracts/practice.sol\":1382:1407  return tweets[msg.sender] */\n      dup1\n      sload\n      dup1\n      0x20\n      mul\n      0x20\n      add\n      mload(0x40)\n      swap1\n      dup2\n      add\n      0x40\n      mstore\n      dup1\n      swap3\n      swap2\n      swap1\n      dup2\n      dup2\n      mstore\n      0x20\n      add\n      0x00\n      swap1\n    tag_59:\n      dup3\n      dup3\n      lt\n      iszero\n      tag_60\n      jumpi\n      dup4\n      dup3\n      swap1\n      0x00\n      mstore\n      keccak256(0x00, 0x20)\n      swap1\n      0x05\n      mul\n      add\n      mload(0x40)\n      dup1\n      0xa0\n      add\n      0x40\n      mstore\n      swap1\n      dup2\n      0x00\n      dup3\n      add\n      sload\n      dup2\n      mstore\n      0x20\n      add\n      0x01\n      dup3\n      add\n      0x00\n      swap1\n      sload\n      swap1\n      0x0100\n      exp\n      swap1\n      div\n      0xffffffffffffffffffffffffffffffffffffffff\n      and\n      0xffffffffffffffffffffffffffffffffffffffff\n      and\n      0xffffffffffffffffffffffffffffffffffffffff\n      and\n      dup2\n      mstore\n      0x20\n      add\n      0x02\n      dup3\n      add\n      dup1\n      sload\n      tag_62\n      swap1\n      tag_53\n      jump\t// in\n    tag_62:\n      dup1\n      0x1f\n      add\n      0x20\n      dup1\n      swap2\n      div\n      mul\n      0x20\n      add\n      mload(0x40)\n      swap1\n      dup2\n      add\n      0x40\n      mstore\n      dup1\n      swap3\n      swap2\n      swap1\n      dup2\n      dup2\n      mstore\n      0x20\n      add\n      dup3\n      dup1\n      sload\n      tag_63\n      swap1\n      tag_53\n      jump\t// in\n    tag_63:\n      dup1\n      iszero\n      tag_64\n      jumpi\n      dup1\n      0x1f\n      lt\n      tag_65\n      jumpi\n      0x0100\n      dup1\n      dup4\n      sload\n      div\n      mul\n      dup4\n      mstore\n      swap2\n      0x20\n      add\n      swap2\n      jump(tag_64)\n    tag_65:\n      dup3\n      add\n      swap2\n      swap1\n      0x00\n      mstore\n      keccak256(0x00, 0x20)\n      swap1\n    tag_66:\n      dup2\n      sload\n      dup2\n      mstore\n      swap1\n      0x01\n      add\n      swap1\n      0x20\n      add\n      dup1\n      dup4\n      gt\n      tag_66\n      jumpi\n      dup3\n      swap1\n      sub\n      0x1f\n      and\n      dup3\n      add\n      swap2\n    tag_64:\n      pop\n      pop\n      pop\n      pop\n      pop\n      dup2\n      mstore\n      0x20\n      add\n      0x03\n      dup3\n      add\n      sload\n      dup2\n      mstore\n      0x20\n      add\n      0x04\n      dup3\n      add\n      sload\n      dup2\n      mstore\n      pop\n      pop\n      dup2\n      mstore\n      0x20\n      add\n      swap1\n      0x01\n      add\n      swap1\n      jump(tag_59)\n    tag_60:\n      pop\n      pop\n      pop\n      pop\n      swap1\n      pop\n        /* \"contracts/practice.sol\":1311:1415  function getAllTweets() public view returns (Tweet[] memory){... */\n      swap1\n      jump\t// out\n        /* \"contracts/practice.sol\":84:118  uint public MAX_TWEET_LENGTH = 200 */\n    tag_24:\n      sload(0x00)\n      dup2\n      jump\t// out\n        /* \"contracts/practice.sol\":810:1305  function createTweet(string memory _tweet) public {... */\n    tag_30:\n        /* \"contracts/practice.sol\":903:919  MAX_TWEET_LENGTH */\n      sload(0x00)\n        /* \"contracts/practice.sol\":885:891  _tweet */\n      dup2\n        /* \"contracts/practice.sol\":879:899  bytes(_tweet).length */\n      mload\n        /* \"contracts/practice.sol\":879:919  bytes(_tweet).length >= MAX_TWEET_LENGTH */\n      lt\n      iszero\n        /* \"contracts/practice.sol\":871:941  require(bytes(_tweet).length >= MAX_TWEET_LENGTH,\"Tweet is too long!\") */\n      tag_68\n      jumpi\n      mload(0x40)\n      0x08c379a000000000000000000000000000000000000000000000000000000000\n      dup2\n      mstore\n      0x04\n      add\n      tag_69\n      swap1\n      tag_70\n      jump\t// in\n    tag_69:\n      mload(0x40)\n      dup1\n      swap2\n      sub\n      swap1\n      revert\n    tag_68:\n        /* \"contracts/practice.sol\":952:973  Tweet memory newTweet */\n      0x00\n        /* \"contracts/practice.sol\":976:1160  Tweet({... */\n      mload(0x40)\n      dup1\n      0xa0\n      add\n      0x40\n      mstore\n      dup1\n        /* \"contracts/practice.sol\":1000:1006  tweets */\n      0x02\n        /* \"contracts/practice.sol\":1000:1018  tweets[msg.sender] */\n      0x00\n        /* \"contracts/practice.sol\":1007:1017  msg.sender */\n      caller\n        /* \"contracts/practice.sol\":1000:1018  tweets[msg.sender] */\n      0xffffffffffffffffffffffffffffffffffffffff\n      and\n      0xffffffffffffffffffffffffffffffffffffffff\n      and\n      dup2\n      mstore\n      0x20\n      add\n      swap1\n      dup2\n      mstore\n      0x20\n      add\n      0x00\n      keccak256\n        /* \"contracts/practice.sol\":1000:1025  tweets[msg.sender].length */\n      dup1\n      sload\n      swap1\n      pop\n        /* \"contracts/practice.sol\":976:1160  Tweet({... */\n      dup2\n      mstore\n      0x20\n      add\n        /* \"contracts/practice.sol\":1047:1057  msg.sender */\n      caller\n        /* \"contracts/practice.sol\":976:1160  Tweet({... */\n      0xffffffffffffffffffffffffffffffffffffffff\n      and\n      dup2\n      mstore\n      0x20\n      add\n        /* \"contracts/practice.sol\":1080:1086  _tweet */\n      dup4\n        /* \"contracts/practice.sol\":976:1160  Tweet({... */\n      dup2\n      mstore\n      0x20\n      add\n        /* \"contracts/practice.sol\":1111:1126  block.timestamp */\n      timestamp\n        /* \"contracts/practice.sol\":976:1160  Tweet({... */\n      dup2\n      mstore\n      0x20\n      add\n        /* \"contracts/practice.sol\":1147:1148  0 */\n      0x00\n        /* \"contracts/practice.sol\":976:1160  Tweet({... */\n      dup2\n      mstore\n      pop\n        /* \"contracts/practice.sol\":952:1160  Tweet memory newTweet = Tweet({... */\n      swap1\n      pop\n        /* \"contracts/practice.sol\":1171:1177  tweets */\n      0x02\n        /* \"contracts/practice.sol\":1171:1189  tweets[msg.sender] */\n      0x00\n        /* \"contracts/practice.sol\":1178:1188  msg.sender */\n      caller\n        /* \"contracts/practice.sol\":1171:1189  tweets[msg.sender] */\n      0xffffffffffffffffffffffffffffffffffffffff\n      and\n      0xffffffffffffffffffffffffffffffffffffffff\n      and\n      dup2\n      mstore\n      0x20\n      add\n      swap1\n      dup2\n      mstore\n      0x20\n      add\n      0x00\n      keccak256\n        /* \"contracts/practice.sol\":1195:1203  newTweet */\n      dup2\n        /* \"contracts/practice.sol\":1171:1204  tweets[msg.sender].push(newTweet) */\n      swap1\n      dup1\n      0x01\n      dup2\n      sload\n      add\n      dup1\n      dup3\n      sstore\n      dup1\n      swap2\n      pop\n      pop\n      0x01\n      swap1\n      sub\n      swap1\n      0x00\n      mstore\n      keccak256(0x00, 0x20)\n      swap1\n      0x05\n      mul\n      add\n      0x00\n      swap1\n      swap2\n      swap1\n      swap2\n      swap1\n      swap2\n      pop\n      0x00\n      dup3\n      add\n      mload\n      dup2\n      0x00\n      add\n      sstore\n      0x20\n      dup3\n      add\n      mload\n      dup2\n      0x01\n      add\n      exp(0x0100, 0x00)\n      dup2\n      sload\n      dup2\n      0xffffffffffffffffffffffffffffffffffffffff\n      mul\n      not\n      and\n      swap1\n      dup4\n      0xffffffffffffffffffffffffffffffffffffffff\n      and\n      mul\n      or\n      swap1\n      sstore\n      pop\n      0x40\n      dup3\n      add\n      mload\n      dup2\n      0x02\n      add\n      swap1\n      dup2\n      tag_72\n      swap2\n      swap1\n      tag_73\n      jump\t// in\n    tag_72:\n      pop\n      0x60\n      dup3\n      add\n      mload\n      dup2\n      0x03\n      add\n      sstore\n      0x80\n      dup3\n      add\n      mload\n      dup2\n      0x04\n      add\n      sstore\n      pop\n      pop\n        /* \"contracts/practice.sol\":1220:1297  TweetCreated(newTweet.id,newTweet.author,newTweet.content,newTweet.timestamp) */\n      0x16fd3c13e9d46923e0a8bce11c7b473ec508a72e6c96cd2404b29ce972afc29e\n        /* \"contracts/practice.sol\":1233:1241  newTweet */\n      dup2\n        /* \"contracts/practice.sol\":1233:1244  newTweet.id */\n      0x00\n      add\n      mload\n        /* \"contracts/practice.sol\":1245:1253  newTweet */\n      dup3\n        /* \"contracts/practice.sol\":1245:1260  newTweet.author */\n      0x20\n      add\n      mload\n        /* \"contracts/practice.sol\":1261:1269  newTweet */\n      dup4\n        /* \"contracts/practice.sol\":1261:1277  newTweet.content */\n      0x40\n      add\n      mload\n        /* \"contracts/practice.sol\":1278:1286  newTweet */\n      dup5\n        /* \"contracts/practice.sol\":1278:1296  newTweet.timestamp */\n      0x60\n      add\n      mload\n        /* \"contracts/practice.sol\":1220:1297  TweetCreated(newTweet.id,newTweet.author,newTweet.content,newTweet.timestamp) */\n      mload(0x40)\n      tag_74\n      swap5\n      swap4\n      swap3\n      swap2\n      swap1\n      tag_75\n      jump\t// in\n    tag_74:\n      mload(0x40)\n      dup1\n      swap2\n      sub\n      swap1\n      log1\n        /* \"contracts/practice.sol\":860:1305  {... */\n      pop\n        /* \"contracts/practice.sol\":810:1305  function createTweet(string memory _tweet) public {... */\n      pop\n      jump\t// out\n        /* \"contracts/practice.sol\":2110:2226  function changeTweetLength(uint newTweetLength) public onlyOwner{... */\n    tag_34:\n        /* \"contracts/practice.sol\":748:758  msg.sender */\n      caller\n        /* \"contracts/practice.sol\":738:758  _owner == msg.sender */\n      0xffffffffffffffffffffffffffffffffffffffff\n      and\n        /* \"contracts/practice.sol\":738:744  _owner */\n      0x01\n      0x00\n      swap1\n      sload\n      swap1\n      0x0100\n      exp\n      swap1\n      div\n      0xffffffffffffffffffffffffffffffffffffffff\n      and\n        /* \"contracts/practice.sol\":738:758  _owner == msg.sender */\n      0xffffffffffffffffffffffffffffffffffffffff\n      and\n      eq\n        /* \"contracts/practice.sol\":730:784  require(_owner == msg.sender,\"You are not registered\") */\n      tag_77\n      jumpi\n      mload(0x40)\n      0x08c379a000000000000000000000000000000000000000000000000000000000\n      dup2\n      mstore\n      0x04\n      add\n      tag_78\n      swap1\n      tag_79\n      jump\t// in\n    tag_78:\n      mload(0x40)\n      dup1\n      swap2\n      sub\n      swap1\n      revert\n    tag_77:\n        /* \"contracts/practice.sol\":2204:2218  newTweetLength */\n      dup1\n        /* \"contracts/practice.sol\":2185:2201  MAX_TWEET_LENGTH */\n      0x00\n        /* \"contracts/practice.sol\":2185:2218  MAX_TWEET_LENGTH = newTweetLength */\n      dup2\n      swap1\n      sstore\n      pop\n        /* \"contracts/practice.sol\":2110:2226  function changeTweetLength(uint newTweetLength) public onlyOwner{... */\n      pop\n      jump\t// out\n        /* \"contracts/practice.sol\":1540:1783  function likedTweet(address author, uint256 id) external {... */\n    tag_37:\n        /* \"contracts/practice.sol\":1639:1641  id */\n      dup1\n        /* \"contracts/practice.sol\":1616:1622  tweets */\n      0x02\n        /* \"contracts/practice.sol\":1616:1630  tweets[author] */\n      0x00\n        /* \"contracts/practice.sol\":1623:1629  author */\n      dup5\n        /* \"contracts/practice.sol\":1616:1630  tweets[author] */\n      0xffffffffffffffffffffffffffffffffffffffff\n      and\n      0xffffffffffffffffffffffffffffffffffffffff\n      and\n      dup2\n      mstore\n      0x20\n      add\n      swap1\n      dup2\n      mstore\n      0x20\n      add\n      0x00\n      keccak256\n        /* \"contracts/practice.sol\":1631:1633  id */\n      dup3\n        /* \"contracts/practice.sol\":1616:1634  tweets[author][id] */\n      dup2\n      sload\n      dup2\n      lt\n      tag_82\n      jumpi\n      tag_83\n      tag_84\n      jump\t// in\n    tag_83:\n    tag_82:\n      swap1\n      0x00\n      mstore\n      keccak256(0x00, 0x20)\n      swap1\n      0x05\n      mul\n      add\n        /* \"contracts/practice.sol\":1616:1637  tweets[author][id].id */\n      0x00\n      add\n      sload\n        /* \"contracts/practice.sol\":1616:1641  tweets[author][id].id==id */\n      eq\n        /* \"contracts/practice.sol\":1608:1665  require(tweets[author][id].id==id,\"Tweet does not exist\") */\n      tag_86\n      jumpi\n      mload(0x40)\n      0x08c379a000000000000000000000000000000000000000000000000000000000\n      dup2\n      mstore\n      0x04\n      add\n      tag_87\n      swap1\n      tag_88\n      jump\t// in\n    tag_87:\n      mload(0x40)\n      dup1\n      swap2\n      sub\n      swap1\n      revert\n    tag_86:\n        /* \"contracts/practice.sol\":1676:1682  tweets */\n      0x02\n        /* \"contracts/practice.sol\":1676:1690  tweets[author] */\n      0x00\n        /* \"contracts/practice.sol\":1683:1689  author */\n      dup4\n        /* \"contracts/practice.sol\":1676:1690  tweets[author] */\n      0xffffffffffffffffffffffffffffffffffffffff\n      and\n      0xffffffffffffffffffffffffffffffffffffffff\n      and\n      dup2\n      mstore\n      0x20\n      add\n      swap1\n      dup2\n      mstore\n      0x20\n      add\n      0x00\n      keccak256\n        /* \"contracts/practice.sol\":1691:1693  id */\n      dup2\n        /* \"contracts/practice.sol\":1676:1694  tweets[author][id] */\n      dup2\n      sload\n      dup2\n      lt\n      tag_89\n      jumpi\n      tag_90\n      tag_84\n      jump\t// in\n    tag_90:\n    tag_89:\n      swap1\n      0x00\n      mstore\n      keccak256(0x00, 0x20)\n      swap1\n      0x05\n      mul\n      add\n        /* \"contracts/practice.sol\":1676:1700  tweets[author][id].likes */\n      0x04\n      add\n      0x00\n        /* \"contracts/practice.sol\":1676:1702  tweets[author][id].likes++ */\n      dup2\n      sload\n      dup1\n      swap3\n      swap2\n      swap1\n      tag_92\n      swap1\n      tag_93\n      jump\t// in\n    tag_92:\n      swap2\n      swap1\n      pop\n      sstore\n      pop\n        /* \"contracts/practice.sol\":1718:1775  TweetLiked(msg.sender,author,id,tweets[author][id].likes) */\n      0xe8a76fc0f16d11a00d1e93b689b63d76cf60af914dd3d915375dc41d01a0c3c8\n        /* \"contracts/practice.sol\":1729:1739  msg.sender */\n      caller\n        /* \"contracts/practice.sol\":1740:1746  author */\n      dup4\n        /* \"contracts/practice.sol\":1747:1749  id */\n      dup4\n        /* \"contracts/practice.sol\":1750:1756  tweets */\n      0x02\n        /* \"contracts/practice.sol\":1750:1764  tweets[author] */\n      0x00\n        /* \"contracts/practice.sol\":1757:1763  author */\n      dup8\n        /* \"contracts/practice.sol\":1750:1764  tweets[author] */\n      0xffffffffffffffffffffffffffffffffffffffff\n      and\n      0xffffffffffffffffffffffffffffffffffffffff\n      and\n      dup2\n      mstore\n      0x20\n      add\n      swap1\n      dup2\n      mstore\n      0x20\n      add\n      0x00\n      keccak256\n        /* \"contracts/practice.sol\":1765:1767  id */\n      dup6\n        /* \"contracts/practice.sol\":1750:1768  tweets[author][id] */\n      dup2\n      sload\n      dup2\n      lt\n      tag_94\n      jumpi\n      tag_95\n      tag_84\n      jump\t// in\n    tag_95:\n    tag_94:\n      swap1\n      0x00\n      mstore\n      keccak256(0x00, 0x20)\n      swap1\n      0x05\n      mul\n      add\n        /* \"contracts/practice.sol\":1750:1774  tweets[author][id].likes */\n      0x04\n      add\n      sload\n        /* \"contracts/practice.sol\":1718:1775  TweetLiked(msg.sender,author,id,tweets[author][id].likes) */\n      mload(0x40)\n      tag_97\n      swap5\n      swap4\n      swap3\n      swap2\n      swap1\n      tag_98\n      jump\t// in\n    tag_97:\n      mload(0x40)\n      dup1\n      swap2\n      sub\n      swap1\n      log1\n        /* \"contracts/practice.sol\":1540:1783  function likedTweet(address author, uint256 id) external {... */\n      pop\n      pop\n      jump\t// out\n        /* \"contracts/practice.sol\":1789:2104  function dislikeTweet(address author, uint256 id) external {... */\n    tag_40:\n        /* \"contracts/practice.sol\":1890:1892  id */\n      dup1\n        /* \"contracts/practice.sol\":1867:1873  tweets */\n      0x02\n        /* \"contracts/practice.sol\":1867:1881  tweets[author] */\n      0x00\n        /* \"contracts/practice.sol\":1874:1880  author */\n      dup5\n        /* \"contracts/practice.sol\":1867:1881  tweets[author] */\n      0xffffffffffffffffffffffffffffffffffffffff\n      and\n      0xffffffffffffffffffffffffffffffffffffffff\n      and\n      dup2\n      mstore\n      0x20\n      add\n      swap1\n      dup2\n      mstore\n      0x20\n      add\n      0x00\n      keccak256\n        /* \"contracts/practice.sol\":1882:1884  id */\n      dup3\n        /* \"contracts/practice.sol\":1867:1885  tweets[author][id] */\n      dup2\n      sload\n      dup2\n      lt\n      tag_100\n      jumpi\n      tag_101\n      tag_84\n      jump\t// in\n    tag_101:\n    tag_100:\n      swap1\n      0x00\n      mstore\n      keccak256(0x00, 0x20)\n      swap1\n      0x05\n      mul\n      add\n        /* \"contracts/practice.sol\":1867:1888  tweets[author][id].id */\n      0x00\n      add\n      sload\n        /* \"contracts/practice.sol\":1867:1892  tweets[author][id].id==id */\n      eq\n        /* \"contracts/practice.sol\":1859:1916  require(tweets[author][id].id==id,\"Tweet does not exist\") */\n      tag_103\n      jumpi\n      mload(0x40)\n      0x08c379a000000000000000000000000000000000000000000000000000000000\n      dup2\n      mstore\n      0x04\n      add\n      tag_104\n      swap1\n      tag_88\n      jump\t// in\n    tag_104:\n      mload(0x40)\n      dup1\n      swap2\n      sub\n      swap1\n      revert\n    tag_103:\n        /* \"contracts/practice.sol\":1960:1961  0 */\n      0x00\n        /* \"contracts/practice.sol\":1935:1941  tweets */\n      0x02\n        /* \"contracts/practice.sol\":1935:1949  tweets[author] */\n      0x00\n        /* \"contracts/practice.sol\":1942:1948  author */\n      dup5\n        /* \"contracts/practice.sol\":1935:1949  tweets[author] */\n      0xffffffffffffffffffffffffffffffffffffffff\n      and\n      0xffffffffffffffffffffffffffffffffffffffff\n      and\n      dup2\n      mstore\n      0x20\n      add\n      swap1\n      dup2\n      mstore\n      0x20\n      add\n      0x00\n      keccak256\n        /* \"contracts/practice.sol\":1950:1952  id */\n      dup3\n        /* \"contracts/practice.sol\":1935:1953  tweets[author][id] */\n      dup2\n      sload\n      dup2\n      lt\n      tag_105\n      jumpi\n      tag_106\n      tag_84\n      jump\t// in\n    tag_106:\n    tag_105:\n      swap1\n      0x00\n      mstore\n      keccak256(0x00, 0x20)\n      swap1\n      0x05\n      mul\n      add\n        /* \"contracts/practice.sol\":1935:1959  tweets[author][id].likes */\n      0x04\n      add\n      sload\n        /* \"contracts/practice.sol\":1935:1961  tweets[author][id].likes>0 */\n      gt\n        /* \"contracts/practice.sol\":1927:1983  require(tweets[author][id].likes>0,\"TWEET HAS NO LIKES\") */\n      tag_108\n      jumpi\n      mload(0x40)\n      0x08c379a000000000000000000000000000000000000000000000000000000000\n      dup2\n      mstore\n      0x04\n      add\n      tag_109\n      swap1\n      tag_110\n      jump\t// in\n    tag_109:\n      mload(0x40)\n      dup1\n      swap2\n      sub\n      swap1\n      revert\n    tag_108:\n        /* \"contracts/practice.sol\":1994:2000  tweets */\n      0x02\n        /* \"contracts/practice.sol\":1994:2008  tweets[author] */\n      0x00\n        /* \"contracts/practice.sol\":2001:2007  author */\n      dup4\n        /* \"contracts/practice.sol\":1994:2008  tweets[author] */\n      0xffffffffffffffffffffffffffffffffffffffff\n      and\n      0xffffffffffffffffffffffffffffffffffffffff\n      and\n      dup2\n      mstore\n      0x20\n      add\n      swap1\n      dup2\n      mstore\n      0x20\n      add\n      0x00\n      keccak256\n        /* \"contracts/practice.sol\":2009:2011  id */\n      dup2\n        /* \"contracts/practice.sol\":1994:2012  tweets[author][id] */\n      dup2\n      sload\n      dup2\n      lt\n      tag_111\n      jumpi\n      tag_112\n      tag_84\n      jump\t// in\n    tag_112:\n    tag_111:\n      swap1\n      0x00\n      mstore\n      keccak256(0x00, 0x20)\n      swap1\n      0x05\n      mul\n      add\n        /* \"contracts/practice.sol\":1994:2018  tweets[author][id].likes */\n      0x04\n      add\n      0x00\n        /* \"contracts/practice.sol\":1994:2020  tweets[author][id].likes-- */\n      dup2\n      sload\n      dup1\n      swap3\n      swap2\n      swap1\n      tag_114\n      swap1\n      tag_115\n      jump\t// in\n    tag_114:\n      swap2\n      swap1\n      pop\n      sstore\n      pop\n        /* \"contracts/practice.sol\":2036:2096  TweetDisliked(msg.sender,author,id,tweets[author][id].likes) */\n      0xd0d4999471ec2d64ef3082b701ea632e73cf03302f43274ab6d09a2b11cb1ae6\n        /* \"contracts/practice.sol\":2050:2060  msg.sender */\n      caller\n        /* \"contracts/practice.sol\":2061:2067  author */\n      dup4\n        /* \"contracts/practice.sol\":2068:2070  id */\n      dup4\n        /* \"contracts/practice.sol\":2071:2077  tweets */\n      0x02\n        /* \"contracts/practice.sol\":2071:2085  tweets[author] */\n      0x00\n        /* \"contracts/practice.sol\":2078:2084  author */\n      dup8\n        /* \"contracts/practice.sol\":2071:2085  tweets[author] */\n      0xffffffffffffffffffffffffffffffffffffffff\n      and\n      0xffffffffffffffffffffffffffffffffffffffff\n      and\n      dup2\n      mstore\n      0x20\n      add\n      swap1\n      dup2\n      mstore\n      0x20\n      add\n      0x00\n      keccak256\n        /* \"contracts/practice.sol\":2086:2088  id */\n      dup6\n        /* \"contracts/practice.sol\":2071:2089  tweets[author][id] */\n      dup2\n      sload\n      dup2\n      lt\n      tag_116\n      jumpi\n      tag_117\n      tag_84\n      jump\t// in\n    tag_117:\n    tag_116:\n      swap1\n      0x00\n      mstore\n      keccak256(0x00, 0x20)\n      swap1\n      0x05\n      mul\n      add\n        /* \"contracts/practice.sol\":2071:2095  tweets[author][id].likes */\n      0x04\n      add\n      sload\n        /* \"contracts/practice.sol\":2036:2096  TweetDisliked(msg.sender,author,id,tweets[author][id].likes) */\n      mload(0x40)\n      tag_119\n      swap5\n      swap4\n      swap3\n      swap2\n      swap1\n      tag_98\n      jump\t// in\n    tag_119:\n      mload(0x40)\n      dup1\n      swap2\n      sub\n      swap1\n      log1\n        /* \"contracts/practice.sol\":1789:2104  function dislikeTweet(address author, uint256 id) external {... */\n      pop\n      pop\n      jump\t// out\n        /* \"contracts/practice.sol\":274:295  address public _owner */\n    tag_42:\n      0x01\n      0x00\n      swap1\n      sload\n      swap1\n      0x0100\n      exp\n      swap1\n      div\n      0xffffffffffffffffffffffffffffffffffffffff\n      and\n      dup2\n      jump\t// out\n        /* \"contracts/practice.sol\":1421:1534  function getTweet(uint256 _i) public view returns (Tweet memory) {... */\n    tag_47:\n        /* \"contracts/practice.sol\":1472:1484  Tweet memory */\n      tag_120\n      tag_121\n      jump\t// in\n    tag_120:\n        /* \"contracts/practice.sol\":1504:1510  tweets */\n      0x02\n        /* \"contracts/practice.sol\":1504:1522  tweets[msg.sender] */\n      0x00\n        /* \"contracts/practice.sol\":1511:1521  msg.sender */\n      caller\n        /* \"contracts/practice.sol\":1504:1522  tweets[msg.sender] */\n      0xffffffffffffffffffffffffffffffffffffffff\n      and\n      0xffffffffffffffffffffffffffffffffffffffff\n      and\n      dup2\n      mstore\n      0x20\n      add\n      swap1\n      dup2\n      mstore\n      0x20\n      add\n      0x00\n      keccak256\n        /* \"contracts/practice.sol\":1523:1525  _i */\n      dup3\n        /* \"contracts/practice.sol\":1504:1526  tweets[msg.sender][_i] */\n      dup2\n      sload\n      dup2\n      lt\n      tag_123\n      jumpi\n      tag_124\n      tag_84\n      jump\t// in\n    tag_124:\n    tag_123:\n      swap1\n      0x00\n      mstore\n      keccak256(0x00, 0x20)\n      swap1\n      0x05\n      mul\n      add\n        /* \"contracts/practice.sol\":1497:1526  return tweets[msg.sender][_i] */\n      mload(0x40)\n      dup1\n      0xa0\n      add\n      0x40\n      mstore\n      swap1\n      dup2\n      0x00\n      dup3\n      add\n      sload\n      dup2\n      mstore\n      0x20\n      add\n      0x01\n      dup3\n      add\n      0x00\n      swap1\n      sload\n      swap1\n      0x0100\n      exp\n      swap1\n      div\n      0xffffffffffffffffffffffffffffffffffffffff\n      and\n      0xffffffffffffffffffffffffffffffffffffffff\n      and\n      0xffffffffffffffffffffffffffffffffffffffff\n      and\n      dup2\n      mstore\n      0x20\n      add\n      0x02\n      dup3\n      add\n      dup1\n      sload\n      tag_126\n      swap1\n      tag_53\n      jump\t// in\n    tag_126:\n      dup1\n      0x1f\n      add\n      0x20\n      dup1\n      swap2\n      div\n      mul\n      0x20\n      add\n      mload(0x40)\n      swap1\n      dup2\n      add\n      0x40\n      mstore\n      dup1\n      swap3\n      swap2\n      swap1\n      dup2\n      dup2\n      mstore\n      0x20\n      add\n      dup3\n      dup1\n      sload\n      tag_127\n      swap1\n      tag_53\n      jump\t// in\n    tag_127:\n      dup1\n      iszero\n      tag_128\n      jumpi\n      dup1\n      0x1f\n      lt\n      tag_129\n      jumpi\n      0x0100\n      dup1\n      dup4\n      sload\n      div\n      mul\n      dup4\n      mstore\n      swap2\n      0x20\n      add\n      swap2\n      jump(tag_128)\n    tag_129:\n      dup3\n      add\n      swap2\n      swap1\n      0x00\n      mstore\n      keccak256(0x00, 0x20)\n      swap1\n    tag_130:\n      dup2\n      sload\n      dup2\n      mstore\n      swap1\n      0x01\n      add\n      swap1\n      0x20\n      add\n      dup1\n      dup4\n      gt\n      tag_130\n      jumpi\n      dup3\n      swap1\n      sub\n      0x1f\n      and\n      dup3\n      add\n      swap2\n    tag_128:\n      pop\n      pop\n      pop\n      pop\n      pop\n      dup2\n      mstore\n      0x20\n      add\n      0x03\n      dup3\n      add\n      sload\n      dup2\n      mstore\n      0x20\n      add\n      0x04\n      dup3\n      add\n      sload\n      dup2\n      mstore\n      pop\n      pop\n      swap1\n      pop\n        /* \"contracts/practice.sol\":1421:1534  function getTweet(uint256 _i) public view returns (Tweet memory) {... */\n      swap2\n      swap1\n      pop\n      jump\t// out\n    tag_121:\n      mload(0x40)\n      dup1\n      0xa0\n      add\n      0x40\n      mstore\n      dup1\n      0x00\n      dup2\n      mstore\n      0x20\n      add\n      and(0xffffffffffffffffffffffffffffffffffffffff, 0x00)\n      dup2\n      mstore\n      0x20\n      add\n      0x60\n      dup2\n      mstore\n      0x20\n      add\n      0x00\n      dup2\n      mstore\n      0x20\n      add\n      0x00\n      dup2\n      mstore\n      pop\n      swap1\n      jump\t// out\n        /* \"#utility.yul\":7:82   */\n    tag_131:\n        /* \"#utility.yul\":40:46   */\n      0x00\n        /* \"#utility.yul\":73:75   */\n      0x40\n        /* \"#utility.yul\":67:76   */\n      mload\n        /* \"#utility.yul\":57:76   */\n      swap1\n      pop\n        /* \"#utility.yul\":7:82   */\n      swap1\n      jump\t// out\n        /* \"#utility.yul\":88:205   */\n    tag_132:\n        /* \"#utility.yul\":197:198   */\n      0x00\n        /* \"#utility.yul\":194:195   */\n      dup1\n        /* \"#utility.yul\":187:199   */\n      revert\n        /* \"#utility.yul\":211:328   */\n    tag_133:\n        /* \"#utility.yul\":320:321   */\n      0x00\n        /* \"#utility.yul\":317:318   */\n      dup1\n        /* \"#utility.yul\":310:322   */\n      revert\n        /* \"#utility.yul\":334:460   */\n    tag_134:\n        /* \"#utility.yul\":371:378   */\n      0x00\n        /* \"#utility.yul\":411:453   */\n      0xffffffffffffffffffffffffffffffffffffffff\n        /* \"#utility.yul\":404:409   */\n      dup3\n        /* \"#utility.yul\":400:454   */\n      and\n        /* \"#utility.yul\":389:454   */\n      swap1\n      pop\n        /* \"#utility.yul\":334:460   */\n      swap2\n      swap1\n      pop\n      jump\t// out\n        /* \"#utility.yul\":466:562   */\n    tag_135:\n        /* \"#utility.yul\":503:510   */\n      0x00\n        /* \"#utility.yul\":532:556   */\n      tag_200\n        /* \"#utility.yul\":550:555   */\n      dup3\n        /* \"#utility.yul\":532:556   */\n      tag_134\n      jump\t// in\n    tag_200:\n        /* \"#utility.yul\":521:556   */\n      swap1\n      pop\n        /* \"#utility.yul\":466:562   */\n      swap2\n      swap1\n      pop\n      jump\t// out\n        /* \"#utility.yul\":568:690   */\n    tag_136:\n        /* \"#utility.yul\":641:665   */\n      tag_202\n        /* \"#utility.yul\":659:664   */\n      dup2\n        /* \"#utility.yul\":641:665   */\n      tag_135\n      jump\t// in\n    tag_202:\n        /* \"#utility.yul\":634:639   */\n      dup2\n        /* \"#utility.yul\":631:666   */\n      eq\n        /* \"#utility.yul\":621:684   */\n      tag_203\n      jumpi\n        /* \"#utility.yul\":680:681   */\n      0x00\n        /* \"#utility.yul\":677:678   */\n      dup1\n        /* \"#utility.yul\":670:682   */\n      revert\n        /* \"#utility.yul\":621:684   */\n    tag_203:\n        /* \"#utility.yul\":568:690   */\n      pop\n      jump\t// out\n        /* \"#utility.yul\":696:835   */\n    tag_137:\n        /* \"#utility.yul\":742:747   */\n      0x00\n        /* \"#utility.yul\":780:786   */\n      dup2\n        /* \"#utility.yul\":767:787   */\n      calldataload\n        /* \"#utility.yul\":758:787   */\n      swap1\n      pop\n        /* \"#utility.yul\":796:829   */\n      tag_205\n        /* \"#utility.yul\":823:828   */\n      dup2\n        /* \"#utility.yul\":796:829   */\n      tag_136\n      jump\t// in\n    tag_205:\n        /* \"#utility.yul\":696:835   */\n      swap3\n      swap2\n      pop\n      pop\n      jump\t// out\n        /* \"#utility.yul\":841:918   */\n    tag_138:\n        /* \"#utility.yul\":878:885   */\n      0x00\n        /* \"#utility.yul\":907:912   */\n      dup2\n        /* \"#utility.yul\":896:912   */\n      swap1\n      pop\n        /* \"#utility.yul\":841:918   */\n      swap2\n      swap1\n      pop\n      jump\t// out\n        /* \"#utility.yul\":924:1046   */\n    tag_139:\n        /* \"#utility.yul\":997:1021   */\n      tag_208\n        /* \"#utility.yul\":1015:1020   */\n      dup2\n        /* \"#utility.yul\":997:1021   */\n      tag_138\n      jump\t// in\n    tag_208:\n        /* \"#utility.yul\":990:995   */\n      dup2\n        /* \"#utility.yul\":987:1022   */\n      eq\n        /* \"#utility.yul\":977:1040   */\n      tag_209\n      jumpi\n        /* \"#utility.yul\":1036:1037   */\n      0x00\n        /* \"#utility.yul\":1033:1034   */\n      dup1\n        /* \"#utility.yul\":1026:1038   */\n      revert\n        /* \"#utility.yul\":977:1040   */\n    tag_209:\n        /* \"#utility.yul\":924:1046   */\n      pop\n      jump\t// out\n        /* \"#utility.yul\":1052:1191   */\n    tag_140:\n        /* \"#utility.yul\":1098:1103   */\n      0x00\n        /* \"#utility.yul\":1136:1142   */\n      dup2\n        /* \"#utility.yul\":1123:1143   */\n      calldataload\n        /* \"#utility.yul\":1114:1143   */\n      swap1\n      pop\n        /* \"#utility.yul\":1152:1185   */\n      tag_211\n        /* \"#utility.yul\":1179:1184   */\n      dup2\n        /* \"#utility.yul\":1152:1185   */\n      tag_139\n      jump\t// in\n    tag_211:\n        /* \"#utility.yul\":1052:1191   */\n      swap3\n      swap2\n      pop\n      pop\n      jump\t// out\n        /* \"#utility.yul\":1197:1671   */\n    tag_15:\n        /* \"#utility.yul\":1265:1271   */\n      0x00\n        /* \"#utility.yul\":1273:1279   */\n      dup1\n        /* \"#utility.yul\":1322:1324   */\n      0x40\n        /* \"#utility.yul\":1310:1319   */\n      dup4\n        /* \"#utility.yul\":1301:1308   */\n      dup6\n        /* \"#utility.yul\":1297:1320   */\n      sub\n        /* \"#utility.yul\":1293:1325   */\n      slt\n        /* \"#utility.yul\":1290:1409   */\n      iszero\n      tag_213\n      jumpi\n        /* \"#utility.yul\":1328:1407   */\n      tag_214\n      tag_132\n      jump\t// in\n    tag_214:\n        /* \"#utility.yul\":1290:1409   */\n    tag_213:\n        /* \"#utility.yul\":1448:1449   */\n      0x00\n        /* \"#utility.yul\":1473:1526   */\n      tag_215\n        /* \"#utility.yul\":1518:1525   */\n      dup6\n        /* \"#utility.yul\":1509:1515   */\n      dup3\n        /* \"#utility.yul\":1498:1507   */\n      dup7\n        /* \"#utility.yul\":1494:1516   */\n      add\n        /* \"#utility.yul\":1473:1526   */\n      tag_137\n      jump\t// in\n    tag_215:\n        /* \"#utility.yul\":1463:1526   */\n      swap3\n      pop\n        /* \"#utility.yul\":1419:1536   */\n      pop\n        /* \"#utility.yul\":1575:1577   */\n      0x20\n        /* \"#utility.yul\":1601:1654   */\n      tag_216\n        /* \"#utility.yul\":1646:1653   */\n      dup6\n        /* \"#utility.yul\":1637:1643   */\n      dup3\n        /* \"#utility.yul\":1626:1635   */\n      dup7\n        /* \"#utility.yul\":1622:1644   */\n      add\n        /* \"#utility.yul\":1601:1654   */\n      tag_140\n      jump\t// in\n    tag_216:\n        /* \"#utility.yul\":1591:1654   */\n      swap2\n      pop\n        /* \"#utility.yul\":1546:1664   */\n      pop\n        /* \"#utility.yul\":1197:1671   */\n      swap3\n      pop\n      swap3\n      swap1\n      pop\n      jump\t// out\n        /* \"#utility.yul\":1677:1795   */\n    tag_141:\n        /* \"#utility.yul\":1764:1788   */\n      tag_218\n        /* \"#utility.yul\":1782:1787   */\n      dup2\n        /* \"#utility.yul\":1764:1788   */\n      tag_138\n      jump\t// in\n    tag_218:\n        /* \"#utility.yul\":1759:1762   */\n      dup3\n        /* \"#utility.yul\":1752:1789   */\n      mstore\n        /* \"#utility.yul\":1677:1795   */\n      pop\n      pop\n      jump\t// out\n        /* \"#utility.yul\":1801:1919   */\n    tag_142:\n        /* \"#utility.yul\":1888:1912   */\n      tag_220\n        /* \"#utility.yul\":1906:1911   */\n      dup2\n        /* \"#utility.yul\":1888:1912   */\n      tag_135\n      jump\t// in\n    tag_220:\n        /* \"#utility.yul\":1883:1886   */\n      dup3\n        /* \"#utility.yul\":1876:1913   */\n      mstore\n        /* \"#utility.yul\":1801:1919   */\n      pop\n      pop\n      jump\t// out\n        /* \"#utility.yul\":1925:2024   */\n    tag_143:\n        /* \"#utility.yul\":1977:1983   */\n      0x00\n        /* \"#utility.yul\":2011:2016   */\n      dup2\n        /* \"#utility.yul\":2005:2017   */\n      mload\n        /* \"#utility.yul\":1995:2017   */\n      swap1\n      pop\n        /* \"#utility.yul\":1925:2024   */\n      swap2\n      swap1\n      pop\n      jump\t// out\n        /* \"#utility.yul\":2030:2199   */\n    tag_144:\n        /* \"#utility.yul\":2114:2125   */\n      0x00\n        /* \"#utility.yul\":2148:2154   */\n      dup3\n        /* \"#utility.yul\":2143:2146   */\n      dup3\n        /* \"#utility.yul\":2136:2155   */\n      mstore\n        /* \"#utility.yul\":2188:2192   */\n      0x20\n        /* \"#utility.yul\":2183:2186   */\n      dup3\n        /* \"#utility.yul\":2179:2193   */\n      add\n        /* \"#utility.yul\":2164:2193   */\n      swap1\n      pop\n        /* \"#utility.yul\":2030:2199   */\n      swap3\n      swap2\n      pop\n      pop\n      jump\t// out\n        /* \"#utility.yul\":2205:2344   */\n    tag_145:\n        /* \"#utility.yul\":2294:2300   */\n      dup3\n        /* \"#utility.yul\":2289:2292   */\n      dup2\n        /* \"#utility.yul\":2284:2287   */\n      dup4\n        /* \"#utility.yul\":2278:2301   */\n      mcopy\n        /* \"#utility.yul\":2335:2336   */\n      0x00\n        /* \"#utility.yul\":2326:2332   */\n      dup4\n        /* \"#utility.yul\":2321:2324   */\n      dup4\n        /* \"#utility.yul\":2317:2333   */\n      add\n        /* \"#utility.yul\":2310:2337   */\n      mstore\n        /* \"#utility.yul\":2205:2344   */\n      pop\n      pop\n      pop\n      jump\t// out\n        /* \"#utility.yul\":2350:2452   */\n    tag_146:\n        /* \"#utility.yul\":2391:2397   */\n      0x00\n        /* \"#utility.yul\":2442:2444   */\n      0x1f\n        /* \"#utility.yul\":2438:2445   */\n      not\n        /* \"#utility.yul\":2433:2435   */\n      0x1f\n        /* \"#utility.yul\":2426:2431   */\n      dup4\n        /* \"#utility.yul\":2422:2436   */\n      add\n        /* \"#utility.yul\":2418:2446   */\n      and\n        /* \"#utility.yul\":2408:2446   */\n      swap1\n      pop\n        /* \"#utility.yul\":2350:2452   */\n      swap2\n      swap1\n      pop\n      jump\t// out\n        /* \"#utility.yul\":2458:2835   */\n    tag_147:\n        /* \"#utility.yul\":2546:2549   */\n      0x00\n        /* \"#utility.yul\":2574:2613   */\n      tag_226\n        /* \"#utility.yul\":2607:2612   */\n      dup3\n        /* \"#utility.yul\":2574:2613   */\n      tag_143\n      jump\t// in\n    tag_226:\n        /* \"#utility.yul\":2629:2700   */\n      tag_227\n        /* \"#utility.yul\":2693:2699   */\n      dup2\n        /* \"#utility.yul\":2688:2691   */\n      dup6\n        /* \"#utility.yul\":2629:2700   */\n      tag_144\n      jump\t// in\n    tag_227:\n        /* \"#utility.yul\":2622:2700   */\n      swap4\n      pop\n        /* \"#utility.yul\":2709:2774   */\n      tag_228\n        /* \"#utility.yul\":2767:2773   */\n      dup2\n        /* \"#utility.yul\":2762:2765   */\n      dup6\n        /* \"#utility.yul\":2755:2759   */\n      0x20\n        /* \"#utility.yul\":2748:2753   */\n      dup7\n        /* \"#utility.yul\":2744:2760   */\n      add\n        /* \"#utility.yul\":2709:2774   */\n      tag_145\n      jump\t// in\n    tag_228:\n        /* \"#utility.yul\":2799:2828   */\n      tag_229\n        /* \"#utility.yul\":2821:2827   */\n      dup2\n        /* \"#utility.yul\":2799:2828   */\n      tag_146\n      jump\t// in\n    tag_229:\n        /* \"#utility.yul\":2794:2797   */\n      dup5\n        /* \"#utility.yul\":2790:2829   */\n      add\n        /* \"#utility.yul\":2783:2829   */\n      swap2\n      pop\n        /* \"#utility.yul\":2550:2835   */\n      pop\n        /* \"#utility.yul\":2458:2835   */\n      swap3\n      swap2\n      pop\n      pop\n      jump\t// out\n        /* \"#utility.yul\":2841:3596   */\n    tag_18:\n        /* \"#utility.yul\":3066:3070   */\n      0x00\n        /* \"#utility.yul\":3104:3107   */\n      0xa0\n        /* \"#utility.yul\":3093:3102   */\n      dup3\n        /* \"#utility.yul\":3089:3108   */\n      add\n        /* \"#utility.yul\":3081:3108   */\n      swap1\n      pop\n        /* \"#utility.yul\":3118:3189   */\n      tag_231\n        /* \"#utility.yul\":3186:3187   */\n      0x00\n        /* \"#utility.yul\":3175:3184   */\n      dup4\n        /* \"#utility.yul\":3171:3188   */\n      add\n        /* \"#utility.yul\":3162:3168   */\n      dup9\n        /* \"#utility.yul\":3118:3189   */\n      tag_141\n      jump\t// in\n    tag_231:\n        /* \"#utility.yul\":3199:3271   */\n      tag_232\n        /* \"#utility.yul\":3267:3269   */\n      0x20\n        /* \"#utility.yul\":3256:3265   */\n      dup4\n        /* \"#utility.yul\":3252:3270   */\n      add\n        /* \"#utility.yul\":3243:3249   */\n      dup8\n        /* \"#utility.yul\":3199:3271   */\n      tag_142\n      jump\t// in\n    tag_232:\n        /* \"#utility.yul\":3318:3327   */\n      dup2\n        /* \"#utility.yul\":3312:3316   */\n      dup2\n        /* \"#utility.yul\":3308:3328   */\n      sub\n        /* \"#utility.yul\":3303:3305   */\n      0x40\n        /* \"#utility.yul\":3292:3301   */\n      dup4\n        /* \"#utility.yul\":3288:3306   */\n      add\n        /* \"#utility.yul\":3281:3329   */\n      mstore\n        /* \"#utility.yul\":3346:3424   */\n      tag_233\n        /* \"#utility.yul\":3419:3423   */\n      dup2\n        /* \"#utility.yul\":3410:3416   */\n      dup7\n        /* \"#utility.yul\":3346:3424   */\n      tag_147\n      jump\t// in\n    tag_233:\n        /* \"#utility.yul\":3338:3424   */\n      swap1\n      pop\n        /* \"#utility.yul\":3434:3506   */\n      tag_234\n        /* \"#utility.yul\":3502:3504   */\n      0x60\n        /* \"#utility.yul\":3491:3500   */\n      dup4\n        /* \"#utility.yul\":3487:3505   */\n      add\n        /* \"#utility.yul\":3478:3484   */\n      dup6\n        /* \"#utility.yul\":3434:3506   */\n      tag_141\n      jump\t// in\n    tag_234:\n        /* \"#utility.yul\":3516:3589   */\n      tag_235\n        /* \"#utility.yul\":3584:3587   */\n      0x80\n        /* \"#utility.yul\":3573:3582   */\n      dup4\n        /* \"#utility.yul\":3569:3588   */\n      add\n        /* \"#utility.yul\":3560:3566   */\n      dup5\n        /* \"#utility.yul\":3516:3589   */\n      tag_141\n      jump\t// in\n    tag_235:\n        /* \"#utility.yul\":2841:3596   */\n      swap7\n      swap6\n      pop\n      pop\n      pop\n      pop\n      pop\n      pop\n      jump\t// out\n        /* \"#utility.yul\":3602:3737   */\n    tag_148:\n        /* \"#utility.yul\":3690:3696   */\n      0x00\n        /* \"#utility.yul\":3724:3729   */\n      dup2\n        /* \"#utility.yul\":3718:3730   */\n      mload\n        /* \"#utility.yul\":3708:3730   */\n      swap1\n      pop\n        /* \"#utility.yul\":3602:3737   */\n      swap2\n      swap1\n      pop\n      jump\t// out\n        /* \"#utility.yul\":3743:3948   */\n    tag_149:\n        /* \"#utility.yul\":3863:3874   */\n      0x00\n        /* \"#utility.yul\":3897:3903   */\n      dup3\n        /* \"#utility.yul\":3892:3895   */\n      dup3\n        /* \"#utility.yul\":3885:3904   */\n      mstore\n        /* \"#utility.yul\":3937:3941   */\n      0x20\n        /* \"#utility.yul\":3932:3935   */\n      dup3\n        /* \"#utility.yul\":3928:3942   */\n      add\n        /* \"#utility.yul\":3913:3942   */\n      swap1\n      pop\n        /* \"#utility.yul\":3743:3948   */\n      swap3\n      swap2\n      pop\n      pop\n      jump\t// out\n        /* \"#utility.yul\":3954:4107   */\n    tag_150:\n        /* \"#utility.yul\":4042:4046   */\n      0x00\n        /* \"#utility.yul\":4065:4068   */\n      dup2\n        /* \"#utility.yul\":4057:4068   */\n      swap1\n      pop\n        /* \"#utility.yul\":4095:4099   */\n      0x20\n        /* \"#utility.yul\":4090:4093   */\n      dup3\n        /* \"#utility.yul\":4086:4100   */\n      add\n        /* \"#utility.yul\":4078:4100   */\n      swap1\n      pop\n        /* \"#utility.yul\":3954:4107   */\n      swap2\n      swap1\n      pop\n      jump\t// out\n        /* \"#utility.yul\":4113:4221   */\n    tag_151:\n        /* \"#utility.yul\":4190:4214   */\n      tag_240\n        /* \"#utility.yul\":4208:4213   */\n      dup2\n        /* \"#utility.yul\":4190:4214   */\n      tag_138\n      jump\t// in\n    tag_240:\n        /* \"#utility.yul\":4185:4188   */\n      dup3\n        /* \"#utility.yul\":4178:4215   */\n      mstore\n        /* \"#utility.yul\":4113:4221   */\n      pop\n      pop\n      jump\t// out\n        /* \"#utility.yul\":4227:4335   */\n    tag_152:\n        /* \"#utility.yul\":4304:4328   */\n      tag_242\n        /* \"#utility.yul\":4322:4327   */\n      dup2\n        /* \"#utility.yul\":4304:4328   */\n      tag_135\n      jump\t// in\n    tag_242:\n        /* \"#utility.yul\":4299:4302   */\n      dup3\n        /* \"#utility.yul\":4292:4329   */\n      mstore\n        /* \"#utility.yul\":4227:4335   */\n      pop\n      pop\n      jump\t// out\n        /* \"#utility.yul\":4341:4500   */\n    tag_153:\n        /* \"#utility.yul\":4415:4426   */\n      0x00\n        /* \"#utility.yul\":4449:4455   */\n      dup3\n        /* \"#utility.yul\":4444:4447   */\n      dup3\n        /* \"#utility.yul\":4437:4456   */\n      mstore\n        /* \"#utility.yul\":4489:4493   */\n      0x20\n        /* \"#utility.yul\":4484:4487   */\n      dup3\n        /* \"#utility.yul\":4480:4494   */\n      add\n        /* \"#utility.yul\":4465:4494   */\n      swap1\n      pop\n        /* \"#utility.yul\":4341:4500   */\n      swap3\n      swap2\n      pop\n      pop\n      jump\t// out\n        /* \"#utility.yul\":4506:4863   */\n    tag_154:\n        /* \"#utility.yul\":4584:4587   */\n      0x00\n        /* \"#utility.yul\":4612:4651   */\n      tag_245\n        /* \"#utility.yul\":4645:4650   */\n      dup3\n        /* \"#utility.yul\":4612:4651   */\n      tag_143\n      jump\t// in\n    tag_245:\n        /* \"#utility.yul\":4667:4728   */\n      tag_246\n        /* \"#utility.yul\":4721:4727   */\n      dup2\n        /* \"#utility.yul\":4716:4719   */\n      dup6\n        /* \"#utility.yul\":4667:4728   */\n      tag_153\n      jump\t// in\n    tag_246:\n        /* \"#utility.yul\":4660:4728   */\n      swap4\n      pop\n        /* \"#utility.yul\":4737:4802   */\n      tag_247\n        /* \"#utility.yul\":4795:4801   */\n      dup2\n        /* \"#utility.yul\":4790:4793   */\n      dup6\n        /* \"#utility.yul\":4783:4787   */\n      0x20\n        /* \"#utility.yul\":4776:4781   */\n      dup7\n        /* \"#utility.yul\":4772:4788   */\n      add\n        /* \"#utility.yul\":4737:4802   */\n      tag_145\n      jump\t// in\n    tag_247:\n        /* \"#utility.yul\":4827:4856   */\n      tag_248\n        /* \"#utility.yul\":4849:4855   */\n      dup2\n        /* \"#utility.yul\":4827:4856   */\n      tag_146\n      jump\t// in\n    tag_248:\n        /* \"#utility.yul\":4822:4825   */\n      dup5\n        /* \"#utility.yul\":4818:4857   */\n      add\n        /* \"#utility.yul\":4811:4857   */\n      swap2\n      pop\n        /* \"#utility.yul\":4588:4863   */\n      pop\n        /* \"#utility.yul\":4506:4863   */\n      swap3\n      swap2\n      pop\n      pop\n      jump\t// out\n        /* \"#utility.yul\":4921:6040   */\n    tag_155:\n        /* \"#utility.yul\":5022:5025   */\n      0x00\n        /* \"#utility.yul\":5058:5062   */\n      0xa0\n        /* \"#utility.yul\":5053:5056   */\n      dup4\n        /* \"#utility.yul\":5049:5063   */\n      add\n        /* \"#utility.yul\":5143:5147   */\n      0x00\n        /* \"#utility.yul\":5136:5141   */\n      dup4\n        /* \"#utility.yul\":5132:5148   */\n      add\n        /* \"#utility.yul\":5126:5149   */\n      mload\n        /* \"#utility.yul\":5162:5225   */\n      tag_250\n        /* \"#utility.yul\":5219:5223   */\n      0x00\n        /* \"#utility.yul\":5214:5217   */\n      dup7\n        /* \"#utility.yul\":5210:5224   */\n      add\n        /* \"#utility.yul\":5196:5208   */\n      dup3\n        /* \"#utility.yul\":5162:5225   */\n      tag_151\n      jump\t// in\n    tag_250:\n        /* \"#utility.yul\":5073:5235   */\n      pop\n        /* \"#utility.yul\":5319:5323   */\n      0x20\n        /* \"#utility.yul\":5312:5317   */\n      dup4\n        /* \"#utility.yul\":5308:5324   */\n      add\n        /* \"#utility.yul\":5302:5325   */\n      mload\n        /* \"#utility.yul\":5338:5401   */\n      tag_251\n        /* \"#utility.yul\":5395:5399   */\n      0x20\n        /* \"#utility.yul\":5390:5393   */\n      dup7\n        /* \"#utility.yul\":5386:5400   */\n      add\n        /* \"#utility.yul\":5372:5384   */\n      dup3\n        /* \"#utility.yul\":5338:5401   */\n      tag_152\n      jump\t// in\n    tag_251:\n        /* \"#utility.yul\":5245:5411   */\n      pop\n        /* \"#utility.yul\":5496:5500   */\n      0x40\n        /* \"#utility.yul\":5489:5494   */\n      dup4\n        /* \"#utility.yul\":5485:5501   */\n      add\n        /* \"#utility.yul\":5479:5502   */\n      mload\n        /* \"#utility.yul\":5549:5552   */\n      dup5\n        /* \"#utility.yul\":5543:5547   */\n      dup3\n        /* \"#utility.yul\":5539:5553   */\n      sub\n        /* \"#utility.yul\":5532:5536   */\n      0x40\n        /* \"#utility.yul\":5527:5530   */\n      dup7\n        /* \"#utility.yul\":5523:5537   */\n      add\n        /* \"#utility.yul\":5516:5554   */\n      mstore\n        /* \"#utility.yul\":5575:5648   */\n      tag_252\n        /* \"#utility.yul\":5643:5647   */\n      dup3\n        /* \"#utility.yul\":5629:5641   */\n      dup3\n        /* \"#utility.yul\":5575:5648   */\n      tag_154\n      jump\t// in\n    tag_252:\n        /* \"#utility.yul\":5567:5648   */\n      swap2\n      pop\n        /* \"#utility.yul\":5421:5659   */\n      pop\n        /* \"#utility.yul\":5746:5750   */\n      0x60\n        /* \"#utility.yul\":5739:5744   */\n      dup4\n        /* \"#utility.yul\":5735:5751   */\n      add\n        /* \"#utility.yul\":5729:5752   */\n      mload\n        /* \"#utility.yul\":5765:5828   */\n      tag_253\n        /* \"#utility.yul\":5822:5826   */\n      0x60\n        /* \"#utility.yul\":5817:5820   */\n      dup7\n        /* \"#utility.yul\":5813:5827   */\n      add\n        /* \"#utility.yul\":5799:5811   */\n      dup3\n        /* \"#utility.yul\":5765:5828   */\n      tag_151\n      jump\t// in\n    tag_253:\n        /* \"#utility.yul\":5669:5838   */\n      pop\n        /* \"#utility.yul\":5921:5925   */\n      0x80\n        /* \"#utility.yul\":5914:5919   */\n      dup4\n        /* \"#utility.yul\":5910:5926   */\n      add\n        /* \"#utility.yul\":5904:5927   */\n      mload\n        /* \"#utility.yul\":5940:6003   */\n      tag_254\n        /* \"#utility.yul\":5997:6001   */\n      0x80\n        /* \"#utility.yul\":5992:5995   */\n      dup7\n        /* \"#utility.yul\":5988:6002   */\n      add\n        /* \"#utility.yul\":5974:5986   */\n      dup3\n        /* \"#utility.yul\":5940:6003   */\n      tag_151\n      jump\t// in\n    tag_254:\n        /* \"#utility.yul\":5848:6013   */\n      pop\n        /* \"#utility.yul\":6030:6034   */\n      dup1\n        /* \"#utility.yul\":6023:6034   */\n      swap2\n      pop\n        /* \"#utility.yul\":5027:6040   */\n      pop\n        /* \"#utility.yul\":4921:6040   */\n      swap3\n      swap2\n      pop\n      pop\n      jump\t// out\n        /* \"#utility.yul\":6046:6286   */\n    tag_156:\n        /* \"#utility.yul\":6157:6167   */\n      0x00\n        /* \"#utility.yul\":6192:6280   */\n      tag_256\n        /* \"#utility.yul\":6276:6279   */\n      dup4\n        /* \"#utility.yul\":6268:6274   */\n      dup4\n        /* \"#utility.yul\":6192:6280   */\n      tag_155\n      jump\t// in\n    tag_256:\n        /* \"#utility.yul\":6178:6280   */\n      swap1\n      pop\n        /* \"#utility.yul\":6046:6286   */\n      swap3\n      swap2\n      pop\n      pop\n      jump\t// out\n        /* \"#utility.yul\":6292:6426   */\n    tag_157:\n        /* \"#utility.yul\":6383:6387   */\n      0x00\n        /* \"#utility.yul\":6415:6419   */\n      0x20\n        /* \"#utility.yul\":6410:6413   */\n      dup3\n        /* \"#utility.yul\":6406:6420   */\n      add\n        /* \"#utility.yul\":6398:6420   */\n      swap1\n      pop\n        /* \"#utility.yul\":6292:6426   */\n      swap2\n      swap1\n      pop\n      jump\t// out\n        /* \"#utility.yul\":6488:7567   */\n    tag_158:\n        /* \"#utility.yul\":6649:6652   */\n      0x00\n        /* \"#utility.yul\":6678:6753   */\n      tag_259\n        /* \"#utility.yul\":6747:6752   */\n      dup3\n        /* \"#utility.yul\":6678:6753   */\n      tag_148\n      jump\t// in\n    tag_259:\n        /* \"#utility.yul\":6769:6876   */\n      tag_260\n        /* \"#utility.yul\":6869:6875   */\n      dup2\n        /* \"#utility.yul\":6864:6867   */\n      dup6\n        /* \"#utility.yul\":6769:6876   */\n      tag_149\n      jump\t// in\n    tag_260:\n        /* \"#utility.yul\":6762:6876   */\n      swap4\n      pop\n        /* \"#utility.yul\":6902:6905   */\n      dup4\n        /* \"#utility.yul\":6947:6951   */\n      0x20\n        /* \"#utility.yul\":6939:6945   */\n      dup3\n        /* \"#utility.yul\":6935:6952   */\n      mul\n        /* \"#utility.yul\":6930:6933   */\n      dup6\n        /* \"#utility.yul\":6926:6953   */\n      add\n        /* \"#utility.yul\":6977:7054   */\n      tag_261\n        /* \"#utility.yul\":7048:7053   */\n      dup6\n        /* \"#utility.yul\":6977:7054   */\n      tag_150\n      jump\t// in\n    tag_261:\n        /* \"#utility.yul\":7077:7084   */\n      dup1\n        /* \"#utility.yul\":7108:7109   */\n      0x00\n        /* \"#utility.yul\":7093:7522   */\n    tag_262:\n        /* \"#utility.yul\":7118:7124   */\n      dup6\n        /* \"#utility.yul\":7115:7116   */\n      dup2\n        /* \"#utility.yul\":7112:7125   */\n      lt\n        /* \"#utility.yul\":7093:7522   */\n      iszero\n      tag_264\n      jumpi\n        /* \"#utility.yul\":7189:7198   */\n      dup5\n        /* \"#utility.yul\":7183:7187   */\n      dup5\n        /* \"#utility.yul\":7179:7199   */\n      sub\n        /* \"#utility.yul\":7174:7177   */\n      dup10\n        /* \"#utility.yul\":7167:7200   */\n      mstore\n        /* \"#utility.yul\":7240:7246   */\n      dup2\n        /* \"#utility.yul\":7234:7247   */\n      mload\n        /* \"#utility.yul\":7268:7374   */\n      tag_265\n        /* \"#utility.yul\":7369:7373   */\n      dup6\n        /* \"#utility.yul\":7354:7367   */\n      dup3\n        /* \"#utility.yul\":7268:7374   */\n      tag_156\n      jump\t// in\n    tag_265:\n        /* \"#utility.yul\":7260:7374   */\n      swap5\n      pop\n        /* \"#utility.yul\":7397:7478   */\n      tag_266\n        /* \"#utility.yul\":7471:7477   */\n      dup4\n        /* \"#utility.yul\":7397:7478   */\n      tag_157\n      jump\t// in\n    tag_266:\n        /* \"#utility.yul\":7387:7478   */\n      swap3\n      pop\n        /* \"#utility.yul\":7507:7511   */\n      0x20\n        /* \"#utility.yul\":7502:7505   */\n      dup11\n        /* \"#utility.yul\":7498:7512   */\n      add\n        /* \"#utility.yul\":7491:7512   */\n      swap10\n      pop\n        /* \"#utility.yul\":7153:7522   */\n      pop\n        /* \"#utility.yul\":7140:7141   */\n      0x01\n        /* \"#utility.yul\":7137:7138   */\n      dup2\n        /* \"#utility.yul\":7133:7142   */\n      add\n        /* \"#utility.yul\":7128:7142   */\n      swap1\n      pop\n        /* \"#utility.yul\":7093:7522   */\n      jump(tag_262)\n    tag_264:\n        /* \"#utility.yul\":7097:7111   */\n      pop\n        /* \"#utility.yul\":7538:7542   */\n      dup3\n        /* \"#utility.yul\":7531:7542   */\n      swap8\n      pop\n        /* \"#utility.yul\":7558:7561   */\n      dup8\n        /* \"#utility.yul\":7551:7561   */\n      swap6\n      pop\n        /* \"#utility.yul\":6654:7567   */\n      pop\n      pop\n      pop\n      pop\n      pop\n        /* \"#utility.yul\":6488:7567   */\n      swap3\n      swap2\n      pop\n      pop\n      jump\t// out\n        /* \"#utility.yul\":7573:8030   */\n    tag_22:\n        /* \"#utility.yul\":7758:7762   */\n      0x00\n        /* \"#utility.yul\":7796:7798   */\n      0x20\n        /* \"#utility.yul\":7785:7794   */\n      dup3\n        /* \"#utility.yul\":7781:7799   */\n      add\n        /* \"#utility.yul\":7773:7799   */\n      swap1\n      pop\n        /* \"#utility.yul\":7845:7854   */\n      dup2\n        /* \"#utility.yul\":7839:7843   */\n      dup2\n        /* \"#utility.yul\":7835:7855   */\n      sub\n        /* \"#utility.yul\":7831:7832   */\n      0x00\n        /* \"#utility.yul\":7820:7829   */\n      dup4\n        /* \"#utility.yul\":7816:7833   */\n      add\n        /* \"#utility.yul\":7809:7856   */\n      mstore\n        /* \"#utility.yul\":7873:8023   */\n      tag_268\n        /* \"#utility.yul\":8018:8022   */\n      dup2\n        /* \"#utility.yul\":8009:8015   */\n      dup5\n        /* \"#utility.yul\":7873:8023   */\n      tag_158\n      jump\t// in\n    tag_268:\n        /* \"#utility.yul\":7865:8023   */\n      swap1\n      pop\n        /* \"#utility.yul\":7573:8030   */\n      swap3\n      swap2\n      pop\n      pop\n      jump\t// out\n        /* \"#utility.yul\":8036:8258   */\n    tag_26:\n        /* \"#utility.yul\":8129:8133   */\n      0x00\n        /* \"#utility.yul\":8167:8169   */\n      0x20\n        /* \"#utility.yul\":8156:8165   */\n      dup3\n        /* \"#utility.yul\":8152:8170   */\n      add\n        /* \"#utility.yul\":8144:8170   */\n      swap1\n      pop\n        /* \"#utility.yul\":8180:8251   */\n      tag_270\n        /* \"#utility.yul\":8248:8249   */\n      0x00\n        /* \"#utility.yul\":8237:8246   */\n      dup4\n        /* \"#utility.yul\":8233:8250   */\n      add\n        /* \"#utility.yul\":8224:8230   */\n      dup5\n        /* \"#utility.yul\":8180:8251   */\n      tag_141\n      jump\t// in\n    tag_270:\n        /* \"#utility.yul\":8036:8258   */\n      swap3\n      swap2\n      pop\n      pop\n      jump\t// out\n        /* \"#utility.yul\":8264:8381   */\n    tag_159:\n        /* \"#utility.yul\":8373:8374   */\n      0x00\n        /* \"#utility.yul\":8370:8371   */\n      dup1\n        /* \"#utility.yul\":8363:8375   */\n      revert\n        /* \"#utility.yul\":8387:8504   */\n    tag_160:\n        /* \"#utility.yul\":8496:8497   */\n      0x00\n        /* \"#utility.yul\":8493:8494   */\n      dup1\n        /* \"#utility.yul\":8486:8498   */\n      revert\n        /* \"#utility.yul\":8510:8690   */\n    tag_161:\n        /* \"#utility.yul\":8558:8635   */\n      0x4e487b7100000000000000000000000000000000000000000000000000000000\n        /* \"#utility.yul\":8555:8556   */\n      0x00\n        /* \"#utility.yul\":8548:8636   */\n      mstore\n        /* \"#utility.yul\":8655:8659   */\n      0x41\n        /* \"#utility.yul\":8652:8653   */\n      0x04\n        /* \"#utility.yul\":8645:8660   */\n      mstore\n        /* \"#utility.yul\":8679:8683   */\n      0x24\n        /* \"#utility.yul\":8676:8677   */\n      0x00\n        /* \"#utility.yul\":8669:8684   */\n      revert\n        /* \"#utility.yul\":8696:8977   */\n    tag_162:\n        /* \"#utility.yul\":8779:8806   */\n      tag_275\n        /* \"#utility.yul\":8801:8805   */\n      dup3\n        /* \"#utility.yul\":8779:8806   */\n      tag_146\n      jump\t// in\n    tag_275:\n        /* \"#utility.yul\":8771:8777   */\n      dup2\n        /* \"#utility.yul\":8767:8807   */\n      add\n        /* \"#utility.yul\":8909:8915   */\n      dup2\n        /* \"#utility.yul\":8897:8907   */\n      dup2\n        /* \"#utility.yul\":8894:8916   */\n      lt\n        /* \"#utility.yul\":8873:8891   */\n      0xffffffffffffffff\n        /* \"#utility.yul\":8861:8871   */\n      dup3\n        /* \"#utility.yul\":8858:8892   */\n      gt\n        /* \"#utility.yul\":8855:8917   */\n      or\n        /* \"#utility.yul\":8852:8940   */\n      iszero\n      tag_276\n      jumpi\n        /* \"#utility.yul\":8920:8938   */\n      tag_277\n      tag_161\n      jump\t// in\n    tag_277:\n        /* \"#utility.yul\":8852:8940   */\n    tag_276:\n        /* \"#utility.yul\":8960:8970   */\n      dup1\n        /* \"#utility.yul\":8956:8958   */\n      0x40\n        /* \"#utility.yul\":8949:8971   */\n      mstore\n        /* \"#utility.yul\":8739:8977   */\n      pop\n        /* \"#utility.yul\":8696:8977   */\n      pop\n      pop\n      jump\t// out\n        /* \"#utility.yul\":8983:9112   */\n    tag_163:\n        /* \"#utility.yul\":9017:9023   */\n      0x00\n        /* \"#utility.yul\":9044:9064   */\n      tag_279\n      tag_131\n      jump\t// in\n    tag_279:\n        /* \"#utility.yul\":9034:9064   */\n      swap1\n      pop\n        /* \"#utility.yul\":9073:9106   */\n      tag_280\n        /* \"#utility.yul\":9101:9105   */\n      dup3\n        /* \"#utility.yul\":9093:9099   */\n      dup3\n        /* \"#utility.yul\":9073:9106   */\n      tag_162\n      jump\t// in\n    tag_280:\n        /* \"#utility.yul\":8983:9112   */\n      swap2\n      swap1\n      pop\n      jump\t// out\n        /* \"#utility.yul\":9118:9426   */\n    tag_164:\n        /* \"#utility.yul\":9180:9184   */\n      0x00\n        /* \"#utility.yul\":9270:9288   */\n      0xffffffffffffffff\n        /* \"#utility.yul\":9262:9268   */\n      dup3\n        /* \"#utility.yul\":9259:9289   */\n      gt\n        /* \"#utility.yul\":9256:9312   */\n      iszero\n      tag_282\n      jumpi\n        /* \"#utility.yul\":9292:9310   */\n      tag_283\n      tag_161\n      jump\t// in\n    tag_283:\n        /* \"#utility.yul\":9256:9312   */\n    tag_282:\n        /* \"#utility.yul\":9330:9359   */\n      tag_284\n        /* \"#utility.yul\":9352:9358   */\n      dup3\n        /* \"#utility.yul\":9330:9359   */\n      tag_146\n      jump\t// in\n    tag_284:\n        /* \"#utility.yul\":9322:9359   */\n      swap1\n      pop\n        /* \"#utility.yul\":9414:9418   */\n      0x20\n        /* \"#utility.yul\":9408:9412   */\n      dup2\n        /* \"#utility.yul\":9404:9419   */\n      add\n        /* \"#utility.yul\":9396:9419   */\n      swap1\n      pop\n        /* \"#utility.yul\":9118:9426   */\n      swap2\n      swap1\n      pop\n      jump\t// out\n        /* \"#utility.yul\":9432:9580   */\n    tag_165:\n        /* \"#utility.yul\":9530:9536   */\n      dup3\n        /* \"#utility.yul\":9525:9528   */\n      dup2\n        /* \"#utility.yul\":9520:9523   */\n      dup4\n        /* \"#utility.yul\":9507:9537   */\n      calldatacopy\n        /* \"#utility.yul\":9571:9572   */\n      0x00\n        /* \"#utility.yul\":9562:9568   */\n      dup4\n        /* \"#utility.yul\":9557:9560   */\n      dup4\n        /* \"#utility.yul\":9553:9569   */\n      add\n        /* \"#utility.yul\":9546:9573   */\n      mstore\n        /* \"#utility.yul\":9432:9580   */\n      pop\n      pop\n      pop\n      jump\t// out\n        /* \"#utility.yul\":9586:10011   */\n    tag_166:\n        /* \"#utility.yul\":9664:9669   */\n      0x00\n        /* \"#utility.yul\":9689:9755   */\n      tag_287\n        /* \"#utility.yul\":9705:9754   */\n      tag_288\n        /* \"#utility.yul\":9747:9753   */\n      dup5\n        /* \"#utility.yul\":9705:9754   */\n      tag_164\n      jump\t// in\n    tag_288:\n        /* \"#utility.yul\":9689:9755   */\n      tag_163\n      jump\t// in\n    tag_287:\n        /* \"#utility.yul\":9680:9755   */\n      swap1\n      pop\n        /* \"#utility.yul\":9778:9784   */\n      dup3\n        /* \"#utility.yul\":9771:9776   */\n      dup2\n        /* \"#utility.yul\":9764:9785   */\n      mstore\n        /* \"#utility.yul\":9816:9820   */\n      0x20\n        /* \"#utility.yul\":9809:9814   */\n      dup2\n        /* \"#utility.yul\":9805:9821   */\n      add\n        /* \"#utility.yul\":9854:9857   */\n      dup5\n        /* \"#utility.yul\":9845:9851   */\n      dup5\n        /* \"#utility.yul\":9840:9843   */\n      dup5\n        /* \"#utility.yul\":9836:9852   */\n      add\n        /* \"#utility.yul\":9833:9858   */\n      gt\n        /* \"#utility.yul\":9830:9942   */\n      iszero\n      tag_289\n      jumpi\n        /* \"#utility.yul\":9861:9940   */\n      tag_290\n      tag_160\n      jump\t// in\n    tag_290:\n        /* \"#utility.yul\":9830:9942   */\n    tag_289:\n        /* \"#utility.yul\":9951:10005   */\n      tag_291\n        /* \"#utility.yul\":9998:10004   */\n      dup5\n        /* \"#utility.yul\":9993:9996   */\n      dup3\n        /* \"#utility.yul\":9988:9991   */\n      dup6\n        /* \"#utility.yul\":9951:10005   */\n      tag_165\n      jump\t// in\n    tag_291:\n        /* \"#utility.yul\":9670:10011   */\n      pop\n        /* \"#utility.yul\":9586:10011   */\n      swap4\n      swap3\n      pop\n      pop\n      pop\n      jump\t// out\n        /* \"#utility.yul\":10031:10371   */\n    tag_167:\n        /* \"#utility.yul\":10087:10092   */\n      0x00\n        /* \"#utility.yul\":10136:10139   */\n      dup3\n        /* \"#utility.yul\":10129:10133   */\n      0x1f\n        /* \"#utility.yul\":10121:10127   */\n      dup4\n        /* \"#utility.yul\":10117:10134   */\n      add\n        /* \"#utility.yul\":10113:10140   */\n      slt\n        /* \"#utility.yul\":10103:10225   */\n      tag_293\n      jumpi\n        /* \"#utility.yul\":10144:10223   */\n      tag_294\n      tag_159\n      jump\t// in\n    tag_294:\n        /* \"#utility.yul\":10103:10225   */\n    tag_293:\n        /* \"#utility.yul\":10261:10267   */\n      dup2\n        /* \"#utility.yul\":10248:10268   */\n      calldataload\n        /* \"#utility.yul\":10286:10365   */\n      tag_295\n        /* \"#utility.yul\":10361:10364   */\n      dup5\n        /* \"#utility.yul\":10353:10359   */\n      dup3\n        /* \"#utility.yul\":10346:10350   */\n      0x20\n        /* \"#utility.yul\":10338:10344   */\n      dup7\n        /* \"#utility.yul\":10334:10351   */\n      add\n        /* \"#utility.yul\":10286:10365   */\n      tag_166\n      jump\t// in\n    tag_295:\n        /* \"#utility.yul\":10277:10365   */\n      swap2\n      pop\n        /* \"#utility.yul\":10093:10371   */\n      pop\n        /* \"#utility.yul\":10031:10371   */\n      swap3\n      swap2\n      pop\n      pop\n      jump\t// out\n        /* \"#utility.yul\":10377:10886   */\n    tag_29:\n        /* \"#utility.yul\":10446:10452   */\n      0x00\n        /* \"#utility.yul\":10495:10497   */\n      0x20\n        /* \"#utility.yul\":10483:10492   */\n      dup3\n        /* \"#utility.yul\":10474:10481   */\n      dup5\n        /* \"#utility.yul\":10470:10493   */\n      sub\n        /* \"#utility.yul\":10466:10498   */\n      slt\n        /* \"#utility.yul\":10463:10582   */\n      iszero\n      tag_297\n      jumpi\n        /* \"#utility.yul\":10501:10580   */\n      tag_298\n      tag_132\n      jump\t// in\n    tag_298:\n        /* \"#utility.yul\":10463:10582   */\n    tag_297:\n        /* \"#utility.yul\":10649:10650   */\n      0x00\n        /* \"#utility.yul\":10638:10647   */\n      dup3\n        /* \"#utility.yul\":10634:10651   */\n      add\n        /* \"#utility.yul\":10621:10652   */\n      calldataload\n        /* \"#utility.yul\":10679:10697   */\n      0xffffffffffffffff\n        /* \"#utility.yul\":10671:10677   */\n      dup2\n        /* \"#utility.yul\":10668:10698   */\n      gt\n        /* \"#utility.yul\":10665:10782   */\n      iszero\n      tag_299\n      jumpi\n        /* \"#utility.yul\":10701:10780   */\n      tag_300\n      tag_133\n      jump\t// in\n    tag_300:\n        /* \"#utility.yul\":10665:10782   */\n    tag_299:\n        /* \"#utility.yul\":10806:10869   */\n      tag_301\n        /* \"#utility.yul\":10861:10868   */\n      dup5\n        /* \"#utility.yul\":10852:10858   */\n      dup3\n        /* \"#utility.yul\":10841:10850   */\n      dup6\n        /* \"#utility.yul\":10837:10859   */\n      add\n        /* \"#utility.yul\":10806:10869   */\n      tag_167\n      jump\t// in\n    tag_301:\n        /* \"#utility.yul\":10796:10869   */\n      swap2\n      pop\n        /* \"#utility.yul\":10592:10879   */\n      pop\n        /* \"#utility.yul\":10377:10886   */\n      swap3\n      swap2\n      pop\n      pop\n      jump\t// out\n        /* \"#utility.yul\":10892:11221   */\n    tag_33:\n        /* \"#utility.yul\":10951:10957   */\n      0x00\n        /* \"#utility.yul\":11000:11002   */\n      0x20\n        /* \"#utility.yul\":10988:10997   */\n      dup3\n        /* \"#utility.yul\":10979:10986   */\n      dup5\n        /* \"#utility.yul\":10975:10998   */\n      sub\n        /* \"#utility.yul\":10971:11003   */\n      slt\n        /* \"#utility.yul\":10968:11087   */\n      iszero\n      tag_303\n      jumpi\n        /* \"#utility.yul\":11006:11085   */\n      tag_304\n      tag_132\n      jump\t// in\n    tag_304:\n        /* \"#utility.yul\":10968:11087   */\n    tag_303:\n        /* \"#utility.yul\":11126:11127   */\n      0x00\n        /* \"#utility.yul\":11151:11204   */\n      tag_305\n        /* \"#utility.yul\":11196:11203   */\n      dup5\n        /* \"#utility.yul\":11187:11193   */\n      dup3\n        /* \"#utility.yul\":11176:11185   */\n      dup6\n        /* \"#utility.yul\":11172:11194   */\n      add\n        /* \"#utility.yul\":11151:11204   */\n      tag_140\n      jump\t// in\n    tag_305:\n        /* \"#utility.yul\":11141:11204   */\n      swap2\n      pop\n        /* \"#utility.yul\":11097:11214   */\n      pop\n        /* \"#utility.yul\":10892:11221   */\n      swap3\n      swap2\n      pop\n      pop\n      jump\t// out\n        /* \"#utility.yul\":11227:11449   */\n    tag_44:\n        /* \"#utility.yul\":11320:11324   */\n      0x00\n        /* \"#utility.yul\":11358:11360   */\n      0x20\n        /* \"#utility.yul\":11347:11356   */\n      dup3\n        /* \"#utility.yul\":11343:11361   */\n      add\n        /* \"#utility.yul\":11335:11361   */\n      swap1\n      pop\n        /* \"#utility.yul\":11371:11442   */\n      tag_307\n        /* \"#utility.yul\":11439:11440   */\n      0x00\n        /* \"#utility.yul\":11428:11437   */\n      dup4\n        /* \"#utility.yul\":11424:11441   */\n      add\n        /* \"#utility.yul\":11415:11421   */\n      dup5\n        /* \"#utility.yul\":11371:11442   */\n      tag_142\n      jump\t// in\n    tag_307:\n        /* \"#utility.yul\":11227:11449   */\n      swap3\n      swap2\n      pop\n      pop\n      jump\t// out\n        /* \"#utility.yul\":11507:12636   */\n    tag_168:\n        /* \"#utility.yul\":11618:11621   */\n      0x00\n        /* \"#utility.yul\":11654:11658   */\n      0xa0\n        /* \"#utility.yul\":11649:11652   */\n      dup4\n        /* \"#utility.yul\":11645:11659   */\n      add\n        /* \"#utility.yul\":11739:11743   */\n      0x00\n        /* \"#utility.yul\":11732:11737   */\n      dup4\n        /* \"#utility.yul\":11728:11744   */\n      add\n        /* \"#utility.yul\":11722:11745   */\n      mload\n        /* \"#utility.yul\":11758:11821   */\n      tag_309\n        /* \"#utility.yul\":11815:11819   */\n      0x00\n        /* \"#utility.yul\":11810:11813   */\n      dup7\n        /* \"#utility.yul\":11806:11820   */\n      add\n        /* \"#utility.yul\":11792:11804   */\n      dup3\n        /* \"#utility.yul\":11758:11821   */\n      tag_151\n      jump\t// in\n    tag_309:\n        /* \"#utility.yul\":11669:11831   */\n      pop\n        /* \"#utility.yul\":11915:11919   */\n      0x20\n        /* \"#utility.yul\":11908:11913   */\n      dup4\n        /* \"#utility.yul\":11904:11920   */\n      add\n        /* \"#utility.yul\":11898:11921   */\n      mload\n        /* \"#utility.yul\":11934:11997   */\n      tag_310\n        /* \"#utility.yul\":11991:11995   */\n      0x20\n        /* \"#utility.yul\":11986:11989   */\n      dup7\n        /* \"#utility.yul\":11982:11996   */\n      add\n        /* \"#utility.yul\":11968:11980   */\n      dup3\n        /* \"#utility.yul\":11934:11997   */\n      tag_152\n      jump\t// in\n    tag_310:\n        /* \"#utility.yul\":11841:12007   */\n      pop\n        /* \"#utility.yul\":12092:12096   */\n      0x40\n        /* \"#utility.yul\":12085:12090   */\n      dup4\n        /* \"#utility.yul\":12081:12097   */\n      add\n        /* \"#utility.yul\":12075:12098   */\n      mload\n        /* \"#utility.yul\":12145:12148   */\n      dup5\n        /* \"#utility.yul\":12139:12143   */\n      dup3\n        /* \"#utility.yul\":12135:12149   */\n      sub\n        /* \"#utility.yul\":12128:12132   */\n      0x40\n        /* \"#utility.yul\":12123:12126   */\n      dup7\n        /* \"#utility.yul\":12119:12133   */\n      add\n        /* \"#utility.yul\":12112:12150   */\n      mstore\n        /* \"#utility.yul\":12171:12244   */\n      tag_311\n        /* \"#utility.yul\":12239:12243   */\n      dup3\n        /* \"#utility.yul\":12225:12237   */\n      dup3\n        /* \"#utility.yul\":12171:12244   */\n      tag_154\n      jump\t// in\n    tag_311:\n        /* \"#utility.yul\":12163:12244   */\n      swap2\n      pop\n        /* \"#utility.yul\":12017:12255   */\n      pop\n        /* \"#utility.yul\":12342:12346   */\n      0x60\n        /* \"#utility.yul\":12335:12340   */\n      dup4\n        /* \"#utility.yul\":12331:12347   */\n      add\n        /* \"#utility.yul\":12325:12348   */\n      mload\n        /* \"#utility.yul\":12361:12424   */\n      tag_312\n        /* \"#utility.yul\":12418:12422   */\n      0x60\n        /* \"#utility.yul\":12413:12416   */\n      dup7\n        /* \"#utility.yul\":12409:12423   */\n      add\n        /* \"#utility.yul\":12395:12407   */\n      dup3\n        /* \"#utility.yul\":12361:12424   */\n      tag_151\n      jump\t// in\n    tag_312:\n        /* \"#utility.yul\":12265:12434   */\n      pop\n        /* \"#utility.yul\":12517:12521   */\n      0x80\n        /* \"#utility.yul\":12510:12515   */\n      dup4\n        /* \"#utility.yul\":12506:12522   */\n      add\n        /* \"#utility.yul\":12500:12523   */\n      mload\n        /* \"#utility.yul\":12536:12599   */\n      tag_313\n        /* \"#utility.yul\":12593:12597   */\n      0x80\n        /* \"#utility.yul\":12588:12591   */\n      dup7\n        /* \"#utility.yul\":12584:12598   */\n      add\n        /* \"#utility.yul\":12570:12582   */\n      dup3\n        /* \"#utility.yul\":12536:12599   */\n      tag_151\n      jump\t// in\n    tag_313:\n        /* \"#utility.yul\":12444:12609   */\n      pop\n        /* \"#utility.yul\":12626:12630   */\n      dup1\n        /* \"#utility.yul\":12619:12630   */\n      swap2\n      pop\n        /* \"#utility.yul\":11623:12636   */\n      pop\n        /* \"#utility.yul\":11507:12636   */\n      swap3\n      swap2\n      pop\n      pop\n      jump\t// out\n        /* \"#utility.yul\":12642:12999   */\n    tag_49:\n        /* \"#utility.yul\":12777:12781   */\n      0x00\n        /* \"#utility.yul\":12815:12817   */\n      0x20\n        /* \"#utility.yul\":12804:12813   */\n      dup3\n        /* \"#utility.yul\":12800:12818   */\n      add\n        /* \"#utility.yul\":12792:12818   */\n      swap1\n      pop\n        /* \"#utility.yul\":12864:12873   */\n      dup2\n        /* \"#utility.yul\":12858:12862   */\n      dup2\n        /* \"#utility.yul\":12854:12874   */\n      sub\n        /* \"#utility.yul\":12850:12851   */\n      0x00\n        /* \"#utility.yul\":12839:12848   */\n      dup4\n        /* \"#utility.yul\":12835:12852   */\n      add\n        /* \"#utility.yul\":12828:12875   */\n      mstore\n        /* \"#utility.yul\":12892:12992   */\n      tag_315\n        /* \"#utility.yul\":12987:12991   */\n      dup2\n        /* \"#utility.yul\":12978:12984   */\n      dup5\n        /* \"#utility.yul\":12892:12992   */\n      tag_168\n      jump\t// in\n    tag_315:\n        /* \"#utility.yul\":12884:12992   */\n      swap1\n      pop\n        /* \"#utility.yul\":12642:12999   */\n      swap3\n      swap2\n      pop\n      pop\n      jump\t// out\n        /* \"#utility.yul\":13005:13185   */\n    tag_169:\n        /* \"#utility.yul\":13053:13130   */\n      0x4e487b7100000000000000000000000000000000000000000000000000000000\n        /* \"#utility.yul\":13050:13051   */\n      0x00\n        /* \"#utility.yul\":13043:13131   */\n      mstore\n        /* \"#utility.yul\":13150:13154   */\n      0x22\n        /* \"#utility.yul\":13147:13148   */\n      0x04\n        /* \"#utility.yul\":13140:13155   */\n      mstore\n        /* \"#utility.yul\":13174:13178   */\n      0x24\n        /* \"#utility.yul\":13171:13172   */\n      0x00\n        /* \"#utility.yul\":13164:13179   */\n      revert\n        /* \"#utility.yul\":13191:13511   */\n    tag_53:\n        /* \"#utility.yul\":13235:13241   */\n      0x00\n        /* \"#utility.yul\":13272:13273   */\n      0x02\n        /* \"#utility.yul\":13266:13270   */\n      dup3\n        /* \"#utility.yul\":13262:13274   */\n      div\n        /* \"#utility.yul\":13252:13274   */\n      swap1\n      pop\n        /* \"#utility.yul\":13319:13320   */\n      0x01\n        /* \"#utility.yul\":13313:13317   */\n      dup3\n        /* \"#utility.yul\":13309:13321   */\n      and\n        /* \"#utility.yul\":13340:13358   */\n      dup1\n        /* \"#utility.yul\":13330:13411   */\n      tag_318\n      jumpi\n        /* \"#utility.yul\":13396:13400   */\n      0x7f\n        /* \"#utility.yul\":13388:13394   */\n      dup3\n        /* \"#utility.yul\":13384:13401   */\n      and\n        /* \"#utility.yul\":13374:13401   */\n      swap2\n      pop\n        /* \"#utility.yul\":13330:13411   */\n    tag_318:\n        /* \"#utility.yul\":13458:13460   */\n      0x20\n        /* \"#utility.yul\":13450:13456   */\n      dup3\n        /* \"#utility.yul\":13447:13461   */\n      lt\n        /* \"#utility.yul\":13427:13445   */\n      dup2\n        /* \"#utility.yul\":13424:13462   */\n      sub\n        /* \"#utility.yul\":13421:13505   */\n      tag_319\n      jumpi\n        /* \"#utility.yul\":13477:13495   */\n      tag_320\n      tag_169\n      jump\t// in\n    tag_320:\n        /* \"#utility.yul\":13421:13505   */\n    tag_319:\n        /* \"#utility.yul\":13242:13511   */\n      pop\n        /* \"#utility.yul\":13191:13511   */\n      swap2\n      swap1\n      pop\n      jump\t// out\n        /* \"#utility.yul\":13517:13685   */\n    tag_170:\n        /* \"#utility.yul\":13657:13677   */\n      0x547765657420697320746f6f206c6f6e67210000000000000000000000000000\n        /* \"#utility.yul\":13653:13654   */\n      0x00\n        /* \"#utility.yul\":13645:13651   */\n      dup3\n        /* \"#utility.yul\":13641:13655   */\n      add\n        /* \"#utility.yul\":13634:13678   */\n      mstore\n        /* \"#utility.yul\":13517:13685   */\n      pop\n      jump\t// out\n        /* \"#utility.yul\":13691:14057   */\n    tag_171:\n        /* \"#utility.yul\":13833:13836   */\n      0x00\n        /* \"#utility.yul\":13854:13921   */\n      tag_323\n        /* \"#utility.yul\":13918:13920   */\n      0x12\n        /* \"#utility.yul\":13913:13916   */\n      dup4\n        /* \"#utility.yul\":13854:13921   */\n      tag_144\n      jump\t// in\n    tag_323:\n        /* \"#utility.yul\":13847:13921   */\n      swap2\n      pop\n        /* \"#utility.yul\":13930:14023   */\n      tag_324\n        /* \"#utility.yul\":14019:14022   */\n      dup3\n        /* \"#utility.yul\":13930:14023   */\n      tag_170\n      jump\t// in\n    tag_324:\n        /* \"#utility.yul\":14048:14050   */\n      0x20\n        /* \"#utility.yul\":14043:14046   */\n      dup3\n        /* \"#utility.yul\":14039:14051   */\n      add\n        /* \"#utility.yul\":14032:14051   */\n      swap1\n      pop\n        /* \"#utility.yul\":13691:14057   */\n      swap2\n      swap1\n      pop\n      jump\t// out\n        /* \"#utility.yul\":14063:14482   */\n    tag_70:\n        /* \"#utility.yul\":14229:14233   */\n      0x00\n        /* \"#utility.yul\":14267:14269   */\n      0x20\n        /* \"#utility.yul\":14256:14265   */\n      dup3\n        /* \"#utility.yul\":14252:14270   */\n      add\n        /* \"#utility.yul\":14244:14270   */\n      swap1\n      pop\n        /* \"#utility.yul\":14316:14325   */\n      dup2\n        /* \"#utility.yul\":14310:14314   */\n      dup2\n        /* \"#utility.yul\":14306:14326   */\n      sub\n        /* \"#utility.yul\":14302:14303   */\n      0x00\n        /* \"#utility.yul\":14291:14300   */\n      dup4\n        /* \"#utility.yul\":14287:14304   */\n      add\n        /* \"#utility.yul\":14280:14327   */\n      mstore\n        /* \"#utility.yul\":14344:14475   */\n      tag_326\n        /* \"#utility.yul\":14470:14474   */\n      dup2\n        /* \"#utility.yul\":14344:14475   */\n      tag_171\n      jump\t// in\n    tag_326:\n        /* \"#utility.yul\":14336:14475   */\n      swap1\n      pop\n        /* \"#utility.yul\":14063:14482   */\n      swap2\n      swap1\n      pop\n      jump\t// out\n        /* \"#utility.yul\":14488:14629   */\n    tag_172:\n        /* \"#utility.yul\":14537:14541   */\n      0x00\n        /* \"#utility.yul\":14560:14563   */\n      dup2\n        /* \"#utility.yul\":14552:14563   */\n      swap1\n      pop\n        /* \"#utility.yul\":14583:14586   */\n      dup2\n        /* \"#utility.yul\":14580:14581   */\n      0x00\n        /* \"#utility.yul\":14573:14587   */\n      mstore\n        /* \"#utility.yul\":14617:14621   */\n      0x20\n        /* \"#utility.yul\":14614:14615   */\n      0x00\n        /* \"#utility.yul\":14604:14622   */\n      keccak256\n        /* \"#utility.yul\":14596:14622   */\n      swap1\n      pop\n        /* \"#utility.yul\":14488:14629   */\n      swap2\n      swap1\n      pop\n      jump\t// out\n        /* \"#utility.yul\":14635:14728   */\n    tag_173:\n        /* \"#utility.yul\":14672:14678   */\n      0x00\n        /* \"#utility.yul\":14719:14721   */\n      0x20\n        /* \"#utility.yul\":14714:14716   */\n      0x1f\n        /* \"#utility.yul\":14707:14712   */\n      dup4\n        /* \"#utility.yul\":14703:14717   */\n      add\n        /* \"#utility.yul\":14699:14722   */\n      div\n        /* \"#utility.yul\":14689:14722   */\n      swap1\n      pop\n        /* \"#utility.yul\":14635:14728   */\n      swap2\n      swap1\n      pop\n      jump\t// out\n        /* \"#utility.yul\":14734:14841   */\n    tag_174:\n        /* \"#utility.yul\":14778:14786   */\n      0x00\n        /* \"#utility.yul\":14828:14833   */\n      dup3\n        /* \"#utility.yul\":14822:14826   */\n      dup3\n        /* \"#utility.yul\":14818:14834   */\n      shl\n        /* \"#utility.yul\":14797:14834   */\n      swap1\n      pop\n        /* \"#utility.yul\":14734:14841   */\n      swap3\n      swap2\n      pop\n      pop\n      jump\t// out\n        /* \"#utility.yul\":14847:15240   */\n    tag_175:\n        /* \"#utility.yul\":14916:14922   */\n      0x00\n        /* \"#utility.yul\":14966:14967   */\n      0x08\n        /* \"#utility.yul\":14954:14964   */\n      dup4\n        /* \"#utility.yul\":14950:14968   */\n      mul\n        /* \"#utility.yul\":14989:15086   */\n      tag_331\n        /* \"#utility.yul\":15019:15085   */\n      0xffffffffffffffffffffffffffffffffffffffffffffffffffffffffffffffff\n        /* \"#utility.yul\":15008:15017   */\n      dup3\n        /* \"#utility.yul\":14989:15086   */\n      tag_174\n      jump\t// in\n    tag_331:\n        /* \"#utility.yul\":15107:15146   */\n      tag_332\n        /* \"#utility.yul\":15137:15145   */\n      dup7\n        /* \"#utility.yul\":15126:15135   */\n      dup4\n        /* \"#utility.yul\":15107:15146   */\n      tag_174\n      jump\t// in\n    tag_332:\n        /* \"#utility.yul\":15095:15146   */\n      swap6\n      pop\n        /* \"#utility.yul\":15179:15183   */\n      dup1\n        /* \"#utility.yul\":15175:15184   */\n      not\n        /* \"#utility.yul\":15168:15173   */\n      dup5\n        /* \"#utility.yul\":15164:15185   */\n      and\n        /* \"#utility.yul\":15155:15185   */\n      swap4\n      pop\n        /* \"#utility.yul\":15228:15232   */\n      dup1\n        /* \"#utility.yul\":15218:15226   */\n      dup7\n        /* \"#utility.yul\":15214:15233   */\n      and\n        /* \"#utility.yul\":15207:15212   */\n      dup5\n        /* \"#utility.yul\":15204:15234   */\n      or\n        /* \"#utility.yul\":15194:15234   */\n      swap3\n      pop\n        /* \"#utility.yul\":14923:15240   */\n      pop\n      pop\n        /* \"#utility.yul\":14847:15240   */\n      swap4\n      swap3\n      pop\n      pop\n      pop\n      jump\t// out\n        /* \"#utility.yul\":15246:15306   */\n    tag_176:\n        /* \"#utility.yul\":15274:15277   */\n      0x00\n        /* \"#utility.yul\":15295:15300   */\n      dup2\n        /* \"#utility.yul\":15288:15300   */\n      swap1\n      pop\n        /* \"#utility.yul\":15246:15306   */\n      swap2\n      swap1\n      pop\n      jump\t// out\n        /* \"#utility.yul\":15312:15454   */\n    tag_177:\n        /* \"#utility.yul\":15362:15371   */\n      0x00\n        /* \"#utility.yul\":15395:15448   */\n      tag_335\n        /* \"#utility.yul\":15413:15447   */\n      tag_336\n        /* \"#utility.yul\":15422:15446   */\n      tag_337\n        /* \"#utility.yul\":15440:15445   */\n      dup5\n        /* \"#utility.yul\":15422:15446   */\n      tag_138\n      jump\t// in\n    tag_337:\n        /* \"#utility.yul\":15413:15447   */\n      tag_176\n      jump\t// in\n    tag_336:\n        /* \"#utility.yul\":15395:15448   */\n      tag_138\n      jump\t// in\n    tag_335:\n        /* \"#utility.yul\":15382:15448   */\n      swap1\n      pop\n        /* \"#utility.yul\":15312:15454   */\n      swap2\n      swap1\n      pop\n      jump\t// out\n        /* \"#utility.yul\":15460:15535   */\n    tag_178:\n        /* \"#utility.yul\":15503:15506   */\n      0x00\n        /* \"#utility.yul\":15524:15529   */\n      dup2\n        /* \"#utility.yul\":15517:15529   */\n      swap1\n      pop\n        /* \"#utility.yul\":15460:15535   */\n      swap2\n      swap1\n      pop\n      jump\t// out\n        /* \"#utility.yul\":15541:15810   */\n    tag_179:\n        /* \"#utility.yul\":15651:15690   */\n      tag_340\n        /* \"#utility.yul\":15682:15689   */\n      dup4\n        /* \"#utility.yul\":15651:15690   */\n      tag_177\n      jump\t// in\n    tag_340:\n        /* \"#utility.yul\":15712:15803   */\n      tag_341\n        /* \"#utility.yul\":15761:15802   */\n      tag_342\n        /* \"#utility.yul\":15785:15801   */\n      dup3\n        /* \"#utility.yul\":15761:15802   */\n      tag_178\n      jump\t// in\n    tag_342:\n        /* \"#utility.yul\":15753:15759   */\n      dup5\n        /* \"#utility.yul\":15746:15750   */\n      dup5\n        /* \"#utility.yul\":15740:15751   */\n      sload\n        /* \"#utility.yul\":15712:15803   */\n      tag_175\n      jump\t// in\n    tag_341:\n        /* \"#utility.yul\":15706:15710   */\n      dup3\n        /* \"#utility.yul\":15699:15804   */\n      sstore\n        /* \"#utility.yul\":15617:15810   */\n      pop\n        /* \"#utility.yul\":15541:15810   */\n      pop\n      pop\n      pop\n      jump\t// out\n        /* \"#utility.yul\":15816:15889   */\n    tag_180:\n        /* \"#utility.yul\":15861:15864   */\n      0x00\n        /* \"#utility.yul\":15816:15889   */\n      swap1\n      jump\t// out\n        /* \"#utility.yul\":15895:16084   */\n    tag_181:\n        /* \"#utility.yul\":15972:16004   */\n      tag_345\n      tag_180\n      jump\t// in\n    tag_345:\n        /* \"#utility.yul\":16013:16078   */\n      tag_346\n        /* \"#utility.yul\":16071:16077   */\n      dup2\n        /* \"#utility.yul\":16063:16069   */\n      dup5\n        /* \"#utility.yul\":16057:16061   */\n      dup5\n        /* \"#utility.yul\":16013:16078   */\n      tag_179\n      jump\t// in\n    tag_346:\n        /* \"#utility.yul\":15948:16084   */\n      pop\n        /* \"#utility.yul\":15895:16084   */\n      pop\n      pop\n      jump\t// out\n        /* \"#utility.yul\":16090:16276   */\n    tag_182:\n        /* \"#utility.yul\":16150:16270   */\n    tag_348:\n        /* \"#utility.yul\":16167:16170   */\n      dup2\n        /* \"#utility.yul\":16160:16165   */\n      dup2\n        /* \"#utility.yul\":16157:16171   */\n      lt\n        /* \"#utility.yul\":16150:16270   */\n      iszero\n      tag_350\n      jumpi\n        /* \"#utility.yul\":16221:16260   */\n      tag_351\n        /* \"#utility.yul\":16258:16259   */\n      0x00\n        /* \"#utility.yul\":16251:16256   */\n      dup3\n        /* \"#utility.yul\":16221:16260   */\n      tag_181\n      jump\t// in\n    tag_351:\n        /* \"#utility.yul\":16194:16195   */\n      0x01\n        /* \"#utility.yul\":16187:16192   */\n      dup2\n        /* \"#utility.yul\":16183:16196   */\n      add\n        /* \"#utility.yul\":16174:16196   */\n      swap1\n      pop\n        /* \"#utility.yul\":16150:16270   */\n      jump(tag_348)\n    tag_350:\n        /* \"#utility.yul\":16090:16276   */\n      pop\n      pop\n      jump\t// out\n        /* \"#utility.yul\":16282:16825   */\n    tag_183:\n        /* \"#utility.yul\":16383:16385   */\n      0x1f\n        /* \"#utility.yul\":16378:16381   */\n      dup3\n        /* \"#utility.yul\":16375:16386   */\n      gt\n        /* \"#utility.yul\":16372:16818   */\n      iszero\n      tag_353\n      jumpi\n        /* \"#utility.yul\":16417:16455   */\n      tag_354\n        /* \"#utility.yul\":16449:16454   */\n      dup2\n        /* \"#utility.yul\":16417:16455   */\n      tag_172\n      jump\t// in\n    tag_354:\n        /* \"#utility.yul\":16501:16530   */\n      tag_355\n        /* \"#utility.yul\":16519:16529   */\n      dup5\n        /* \"#utility.yul\":16501:16530   */\n      tag_173\n      jump\t// in\n    tag_355:\n        /* \"#utility.yul\":16491:16499   */\n      dup2\n        /* \"#utility.yul\":16487:16531   */\n      add\n        /* \"#utility.yul\":16684:16686   */\n      0x20\n        /* \"#utility.yul\":16672:16682   */\n      dup6\n        /* \"#utility.yul\":16669:16687   */\n      lt\n        /* \"#utility.yul\":16666:16715   */\n      iszero\n      tag_356\n      jumpi\n        /* \"#utility.yul\":16705:16713   */\n      dup2\n        /* \"#utility.yul\":16690:16713   */\n      swap1\n      pop\n        /* \"#utility.yul\":16666:16715   */\n    tag_356:\n        /* \"#utility.yul\":16728:16808   */\n      tag_357\n        /* \"#utility.yul\":16784:16806   */\n      tag_358\n        /* \"#utility.yul\":16802:16805   */\n      dup6\n        /* \"#utility.yul\":16784:16806   */\n      tag_173\n      jump\t// in\n    tag_358:\n        /* \"#utility.yul\":16774:16782   */\n      dup4\n        /* \"#utility.yul\":16770:16807   */\n      add\n        /* \"#utility.yul\":16757:16768   */\n      dup3\n        /* \"#utility.yul\":16728:16808   */\n      tag_182\n      jump\t// in\n    tag_357:\n        /* \"#utility.yul\":16387:16818   */\n      pop\n      pop\n        /* \"#utility.yul\":16372:16818   */\n    tag_353:\n        /* \"#utility.yul\":16282:16825   */\n      pop\n      pop\n      pop\n      jump\t// out\n        /* \"#utility.yul\":16831:16948   */\n    tag_184:\n        /* \"#utility.yul\":16885:16893   */\n      0x00\n        /* \"#utility.yul\":16935:16940   */\n      dup3\n        /* \"#utility.yul\":16929:16933   */\n      dup3\n        /* \"#utility.yul\":16925:16941   */\n      shr\n        /* \"#utility.yul\":16904:16941   */\n      swap1\n      pop\n        /* \"#utility.yul\":16831:16948   */\n      swap3\n      swap2\n      pop\n      pop\n      jump\t// out\n        /* \"#utility.yul\":16954:17123   */\n    tag_185:\n        /* \"#utility.yul\":16998:17004   */\n      0x00\n        /* \"#utility.yul\":17031:17082   */\n      tag_361\n        /* \"#utility.yul\":17079:17080   */\n      0x00\n        /* \"#utility.yul\":17075:17081   */\n      not\n        /* \"#utility.yul\":17067:17072   */\n      dup5\n        /* \"#utility.yul\":17064:17065   */\n      0x08\n        /* \"#utility.yul\":17060:17073   */\n      mul\n        /* \"#utility.yul\":17031:17082   */\n      tag_184\n      jump\t// in\n    tag_361:\n        /* \"#utility.yul\":17027:17083   */\n      not\n        /* \"#utility.yul\":17112:17116   */\n      dup1\n        /* \"#utility.yul\":17106:17110   */\n      dup4\n        /* \"#utility.yul\":17102:17117   */\n      and\n        /* \"#utility.yul\":17092:17117   */\n      swap2\n      pop\n        /* \"#utility.yul\":17005:17123   */\n      pop\n        /* \"#utility.yul\":16954:17123   */\n      swap3\n      swap2\n      pop\n      pop\n      jump\t// out\n        /* \"#utility.yul\":17128:17423   */\n    tag_186:\n        /* \"#utility.yul\":17204:17208   */\n      0x00\n        /* \"#utility.yul\":17350:17379   */\n      tag_363\n        /* \"#utility.yul\":17375:17378   */\n      dup4\n        /* \"#utility.yul\":17369:17373   */\n      dup4\n        /* \"#utility.yul\":17350:17379   */\n      tag_185\n      jump\t// in\n    tag_363:\n        /* \"#utility.yul\":17342:17379   */\n      swap2\n      pop\n        /* \"#utility.yul\":17412:17415   */\n      dup3\n        /* \"#utility.yul\":17409:17410   */\n      0x02\n        /* \"#utility.yul\":17405:17416   */\n      mul\n        /* \"#utility.yul\":17399:17403   */\n      dup3\n        /* \"#utility.yul\":17396:17417   */\n      or\n        /* \"#utility.yul\":17388:17417   */\n      swap1\n      pop\n        /* \"#utility.yul\":17128:17423   */\n      swap3\n      swap2\n      pop\n      pop\n      jump\t// out\n        /* \"#utility.yul\":17428:18823   */\n    tag_73:\n        /* \"#utility.yul\":17545:17582   */\n      tag_365\n        /* \"#utility.yul\":17578:17581   */\n      dup3\n        /* \"#utility.yul\":17545:17582   */\n      tag_143\n      jump\t// in\n    tag_365:\n        /* \"#utility.yul\":17647:17665   */\n      0xffffffffffffffff\n        /* \"#utility.yul\":17639:17645   */\n      dup2\n        /* \"#utility.yul\":17636:17666   */\n      gt\n        /* \"#utility.yul\":17633:17689   */\n      iszero\n      tag_366\n      jumpi\n        /* \"#utility.yul\":17669:17687   */\n      tag_367\n      tag_161\n      jump\t// in\n    tag_367:\n        /* \"#utility.yul\":17633:17689   */\n    tag_366:\n        /* \"#utility.yul\":17713:17751   */\n      tag_368\n        /* \"#utility.yul\":17745:17749   */\n      dup3\n        /* \"#utility.yul\":17739:17750   */\n      sload\n        /* \"#utility.yul\":17713:17751   */\n      tag_53\n      jump\t// in\n    tag_368:\n        /* \"#utility.yul\":17798:17865   */\n      tag_369\n        /* \"#utility.yul\":17858:17864   */\n      dup3\n        /* \"#utility.yul\":17850:17856   */\n      dup3\n        /* \"#utility.yul\":17844:17848   */\n      dup6\n        /* \"#utility.yul\":17798:17865   */\n      tag_183\n      jump\t// in\n    tag_369:\n        /* \"#utility.yul\":17892:17893   */\n      0x00\n        /* \"#utility.yul\":17916:17920   */\n      0x20\n        /* \"#utility.yul\":17903:17920   */\n      swap1\n      pop\n        /* \"#utility.yul\":17948:17950   */\n      0x1f\n        /* \"#utility.yul\":17940:17946   */\n      dup4\n        /* \"#utility.yul\":17937:17951   */\n      gt\n        /* \"#utility.yul\":17965:17966   */\n      0x01\n        /* \"#utility.yul\":17960:18578   */\n      dup2\n      eq\n      tag_371\n      jumpi\n        /* \"#utility.yul\":18622:18623   */\n      0x00\n        /* \"#utility.yul\":18639:18645   */\n      dup5\n        /* \"#utility.yul\":18636:18713   */\n      iszero\n      tag_372\n      jumpi\n        /* \"#utility.yul\":18688:18697   */\n      dup3\n        /* \"#utility.yul\":18683:18686   */\n      dup8\n        /* \"#utility.yul\":18679:18698   */\n      add\n        /* \"#utility.yul\":18673:18699   */\n      mload\n        /* \"#utility.yul\":18664:18699   */\n      swap1\n      pop\n        /* \"#utility.yul\":18636:18713   */\n    tag_372:\n        /* \"#utility.yul\":18739:18806   */\n      tag_373\n        /* \"#utility.yul\":18799:18805   */\n      dup6\n        /* \"#utility.yul\":18792:18797   */\n      dup3\n        /* \"#utility.yul\":18739:18806   */\n      tag_186\n      jump\t// in\n    tag_373:\n        /* \"#utility.yul\":18733:18737   */\n      dup7\n        /* \"#utility.yul\":18726:18807   */\n      sstore\n        /* \"#utility.yul\":18595:18817   */\n      pop\n        /* \"#utility.yul\":17930:18817   */\n      jump(tag_370)\n        /* \"#utility.yul\":17960:18578   */\n    tag_371:\n        /* \"#utility.yul\":18012:18016   */\n      0x1f\n        /* \"#utility.yul\":18008:18017   */\n      not\n        /* \"#utility.yul\":18000:18006   */\n      dup5\n        /* \"#utility.yul\":17996:18018   */\n      and\n        /* \"#utility.yul\":18046:18083   */\n      tag_374\n        /* \"#utility.yul\":18078:18082   */\n      dup7\n        /* \"#utility.yul\":18046:18083   */\n      tag_172\n      jump\t// in\n    tag_374:\n        /* \"#utility.yul\":18105:18106   */\n      0x00\n        /* \"#utility.yul\":18119:18327   */\n    tag_375:\n        /* \"#utility.yul\":18133:18140   */\n      dup3\n        /* \"#utility.yul\":18130:18131   */\n      dup2\n        /* \"#utility.yul\":18127:18141   */\n      lt\n        /* \"#utility.yul\":18119:18327   */\n      iszero\n      tag_377\n      jumpi\n        /* \"#utility.yul\":18212:18221   */\n      dup5\n        /* \"#utility.yul\":18207:18210   */\n      dup10\n        /* \"#utility.yul\":18203:18222   */\n      add\n        /* \"#utility.yul\":18197:18223   */\n      mload\n        /* \"#utility.yul\":18189:18195   */\n      dup3\n        /* \"#utility.yul\":18182:18224   */\n      sstore\n        /* \"#utility.yul\":18263:18264   */\n      0x01\n        /* \"#utility.yul\":18255:18261   */\n      dup3\n        /* \"#utility.yul\":18251:18265   */\n      add\n        /* \"#utility.yul\":18241:18265   */\n      swap2\n      pop\n        /* \"#utility.yul\":18310:18312   */\n      0x20\n        /* \"#utility.yul\":18299:18308   */\n      dup6\n        /* \"#utility.yul\":18295:18313   */\n      add\n        /* \"#utility.yul\":18282:18313   */\n      swap5\n      pop\n        /* \"#utility.yul\":18156:18160   */\n      0x20\n        /* \"#utility.yul\":18153:18154   */\n      dup2\n        /* \"#utility.yul\":18149:18161   */\n      add\n        /* \"#utility.yul\":18144:18161   */\n      swap1\n      pop\n        /* \"#utility.yul\":18119:18327   */\n      jump(tag_375)\n    tag_377:\n        /* \"#utility.yul\":18355:18361   */\n      dup7\n        /* \"#utility.yul\":18346:18353   */\n      dup4\n        /* \"#utility.yul\":18343:18362   */\n      lt\n        /* \"#utility.yul\":18340:18519   */\n      iszero\n      tag_378\n      jumpi\n        /* \"#utility.yul\":18413:18422   */\n      dup5\n        /* \"#utility.yul\":18408:18411   */\n      dup10\n        /* \"#utility.yul\":18404:18423   */\n      add\n        /* \"#utility.yul\":18398:18424   */\n      mload\n        /* \"#utility.yul\":18456:18504   */\n      tag_379\n        /* \"#utility.yul\":18498:18502   */\n      0x1f\n        /* \"#utility.yul\":18490:18496   */\n      dup10\n        /* \"#utility.yul\":18486:18503   */\n      and\n        /* \"#utility.yul\":18475:18484   */\n      dup3\n        /* \"#utility.yul\":18456:18504   */\n      tag_185\n      jump\t// in\n    tag_379:\n        /* \"#utility.yul\":18448:18454   */\n      dup4\n        /* \"#utility.yul\":18441:18505   */\n      sstore\n        /* \"#utility.yul\":18363:18519   */\n      pop\n        /* \"#utility.yul\":18340:18519   */\n    tag_378:\n        /* \"#utility.yul\":18565:18566   */\n      0x01\n        /* \"#utility.yul\":18561:18562   */\n      0x02\n        /* \"#utility.yul\":18553:18559   */\n      dup9\n        /* \"#utility.yul\":18549:18563   */\n      mul\n        /* \"#utility.yul\":18545:18567   */\n      add\n        /* \"#utility.yul\":18539:18543   */\n      dup9\n        /* \"#utility.yul\":18532:18568   */\n      sstore\n        /* \"#utility.yul\":17967:18578   */\n      pop\n      pop\n      pop\n        /* \"#utility.yul\":17930:18817   */\n    tag_370:\n      pop\n        /* \"#utility.yul\":17520:18823   */\n      pop\n      pop\n      pop\n        /* \"#utility.yul\":17428:18823   */\n      pop\n      pop\n      jump\t// out\n        /* \"#utility.yul\":18829:19473   */\n    tag_75:\n        /* \"#utility.yul\":19026:19030   */\n      0x00\n        /* \"#utility.yul\":19064:19067   */\n      0x80\n        /* \"#utility.yul\":19053:19062   */\n      dup3\n        /* \"#utility.yul\":19049:19068   */\n      add\n        /* \"#utility.yul\":19041:19068   */\n      swap1\n      pop\n        /* \"#utility.yul\":19078:19149   */\n      tag_381\n        /* \"#utility.yul\":19146:19147   */\n      0x00\n        /* \"#utility.yul\":19135:19144   */\n      dup4\n        /* \"#utility.yul\":19131:19148   */\n      add\n        /* \"#utility.yul\":19122:19128   */\n      dup8\n        /* \"#utility.yul\":19078:19149   */\n      tag_141\n      jump\t// in\n    tag_381:\n        /* \"#utility.yul\":19159:19231   */\n      tag_382\n        /* \"#utility.yul\":19227:19229   */\n      0x20\n        /* \"#utility.yul\":19216:19225   */\n      dup4\n        /* \"#utility.yul\":19212:19230   */\n      add\n        /* \"#utility.yul\":19203:19209   */\n      dup7\n        /* \"#utility.yul\":19159:19231   */\n      tag_142\n      jump\t// in\n    tag_382:\n        /* \"#utility.yul\":19278:19287   */\n      dup2\n        /* \"#utility.yul\":19272:19276   */\n      dup2\n        /* \"#utility.yul\":19268:19288   */\n      sub\n        /* \"#utility.yul\":19263:19265   */\n      0x40\n        /* \"#utility.yul\":19252:19261   */\n      dup4\n        /* \"#utility.yul\":19248:19266   */\n      add\n        /* \"#utility.yul\":19241:19289   */\n      mstore\n        /* \"#utility.yul\":19306:19384   */\n      tag_383\n        /* \"#utility.yul\":19379:19383   */\n      dup2\n        /* \"#utility.yul\":19370:19376   */\n      dup6\n        /* \"#utility.yul\":19306:19384   */\n      tag_147\n      jump\t// in\n    tag_383:\n        /* \"#utility.yul\":19298:19384   */\n      swap1\n      pop\n        /* \"#utility.yul\":19394:19466   */\n      tag_384\n        /* \"#utility.yul\":19462:19464   */\n      0x60\n        /* \"#utility.yul\":19451:19460   */\n      dup4\n        /* \"#utility.yul\":19447:19465   */\n      add\n        /* \"#utility.yul\":19438:19444   */\n      dup5\n        /* \"#utility.yul\":19394:19466   */\n      tag_141\n      jump\t// in\n    tag_384:\n        /* \"#utility.yul\":18829:19473   */\n      swap6\n      swap5\n      pop\n      pop\n      pop\n      pop\n      pop\n      jump\t// out\n        /* \"#utility.yul\":19479:19651   */\n    tag_187:\n        /* \"#utility.yul\":19619:19643   */\n      0x596f7520617265206e6f74207265676973746572656400000000000000000000\n        /* \"#utility.yul\":19615:19616   */\n      0x00\n        /* \"#utility.yul\":19607:19613   */\n      dup3\n        /* \"#utility.yul\":19603:19617   */\n      add\n        /* \"#utility.yul\":19596:19644   */\n      mstore\n        /* \"#utility.yul\":19479:19651   */\n      pop\n      jump\t// out\n        /* \"#utility.yul\":19657:20023   */\n    tag_188:\n        /* \"#utility.yul\":19799:19802   */\n      0x00\n        /* \"#utility.yul\":19820:19887   */\n      tag_387\n        /* \"#utility.yul\":19884:19886   */\n      0x16\n        /* \"#utility.yul\":19879:19882   */\n      dup4\n        /* \"#utility.yul\":19820:19887   */\n      tag_144\n      jump\t// in\n    tag_387:\n        /* \"#utility.yul\":19813:19887   */\n      swap2\n      pop\n        /* \"#utility.yul\":19896:19989   */\n      tag_388\n        /* \"#utility.yul\":19985:19988   */\n      dup3\n        /* \"#utility.yul\":19896:19989   */\n      tag_187\n      jump\t// in\n    tag_388:\n        /* \"#utility.yul\":20014:20016   */\n      0x20\n        /* \"#utility.yul\":20009:20012   */\n      dup3\n        /* \"#utility.yul\":20005:20017   */\n      add\n        /* \"#utility.yul\":19998:20017   */\n      swap1\n      pop\n        /* \"#utility.yul\":19657:20023   */\n      swap2\n      swap1\n      pop\n      jump\t// out\n        /* \"#utility.yul\":20029:20448   */\n    tag_79:\n        /* \"#utility.yul\":20195:20199   */\n      0x00\n        /* \"#utility.yul\":20233:20235   */\n      0x20\n        /* \"#utility.yul\":20222:20231   */\n      dup3\n        /* \"#utility.yul\":20218:20236   */\n      add\n        /* \"#utility.yul\":20210:20236   */\n      swap1\n      pop\n        /* \"#utility.yul\":20282:20291   */\n      dup2\n        /* \"#utility.yul\":20276:20280   */\n      dup2\n        /* \"#utility.yul\":20272:20292   */\n      sub\n        /* \"#utility.yul\":20268:20269   */\n      0x00\n        /* \"#utility.yul\":20257:20266   */\n      dup4\n        /* \"#utility.yul\":20253:20270   */\n      add\n        /* \"#utility.yul\":20246:20293   */\n      mstore\n        /* \"#utility.yul\":20310:20441   */\n      tag_390\n        /* \"#utility.yul\":20436:20440   */\n      dup2\n        /* \"#utility.yul\":20310:20441   */\n      tag_188\n      jump\t// in\n    tag_390:\n        /* \"#utility.yul\":20302:20441   */\n      swap1\n      pop\n        /* \"#utility.yul\":20029:20448   */\n      swap2\n      swap1\n      pop\n      jump\t// out\n        /* \"#utility.yul\":20454:20634   */\n    tag_84:\n        /* \"#utility.yul\":20502:20579   */\n      0x4e487b7100000000000000000000000000000000000000000000000000000000\n        /* \"#utility.yul\":20499:20500   */\n      0x00\n        /* \"#utility.yul\":20492:20580   */\n      mstore\n        /* \"#utility.yul\":20599:20603   */\n      0x32\n        /* \"#utility.yul\":20596:20597   */\n      0x04\n        /* \"#utility.yul\":20589:20604   */\n      mstore\n        /* \"#utility.yul\":20623:20627   */\n      0x24\n        /* \"#utility.yul\":20620:20621   */\n      0x00\n        /* \"#utility.yul\":20613:20628   */\n      revert\n        /* \"#utility.yul\":20640:20810   */\n    tag_189:\n        /* \"#utility.yul\":20780:20802   */\n      0x547765657420646f6573206e6f74206578697374000000000000000000000000\n        /* \"#utility.yul\":20776:20777   */\n      0x00\n        /* \"#utility.yul\":20768:20774   */\n      dup3\n        /* \"#utility.yul\":20764:20778   */\n      add\n        /* \"#utility.yul\":20757:20803   */\n      mstore\n        /* \"#utility.yul\":20640:20810   */\n      pop\n      jump\t// out\n        /* \"#utility.yul\":20816:21182   */\n    tag_190:\n        /* \"#utility.yul\":20958:20961   */\n      0x00\n        /* \"#utility.yul\":20979:21046   */\n      tag_394\n        /* \"#utility.yul\":21043:21045   */\n      0x14\n        /* \"#utility.yul\":21038:21041   */\n      dup4\n        /* \"#utility.yul\":20979:21046   */\n      tag_144\n      jump\t// in\n    tag_394:\n        /* \"#utility.yul\":20972:21046   */\n      swap2\n      pop\n        /* \"#utility.yul\":21055:21148   */\n      tag_395\n        /* \"#utility.yul\":21144:21147   */\n      dup3\n        /* \"#utility.yul\":21055:21148   */\n      tag_189\n      jump\t// in\n    tag_395:\n        /* \"#utility.yul\":21173:21175   */\n      0x20\n        /* \"#utility.yul\":21168:21171   */\n      dup3\n        /* \"#utility.yul\":21164:21176   */\n      add\n        /* \"#utility.yul\":21157:21176   */\n      swap1\n      pop\n        /* \"#utility.yul\":20816:21182   */\n      swap2\n      swap1\n      pop\n      jump\t// out\n        /* \"#utility.yul\":21188:21607   */\n    tag_88:\n        /* \"#utility.yul\":21354:21358   */\n      0x00\n        /* \"#utility.yul\":21392:21394   */\n      0x20\n        /* \"#utility.yul\":21381:21390   */\n      dup3\n        /* \"#utility.yul\":21377:21395   */\n      add\n        /* \"#utility.yul\":21369:21395   */\n      swap1\n      pop\n        /* \"#utility.yul\":21441:21450   */\n      dup2\n        /* \"#utility.yul\":21435:21439   */\n      dup2\n        /* \"#utility.yul\":21431:21451   */\n      sub\n        /* \"#utility.yul\":21427:21428   */\n      0x00\n        /* \"#utility.yul\":21416:21425   */\n      dup4\n        /* \"#utility.yul\":21412:21429   */\n      add\n        /* \"#utility.yul\":21405:21452   */\n      mstore\n        /* \"#utility.yul\":21469:21600   */\n      tag_397\n        /* \"#utility.yul\":21595:21599   */\n      dup2\n        /* \"#utility.yul\":21469:21600   */\n      tag_190\n      jump\t// in\n    tag_397:\n        /* \"#utility.yul\":21461:21600   */\n      swap1\n      pop\n        /* \"#utility.yul\":21188:21607   */\n      swap2\n      swap1\n      pop\n      jump\t// out\n        /* \"#utility.yul\":21613:21793   */\n    tag_191:\n        /* \"#utility.yul\":21661:21738   */\n      0x4e487b7100000000000000000000000000000000000000000000000000000000\n        /* \"#utility.yul\":21658:21659   */\n      0x00\n        /* \"#utility.yul\":21651:21739   */\n      mstore\n        /* \"#utility.yul\":21758:21762   */\n      0x11\n        /* \"#utility.yul\":21755:21756   */\n      0x04\n        /* \"#utility.yul\":21748:21763   */\n      mstore\n        /* \"#utility.yul\":21782:21786   */\n      0x24\n        /* \"#utility.yul\":21779:21780   */\n      0x00\n        /* \"#utility.yul\":21772:21787   */\n      revert\n        /* \"#utility.yul\":21799:22032   */\n    tag_93:\n        /* \"#utility.yul\":21838:21841   */\n      0x00\n        /* \"#utility.yul\":21861:21885   */\n      tag_400\n        /* \"#utility.yul\":21879:21884   */\n      dup3\n        /* \"#utility.yul\":21861:21885   */\n      tag_138\n      jump\t// in\n    tag_400:\n        /* \"#utility.yul\":21852:21885   */\n      swap2\n      pop\n        /* \"#utility.yul\":21907:21973   */\n      0xffffffffffffffffffffffffffffffffffffffffffffffffffffffffffffffff\n        /* \"#utility.yul\":21900:21905   */\n      dup3\n        /* \"#utility.yul\":21897:21974   */\n      sub\n        /* \"#utility.yul\":21894:21997   */\n      tag_401\n      jumpi\n        /* \"#utility.yul\":21977:21995   */\n      tag_402\n      tag_191\n      jump\t// in\n    tag_402:\n        /* \"#utility.yul\":21894:21997   */\n    tag_401:\n        /* \"#utility.yul\":22024:22025   */\n      0x01\n        /* \"#utility.yul\":22017:22022   */\n      dup3\n        /* \"#utility.yul\":22013:22026   */\n      add\n        /* \"#utility.yul\":22006:22026   */\n      swap1\n      pop\n        /* \"#utility.yul\":21799:22032   */\n      swap2\n      swap1\n      pop\n      jump\t// out\n        /* \"#utility.yul\":22038:22591   */\n    tag_98:\n        /* \"#utility.yul\":22215:22219   */\n      0x00\n        /* \"#utility.yul\":22253:22256   */\n      0x80\n        /* \"#utility.yul\":22242:22251   */\n      dup3\n        /* \"#utility.yul\":22238:22257   */\n      add\n        /* \"#utility.yul\":22230:22257   */\n      swap1\n      pop\n        /* \"#utility.yul\":22267:22338   */\n      tag_404\n        /* \"#utility.yul\":22335:22336   */\n      0x00\n        /* \"#utility.yul\":22324:22333   */\n      dup4\n        /* \"#utility.yul\":22320:22337   */\n      add\n        /* \"#utility.yul\":22311:22317   */\n      dup8\n        /* \"#utility.yul\":22267:22338   */\n      tag_142\n      jump\t// in\n    tag_404:\n        /* \"#utility.yul\":22348:22420   */\n      tag_405\n        /* \"#utility.yul\":22416:22418   */\n      0x20\n        /* \"#utility.yul\":22405:22414   */\n      dup4\n        /* \"#utility.yul\":22401:22419   */\n      add\n        /* \"#utility.yul\":22392:22398   */\n      dup7\n        /* \"#utility.yul\":22348:22420   */\n      tag_142\n      jump\t// in\n    tag_405:\n        /* \"#utility.yul\":22430:22502   */\n      tag_406\n        /* \"#utility.yul\":22498:22500   */\n      0x40\n        /* \"#utility.yul\":22487:22496   */\n      dup4\n        /* \"#utility.yul\":22483:22501   */\n      add\n        /* \"#utility.yul\":22474:22480   */\n      dup6\n        /* \"#utility.yul\":22430:22502   */\n      tag_141\n      jump\t// in\n    tag_406:\n        /* \"#utility.yul\":22512:22584   */\n      tag_407\n        /* \"#utility.yul\":22580:22582   */\n      0x60\n        /* \"#utility.yul\":22569:22578   */\n      dup4\n        /* \"#utility.yul\":22565:22583   */\n      add\n        /* \"#utility.yul\":22556:22562   */\n      dup5\n        /* \"#utility.yul\":22512:22584   */\n      tag_141\n      jump\t// in\n    tag_407:\n        /* \"#utility.yul\":22038:22591   */\n      swap6\n      swap5\n      pop\n      pop\n      pop\n      pop\n      pop\n      jump\t// out\n        /* \"#utility.yul\":22597:22765   */\n    tag_192:\n        /* \"#utility.yul\":22737:22757   */\n      0x545745455420484153204e4f204c494b45530000000000000000000000000000\n        /* \"#utility.yul\":22733:22734   */\n      0x00\n        /* \"#utility.yul\":22725:22731   */\n      dup3\n        /* \"#utility.yul\":22721:22735   */\n      add\n        /* \"#utility.yul\":22714:22758   */\n      mstore\n        /* \"#utility.yul\":22597:22765   */\n      pop\n      jump\t// out\n        /* \"#utility.yul\":22771:23137   */\n    tag_193:\n        /* \"#utility.yul\":22913:22916   */\n      0x00\n        /* \"#utility.yul\":22934:23001   */\n      tag_410\n        /* \"#utility.yul\":22998:23000   */\n      0x12\n        /* \"#utility.yul\":22993:22996   */\n      dup4\n        /* \"#utility.yul\":22934:23001   */\n      tag_144\n      jump\t// in\n    tag_410:\n        /* \"#utility.yul\":22927:23001   */\n      swap2\n      pop\n        /* \"#utility.yul\":23010:23103   */\n      tag_411\n        /* \"#utility.yul\":23099:23102   */\n      dup3\n        /* \"#utility.yul\":23010:23103   */\n      tag_192\n      jump\t// in\n    tag_411:\n        /* \"#utility.yul\":23128:23130   */\n      0x20\n        /* \"#utility.yul\":23123:23126   */\n      dup3\n        /* \"#utility.yul\":23119:23131   */\n      add\n        /* \"#utility.yul\":23112:23131   */\n      swap1\n      pop\n        /* \"#utility.yul\":22771:23137   */\n      swap2\n      swap1\n      pop\n      jump\t// out\n        /* \"#utility.yul\":23143:23562   */\n    tag_110:\n        /* \"#utility.yul\":23309:23313   */\n      0x00\n        /* \"#utility.yul\":23347:23349   */\n      0x20\n        /* \"#utility.yul\":23336:23345   */\n      dup3\n        /* \"#utility.yul\":23332:23350   */\n      add\n        /* \"#utility.yul\":23324:23350   */\n      swap1\n      pop\n        /* \"#utility.yul\":23396:23405   */\n      dup2\n        /* \"#utility.yul\":23390:23394   */\n      dup2\n        /* \"#utility.yul\":23386:23406   */\n      sub\n        /* \"#utility.yul\":23382:23383   */\n      0x00\n        /* \"#utility.yul\":23371:23380   */\n      dup4\n        /* \"#utility.yul\":23367:23384   */\n      add\n        /* \"#utility.yul\":23360:23407   */\n      mstore\n        /* \"#utility.yul\":23424:23555   */\n      tag_413\n        /* \"#utility.yul\":23550:23554   */\n      dup2\n        /* \"#utility.yul\":23424:23555   */\n      tag_193\n      jump\t// in\n    tag_413:\n        /* \"#utility.yul\":23416:23555   */\n      swap1\n      pop\n        /* \"#utility.yul\":23143:23562   */\n      swap2\n      swap1\n      pop\n      jump\t// out\n        /* \"#utility.yul\":23568:23739   */\n    tag_115:\n        /* \"#utility.yul\":23607:23610   */\n      0x00\n        /* \"#utility.yul\":23630:23654   */\n      tag_415\n        /* \"#utility.yul\":23648:23653   */\n      dup3\n        /* \"#utility.yul\":23630:23654   */\n      tag_138\n      jump\t// in\n    tag_415:\n        /* \"#utility.yul\":23621:23654   */\n      swap2\n      pop\n        /* \"#utility.yul\":23676:23680   */\n      0x00\n        /* \"#utility.yul\":23669:23674   */\n      dup3\n        /* \"#utility.yul\":23666:23681   */\n      sub\n        /* \"#utility.yul\":23663:23704   */\n      tag_416\n      jumpi\n        /* \"#utility.yul\":23684:23702   */\n      tag_417\n      tag_191\n      jump\t// in\n    tag_417:\n        /* \"#utility.yul\":23663:23704   */\n    tag_416:\n        /* \"#utility.yul\":23731:23732   */\n      0x01\n        /* \"#utility.yul\":23724:23729   */\n      dup3\n        /* \"#utility.yul\":23720:23733   */\n      sub\n        /* \"#utility.yul\":23713:23733   */\n      swap1\n      pop\n        /* \"#utility.yul\":23568:23739   */\n      swap2\n      swap1\n      pop\n      jump\t// out\n\n    auxdata: 0xa264697066735822122060e8b875261f34a385302d8858b51dd1bcc24d1f1bd0bcbe35b55692ccbce00264736f6c634300081a0033\n}\n",
				"bytecode": {
					"linkReferences": {},
					"object": "608060405260c85f553480156012575f80fd5b503360015f6101000a81548173ffffffffffffffffffffffffffffffffffffffff021916908373ffffffffffffffffffffffffffffffffffffffff160217905550611889806100605f395ff3fe608060405234801561000f575f80fd5b5060043610610091575f3560e01c8063888a788011610064578063888a788014610121578063a0d96b6f1461013d578063ae775e9514610159578063b2bdfa7b14610175578063c3ad5ecb1461019357610091565b806305a1b4a91461009557806353256135146100c95780636eb10797146100e75780637c9cd2bc14610105575b5f80fd5b6100af60048036038101906100aa9190610d5a565b6101c3565b6040516100c0959493929190610e26565b60405180910390f35b6100d16102b4565b6040516100de9190611012565b60405180910390f35b6100ef61044d565b6040516100fc9190611032565b60405180910390f35b61011f600480360381019061011a9190611177565b610452565b005b61013b600480360381019061013691906111be565b610645565b005b61015760048036038101906101529190610d5a565b6106dd565b005b610173600480360381019061016e9190610d5a565b61088e565b005b61017d610adf565b60405161018a91906111e9565b60405180910390f35b6101ad60048036038101906101a891906111be565b610b04565b6040516101ba9190611275565b60405180910390f35b6002602052815f5260405f2081815481106101dc575f80fd5b905f5260205f2090600502015f9150915050805f015490806001015f9054906101000a900473ffffffffffffffffffffffffffffffffffffffff1690806002018054610227906112c2565b80601f0160208091040260200160405190810160405280929190818152602001828054610253906112c2565b801561029e5780601f106102755761010080835404028352916020019161029e565b820191905f5260205f20905b81548152906001019060200180831161028157829003601f168201915b5050505050908060030154908060040154905085565b606060025f3373ffffffffffffffffffffffffffffffffffffffff1673ffffffffffffffffffffffffffffffffffffffff1681526020019081526020015f20805480602002602001604051908101604052809291908181526020015f905b82821015610444578382905f5260205f2090600502016040518060a00160405290815f8201548152602001600182015f9054906101000a900473ffffffffffffffffffffffffffffffffffffffff1673ffffffffffffffffffffffffffffffffffffffff1673ffffffffffffffffffffffffffffffffffffffff1681526020016002820180546103a1906112c2565b80601f01602080910402602001604051908101604052809291908181526020018280546103cd906112c2565b80156104185780601f106103ef57610100808354040283529160200191610418565b820191905f5260205f20905b8154815290600101906020018083116103fb57829003601f168201915b505050505081526020016003820154815260200160048201548152505081526020019060010190610312565b50505050905090565b5f5481565b5f5481511015610497576040517f08c379a000000000000000000000000000000000000000000000000000000000815260040161048e9061133c565b60405180910390fd5b5f6040518060a0016040528060025f3373ffffffffffffffffffffffffffffffffffffffff1673ffffffffffffffffffffffffffffffffffffffff1681526020019081526020015f208054905081526020013373ffffffffffffffffffffffffffffffffffffffff1681526020018381526020014281526020015f815250905060025f3373ffffffffffffffffffffffffffffffffffffffff1673ffffffffffffffffffffffffffffffffffffffff1681526020019081526020015f2081908060018154018082558091505060019003905f5260205f2090600502015f909190919091505f820151815f01556020820151816001015f6101000a81548173ffffffffffffffffffffffffffffffffffffffff021916908373ffffffffffffffffffffffffffffffffffffffff16021790555060408201518160020190816105de91906114f7565b50606082015181600301556080820151816004015550507f16fd3c13e9d46923e0a8bce11c7b473ec508a72e6c96cd2404b29ce972afc29e815f015182602001518360400151846060015160405161063994939291906115c6565b60405180910390a15050565b3373ffffffffffffffffffffffffffffffffffffffff1660015f9054906101000a900473ffffffffffffffffffffffffffffffffffffffff1673ffffffffffffffffffffffffffffffffffffffff16146106d4576040517f08c379a00000000000000000000000000000000000000000000000000000000081526004016106cb9061165a565b60405180910390fd5b805f8190555050565b8060025f8473ffffffffffffffffffffffffffffffffffffffff1673ffffffffffffffffffffffffffffffffffffffff1681526020019081526020015f20828154811061072d5761072c611678565b5b905f5260205f2090600502015f01541461077c576040517f08c379a0000000000000000000000000000000000000000000000000000000008152600401610773906116ef565b60405180910390fd5b60025f8373ffffffffffffffffffffffffffffffffffffffff1673ffffffffffffffffffffffffffffffffffffffff1681526020019081526020015f2081815481106107cb576107ca611678565b5b905f5260205f2090600502016004015f8154809291906107ea9061173a565b91905055507fe8a76fc0f16d11a00d1e93b689b63d76cf60af914dd3d915375dc41d01a0c3c833838360025f8773ffffffffffffffffffffffffffffffffffffffff1673ffffffffffffffffffffffffffffffffffffffff1681526020019081526020015f20858154811061086257610861611678565b5b905f5260205f209060050201600401546040516108829493929190611781565b60405180910390a15050565b8060025f8473ffffffffffffffffffffffffffffffffffffffff1673ffffffffffffffffffffffffffffffffffffffff1681526020019081526020015f2082815481106108de576108dd611678565b5b905f5260205f2090600502015f01541461092d576040517f08c379a0000000000000000000000000000000000000000000000000000000008152600401610924906116ef565b60405180910390fd5b5f60025f8473ffffffffffffffffffffffffffffffffffffffff1673ffffffffffffffffffffffffffffffffffffffff1681526020019081526020015f20828154811061097d5761097c611678565b5b905f5260205f20906005020160040154116109cd576040517f08c379a00000000000000000000000000000000000000000000000000000000081526004016109c49061180e565b60405180910390fd5b60025f8373ffffffffffffffffffffffffffffffffffffffff1673ffffffffffffffffffffffffffffffffffffffff1681526020019081526020015f208181548110610a1c57610a1b611678565b5b905f5260205f2090600502016004015f815480929190610a3b9061182c565b91905055507fd0d4999471ec2d64ef3082b701ea632e73cf03302f43274ab6d09a2b11cb1ae633838360025f8773ffffffffffffffffffffffffffffffffffffffff1673ffffffffffffffffffffffffffffffffffffffff1681526020019081526020015f208581548110610ab357610ab2611678565b5b905f5260205f20906005020160040154604051610ad39493929190611781565b60405180910390a15050565b60015f9054906101000a900473ffffffffffffffffffffffffffffffffffffffff1681565b610b0c610c7b565b60025f3373ffffffffffffffffffffffffffffffffffffffff1673ffffffffffffffffffffffffffffffffffffffff1681526020019081526020015f208281548110610b5b57610b5a611678565b5b905f5260205f2090600502016040518060a00160405290815f8201548152602001600182015f9054906101000a900473ffffffffffffffffffffffffffffffffffffffff1673ffffffffffffffffffffffffffffffffffffffff1673ffffffffffffffffffffffffffffffffffffffff168152602001600282018054610be0906112c2565b80601f0160208091040260200160405190810160405280929190818152602001828054610c0c906112c2565b8015610c575780601f10610c2e57610100808354040283529160200191610c57565b820191905f5260205f20905b815481529060010190602001808311610c3a57829003601f168201915b50505050508152602001600382015481526020016004820154815250509050919050565b6040518060a001604052805f81526020015f73ffffffffffffffffffffffffffffffffffffffff168152602001606081526020015f81526020015f81525090565b5f604051905090565b5f80fd5b5f80fd5b5f73ffffffffffffffffffffffffffffffffffffffff82169050919050565b5f610cf682610ccd565b9050919050565b610d0681610cec565b8114610d10575f80fd5b50565b5f81359050610d2181610cfd565b92915050565b5f819050919050565b610d3981610d27565b8114610d43575f80fd5b50565b5f81359050610d5481610d30565b92915050565b5f8060408385031215610d7057610d6f610cc5565b5b5f610d7d85828601610d13565b9250506020610d8e85828601610d46565b9150509250929050565b610da181610d27565b82525050565b610db081610cec565b82525050565b5f81519050919050565b5f82825260208201905092915050565b8281835e5f83830152505050565b5f601f19601f8301169050919050565b5f610df882610db6565b610e028185610dc0565b9350610e12818560208601610dd0565b610e1b81610dde565b840191505092915050565b5f60a082019050610e395f830188610d98565b610e466020830187610da7565b8181036040830152610e588186610dee565b9050610e676060830185610d98565b610e746080830184610d98565b9695505050505050565b5f81519050919050565b5f82825260208201905092915050565b5f819050602082019050919050565b610eb081610d27565b82525050565b610ebf81610cec565b82525050565b5f82825260208201905092915050565b5f610edf82610db6565b610ee98185610ec5565b9350610ef9818560208601610dd0565b610f0281610dde565b840191505092915050565b5f60a083015f830151610f225f860182610ea7565b506020830151610f356020860182610eb6565b5060408301518482036040860152610f4d8282610ed5565b9150506060830151610f626060860182610ea7565b506080830151610f756080860182610ea7565b508091505092915050565b5f610f8b8383610f0d565b905092915050565b5f602082019050919050565b5f610fa982610e7e565b610fb38185610e88565b935083602082028501610fc585610e98565b805f5b858110156110005784840389528151610fe18582610f80565b9450610fec83610f93565b925060208a01995050600181019050610fc8565b50829750879550505050505092915050565b5f6020820190508181035f83015261102a8184610f9f565b905092915050565b5f6020820190506110455f830184610d98565b92915050565b5f80fd5b5f80fd5b7f4e487b71000000000000000000000000000000000000000000000000000000005f52604160045260245ffd5b61108982610dde565b810181811067ffffffffffffffff821117156110a8576110a7611053565b5b80604052505050565b5f6110ba610cbc565b90506110c68282611080565b919050565b5f67ffffffffffffffff8211156110e5576110e4611053565b5b6110ee82610dde565b9050602081019050919050565b828183375f83830152505050565b5f61111b611116846110cb565b6110b1565b9050828152602081018484840111156111375761113661104f565b5b6111428482856110fb565b509392505050565b5f82601f83011261115e5761115d61104b565b5b813561116e848260208601611109565b91505092915050565b5f6020828403121561118c5761118b610cc5565b5b5f82013567ffffffffffffffff8111156111a9576111a8610cc9565b5b6111b58482850161114a565b91505092915050565b5f602082840312156111d3576111d2610cc5565b5b5f6111e084828501610d46565b91505092915050565b5f6020820190506111fc5f830184610da7565b92915050565b5f60a083015f8301516112175f860182610ea7565b50602083015161122a6020860182610eb6565b50604083015184820360408601526112428282610ed5565b91505060608301516112576060860182610ea7565b50608083015161126a6080860182610ea7565b508091505092915050565b5f6020820190508181035f83015261128d8184611202565b905092915050565b7f4e487b71000000000000000000000000000000000000000000000000000000005f52602260045260245ffd5b5f60028204905060018216806112d957607f821691505b6020821081036112ec576112eb611295565b5b50919050565b7f547765657420697320746f6f206c6f6e672100000000000000000000000000005f82015250565b5f611326601283610dc0565b9150611331826112f2565b602082019050919050565b5f6020820190508181035f8301526113538161131a565b9050919050565b5f819050815f5260205f209050919050565b5f6020601f8301049050919050565b5f82821b905092915050565b5f600883026113b67fffffffffffffffffffffffffffffffffffffffffffffffffffffffffffffffff8261137b565b6113c0868361137b565b95508019841693508086168417925050509392505050565b5f819050919050565b5f6113fb6113f66113f184610d27565b6113d8565b610d27565b9050919050565b5f819050919050565b611414836113e1565b61142861142082611402565b848454611387565b825550505050565b5f90565b61143c611430565b61144781848461140b565b505050565b5b8181101561146a5761145f5f82611434565b60018101905061144d565b5050565b601f8211156114af576114808161135a565b6114898461136c565b81016020851015611498578190505b6114ac6114a48561136c565b83018261144c565b50505b505050565b5f82821c905092915050565b5f6114cf5f19846008026114b4565b1980831691505092915050565b5f6114e783836114c0565b9150826002028217905092915050565b61150082610db6565b67ffffffffffffffff81111561151957611518611053565b5b61152382546112c2565b61152e82828561146e565b5f60209050601f83116001811461155f575f841561154d578287015190505b61155785826114dc565b8655506115be565b601f19841661156d8661135a565b5f5b828110156115945784890151825560018201915060208501945060208101905061156f565b868310156115b157848901516115ad601f8916826114c0565b8355505b6001600288020188555050505b505050505050565b5f6080820190506115d95f830187610d98565b6115e66020830186610da7565b81810360408301526115f88185610dee565b90506116076060830184610d98565b95945050505050565b7f596f7520617265206e6f742072656769737465726564000000000000000000005f82015250565b5f611644601683610dc0565b915061164f82611610565b602082019050919050565b5f6020820190508181035f83015261167181611638565b9050919050565b7f4e487b71000000000000000000000000000000000000000000000000000000005f52603260045260245ffd5b7f547765657420646f6573206e6f742065786973740000000000000000000000005f82015250565b5f6116d9601483610dc0565b91506116e4826116a5565b602082019050919050565b5f6020820190508181035f830152611706816116cd565b9050919050565b7f4e487b71000000000000000000000000000000000000000000000000000000005f52601160045260245ffd5b5f61174482610d27565b91507fffffffffffffffffffffffffffffffffffffffffffffffffffffffffffffffff82036117765761177561170d565b5b600182019050919050565b5f6080820190506117945f830187610da7565b6117a16020830186610da7565b6117ae6040830185610d98565b6117bb6060830184610d98565b95945050505050565b7f545745455420484153204e4f204c494b455300000000000000000000000000005f82015250565b5f6117f8601283610dc0565b9150611803826117c4565b602082019050919050565b5f6020820190508181035f830152611825816117ec565b9050919050565b5f61183682610d27565b91505f82036118485761184761170d565b5b60018203905091905056fea264697066735822122060e8b875261f34a385302d8858b51dd1bcc24d1f1bd0bcbe35b55692ccbce00264736f6c634300081a0033",
					"opcodes": "PUSH1 0x80 PUSH1 0x40 MSTORE PUSH1 0xC8 PUSH0 SSTORE CALLVALUE DUP1 ISZERO PUSH1 0x12 JUMPI PUSH0 DUP1 REVERT JUMPDEST POP CALLER PUSH1 0x1 PUSH0 PUSH2 0x100 EXP DUP2 SLOAD DUP2 PUSH20 0xFFFFFFFFFFFFFFFFFFFFFFFFFFFFFFFFFFFFFFFF MUL NOT AND SWAP1 DUP4 PUSH20 0xFFFFFFFFFFFFFFFFFFFFFFFFFFFFFFFFFFFFFFFF AND MUL OR SWAP1 SSTORE POP PUSH2 0x1889 DUP1 PUSH2 0x60 PUSH0 CODECOPY PUSH0 RETURN INVALID PUSH1 0x80 PUSH1 0x40 MSTORE CALLVALUE DUP1 ISZERO PUSH2 0xF JUMPI PUSH0 DUP1 REVERT JUMPDEST POP PUSH1 0x4 CALLDATASIZE LT PUSH2 0x91 JUMPI PUSH0 CALLDATALOAD PUSH1 0xE0 SHR DUP1 PUSH4 0x888A7880 GT PUSH2 0x64 JUMPI DUP1 PUSH4 0x888A7880 EQ PUSH2 0x121 JUMPI DUP1 PUSH4 0xA0D96B6F EQ PUSH2 0x13D JUMPI DUP1 PUSH4 0xAE775E95 EQ PUSH2 0x159 JUMPI DUP1 PUSH4 0xB2BDFA7B EQ PUSH2 0x175 JUMPI DUP1 PUSH4 0xC3AD5ECB EQ PUSH2 0x193 JUMPI PUSH2 0x91 JUMP JUMPDEST DUP1 PUSH4 0x5A1B4A9 EQ PUSH2 0x95 JUMPI DUP1 PUSH4 0x53256135 EQ PUSH2 0xC9 JUMPI DUP1 PUSH4 0x6EB10797 EQ PUSH2 0xE7 JUMPI DUP1 PUSH4 0x7C9CD2BC EQ PUSH2 0x105 JUMPI JUMPDEST PUSH0 DUP1 REVERT JUMPDEST PUSH2 0xAF PUSH1 0x4 DUP1 CALLDATASIZE SUB DUP2 ADD SWAP1 PUSH2 0xAA SWAP2 SWAP1 PUSH2 0xD5A JUMP JUMPDEST PUSH2 0x1C3 JUMP JUMPDEST PUSH1 0x40 MLOAD PUSH2 0xC0 SWAP6 SWAP5 SWAP4 SWAP3 SWAP2 SWAP1 PUSH2 0xE26 JUMP JUMPDEST PUSH1 0x40 MLOAD DUP1 SWAP2 SUB SWAP1 RETURN JUMPDEST PUSH2 0xD1 PUSH2 0x2B4 JUMP JUMPDEST PUSH1 0x40 MLOAD PUSH2 0xDE SWAP2 SWAP1 PUSH2 0x1012 JUMP JUMPDEST PUSH1 0x40 MLOAD DUP1 SWAP2 SUB SWAP1 RETURN JUMPDEST PUSH2 0xEF PUSH2 0x44D JUMP JUMPDEST PUSH1 0x40 MLOAD PUSH2 0xFC SWAP2 SWAP1 PUSH2 0x1032 JUMP JUMPDEST PUSH1 0x40 MLOAD DUP1 SWAP2 SUB SWAP1 RETURN JUMPDEST PUSH2 0x11F PUSH1 0x4 DUP1 CALLDATASIZE SUB DUP2 ADD SWAP1 PUSH2 0x11A SWAP2 SWAP1 PUSH2 0x1177 JUMP JUMPDEST PUSH2 0x452 JUMP JUMPDEST STOP JUMPDEST PUSH2 0x13B PUSH1 0x4 DUP1 CALLDATASIZE SUB DUP2 ADD SWAP1 PUSH2 0x136 SWAP2 SWAP1 PUSH2 0x11BE JUMP JUMPDEST PUSH2 0x645 JUMP JUMPDEST STOP JUMPDEST PUSH2 0x157 PUSH1 0x4 DUP1 CALLDATASIZE SUB DUP2 ADD SWAP1 PUSH2 0x152 SWAP2 SWAP1 PUSH2 0xD5A JUMP JUMPDEST PUSH2 0x6DD JUMP JUMPDEST STOP JUMPDEST PUSH2 0x173 PUSH1 0x4 DUP1 CALLDATASIZE SUB DUP2 ADD SWAP1 PUSH2 0x16E SWAP2 SWAP1 PUSH2 0xD5A JUMP JUMPDEST PUSH2 0x88E JUMP JUMPDEST STOP JUMPDEST PUSH2 0x17D PUSH2 0xADF JUMP JUMPDEST PUSH1 0x40 MLOAD PUSH2 0x18A SWAP2 SWAP1 PUSH2 0x11E9 JUMP JUMPDEST PUSH1 0x40 MLOAD DUP1 SWAP2 SUB SWAP1 RETURN JUMPDEST PUSH2 0x1AD PUSH1 0x4 DUP1 CALLDATASIZE SUB DUP2 ADD SWAP1 PUSH2 0x1A8 SWAP2 SWAP1 PUSH2 0x11BE JUMP JUMPDEST PUSH2 0xB04 JUMP JUMPDEST PUSH1 0x40 MLOAD PUSH2 0x1BA SWAP2 SWAP1 PUSH2 0x1275 JUMP JUMPDEST PUSH1 0x40 MLOAD DUP1 SWAP2 SUB SWAP1 RETURN JUMPDEST PUSH1 0x2 PUSH1 0x20 MSTORE DUP2 PUSH0 MSTORE PUSH1 0x40 PUSH0 KECCAK256 DUP2 DUP2 SLOAD DUP2 LT PUSH2 0x1DC JUMPI PUSH0 DUP1 REVERT JUMPDEST SWAP1 PUSH0 MSTORE PUSH1 0x20 PUSH0 KECCAK256 SWAP1 PUSH1 0x5 MUL ADD PUSH0 SWAP2 POP SWAP2 POP POP DUP1 PUSH0 ADD SLOAD SWAP1 DUP1 PUSH1 0x1 ADD PUSH0 SWAP1 SLOAD SWAP1 PUSH2 0x100 EXP SWAP1 DIV PUSH20 0xFFFFFFFFFFFFFFFFFFFFFFFFFFFFFFFFFFFFFFFF AND SWAP1 DUP1 PUSH1 0x2 ADD DUP1 SLOAD PUSH2 0x227 SWAP1 PUSH2 0x12C2 JUMP JUMPDEST DUP1 PUSH1 0x1F ADD PUSH1 0x20 DUP1 SWAP2 DIV MUL PUSH1 0x20 ADD PUSH1 0x40 MLOAD SWAP1 DUP2 ADD PUSH1 0x40 MSTORE DUP1 SWAP3 SWAP2 SWAP1 DUP2 DUP2 MSTORE PUSH1 0x20 ADD DUP3 DUP1 SLOAD PUSH2 0x253 SWAP1 PUSH2 0x12C2 JUMP JUMPDEST DUP1 ISZERO PUSH2 0x29E JUMPI DUP1 PUSH1 0x1F LT PUSH2 0x275 JUMPI PUSH2 0x100 DUP1 DUP4 SLOAD DIV MUL DUP4 MSTORE SWAP2 PUSH1 0x20 ADD SWAP2 PUSH2 0x29E JUMP JUMPDEST DUP3 ADD SWAP2 SWAP1 PUSH0 MSTORE PUSH1 0x20 PUSH0 KECCAK256 SWAP1 JUMPDEST DUP2 SLOAD DUP2 MSTORE SWAP1 PUSH1 0x1 ADD SWAP1 PUSH1 0x20 ADD DUP1 DUP4 GT PUSH2 0x281 JUMPI DUP3 SWAP1 SUB PUSH1 0x1F AND DUP3 ADD SWAP2 JUMPDEST POP POP POP POP POP SWAP1 DUP1 PUSH1 0x3 ADD SLOAD SWAP1 DUP1 PUSH1 0x4 ADD SLOAD SWAP1 POP DUP6 JUMP JUMPDEST PUSH1 0x60 PUSH1 0x2 PUSH0 CALLER PUSH20 0xFFFFFFFFFFFFFFFFFFFFFFFFFFFFFFFFFFFFFFFF AND PUSH20 0xFFFFFFFFFFFFFFFFFFFFFFFFFFFFFFFFFFFFFFFF AND DUP2 MSTORE PUSH1 0x20 ADD SWAP1 DUP2 MSTORE PUSH1 0x20 ADD PUSH0 KECCAK256 DUP1 SLOAD DUP1 PUSH1 0x20 MUL PUSH1 0x20 ADD PUSH1 0x40 MLOAD SWAP1 DUP2 ADD PUSH1 0x40 MSTORE DUP1 SWAP3 SWAP2 SWAP1 DUP2 DUP2 MSTORE PUSH1 0x20 ADD PUSH0 SWAP1 JUMPDEST DUP3 DUP3 LT ISZERO PUSH2 0x444 JUMPI DUP4 DUP3 SWAP1 PUSH0 MSTORE PUSH1 0x20 PUSH0 KECCAK256 SWAP1 PUSH1 0x5 MUL ADD PUSH1 0x40 MLOAD DUP1 PUSH1 0xA0 ADD PUSH1 0x40 MSTORE SWAP1 DUP2 PUSH0 DUP3 ADD SLOAD DUP2 MSTORE PUSH1 0x20 ADD PUSH1 0x1 DUP3 ADD PUSH0 SWAP1 SLOAD SWAP1 PUSH2 0x100 EXP SWAP1 DIV PUSH20 0xFFFFFFFFFFFFFFFFFFFFFFFFFFFFFFFFFFFFFFFF AND PUSH20 0xFFFFFFFFFFFFFFFFFFFFFFFFFFFFFFFFFFFFFFFF AND PUSH20 0xFFFFFFFFFFFFFFFFFFFFFFFFFFFFFFFFFFFFFFFF AND DUP2 MSTORE PUSH1 0x20 ADD PUSH1 0x2 DUP3 ADD DUP1 SLOAD PUSH2 0x3A1 SWAP1 PUSH2 0x12C2 JUMP JUMPDEST DUP1 PUSH1 0x1F ADD PUSH1 0x20 DUP1 SWAP2 DIV MUL PUSH1 0x20 ADD PUSH1 0x40 MLOAD SWAP1 DUP2 ADD PUSH1 0x40 MSTORE DUP1 SWAP3 SWAP2 SWAP1 DUP2 DUP2 MSTORE PUSH1 0x20 ADD DUP3 DUP1 SLOAD PUSH2 0x3CD SWAP1 PUSH2 0x12C2 JUMP JUMPDEST DUP1 ISZERO PUSH2 0x418 JUMPI DUP1 PUSH1 0x1F LT PUSH2 0x3EF JUMPI PUSH2 0x100 DUP1 DUP4 SLOAD DIV MUL DUP4 MSTORE SWAP2 PUSH1 0x20 ADD SWAP2 PUSH2 0x418 JUMP JUMPDEST DUP3 ADD SWAP2 SWAP1 PUSH0 MSTORE PUSH1 0x20 PUSH0 KECCAK256 SWAP1 JUMPDEST DUP2 SLOAD DUP2 MSTORE SWAP1 PUSH1 0x1 ADD SWAP1 PUSH1 0x20 ADD DUP1 DUP4 GT PUSH2 0x3FB JUMPI DUP3 SWAP1 SUB PUSH1 0x1F AND DUP3 ADD SWAP2 JUMPDEST POP POP POP POP POP DUP2 MSTORE PUSH1 0x20 ADD PUSH1 0x3 DUP3 ADD SLOAD DUP2 MSTORE PUSH1 0x20 ADD PUSH1 0x4 DUP3 ADD SLOAD DUP2 MSTORE POP POP DUP2 MSTORE PUSH1 0x20 ADD SWAP1 PUSH1 0x1 ADD SWAP1 PUSH2 0x312 JUMP JUMPDEST POP POP POP POP SWAP1 POP SWAP1 JUMP JUMPDEST PUSH0 SLOAD DUP2 JUMP JUMPDEST PUSH0 SLOAD DUP2 MLOAD LT ISZERO PUSH2 0x497 JUMPI PUSH1 0x40 MLOAD PUSH32 0x8C379A000000000000000000000000000000000000000000000000000000000 DUP2 MSTORE PUSH1 0x4 ADD PUSH2 0x48E SWAP1 PUSH2 0x133C JUMP JUMPDEST PUSH1 0x40 MLOAD DUP1 SWAP2 SUB SWAP1 REVERT JUMPDEST PUSH0 PUSH1 0x40 MLOAD DUP1 PUSH1 0xA0 ADD PUSH1 0x40 MSTORE DUP1 PUSH1 0x2 PUSH0 CALLER PUSH20 0xFFFFFFFFFFFFFFFFFFFFFFFFFFFFFFFFFFFFFFFF AND PUSH20 0xFFFFFFFFFFFFFFFFFFFFFFFFFFFFFFFFFFFFFFFF AND DUP2 MSTORE PUSH1 0x20 ADD SWAP1 DUP2 MSTORE PUSH1 0x20 ADD PUSH0 KECCAK256 DUP1 SLOAD SWAP1 POP DUP2 MSTORE PUSH1 0x20 ADD CALLER PUSH20 0xFFFFFFFFFFFFFFFFFFFFFFFFFFFFFFFFFFFFFFFF AND DUP2 MSTORE PUSH1 0x20 ADD DUP4 DUP2 MSTORE PUSH1 0x20 ADD TIMESTAMP DUP2 MSTORE PUSH1 0x20 ADD PUSH0 DUP2 MSTORE POP SWAP1 POP PUSH1 0x2 PUSH0 CALLER PUSH20 0xFFFFFFFFFFFFFFFFFFFFFFFFFFFFFFFFFFFFFFFF AND PUSH20 0xFFFFFFFFFFFFFFFFFFFFFFFFFFFFFFFFFFFFFFFF AND DUP2 MSTORE PUSH1 0x20 ADD SWAP1 DUP2 MSTORE PUSH1 0x20 ADD PUSH0 KECCAK256 DUP2 SWAP1 DUP1 PUSH1 0x1 DUP2 SLOAD ADD DUP1 DUP3 SSTORE DUP1 SWAP2 POP POP PUSH1 0x1 SWAP1 SUB SWAP1 PUSH0 MSTORE PUSH1 0x20 PUSH0 KECCAK256 SWAP1 PUSH1 0x5 MUL ADD PUSH0 SWAP1 SWAP2 SWAP1 SWAP2 SWAP1 SWAP2 POP PUSH0 DUP3 ADD MLOAD DUP2 PUSH0 ADD SSTORE PUSH1 0x20 DUP3 ADD MLOAD DUP2 PUSH1 0x1 ADD PUSH0 PUSH2 0x100 EXP DUP2 SLOAD DUP2 PUSH20 0xFFFFFFFFFFFFFFFFFFFFFFFFFFFFFFFFFFFFFFFF MUL NOT AND SWAP1 DUP4 PUSH20 0xFFFFFFFFFFFFFFFFFFFFFFFFFFFFFFFFFFFFFFFF AND MUL OR SWAP1 SSTORE POP PUSH1 0x40 DUP3 ADD MLOAD DUP2 PUSH1 0x2 ADD SWAP1 DUP2 PUSH2 0x5DE SWAP2 SWAP1 PUSH2 0x14F7 JUMP JUMPDEST POP PUSH1 0x60 DUP3 ADD MLOAD DUP2 PUSH1 0x3 ADD SSTORE PUSH1 0x80 DUP3 ADD MLOAD DUP2 PUSH1 0x4 ADD SSTORE POP POP PUSH32 0x16FD3C13E9D46923E0A8BCE11C7B473EC508A72E6C96CD2404B29CE972AFC29E DUP2 PUSH0 ADD MLOAD DUP3 PUSH1 0x20 ADD MLOAD DUP4 PUSH1 0x40 ADD MLOAD DUP5 PUSH1 0x60 ADD MLOAD PUSH1 0x40 MLOAD PUSH2 0x639 SWAP5 SWAP4 SWAP3 SWAP2 SWAP1 PUSH2 0x15C6 JUMP JUMPDEST PUSH1 0x40 MLOAD DUP1 SWAP2 SUB SWAP1 LOG1 POP POP JUMP JUMPDEST CALLER PUSH20 0xFFFFFFFFFFFFFFFFFFFFFFFFFFFFFFFFFFFFFFFF AND PUSH1 0x1 PUSH0 SWAP1 SLOAD SWAP1 PUSH2 0x100 EXP SWAP1 DIV PUSH20 0xFFFFFFFFFFFFFFFFFFFFFFFFFFFFFFFFFFFFFFFF AND PUSH20 0xFFFFFFFFFFFFFFFFFFFFFFFFFFFFFFFFFFFFFFFF AND EQ PUSH2 0x6D4 JUMPI PUSH1 0x40 MLOAD PUSH32 0x8C379A000000000000000000000000000000000000000000000000000000000 DUP2 MSTORE PUSH1 0x4 ADD PUSH2 0x6CB SWAP1 PUSH2 0x165A JUMP JUMPDEST PUSH1 0x40 MLOAD DUP1 SWAP2 SUB SWAP1 REVERT JUMPDEST DUP1 PUSH0 DUP2 SWAP1 SSTORE POP POP JUMP JUMPDEST DUP1 PUSH1 0x2 PUSH0 DUP5 PUSH20 0xFFFFFFFFFFFFFFFFFFFFFFFFFFFFFFFFFFFFFFFF AND PUSH20 0xFFFFFFFFFFFFFFFFFFFFFFFFFFFFFFFFFFFFFFFF AND DUP2 MSTORE PUSH1 0x20 ADD SWAP1 DUP2 MSTORE PUSH1 0x20 ADD PUSH0 KECCAK256 DUP3 DUP2 SLOAD DUP2 LT PUSH2 0x72D JUMPI PUSH2 0x72C PUSH2 0x1678 JUMP JUMPDEST JUMPDEST SWAP1 PUSH0 MSTORE PUSH1 0x20 PUSH0 KECCAK256 SWAP1 PUSH1 0x5 MUL ADD PUSH0 ADD SLOAD EQ PUSH2 0x77C JUMPI PUSH1 0x40 MLOAD PUSH32 0x8C379A000000000000000000000000000000000000000000000000000000000 DUP2 MSTORE PUSH1 0x4 ADD PUSH2 0x773 SWAP1 PUSH2 0x16EF JUMP JUMPDEST PUSH1 0x40 MLOAD DUP1 SWAP2 SUB SWAP1 REVERT JUMPDEST PUSH1 0x2 PUSH0 DUP4 PUSH20 0xFFFFFFFFFFFFFFFFFFFFFFFFFFFFFFFFFFFFFFFF AND PUSH20 0xFFFFFFFFFFFFFFFFFFFFFFFFFFFFFFFFFFFFFFFF AND DUP2 MSTORE PUSH1 0x20 ADD SWAP1 DUP2 MSTORE PUSH1 0x20 ADD PUSH0 KECCAK256 DUP2 DUP2 SLOAD DUP2 LT PUSH2 0x7CB JUMPI PUSH2 0x7CA PUSH2 0x1678 JUMP JUMPDEST JUMPDEST SWAP1 PUSH0 MSTORE PUSH1 0x20 PUSH0 KECCAK256 SWAP1 PUSH1 0x5 MUL ADD PUSH1 0x4 ADD PUSH0 DUP2 SLOAD DUP1 SWAP3 SWAP2 SWAP1 PUSH2 0x7EA SWAP1 PUSH2 0x173A JUMP JUMPDEST SWAP2 SWAP1 POP SSTORE POP PUSH32 0xE8A76FC0F16D11A00D1E93B689B63D76CF60AF914DD3D915375DC41D01A0C3C8 CALLER DUP4 DUP4 PUSH1 0x2 PUSH0 DUP8 PUSH20 0xFFFFFFFFFFFFFFFFFFFFFFFFFFFFFFFFFFFFFFFF AND PUSH20 0xFFFFFFFFFFFFFFFFFFFFFFFFFFFFFFFFFFFFFFFF AND DUP2 MSTORE PUSH1 0x20 ADD SWAP1 DUP2 MSTORE PUSH1 0x20 ADD PUSH0 KECCAK256 DUP6 DUP2 SLOAD DUP2 LT PUSH2 0x862 JUMPI PUSH2 0x861 PUSH2 0x1678 JUMP JUMPDEST JUMPDEST SWAP1 PUSH0 MSTORE PUSH1 0x20 PUSH0 KECCAK256 SWAP1 PUSH1 0x5 MUL ADD PUSH1 0x4 ADD SLOAD PUSH1 0x40 MLOAD PUSH2 0x882 SWAP5 SWAP4 SWAP3 SWAP2 SWAP1 PUSH2 0x1781 JUMP JUMPDEST PUSH1 0x40 MLOAD DUP1 SWAP2 SUB SWAP1 LOG1 POP POP JUMP JUMPDEST DUP1 PUSH1 0x2 PUSH0 DUP5 PUSH20 0xFFFFFFFFFFFFFFFFFFFFFFFFFFFFFFFFFFFFFFFF AND PUSH20 0xFFFFFFFFFFFFFFFFFFFFFFFFFFFFFFFFFFFFFFFF AND DUP2 MSTORE PUSH1 0x20 ADD SWAP1 DUP2 MSTORE PUSH1 0x20 ADD PUSH0 KECCAK256 DUP3 DUP2 SLOAD DUP2 LT PUSH2 0x8DE JUMPI PUSH2 0x8DD PUSH2 0x1678 JUMP JUMPDEST JUMPDEST SWAP1 PUSH0 MSTORE PUSH1 0x20 PUSH0 KECCAK256 SWAP1 PUSH1 0x5 MUL ADD PUSH0 ADD SLOAD EQ PUSH2 0x92D JUMPI PUSH1 0x40 MLOAD PUSH32 0x8C379A000000000000000000000000000000000000000000000000000000000 DUP2 MSTORE PUSH1 0x4 ADD PUSH2 0x924 SWAP1 PUSH2 0x16EF JUMP JUMPDEST PUSH1 0x40 MLOAD DUP1 SWAP2 SUB SWAP1 REVERT JUMPDEST PUSH0 PUSH1 0x2 PUSH0 DUP5 PUSH20 0xFFFFFFFFFFFFFFFFFFFFFFFFFFFFFFFFFFFFFFFF AND PUSH20 0xFFFFFFFFFFFFFFFFFFFFFFFFFFFFFFFFFFFFFFFF AND DUP2 MSTORE PUSH1 0x20 ADD SWAP1 DUP2 MSTORE PUSH1 0x20 ADD PUSH0 KECCAK256 DUP3 DUP2 SLOAD DUP2 LT PUSH2 0x97D JUMPI PUSH2 0x97C PUSH2 0x1678 JUMP JUMPDEST JUMPDEST SWAP1 PUSH0 MSTORE PUSH1 0x20 PUSH0 KECCAK256 SWAP1 PUSH1 0x5 MUL ADD PUSH1 0x4 ADD SLOAD GT PUSH2 0x9CD JUMPI PUSH1 0x40 MLOAD PUSH32 0x8C379A000000000000000000000000000000000000000000000000000000000 DUP2 MSTORE PUSH1 0x4 ADD PUSH2 0x9C4 SWAP1 PUSH2 0x180E JUMP JUMPDEST PUSH1 0x40 MLOAD DUP1 SWAP2 SUB SWAP1 REVERT JUMPDEST PUSH1 0x2 PUSH0 DUP4 PUSH20 0xFFFFFFFFFFFFFFFFFFFFFFFFFFFFFFFFFFFFFFFF AND PUSH20 0xFFFFFFFFFFFFFFFFFFFFFFFFFFFFFFFFFFFFFFFF AND DUP2 MSTORE PUSH1 0x20 ADD SWAP1 DUP2 MSTORE PUSH1 0x20 ADD PUSH0 KECCAK256 DUP2 DUP2 SLOAD DUP2 LT PUSH2 0xA1C JUMPI PUSH2 0xA1B PUSH2 0x1678 JUMP JUMPDEST JUMPDEST SWAP1 PUSH0 MSTORE PUSH1 0x20 PUSH0 KECCAK256 SWAP1 PUSH1 0x5 MUL ADD PUSH1 0x4 ADD PUSH0 DUP2 SLOAD DUP1 SWAP3 SWAP2 SWAP1 PUSH2 0xA3B SWAP1 PUSH2 0x182C JUMP JUMPDEST SWAP2 SWAP1 POP SSTORE POP PUSH32 0xD0D4999471EC2D64EF3082B701EA632E73CF03302F43274AB6D09A2B11CB1AE6 CALLER DUP4 DUP4 PUSH1 0x2 PUSH0 DUP8 PUSH20 0xFFFFFFFFFFFFFFFFFFFFFFFFFFFFFFFFFFFFFFFF AND PUSH20 0xFFFFFFFFFFFFFFFFFFFFFFFFFFFFFFFFFFFFFFFF AND DUP2 MSTORE PUSH1 0x20 ADD SWAP1 DUP2 MSTORE PUSH1 0x20 ADD PUSH0 KECCAK256 DUP6 DUP2 SLOAD DUP2 LT PUSH2 0xAB3 JUMPI PUSH2 0xAB2 PUSH2 0x1678 JUMP JUMPDEST JUMPDEST SWAP1 PUSH0 MSTORE PUSH1 0x20 PUSH0 KECCAK256 SWAP1 PUSH1 0x5 MUL ADD PUSH1 0x4 ADD SLOAD PUSH1 0x40 MLOAD PUSH2 0xAD3 SWAP5 SWAP4 SWAP3 SWAP2 SWAP1 PUSH2 0x1781 JUMP JUMPDEST PUSH1 0x40 MLOAD DUP1 SWAP2 SUB SWAP1 LOG1 POP POP JUMP JUMPDEST PUSH1 0x1 PUSH0 SWAP1 SLOAD SWAP1 PUSH2 0x100 EXP SWAP1 DIV PUSH20 0xFFFFFFFFFFFFFFFFFFFFFFFFFFFFFFFFFFFFFFFF AND DUP2 JUMP JUMPDEST PUSH2 0xB0C PUSH2 0xC7B JUMP JUMPDEST PUSH1 0x2 PUSH0 CALLER PUSH20 0xFFFFFFFFFFFFFFFFFFFFFFFFFFFFFFFFFFFFFFFF AND PUSH20 0xFFFFFFFFFFFFFFFFFFFFFFFFFFFFFFFFFFFFFFFF AND DUP2 MSTORE PUSH1 0x20 ADD SWAP1 DUP2 MSTORE PUSH1 0x20 ADD PUSH0 KECCAK256 DUP3 DUP2 SLOAD DUP2 LT PUSH2 0xB5B JUMPI PUSH2 0xB5A PUSH2 0x1678 JUMP JUMPDEST JUMPDEST SWAP1 PUSH0 MSTORE PUSH1 0x20 PUSH0 KECCAK256 SWAP1 PUSH1 0x5 MUL ADD PUSH1 0x40 MLOAD DUP1 PUSH1 0xA0 ADD PUSH1 0x40 MSTORE SWAP1 DUP2 PUSH0 DUP3 ADD SLOAD DUP2 MSTORE PUSH1 0x20 ADD PUSH1 0x1 DUP3 ADD PUSH0 SWAP1 SLOAD SWAP1 PUSH2 0x100 EXP SWAP1 DIV PUSH20 0xFFFFFFFFFFFFFFFFFFFFFFFFFFFFFFFFFFFFFFFF AND PUSH20 0xFFFFFFFFFFFFFFFFFFFFFFFFFFFFFFFFFFFFFFFF AND PUSH20 0xFFFFFFFFFFFFFFFFFFFFFFFFFFFFFFFFFFFFFFFF AND DUP2 MSTORE PUSH1 0x20 ADD PUSH1 0x2 DUP3 ADD DUP1 SLOAD PUSH2 0xBE0 SWAP1 PUSH2 0x12C2 JUMP JUMPDEST DUP1 PUSH1 0x1F ADD PUSH1 0x20 DUP1 SWAP2 DIV MUL PUSH1 0x20 ADD PUSH1 0x40 MLOAD SWAP1 DUP2 ADD PUSH1 0x40 MSTORE DUP1 SWAP3 SWAP2 SWAP1 DUP2 DUP2 MSTORE PUSH1 0x20 ADD DUP3 DUP1 SLOAD PUSH2 0xC0C SWAP1 PUSH2 0x12C2 JUMP JUMPDEST DUP1 ISZERO PUSH2 0xC57 JUMPI DUP1 PUSH1 0x1F LT PUSH2 0xC2E JUMPI PUSH2 0x100 DUP1 DUP4 SLOAD DIV MUL DUP4 MSTORE SWAP2 PUSH1 0x20 ADD SWAP2 PUSH2 0xC57 JUMP JUMPDEST DUP3 ADD SWAP2 SWAP1 PUSH0 MSTORE PUSH1 0x20 PUSH0 KECCAK256 SWAP1 JUMPDEST DUP2 SLOAD DUP2 MSTORE SWAP1 PUSH1 0x1 ADD SWAP1 PUSH1 0x20 ADD DUP1 DUP4 GT PUSH2 0xC3A JUMPI DUP3 SWAP1 SUB PUSH1 0x1F AND DUP3 ADD SWAP2 JUMPDEST POP POP POP POP POP DUP2 MSTORE PUSH1 0x20 ADD PUSH1 0x3 DUP3 ADD SLOAD DUP2 MSTORE PUSH1 0x20 ADD PUSH1 0x4 DUP3 ADD SLOAD DUP2 MSTORE POP POP SWAP1 POP SWAP2 SWAP1 POP JUMP JUMPDEST PUSH1 0x40 MLOAD DUP1 PUSH1 0xA0 ADD PUSH1 0x40 MSTORE DUP1 PUSH0 DUP2 MSTORE PUSH1 0x20 ADD PUSH0 PUSH20 0xFFFFFFFFFFFFFFFFFFFFFFFFFFFFFFFFFFFFFFFF AND DUP2 MSTORE PUSH1 0x20 ADD PUSH1 0x60 DUP2 MSTORE PUSH1 0x20 ADD PUSH0 DUP2 MSTORE PUSH1 0x20 ADD PUSH0 DUP2 MSTORE POP SWAP1 JUMP JUMPDEST PUSH0 PUSH1 0x40 MLOAD SWAP1 POP SWAP1 JUMP JUMPDEST PUSH0 DUP1 REVERT JUMPDEST PUSH0 DUP1 REVERT JUMPDEST PUSH0 PUSH20 0xFFFFFFFFFFFFFFFFFFFFFFFFFFFFFFFFFFFFFFFF DUP3 AND SWAP1 POP SWAP2 SWAP1 POP JUMP JUMPDEST PUSH0 PUSH2 0xCF6 DUP3 PUSH2 0xCCD JUMP JUMPDEST SWAP1 POP SWAP2 SWAP1 POP JUMP JUMPDEST PUSH2 0xD06 DUP2 PUSH2 0xCEC JUMP JUMPDEST DUP2 EQ PUSH2 0xD10 JUMPI PUSH0 DUP1 REVERT JUMPDEST POP JUMP JUMPDEST PUSH0 DUP2 CALLDATALOAD SWAP1 POP PUSH2 0xD21 DUP2 PUSH2 0xCFD JUMP JUMPDEST SWAP3 SWAP2 POP POP JUMP JUMPDEST PUSH0 DUP2 SWAP1 POP SWAP2 SWAP1 POP JUMP JUMPDEST PUSH2 0xD39 DUP2 PUSH2 0xD27 JUMP JUMPDEST DUP2 EQ PUSH2 0xD43 JUMPI PUSH0 DUP1 REVERT JUMPDEST POP JUMP JUMPDEST PUSH0 DUP2 CALLDATALOAD SWAP1 POP PUSH2 0xD54 DUP2 PUSH2 0xD30 JUMP JUMPDEST SWAP3 SWAP2 POP POP JUMP JUMPDEST PUSH0 DUP1 PUSH1 0x40 DUP4 DUP6 SUB SLT ISZERO PUSH2 0xD70 JUMPI PUSH2 0xD6F PUSH2 0xCC5 JUMP JUMPDEST JUMPDEST PUSH0 PUSH2 0xD7D DUP6 DUP3 DUP7 ADD PUSH2 0xD13 JUMP JUMPDEST SWAP3 POP POP PUSH1 0x20 PUSH2 0xD8E DUP6 DUP3 DUP7 ADD PUSH2 0xD46 JUMP JUMPDEST SWAP2 POP POP SWAP3 POP SWAP3 SWAP1 POP JUMP JUMPDEST PUSH2 0xDA1 DUP2 PUSH2 0xD27 JUMP JUMPDEST DUP3 MSTORE POP POP JUMP JUMPDEST PUSH2 0xDB0 DUP2 PUSH2 0xCEC JUMP JUMPDEST DUP3 MSTORE POP POP JUMP JUMPDEST PUSH0 DUP2 MLOAD SWAP1 POP SWAP2 SWAP1 POP JUMP JUMPDEST PUSH0 DUP3 DUP3 MSTORE PUSH1 0x20 DUP3 ADD SWAP1 POP SWAP3 SWAP2 POP POP JUMP JUMPDEST DUP3 DUP2 DUP4 MCOPY PUSH0 DUP4 DUP4 ADD MSTORE POP POP POP JUMP JUMPDEST PUSH0 PUSH1 0x1F NOT PUSH1 0x1F DUP4 ADD AND SWAP1 POP SWAP2 SWAP1 POP JUMP JUMPDEST PUSH0 PUSH2 0xDF8 DUP3 PUSH2 0xDB6 JUMP JUMPDEST PUSH2 0xE02 DUP2 DUP6 PUSH2 0xDC0 JUMP JUMPDEST SWAP4 POP PUSH2 0xE12 DUP2 DUP6 PUSH1 0x20 DUP7 ADD PUSH2 0xDD0 JUMP JUMPDEST PUSH2 0xE1B DUP2 PUSH2 0xDDE JUMP JUMPDEST DUP5 ADD SWAP2 POP POP SWAP3 SWAP2 POP POP JUMP JUMPDEST PUSH0 PUSH1 0xA0 DUP3 ADD SWAP1 POP PUSH2 0xE39 PUSH0 DUP4 ADD DUP9 PUSH2 0xD98 JUMP JUMPDEST PUSH2 0xE46 PUSH1 0x20 DUP4 ADD DUP8 PUSH2 0xDA7 JUMP JUMPDEST DUP2 DUP2 SUB PUSH1 0x40 DUP4 ADD MSTORE PUSH2 0xE58 DUP2 DUP7 PUSH2 0xDEE JUMP JUMPDEST SWAP1 POP PUSH2 0xE67 PUSH1 0x60 DUP4 ADD DUP6 PUSH2 0xD98 JUMP JUMPDEST PUSH2 0xE74 PUSH1 0x80 DUP4 ADD DUP5 PUSH2 0xD98 JUMP JUMPDEST SWAP7 SWAP6 POP POP POP POP POP POP JUMP JUMPDEST PUSH0 DUP2 MLOAD SWAP1 POP SWAP2 SWAP1 POP JUMP JUMPDEST PUSH0 DUP3 DUP3 MSTORE PUSH1 0x20 DUP3 ADD SWAP1 POP SWAP3 SWAP2 POP POP JUMP JUMPDEST PUSH0 DUP2 SWAP1 POP PUSH1 0x20 DUP3 ADD SWAP1 POP SWAP2 SWAP1 POP JUMP JUMPDEST PUSH2 0xEB0 DUP2 PUSH2 0xD27 JUMP JUMPDEST DUP3 MSTORE POP POP JUMP JUMPDEST PUSH2 0xEBF DUP2 PUSH2 0xCEC JUMP JUMPDEST DUP3 MSTORE POP POP JUMP JUMPDEST PUSH0 DUP3 DUP3 MSTORE PUSH1 0x20 DUP3 ADD SWAP1 POP SWAP3 SWAP2 POP POP JUMP JUMPDEST PUSH0 PUSH2 0xEDF DUP3 PUSH2 0xDB6 JUMP JUMPDEST PUSH2 0xEE9 DUP2 DUP6 PUSH2 0xEC5 JUMP JUMPDEST SWAP4 POP PUSH2 0xEF9 DUP2 DUP6 PUSH1 0x20 DUP7 ADD PUSH2 0xDD0 JUMP JUMPDEST PUSH2 0xF02 DUP2 PUSH2 0xDDE JUMP JUMPDEST DUP5 ADD SWAP2 POP POP SWAP3 SWAP2 POP POP JUMP JUMPDEST PUSH0 PUSH1 0xA0 DUP4 ADD PUSH0 DUP4 ADD MLOAD PUSH2 0xF22 PUSH0 DUP7 ADD DUP3 PUSH2 0xEA7 JUMP JUMPDEST POP PUSH1 0x20 DUP4 ADD MLOAD PUSH2 0xF35 PUSH1 0x20 DUP7 ADD DUP3 PUSH2 0xEB6 JUMP JUMPDEST POP PUSH1 0x40 DUP4 ADD MLOAD DUP5 DUP3 SUB PUSH1 0x40 DUP7 ADD MSTORE PUSH2 0xF4D DUP3 DUP3 PUSH2 0xED5 JUMP JUMPDEST SWAP2 POP POP PUSH1 0x60 DUP4 ADD MLOAD PUSH2 0xF62 PUSH1 0x60 DUP7 ADD DUP3 PUSH2 0xEA7 JUMP JUMPDEST POP PUSH1 0x80 DUP4 ADD MLOAD PUSH2 0xF75 PUSH1 0x80 DUP7 ADD DUP3 PUSH2 0xEA7 JUMP JUMPDEST POP DUP1 SWAP2 POP POP SWAP3 SWAP2 POP POP JUMP JUMPDEST PUSH0 PUSH2 0xF8B DUP4 DUP4 PUSH2 0xF0D JUMP JUMPDEST SWAP1 POP SWAP3 SWAP2 POP POP JUMP JUMPDEST PUSH0 PUSH1 0x20 DUP3 ADD SWAP1 POP SWAP2 SWAP1 POP JUMP JUMPDEST PUSH0 PUSH2 0xFA9 DUP3 PUSH2 0xE7E JUMP JUMPDEST PUSH2 0xFB3 DUP2 DUP6 PUSH2 0xE88 JUMP JUMPDEST SWAP4 POP DUP4 PUSH1 0x20 DUP3 MUL DUP6 ADD PUSH2 0xFC5 DUP6 PUSH2 0xE98 JUMP JUMPDEST DUP1 PUSH0 JUMPDEST DUP6 DUP2 LT ISZERO PUSH2 0x1000 JUMPI DUP5 DUP5 SUB DUP10 MSTORE DUP2 MLOAD PUSH2 0xFE1 DUP6 DUP3 PUSH2 0xF80 JUMP JUMPDEST SWAP5 POP PUSH2 0xFEC DUP4 PUSH2 0xF93 JUMP JUMPDEST SWAP3 POP PUSH1 0x20 DUP11 ADD SWAP10 POP POP PUSH1 0x1 DUP2 ADD SWAP1 POP PUSH2 0xFC8 JUMP JUMPDEST POP DUP3 SWAP8 POP DUP8 SWAP6 POP POP POP POP POP POP SWAP3 SWAP2 POP POP JUMP JUMPDEST PUSH0 PUSH1 0x20 DUP3 ADD SWAP1 POP DUP2 DUP2 SUB PUSH0 DUP4 ADD MSTORE PUSH2 0x102A DUP2 DUP5 PUSH2 0xF9F JUMP JUMPDEST SWAP1 POP SWAP3 SWAP2 POP POP JUMP JUMPDEST PUSH0 PUSH1 0x20 DUP3 ADD SWAP1 POP PUSH2 0x1045 PUSH0 DUP4 ADD DUP5 PUSH2 0xD98 JUMP JUMPDEST SWAP3 SWAP2 POP POP JUMP JUMPDEST PUSH0 DUP1 REVERT JUMPDEST PUSH0 DUP1 REVERT JUMPDEST PUSH32 0x4E487B7100000000000000000000000000000000000000000000000000000000 PUSH0 MSTORE PUSH1 0x41 PUSH1 0x4 MSTORE PUSH1 0x24 PUSH0 REVERT JUMPDEST PUSH2 0x1089 DUP3 PUSH2 0xDDE JUMP JUMPDEST DUP2 ADD DUP2 DUP2 LT PUSH8 0xFFFFFFFFFFFFFFFF DUP3 GT OR ISZERO PUSH2 0x10A8 JUMPI PUSH2 0x10A7 PUSH2 0x1053 JUMP JUMPDEST JUMPDEST DUP1 PUSH1 0x40 MSTORE POP POP POP JUMP JUMPDEST PUSH0 PUSH2 0x10BA PUSH2 0xCBC JUMP JUMPDEST SWAP1 POP PUSH2 0x10C6 DUP3 DUP3 PUSH2 0x1080 JUMP JUMPDEST SWAP2 SWAP1 POP JUMP JUMPDEST PUSH0 PUSH8 0xFFFFFFFFFFFFFFFF DUP3 GT ISZERO PUSH2 0x10E5 JUMPI PUSH2 0x10E4 PUSH2 0x1053 JUMP JUMPDEST JUMPDEST PUSH2 0x10EE DUP3 PUSH2 0xDDE JUMP JUMPDEST SWAP1 POP PUSH1 0x20 DUP2 ADD SWAP1 POP SWAP2 SWAP1 POP JUMP JUMPDEST DUP3 DUP2 DUP4 CALLDATACOPY PUSH0 DUP4 DUP4 ADD MSTORE POP POP POP JUMP JUMPDEST PUSH0 PUSH2 0x111B PUSH2 0x1116 DUP5 PUSH2 0x10CB JUMP JUMPDEST PUSH2 0x10B1 JUMP JUMPDEST SWAP1 POP DUP3 DUP2 MSTORE PUSH1 0x20 DUP2 ADD DUP5 DUP5 DUP5 ADD GT ISZERO PUSH2 0x1137 JUMPI PUSH2 0x1136 PUSH2 0x104F JUMP JUMPDEST JUMPDEST PUSH2 0x1142 DUP5 DUP3 DUP6 PUSH2 0x10FB JUMP JUMPDEST POP SWAP4 SWAP3 POP POP POP JUMP JUMPDEST PUSH0 DUP3 PUSH1 0x1F DUP4 ADD SLT PUSH2 0x115E JUMPI PUSH2 0x115D PUSH2 0x104B JUMP JUMPDEST JUMPDEST DUP2 CALLDATALOAD PUSH2 0x116E DUP5 DUP3 PUSH1 0x20 DUP7 ADD PUSH2 0x1109 JUMP JUMPDEST SWAP2 POP POP SWAP3 SWAP2 POP POP JUMP JUMPDEST PUSH0 PUSH1 0x20 DUP3 DUP5 SUB SLT ISZERO PUSH2 0x118C JUMPI PUSH2 0x118B PUSH2 0xCC5 JUMP JUMPDEST JUMPDEST PUSH0 DUP3 ADD CALLDATALOAD PUSH8 0xFFFFFFFFFFFFFFFF DUP2 GT ISZERO PUSH2 0x11A9 JUMPI PUSH2 0x11A8 PUSH2 0xCC9 JUMP JUMPDEST JUMPDEST PUSH2 0x11B5 DUP5 DUP3 DUP6 ADD PUSH2 0x114A JUMP JUMPDEST SWAP2 POP POP SWAP3 SWAP2 POP POP JUMP JUMPDEST PUSH0 PUSH1 0x20 DUP3 DUP5 SUB SLT ISZERO PUSH2 0x11D3 JUMPI PUSH2 0x11D2 PUSH2 0xCC5 JUMP JUMPDEST JUMPDEST PUSH0 PUSH2 0x11E0 DUP5 DUP3 DUP6 ADD PUSH2 0xD46 JUMP JUMPDEST SWAP2 POP POP SWAP3 SWAP2 POP POP JUMP JUMPDEST PUSH0 PUSH1 0x20 DUP3 ADD SWAP1 POP PUSH2 0x11FC PUSH0 DUP4 ADD DUP5 PUSH2 0xDA7 JUMP JUMPDEST SWAP3 SWAP2 POP POP JUMP JUMPDEST PUSH0 PUSH1 0xA0 DUP4 ADD PUSH0 DUP4 ADD MLOAD PUSH2 0x1217 PUSH0 DUP7 ADD DUP3 PUSH2 0xEA7 JUMP JUMPDEST POP PUSH1 0x20 DUP4 ADD MLOAD PUSH2 0x122A PUSH1 0x20 DUP7 ADD DUP3 PUSH2 0xEB6 JUMP JUMPDEST POP PUSH1 0x40 DUP4 ADD MLOAD DUP5 DUP3 SUB PUSH1 0x40 DUP7 ADD MSTORE PUSH2 0x1242 DUP3 DUP3 PUSH2 0xED5 JUMP JUMPDEST SWAP2 POP POP PUSH1 0x60 DUP4 ADD MLOAD PUSH2 0x1257 PUSH1 0x60 DUP7 ADD DUP3 PUSH2 0xEA7 JUMP JUMPDEST POP PUSH1 0x80 DUP4 ADD MLOAD PUSH2 0x126A PUSH1 0x80 DUP7 ADD DUP3 PUSH2 0xEA7 JUMP JUMPDEST POP DUP1 SWAP2 POP POP SWAP3 SWAP2 POP POP JUMP JUMPDEST PUSH0 PUSH1 0x20 DUP3 ADD SWAP1 POP DUP2 DUP2 SUB PUSH0 DUP4 ADD MSTORE PUSH2 0x128D DUP2 DUP5 PUSH2 0x1202 JUMP JUMPDEST SWAP1 POP SWAP3 SWAP2 POP POP JUMP JUMPDEST PUSH32 0x4E487B7100000000000000000000000000000000000000000000000000000000 PUSH0 MSTORE PUSH1 0x22 PUSH1 0x4 MSTORE PUSH1 0x24 PUSH0 REVERT JUMPDEST PUSH0 PUSH1 0x2 DUP3 DIV SWAP1 POP PUSH1 0x1 DUP3 AND DUP1 PUSH2 0x12D9 JUMPI PUSH1 0x7F DUP3 AND SWAP2 POP JUMPDEST PUSH1 0x20 DUP3 LT DUP2 SUB PUSH2 0x12EC JUMPI PUSH2 0x12EB PUSH2 0x1295 JUMP JUMPDEST JUMPDEST POP SWAP2 SWAP1 POP JUMP JUMPDEST PUSH32 0x547765657420697320746F6F206C6F6E67210000000000000000000000000000 PUSH0 DUP3 ADD MSTORE POP JUMP JUMPDEST PUSH0 PUSH2 0x1326 PUSH1 0x12 DUP4 PUSH2 0xDC0 JUMP JUMPDEST SWAP2 POP PUSH2 0x1331 DUP3 PUSH2 0x12F2 JUMP JUMPDEST PUSH1 0x20 DUP3 ADD SWAP1 POP SWAP2 SWAP1 POP JUMP JUMPDEST PUSH0 PUSH1 0x20 DUP3 ADD SWAP1 POP DUP2 DUP2 SUB PUSH0 DUP4 ADD MSTORE PUSH2 0x1353 DUP2 PUSH2 0x131A JUMP JUMPDEST SWAP1 POP SWAP2 SWAP1 POP JUMP JUMPDEST PUSH0 DUP2 SWAP1 POP DUP2 PUSH0 MSTORE PUSH1 0x20 PUSH0 KECCAK256 SWAP1 POP SWAP2 SWAP1 POP JUMP JUMPDEST PUSH0 PUSH1 0x20 PUSH1 0x1F DUP4 ADD DIV SWAP1 POP SWAP2 SWAP1 POP JUMP JUMPDEST PUSH0 DUP3 DUP3 SHL SWAP1 POP SWAP3 SWAP2 POP POP JUMP JUMPDEST PUSH0 PUSH1 0x8 DUP4 MUL PUSH2 0x13B6 PUSH32 0xFFFFFFFFFFFFFFFFFFFFFFFFFFFFFFFFFFFFFFFFFFFFFFFFFFFFFFFFFFFFFFFF DUP3 PUSH2 0x137B JUMP JUMPDEST PUSH2 0x13C0 DUP7 DUP4 PUSH2 0x137B JUMP JUMPDEST SWAP6 POP DUP1 NOT DUP5 AND SWAP4 POP DUP1 DUP7 AND DUP5 OR SWAP3 POP POP POP SWAP4 SWAP3 POP POP POP JUMP JUMPDEST PUSH0 DUP2 SWAP1 POP SWAP2 SWAP1 POP JUMP JUMPDEST PUSH0 PUSH2 0x13FB PUSH2 0x13F6 PUSH2 0x13F1 DUP5 PUSH2 0xD27 JUMP JUMPDEST PUSH2 0x13D8 JUMP JUMPDEST PUSH2 0xD27 JUMP JUMPDEST SWAP1 POP SWAP2 SWAP1 POP JUMP JUMPDEST PUSH0 DUP2 SWAP1 POP SWAP2 SWAP1 POP JUMP JUMPDEST PUSH2 0x1414 DUP4 PUSH2 0x13E1 JUMP JUMPDEST PUSH2 0x1428 PUSH2 0x1420 DUP3 PUSH2 0x1402 JUMP JUMPDEST DUP5 DUP5 SLOAD PUSH2 0x1387 JUMP JUMPDEST DUP3 SSTORE POP POP POP POP JUMP JUMPDEST PUSH0 SWAP1 JUMP JUMPDEST PUSH2 0x143C PUSH2 0x1430 JUMP JUMPDEST PUSH2 0x1447 DUP2 DUP5 DUP5 PUSH2 0x140B JUMP JUMPDEST POP POP POP JUMP JUMPDEST JUMPDEST DUP2 DUP2 LT ISZERO PUSH2 0x146A JUMPI PUSH2 0x145F PUSH0 DUP3 PUSH2 0x1434 JUMP JUMPDEST PUSH1 0x1 DUP2 ADD SWAP1 POP PUSH2 0x144D JUMP JUMPDEST POP POP JUMP JUMPDEST PUSH1 0x1F DUP3 GT ISZERO PUSH2 0x14AF JUMPI PUSH2 0x1480 DUP2 PUSH2 0x135A JUMP JUMPDEST PUSH2 0x1489 DUP5 PUSH2 0x136C JUMP JUMPDEST DUP2 ADD PUSH1 0x20 DUP6 LT ISZERO PUSH2 0x1498 JUMPI DUP2 SWAP1 POP JUMPDEST PUSH2 0x14AC PUSH2 0x14A4 DUP6 PUSH2 0x136C JUMP JUMPDEST DUP4 ADD DUP3 PUSH2 0x144C JUMP JUMPDEST POP POP JUMPDEST POP POP POP JUMP JUMPDEST PUSH0 DUP3 DUP3 SHR SWAP1 POP SWAP3 SWAP2 POP POP JUMP JUMPDEST PUSH0 PUSH2 0x14CF PUSH0 NOT DUP5 PUSH1 0x8 MUL PUSH2 0x14B4 JUMP JUMPDEST NOT DUP1 DUP4 AND SWAP2 POP POP SWAP3 SWAP2 POP POP JUMP JUMPDEST PUSH0 PUSH2 0x14E7 DUP4 DUP4 PUSH2 0x14C0 JUMP JUMPDEST SWAP2 POP DUP3 PUSH1 0x2 MUL DUP3 OR SWAP1 POP SWAP3 SWAP2 POP POP JUMP JUMPDEST PUSH2 0x1500 DUP3 PUSH2 0xDB6 JUMP JUMPDEST PUSH8 0xFFFFFFFFFFFFFFFF DUP2 GT ISZERO PUSH2 0x1519 JUMPI PUSH2 0x1518 PUSH2 0x1053 JUMP JUMPDEST JUMPDEST PUSH2 0x1523 DUP3 SLOAD PUSH2 0x12C2 JUMP JUMPDEST PUSH2 0x152E DUP3 DUP3 DUP6 PUSH2 0x146E JUMP JUMPDEST PUSH0 PUSH1 0x20 SWAP1 POP PUSH1 0x1F DUP4 GT PUSH1 0x1 DUP2 EQ PUSH2 0x155F JUMPI PUSH0 DUP5 ISZERO PUSH2 0x154D JUMPI DUP3 DUP8 ADD MLOAD SWAP1 POP JUMPDEST PUSH2 0x1557 DUP6 DUP3 PUSH2 0x14DC JUMP JUMPDEST DUP7 SSTORE POP PUSH2 0x15BE JUMP JUMPDEST PUSH1 0x1F NOT DUP5 AND PUSH2 0x156D DUP7 PUSH2 0x135A JUMP JUMPDEST PUSH0 JUMPDEST DUP3 DUP2 LT ISZERO PUSH2 0x1594 JUMPI DUP5 DUP10 ADD MLOAD DUP3 SSTORE PUSH1 0x1 DUP3 ADD SWAP2 POP PUSH1 0x20 DUP6 ADD SWAP5 POP PUSH1 0x20 DUP2 ADD SWAP1 POP PUSH2 0x156F JUMP JUMPDEST DUP7 DUP4 LT ISZERO PUSH2 0x15B1 JUMPI DUP5 DUP10 ADD MLOAD PUSH2 0x15AD PUSH1 0x1F DUP10 AND DUP3 PUSH2 0x14C0 JUMP JUMPDEST DUP4 SSTORE POP JUMPDEST PUSH1 0x1 PUSH1 0x2 DUP9 MUL ADD DUP9 SSTORE POP POP POP JUMPDEST POP POP POP POP POP POP JUMP JUMPDEST PUSH0 PUSH1 0x80 DUP3 ADD SWAP1 POP PUSH2 0x15D9 PUSH0 DUP4 ADD DUP8 PUSH2 0xD98 JUMP JUMPDEST PUSH2 0x15E6 PUSH1 0x20 DUP4 ADD DUP7 PUSH2 0xDA7 JUMP JUMPDEST DUP2 DUP2 SUB PUSH1 0x40 DUP4 ADD MSTORE PUSH2 0x15F8 DUP2 DUP6 PUSH2 0xDEE JUMP JUMPDEST SWAP1 POP PUSH2 0x1607 PUSH1 0x60 DUP4 ADD DUP5 PUSH2 0xD98 JUMP JUMPDEST SWAP6 SWAP5 POP POP POP POP POP JUMP JUMPDEST PUSH32 0x596F7520617265206E6F74207265676973746572656400000000000000000000 PUSH0 DUP3 ADD MSTORE POP JUMP JUMPDEST PUSH0 PUSH2 0x1644 PUSH1 0x16 DUP4 PUSH2 0xDC0 JUMP JUMPDEST SWAP2 POP PUSH2 0x164F DUP3 PUSH2 0x1610 JUMP JUMPDEST PUSH1 0x20 DUP3 ADD SWAP1 POP SWAP2 SWAP1 POP JUMP JUMPDEST PUSH0 PUSH1 0x20 DUP3 ADD SWAP1 POP DUP2 DUP2 SUB PUSH0 DUP4 ADD MSTORE PUSH2 0x1671 DUP2 PUSH2 0x1638 JUMP JUMPDEST SWAP1 POP SWAP2 SWAP1 POP JUMP JUMPDEST PUSH32 0x4E487B7100000000000000000000000000000000000000000000000000000000 PUSH0 MSTORE PUSH1 0x32 PUSH1 0x4 MSTORE PUSH1 0x24 PUSH0 REVERT JUMPDEST PUSH32 0x547765657420646F6573206E6F74206578697374000000000000000000000000 PUSH0 DUP3 ADD MSTORE POP JUMP JUMPDEST PUSH0 PUSH2 0x16D9 PUSH1 0x14 DUP4 PUSH2 0xDC0 JUMP JUMPDEST SWAP2 POP PUSH2 0x16E4 DUP3 PUSH2 0x16A5 JUMP JUMPDEST PUSH1 0x20 DUP3 ADD SWAP1 POP SWAP2 SWAP1 POP JUMP JUMPDEST PUSH0 PUSH1 0x20 DUP3 ADD SWAP1 POP DUP2 DUP2 SUB PUSH0 DUP4 ADD MSTORE PUSH2 0x1706 DUP2 PUSH2 0x16CD JUMP JUMPDEST SWAP1 POP SWAP2 SWAP1 POP JUMP JUMPDEST PUSH32 0x4E487B7100000000000000000000000000000000000000000000000000000000 PUSH0 MSTORE PUSH1 0x11 PUSH1 0x4 MSTORE PUSH1 0x24 PUSH0 REVERT JUMPDEST PUSH0 PUSH2 0x1744 DUP3 PUSH2 0xD27 JUMP JUMPDEST SWAP2 POP PUSH32 0xFFFFFFFFFFFFFFFFFFFFFFFFFFFFFFFFFFFFFFFFFFFFFFFFFFFFFFFFFFFFFFFF DUP3 SUB PUSH2 0x1776 JUMPI PUSH2 0x1775 PUSH2 0x170D JUMP JUMPDEST JUMPDEST PUSH1 0x1 DUP3 ADD SWAP1 POP SWAP2 SWAP1 POP JUMP JUMPDEST PUSH0 PUSH1 0x80 DUP3 ADD SWAP1 POP PUSH2 0x1794 PUSH0 DUP4 ADD DUP8 PUSH2 0xDA7 JUMP JUMPDEST PUSH2 0x17A1 PUSH1 0x20 DUP4 ADD DUP7 PUSH2 0xDA7 JUMP JUMPDEST PUSH2 0x17AE PUSH1 0x40 DUP4 ADD DUP6 PUSH2 0xD98 JUMP JUMPDEST PUSH2 0x17BB PUSH1 0x60 DUP4 ADD DUP5 PUSH2 0xD98 JUMP JUMPDEST SWAP6 SWAP5 POP POP POP POP POP JUMP JUMPDEST PUSH32 0x545745455420484153204E4F204C494B45530000000000000000000000000000 PUSH0 DUP3 ADD MSTORE POP JUMP JUMPDEST PUSH0 PUSH2 0x17F8 PUSH1 0x12 DUP4 PUSH2 0xDC0 JUMP JUMPDEST SWAP2 POP PUSH2 0x1803 DUP3 PUSH2 0x17C4 JUMP JUMPDEST PUSH1 0x20 DUP3 ADD SWAP1 POP SWAP2 SWAP1 POP JUMP JUMPDEST PUSH0 PUSH1 0x20 DUP3 ADD SWAP1 POP DUP2 DUP2 SUB PUSH0 DUP4 ADD MSTORE PUSH2 0x1825 DUP2 PUSH2 0x17EC JUMP JUMPDEST SWAP1 POP SWAP2 SWAP1 POP JUMP JUMPDEST PUSH0 PUSH2 0x1836 DUP3 PUSH2 0xD27 JUMP JUMPDEST SWAP2 POP PUSH0 DUP3 SUB PUSH2 0x1848 JUMPI PUSH2 0x1847 PUSH2 0x170D JUMP JUMPDEST JUMPDEST PUSH1 0x1 DUP3 SUB SWAP1 POP SWAP2 SWAP1 POP JUMP INVALID LOG2 PUSH5 0x6970667358 0x22 SLT KECCAK256 PUSH1 0xE8 0xB8 PUSH22 0x261F34A385302D8858B51DD1BCC24D1F1BD0BCBE35B5 JUMP SWAP3 0xCC 0xBC 0xE0 MUL PUSH5 0x736F6C6343 STOP ADDMOD BYTE STOP CALLER "
				},
				"gasEstimates": {
					"creation": {
						"codeDepositCost": "1256200",
						"executionCost": "47676",
						"totalCost": "1303876"
					},
					"external": {
						"MAX_TWEET_LENGTH()": "2469",
						"_owner()": "2574",
						"changeTweetLength(uint256)": "24683",
						"createTweet(string)": "infinite",
						"dislikeTweet(address,uint256)": "infinite",
						"getAllTweets()": "infinite",
						"getTweet(uint256)": "infinite",
						"likedTweet(address,uint256)": "infinite",
						"tweets(address,uint256)": "infinite"
					}
				},
				"methodIdentifiers": {
					"MAX_TWEET_LENGTH()": "6eb10797",
					"_owner()": "b2bdfa7b",
					"changeTweetLength(uint256)": "888a7880",
					"createTweet(string)": "7c9cd2bc",
					"dislikeTweet(address,uint256)": "ae775e95",
					"getAllTweets()": "53256135",
					"getTweet(uint256)": "c3ad5ecb",
					"likedTweet(address,uint256)": "a0d96b6f",
					"tweets(address,uint256)": "05a1b4a9"
				}
			},
			"storageLayout": {
				"storage": [
					{
						"astId": 4,
						"contract": "contracts/practice.sol:Twitter",
						"label": "MAX_TWEET_LENGTH",
						"offset": 0,
						"slot": "0",
						"type": "t_uint256"
					},
					{
						"astId": 17,
						"contract": "contracts/practice.sol:Twitter",
						"label": "_owner",
						"offset": 0,
						"slot": "1",
						"type": "t_address"
					},
					{
						"astId": 62,
						"contract": "contracts/practice.sol:Twitter",
						"label": "tweets",
						"offset": 0,
						"slot": "2",
						"type": "t_mapping(t_address,t_array(t_struct(Tweet)15_storage)dyn_storage)"
					}
				],
				"types": {
					"t_address": {
						"encoding": "inplace",
						"label": "address",
						"numberOfBytes": "20"
					},
					"t_array(t_struct(Tweet)15_storage)dyn_storage": {
						"base": "t_struct(Tweet)15_storage",
						"encoding": "dynamic_array",
						"label": "struct Twitter.Tweet[]",
						"numberOfBytes": "32"
					},
					"t_mapping(t_address,t_array(t_struct(Tweet)15_storage)dyn_storage)": {
						"encoding": "mapping",
						"key": "t_address",
						"label": "mapping(address => struct Twitter.Tweet[])",
						"numberOfBytes": "32",
						"value": "t_array(t_struct(Tweet)15_storage)dyn_storage"
					},
					"t_string_storage": {
						"encoding": "bytes",
						"label": "string",
						"numberOfBytes": "32"
					},
					"t_struct(Tweet)15_storage": {
						"encoding": "inplace",
						"label": "struct Twitter.Tweet",
						"members": [
							{
								"astId": 6,
								"contract": "contracts/practice.sol:Twitter",
								"label": "id",
								"offset": 0,
								"slot": "0",
								"type": "t_uint256"
							},
							{
								"astId": 8,
								"contract": "contracts/practice.sol:Twitter",
								"label": "author",
								"offset": 0,
								"slot": "1",
								"type": "t_address"
							},
							{
								"astId": 10,
								"contract": "contracts/practice.sol:Twitter",
								"label": "content",
								"offset": 0,
								"slot": "2",
								"type": "t_string_storage"
							},
							{
								"astId": 12,
								"contract": "contracts/practice.sol:Twitter",
								"label": "timestamp",
								"offset": 0,
								"slot": "3",
								"type": "t_uint256"
							},
							{
								"astId": 14,
								"contract": "contracts/practice.sol:Twitter",
								"label": "likes",
								"offset": 0,
								"slot": "4",
								"type": "t_uint256"
							}
						],
						"numberOfBytes": "160"
					},
					"t_uint256": {
						"encoding": "inplace",
						"label": "uint256",
						"numberOfBytes": "32"
					}
				}
			},
			"userdoc": {
				"kind": "user",
				"methods": {},
				"version": 1
			}
		}
	}
}