{
	"contracts/Twitter3.sol": {
		"Twitter": {
			"abi": [
				{
					"inputs": [
						{
							"internalType": "string",
							"name": "_tweets",
							"type": "string"
						}
					],
					"name": "creatTweets",
					"outputs": [],
					"stateMutability": "nonpayable",
					"type": "function"
				},
				{
					"inputs": [
						{
							"internalType": "address",
							"name": "_owner",
							"type": "address"
						}
					],
					"name": "getAllTweets",
					"outputs": [
						{
							"components": [
								{
									"internalType": "address",
									"name": "author",
									"type": "address"
								},
								{
									"internalType": "string",
									"name": "content",
									"type": "string"
								},
								{
									"internalType": "uint256",
									"name": "timestamp",
									"type": "uint256"
								},
								{
									"internalType": "uint256",
									"name": "likes",
									"type": "uint256"
								}
							],
							"internalType": "struct Twitter.TwitterStruct[]",
							"name": "",
							"type": "tuple[]"
						}
					],
					"stateMutability": "view",
					"type": "function"
				},
				{
					"inputs": [
						{
							"internalType": "address",
							"name": "_owner",
							"type": "address"
						},
						{
							"internalType": "uint256",
							"name": "_i",
							"type": "uint256"
						}
					],
					"name": "getTweets",
					"outputs": [
						{
							"components": [
								{
									"internalType": "address",
									"name": "author",
									"type": "address"
								},
								{
									"internalType": "string",
									"name": "content",
									"type": "string"
								},
								{
									"internalType": "uint256",
									"name": "timestamp",
									"type": "uint256"
								},
								{
									"internalType": "uint256",
									"name": "likes",
									"type": "uint256"
								}
							],
							"internalType": "struct Twitter.TwitterStruct",
							"name": "",
							"type": "tuple"
						}
					],
					"stateMutability": "view",
					"type": "function"
				},
				{
					"inputs": [
						{
							"internalType": "address",
							"name": "",
							"type": "address"
						},
						{
							"internalType": "uint256",
							"name": "",
							"type": "uint256"
						}
					],
					"name": "tweets",
					"outputs": [
						{
							"internalType": "address",
							"name": "author",
							"type": "address"
						},
						{
							"internalType": "string",
							"name": "content",
							"type": "string"
						},
						{
							"internalType": "uint256",
							"name": "timestamp",
							"type": "uint256"
						},
						{
							"internalType": "uint256",
							"name": "likes",
							"type": "uint256"
						}
					],
					"stateMutability": "view",
					"type": "function"
				}
			],
			"devdoc": {
				"kind": "dev",
				"methods": {},
				"version": 1
			},
			"evm": {
				"assembly": "    /* \"contracts/Twitter3.sol\":59:944  contract Twitter{... */\n  mstore(0x40, 0x80)\n  callvalue\n  dup1\n  iszero\n  tag_1\n  jumpi\n  0x00\n  dup1\n  revert\ntag_1:\n  pop\n  dataSize(sub_0)\n  dup1\n  dataOffset(sub_0)\n  0x00\n  codecopy\n  0x00\n  return\nstop\n\nsub_0: assembly {\n        /* \"contracts/Twitter3.sol\":59:944  contract Twitter{... */\n      mstore(0x40, 0x80)\n      callvalue\n      dup1\n      iszero\n      tag_1\n      jumpi\n      0x00\n      dup1\n      revert\n    tag_1:\n      pop\n      jumpi(tag_2, lt(calldatasize, 0x04))\n      shr(0xe0, calldataload(0x00))\n      dup1\n      0x05a1b4a9\n      eq\n      tag_3\n      jumpi\n      dup1\n      0x12e7ee1c\n      eq\n      tag_4\n      jumpi\n      dup1\n      0x2cf02026\n      eq\n      tag_5\n      jumpi\n      dup1\n      0xf86d791b\n      eq\n      tag_6\n      jumpi\n    tag_2:\n      0x00\n      dup1\n      revert\n        /* \"contracts/Twitter3.sol\":246:293  mapping(address=>TwitterStruct[]) public tweets */\n    tag_3:\n      tag_7\n      0x04\n      dup1\n      calldatasize\n      sub\n      dup2\n      add\n      swap1\n      tag_8\n      swap2\n      swap1\n      tag_9\n      jump\t// in\n    tag_8:\n      tag_10\n      jump\t// in\n    tag_7:\n      mload(0x40)\n      tag_11\n      swap5\n      swap4\n      swap3\n      swap2\n      swap1\n      tag_12\n      jump\t// in\n    tag_11:\n      mload(0x40)\n      dup1\n      swap2\n      sub\n      swap1\n      return\n        /* \"contracts/Twitter3.sol\":818:941  function getAllTweets(address _owner) public view returns (TwitterStruct[] memory) {... */\n    tag_4:\n      tag_13\n      0x04\n      dup1\n      calldatasize\n      sub\n      dup2\n      add\n      swap1\n      tag_14\n      swap2\n      swap1\n      tag_15\n      jump\t// in\n    tag_14:\n      tag_16\n      jump\t// in\n    tag_13:\n      mload(0x40)\n      tag_17\n      swap2\n      swap1\n      tag_18\n      jump\t// in\n    tag_17:\n      mload(0x40)\n      dup1\n      swap2\n      sub\n      swap1\n      return\n        /* \"contracts/Twitter3.sol\":678:812  function getTweets(address _owner, uint256 _i) public view returns (TwitterStruct memory) {... */\n    tag_5:\n      tag_19\n      0x04\n      dup1\n      calldatasize\n      sub\n      dup2\n      add\n      swap1\n      tag_20\n      swap2\n      swap1\n      tag_9\n      jump\t// in\n    tag_20:\n      tag_21\n      jump\t// in\n    tag_19:\n      mload(0x40)\n      tag_22\n      swap2\n      swap1\n      tag_23\n      jump\t// in\n    tag_22:\n      mload(0x40)\n      dup1\n      swap2\n      sub\n      swap1\n      return\n        /* \"contracts/Twitter3.sol\":302:672  function creatTweets(string memory _tweets) public  {... */\n    tag_6:\n      tag_24\n      0x04\n      dup1\n      calldatasize\n      sub\n      dup2\n      add\n      swap1\n      tag_25\n      swap2\n      swap1\n      tag_26\n      jump\t// in\n    tag_25:\n      tag_27\n      jump\t// in\n    tag_24:\n      stop\n        /* \"contracts/Twitter3.sol\":246:293  mapping(address=>TwitterStruct[]) public tweets */\n    tag_10:\n      mstore(0x20, 0x00)\n      dup2\n      0x00\n      mstore\n      keccak256(0x00, 0x40)\n      dup2\n      dup2\n      sload\n      dup2\n      lt\n      tag_28\n      jumpi\n      0x00\n      dup1\n      revert\n    tag_28:\n      swap1\n      0x00\n      mstore\n      keccak256(0x00, 0x20)\n      swap1\n      0x04\n      mul\n      add\n      0x00\n      swap2\n      pop\n      swap2\n      pop\n      pop\n      dup1\n      0x00\n      add\n      0x00\n      swap1\n      sload\n      swap1\n      0x0100\n      exp\n      swap1\n      div\n      0xffffffffffffffffffffffffffffffffffffffff\n      and\n      swap1\n      dup1\n      0x01\n      add\n      dup1\n      sload\n      tag_30\n      swap1\n      tag_31\n      jump\t// in\n    tag_30:\n      dup1\n      0x1f\n      add\n      0x20\n      dup1\n      swap2\n      div\n      mul\n      0x20\n      add\n      mload(0x40)\n      swap1\n      dup2\n      add\n      0x40\n      mstore\n      dup1\n      swap3\n      swap2\n      swap1\n      dup2\n      dup2\n      mstore\n      0x20\n      add\n      dup3\n      dup1\n      sload\n      tag_32\n      swap1\n      tag_31\n      jump\t// in\n    tag_32:\n      dup1\n      iszero\n      tag_33\n      jumpi\n      dup1\n      0x1f\n      lt\n      tag_34\n      jumpi\n      0x0100\n      dup1\n      dup4\n      sload\n      div\n      mul\n      dup4\n      mstore\n      swap2\n      0x20\n      add\n      swap2\n      jump(tag_33)\n    tag_34:\n      dup3\n      add\n      swap2\n      swap1\n      0x00\n      mstore\n      keccak256(0x00, 0x20)\n      swap1\n    tag_35:\n      dup2\n      sload\n      dup2\n      mstore\n      swap1\n      0x01\n      add\n      swap1\n      0x20\n      add\n      dup1\n      dup4\n      gt\n      tag_35\n      jumpi\n      dup3\n      swap1\n      sub\n      0x1f\n      and\n      dup3\n      add\n      swap2\n    tag_33:\n      pop\n      pop\n      pop\n      pop\n      pop\n      swap1\n      dup1\n      0x02\n      add\n      sload\n      swap1\n      dup1\n      0x03\n      add\n      sload\n      swap1\n      pop\n      dup5\n      jump\t// out\n        /* \"contracts/Twitter3.sol\":818:941  function getAllTweets(address _owner) public view returns (TwitterStruct[] memory) {... */\n    tag_16:\n        /* \"contracts/Twitter3.sol\":877:899  TwitterStruct[] memory */\n      0x60\n        /* \"contracts/Twitter3.sol\":919:925  tweets */\n      0x00\n        /* \"contracts/Twitter3.sol\":919:933  tweets[_owner] */\n      dup1\n        /* \"contracts/Twitter3.sol\":926:932  _owner */\n      dup4\n        /* \"contracts/Twitter3.sol\":919:933  tweets[_owner] */\n      0xffffffffffffffffffffffffffffffffffffffff\n      and\n      0xffffffffffffffffffffffffffffffffffffffff\n      and\n      dup2\n      mstore\n      0x20\n      add\n      swap1\n      dup2\n      mstore\n      0x20\n      add\n      0x00\n      keccak256\n        /* \"contracts/Twitter3.sol\":912:933  return tweets[_owner] */\n      dup1\n      sload\n      dup1\n      0x20\n      mul\n      0x20\n      add\n      mload(0x40)\n      swap1\n      dup2\n      add\n      0x40\n      mstore\n      dup1\n      swap3\n      swap2\n      swap1\n      dup2\n      dup2\n      mstore\n      0x20\n      add\n      0x00\n      swap1\n    tag_37:\n      dup3\n      dup3\n      lt\n      iszero\n      tag_38\n      jumpi\n      dup4\n      dup3\n      swap1\n      0x00\n      mstore\n      keccak256(0x00, 0x20)\n      swap1\n      0x04\n      mul\n      add\n      mload(0x40)\n      dup1\n      0x80\n      add\n      0x40\n      mstore\n      swap1\n      dup2\n      0x00\n      dup3\n      add\n      0x00\n      swap1\n      sload\n      swap1\n      0x0100\n      exp\n      swap1\n      div\n      0xffffffffffffffffffffffffffffffffffffffff\n      and\n      0xffffffffffffffffffffffffffffffffffffffff\n      and\n      0xffffffffffffffffffffffffffffffffffffffff\n      and\n      dup2\n      mstore\n      0x20\n      add\n      0x01\n      dup3\n      add\n      dup1\n      sload\n      tag_40\n      swap1\n      tag_31\n      jump\t// in\n    tag_40:\n      dup1\n      0x1f\n      add\n      0x20\n      dup1\n      swap2\n      div\n      mul\n      0x20\n      add\n      mload(0x40)\n      swap1\n      dup2\n      add\n      0x40\n      mstore\n      dup1\n      swap3\n      swap2\n      swap1\n      dup2\n      dup2\n      mstore\n      0x20\n      add\n      dup3\n      dup1\n      sload\n      tag_41\n      swap1\n      tag_31\n      jump\t// in\n    tag_41:\n      dup1\n      iszero\n      tag_42\n      jumpi\n      dup1\n      0x1f\n      lt\n      tag_43\n      jumpi\n      0x0100\n      dup1\n      dup4\n      sload\n      div\n      mul\n      dup4\n      mstore\n      swap2\n      0x20\n      add\n      swap2\n      jump(tag_42)\n    tag_43:\n      dup3\n      add\n      swap2\n      swap1\n      0x00\n      mstore\n      keccak256(0x00, 0x20)\n      swap1\n    tag_44:\n      dup2\n      sload\n      dup2\n      mstore\n      swap1\n      0x01\n      add\n      swap1\n      0x20\n      add\n      dup1\n      dup4\n      gt\n      tag_44\n      jumpi\n      dup3\n      swap1\n      sub\n      0x1f\n      and\n      dup3\n      add\n      swap2\n    tag_42:\n      pop\n      pop\n      pop\n      pop\n      pop\n      dup2\n      mstore\n      0x20\n      add\n      0x02\n      dup3\n      add\n      sload\n      dup2\n      mstore\n      0x20\n      add\n      0x03\n      dup3\n      add\n      sload\n      dup2\n      mstore\n      pop\n      pop\n      dup2\n      mstore\n      0x20\n      add\n      swap1\n      0x01\n      add\n      swap1\n      jump(tag_37)\n    tag_38:\n      pop\n      pop\n      pop\n      pop\n      swap1\n      pop\n        /* \"contracts/Twitter3.sol\":818:941  function getAllTweets(address _owner) public view returns (TwitterStruct[] memory) {... */\n      swap2\n      swap1\n      pop\n      jump\t// out\n        /* \"contracts/Twitter3.sol\":678:812  function getTweets(address _owner, uint256 _i) public view returns (TwitterStruct memory) {... */\n    tag_21:\n        /* \"contracts/Twitter3.sol\":746:766  TwitterStruct memory */\n      tag_45\n      tag_46\n      jump\t// in\n    tag_45:\n        /* \"contracts/Twitter3.sol\":786:792  tweets */\n      0x00\n        /* \"contracts/Twitter3.sol\":786:800  tweets[_owner] */\n      dup1\n        /* \"contracts/Twitter3.sol\":793:799  _owner */\n      dup5\n        /* \"contracts/Twitter3.sol\":786:800  tweets[_owner] */\n      0xffffffffffffffffffffffffffffffffffffffff\n      and\n      0xffffffffffffffffffffffffffffffffffffffff\n      and\n      dup2\n      mstore\n      0x20\n      add\n      swap1\n      dup2\n      mstore\n      0x20\n      add\n      0x00\n      keccak256\n        /* \"contracts/Twitter3.sol\":801:803  _i */\n      dup3\n        /* \"contracts/Twitter3.sol\":786:804  tweets[_owner][_i] */\n      dup2\n      sload\n      dup2\n      lt\n      tag_48\n      jumpi\n      tag_49\n      tag_50\n      jump\t// in\n    tag_49:\n    tag_48:\n      swap1\n      0x00\n      mstore\n      keccak256(0x00, 0x20)\n      swap1\n      0x04\n      mul\n      add\n        /* \"contracts/Twitter3.sol\":779:804  return tweets[_owner][_i] */\n      mload(0x40)\n      dup1\n      0x80\n      add\n      0x40\n      mstore\n      swap1\n      dup2\n      0x00\n      dup3\n      add\n      0x00\n      swap1\n      sload\n      swap1\n      0x0100\n      exp\n      swap1\n      div\n      0xffffffffffffffffffffffffffffffffffffffff\n      and\n      0xffffffffffffffffffffffffffffffffffffffff\n      and\n      0xffffffffffffffffffffffffffffffffffffffff\n      and\n      dup2\n      mstore\n      0x20\n      add\n      0x01\n      dup3\n      add\n      dup1\n      sload\n      tag_52\n      swap1\n      tag_31\n      jump\t// in\n    tag_52:\n      dup1\n      0x1f\n      add\n      0x20\n      dup1\n      swap2\n      div\n      mul\n      0x20\n      add\n      mload(0x40)\n      swap1\n      dup2\n      add\n      0x40\n      mstore\n      dup1\n      swap3\n      swap2\n      swap1\n      dup2\n      dup2\n      mstore\n      0x20\n      add\n      dup3\n      dup1\n      sload\n      tag_53\n      swap1\n      tag_31\n      jump\t// in\n    tag_53:\n      dup1\n      iszero\n      tag_54\n      jumpi\n      dup1\n      0x1f\n      lt\n      tag_55\n      jumpi\n      0x0100\n      dup1\n      dup4\n      sload\n      div\n      mul\n      dup4\n      mstore\n      swap2\n      0x20\n      add\n      swap2\n      jump(tag_54)\n    tag_55:\n      dup3\n      add\n      swap2\n      swap1\n      0x00\n      mstore\n      keccak256(0x00, 0x20)\n      swap1\n    tag_56:\n      dup2\n      sload\n      dup2\n      mstore\n      swap1\n      0x01\n      add\n      swap1\n      0x20\n      add\n      dup1\n      dup4\n      gt\n      tag_56\n      jumpi\n      dup3\n      swap1\n      sub\n      0x1f\n      and\n      dup3\n      add\n      swap2\n    tag_54:\n      pop\n      pop\n      pop\n      pop\n      pop\n      dup2\n      mstore\n      0x20\n      add\n      0x02\n      dup3\n      add\n      sload\n      dup2\n      mstore\n      0x20\n      add\n      0x03\n      dup3\n      add\n      sload\n      dup2\n      mstore\n      pop\n      pop\n      swap1\n      pop\n        /* \"contracts/Twitter3.sol\":678:812  function getTweets(address _owner, uint256 _i) public view returns (TwitterStruct memory) {... */\n      swap3\n      swap2\n      pop\n      pop\n      jump\t// out\n        /* \"contracts/Twitter3.sol\":302:672  function creatTweets(string memory _tweets) public  {... */\n    tag_27:\n        /* \"contracts/Twitter3.sol\":365:394  TwitterStruct memory newTweet */\n      0x00\n        /* \"contracts/Twitter3.sol\":397:620  TwitterStruct({ // when you create instance of struct solidity store in temporary memory... */\n      mload(0x40)\n      dup1\n      0x80\n      add\n      0x40\n      mstore\n      dup1\n        /* \"contracts/Twitter3.sol\":506:516  msg.sender */\n      caller\n        /* \"contracts/Twitter3.sol\":397:620  TwitterStruct({ // when you create instance of struct solidity store in temporary memory... */\n      0xffffffffffffffffffffffffffffffffffffffff\n      and\n      dup2\n      mstore\n      0x20\n      add\n        /* \"contracts/Twitter3.sol\":539:546  _tweets */\n      dup4\n        /* \"contracts/Twitter3.sol\":397:620  TwitterStruct({ // when you create instance of struct solidity store in temporary memory... */\n      dup2\n      mstore\n      0x20\n      add\n        /* \"contracts/Twitter3.sol\":571:586  block.timestamp */\n      timestamp\n        /* \"contracts/Twitter3.sol\":397:620  TwitterStruct({ // when you create instance of struct solidity store in temporary memory... */\n      dup2\n      mstore\n      0x20\n      add\n        /* \"contracts/Twitter3.sol\":607:608  0 */\n      0x00\n        /* \"contracts/Twitter3.sol\":397:620  TwitterStruct({ // when you create instance of struct solidity store in temporary memory... */\n      dup2\n      mstore\n      pop\n        /* \"contracts/Twitter3.sol\":365:620  TwitterStruct memory newTweet = TwitterStruct({ // when you create instance of struct solidity store in temporary memory... */\n      swap1\n      pop\n        /* \"contracts/Twitter3.sol\":631:637  tweets */\n      0x00\n        /* \"contracts/Twitter3.sol\":631:649  tweets[msg.sender] */\n      dup1\n        /* \"contracts/Twitter3.sol\":638:648  msg.sender */\n      caller\n        /* \"contracts/Twitter3.sol\":631:649  tweets[msg.sender] */\n      0xffffffffffffffffffffffffffffffffffffffff\n      and\n      0xffffffffffffffffffffffffffffffffffffffff\n      and\n      dup2\n      mstore\n      0x20\n      add\n      swap1\n      dup2\n      mstore\n      0x20\n      add\n      0x00\n      keccak256\n        /* \"contracts/Twitter3.sol\":655:663  newTweet */\n      dup2\n        /* \"contracts/Twitter3.sol\":631:664  tweets[msg.sender].push(newTweet) */\n      swap1\n      dup1\n      0x01\n      dup2\n      sload\n      add\n      dup1\n      dup3\n      sstore\n      dup1\n      swap2\n      pop\n      pop\n      0x01\n      swap1\n      sub\n      swap1\n      0x00\n      mstore\n      keccak256(0x00, 0x20)\n      swap1\n      0x04\n      mul\n      add\n      0x00\n      swap1\n      swap2\n      swap1\n      swap2\n      swap1\n      swap2\n      pop\n      0x00\n      dup3\n      add\n      mload\n      dup2\n      0x00\n      add\n      exp(0x0100, 0x00)\n      dup2\n      sload\n      dup2\n      0xffffffffffffffffffffffffffffffffffffffff\n      mul\n      not\n      and\n      swap1\n      dup4\n      0xffffffffffffffffffffffffffffffffffffffff\n      and\n      mul\n      or\n      swap1\n      sstore\n      pop\n      0x20\n      dup3\n      add\n      mload\n      dup2\n      0x01\n      add\n      swap1\n      dup2\n      tag_59\n      swap2\n      swap1\n      tag_60\n      jump\t// in\n    tag_59:\n      pop\n      0x40\n      dup3\n      add\n      mload\n      dup2\n      0x02\n      add\n      sstore\n      0x60\n      dup3\n      add\n      mload\n      dup2\n      0x03\n      add\n      sstore\n      pop\n      pop\n        /* \"contracts/Twitter3.sol\":354:672  {... */\n      pop\n        /* \"contracts/Twitter3.sol\":302:672  function creatTweets(string memory _tweets) public  {... */\n      pop\n      jump\t// out\n    tag_46:\n      mload(0x40)\n      dup1\n      0x80\n      add\n      0x40\n      mstore\n      dup1\n      and(0xffffffffffffffffffffffffffffffffffffffff, 0x00)\n      dup2\n      mstore\n      0x20\n      add\n      0x60\n      dup2\n      mstore\n      0x20\n      add\n      0x00\n      dup2\n      mstore\n      0x20\n      add\n      0x00\n      dup2\n      mstore\n      pop\n      swap1\n      jump\t// out\n        /* \"#utility.yul\":7:82   */\n    tag_61:\n        /* \"#utility.yul\":40:46   */\n      0x00\n        /* \"#utility.yul\":73:75   */\n      0x40\n        /* \"#utility.yul\":67:76   */\n      mload\n        /* \"#utility.yul\":57:76   */\n      swap1\n      pop\n        /* \"#utility.yul\":7:82   */\n      swap1\n      jump\t// out\n        /* \"#utility.yul\":88:205   */\n    tag_62:\n        /* \"#utility.yul\":197:198   */\n      0x00\n        /* \"#utility.yul\":194:195   */\n      dup1\n        /* \"#utility.yul\":187:199   */\n      revert\n        /* \"#utility.yul\":211:328   */\n    tag_63:\n        /* \"#utility.yul\":320:321   */\n      0x00\n        /* \"#utility.yul\":317:318   */\n      dup1\n        /* \"#utility.yul\":310:322   */\n      revert\n        /* \"#utility.yul\":334:460   */\n    tag_64:\n        /* \"#utility.yul\":371:378   */\n      0x00\n        /* \"#utility.yul\":411:453   */\n      0xffffffffffffffffffffffffffffffffffffffff\n        /* \"#utility.yul\":404:409   */\n      dup3\n        /* \"#utility.yul\":400:454   */\n      and\n        /* \"#utility.yul\":389:454   */\n      swap1\n      pop\n        /* \"#utility.yul\":334:460   */\n      swap2\n      swap1\n      pop\n      jump\t// out\n        /* \"#utility.yul\":466:562   */\n    tag_65:\n        /* \"#utility.yul\":503:510   */\n      0x00\n        /* \"#utility.yul\":532:556   */\n      tag_121\n        /* \"#utility.yul\":550:555   */\n      dup3\n        /* \"#utility.yul\":532:556   */\n      tag_64\n      jump\t// in\n    tag_121:\n        /* \"#utility.yul\":521:556   */\n      swap1\n      pop\n        /* \"#utility.yul\":466:562   */\n      swap2\n      swap1\n      pop\n      jump\t// out\n        /* \"#utility.yul\":568:690   */\n    tag_66:\n        /* \"#utility.yul\":641:665   */\n      tag_123\n        /* \"#utility.yul\":659:664   */\n      dup2\n        /* \"#utility.yul\":641:665   */\n      tag_65\n      jump\t// in\n    tag_123:\n        /* \"#utility.yul\":634:639   */\n      dup2\n        /* \"#utility.yul\":631:666   */\n      eq\n        /* \"#utility.yul\":621:684   */\n      tag_124\n      jumpi\n        /* \"#utility.yul\":680:681   */\n      0x00\n        /* \"#utility.yul\":677:678   */\n      dup1\n        /* \"#utility.yul\":670:682   */\n      revert\n        /* \"#utility.yul\":621:684   */\n    tag_124:\n        /* \"#utility.yul\":568:690   */\n      pop\n      jump\t// out\n        /* \"#utility.yul\":696:835   */\n    tag_67:\n        /* \"#utility.yul\":742:747   */\n      0x00\n        /* \"#utility.yul\":780:786   */\n      dup2\n        /* \"#utility.yul\":767:787   */\n      calldataload\n        /* \"#utility.yul\":758:787   */\n      swap1\n      pop\n        /* \"#utility.yul\":796:829   */\n      tag_126\n        /* \"#utility.yul\":823:828   */\n      dup2\n        /* \"#utility.yul\":796:829   */\n      tag_66\n      jump\t// in\n    tag_126:\n        /* \"#utility.yul\":696:835   */\n      swap3\n      swap2\n      pop\n      pop\n      jump\t// out\n        /* \"#utility.yul\":841:918   */\n    tag_68:\n        /* \"#utility.yul\":878:885   */\n      0x00\n        /* \"#utility.yul\":907:912   */\n      dup2\n        /* \"#utility.yul\":896:912   */\n      swap1\n      pop\n        /* \"#utility.yul\":841:918   */\n      swap2\n      swap1\n      pop\n      jump\t// out\n        /* \"#utility.yul\":924:1046   */\n    tag_69:\n        /* \"#utility.yul\":997:1021   */\n      tag_129\n        /* \"#utility.yul\":1015:1020   */\n      dup2\n        /* \"#utility.yul\":997:1021   */\n      tag_68\n      jump\t// in\n    tag_129:\n        /* \"#utility.yul\":990:995   */\n      dup2\n        /* \"#utility.yul\":987:1022   */\n      eq\n        /* \"#utility.yul\":977:1040   */\n      tag_130\n      jumpi\n        /* \"#utility.yul\":1036:1037   */\n      0x00\n        /* \"#utility.yul\":1033:1034   */\n      dup1\n        /* \"#utility.yul\":1026:1038   */\n      revert\n        /* \"#utility.yul\":977:1040   */\n    tag_130:\n        /* \"#utility.yul\":924:1046   */\n      pop\n      jump\t// out\n        /* \"#utility.yul\":1052:1191   */\n    tag_70:\n        /* \"#utility.yul\":1098:1103   */\n      0x00\n        /* \"#utility.yul\":1136:1142   */\n      dup2\n        /* \"#utility.yul\":1123:1143   */\n      calldataload\n        /* \"#utility.yul\":1114:1143   */\n      swap1\n      pop\n        /* \"#utility.yul\":1152:1185   */\n      tag_132\n        /* \"#utility.yul\":1179:1184   */\n      dup2\n        /* \"#utility.yul\":1152:1185   */\n      tag_69\n      jump\t// in\n    tag_132:\n        /* \"#utility.yul\":1052:1191   */\n      swap3\n      swap2\n      pop\n      pop\n      jump\t// out\n        /* \"#utility.yul\":1197:1671   */\n    tag_9:\n        /* \"#utility.yul\":1265:1271   */\n      0x00\n        /* \"#utility.yul\":1273:1279   */\n      dup1\n        /* \"#utility.yul\":1322:1324   */\n      0x40\n        /* \"#utility.yul\":1310:1319   */\n      dup4\n        /* \"#utility.yul\":1301:1308   */\n      dup6\n        /* \"#utility.yul\":1297:1320   */\n      sub\n        /* \"#utility.yul\":1293:1325   */\n      slt\n        /* \"#utility.yul\":1290:1409   */\n      iszero\n      tag_134\n      jumpi\n        /* \"#utility.yul\":1328:1407   */\n      tag_135\n      tag_62\n      jump\t// in\n    tag_135:\n        /* \"#utility.yul\":1290:1409   */\n    tag_134:\n        /* \"#utility.yul\":1448:1449   */\n      0x00\n        /* \"#utility.yul\":1473:1526   */\n      tag_136\n        /* \"#utility.yul\":1518:1525   */\n      dup6\n        /* \"#utility.yul\":1509:1515   */\n      dup3\n        /* \"#utility.yul\":1498:1507   */\n      dup7\n        /* \"#utility.yul\":1494:1516   */\n      add\n        /* \"#utility.yul\":1473:1526   */\n      tag_67\n      jump\t// in\n    tag_136:\n        /* \"#utility.yul\":1463:1526   */\n      swap3\n      pop\n        /* \"#utility.yul\":1419:1536   */\n      pop\n        /* \"#utility.yul\":1575:1577   */\n      0x20\n        /* \"#utility.yul\":1601:1654   */\n      tag_137\n        /* \"#utility.yul\":1646:1653   */\n      dup6\n        /* \"#utility.yul\":1637:1643   */\n      dup3\n        /* \"#utility.yul\":1626:1635   */\n      dup7\n        /* \"#utility.yul\":1622:1644   */\n      add\n        /* \"#utility.yul\":1601:1654   */\n      tag_70\n      jump\t// in\n    tag_137:\n        /* \"#utility.yul\":1591:1654   */\n      swap2\n      pop\n        /* \"#utility.yul\":1546:1664   */\n      pop\n        /* \"#utility.yul\":1197:1671   */\n      swap3\n      pop\n      swap3\n      swap1\n      pop\n      jump\t// out\n        /* \"#utility.yul\":1677:1795   */\n    tag_71:\n        /* \"#utility.yul\":1764:1788   */\n      tag_139\n        /* \"#utility.yul\":1782:1787   */\n      dup2\n        /* \"#utility.yul\":1764:1788   */\n      tag_65\n      jump\t// in\n    tag_139:\n        /* \"#utility.yul\":1759:1762   */\n      dup3\n        /* \"#utility.yul\":1752:1789   */\n      mstore\n        /* \"#utility.yul\":1677:1795   */\n      pop\n      pop\n      jump\t// out\n        /* \"#utility.yul\":1801:1900   */\n    tag_72:\n        /* \"#utility.yul\":1853:1859   */\n      0x00\n        /* \"#utility.yul\":1887:1892   */\n      dup2\n        /* \"#utility.yul\":1881:1893   */\n      mload\n        /* \"#utility.yul\":1871:1893   */\n      swap1\n      pop\n        /* \"#utility.yul\":1801:1900   */\n      swap2\n      swap1\n      pop\n      jump\t// out\n        /* \"#utility.yul\":1906:2075   */\n    tag_73:\n        /* \"#utility.yul\":1990:2001   */\n      0x00\n        /* \"#utility.yul\":2024:2030   */\n      dup3\n        /* \"#utility.yul\":2019:2022   */\n      dup3\n        /* \"#utility.yul\":2012:2031   */\n      mstore\n        /* \"#utility.yul\":2064:2068   */\n      0x20\n        /* \"#utility.yul\":2059:2062   */\n      dup3\n        /* \"#utility.yul\":2055:2069   */\n      add\n        /* \"#utility.yul\":2040:2069   */\n      swap1\n      pop\n        /* \"#utility.yul\":1906:2075   */\n      swap3\n      swap2\n      pop\n      pop\n      jump\t// out\n        /* \"#utility.yul\":2081:2220   */\n    tag_74:\n        /* \"#utility.yul\":2170:2176   */\n      dup3\n        /* \"#utility.yul\":2165:2168   */\n      dup2\n        /* \"#utility.yul\":2160:2163   */\n      dup4\n        /* \"#utility.yul\":2154:2177   */\n      mcopy\n        /* \"#utility.yul\":2211:2212   */\n      0x00\n        /* \"#utility.yul\":2202:2208   */\n      dup4\n        /* \"#utility.yul\":2197:2200   */\n      dup4\n        /* \"#utility.yul\":2193:2209   */\n      add\n        /* \"#utility.yul\":2186:2213   */\n      mstore\n        /* \"#utility.yul\":2081:2220   */\n      pop\n      pop\n      pop\n      jump\t// out\n        /* \"#utility.yul\":2226:2328   */\n    tag_75:\n        /* \"#utility.yul\":2267:2273   */\n      0x00\n        /* \"#utility.yul\":2318:2320   */\n      0x1f\n        /* \"#utility.yul\":2314:2321   */\n      not\n        /* \"#utility.yul\":2309:2311   */\n      0x1f\n        /* \"#utility.yul\":2302:2307   */\n      dup4\n        /* \"#utility.yul\":2298:2312   */\n      add\n        /* \"#utility.yul\":2294:2322   */\n      and\n        /* \"#utility.yul\":2284:2322   */\n      swap1\n      pop\n        /* \"#utility.yul\":2226:2328   */\n      swap2\n      swap1\n      pop\n      jump\t// out\n        /* \"#utility.yul\":2334:2711   */\n    tag_76:\n        /* \"#utility.yul\":2422:2425   */\n      0x00\n        /* \"#utility.yul\":2450:2489   */\n      tag_145\n        /* \"#utility.yul\":2483:2488   */\n      dup3\n        /* \"#utility.yul\":2450:2489   */\n      tag_72\n      jump\t// in\n    tag_145:\n        /* \"#utility.yul\":2505:2576   */\n      tag_146\n        /* \"#utility.yul\":2569:2575   */\n      dup2\n        /* \"#utility.yul\":2564:2567   */\n      dup6\n        /* \"#utility.yul\":2505:2576   */\n      tag_73\n      jump\t// in\n    tag_146:\n        /* \"#utility.yul\":2498:2576   */\n      swap4\n      pop\n        /* \"#utility.yul\":2585:2650   */\n      tag_147\n        /* \"#utility.yul\":2643:2649   */\n      dup2\n        /* \"#utility.yul\":2638:2641   */\n      dup6\n        /* \"#utility.yul\":2631:2635   */\n      0x20\n        /* \"#utility.yul\":2624:2629   */\n      dup7\n        /* \"#utility.yul\":2620:2636   */\n      add\n        /* \"#utility.yul\":2585:2650   */\n      tag_74\n      jump\t// in\n    tag_147:\n        /* \"#utility.yul\":2675:2704   */\n      tag_148\n        /* \"#utility.yul\":2697:2703   */\n      dup2\n        /* \"#utility.yul\":2675:2704   */\n      tag_75\n      jump\t// in\n    tag_148:\n        /* \"#utility.yul\":2670:2673   */\n      dup5\n        /* \"#utility.yul\":2666:2705   */\n      add\n        /* \"#utility.yul\":2659:2705   */\n      swap2\n      pop\n        /* \"#utility.yul\":2426:2711   */\n      pop\n        /* \"#utility.yul\":2334:2711   */\n      swap3\n      swap2\n      pop\n      pop\n      jump\t// out\n        /* \"#utility.yul\":2717:2835   */\n    tag_77:\n        /* \"#utility.yul\":2804:2828   */\n      tag_150\n        /* \"#utility.yul\":2822:2827   */\n      dup2\n        /* \"#utility.yul\":2804:2828   */\n      tag_68\n      jump\t// in\n    tag_150:\n        /* \"#utility.yul\":2799:2802   */\n      dup3\n        /* \"#utility.yul\":2792:2829   */\n      mstore\n        /* \"#utility.yul\":2717:2835   */\n      pop\n      pop\n      jump\t// out\n        /* \"#utility.yul\":2841:3485   */\n    tag_12:\n        /* \"#utility.yul\":3038:3042   */\n      0x00\n        /* \"#utility.yul\":3076:3079   */\n      0x80\n        /* \"#utility.yul\":3065:3074   */\n      dup3\n        /* \"#utility.yul\":3061:3080   */\n      add\n        /* \"#utility.yul\":3053:3080   */\n      swap1\n      pop\n        /* \"#utility.yul\":3090:3161   */\n      tag_152\n        /* \"#utility.yul\":3158:3159   */\n      0x00\n        /* \"#utility.yul\":3147:3156   */\n      dup4\n        /* \"#utility.yul\":3143:3160   */\n      add\n        /* \"#utility.yul\":3134:3140   */\n      dup8\n        /* \"#utility.yul\":3090:3161   */\n      tag_71\n      jump\t// in\n    tag_152:\n        /* \"#utility.yul\":3208:3217   */\n      dup2\n        /* \"#utility.yul\":3202:3206   */\n      dup2\n        /* \"#utility.yul\":3198:3218   */\n      sub\n        /* \"#utility.yul\":3193:3195   */\n      0x20\n        /* \"#utility.yul\":3182:3191   */\n      dup4\n        /* \"#utility.yul\":3178:3196   */\n      add\n        /* \"#utility.yul\":3171:3219   */\n      mstore\n        /* \"#utility.yul\":3236:3314   */\n      tag_153\n        /* \"#utility.yul\":3309:3313   */\n      dup2\n        /* \"#utility.yul\":3300:3306   */\n      dup7\n        /* \"#utility.yul\":3236:3314   */\n      tag_76\n      jump\t// in\n    tag_153:\n        /* \"#utility.yul\":3228:3314   */\n      swap1\n      pop\n        /* \"#utility.yul\":3324:3396   */\n      tag_154\n        /* \"#utility.yul\":3392:3394   */\n      0x40\n        /* \"#utility.yul\":3381:3390   */\n      dup4\n        /* \"#utility.yul\":3377:3395   */\n      add\n        /* \"#utility.yul\":3368:3374   */\n      dup6\n        /* \"#utility.yul\":3324:3396   */\n      tag_77\n      jump\t// in\n    tag_154:\n        /* \"#utility.yul\":3406:3478   */\n      tag_155\n        /* \"#utility.yul\":3474:3476   */\n      0x60\n        /* \"#utility.yul\":3463:3472   */\n      dup4\n        /* \"#utility.yul\":3459:3477   */\n      add\n        /* \"#utility.yul\":3450:3456   */\n      dup5\n        /* \"#utility.yul\":3406:3478   */\n      tag_77\n      jump\t// in\n    tag_155:\n        /* \"#utility.yul\":2841:3485   */\n      swap6\n      swap5\n      pop\n      pop\n      pop\n      pop\n      pop\n      jump\t// out\n        /* \"#utility.yul\":3491:3820   */\n    tag_15:\n        /* \"#utility.yul\":3550:3556   */\n      0x00\n        /* \"#utility.yul\":3599:3601   */\n      0x20\n        /* \"#utility.yul\":3587:3596   */\n      dup3\n        /* \"#utility.yul\":3578:3585   */\n      dup5\n        /* \"#utility.yul\":3574:3597   */\n      sub\n        /* \"#utility.yul\":3570:3602   */\n      slt\n        /* \"#utility.yul\":3567:3686   */\n      iszero\n      tag_157\n      jumpi\n        /* \"#utility.yul\":3605:3684   */\n      tag_158\n      tag_62\n      jump\t// in\n    tag_158:\n        /* \"#utility.yul\":3567:3686   */\n    tag_157:\n        /* \"#utility.yul\":3725:3726   */\n      0x00\n        /* \"#utility.yul\":3750:3803   */\n      tag_159\n        /* \"#utility.yul\":3795:3802   */\n      dup5\n        /* \"#utility.yul\":3786:3792   */\n      dup3\n        /* \"#utility.yul\":3775:3784   */\n      dup6\n        /* \"#utility.yul\":3771:3793   */\n      add\n        /* \"#utility.yul\":3750:3803   */\n      tag_67\n      jump\t// in\n    tag_159:\n        /* \"#utility.yul\":3740:3803   */\n      swap2\n      pop\n        /* \"#utility.yul\":3696:3813   */\n      pop\n        /* \"#utility.yul\":3491:3820   */\n      swap3\n      swap2\n      pop\n      pop\n      jump\t// out\n        /* \"#utility.yul\":3826:3969   */\n    tag_78:\n        /* \"#utility.yul\":3922:3928   */\n      0x00\n        /* \"#utility.yul\":3956:3961   */\n      dup2\n        /* \"#utility.yul\":3950:3962   */\n      mload\n        /* \"#utility.yul\":3940:3962   */\n      swap1\n      pop\n        /* \"#utility.yul\":3826:3969   */\n      swap2\n      swap1\n      pop\n      jump\t// out\n        /* \"#utility.yul\":3975:4188   */\n    tag_79:\n        /* \"#utility.yul\":4103:4114   */\n      0x00\n        /* \"#utility.yul\":4137:4143   */\n      dup3\n        /* \"#utility.yul\":4132:4135   */\n      dup3\n        /* \"#utility.yul\":4125:4144   */\n      mstore\n        /* \"#utility.yul\":4177:4181   */\n      0x20\n        /* \"#utility.yul\":4172:4175   */\n      dup3\n        /* \"#utility.yul\":4168:4182   */\n      add\n        /* \"#utility.yul\":4153:4182   */\n      swap1\n      pop\n        /* \"#utility.yul\":3975:4188   */\n      swap3\n      swap2\n      pop\n      pop\n      jump\t// out\n        /* \"#utility.yul\":4194:4355   */\n    tag_80:\n        /* \"#utility.yul\":4290:4294   */\n      0x00\n        /* \"#utility.yul\":4313:4316   */\n      dup2\n        /* \"#utility.yul\":4305:4316   */\n      swap1\n      pop\n        /* \"#utility.yul\":4343:4347   */\n      0x20\n        /* \"#utility.yul\":4338:4341   */\n      dup3\n        /* \"#utility.yul\":4334:4348   */\n      add\n        /* \"#utility.yul\":4326:4348   */\n      swap1\n      pop\n        /* \"#utility.yul\":4194:4355   */\n      swap2\n      swap1\n      pop\n      jump\t// out\n        /* \"#utility.yul\":4361:4469   */\n    tag_81:\n        /* \"#utility.yul\":4438:4462   */\n      tag_164\n        /* \"#utility.yul\":4456:4461   */\n      dup2\n        /* \"#utility.yul\":4438:4462   */\n      tag_65\n      jump\t// in\n    tag_164:\n        /* \"#utility.yul\":4433:4436   */\n      dup3\n        /* \"#utility.yul\":4426:4463   */\n      mstore\n        /* \"#utility.yul\":4361:4469   */\n      pop\n      pop\n      jump\t// out\n        /* \"#utility.yul\":4475:4634   */\n    tag_82:\n        /* \"#utility.yul\":4549:4560   */\n      0x00\n        /* \"#utility.yul\":4583:4589   */\n      dup3\n        /* \"#utility.yul\":4578:4581   */\n      dup3\n        /* \"#utility.yul\":4571:4590   */\n      mstore\n        /* \"#utility.yul\":4623:4627   */\n      0x20\n        /* \"#utility.yul\":4618:4621   */\n      dup3\n        /* \"#utility.yul\":4614:4628   */\n      add\n        /* \"#utility.yul\":4599:4628   */\n      swap1\n      pop\n        /* \"#utility.yul\":4475:4634   */\n      swap3\n      swap2\n      pop\n      pop\n      jump\t// out\n        /* \"#utility.yul\":4640:4997   */\n    tag_83:\n        /* \"#utility.yul\":4718:4721   */\n      0x00\n        /* \"#utility.yul\":4746:4785   */\n      tag_167\n        /* \"#utility.yul\":4779:4784   */\n      dup3\n        /* \"#utility.yul\":4746:4785   */\n      tag_72\n      jump\t// in\n    tag_167:\n        /* \"#utility.yul\":4801:4862   */\n      tag_168\n        /* \"#utility.yul\":4855:4861   */\n      dup2\n        /* \"#utility.yul\":4850:4853   */\n      dup6\n        /* \"#utility.yul\":4801:4862   */\n      tag_82\n      jump\t// in\n    tag_168:\n        /* \"#utility.yul\":4794:4862   */\n      swap4\n      pop\n        /* \"#utility.yul\":4871:4936   */\n      tag_169\n        /* \"#utility.yul\":4929:4935   */\n      dup2\n        /* \"#utility.yul\":4924:4927   */\n      dup6\n        /* \"#utility.yul\":4917:4921   */\n      0x20\n        /* \"#utility.yul\":4910:4915   */\n      dup7\n        /* \"#utility.yul\":4906:4922   */\n      add\n        /* \"#utility.yul\":4871:4936   */\n      tag_74\n      jump\t// in\n    tag_169:\n        /* \"#utility.yul\":4961:4990   */\n      tag_170\n        /* \"#utility.yul\":4983:4989   */\n      dup2\n        /* \"#utility.yul\":4961:4990   */\n      tag_75\n      jump\t// in\n    tag_170:\n        /* \"#utility.yul\":4956:4959   */\n      dup5\n        /* \"#utility.yul\":4952:4991   */\n      add\n        /* \"#utility.yul\":4945:4991   */\n      swap2\n      pop\n        /* \"#utility.yul\":4722:4997   */\n      pop\n        /* \"#utility.yul\":4640:4997   */\n      swap3\n      swap2\n      pop\n      pop\n      jump\t// out\n        /* \"#utility.yul\":5003:5111   */\n    tag_84:\n        /* \"#utility.yul\":5080:5104   */\n      tag_172\n        /* \"#utility.yul\":5098:5103   */\n      dup2\n        /* \"#utility.yul\":5080:5104   */\n      tag_68\n      jump\t// in\n    tag_172:\n        /* \"#utility.yul\":5075:5078   */\n      dup3\n        /* \"#utility.yul\":5068:5105   */\n      mstore\n        /* \"#utility.yul\":5003:5111   */\n      pop\n      pop\n      jump\t// out\n        /* \"#utility.yul\":5185:6148   */\n    tag_85:\n        /* \"#utility.yul\":5302:5305   */\n      0x00\n        /* \"#utility.yul\":5338:5342   */\n      0x80\n        /* \"#utility.yul\":5333:5336   */\n      dup4\n        /* \"#utility.yul\":5329:5343   */\n      add\n        /* \"#utility.yul\":5427:5431   */\n      0x00\n        /* \"#utility.yul\":5420:5425   */\n      dup4\n        /* \"#utility.yul\":5416:5432   */\n      add\n        /* \"#utility.yul\":5410:5433   */\n      mload\n        /* \"#utility.yul\":5446:5509   */\n      tag_174\n        /* \"#utility.yul\":5503:5507   */\n      0x00\n        /* \"#utility.yul\":5498:5501   */\n      dup7\n        /* \"#utility.yul\":5494:5508   */\n      add\n        /* \"#utility.yul\":5480:5492   */\n      dup3\n        /* \"#utility.yul\":5446:5509   */\n      tag_81\n      jump\t// in\n    tag_174:\n        /* \"#utility.yul\":5353:5519   */\n      pop\n        /* \"#utility.yul\":5604:5608   */\n      0x20\n        /* \"#utility.yul\":5597:5602   */\n      dup4\n        /* \"#utility.yul\":5593:5609   */\n      add\n        /* \"#utility.yul\":5587:5610   */\n      mload\n        /* \"#utility.yul\":5657:5660   */\n      dup5\n        /* \"#utility.yul\":5651:5655   */\n      dup3\n        /* \"#utility.yul\":5647:5661   */\n      sub\n        /* \"#utility.yul\":5640:5644   */\n      0x20\n        /* \"#utility.yul\":5635:5638   */\n      dup7\n        /* \"#utility.yul\":5631:5645   */\n      add\n        /* \"#utility.yul\":5624:5662   */\n      mstore\n        /* \"#utility.yul\":5683:5756   */\n      tag_175\n        /* \"#utility.yul\":5751:5755   */\n      dup3\n        /* \"#utility.yul\":5737:5749   */\n      dup3\n        /* \"#utility.yul\":5683:5756   */\n      tag_83\n      jump\t// in\n    tag_175:\n        /* \"#utility.yul\":5675:5756   */\n      swap2\n      pop\n        /* \"#utility.yul\":5529:5767   */\n      pop\n        /* \"#utility.yul\":5854:5858   */\n      0x40\n        /* \"#utility.yul\":5847:5852   */\n      dup4\n        /* \"#utility.yul\":5843:5859   */\n      add\n        /* \"#utility.yul\":5837:5860   */\n      mload\n        /* \"#utility.yul\":5873:5936   */\n      tag_176\n        /* \"#utility.yul\":5930:5934   */\n      0x40\n        /* \"#utility.yul\":5925:5928   */\n      dup7\n        /* \"#utility.yul\":5921:5935   */\n      add\n        /* \"#utility.yul\":5907:5919   */\n      dup3\n        /* \"#utility.yul\":5873:5936   */\n      tag_84\n      jump\t// in\n    tag_176:\n        /* \"#utility.yul\":5777:5946   */\n      pop\n        /* \"#utility.yul\":6029:6033   */\n      0x60\n        /* \"#utility.yul\":6022:6027   */\n      dup4\n        /* \"#utility.yul\":6018:6034   */\n      add\n        /* \"#utility.yul\":6012:6035   */\n      mload\n        /* \"#utility.yul\":6048:6111   */\n      tag_177\n        /* \"#utility.yul\":6105:6109   */\n      0x60\n        /* \"#utility.yul\":6100:6103   */\n      dup7\n        /* \"#utility.yul\":6096:6110   */\n      add\n        /* \"#utility.yul\":6082:6094   */\n      dup3\n        /* \"#utility.yul\":6048:6111   */\n      tag_84\n      jump\t// in\n    tag_177:\n        /* \"#utility.yul\":5956:6121   */\n      pop\n        /* \"#utility.yul\":6138:6142   */\n      dup1\n        /* \"#utility.yul\":6131:6142   */\n      swap2\n      pop\n        /* \"#utility.yul\":5307:6148   */\n      pop\n        /* \"#utility.yul\":5185:6148   */\n      swap3\n      swap2\n      pop\n      pop\n      jump\t// out\n        /* \"#utility.yul\":6154:6426   */\n    tag_86:\n        /* \"#utility.yul\":6281:6291   */\n      0x00\n        /* \"#utility.yul\":6316:6420   */\n      tag_179\n        /* \"#utility.yul\":6416:6419   */\n      dup4\n        /* \"#utility.yul\":6408:6414   */\n      dup4\n        /* \"#utility.yul\":6316:6420   */\n      tag_85\n      jump\t// in\n    tag_179:\n        /* \"#utility.yul\":6302:6420   */\n      swap1\n      pop\n        /* \"#utility.yul\":6154:6426   */\n      swap3\n      swap2\n      pop\n      pop\n      jump\t// out\n        /* \"#utility.yul\":6432:6574   */\n    tag_87:\n        /* \"#utility.yul\":6531:6535   */\n      0x00\n        /* \"#utility.yul\":6563:6567   */\n      0x20\n        /* \"#utility.yul\":6558:6561   */\n      dup3\n        /* \"#utility.yul\":6554:6568   */\n      add\n        /* \"#utility.yul\":6546:6568   */\n      swap1\n      pop\n        /* \"#utility.yul\":6432:6574   */\n      swap2\n      swap1\n      pop\n      jump\t// out\n        /* \"#utility.yul\":6652:7795   */\n    tag_88:\n        /* \"#utility.yul\":6829:6832   */\n      0x00\n        /* \"#utility.yul\":6858:6941   */\n      tag_182\n        /* \"#utility.yul\":6935:6940   */\n      dup3\n        /* \"#utility.yul\":6858:6941   */\n      tag_78\n      jump\t// in\n    tag_182:\n        /* \"#utility.yul\":6957:7072   */\n      tag_183\n        /* \"#utility.yul\":7065:7071   */\n      dup2\n        /* \"#utility.yul\":7060:7063   */\n      dup6\n        /* \"#utility.yul\":6957:7072   */\n      tag_79\n      jump\t// in\n    tag_183:\n        /* \"#utility.yul\":6950:7072   */\n      swap4\n      pop\n        /* \"#utility.yul\":7098:7101   */\n      dup4\n        /* \"#utility.yul\":7143:7147   */\n      0x20\n        /* \"#utility.yul\":7135:7141   */\n      dup3\n        /* \"#utility.yul\":7131:7148   */\n      mul\n        /* \"#utility.yul\":7126:7129   */\n      dup6\n        /* \"#utility.yul\":7122:7149   */\n      add\n        /* \"#utility.yul\":7173:7258   */\n      tag_184\n        /* \"#utility.yul\":7252:7257   */\n      dup6\n        /* \"#utility.yul\":7173:7258   */\n      tag_80\n      jump\t// in\n    tag_184:\n        /* \"#utility.yul\":7281:7288   */\n      dup1\n        /* \"#utility.yul\":7312:7313   */\n      0x00\n        /* \"#utility.yul\":7297:7750   */\n    tag_185:\n        /* \"#utility.yul\":7322:7328   */\n      dup6\n        /* \"#utility.yul\":7319:7320   */\n      dup2\n        /* \"#utility.yul\":7316:7329   */\n      lt\n        /* \"#utility.yul\":7297:7750   */\n      iszero\n      tag_187\n      jumpi\n        /* \"#utility.yul\":7393:7402   */\n      dup5\n        /* \"#utility.yul\":7387:7391   */\n      dup5\n        /* \"#utility.yul\":7383:7403   */\n      sub\n        /* \"#utility.yul\":7378:7381   */\n      dup10\n        /* \"#utility.yul\":7371:7404   */\n      mstore\n        /* \"#utility.yul\":7444:7450   */\n      dup2\n        /* \"#utility.yul\":7438:7451   */\n      mload\n        /* \"#utility.yul\":7472:7594   */\n      tag_188\n        /* \"#utility.yul\":7589:7593   */\n      dup6\n        /* \"#utility.yul\":7574:7587   */\n      dup3\n        /* \"#utility.yul\":7472:7594   */\n      tag_86\n      jump\t// in\n    tag_188:\n        /* \"#utility.yul\":7464:7594   */\n      swap5\n      pop\n        /* \"#utility.yul\":7617:7706   */\n      tag_189\n        /* \"#utility.yul\":7699:7705   */\n      dup4\n        /* \"#utility.yul\":7617:7706   */\n      tag_87\n      jump\t// in\n    tag_189:\n        /* \"#utility.yul\":7607:7706   */\n      swap3\n      pop\n        /* \"#utility.yul\":7735:7739   */\n      0x20\n        /* \"#utility.yul\":7730:7733   */\n      dup11\n        /* \"#utility.yul\":7726:7740   */\n      add\n        /* \"#utility.yul\":7719:7740   */\n      swap10\n      pop\n        /* \"#utility.yul\":7357:7750   */\n      pop\n        /* \"#utility.yul\":7344:7345   */\n      0x01\n        /* \"#utility.yul\":7341:7342   */\n      dup2\n        /* \"#utility.yul\":7337:7346   */\n      add\n        /* \"#utility.yul\":7332:7346   */\n      swap1\n      pop\n        /* \"#utility.yul\":7297:7750   */\n      jump(tag_185)\n    tag_187:\n        /* \"#utility.yul\":7301:7315   */\n      pop\n        /* \"#utility.yul\":7766:7770   */\n      dup3\n        /* \"#utility.yul\":7759:7770   */\n      swap8\n      pop\n        /* \"#utility.yul\":7786:7789   */\n      dup8\n        /* \"#utility.yul\":7779:7789   */\n      swap6\n      pop\n        /* \"#utility.yul\":6834:7795   */\n      pop\n      pop\n      pop\n      pop\n      pop\n        /* \"#utility.yul\":6652:7795   */\n      swap3\n      swap2\n      pop\n      pop\n      jump\t// out\n        /* \"#utility.yul\":7801:8290   */\n    tag_18:\n        /* \"#utility.yul\":8002:8006   */\n      0x00\n        /* \"#utility.yul\":8040:8042   */\n      0x20\n        /* \"#utility.yul\":8029:8038   */\n      dup3\n        /* \"#utility.yul\":8025:8043   */\n      add\n        /* \"#utility.yul\":8017:8043   */\n      swap1\n      pop\n        /* \"#utility.yul\":8089:8098   */\n      dup2\n        /* \"#utility.yul\":8083:8087   */\n      dup2\n        /* \"#utility.yul\":8079:8099   */\n      sub\n        /* \"#utility.yul\":8075:8076   */\n      0x00\n        /* \"#utility.yul\":8064:8073   */\n      dup4\n        /* \"#utility.yul\":8060:8077   */\n      add\n        /* \"#utility.yul\":8053:8100   */\n      mstore\n        /* \"#utility.yul\":8117:8283   */\n      tag_191\n        /* \"#utility.yul\":8278:8282   */\n      dup2\n        /* \"#utility.yul\":8269:8275   */\n      dup5\n        /* \"#utility.yul\":8117:8283   */\n      tag_88\n      jump\t// in\n    tag_191:\n        /* \"#utility.yul\":8109:8283   */\n      swap1\n      pop\n        /* \"#utility.yul\":7801:8290   */\n      swap3\n      swap2\n      pop\n      pop\n      jump\t// out\n        /* \"#utility.yul\":8364:9337   */\n    tag_89:\n        /* \"#utility.yul\":8491:8494   */\n      0x00\n        /* \"#utility.yul\":8527:8531   */\n      0x80\n        /* \"#utility.yul\":8522:8525   */\n      dup4\n        /* \"#utility.yul\":8518:8532   */\n      add\n        /* \"#utility.yul\":8616:8620   */\n      0x00\n        /* \"#utility.yul\":8609:8614   */\n      dup4\n        /* \"#utility.yul\":8605:8621   */\n      add\n        /* \"#utility.yul\":8599:8622   */\n      mload\n        /* \"#utility.yul\":8635:8698   */\n      tag_193\n        /* \"#utility.yul\":8692:8696   */\n      0x00\n        /* \"#utility.yul\":8687:8690   */\n      dup7\n        /* \"#utility.yul\":8683:8697   */\n      add\n        /* \"#utility.yul\":8669:8681   */\n      dup3\n        /* \"#utility.yul\":8635:8698   */\n      tag_81\n      jump\t// in\n    tag_193:\n        /* \"#utility.yul\":8542:8708   */\n      pop\n        /* \"#utility.yul\":8793:8797   */\n      0x20\n        /* \"#utility.yul\":8786:8791   */\n      dup4\n        /* \"#utility.yul\":8782:8798   */\n      add\n        /* \"#utility.yul\":8776:8799   */\n      mload\n        /* \"#utility.yul\":8846:8849   */\n      dup5\n        /* \"#utility.yul\":8840:8844   */\n      dup3\n        /* \"#utility.yul\":8836:8850   */\n      sub\n        /* \"#utility.yul\":8829:8833   */\n      0x20\n        /* \"#utility.yul\":8824:8827   */\n      dup7\n        /* \"#utility.yul\":8820:8834   */\n      add\n        /* \"#utility.yul\":8813:8851   */\n      mstore\n        /* \"#utility.yul\":8872:8945   */\n      tag_194\n        /* \"#utility.yul\":8940:8944   */\n      dup3\n        /* \"#utility.yul\":8926:8938   */\n      dup3\n        /* \"#utility.yul\":8872:8945   */\n      tag_83\n      jump\t// in\n    tag_194:\n        /* \"#utility.yul\":8864:8945   */\n      swap2\n      pop\n        /* \"#utility.yul\":8718:8956   */\n      pop\n        /* \"#utility.yul\":9043:9047   */\n      0x40\n        /* \"#utility.yul\":9036:9041   */\n      dup4\n        /* \"#utility.yul\":9032:9048   */\n      add\n        /* \"#utility.yul\":9026:9049   */\n      mload\n        /* \"#utility.yul\":9062:9125   */\n      tag_195\n        /* \"#utility.yul\":9119:9123   */\n      0x40\n        /* \"#utility.yul\":9114:9117   */\n      dup7\n        /* \"#utility.yul\":9110:9124   */\n      add\n        /* \"#utility.yul\":9096:9108   */\n      dup3\n        /* \"#utility.yul\":9062:9125   */\n      tag_84\n      jump\t// in\n    tag_195:\n        /* \"#utility.yul\":8966:9135   */\n      pop\n        /* \"#utility.yul\":9218:9222   */\n      0x60\n        /* \"#utility.yul\":9211:9216   */\n      dup4\n        /* \"#utility.yul\":9207:9223   */\n      add\n        /* \"#utility.yul\":9201:9224   */\n      mload\n        /* \"#utility.yul\":9237:9300   */\n      tag_196\n        /* \"#utility.yul\":9294:9298   */\n      0x60\n        /* \"#utility.yul\":9289:9292   */\n      dup7\n        /* \"#utility.yul\":9285:9299   */\n      add\n        /* \"#utility.yul\":9271:9283   */\n      dup3\n        /* \"#utility.yul\":9237:9300   */\n      tag_84\n      jump\t// in\n    tag_196:\n        /* \"#utility.yul\":9145:9310   */\n      pop\n        /* \"#utility.yul\":9327:9331   */\n      dup1\n        /* \"#utility.yul\":9320:9331   */\n      swap2\n      pop\n        /* \"#utility.yul\":8496:9337   */\n      pop\n        /* \"#utility.yul\":8364:9337   */\n      swap3\n      swap2\n      pop\n      pop\n      jump\t// out\n        /* \"#utility.yul\":9343:9732   */\n    tag_23:\n        /* \"#utility.yul\":9494:9498   */\n      0x00\n        /* \"#utility.yul\":9532:9534   */\n      0x20\n        /* \"#utility.yul\":9521:9530   */\n      dup3\n        /* \"#utility.yul\":9517:9535   */\n      add\n        /* \"#utility.yul\":9509:9535   */\n      swap1\n      pop\n        /* \"#utility.yul\":9581:9590   */\n      dup2\n        /* \"#utility.yul\":9575:9579   */\n      dup2\n        /* \"#utility.yul\":9571:9591   */\n      sub\n        /* \"#utility.yul\":9567:9568   */\n      0x00\n        /* \"#utility.yul\":9556:9565   */\n      dup4\n        /* \"#utility.yul\":9552:9569   */\n      add\n        /* \"#utility.yul\":9545:9592   */\n      mstore\n        /* \"#utility.yul\":9609:9725   */\n      tag_198\n        /* \"#utility.yul\":9720:9724   */\n      dup2\n        /* \"#utility.yul\":9711:9717   */\n      dup5\n        /* \"#utility.yul\":9609:9725   */\n      tag_89\n      jump\t// in\n    tag_198:\n        /* \"#utility.yul\":9601:9725   */\n      swap1\n      pop\n        /* \"#utility.yul\":9343:9732   */\n      swap3\n      swap2\n      pop\n      pop\n      jump\t// out\n        /* \"#utility.yul\":9738:9855   */\n    tag_90:\n        /* \"#utility.yul\":9847:9848   */\n      0x00\n        /* \"#utility.yul\":9844:9845   */\n      dup1\n        /* \"#utility.yul\":9837:9849   */\n      revert\n        /* \"#utility.yul\":9861:9978   */\n    tag_91:\n        /* \"#utility.yul\":9970:9971   */\n      0x00\n        /* \"#utility.yul\":9967:9968   */\n      dup1\n        /* \"#utility.yul\":9960:9972   */\n      revert\n        /* \"#utility.yul\":9984:10164   */\n    tag_92:\n        /* \"#utility.yul\":10032:10109   */\n      0x4e487b7100000000000000000000000000000000000000000000000000000000\n        /* \"#utility.yul\":10029:10030   */\n      0x00\n        /* \"#utility.yul\":10022:10110   */\n      mstore\n        /* \"#utility.yul\":10129:10133   */\n      0x41\n        /* \"#utility.yul\":10126:10127   */\n      0x04\n        /* \"#utility.yul\":10119:10134   */\n      mstore\n        /* \"#utility.yul\":10153:10157   */\n      0x24\n        /* \"#utility.yul\":10150:10151   */\n      0x00\n        /* \"#utility.yul\":10143:10158   */\n      revert\n        /* \"#utility.yul\":10170:10451   */\n    tag_93:\n        /* \"#utility.yul\":10253:10280   */\n      tag_203\n        /* \"#utility.yul\":10275:10279   */\n      dup3\n        /* \"#utility.yul\":10253:10280   */\n      tag_75\n      jump\t// in\n    tag_203:\n        /* \"#utility.yul\":10245:10251   */\n      dup2\n        /* \"#utility.yul\":10241:10281   */\n      add\n        /* \"#utility.yul\":10383:10389   */\n      dup2\n        /* \"#utility.yul\":10371:10381   */\n      dup2\n        /* \"#utility.yul\":10368:10390   */\n      lt\n        /* \"#utility.yul\":10347:10365   */\n      0xffffffffffffffff\n        /* \"#utility.yul\":10335:10345   */\n      dup3\n        /* \"#utility.yul\":10332:10366   */\n      gt\n        /* \"#utility.yul\":10329:10391   */\n      or\n        /* \"#utility.yul\":10326:10414   */\n      iszero\n      tag_204\n      jumpi\n        /* \"#utility.yul\":10394:10412   */\n      tag_205\n      tag_92\n      jump\t// in\n    tag_205:\n        /* \"#utility.yul\":10326:10414   */\n    tag_204:\n        /* \"#utility.yul\":10434:10444   */\n      dup1\n        /* \"#utility.yul\":10430:10432   */\n      0x40\n        /* \"#utility.yul\":10423:10445   */\n      mstore\n        /* \"#utility.yul\":10213:10451   */\n      pop\n        /* \"#utility.yul\":10170:10451   */\n      pop\n      pop\n      jump\t// out\n        /* \"#utility.yul\":10457:10586   */\n    tag_94:\n        /* \"#utility.yul\":10491:10497   */\n      0x00\n        /* \"#utility.yul\":10518:10538   */\n      tag_207\n      tag_61\n      jump\t// in\n    tag_207:\n        /* \"#utility.yul\":10508:10538   */\n      swap1\n      pop\n        /* \"#utility.yul\":10547:10580   */\n      tag_208\n        /* \"#utility.yul\":10575:10579   */\n      dup3\n        /* \"#utility.yul\":10567:10573   */\n      dup3\n        /* \"#utility.yul\":10547:10580   */\n      tag_93\n      jump\t// in\n    tag_208:\n        /* \"#utility.yul\":10457:10586   */\n      swap2\n      swap1\n      pop\n      jump\t// out\n        /* \"#utility.yul\":10592:10900   */\n    tag_95:\n        /* \"#utility.yul\":10654:10658   */\n      0x00\n        /* \"#utility.yul\":10744:10762   */\n      0xffffffffffffffff\n        /* \"#utility.yul\":10736:10742   */\n      dup3\n        /* \"#utility.yul\":10733:10763   */\n      gt\n        /* \"#utility.yul\":10730:10786   */\n      iszero\n      tag_210\n      jumpi\n        /* \"#utility.yul\":10766:10784   */\n      tag_211\n      tag_92\n      jump\t// in\n    tag_211:\n        /* \"#utility.yul\":10730:10786   */\n    tag_210:\n        /* \"#utility.yul\":10804:10833   */\n      tag_212\n        /* \"#utility.yul\":10826:10832   */\n      dup3\n        /* \"#utility.yul\":10804:10833   */\n      tag_75\n      jump\t// in\n    tag_212:\n        /* \"#utility.yul\":10796:10833   */\n      swap1\n      pop\n        /* \"#utility.yul\":10888:10892   */\n      0x20\n        /* \"#utility.yul\":10882:10886   */\n      dup2\n        /* \"#utility.yul\":10878:10893   */\n      add\n        /* \"#utility.yul\":10870:10893   */\n      swap1\n      pop\n        /* \"#utility.yul\":10592:10900   */\n      swap2\n      swap1\n      pop\n      jump\t// out\n        /* \"#utility.yul\":10906:11054   */\n    tag_96:\n        /* \"#utility.yul\":11004:11010   */\n      dup3\n        /* \"#utility.yul\":10999:11002   */\n      dup2\n        /* \"#utility.yul\":10994:10997   */\n      dup4\n        /* \"#utility.yul\":10981:11011   */\n      calldatacopy\n        /* \"#utility.yul\":11045:11046   */\n      0x00\n        /* \"#utility.yul\":11036:11042   */\n      dup4\n        /* \"#utility.yul\":11031:11034   */\n      dup4\n        /* \"#utility.yul\":11027:11043   */\n      add\n        /* \"#utility.yul\":11020:11047   */\n      mstore\n        /* \"#utility.yul\":10906:11054   */\n      pop\n      pop\n      pop\n      jump\t// out\n        /* \"#utility.yul\":11060:11485   */\n    tag_97:\n        /* \"#utility.yul\":11138:11143   */\n      0x00\n        /* \"#utility.yul\":11163:11229   */\n      tag_215\n        /* \"#utility.yul\":11179:11228   */\n      tag_216\n        /* \"#utility.yul\":11221:11227   */\n      dup5\n        /* \"#utility.yul\":11179:11228   */\n      tag_95\n      jump\t// in\n    tag_216:\n        /* \"#utility.yul\":11163:11229   */\n      tag_94\n      jump\t// in\n    tag_215:\n        /* \"#utility.yul\":11154:11229   */\n      swap1\n      pop\n        /* \"#utility.yul\":11252:11258   */\n      dup3\n        /* \"#utility.yul\":11245:11250   */\n      dup2\n        /* \"#utility.yul\":11238:11259   */\n      mstore\n        /* \"#utility.yul\":11290:11294   */\n      0x20\n        /* \"#utility.yul\":11283:11288   */\n      dup2\n        /* \"#utility.yul\":11279:11295   */\n      add\n        /* \"#utility.yul\":11328:11331   */\n      dup5\n        /* \"#utility.yul\":11319:11325   */\n      dup5\n        /* \"#utility.yul\":11314:11317   */\n      dup5\n        /* \"#utility.yul\":11310:11326   */\n      add\n        /* \"#utility.yul\":11307:11332   */\n      gt\n        /* \"#utility.yul\":11304:11416   */\n      iszero\n      tag_217\n      jumpi\n        /* \"#utility.yul\":11335:11414   */\n      tag_218\n      tag_91\n      jump\t// in\n    tag_218:\n        /* \"#utility.yul\":11304:11416   */\n    tag_217:\n        /* \"#utility.yul\":11425:11479   */\n      tag_219\n        /* \"#utility.yul\":11472:11478   */\n      dup5\n        /* \"#utility.yul\":11467:11470   */\n      dup3\n        /* \"#utility.yul\":11462:11465   */\n      dup6\n        /* \"#utility.yul\":11425:11479   */\n      tag_96\n      jump\t// in\n    tag_219:\n        /* \"#utility.yul\":11144:11485   */\n      pop\n        /* \"#utility.yul\":11060:11485   */\n      swap4\n      swap3\n      pop\n      pop\n      pop\n      jump\t// out\n        /* \"#utility.yul\":11505:11845   */\n    tag_98:\n        /* \"#utility.yul\":11561:11566   */\n      0x00\n        /* \"#utility.yul\":11610:11613   */\n      dup3\n        /* \"#utility.yul\":11603:11607   */\n      0x1f\n        /* \"#utility.yul\":11595:11601   */\n      dup4\n        /* \"#utility.yul\":11591:11608   */\n      add\n        /* \"#utility.yul\":11587:11614   */\n      slt\n        /* \"#utility.yul\":11577:11699   */\n      tag_221\n      jumpi\n        /* \"#utility.yul\":11618:11697   */\n      tag_222\n      tag_90\n      jump\t// in\n    tag_222:\n        /* \"#utility.yul\":11577:11699   */\n    tag_221:\n        /* \"#utility.yul\":11735:11741   */\n      dup2\n        /* \"#utility.yul\":11722:11742   */\n      calldataload\n        /* \"#utility.yul\":11760:11839   */\n      tag_223\n        /* \"#utility.yul\":11835:11838   */\n      dup5\n        /* \"#utility.yul\":11827:11833   */\n      dup3\n        /* \"#utility.yul\":11820:11824   */\n      0x20\n        /* \"#utility.yul\":11812:11818   */\n      dup7\n        /* \"#utility.yul\":11808:11825   */\n      add\n        /* \"#utility.yul\":11760:11839   */\n      tag_97\n      jump\t// in\n    tag_223:\n        /* \"#utility.yul\":11751:11839   */\n      swap2\n      pop\n        /* \"#utility.yul\":11567:11845   */\n      pop\n        /* \"#utility.yul\":11505:11845   */\n      swap3\n      swap2\n      pop\n      pop\n      jump\t// out\n        /* \"#utility.yul\":11851:12360   */\n    tag_26:\n        /* \"#utility.yul\":11920:11926   */\n      0x00\n        /* \"#utility.yul\":11969:11971   */\n      0x20\n        /* \"#utility.yul\":11957:11966   */\n      dup3\n        /* \"#utility.yul\":11948:11955   */\n      dup5\n        /* \"#utility.yul\":11944:11967   */\n      sub\n        /* \"#utility.yul\":11940:11972   */\n      slt\n        /* \"#utility.yul\":11937:12056   */\n      iszero\n      tag_225\n      jumpi\n        /* \"#utility.yul\":11975:12054   */\n      tag_226\n      tag_62\n      jump\t// in\n    tag_226:\n        /* \"#utility.yul\":11937:12056   */\n    tag_225:\n        /* \"#utility.yul\":12123:12124   */\n      0x00\n        /* \"#utility.yul\":12112:12121   */\n      dup3\n        /* \"#utility.yul\":12108:12125   */\n      add\n        /* \"#utility.yul\":12095:12126   */\n      calldataload\n        /* \"#utility.yul\":12153:12171   */\n      0xffffffffffffffff\n        /* \"#utility.yul\":12145:12151   */\n      dup2\n        /* \"#utility.yul\":12142:12172   */\n      gt\n        /* \"#utility.yul\":12139:12256   */\n      iszero\n      tag_227\n      jumpi\n        /* \"#utility.yul\":12175:12254   */\n      tag_228\n      tag_63\n      jump\t// in\n    tag_228:\n        /* \"#utility.yul\":12139:12256   */\n    tag_227:\n        /* \"#utility.yul\":12280:12343   */\n      tag_229\n        /* \"#utility.yul\":12335:12342   */\n      dup5\n        /* \"#utility.yul\":12326:12332   */\n      dup3\n        /* \"#utility.yul\":12315:12324   */\n      dup6\n        /* \"#utility.yul\":12311:12333   */\n      add\n        /* \"#utility.yul\":12280:12343   */\n      tag_98\n      jump\t// in\n    tag_229:\n        /* \"#utility.yul\":12270:12343   */\n      swap2\n      pop\n        /* \"#utility.yul\":12066:12353   */\n      pop\n        /* \"#utility.yul\":11851:12360   */\n      swap3\n      swap2\n      pop\n      pop\n      jump\t// out\n        /* \"#utility.yul\":12366:12546   */\n    tag_99:\n        /* \"#utility.yul\":12414:12491   */\n      0x4e487b7100000000000000000000000000000000000000000000000000000000\n        /* \"#utility.yul\":12411:12412   */\n      0x00\n        /* \"#utility.yul\":12404:12492   */\n      mstore\n        /* \"#utility.yul\":12511:12515   */\n      0x22\n        /* \"#utility.yul\":12508:12509   */\n      0x04\n        /* \"#utility.yul\":12501:12516   */\n      mstore\n        /* \"#utility.yul\":12535:12539   */\n      0x24\n        /* \"#utility.yul\":12532:12533   */\n      0x00\n        /* \"#utility.yul\":12525:12540   */\n      revert\n        /* \"#utility.yul\":12552:12872   */\n    tag_31:\n        /* \"#utility.yul\":12596:12602   */\n      0x00\n        /* \"#utility.yul\":12633:12634   */\n      0x02\n        /* \"#utility.yul\":12627:12631   */\n      dup3\n        /* \"#utility.yul\":12623:12635   */\n      div\n        /* \"#utility.yul\":12613:12635   */\n      swap1\n      pop\n        /* \"#utility.yul\":12680:12681   */\n      0x01\n        /* \"#utility.yul\":12674:12678   */\n      dup3\n        /* \"#utility.yul\":12670:12682   */\n      and\n        /* \"#utility.yul\":12701:12719   */\n      dup1\n        /* \"#utility.yul\":12691:12772   */\n      tag_232\n      jumpi\n        /* \"#utility.yul\":12757:12761   */\n      0x7f\n        /* \"#utility.yul\":12749:12755   */\n      dup3\n        /* \"#utility.yul\":12745:12762   */\n      and\n        /* \"#utility.yul\":12735:12762   */\n      swap2\n      pop\n        /* \"#utility.yul\":12691:12772   */\n    tag_232:\n        /* \"#utility.yul\":12819:12821   */\n      0x20\n        /* \"#utility.yul\":12811:12817   */\n      dup3\n        /* \"#utility.yul\":12808:12822   */\n      lt\n        /* \"#utility.yul\":12788:12806   */\n      dup2\n        /* \"#utility.yul\":12785:12823   */\n      sub\n        /* \"#utility.yul\":12782:12866   */\n      tag_233\n      jumpi\n        /* \"#utility.yul\":12838:12856   */\n      tag_234\n      tag_99\n      jump\t// in\n    tag_234:\n        /* \"#utility.yul\":12782:12866   */\n    tag_233:\n        /* \"#utility.yul\":12603:12872   */\n      pop\n        /* \"#utility.yul\":12552:12872   */\n      swap2\n      swap1\n      pop\n      jump\t// out\n        /* \"#utility.yul\":12878:13058   */\n    tag_50:\n        /* \"#utility.yul\":12926:13003   */\n      0x4e487b7100000000000000000000000000000000000000000000000000000000\n        /* \"#utility.yul\":12923:12924   */\n      0x00\n        /* \"#utility.yul\":12916:13004   */\n      mstore\n        /* \"#utility.yul\":13023:13027   */\n      0x32\n        /* \"#utility.yul\":13020:13021   */\n      0x04\n        /* \"#utility.yul\":13013:13028   */\n      mstore\n        /* \"#utility.yul\":13047:13051   */\n      0x24\n        /* \"#utility.yul\":13044:13045   */\n      0x00\n        /* \"#utility.yul\":13037:13052   */\n      revert\n        /* \"#utility.yul\":13064:13205   */\n    tag_100:\n        /* \"#utility.yul\":13113:13117   */\n      0x00\n        /* \"#utility.yul\":13136:13139   */\n      dup2\n        /* \"#utility.yul\":13128:13139   */\n      swap1\n      pop\n        /* \"#utility.yul\":13159:13162   */\n      dup2\n        /* \"#utility.yul\":13156:13157   */\n      0x00\n        /* \"#utility.yul\":13149:13163   */\n      mstore\n        /* \"#utility.yul\":13193:13197   */\n      0x20\n        /* \"#utility.yul\":13190:13191   */\n      0x00\n        /* \"#utility.yul\":13180:13198   */\n      keccak256\n        /* \"#utility.yul\":13172:13198   */\n      swap1\n      pop\n        /* \"#utility.yul\":13064:13205   */\n      swap2\n      swap1\n      pop\n      jump\t// out\n        /* \"#utility.yul\":13211:13304   */\n    tag_101:\n        /* \"#utility.yul\":13248:13254   */\n      0x00\n        /* \"#utility.yul\":13295:13297   */\n      0x20\n        /* \"#utility.yul\":13290:13292   */\n      0x1f\n        /* \"#utility.yul\":13283:13288   */\n      dup4\n        /* \"#utility.yul\":13279:13293   */\n      add\n        /* \"#utility.yul\":13275:13298   */\n      div\n        /* \"#utility.yul\":13265:13298   */\n      swap1\n      pop\n        /* \"#utility.yul\":13211:13304   */\n      swap2\n      swap1\n      pop\n      jump\t// out\n        /* \"#utility.yul\":13310:13417   */\n    tag_102:\n        /* \"#utility.yul\":13354:13362   */\n      0x00\n        /* \"#utility.yul\":13404:13409   */\n      dup3\n        /* \"#utility.yul\":13398:13402   */\n      dup3\n        /* \"#utility.yul\":13394:13410   */\n      shl\n        /* \"#utility.yul\":13373:13410   */\n      swap1\n      pop\n        /* \"#utility.yul\":13310:13417   */\n      swap3\n      swap2\n      pop\n      pop\n      jump\t// out\n        /* \"#utility.yul\":13423:13816   */\n    tag_103:\n        /* \"#utility.yul\":13492:13498   */\n      0x00\n        /* \"#utility.yul\":13542:13543   */\n      0x08\n        /* \"#utility.yul\":13530:13540   */\n      dup4\n        /* \"#utility.yul\":13526:13544   */\n      mul\n        /* \"#utility.yul\":13565:13662   */\n      tag_240\n        /* \"#utility.yul\":13595:13661   */\n      0xffffffffffffffffffffffffffffffffffffffffffffffffffffffffffffffff\n        /* \"#utility.yul\":13584:13593   */\n      dup3\n        /* \"#utility.yul\":13565:13662   */\n      tag_102\n      jump\t// in\n    tag_240:\n        /* \"#utility.yul\":13683:13722   */\n      tag_241\n        /* \"#utility.yul\":13713:13721   */\n      dup7\n        /* \"#utility.yul\":13702:13711   */\n      dup4\n        /* \"#utility.yul\":13683:13722   */\n      tag_102\n      jump\t// in\n    tag_241:\n        /* \"#utility.yul\":13671:13722   */\n      swap6\n      pop\n        /* \"#utility.yul\":13755:13759   */\n      dup1\n        /* \"#utility.yul\":13751:13760   */\n      not\n        /* \"#utility.yul\":13744:13749   */\n      dup5\n        /* \"#utility.yul\":13740:13761   */\n      and\n        /* \"#utility.yul\":13731:13761   */\n      swap4\n      pop\n        /* \"#utility.yul\":13804:13808   */\n      dup1\n        /* \"#utility.yul\":13794:13802   */\n      dup7\n        /* \"#utility.yul\":13790:13809   */\n      and\n        /* \"#utility.yul\":13783:13788   */\n      dup5\n        /* \"#utility.yul\":13780:13810   */\n      or\n        /* \"#utility.yul\":13770:13810   */\n      swap3\n      pop\n        /* \"#utility.yul\":13499:13816   */\n      pop\n      pop\n        /* \"#utility.yul\":13423:13816   */\n      swap4\n      swap3\n      pop\n      pop\n      pop\n      jump\t// out\n        /* \"#utility.yul\":13822:13882   */\n    tag_104:\n        /* \"#utility.yul\":13850:13853   */\n      0x00\n        /* \"#utility.yul\":13871:13876   */\n      dup2\n        /* \"#utility.yul\":13864:13876   */\n      swap1\n      pop\n        /* \"#utility.yul\":13822:13882   */\n      swap2\n      swap1\n      pop\n      jump\t// out\n        /* \"#utility.yul\":13888:14030   */\n    tag_105:\n        /* \"#utility.yul\":13938:13947   */\n      0x00\n        /* \"#utility.yul\":13971:14024   */\n      tag_244\n        /* \"#utility.yul\":13989:14023   */\n      tag_245\n        /* \"#utility.yul\":13998:14022   */\n      tag_246\n        /* \"#utility.yul\":14016:14021   */\n      dup5\n        /* \"#utility.yul\":13998:14022   */\n      tag_68\n      jump\t// in\n    tag_246:\n        /* \"#utility.yul\":13989:14023   */\n      tag_104\n      jump\t// in\n    tag_245:\n        /* \"#utility.yul\":13971:14024   */\n      tag_68\n      jump\t// in\n    tag_244:\n        /* \"#utility.yul\":13958:14024   */\n      swap1\n      pop\n        /* \"#utility.yul\":13888:14030   */\n      swap2\n      swap1\n      pop\n      jump\t// out\n        /* \"#utility.yul\":14036:14111   */\n    tag_106:\n        /* \"#utility.yul\":14079:14082   */\n      0x00\n        /* \"#utility.yul\":14100:14105   */\n      dup2\n        /* \"#utility.yul\":14093:14105   */\n      swap1\n      pop\n        /* \"#utility.yul\":14036:14111   */\n      swap2\n      swap1\n      pop\n      jump\t// out\n        /* \"#utility.yul\":14117:14386   */\n    tag_107:\n        /* \"#utility.yul\":14227:14266   */\n      tag_249\n        /* \"#utility.yul\":14258:14265   */\n      dup4\n        /* \"#utility.yul\":14227:14266   */\n      tag_105\n      jump\t// in\n    tag_249:\n        /* \"#utility.yul\":14288:14379   */\n      tag_250\n        /* \"#utility.yul\":14337:14378   */\n      tag_251\n        /* \"#utility.yul\":14361:14377   */\n      dup3\n        /* \"#utility.yul\":14337:14378   */\n      tag_106\n      jump\t// in\n    tag_251:\n        /* \"#utility.yul\":14329:14335   */\n      dup5\n        /* \"#utility.yul\":14322:14326   */\n      dup5\n        /* \"#utility.yul\":14316:14327   */\n      sload\n        /* \"#utility.yul\":14288:14379   */\n      tag_103\n      jump\t// in\n    tag_250:\n        /* \"#utility.yul\":14282:14286   */\n      dup3\n        /* \"#utility.yul\":14275:14380   */\n      sstore\n        /* \"#utility.yul\":14193:14386   */\n      pop\n        /* \"#utility.yul\":14117:14386   */\n      pop\n      pop\n      pop\n      jump\t// out\n        /* \"#utility.yul\":14392:14465   */\n    tag_108:\n        /* \"#utility.yul\":14437:14440   */\n      0x00\n        /* \"#utility.yul\":14392:14465   */\n      swap1\n      jump\t// out\n        /* \"#utility.yul\":14471:14660   */\n    tag_109:\n        /* \"#utility.yul\":14548:14580   */\n      tag_254\n      tag_108\n      jump\t// in\n    tag_254:\n        /* \"#utility.yul\":14589:14654   */\n      tag_255\n        /* \"#utility.yul\":14647:14653   */\n      dup2\n        /* \"#utility.yul\":14639:14645   */\n      dup5\n        /* \"#utility.yul\":14633:14637   */\n      dup5\n        /* \"#utility.yul\":14589:14654   */\n      tag_107\n      jump\t// in\n    tag_255:\n        /* \"#utility.yul\":14524:14660   */\n      pop\n        /* \"#utility.yul\":14471:14660   */\n      pop\n      pop\n      jump\t// out\n        /* \"#utility.yul\":14666:14852   */\n    tag_110:\n        /* \"#utility.yul\":14726:14846   */\n    tag_257:\n        /* \"#utility.yul\":14743:14746   */\n      dup2\n        /* \"#utility.yul\":14736:14741   */\n      dup2\n        /* \"#utility.yul\":14733:14747   */\n      lt\n        /* \"#utility.yul\":14726:14846   */\n      iszero\n      tag_259\n      jumpi\n        /* \"#utility.yul\":14797:14836   */\n      tag_260\n        /* \"#utility.yul\":14834:14835   */\n      0x00\n        /* \"#utility.yul\":14827:14832   */\n      dup3\n        /* \"#utility.yul\":14797:14836   */\n      tag_109\n      jump\t// in\n    tag_260:\n        /* \"#utility.yul\":14770:14771   */\n      0x01\n        /* \"#utility.yul\":14763:14768   */\n      dup2\n        /* \"#utility.yul\":14759:14772   */\n      add\n        /* \"#utility.yul\":14750:14772   */\n      swap1\n      pop\n        /* \"#utility.yul\":14726:14846   */\n      jump(tag_257)\n    tag_259:\n        /* \"#utility.yul\":14666:14852   */\n      pop\n      pop\n      jump\t// out\n        /* \"#utility.yul\":14858:15401   */\n    tag_111:\n        /* \"#utility.yul\":14959:14961   */\n      0x1f\n        /* \"#utility.yul\":14954:14957   */\n      dup3\n        /* \"#utility.yul\":14951:14962   */\n      gt\n        /* \"#utility.yul\":14948:15394   */\n      iszero\n      tag_262\n      jumpi\n        /* \"#utility.yul\":14993:15031   */\n      tag_263\n        /* \"#utility.yul\":15025:15030   */\n      dup2\n        /* \"#utility.yul\":14993:15031   */\n      tag_100\n      jump\t// in\n    tag_263:\n        /* \"#utility.yul\":15077:15106   */\n      tag_264\n        /* \"#utility.yul\":15095:15105   */\n      dup5\n        /* \"#utility.yul\":15077:15106   */\n      tag_101\n      jump\t// in\n    tag_264:\n        /* \"#utility.yul\":15067:15075   */\n      dup2\n        /* \"#utility.yul\":15063:15107   */\n      add\n        /* \"#utility.yul\":15260:15262   */\n      0x20\n        /* \"#utility.yul\":15248:15258   */\n      dup6\n        /* \"#utility.yul\":15245:15263   */\n      lt\n        /* \"#utility.yul\":15242:15291   */\n      iszero\n      tag_265\n      jumpi\n        /* \"#utility.yul\":15281:15289   */\n      dup2\n        /* \"#utility.yul\":15266:15289   */\n      swap1\n      pop\n        /* \"#utility.yul\":15242:15291   */\n    tag_265:\n        /* \"#utility.yul\":15304:15384   */\n      tag_266\n        /* \"#utility.yul\":15360:15382   */\n      tag_267\n        /* \"#utility.yul\":15378:15381   */\n      dup6\n        /* \"#utility.yul\":15360:15382   */\n      tag_101\n      jump\t// in\n    tag_267:\n        /* \"#utility.yul\":15350:15358   */\n      dup4\n        /* \"#utility.yul\":15346:15383   */\n      add\n        /* \"#utility.yul\":15333:15344   */\n      dup3\n        /* \"#utility.yul\":15304:15384   */\n      tag_110\n      jump\t// in\n    tag_266:\n        /* \"#utility.yul\":14963:15394   */\n      pop\n      pop\n        /* \"#utility.yul\":14948:15394   */\n    tag_262:\n        /* \"#utility.yul\":14858:15401   */\n      pop\n      pop\n      pop\n      jump\t// out\n        /* \"#utility.yul\":15407:15524   */\n    tag_112:\n        /* \"#utility.yul\":15461:15469   */\n      0x00\n        /* \"#utility.yul\":15511:15516   */\n      dup3\n        /* \"#utility.yul\":15505:15509   */\n      dup3\n        /* \"#utility.yul\":15501:15517   */\n      shr\n        /* \"#utility.yul\":15480:15517   */\n      swap1\n      pop\n        /* \"#utility.yul\":15407:15524   */\n      swap3\n      swap2\n      pop\n      pop\n      jump\t// out\n        /* \"#utility.yul\":15530:15699   */\n    tag_113:\n        /* \"#utility.yul\":15574:15580   */\n      0x00\n        /* \"#utility.yul\":15607:15658   */\n      tag_270\n        /* \"#utility.yul\":15655:15656   */\n      0x00\n        /* \"#utility.yul\":15651:15657   */\n      not\n        /* \"#utility.yul\":15643:15648   */\n      dup5\n        /* \"#utility.yul\":15640:15641   */\n      0x08\n        /* \"#utility.yul\":15636:15649   */\n      mul\n        /* \"#utility.yul\":15607:15658   */\n      tag_112\n      jump\t// in\n    tag_270:\n        /* \"#utility.yul\":15603:15659   */\n      not\n        /* \"#utility.yul\":15688:15692   */\n      dup1\n        /* \"#utility.yul\":15682:15686   */\n      dup4\n        /* \"#utility.yul\":15678:15693   */\n      and\n        /* \"#utility.yul\":15668:15693   */\n      swap2\n      pop\n        /* \"#utility.yul\":15581:15699   */\n      pop\n        /* \"#utility.yul\":15530:15699   */\n      swap3\n      swap2\n      pop\n      pop\n      jump\t// out\n        /* \"#utility.yul\":15704:15999   */\n    tag_114:\n        /* \"#utility.yul\":15780:15784   */\n      0x00\n        /* \"#utility.yul\":15926:15955   */\n      tag_272\n        /* \"#utility.yul\":15951:15954   */\n      dup4\n        /* \"#utility.yul\":15945:15949   */\n      dup4\n        /* \"#utility.yul\":15926:15955   */\n      tag_113\n      jump\t// in\n    tag_272:\n        /* \"#utility.yul\":15918:15955   */\n      swap2\n      pop\n        /* \"#utility.yul\":15988:15991   */\n      dup3\n        /* \"#utility.yul\":15985:15986   */\n      0x02\n        /* \"#utility.yul\":15981:15992   */\n      mul\n        /* \"#utility.yul\":15975:15979   */\n      dup3\n        /* \"#utility.yul\":15972:15993   */\n      or\n        /* \"#utility.yul\":15964:15993   */\n      swap1\n      pop\n        /* \"#utility.yul\":15704:15999   */\n      swap3\n      swap2\n      pop\n      pop\n      jump\t// out\n        /* \"#utility.yul\":16004:17399   */\n    tag_60:\n        /* \"#utility.yul\":16121:16158   */\n      tag_274\n        /* \"#utility.yul\":16154:16157   */\n      dup3\n        /* \"#utility.yul\":16121:16158   */\n      tag_72\n      jump\t// in\n    tag_274:\n        /* \"#utility.yul\":16223:16241   */\n      0xffffffffffffffff\n        /* \"#utility.yul\":16215:16221   */\n      dup2\n        /* \"#utility.yul\":16212:16242   */\n      gt\n        /* \"#utility.yul\":16209:16265   */\n      iszero\n      tag_275\n      jumpi\n        /* \"#utility.yul\":16245:16263   */\n      tag_276\n      tag_92\n      jump\t// in\n    tag_276:\n        /* \"#utility.yul\":16209:16265   */\n    tag_275:\n        /* \"#utility.yul\":16289:16327   */\n      tag_277\n        /* \"#utility.yul\":16321:16325   */\n      dup3\n        /* \"#utility.yul\":16315:16326   */\n      sload\n        /* \"#utility.yul\":16289:16327   */\n      tag_31\n      jump\t// in\n    tag_277:\n        /* \"#utility.yul\":16374:16441   */\n      tag_278\n        /* \"#utility.yul\":16434:16440   */\n      dup3\n        /* \"#utility.yul\":16426:16432   */\n      dup3\n        /* \"#utility.yul\":16420:16424   */\n      dup6\n        /* \"#utility.yul\":16374:16441   */\n      tag_111\n      jump\t// in\n    tag_278:\n        /* \"#utility.yul\":16468:16469   */\n      0x00\n        /* \"#utility.yul\":16492:16496   */\n      0x20\n        /* \"#utility.yul\":16479:16496   */\n      swap1\n      pop\n        /* \"#utility.yul\":16524:16526   */\n      0x1f\n        /* \"#utility.yul\":16516:16522   */\n      dup4\n        /* \"#utility.yul\":16513:16527   */\n      gt\n        /* \"#utility.yul\":16541:16542   */\n      0x01\n        /* \"#utility.yul\":16536:17154   */\n      dup2\n      eq\n      tag_280\n      jumpi\n        /* \"#utility.yul\":17198:17199   */\n      0x00\n        /* \"#utility.yul\":17215:17221   */\n      dup5\n        /* \"#utility.yul\":17212:17289   */\n      iszero\n      tag_281\n      jumpi\n        /* \"#utility.yul\":17264:17273   */\n      dup3\n        /* \"#utility.yul\":17259:17262   */\n      dup8\n        /* \"#utility.yul\":17255:17274   */\n      add\n        /* \"#utility.yul\":17249:17275   */\n      mload\n        /* \"#utility.yul\":17240:17275   */\n      swap1\n      pop\n        /* \"#utility.yul\":17212:17289   */\n    tag_281:\n        /* \"#utility.yul\":17315:17382   */\n      tag_282\n        /* \"#utility.yul\":17375:17381   */\n      dup6\n        /* \"#utility.yul\":17368:17373   */\n      dup3\n        /* \"#utility.yul\":17315:17382   */\n      tag_114\n      jump\t// in\n    tag_282:\n        /* \"#utility.yul\":17309:17313   */\n      dup7\n        /* \"#utility.yul\":17302:17383   */\n      sstore\n        /* \"#utility.yul\":17171:17393   */\n      pop\n        /* \"#utility.yul\":16506:17393   */\n      jump(tag_279)\n        /* \"#utility.yul\":16536:17154   */\n    tag_280:\n        /* \"#utility.yul\":16588:16592   */\n      0x1f\n        /* \"#utility.yul\":16584:16593   */\n      not\n        /* \"#utility.yul\":16576:16582   */\n      dup5\n        /* \"#utility.yul\":16572:16594   */\n      and\n        /* \"#utility.yul\":16622:16659   */\n      tag_283\n        /* \"#utility.yul\":16654:16658   */\n      dup7\n        /* \"#utility.yul\":16622:16659   */\n      tag_100\n      jump\t// in\n    tag_283:\n        /* \"#utility.yul\":16681:16682   */\n      0x00\n        /* \"#utility.yul\":16695:16903   */\n    tag_284:\n        /* \"#utility.yul\":16709:16716   */\n      dup3\n        /* \"#utility.yul\":16706:16707   */\n      dup2\n        /* \"#utility.yul\":16703:16717   */\n      lt\n        /* \"#utility.yul\":16695:16903   */\n      iszero\n      tag_286\n      jumpi\n        /* \"#utility.yul\":16788:16797   */\n      dup5\n        /* \"#utility.yul\":16783:16786   */\n      dup10\n        /* \"#utility.yul\":16779:16798   */\n      add\n        /* \"#utility.yul\":16773:16799   */\n      mload\n        /* \"#utility.yul\":16765:16771   */\n      dup3\n        /* \"#utility.yul\":16758:16800   */\n      sstore\n        /* \"#utility.yul\":16839:16840   */\n      0x01\n        /* \"#utility.yul\":16831:16837   */\n      dup3\n        /* \"#utility.yul\":16827:16841   */\n      add\n        /* \"#utility.yul\":16817:16841   */\n      swap2\n      pop\n        /* \"#utility.yul\":16886:16888   */\n      0x20\n        /* \"#utility.yul\":16875:16884   */\n      dup6\n        /* \"#utility.yul\":16871:16889   */\n      add\n        /* \"#utility.yul\":16858:16889   */\n      swap5\n      pop\n        /* \"#utility.yul\":16732:16736   */\n      0x20\n        /* \"#utility.yul\":16729:16730   */\n      dup2\n        /* \"#utility.yul\":16725:16737   */\n      add\n        /* \"#utility.yul\":16720:16737   */\n      swap1\n      pop\n        /* \"#utility.yul\":16695:16903   */\n      jump(tag_284)\n    tag_286:\n        /* \"#utility.yul\":16931:16937   */\n      dup7\n        /* \"#utility.yul\":16922:16929   */\n      dup4\n        /* \"#utility.yul\":16919:16938   */\n      lt\n        /* \"#utility.yul\":16916:17095   */\n      iszero\n      tag_287\n      jumpi\n        /* \"#utility.yul\":16989:16998   */\n      dup5\n        /* \"#utility.yul\":16984:16987   */\n      dup10\n        /* \"#utility.yul\":16980:16999   */\n      add\n        /* \"#utility.yul\":16974:17000   */\n      mload\n        /* \"#utility.yul\":17032:17080   */\n      tag_288\n        /* \"#utility.yul\":17074:17078   */\n      0x1f\n        /* \"#utility.yul\":17066:17072   */\n      dup10\n        /* \"#utility.yul\":17062:17079   */\n      and\n        /* \"#utility.yul\":17051:17060   */\n      dup3\n        /* \"#utility.yul\":17032:17080   */\n      tag_113\n      jump\t// in\n    tag_288:\n        /* \"#utility.yul\":17024:17030   */\n      dup4\n        /* \"#utility.yul\":17017:17081   */\n      sstore\n        /* \"#utility.yul\":16939:17095   */\n      pop\n        /* \"#utility.yul\":16916:17095   */\n    tag_287:\n        /* \"#utility.yul\":17141:17142   */\n      0x01\n        /* \"#utility.yul\":17137:17138   */\n      0x02\n        /* \"#utility.yul\":17129:17135   */\n      dup9\n        /* \"#utility.yul\":17125:17139   */\n      mul\n        /* \"#utility.yul\":17121:17143   */\n      add\n        /* \"#utility.yul\":17115:17119   */\n      dup9\n        /* \"#utility.yul\":17108:17144   */\n      sstore\n        /* \"#utility.yul\":16543:17154   */\n      pop\n      pop\n      pop\n        /* \"#utility.yul\":16506:17393   */\n    tag_279:\n      pop\n        /* \"#utility.yul\":16096:17399   */\n      pop\n      pop\n      pop\n        /* \"#utility.yul\":16004:17399   */\n      pop\n      pop\n      jump\t// out\n\n    auxdata: 0xa26469706673582212200b23317800977210c876b8cf76afc45d7693a2e6740bdc5e99d90c7359f8e72d64736f6c634300081a0033\n}\n",
				"bytecode": {
					"linkReferences": {},
					"object": "6080604052348015600e575f80fd5b50610ecf8061001c5f395ff3fe608060405234801561000f575f80fd5b506004361061004a575f3560e01c806305a1b4a91461004e57806312e7ee1c146100815780632cf02026146100b1578063f86d791b146100e1575b5f80fd5b610068600480360381019061006391906106ce565b6100fd565b604051610078949392919061079a565b60405180910390f35b61009b600480360381019061009691906107e4565b6101e7565b6040516100a89190610990565b60405180910390f35b6100cb60048036038101906100c691906106ce565b610377565b6040516100d89190610a10565b60405180910390f35b6100fb60048036038101906100f69190610b5c565b6104e4565b005b5f602052815f5260405f208181548110610115575f80fd5b905f5260205f2090600402015f9150915050805f015f9054906101000a900473ffffffffffffffffffffffffffffffffffffffff169080600101805461015a90610bd0565b80601f016020809104026020016040519081016040528092919081815260200182805461018690610bd0565b80156101d15780601f106101a8576101008083540402835291602001916101d1565b820191905f5260205f20905b8154815290600101906020018083116101b457829003601f168201915b5050505050908060020154908060030154905084565b60605f808373ffffffffffffffffffffffffffffffffffffffff1673ffffffffffffffffffffffffffffffffffffffff1681526020019081526020015f20805480602002602001604051908101604052809291908181526020015f905b8282101561036c578382905f5260205f2090600402016040518060800160405290815f82015f9054906101000a900473ffffffffffffffffffffffffffffffffffffffff1673ffffffffffffffffffffffffffffffffffffffff1673ffffffffffffffffffffffffffffffffffffffff1681526020016001820180546102c990610bd0565b80601f01602080910402602001604051908101604052809291908181526020018280546102f590610bd0565b80156103405780601f1061031757610100808354040283529160200191610340565b820191905f5260205f20905b81548152906001019060200180831161032357829003601f168201915b505050505081526020016002820154815260200160038201548152505081526020019060010190610244565b505050509050919050565b61037f6105f5565b5f808473ffffffffffffffffffffffffffffffffffffffff1673ffffffffffffffffffffffffffffffffffffffff1681526020019081526020015f2082815481106103cd576103cc610c00565b5b905f5260205f2090600402016040518060800160405290815f82015f9054906101000a900473ffffffffffffffffffffffffffffffffffffffff1673ffffffffffffffffffffffffffffffffffffffff1673ffffffffffffffffffffffffffffffffffffffff16815260200160018201805461044890610bd0565b80601f016020809104026020016040519081016040528092919081815260200182805461047490610bd0565b80156104bf5780601f10610496576101008083540402835291602001916104bf565b820191905f5260205f20905b8154815290600101906020018083116104a257829003601f168201915b5050505050815260200160028201548152602001600382015481525050905092915050565b5f60405180608001604052803373ffffffffffffffffffffffffffffffffffffffff1681526020018381526020014281526020015f81525090505f803373ffffffffffffffffffffffffffffffffffffffff1673ffffffffffffffffffffffffffffffffffffffff1681526020019081526020015f2081908060018154018082558091505060019003905f5260205f2090600402015f909190919091505f820151815f015f6101000a81548173ffffffffffffffffffffffffffffffffffffffff021916908373ffffffffffffffffffffffffffffffffffffffff16021790555060208201518160010190816105da9190610dca565b50604082015181600201556060820151816003015550505050565b60405180608001604052805f73ffffffffffffffffffffffffffffffffffffffff168152602001606081526020015f81526020015f81525090565b5f604051905090565b5f80fd5b5f80fd5b5f73ffffffffffffffffffffffffffffffffffffffff82169050919050565b5f61066a82610641565b9050919050565b61067a81610660565b8114610684575f80fd5b50565b5f8135905061069581610671565b92915050565b5f819050919050565b6106ad8161069b565b81146106b7575f80fd5b50565b5f813590506106c8816106a4565b92915050565b5f80604083850312156106e4576106e3610639565b5b5f6106f185828601610687565b9250506020610702858286016106ba565b9150509250929050565b61071581610660565b82525050565b5f81519050919050565b5f82825260208201905092915050565b8281835e5f83830152505050565b5f601f19601f8301169050919050565b5f61075d8261071b565b6107678185610725565b9350610777818560208601610735565b61078081610743565b840191505092915050565b6107948161069b565b82525050565b5f6080820190506107ad5f83018761070c565b81810360208301526107bf8186610753565b90506107ce604083018561078b565b6107db606083018461078b565b95945050505050565b5f602082840312156107f9576107f8610639565b5b5f61080684828501610687565b91505092915050565b5f81519050919050565b5f82825260208201905092915050565b5f819050602082019050919050565b61084181610660565b82525050565b5f82825260208201905092915050565b5f6108618261071b565b61086b8185610847565b935061087b818560208601610735565b61088481610743565b840191505092915050565b6108988161069b565b82525050565b5f608083015f8301516108b35f860182610838565b50602083015184820360208601526108cb8282610857565b91505060408301516108e0604086018261088f565b5060608301516108f3606086018261088f565b508091505092915050565b5f610909838361089e565b905092915050565b5f602082019050919050565b5f6109278261080f565b6109318185610819565b93508360208202850161094385610829565b805f5b8581101561097e578484038952815161095f85826108fe565b945061096a83610911565b925060208a01995050600181019050610946565b50829750879550505050505092915050565b5f6020820190508181035f8301526109a8818461091d565b905092915050565b5f608083015f8301516109c55f860182610838565b50602083015184820360208601526109dd8282610857565b91505060408301516109f2604086018261088f565b506060830151610a05606086018261088f565b508091505092915050565b5f6020820190508181035f830152610a2881846109b0565b905092915050565b5f80fd5b5f80fd5b7f4e487b71000000000000000000000000000000000000000000000000000000005f52604160045260245ffd5b610a6e82610743565b810181811067ffffffffffffffff82111715610a8d57610a8c610a38565b5b80604052505050565b5f610a9f610630565b9050610aab8282610a65565b919050565b5f67ffffffffffffffff821115610aca57610ac9610a38565b5b610ad382610743565b9050602081019050919050565b828183375f83830152505050565b5f610b00610afb84610ab0565b610a96565b905082815260208101848484011115610b1c57610b1b610a34565b5b610b27848285610ae0565b509392505050565b5f82601f830112610b4357610b42610a30565b5b8135610b53848260208601610aee565b91505092915050565b5f60208284031215610b7157610b70610639565b5b5f82013567ffffffffffffffff811115610b8e57610b8d61063d565b5b610b9a84828501610b2f565b91505092915050565b7f4e487b71000000000000000000000000000000000000000000000000000000005f52602260045260245ffd5b5f6002820490506001821680610be757607f821691505b602082108103610bfa57610bf9610ba3565b5b50919050565b7f4e487b71000000000000000000000000000000000000000000000000000000005f52603260045260245ffd5b5f819050815f5260205f209050919050565b5f6020601f8301049050919050565b5f82821b905092915050565b5f60088302610c897fffffffffffffffffffffffffffffffffffffffffffffffffffffffffffffffff82610c4e565b610c938683610c4e565b95508019841693508086168417925050509392505050565b5f819050919050565b5f610cce610cc9610cc48461069b565b610cab565b61069b565b9050919050565b5f819050919050565b610ce783610cb4565b610cfb610cf382610cd5565b848454610c5a565b825550505050565b5f90565b610d0f610d03565b610d1a818484610cde565b505050565b5b81811015610d3d57610d325f82610d07565b600181019050610d20565b5050565b601f821115610d8257610d5381610c2d565b610d5c84610c3f565b81016020851015610d6b578190505b610d7f610d7785610c3f565b830182610d1f565b50505b505050565b5f82821c905092915050565b5f610da25f1984600802610d87565b1980831691505092915050565b5f610dba8383610d93565b9150826002028217905092915050565b610dd38261071b565b67ffffffffffffffff811115610dec57610deb610a38565b5b610df68254610bd0565b610e01828285610d41565b5f60209050601f831160018114610e32575f8415610e20578287015190505b610e2a8582610daf565b865550610e91565b601f198416610e4086610c2d565b5f5b82811015610e6757848901518255600182019150602085019450602081019050610e42565b86831015610e845784890151610e80601f891682610d93565b8355505b6001600288020188555050505b50505050505056fea26469706673582212200b23317800977210c876b8cf76afc45d7693a2e6740bdc5e99d90c7359f8e72d64736f6c634300081a0033",
					"opcodes": "PUSH1 0x80 PUSH1 0x40 MSTORE CALLVALUE DUP1 ISZERO PUSH1 0xE JUMPI PUSH0 DUP1 REVERT JUMPDEST POP PUSH2 0xECF DUP1 PUSH2 0x1C PUSH0 CODECOPY PUSH0 RETURN INVALID PUSH1 0x80 PUSH1 0x40 MSTORE CALLVALUE DUP1 ISZERO PUSH2 0xF JUMPI PUSH0 DUP1 REVERT JUMPDEST POP PUSH1 0x4 CALLDATASIZE LT PUSH2 0x4A JUMPI PUSH0 CALLDATALOAD PUSH1 0xE0 SHR DUP1 PUSH4 0x5A1B4A9 EQ PUSH2 0x4E JUMPI DUP1 PUSH4 0x12E7EE1C EQ PUSH2 0x81 JUMPI DUP1 PUSH4 0x2CF02026 EQ PUSH2 0xB1 JUMPI DUP1 PUSH4 0xF86D791B EQ PUSH2 0xE1 JUMPI JUMPDEST PUSH0 DUP1 REVERT JUMPDEST PUSH2 0x68 PUSH1 0x4 DUP1 CALLDATASIZE SUB DUP2 ADD SWAP1 PUSH2 0x63 SWAP2 SWAP1 PUSH2 0x6CE JUMP JUMPDEST PUSH2 0xFD JUMP JUMPDEST PUSH1 0x40 MLOAD PUSH2 0x78 SWAP5 SWAP4 SWAP3 SWAP2 SWAP1 PUSH2 0x79A JUMP JUMPDEST PUSH1 0x40 MLOAD DUP1 SWAP2 SUB SWAP1 RETURN JUMPDEST PUSH2 0x9B PUSH1 0x4 DUP1 CALLDATASIZE SUB DUP2 ADD SWAP1 PUSH2 0x96 SWAP2 SWAP1 PUSH2 0x7E4 JUMP JUMPDEST PUSH2 0x1E7 JUMP JUMPDEST PUSH1 0x40 MLOAD PUSH2 0xA8 SWAP2 SWAP1 PUSH2 0x990 JUMP JUMPDEST PUSH1 0x40 MLOAD DUP1 SWAP2 SUB SWAP1 RETURN JUMPDEST PUSH2 0xCB PUSH1 0x4 DUP1 CALLDATASIZE SUB DUP2 ADD SWAP1 PUSH2 0xC6 SWAP2 SWAP1 PUSH2 0x6CE JUMP JUMPDEST PUSH2 0x377 JUMP JUMPDEST PUSH1 0x40 MLOAD PUSH2 0xD8 SWAP2 SWAP1 PUSH2 0xA10 JUMP JUMPDEST PUSH1 0x40 MLOAD DUP1 SWAP2 SUB SWAP1 RETURN JUMPDEST PUSH2 0xFB PUSH1 0x4 DUP1 CALLDATASIZE SUB DUP2 ADD SWAP1 PUSH2 0xF6 SWAP2 SWAP1 PUSH2 0xB5C JUMP JUMPDEST PUSH2 0x4E4 JUMP JUMPDEST STOP JUMPDEST PUSH0 PUSH1 0x20 MSTORE DUP2 PUSH0 MSTORE PUSH1 0x40 PUSH0 KECCAK256 DUP2 DUP2 SLOAD DUP2 LT PUSH2 0x115 JUMPI PUSH0 DUP1 REVERT JUMPDEST SWAP1 PUSH0 MSTORE PUSH1 0x20 PUSH0 KECCAK256 SWAP1 PUSH1 0x4 MUL ADD PUSH0 SWAP2 POP SWAP2 POP POP DUP1 PUSH0 ADD PUSH0 SWAP1 SLOAD SWAP1 PUSH2 0x100 EXP SWAP1 DIV PUSH20 0xFFFFFFFFFFFFFFFFFFFFFFFFFFFFFFFFFFFFFFFF AND SWAP1 DUP1 PUSH1 0x1 ADD DUP1 SLOAD PUSH2 0x15A SWAP1 PUSH2 0xBD0 JUMP JUMPDEST DUP1 PUSH1 0x1F ADD PUSH1 0x20 DUP1 SWAP2 DIV MUL PUSH1 0x20 ADD PUSH1 0x40 MLOAD SWAP1 DUP2 ADD PUSH1 0x40 MSTORE DUP1 SWAP3 SWAP2 SWAP1 DUP2 DUP2 MSTORE PUSH1 0x20 ADD DUP3 DUP1 SLOAD PUSH2 0x186 SWAP1 PUSH2 0xBD0 JUMP JUMPDEST DUP1 ISZERO PUSH2 0x1D1 JUMPI DUP1 PUSH1 0x1F LT PUSH2 0x1A8 JUMPI PUSH2 0x100 DUP1 DUP4 SLOAD DIV MUL DUP4 MSTORE SWAP2 PUSH1 0x20 ADD SWAP2 PUSH2 0x1D1 JUMP JUMPDEST DUP3 ADD SWAP2 SWAP1 PUSH0 MSTORE PUSH1 0x20 PUSH0 KECCAK256 SWAP1 JUMPDEST DUP2 SLOAD DUP2 MSTORE SWAP1 PUSH1 0x1 ADD SWAP1 PUSH1 0x20 ADD DUP1 DUP4 GT PUSH2 0x1B4 JUMPI DUP3 SWAP1 SUB PUSH1 0x1F AND DUP3 ADD SWAP2 JUMPDEST POP POP POP POP POP SWAP1 DUP1 PUSH1 0x2 ADD SLOAD SWAP1 DUP1 PUSH1 0x3 ADD SLOAD SWAP1 POP DUP5 JUMP JUMPDEST PUSH1 0x60 PUSH0 DUP1 DUP4 PUSH20 0xFFFFFFFFFFFFFFFFFFFFFFFFFFFFFFFFFFFFFFFF AND PUSH20 0xFFFFFFFFFFFFFFFFFFFFFFFFFFFFFFFFFFFFFFFF AND DUP2 MSTORE PUSH1 0x20 ADD SWAP1 DUP2 MSTORE PUSH1 0x20 ADD PUSH0 KECCAK256 DUP1 SLOAD DUP1 PUSH1 0x20 MUL PUSH1 0x20 ADD PUSH1 0x40 MLOAD SWAP1 DUP2 ADD PUSH1 0x40 MSTORE DUP1 SWAP3 SWAP2 SWAP1 DUP2 DUP2 MSTORE PUSH1 0x20 ADD PUSH0 SWAP1 JUMPDEST DUP3 DUP3 LT ISZERO PUSH2 0x36C JUMPI DUP4 DUP3 SWAP1 PUSH0 MSTORE PUSH1 0x20 PUSH0 KECCAK256 SWAP1 PUSH1 0x4 MUL ADD PUSH1 0x40 MLOAD DUP1 PUSH1 0x80 ADD PUSH1 0x40 MSTORE SWAP1 DUP2 PUSH0 DUP3 ADD PUSH0 SWAP1 SLOAD SWAP1 PUSH2 0x100 EXP SWAP1 DIV PUSH20 0xFFFFFFFFFFFFFFFFFFFFFFFFFFFFFFFFFFFFFFFF AND PUSH20 0xFFFFFFFFFFFFFFFFFFFFFFFFFFFFFFFFFFFFFFFF AND PUSH20 0xFFFFFFFFFFFFFFFFFFFFFFFFFFFFFFFFFFFFFFFF AND DUP2 MSTORE PUSH1 0x20 ADD PUSH1 0x1 DUP3 ADD DUP1 SLOAD PUSH2 0x2C9 SWAP1 PUSH2 0xBD0 JUMP JUMPDEST DUP1 PUSH1 0x1F ADD PUSH1 0x20 DUP1 SWAP2 DIV MUL PUSH1 0x20 ADD PUSH1 0x40 MLOAD SWAP1 DUP2 ADD PUSH1 0x40 MSTORE DUP1 SWAP3 SWAP2 SWAP1 DUP2 DUP2 MSTORE PUSH1 0x20 ADD DUP3 DUP1 SLOAD PUSH2 0x2F5 SWAP1 PUSH2 0xBD0 JUMP JUMPDEST DUP1 ISZERO PUSH2 0x340 JUMPI DUP1 PUSH1 0x1F LT PUSH2 0x317 JUMPI PUSH2 0x100 DUP1 DUP4 SLOAD DIV MUL DUP4 MSTORE SWAP2 PUSH1 0x20 ADD SWAP2 PUSH2 0x340 JUMP JUMPDEST DUP3 ADD SWAP2 SWAP1 PUSH0 MSTORE PUSH1 0x20 PUSH0 KECCAK256 SWAP1 JUMPDEST DUP2 SLOAD DUP2 MSTORE SWAP1 PUSH1 0x1 ADD SWAP1 PUSH1 0x20 ADD DUP1 DUP4 GT PUSH2 0x323 JUMPI DUP3 SWAP1 SUB PUSH1 0x1F AND DUP3 ADD SWAP2 JUMPDEST POP POP POP POP POP DUP2 MSTORE PUSH1 0x20 ADD PUSH1 0x2 DUP3 ADD SLOAD DUP2 MSTORE PUSH1 0x20 ADD PUSH1 0x3 DUP3 ADD SLOAD DUP2 MSTORE POP POP DUP2 MSTORE PUSH1 0x20 ADD SWAP1 PUSH1 0x1 ADD SWAP1 PUSH2 0x244 JUMP JUMPDEST POP POP POP POP SWAP1 POP SWAP2 SWAP1 POP JUMP JUMPDEST PUSH2 0x37F PUSH2 0x5F5 JUMP JUMPDEST PUSH0 DUP1 DUP5 PUSH20 0xFFFFFFFFFFFFFFFFFFFFFFFFFFFFFFFFFFFFFFFF AND PUSH20 0xFFFFFFFFFFFFFFFFFFFFFFFFFFFFFFFFFFFFFFFF AND DUP2 MSTORE PUSH1 0x20 ADD SWAP1 DUP2 MSTORE PUSH1 0x20 ADD PUSH0 KECCAK256 DUP3 DUP2 SLOAD DUP2 LT PUSH2 0x3CD JUMPI PUSH2 0x3CC PUSH2 0xC00 JUMP JUMPDEST JUMPDEST SWAP1 PUSH0 MSTORE PUSH1 0x20 PUSH0 KECCAK256 SWAP1 PUSH1 0x4 MUL ADD PUSH1 0x40 MLOAD DUP1 PUSH1 0x80 ADD PUSH1 0x40 MSTORE SWAP1 DUP2 PUSH0 DUP3 ADD PUSH0 SWAP1 SLOAD SWAP1 PUSH2 0x100 EXP SWAP1 DIV PUSH20 0xFFFFFFFFFFFFFFFFFFFFFFFFFFFFFFFFFFFFFFFF AND PUSH20 0xFFFFFFFFFFFFFFFFFFFFFFFFFFFFFFFFFFFFFFFF AND PUSH20 0xFFFFFFFFFFFFFFFFFFFFFFFFFFFFFFFFFFFFFFFF AND DUP2 MSTORE PUSH1 0x20 ADD PUSH1 0x1 DUP3 ADD DUP1 SLOAD PUSH2 0x448 SWAP1 PUSH2 0xBD0 JUMP JUMPDEST DUP1 PUSH1 0x1F ADD PUSH1 0x20 DUP1 SWAP2 DIV MUL PUSH1 0x20 ADD PUSH1 0x40 MLOAD SWAP1 DUP2 ADD PUSH1 0x40 MSTORE DUP1 SWAP3 SWAP2 SWAP1 DUP2 DUP2 MSTORE PUSH1 0x20 ADD DUP3 DUP1 SLOAD PUSH2 0x474 SWAP1 PUSH2 0xBD0 JUMP JUMPDEST DUP1 ISZERO PUSH2 0x4BF JUMPI DUP1 PUSH1 0x1F LT PUSH2 0x496 JUMPI PUSH2 0x100 DUP1 DUP4 SLOAD DIV MUL DUP4 MSTORE SWAP2 PUSH1 0x20 ADD SWAP2 PUSH2 0x4BF JUMP JUMPDEST DUP3 ADD SWAP2 SWAP1 PUSH0 MSTORE PUSH1 0x20 PUSH0 KECCAK256 SWAP1 JUMPDEST DUP2 SLOAD DUP2 MSTORE SWAP1 PUSH1 0x1 ADD SWAP1 PUSH1 0x20 ADD DUP1 DUP4 GT PUSH2 0x4A2 JUMPI DUP3 SWAP1 SUB PUSH1 0x1F AND DUP3 ADD SWAP2 JUMPDEST POP POP POP POP POP DUP2 MSTORE PUSH1 0x20 ADD PUSH1 0x2 DUP3 ADD SLOAD DUP2 MSTORE PUSH1 0x20 ADD PUSH1 0x3 DUP3 ADD SLOAD DUP2 MSTORE POP POP SWAP1 POP SWAP3 SWAP2 POP POP JUMP JUMPDEST PUSH0 PUSH1 0x40 MLOAD DUP1 PUSH1 0x80 ADD PUSH1 0x40 MSTORE DUP1 CALLER PUSH20 0xFFFFFFFFFFFFFFFFFFFFFFFFFFFFFFFFFFFFFFFF AND DUP2 MSTORE PUSH1 0x20 ADD DUP4 DUP2 MSTORE PUSH1 0x20 ADD TIMESTAMP DUP2 MSTORE PUSH1 0x20 ADD PUSH0 DUP2 MSTORE POP SWAP1 POP PUSH0 DUP1 CALLER PUSH20 0xFFFFFFFFFFFFFFFFFFFFFFFFFFFFFFFFFFFFFFFF AND PUSH20 0xFFFFFFFFFFFFFFFFFFFFFFFFFFFFFFFFFFFFFFFF AND DUP2 MSTORE PUSH1 0x20 ADD SWAP1 DUP2 MSTORE PUSH1 0x20 ADD PUSH0 KECCAK256 DUP2 SWAP1 DUP1 PUSH1 0x1 DUP2 SLOAD ADD DUP1 DUP3 SSTORE DUP1 SWAP2 POP POP PUSH1 0x1 SWAP1 SUB SWAP1 PUSH0 MSTORE PUSH1 0x20 PUSH0 KECCAK256 SWAP1 PUSH1 0x4 MUL ADD PUSH0 SWAP1 SWAP2 SWAP1 SWAP2 SWAP1 SWAP2 POP PUSH0 DUP3 ADD MLOAD DUP2 PUSH0 ADD PUSH0 PUSH2 0x100 EXP DUP2 SLOAD DUP2 PUSH20 0xFFFFFFFFFFFFFFFFFFFFFFFFFFFFFFFFFFFFFFFF MUL NOT AND SWAP1 DUP4 PUSH20 0xFFFFFFFFFFFFFFFFFFFFFFFFFFFFFFFFFFFFFFFF AND MUL OR SWAP1 SSTORE POP PUSH1 0x20 DUP3 ADD MLOAD DUP2 PUSH1 0x1 ADD SWAP1 DUP2 PUSH2 0x5DA SWAP2 SWAP1 PUSH2 0xDCA JUMP JUMPDEST POP PUSH1 0x40 DUP3 ADD MLOAD DUP2 PUSH1 0x2 ADD SSTORE PUSH1 0x60 DUP3 ADD MLOAD DUP2 PUSH1 0x3 ADD SSTORE POP POP POP POP JUMP JUMPDEST PUSH1 0x40 MLOAD DUP1 PUSH1 0x80 ADD PUSH1 0x40 MSTORE DUP1 PUSH0 PUSH20 0xFFFFFFFFFFFFFFFFFFFFFFFFFFFFFFFFFFFFFFFF AND DUP2 MSTORE PUSH1 0x20 ADD PUSH1 0x60 DUP2 MSTORE PUSH1 0x20 ADD PUSH0 DUP2 MSTORE PUSH1 0x20 ADD PUSH0 DUP2 MSTORE POP SWAP1 JUMP JUMPDEST PUSH0 PUSH1 0x40 MLOAD SWAP1 POP SWAP1 JUMP JUMPDEST PUSH0 DUP1 REVERT JUMPDEST PUSH0 DUP1 REVERT JUMPDEST PUSH0 PUSH20 0xFFFFFFFFFFFFFFFFFFFFFFFFFFFFFFFFFFFFFFFF DUP3 AND SWAP1 POP SWAP2 SWAP1 POP JUMP JUMPDEST PUSH0 PUSH2 0x66A DUP3 PUSH2 0x641 JUMP JUMPDEST SWAP1 POP SWAP2 SWAP1 POP JUMP JUMPDEST PUSH2 0x67A DUP2 PUSH2 0x660 JUMP JUMPDEST DUP2 EQ PUSH2 0x684 JUMPI PUSH0 DUP1 REVERT JUMPDEST POP JUMP JUMPDEST PUSH0 DUP2 CALLDATALOAD SWAP1 POP PUSH2 0x695 DUP2 PUSH2 0x671 JUMP JUMPDEST SWAP3 SWAP2 POP POP JUMP JUMPDEST PUSH0 DUP2 SWAP1 POP SWAP2 SWAP1 POP JUMP JUMPDEST PUSH2 0x6AD DUP2 PUSH2 0x69B JUMP JUMPDEST DUP2 EQ PUSH2 0x6B7 JUMPI PUSH0 DUP1 REVERT JUMPDEST POP JUMP JUMPDEST PUSH0 DUP2 CALLDATALOAD SWAP1 POP PUSH2 0x6C8 DUP2 PUSH2 0x6A4 JUMP JUMPDEST SWAP3 SWAP2 POP POP JUMP JUMPDEST PUSH0 DUP1 PUSH1 0x40 DUP4 DUP6 SUB SLT ISZERO PUSH2 0x6E4 JUMPI PUSH2 0x6E3 PUSH2 0x639 JUMP JUMPDEST JUMPDEST PUSH0 PUSH2 0x6F1 DUP6 DUP3 DUP7 ADD PUSH2 0x687 JUMP JUMPDEST SWAP3 POP POP PUSH1 0x20 PUSH2 0x702 DUP6 DUP3 DUP7 ADD PUSH2 0x6BA JUMP JUMPDEST SWAP2 POP POP SWAP3 POP SWAP3 SWAP1 POP JUMP JUMPDEST PUSH2 0x715 DUP2 PUSH2 0x660 JUMP JUMPDEST DUP3 MSTORE POP POP JUMP JUMPDEST PUSH0 DUP2 MLOAD SWAP1 POP SWAP2 SWAP1 POP JUMP JUMPDEST PUSH0 DUP3 DUP3 MSTORE PUSH1 0x20 DUP3 ADD SWAP1 POP SWAP3 SWAP2 POP POP JUMP JUMPDEST DUP3 DUP2 DUP4 MCOPY PUSH0 DUP4 DUP4 ADD MSTORE POP POP POP JUMP JUMPDEST PUSH0 PUSH1 0x1F NOT PUSH1 0x1F DUP4 ADD AND SWAP1 POP SWAP2 SWAP1 POP JUMP JUMPDEST PUSH0 PUSH2 0x75D DUP3 PUSH2 0x71B JUMP JUMPDEST PUSH2 0x767 DUP2 DUP6 PUSH2 0x725 JUMP JUMPDEST SWAP4 POP PUSH2 0x777 DUP2 DUP6 PUSH1 0x20 DUP7 ADD PUSH2 0x735 JUMP JUMPDEST PUSH2 0x780 DUP2 PUSH2 0x743 JUMP JUMPDEST DUP5 ADD SWAP2 POP POP SWAP3 SWAP2 POP POP JUMP JUMPDEST PUSH2 0x794 DUP2 PUSH2 0x69B JUMP JUMPDEST DUP3 MSTORE POP POP JUMP JUMPDEST PUSH0 PUSH1 0x80 DUP3 ADD SWAP1 POP PUSH2 0x7AD PUSH0 DUP4 ADD DUP8 PUSH2 0x70C JUMP JUMPDEST DUP2 DUP2 SUB PUSH1 0x20 DUP4 ADD MSTORE PUSH2 0x7BF DUP2 DUP7 PUSH2 0x753 JUMP JUMPDEST SWAP1 POP PUSH2 0x7CE PUSH1 0x40 DUP4 ADD DUP6 PUSH2 0x78B JUMP JUMPDEST PUSH2 0x7DB PUSH1 0x60 DUP4 ADD DUP5 PUSH2 0x78B JUMP JUMPDEST SWAP6 SWAP5 POP POP POP POP POP JUMP JUMPDEST PUSH0 PUSH1 0x20 DUP3 DUP5 SUB SLT ISZERO PUSH2 0x7F9 JUMPI PUSH2 0x7F8 PUSH2 0x639 JUMP JUMPDEST JUMPDEST PUSH0 PUSH2 0x806 DUP5 DUP3 DUP6 ADD PUSH2 0x687 JUMP JUMPDEST SWAP2 POP POP SWAP3 SWAP2 POP POP JUMP JUMPDEST PUSH0 DUP2 MLOAD SWAP1 POP SWAP2 SWAP1 POP JUMP JUMPDEST PUSH0 DUP3 DUP3 MSTORE PUSH1 0x20 DUP3 ADD SWAP1 POP SWAP3 SWAP2 POP POP JUMP JUMPDEST PUSH0 DUP2 SWAP1 POP PUSH1 0x20 DUP3 ADD SWAP1 POP SWAP2 SWAP1 POP JUMP JUMPDEST PUSH2 0x841 DUP2 PUSH2 0x660 JUMP JUMPDEST DUP3 MSTORE POP POP JUMP JUMPDEST PUSH0 DUP3 DUP3 MSTORE PUSH1 0x20 DUP3 ADD SWAP1 POP SWAP3 SWAP2 POP POP JUMP JUMPDEST PUSH0 PUSH2 0x861 DUP3 PUSH2 0x71B JUMP JUMPDEST PUSH2 0x86B DUP2 DUP6 PUSH2 0x847 JUMP JUMPDEST SWAP4 POP PUSH2 0x87B DUP2 DUP6 PUSH1 0x20 DUP7 ADD PUSH2 0x735 JUMP JUMPDEST PUSH2 0x884 DUP2 PUSH2 0x743 JUMP JUMPDEST DUP5 ADD SWAP2 POP POP SWAP3 SWAP2 POP POP JUMP JUMPDEST PUSH2 0x898 DUP2 PUSH2 0x69B JUMP JUMPDEST DUP3 MSTORE POP POP JUMP JUMPDEST PUSH0 PUSH1 0x80 DUP4 ADD PUSH0 DUP4 ADD MLOAD PUSH2 0x8B3 PUSH0 DUP7 ADD DUP3 PUSH2 0x838 JUMP JUMPDEST POP PUSH1 0x20 DUP4 ADD MLOAD DUP5 DUP3 SUB PUSH1 0x20 DUP7 ADD MSTORE PUSH2 0x8CB DUP3 DUP3 PUSH2 0x857 JUMP JUMPDEST SWAP2 POP POP PUSH1 0x40 DUP4 ADD MLOAD PUSH2 0x8E0 PUSH1 0x40 DUP7 ADD DUP3 PUSH2 0x88F JUMP JUMPDEST POP PUSH1 0x60 DUP4 ADD MLOAD PUSH2 0x8F3 PUSH1 0x60 DUP7 ADD DUP3 PUSH2 0x88F JUMP JUMPDEST POP DUP1 SWAP2 POP POP SWAP3 SWAP2 POP POP JUMP JUMPDEST PUSH0 PUSH2 0x909 DUP4 DUP4 PUSH2 0x89E JUMP JUMPDEST SWAP1 POP SWAP3 SWAP2 POP POP JUMP JUMPDEST PUSH0 PUSH1 0x20 DUP3 ADD SWAP1 POP SWAP2 SWAP1 POP JUMP JUMPDEST PUSH0 PUSH2 0x927 DUP3 PUSH2 0x80F JUMP JUMPDEST PUSH2 0x931 DUP2 DUP6 PUSH2 0x819 JUMP JUMPDEST SWAP4 POP DUP4 PUSH1 0x20 DUP3 MUL DUP6 ADD PUSH2 0x943 DUP6 PUSH2 0x829 JUMP JUMPDEST DUP1 PUSH0 JUMPDEST DUP6 DUP2 LT ISZERO PUSH2 0x97E JUMPI DUP5 DUP5 SUB DUP10 MSTORE DUP2 MLOAD PUSH2 0x95F DUP6 DUP3 PUSH2 0x8FE JUMP JUMPDEST SWAP5 POP PUSH2 0x96A DUP4 PUSH2 0x911 JUMP JUMPDEST SWAP3 POP PUSH1 0x20 DUP11 ADD SWAP10 POP POP PUSH1 0x1 DUP2 ADD SWAP1 POP PUSH2 0x946 JUMP JUMPDEST POP DUP3 SWAP8 POP DUP8 SWAP6 POP POP POP POP POP POP SWAP3 SWAP2 POP POP JUMP JUMPDEST PUSH0 PUSH1 0x20 DUP3 ADD SWAP1 POP DUP2 DUP2 SUB PUSH0 DUP4 ADD MSTORE PUSH2 0x9A8 DUP2 DUP5 PUSH2 0x91D JUMP JUMPDEST SWAP1 POP SWAP3 SWAP2 POP POP JUMP JUMPDEST PUSH0 PUSH1 0x80 DUP4 ADD PUSH0 DUP4 ADD MLOAD PUSH2 0x9C5 PUSH0 DUP7 ADD DUP3 PUSH2 0x838 JUMP JUMPDEST POP PUSH1 0x20 DUP4 ADD MLOAD DUP5 DUP3 SUB PUSH1 0x20 DUP7 ADD MSTORE PUSH2 0x9DD DUP3 DUP3 PUSH2 0x857 JUMP JUMPDEST SWAP2 POP POP PUSH1 0x40 DUP4 ADD MLOAD PUSH2 0x9F2 PUSH1 0x40 DUP7 ADD DUP3 PUSH2 0x88F JUMP JUMPDEST POP PUSH1 0x60 DUP4 ADD MLOAD PUSH2 0xA05 PUSH1 0x60 DUP7 ADD DUP3 PUSH2 0x88F JUMP JUMPDEST POP DUP1 SWAP2 POP POP SWAP3 SWAP2 POP POP JUMP JUMPDEST PUSH0 PUSH1 0x20 DUP3 ADD SWAP1 POP DUP2 DUP2 SUB PUSH0 DUP4 ADD MSTORE PUSH2 0xA28 DUP2 DUP5 PUSH2 0x9B0 JUMP JUMPDEST SWAP1 POP SWAP3 SWAP2 POP POP JUMP JUMPDEST PUSH0 DUP1 REVERT JUMPDEST PUSH0 DUP1 REVERT JUMPDEST PUSH32 0x4E487B7100000000000000000000000000000000000000000000000000000000 PUSH0 MSTORE PUSH1 0x41 PUSH1 0x4 MSTORE PUSH1 0x24 PUSH0 REVERT JUMPDEST PUSH2 0xA6E DUP3 PUSH2 0x743 JUMP JUMPDEST DUP2 ADD DUP2 DUP2 LT PUSH8 0xFFFFFFFFFFFFFFFF DUP3 GT OR ISZERO PUSH2 0xA8D JUMPI PUSH2 0xA8C PUSH2 0xA38 JUMP JUMPDEST JUMPDEST DUP1 PUSH1 0x40 MSTORE POP POP POP JUMP JUMPDEST PUSH0 PUSH2 0xA9F PUSH2 0x630 JUMP JUMPDEST SWAP1 POP PUSH2 0xAAB DUP3 DUP3 PUSH2 0xA65 JUMP JUMPDEST SWAP2 SWAP1 POP JUMP JUMPDEST PUSH0 PUSH8 0xFFFFFFFFFFFFFFFF DUP3 GT ISZERO PUSH2 0xACA JUMPI PUSH2 0xAC9 PUSH2 0xA38 JUMP JUMPDEST JUMPDEST PUSH2 0xAD3 DUP3 PUSH2 0x743 JUMP JUMPDEST SWAP1 POP PUSH1 0x20 DUP2 ADD SWAP1 POP SWAP2 SWAP1 POP JUMP JUMPDEST DUP3 DUP2 DUP4 CALLDATACOPY PUSH0 DUP4 DUP4 ADD MSTORE POP POP POP JUMP JUMPDEST PUSH0 PUSH2 0xB00 PUSH2 0xAFB DUP5 PUSH2 0xAB0 JUMP JUMPDEST PUSH2 0xA96 JUMP JUMPDEST SWAP1 POP DUP3 DUP2 MSTORE PUSH1 0x20 DUP2 ADD DUP5 DUP5 DUP5 ADD GT ISZERO PUSH2 0xB1C JUMPI PUSH2 0xB1B PUSH2 0xA34 JUMP JUMPDEST JUMPDEST PUSH2 0xB27 DUP5 DUP3 DUP6 PUSH2 0xAE0 JUMP JUMPDEST POP SWAP4 SWAP3 POP POP POP JUMP JUMPDEST PUSH0 DUP3 PUSH1 0x1F DUP4 ADD SLT PUSH2 0xB43 JUMPI PUSH2 0xB42 PUSH2 0xA30 JUMP JUMPDEST JUMPDEST DUP2 CALLDATALOAD PUSH2 0xB53 DUP5 DUP3 PUSH1 0x20 DUP7 ADD PUSH2 0xAEE JUMP JUMPDEST SWAP2 POP POP SWAP3 SWAP2 POP POP JUMP JUMPDEST PUSH0 PUSH1 0x20 DUP3 DUP5 SUB SLT ISZERO PUSH2 0xB71 JUMPI PUSH2 0xB70 PUSH2 0x639 JUMP JUMPDEST JUMPDEST PUSH0 DUP3 ADD CALLDATALOAD PUSH8 0xFFFFFFFFFFFFFFFF DUP2 GT ISZERO PUSH2 0xB8E JUMPI PUSH2 0xB8D PUSH2 0x63D JUMP JUMPDEST JUMPDEST PUSH2 0xB9A DUP5 DUP3 DUP6 ADD PUSH2 0xB2F JUMP JUMPDEST SWAP2 POP POP SWAP3 SWAP2 POP POP JUMP JUMPDEST PUSH32 0x4E487B7100000000000000000000000000000000000000000000000000000000 PUSH0 MSTORE PUSH1 0x22 PUSH1 0x4 MSTORE PUSH1 0x24 PUSH0 REVERT JUMPDEST PUSH0 PUSH1 0x2 DUP3 DIV SWAP1 POP PUSH1 0x1 DUP3 AND DUP1 PUSH2 0xBE7 JUMPI PUSH1 0x7F DUP3 AND SWAP2 POP JUMPDEST PUSH1 0x20 DUP3 LT DUP2 SUB PUSH2 0xBFA JUMPI PUSH2 0xBF9 PUSH2 0xBA3 JUMP JUMPDEST JUMPDEST POP SWAP2 SWAP1 POP JUMP JUMPDEST PUSH32 0x4E487B7100000000000000000000000000000000000000000000000000000000 PUSH0 MSTORE PUSH1 0x32 PUSH1 0x4 MSTORE PUSH1 0x24 PUSH0 REVERT JUMPDEST PUSH0 DUP2 SWAP1 POP DUP2 PUSH0 MSTORE PUSH1 0x20 PUSH0 KECCAK256 SWAP1 POP SWAP2 SWAP1 POP JUMP JUMPDEST PUSH0 PUSH1 0x20 PUSH1 0x1F DUP4 ADD DIV SWAP1 POP SWAP2 SWAP1 POP JUMP JUMPDEST PUSH0 DUP3 DUP3 SHL SWAP1 POP SWAP3 SWAP2 POP POP JUMP JUMPDEST PUSH0 PUSH1 0x8 DUP4 MUL PUSH2 0xC89 PUSH32 0xFFFFFFFFFFFFFFFFFFFFFFFFFFFFFFFFFFFFFFFFFFFFFFFFFFFFFFFFFFFFFFFF DUP3 PUSH2 0xC4E JUMP JUMPDEST PUSH2 0xC93 DUP7 DUP4 PUSH2 0xC4E JUMP JUMPDEST SWAP6 POP DUP1 NOT DUP5 AND SWAP4 POP DUP1 DUP7 AND DUP5 OR SWAP3 POP POP POP SWAP4 SWAP3 POP POP POP JUMP JUMPDEST PUSH0 DUP2 SWAP1 POP SWAP2 SWAP1 POP JUMP JUMPDEST PUSH0 PUSH2 0xCCE PUSH2 0xCC9 PUSH2 0xCC4 DUP5 PUSH2 0x69B JUMP JUMPDEST PUSH2 0xCAB JUMP JUMPDEST PUSH2 0x69B JUMP JUMPDEST SWAP1 POP SWAP2 SWAP1 POP JUMP JUMPDEST PUSH0 DUP2 SWAP1 POP SWAP2 SWAP1 POP JUMP JUMPDEST PUSH2 0xCE7 DUP4 PUSH2 0xCB4 JUMP JUMPDEST PUSH2 0xCFB PUSH2 0xCF3 DUP3 PUSH2 0xCD5 JUMP JUMPDEST DUP5 DUP5 SLOAD PUSH2 0xC5A JUMP JUMPDEST DUP3 SSTORE POP POP POP POP JUMP JUMPDEST PUSH0 SWAP1 JUMP JUMPDEST PUSH2 0xD0F PUSH2 0xD03 JUMP JUMPDEST PUSH2 0xD1A DUP2 DUP5 DUP5 PUSH2 0xCDE JUMP JUMPDEST POP POP POP JUMP JUMPDEST JUMPDEST DUP2 DUP2 LT ISZERO PUSH2 0xD3D JUMPI PUSH2 0xD32 PUSH0 DUP3 PUSH2 0xD07 JUMP JUMPDEST PUSH1 0x1 DUP2 ADD SWAP1 POP PUSH2 0xD20 JUMP JUMPDEST POP POP JUMP JUMPDEST PUSH1 0x1F DUP3 GT ISZERO PUSH2 0xD82 JUMPI PUSH2 0xD53 DUP2 PUSH2 0xC2D JUMP JUMPDEST PUSH2 0xD5C DUP5 PUSH2 0xC3F JUMP JUMPDEST DUP2 ADD PUSH1 0x20 DUP6 LT ISZERO PUSH2 0xD6B JUMPI DUP2 SWAP1 POP JUMPDEST PUSH2 0xD7F PUSH2 0xD77 DUP6 PUSH2 0xC3F JUMP JUMPDEST DUP4 ADD DUP3 PUSH2 0xD1F JUMP JUMPDEST POP POP JUMPDEST POP POP POP JUMP JUMPDEST PUSH0 DUP3 DUP3 SHR SWAP1 POP SWAP3 SWAP2 POP POP JUMP JUMPDEST PUSH0 PUSH2 0xDA2 PUSH0 NOT DUP5 PUSH1 0x8 MUL PUSH2 0xD87 JUMP JUMPDEST NOT DUP1 DUP4 AND SWAP2 POP POP SWAP3 SWAP2 POP POP JUMP JUMPDEST PUSH0 PUSH2 0xDBA DUP4 DUP4 PUSH2 0xD93 JUMP JUMPDEST SWAP2 POP DUP3 PUSH1 0x2 MUL DUP3 OR SWAP1 POP SWAP3 SWAP2 POP POP JUMP JUMPDEST PUSH2 0xDD3 DUP3 PUSH2 0x71B JUMP JUMPDEST PUSH8 0xFFFFFFFFFFFFFFFF DUP2 GT ISZERO PUSH2 0xDEC JUMPI PUSH2 0xDEB PUSH2 0xA38 JUMP JUMPDEST JUMPDEST PUSH2 0xDF6 DUP3 SLOAD PUSH2 0xBD0 JUMP JUMPDEST PUSH2 0xE01 DUP3 DUP3 DUP6 PUSH2 0xD41 JUMP JUMPDEST PUSH0 PUSH1 0x20 SWAP1 POP PUSH1 0x1F DUP4 GT PUSH1 0x1 DUP2 EQ PUSH2 0xE32 JUMPI PUSH0 DUP5 ISZERO PUSH2 0xE20 JUMPI DUP3 DUP8 ADD MLOAD SWAP1 POP JUMPDEST PUSH2 0xE2A DUP6 DUP3 PUSH2 0xDAF JUMP JUMPDEST DUP7 SSTORE POP PUSH2 0xE91 JUMP JUMPDEST PUSH1 0x1F NOT DUP5 AND PUSH2 0xE40 DUP7 PUSH2 0xC2D JUMP JUMPDEST PUSH0 JUMPDEST DUP3 DUP2 LT ISZERO PUSH2 0xE67 JUMPI DUP5 DUP10 ADD MLOAD DUP3 SSTORE PUSH1 0x1 DUP3 ADD SWAP2 POP PUSH1 0x20 DUP6 ADD SWAP5 POP PUSH1 0x20 DUP2 ADD SWAP1 POP PUSH2 0xE42 JUMP JUMPDEST DUP7 DUP4 LT ISZERO PUSH2 0xE84 JUMPI DUP5 DUP10 ADD MLOAD PUSH2 0xE80 PUSH1 0x1F DUP10 AND DUP3 PUSH2 0xD93 JUMP JUMPDEST DUP4 SSTORE POP JUMPDEST PUSH1 0x1 PUSH1 0x2 DUP9 MUL ADD DUP9 SSTORE POP POP POP JUMPDEST POP POP POP POP POP POP JUMP INVALID LOG2 PUSH5 0x6970667358 0x22 SLT KECCAK256 SIGNEXTEND 0x23 BALANCE PUSH25 0x977210C876B8CF76AFC45D7693A2E6740BDC5E99D90C7359 0xF8 0xE7 0x2D PUSH5 0x736F6C6343 STOP ADDMOD BYTE STOP CALLER "
				},
				"gasEstimates": {
					"creation": {
						"codeDepositCost": "758200",
						"executionCost": "790",
						"totalCost": "758990"
					},
					"external": {
						"creatTweets(string)": "infinite",
						"getAllTweets(address)": "infinite",
						"getTweets(address,uint256)": "infinite",
						"tweets(address,uint256)": "infinite"
					}
				},
				"methodIdentifiers": {
					"creatTweets(string)": "f86d791b",
					"getAllTweets(address)": "12e7ee1c",
					"getTweets(address,uint256)": "2cf02026",
					"tweets(address,uint256)": "05a1b4a9"
				}
			},
			"storageLayout": {
				"storage": [
					{
						"astId": 16,
						"contract": "contracts/Twitter3.sol:Twitter",
						"label": "tweets",
						"offset": 0,
						"slot": "0",
						"type": "t_mapping(t_address,t_array(t_struct(TwitterStruct)10_storage)dyn_storage)"
					}
				],
				"types": {
					"t_address": {
						"encoding": "inplace",
						"label": "address",
						"numberOfBytes": "20"
					},
					"t_array(t_struct(TwitterStruct)10_storage)dyn_storage": {
						"base": "t_struct(TwitterStruct)10_storage",
						"encoding": "dynamic_array",
						"label": "struct Twitter.TwitterStruct[]",
						"numberOfBytes": "32"
					},
					"t_mapping(t_address,t_array(t_struct(TwitterStruct)10_storage)dyn_storage)": {
						"encoding": "mapping",
						"key": "t_address",
						"label": "mapping(address => struct Twitter.TwitterStruct[])",
						"numberOfBytes": "32",
						"value": "t_array(t_struct(TwitterStruct)10_storage)dyn_storage"
					},
					"t_string_storage": {
						"encoding": "bytes",
						"label": "string",
						"numberOfBytes": "32"
					},
					"t_struct(TwitterStruct)10_storage": {
						"encoding": "inplace",
						"label": "struct Twitter.TwitterStruct",
						"members": [
							{
								"astId": 3,
								"contract": "contracts/Twitter3.sol:Twitter",
								"label": "author",
								"offset": 0,
								"slot": "0",
								"type": "t_address"
							},
							{
								"astId": 5,
								"contract": "contracts/Twitter3.sol:Twitter",
								"label": "content",
								"offset": 0,
								"slot": "1",
								"type": "t_string_storage"
							},
							{
								"astId": 7,
								"contract": "contracts/Twitter3.sol:Twitter",
								"label": "timestamp",
								"offset": 0,
								"slot": "2",
								"type": "t_uint256"
							},
							{
								"astId": 9,
								"contract": "contracts/Twitter3.sol:Twitter",
								"label": "likes",
								"offset": 0,
								"slot": "3",
								"type": "t_uint256"
							}
						],
						"numberOfBytes": "128"
					},
					"t_uint256": {
						"encoding": "inplace",
						"label": "uint256",
						"numberOfBytes": "32"
					}
				}
			},
			"userdoc": {
				"kind": "user",
				"methods": {},
				"version": 1
			}
		}
	}
}