{
	"contracts/Interaction-Between-Contracts-User.sol": {
		"User": {
			"abi": [
				{
					"inputs": [
						{
							"internalType": "address",
							"name": "_playerAddress",
							"type": "address"
						},
						{
							"internalType": "string",
							"name": "_playerName",
							"type": "string"
						}
					],
					"name": "createPlayer",
					"outputs": [],
					"stateMutability": "nonpayable",
					"type": "function"
				},
				{
					"inputs": [
						{
							"internalType": "address",
							"name": "",
							"type": "address"
						}
					],
					"name": "players",
					"outputs": [
						{
							"internalType": "address",
							"name": "playerAddress",
							"type": "address"
						},
						{
							"internalType": "string",
							"name": "playerName",
							"type": "string"
						},
						{
							"internalType": "uint256",
							"name": "score",
							"type": "uint256"
						}
					],
					"stateMutability": "view",
					"type": "function"
				}
			],
			"devdoc": {
				"kind": "dev",
				"methods": {},
				"version": 1
			},
			"evm": {
				"assembly": "    /* \"contracts/Interaction-Between-Contracts-User.sol\":61:580  contract User{... */\n  mstore(0x40, 0x80)\n  callvalue\n  dup1\n  iszero\n  tag_1\n  jumpi\n  0x00\n  dup1\n  revert\ntag_1:\n  pop\n  dataSize(sub_0)\n  dup1\n  dataOffset(sub_0)\n  0x00\n  codecopy\n  0x00\n  return\nstop\n\nsub_0: assembly {\n        /* \"contracts/Interaction-Between-Contracts-User.sol\":61:580  contract User{... */\n      mstore(0x40, 0x80)\n      callvalue\n      dup1\n      iszero\n      tag_1\n      jumpi\n      0x00\n      dup1\n      revert\n    tag_1:\n      pop\n      jumpi(tag_2, lt(calldatasize, 0x04))\n      shr(0xe0, calldataload(0x00))\n      dup1\n      0xb64fe1c6\n      eq\n      tag_3\n      jumpi\n      dup1\n      0xe2eb41ff\n      eq\n      tag_4\n      jumpi\n    tag_2:\n      0x00\n      dup1\n      revert\n        /* \"contracts/Interaction-Between-Contracts-User.sol\":242:577  function createPlayer(address _playerAddress, string memory _playerName) external {... */\n    tag_3:\n      tag_5\n      0x04\n      dup1\n      calldatasize\n      sub\n      dup2\n      add\n      swap1\n      tag_6\n      swap2\n      swap1\n      tag_7\n      jump\t// in\n    tag_6:\n      tag_8\n      jump\t// in\n    tag_5:\n      stop\n        /* \"contracts/Interaction-Between-Contracts-User.sol\":192:233  mapping(address => Player) public players */\n    tag_4:\n      tag_9\n      0x04\n      dup1\n      calldatasize\n      sub\n      dup2\n      add\n      swap1\n      tag_10\n      swap2\n      swap1\n      tag_11\n      jump\t// in\n    tag_10:\n      tag_12\n      jump\t// in\n    tag_9:\n      mload(0x40)\n      tag_13\n      swap4\n      swap3\n      swap2\n      swap1\n      tag_14\n      jump\t// in\n    tag_13:\n      mload(0x40)\n      dup1\n      swap2\n      sub\n      swap1\n      return\n        /* \"contracts/Interaction-Between-Contracts-User.sol\":242:577  function createPlayer(address _playerAddress, string memory _playerName) external {... */\n    tag_8:\n        /* \"contracts/Interaction-Between-Contracts-User.sol\":392:393  0 */\n      0x00\n        /* \"contracts/Interaction-Between-Contracts-User.sol\":343:394  players[_playerAddress].playerAddress == address(0) */\n      0xffffffffffffffffffffffffffffffffffffffff\n      and\n        /* \"contracts/Interaction-Between-Contracts-User.sol\":343:350  players */\n      0x00\n        /* \"contracts/Interaction-Between-Contracts-User.sol\":343:366  players[_playerAddress] */\n      dup1\n        /* \"contracts/Interaction-Between-Contracts-User.sol\":351:365  _playerAddress */\n      dup5\n        /* \"contracts/Interaction-Between-Contracts-User.sol\":343:366  players[_playerAddress] */\n      0xffffffffffffffffffffffffffffffffffffffff\n      and\n      0xffffffffffffffffffffffffffffffffffffffff\n      and\n      dup2\n      mstore\n      0x20\n      add\n      swap1\n      dup2\n      mstore\n      0x20\n      add\n      0x00\n      keccak256\n        /* \"contracts/Interaction-Between-Contracts-User.sol\":343:380  players[_playerAddress].playerAddress */\n      0x00\n      add\n      0x00\n      swap1\n      sload\n      swap1\n      0x0100\n      exp\n      swap1\n      div\n      0xffffffffffffffffffffffffffffffffffffffff\n      and\n        /* \"contracts/Interaction-Between-Contracts-User.sol\":343:394  players[_playerAddress].playerAddress == address(0) */\n      0xffffffffffffffffffffffffffffffffffffffff\n      and\n      eq\n        /* \"contracts/Interaction-Between-Contracts-User.sol\":335:416  require(players[_playerAddress].playerAddress == address(0),\"User already exist\") */\n      tag_16\n      jumpi\n      mload(0x40)\n      0x08c379a000000000000000000000000000000000000000000000000000000000\n      dup2\n      mstore\n      0x04\n      add\n      tag_17\n      swap1\n      tag_18\n      jump\t// in\n    tag_17:\n      mload(0x40)\n      dup1\n      swap2\n      sub\n      swap1\n      revert\n    tag_16:\n        /* \"contracts/Interaction-Between-Contracts-User.sol\":427:451  Player storage newPlayer */\n      0x00\n        /* \"contracts/Interaction-Between-Contracts-User.sol\":454:461  players */\n      dup1\n        /* \"contracts/Interaction-Between-Contracts-User.sol\":454:477  players[_playerAddress] */\n      0x00\n        /* \"contracts/Interaction-Between-Contracts-User.sol\":462:476  _playerAddress */\n      dup5\n        /* \"contracts/Interaction-Between-Contracts-User.sol\":454:477  players[_playerAddress] */\n      0xffffffffffffffffffffffffffffffffffffffff\n      and\n      0xffffffffffffffffffffffffffffffffffffffff\n      and\n      dup2\n      mstore\n      0x20\n      add\n      swap1\n      dup2\n      mstore\n      0x20\n      add\n      0x00\n      keccak256\n        /* \"contracts/Interaction-Between-Contracts-User.sol\":427:477  Player storage newPlayer = players[_playerAddress] */\n      swap1\n      pop\n        /* \"contracts/Interaction-Between-Contracts-User.sol\":512:526  _playerAddress */\n      dup3\n        /* \"contracts/Interaction-Between-Contracts-User.sol\":488:497  newPlayer */\n      dup2\n        /* \"contracts/Interaction-Between-Contracts-User.sol\":488:511  newPlayer.playerAddress */\n      0x00\n      add\n      0x00\n        /* \"contracts/Interaction-Between-Contracts-User.sol\":488:526  newPlayer.playerAddress=_playerAddress */\n      0x0100\n      exp\n      dup2\n      sload\n      dup2\n      0xffffffffffffffffffffffffffffffffffffffff\n      mul\n      not\n      and\n      swap1\n      dup4\n      0xffffffffffffffffffffffffffffffffffffffff\n      and\n      mul\n      or\n      swap1\n      sstore\n      pop\n        /* \"contracts/Interaction-Between-Contracts-User.sol\":558:569  _playerName */\n      dup2\n        /* \"contracts/Interaction-Between-Contracts-User.sol\":537:546  newPlayer */\n      dup2\n        /* \"contracts/Interaction-Between-Contracts-User.sol\":537:557  newPlayer.playerName */\n      0x01\n      add\n        /* \"contracts/Interaction-Between-Contracts-User.sol\":537:569  newPlayer.playerName=_playerName */\n      swap1\n      dup2\n      tag_19\n      swap2\n      swap1\n      tag_20\n      jump\t// in\n    tag_19:\n      pop\n        /* \"contracts/Interaction-Between-Contracts-User.sol\":324:577  {... */\n      pop\n        /* \"contracts/Interaction-Between-Contracts-User.sol\":242:577  function createPlayer(address _playerAddress, string memory _playerName) external {... */\n      pop\n      pop\n      jump\t// out\n        /* \"contracts/Interaction-Between-Contracts-User.sol\":192:233  mapping(address => Player) public players */\n    tag_12:\n      mstore(0x20, 0x00)\n      dup1\n      0x00\n      mstore\n      keccak256(0x00, 0x40)\n      0x00\n      swap2\n      pop\n      swap1\n      pop\n      dup1\n      0x00\n      add\n      0x00\n      swap1\n      sload\n      swap1\n      0x0100\n      exp\n      swap1\n      div\n      0xffffffffffffffffffffffffffffffffffffffff\n      and\n      swap1\n      dup1\n      0x01\n      add\n      dup1\n      sload\n      tag_21\n      swap1\n      tag_22\n      jump\t// in\n    tag_21:\n      dup1\n      0x1f\n      add\n      0x20\n      dup1\n      swap2\n      div\n      mul\n      0x20\n      add\n      mload(0x40)\n      swap1\n      dup2\n      add\n      0x40\n      mstore\n      dup1\n      swap3\n      swap2\n      swap1\n      dup2\n      dup2\n      mstore\n      0x20\n      add\n      dup3\n      dup1\n      sload\n      tag_23\n      swap1\n      tag_22\n      jump\t// in\n    tag_23:\n      dup1\n      iszero\n      tag_24\n      jumpi\n      dup1\n      0x1f\n      lt\n      tag_25\n      jumpi\n      0x0100\n      dup1\n      dup4\n      sload\n      div\n      mul\n      dup4\n      mstore\n      swap2\n      0x20\n      add\n      swap2\n      jump(tag_24)\n    tag_25:\n      dup3\n      add\n      swap2\n      swap1\n      0x00\n      mstore\n      keccak256(0x00, 0x20)\n      swap1\n    tag_26:\n      dup2\n      sload\n      dup2\n      mstore\n      swap1\n      0x01\n      add\n      swap1\n      0x20\n      add\n      dup1\n      dup4\n      gt\n      tag_26\n      jumpi\n      dup3\n      swap1\n      sub\n      0x1f\n      and\n      dup3\n      add\n      swap2\n    tag_24:\n      pop\n      pop\n      pop\n      pop\n      pop\n      swap1\n      dup1\n      0x02\n      add\n      sload\n      swap1\n      pop\n      dup4\n      jump\t// out\n        /* \"#utility.yul\":7:82   */\n    tag_27:\n        /* \"#utility.yul\":40:46   */\n      0x00\n        /* \"#utility.yul\":73:75   */\n      0x40\n        /* \"#utility.yul\":67:76   */\n      mload\n        /* \"#utility.yul\":57:76   */\n      swap1\n      pop\n        /* \"#utility.yul\":7:82   */\n      swap1\n      jump\t// out\n        /* \"#utility.yul\":88:205   */\n    tag_28:\n        /* \"#utility.yul\":197:198   */\n      0x00\n        /* \"#utility.yul\":194:195   */\n      dup1\n        /* \"#utility.yul\":187:199   */\n      revert\n        /* \"#utility.yul\":211:328   */\n    tag_29:\n        /* \"#utility.yul\":320:321   */\n      0x00\n        /* \"#utility.yul\":317:318   */\n      dup1\n        /* \"#utility.yul\":310:322   */\n      revert\n        /* \"#utility.yul\":334:460   */\n    tag_30:\n        /* \"#utility.yul\":371:378   */\n      0x00\n        /* \"#utility.yul\":411:453   */\n      0xffffffffffffffffffffffffffffffffffffffff\n        /* \"#utility.yul\":404:409   */\n      dup3\n        /* \"#utility.yul\":400:454   */\n      and\n        /* \"#utility.yul\":389:454   */\n      swap1\n      pop\n        /* \"#utility.yul\":334:460   */\n      swap2\n      swap1\n      pop\n      jump\t// out\n        /* \"#utility.yul\":466:562   */\n    tag_31:\n        /* \"#utility.yul\":503:510   */\n      0x00\n        /* \"#utility.yul\":532:556   */\n      tag_75\n        /* \"#utility.yul\":550:555   */\n      dup3\n        /* \"#utility.yul\":532:556   */\n      tag_30\n      jump\t// in\n    tag_75:\n        /* \"#utility.yul\":521:556   */\n      swap1\n      pop\n        /* \"#utility.yul\":466:562   */\n      swap2\n      swap1\n      pop\n      jump\t// out\n        /* \"#utility.yul\":568:690   */\n    tag_32:\n        /* \"#utility.yul\":641:665   */\n      tag_77\n        /* \"#utility.yul\":659:664   */\n      dup2\n        /* \"#utility.yul\":641:665   */\n      tag_31\n      jump\t// in\n    tag_77:\n        /* \"#utility.yul\":634:639   */\n      dup2\n        /* \"#utility.yul\":631:666   */\n      eq\n        /* \"#utility.yul\":621:684   */\n      tag_78\n      jumpi\n        /* \"#utility.yul\":680:681   */\n      0x00\n        /* \"#utility.yul\":677:678   */\n      dup1\n        /* \"#utility.yul\":670:682   */\n      revert\n        /* \"#utility.yul\":621:684   */\n    tag_78:\n        /* \"#utility.yul\":568:690   */\n      pop\n      jump\t// out\n        /* \"#utility.yul\":696:835   */\n    tag_33:\n        /* \"#utility.yul\":742:747   */\n      0x00\n        /* \"#utility.yul\":780:786   */\n      dup2\n        /* \"#utility.yul\":767:787   */\n      calldataload\n        /* \"#utility.yul\":758:787   */\n      swap1\n      pop\n        /* \"#utility.yul\":796:829   */\n      tag_80\n        /* \"#utility.yul\":823:828   */\n      dup2\n        /* \"#utility.yul\":796:829   */\n      tag_32\n      jump\t// in\n    tag_80:\n        /* \"#utility.yul\":696:835   */\n      swap3\n      swap2\n      pop\n      pop\n      jump\t// out\n        /* \"#utility.yul\":841:958   */\n    tag_34:\n        /* \"#utility.yul\":950:951   */\n      0x00\n        /* \"#utility.yul\":947:948   */\n      dup1\n        /* \"#utility.yul\":940:952   */\n      revert\n        /* \"#utility.yul\":964:1081   */\n    tag_35:\n        /* \"#utility.yul\":1073:1074   */\n      0x00\n        /* \"#utility.yul\":1070:1071   */\n      dup1\n        /* \"#utility.yul\":1063:1075   */\n      revert\n        /* \"#utility.yul\":1087:1189   */\n    tag_36:\n        /* \"#utility.yul\":1128:1134   */\n      0x00\n        /* \"#utility.yul\":1179:1181   */\n      0x1f\n        /* \"#utility.yul\":1175:1182   */\n      not\n        /* \"#utility.yul\":1170:1172   */\n      0x1f\n        /* \"#utility.yul\":1163:1168   */\n      dup4\n        /* \"#utility.yul\":1159:1173   */\n      add\n        /* \"#utility.yul\":1155:1183   */\n      and\n        /* \"#utility.yul\":1145:1183   */\n      swap1\n      pop\n        /* \"#utility.yul\":1087:1189   */\n      swap2\n      swap1\n      pop\n      jump\t// out\n        /* \"#utility.yul\":1195:1375   */\n    tag_37:\n        /* \"#utility.yul\":1243:1320   */\n      0x4e487b7100000000000000000000000000000000000000000000000000000000\n        /* \"#utility.yul\":1240:1241   */\n      0x00\n        /* \"#utility.yul\":1233:1321   */\n      mstore\n        /* \"#utility.yul\":1340:1344   */\n      0x41\n        /* \"#utility.yul\":1337:1338   */\n      0x04\n        /* \"#utility.yul\":1330:1345   */\n      mstore\n        /* \"#utility.yul\":1364:1368   */\n      0x24\n        /* \"#utility.yul\":1361:1362   */\n      0x00\n        /* \"#utility.yul\":1354:1369   */\n      revert\n        /* \"#utility.yul\":1381:1662   */\n    tag_38:\n        /* \"#utility.yul\":1464:1491   */\n      tag_86\n        /* \"#utility.yul\":1486:1490   */\n      dup3\n        /* \"#utility.yul\":1464:1491   */\n      tag_36\n      jump\t// in\n    tag_86:\n        /* \"#utility.yul\":1456:1462   */\n      dup2\n        /* \"#utility.yul\":1452:1492   */\n      add\n        /* \"#utility.yul\":1594:1600   */\n      dup2\n        /* \"#utility.yul\":1582:1592   */\n      dup2\n        /* \"#utility.yul\":1579:1601   */\n      lt\n        /* \"#utility.yul\":1558:1576   */\n      0xffffffffffffffff\n        /* \"#utility.yul\":1546:1556   */\n      dup3\n        /* \"#utility.yul\":1543:1577   */\n      gt\n        /* \"#utility.yul\":1540:1602   */\n      or\n        /* \"#utility.yul\":1537:1625   */\n      iszero\n      tag_87\n      jumpi\n        /* \"#utility.yul\":1605:1623   */\n      tag_88\n      tag_37\n      jump\t// in\n    tag_88:\n        /* \"#utility.yul\":1537:1625   */\n    tag_87:\n        /* \"#utility.yul\":1645:1655   */\n      dup1\n        /* \"#utility.yul\":1641:1643   */\n      0x40\n        /* \"#utility.yul\":1634:1656   */\n      mstore\n        /* \"#utility.yul\":1424:1662   */\n      pop\n        /* \"#utility.yul\":1381:1662   */\n      pop\n      pop\n      jump\t// out\n        /* \"#utility.yul\":1668:1797   */\n    tag_39:\n        /* \"#utility.yul\":1702:1708   */\n      0x00\n        /* \"#utility.yul\":1729:1749   */\n      tag_90\n      tag_27\n      jump\t// in\n    tag_90:\n        /* \"#utility.yul\":1719:1749   */\n      swap1\n      pop\n        /* \"#utility.yul\":1758:1791   */\n      tag_91\n        /* \"#utility.yul\":1786:1790   */\n      dup3\n        /* \"#utility.yul\":1778:1784   */\n      dup3\n        /* \"#utility.yul\":1758:1791   */\n      tag_38\n      jump\t// in\n    tag_91:\n        /* \"#utility.yul\":1668:1797   */\n      swap2\n      swap1\n      pop\n      jump\t// out\n        /* \"#utility.yul\":1803:2111   */\n    tag_40:\n        /* \"#utility.yul\":1865:1869   */\n      0x00\n        /* \"#utility.yul\":1955:1973   */\n      0xffffffffffffffff\n        /* \"#utility.yul\":1947:1953   */\n      dup3\n        /* \"#utility.yul\":1944:1974   */\n      gt\n        /* \"#utility.yul\":1941:1997   */\n      iszero\n      tag_93\n      jumpi\n        /* \"#utility.yul\":1977:1995   */\n      tag_94\n      tag_37\n      jump\t// in\n    tag_94:\n        /* \"#utility.yul\":1941:1997   */\n    tag_93:\n        /* \"#utility.yul\":2015:2044   */\n      tag_95\n        /* \"#utility.yul\":2037:2043   */\n      dup3\n        /* \"#utility.yul\":2015:2044   */\n      tag_36\n      jump\t// in\n    tag_95:\n        /* \"#utility.yul\":2007:2044   */\n      swap1\n      pop\n        /* \"#utility.yul\":2099:2103   */\n      0x20\n        /* \"#utility.yul\":2093:2097   */\n      dup2\n        /* \"#utility.yul\":2089:2104   */\n      add\n        /* \"#utility.yul\":2081:2104   */\n      swap1\n      pop\n        /* \"#utility.yul\":1803:2111   */\n      swap2\n      swap1\n      pop\n      jump\t// out\n        /* \"#utility.yul\":2117:2265   */\n    tag_41:\n        /* \"#utility.yul\":2215:2221   */\n      dup3\n        /* \"#utility.yul\":2210:2213   */\n      dup2\n        /* \"#utility.yul\":2205:2208   */\n      dup4\n        /* \"#utility.yul\":2192:2222   */\n      calldatacopy\n        /* \"#utility.yul\":2256:2257   */\n      0x00\n        /* \"#utility.yul\":2247:2253   */\n      dup4\n        /* \"#utility.yul\":2242:2245   */\n      dup4\n        /* \"#utility.yul\":2238:2254   */\n      add\n        /* \"#utility.yul\":2231:2258   */\n      mstore\n        /* \"#utility.yul\":2117:2265   */\n      pop\n      pop\n      pop\n      jump\t// out\n        /* \"#utility.yul\":2271:2696   */\n    tag_42:\n        /* \"#utility.yul\":2349:2354   */\n      0x00\n        /* \"#utility.yul\":2374:2440   */\n      tag_98\n        /* \"#utility.yul\":2390:2439   */\n      tag_99\n        /* \"#utility.yul\":2432:2438   */\n      dup5\n        /* \"#utility.yul\":2390:2439   */\n      tag_40\n      jump\t// in\n    tag_99:\n        /* \"#utility.yul\":2374:2440   */\n      tag_39\n      jump\t// in\n    tag_98:\n        /* \"#utility.yul\":2365:2440   */\n      swap1\n      pop\n        /* \"#utility.yul\":2463:2469   */\n      dup3\n        /* \"#utility.yul\":2456:2461   */\n      dup2\n        /* \"#utility.yul\":2449:2470   */\n      mstore\n        /* \"#utility.yul\":2501:2505   */\n      0x20\n        /* \"#utility.yul\":2494:2499   */\n      dup2\n        /* \"#utility.yul\":2490:2506   */\n      add\n        /* \"#utility.yul\":2539:2542   */\n      dup5\n        /* \"#utility.yul\":2530:2536   */\n      dup5\n        /* \"#utility.yul\":2525:2528   */\n      dup5\n        /* \"#utility.yul\":2521:2537   */\n      add\n        /* \"#utility.yul\":2518:2543   */\n      gt\n        /* \"#utility.yul\":2515:2627   */\n      iszero\n      tag_100\n      jumpi\n        /* \"#utility.yul\":2546:2625   */\n      tag_101\n      tag_35\n      jump\t// in\n    tag_101:\n        /* \"#utility.yul\":2515:2627   */\n    tag_100:\n        /* \"#utility.yul\":2636:2690   */\n      tag_102\n        /* \"#utility.yul\":2683:2689   */\n      dup5\n        /* \"#utility.yul\":2678:2681   */\n      dup3\n        /* \"#utility.yul\":2673:2676   */\n      dup6\n        /* \"#utility.yul\":2636:2690   */\n      tag_41\n      jump\t// in\n    tag_102:\n        /* \"#utility.yul\":2355:2696   */\n      pop\n        /* \"#utility.yul\":2271:2696   */\n      swap4\n      swap3\n      pop\n      pop\n      pop\n      jump\t// out\n        /* \"#utility.yul\":2716:3056   */\n    tag_43:\n        /* \"#utility.yul\":2772:2777   */\n      0x00\n        /* \"#utility.yul\":2821:2824   */\n      dup3\n        /* \"#utility.yul\":2814:2818   */\n      0x1f\n        /* \"#utility.yul\":2806:2812   */\n      dup4\n        /* \"#utility.yul\":2802:2819   */\n      add\n        /* \"#utility.yul\":2798:2825   */\n      slt\n        /* \"#utility.yul\":2788:2910   */\n      tag_104\n      jumpi\n        /* \"#utility.yul\":2829:2908   */\n      tag_105\n      tag_34\n      jump\t// in\n    tag_105:\n        /* \"#utility.yul\":2788:2910   */\n    tag_104:\n        /* \"#utility.yul\":2946:2952   */\n      dup2\n        /* \"#utility.yul\":2933:2953   */\n      calldataload\n        /* \"#utility.yul\":2971:3050   */\n      tag_106\n        /* \"#utility.yul\":3046:3049   */\n      dup5\n        /* \"#utility.yul\":3038:3044   */\n      dup3\n        /* \"#utility.yul\":3031:3035   */\n      0x20\n        /* \"#utility.yul\":3023:3029   */\n      dup7\n        /* \"#utility.yul\":3019:3036   */\n      add\n        /* \"#utility.yul\":2971:3050   */\n      tag_42\n      jump\t// in\n    tag_106:\n        /* \"#utility.yul\":2962:3050   */\n      swap2\n      pop\n        /* \"#utility.yul\":2778:3056   */\n      pop\n        /* \"#utility.yul\":2716:3056   */\n      swap3\n      swap2\n      pop\n      pop\n      jump\t// out\n        /* \"#utility.yul\":3062:3716   */\n    tag_7:\n        /* \"#utility.yul\":3140:3146   */\n      0x00\n        /* \"#utility.yul\":3148:3154   */\n      dup1\n        /* \"#utility.yul\":3197:3199   */\n      0x40\n        /* \"#utility.yul\":3185:3194   */\n      dup4\n        /* \"#utility.yul\":3176:3183   */\n      dup6\n        /* \"#utility.yul\":3172:3195   */\n      sub\n        /* \"#utility.yul\":3168:3200   */\n      slt\n        /* \"#utility.yul\":3165:3284   */\n      iszero\n      tag_108\n      jumpi\n        /* \"#utility.yul\":3203:3282   */\n      tag_109\n      tag_28\n      jump\t// in\n    tag_109:\n        /* \"#utility.yul\":3165:3284   */\n    tag_108:\n        /* \"#utility.yul\":3323:3324   */\n      0x00\n        /* \"#utility.yul\":3348:3401   */\n      tag_110\n        /* \"#utility.yul\":3393:3400   */\n      dup6\n        /* \"#utility.yul\":3384:3390   */\n      dup3\n        /* \"#utility.yul\":3373:3382   */\n      dup7\n        /* \"#utility.yul\":3369:3391   */\n      add\n        /* \"#utility.yul\":3348:3401   */\n      tag_33\n      jump\t// in\n    tag_110:\n        /* \"#utility.yul\":3338:3401   */\n      swap3\n      pop\n        /* \"#utility.yul\":3294:3411   */\n      pop\n        /* \"#utility.yul\":3478:3480   */\n      0x20\n        /* \"#utility.yul\":3467:3476   */\n      dup4\n        /* \"#utility.yul\":3463:3481   */\n      add\n        /* \"#utility.yul\":3450:3482   */\n      calldataload\n        /* \"#utility.yul\":3509:3527   */\n      0xffffffffffffffff\n        /* \"#utility.yul\":3501:3507   */\n      dup2\n        /* \"#utility.yul\":3498:3528   */\n      gt\n        /* \"#utility.yul\":3495:3612   */\n      iszero\n      tag_111\n      jumpi\n        /* \"#utility.yul\":3531:3610   */\n      tag_112\n      tag_29\n      jump\t// in\n    tag_112:\n        /* \"#utility.yul\":3495:3612   */\n    tag_111:\n        /* \"#utility.yul\":3636:3699   */\n      tag_113\n        /* \"#utility.yul\":3691:3698   */\n      dup6\n        /* \"#utility.yul\":3682:3688   */\n      dup3\n        /* \"#utility.yul\":3671:3680   */\n      dup7\n        /* \"#utility.yul\":3667:3689   */\n      add\n        /* \"#utility.yul\":3636:3699   */\n      tag_43\n      jump\t// in\n    tag_113:\n        /* \"#utility.yul\":3626:3699   */\n      swap2\n      pop\n        /* \"#utility.yul\":3421:3709   */\n      pop\n        /* \"#utility.yul\":3062:3716   */\n      swap3\n      pop\n      swap3\n      swap1\n      pop\n      jump\t// out\n        /* \"#utility.yul\":3722:4051   */\n    tag_11:\n        /* \"#utility.yul\":3781:3787   */\n      0x00\n        /* \"#utility.yul\":3830:3832   */\n      0x20\n        /* \"#utility.yul\":3818:3827   */\n      dup3\n        /* \"#utility.yul\":3809:3816   */\n      dup5\n        /* \"#utility.yul\":3805:3828   */\n      sub\n        /* \"#utility.yul\":3801:3833   */\n      slt\n        /* \"#utility.yul\":3798:3917   */\n      iszero\n      tag_115\n      jumpi\n        /* \"#utility.yul\":3836:3915   */\n      tag_116\n      tag_28\n      jump\t// in\n    tag_116:\n        /* \"#utility.yul\":3798:3917   */\n    tag_115:\n        /* \"#utility.yul\":3956:3957   */\n      0x00\n        /* \"#utility.yul\":3981:4034   */\n      tag_117\n        /* \"#utility.yul\":4026:4033   */\n      dup5\n        /* \"#utility.yul\":4017:4023   */\n      dup3\n        /* \"#utility.yul\":4006:4015   */\n      dup6\n        /* \"#utility.yul\":4002:4024   */\n      add\n        /* \"#utility.yul\":3981:4034   */\n      tag_33\n      jump\t// in\n    tag_117:\n        /* \"#utility.yul\":3971:4034   */\n      swap2\n      pop\n        /* \"#utility.yul\":3927:4044   */\n      pop\n        /* \"#utility.yul\":3722:4051   */\n      swap3\n      swap2\n      pop\n      pop\n      jump\t// out\n        /* \"#utility.yul\":4057:4175   */\n    tag_44:\n        /* \"#utility.yul\":4144:4168   */\n      tag_119\n        /* \"#utility.yul\":4162:4167   */\n      dup2\n        /* \"#utility.yul\":4144:4168   */\n      tag_31\n      jump\t// in\n    tag_119:\n        /* \"#utility.yul\":4139:4142   */\n      dup3\n        /* \"#utility.yul\":4132:4169   */\n      mstore\n        /* \"#utility.yul\":4057:4175   */\n      pop\n      pop\n      jump\t// out\n        /* \"#utility.yul\":4181:4280   */\n    tag_45:\n        /* \"#utility.yul\":4233:4239   */\n      0x00\n        /* \"#utility.yul\":4267:4272   */\n      dup2\n        /* \"#utility.yul\":4261:4273   */\n      mload\n        /* \"#utility.yul\":4251:4273   */\n      swap1\n      pop\n        /* \"#utility.yul\":4181:4280   */\n      swap2\n      swap1\n      pop\n      jump\t// out\n        /* \"#utility.yul\":4286:4455   */\n    tag_46:\n        /* \"#utility.yul\":4370:4381   */\n      0x00\n        /* \"#utility.yul\":4404:4410   */\n      dup3\n        /* \"#utility.yul\":4399:4402   */\n      dup3\n        /* \"#utility.yul\":4392:4411   */\n      mstore\n        /* \"#utility.yul\":4444:4448   */\n      0x20\n        /* \"#utility.yul\":4439:4442   */\n      dup3\n        /* \"#utility.yul\":4435:4449   */\n      add\n        /* \"#utility.yul\":4420:4449   */\n      swap1\n      pop\n        /* \"#utility.yul\":4286:4455   */\n      swap3\n      swap2\n      pop\n      pop\n      jump\t// out\n        /* \"#utility.yul\":4461:4600   */\n    tag_47:\n        /* \"#utility.yul\":4550:4556   */\n      dup3\n        /* \"#utility.yul\":4545:4548   */\n      dup2\n        /* \"#utility.yul\":4540:4543   */\n      dup4\n        /* \"#utility.yul\":4534:4557   */\n      mcopy\n        /* \"#utility.yul\":4591:4592   */\n      0x00\n        /* \"#utility.yul\":4582:4588   */\n      dup4\n        /* \"#utility.yul\":4577:4580   */\n      dup4\n        /* \"#utility.yul\":4573:4589   */\n      add\n        /* \"#utility.yul\":4566:4593   */\n      mstore\n        /* \"#utility.yul\":4461:4600   */\n      pop\n      pop\n      pop\n      jump\t// out\n        /* \"#utility.yul\":4606:4983   */\n    tag_48:\n        /* \"#utility.yul\":4694:4697   */\n      0x00\n        /* \"#utility.yul\":4722:4761   */\n      tag_124\n        /* \"#utility.yul\":4755:4760   */\n      dup3\n        /* \"#utility.yul\":4722:4761   */\n      tag_45\n      jump\t// in\n    tag_124:\n        /* \"#utility.yul\":4777:4848   */\n      tag_125\n        /* \"#utility.yul\":4841:4847   */\n      dup2\n        /* \"#utility.yul\":4836:4839   */\n      dup6\n        /* \"#utility.yul\":4777:4848   */\n      tag_46\n      jump\t// in\n    tag_125:\n        /* \"#utility.yul\":4770:4848   */\n      swap4\n      pop\n        /* \"#utility.yul\":4857:4922   */\n      tag_126\n        /* \"#utility.yul\":4915:4921   */\n      dup2\n        /* \"#utility.yul\":4910:4913   */\n      dup6\n        /* \"#utility.yul\":4903:4907   */\n      0x20\n        /* \"#utility.yul\":4896:4901   */\n      dup7\n        /* \"#utility.yul\":4892:4908   */\n      add\n        /* \"#utility.yul\":4857:4922   */\n      tag_47\n      jump\t// in\n    tag_126:\n        /* \"#utility.yul\":4947:4976   */\n      tag_127\n        /* \"#utility.yul\":4969:4975   */\n      dup2\n        /* \"#utility.yul\":4947:4976   */\n      tag_36\n      jump\t// in\n    tag_127:\n        /* \"#utility.yul\":4942:4945   */\n      dup5\n        /* \"#utility.yul\":4938:4977   */\n      add\n        /* \"#utility.yul\":4931:4977   */\n      swap2\n      pop\n        /* \"#utility.yul\":4698:4983   */\n      pop\n        /* \"#utility.yul\":4606:4983   */\n      swap3\n      swap2\n      pop\n      pop\n      jump\t// out\n        /* \"#utility.yul\":4989:5066   */\n    tag_49:\n        /* \"#utility.yul\":5026:5033   */\n      0x00\n        /* \"#utility.yul\":5055:5060   */\n      dup2\n        /* \"#utility.yul\":5044:5060   */\n      swap1\n      pop\n        /* \"#utility.yul\":4989:5066   */\n      swap2\n      swap1\n      pop\n      jump\t// out\n        /* \"#utility.yul\":5072:5190   */\n    tag_50:\n        /* \"#utility.yul\":5159:5183   */\n      tag_130\n        /* \"#utility.yul\":5177:5182   */\n      dup2\n        /* \"#utility.yul\":5159:5183   */\n      tag_49\n      jump\t// in\n    tag_130:\n        /* \"#utility.yul\":5154:5157   */\n      dup3\n        /* \"#utility.yul\":5147:5184   */\n      mstore\n        /* \"#utility.yul\":5072:5190   */\n      pop\n      pop\n      jump\t// out\n        /* \"#utility.yul\":5196:5729   */\n    tag_14:\n        /* \"#utility.yul\":5365:5369   */\n      0x00\n        /* \"#utility.yul\":5403:5405   */\n      0x60\n        /* \"#utility.yul\":5392:5401   */\n      dup3\n        /* \"#utility.yul\":5388:5406   */\n      add\n        /* \"#utility.yul\":5380:5406   */\n      swap1\n      pop\n        /* \"#utility.yul\":5416:5487   */\n      tag_132\n        /* \"#utility.yul\":5484:5485   */\n      0x00\n        /* \"#utility.yul\":5473:5482   */\n      dup4\n        /* \"#utility.yul\":5469:5486   */\n      add\n        /* \"#utility.yul\":5460:5466   */\n      dup7\n        /* \"#utility.yul\":5416:5487   */\n      tag_44\n      jump\t// in\n    tag_132:\n        /* \"#utility.yul\":5534:5543   */\n      dup2\n        /* \"#utility.yul\":5528:5532   */\n      dup2\n        /* \"#utility.yul\":5524:5544   */\n      sub\n        /* \"#utility.yul\":5519:5521   */\n      0x20\n        /* \"#utility.yul\":5508:5517   */\n      dup4\n        /* \"#utility.yul\":5504:5522   */\n      add\n        /* \"#utility.yul\":5497:5545   */\n      mstore\n        /* \"#utility.yul\":5562:5640   */\n      tag_133\n        /* \"#utility.yul\":5635:5639   */\n      dup2\n        /* \"#utility.yul\":5626:5632   */\n      dup6\n        /* \"#utility.yul\":5562:5640   */\n      tag_48\n      jump\t// in\n    tag_133:\n        /* \"#utility.yul\":5554:5640   */\n      swap1\n      pop\n        /* \"#utility.yul\":5650:5722   */\n      tag_134\n        /* \"#utility.yul\":5718:5720   */\n      0x40\n        /* \"#utility.yul\":5707:5716   */\n      dup4\n        /* \"#utility.yul\":5703:5721   */\n      add\n        /* \"#utility.yul\":5694:5700   */\n      dup5\n        /* \"#utility.yul\":5650:5722   */\n      tag_50\n      jump\t// in\n    tag_134:\n        /* \"#utility.yul\":5196:5729   */\n      swap5\n      swap4\n      pop\n      pop\n      pop\n      pop\n      jump\t// out\n        /* \"#utility.yul\":5735:5903   */\n    tag_51:\n        /* \"#utility.yul\":5875:5895   */\n      0x5573657220616c72656164792065786973740000000000000000000000000000\n        /* \"#utility.yul\":5871:5872   */\n      0x00\n        /* \"#utility.yul\":5863:5869   */\n      dup3\n        /* \"#utility.yul\":5859:5873   */\n      add\n        /* \"#utility.yul\":5852:5896   */\n      mstore\n        /* \"#utility.yul\":5735:5903   */\n      pop\n      jump\t// out\n        /* \"#utility.yul\":5909:6275   */\n    tag_52:\n        /* \"#utility.yul\":6051:6054   */\n      0x00\n        /* \"#utility.yul\":6072:6139   */\n      tag_137\n        /* \"#utility.yul\":6136:6138   */\n      0x12\n        /* \"#utility.yul\":6131:6134   */\n      dup4\n        /* \"#utility.yul\":6072:6139   */\n      tag_46\n      jump\t// in\n    tag_137:\n        /* \"#utility.yul\":6065:6139   */\n      swap2\n      pop\n        /* \"#utility.yul\":6148:6241   */\n      tag_138\n        /* \"#utility.yul\":6237:6240   */\n      dup3\n        /* \"#utility.yul\":6148:6241   */\n      tag_51\n      jump\t// in\n    tag_138:\n        /* \"#utility.yul\":6266:6268   */\n      0x20\n        /* \"#utility.yul\":6261:6264   */\n      dup3\n        /* \"#utility.yul\":6257:6269   */\n      add\n        /* \"#utility.yul\":6250:6269   */\n      swap1\n      pop\n        /* \"#utility.yul\":5909:6275   */\n      swap2\n      swap1\n      pop\n      jump\t// out\n        /* \"#utility.yul\":6281:6700   */\n    tag_18:\n        /* \"#utility.yul\":6447:6451   */\n      0x00\n        /* \"#utility.yul\":6485:6487   */\n      0x20\n        /* \"#utility.yul\":6474:6483   */\n      dup3\n        /* \"#utility.yul\":6470:6488   */\n      add\n        /* \"#utility.yul\":6462:6488   */\n      swap1\n      pop\n        /* \"#utility.yul\":6534:6543   */\n      dup2\n        /* \"#utility.yul\":6528:6532   */\n      dup2\n        /* \"#utility.yul\":6524:6544   */\n      sub\n        /* \"#utility.yul\":6520:6521   */\n      0x00\n        /* \"#utility.yul\":6509:6518   */\n      dup4\n        /* \"#utility.yul\":6505:6522   */\n      add\n        /* \"#utility.yul\":6498:6545   */\n      mstore\n        /* \"#utility.yul\":6562:6693   */\n      tag_140\n        /* \"#utility.yul\":6688:6692   */\n      dup2\n        /* \"#utility.yul\":6562:6693   */\n      tag_52\n      jump\t// in\n    tag_140:\n        /* \"#utility.yul\":6554:6693   */\n      swap1\n      pop\n        /* \"#utility.yul\":6281:6700   */\n      swap2\n      swap1\n      pop\n      jump\t// out\n        /* \"#utility.yul\":6706:6886   */\n    tag_53:\n        /* \"#utility.yul\":6754:6831   */\n      0x4e487b7100000000000000000000000000000000000000000000000000000000\n        /* \"#utility.yul\":6751:6752   */\n      0x00\n        /* \"#utility.yul\":6744:6832   */\n      mstore\n        /* \"#utility.yul\":6851:6855   */\n      0x22\n        /* \"#utility.yul\":6848:6849   */\n      0x04\n        /* \"#utility.yul\":6841:6856   */\n      mstore\n        /* \"#utility.yul\":6875:6879   */\n      0x24\n        /* \"#utility.yul\":6872:6873   */\n      0x00\n        /* \"#utility.yul\":6865:6880   */\n      revert\n        /* \"#utility.yul\":6892:7212   */\n    tag_22:\n        /* \"#utility.yul\":6936:6942   */\n      0x00\n        /* \"#utility.yul\":6973:6974   */\n      0x02\n        /* \"#utility.yul\":6967:6971   */\n      dup3\n        /* \"#utility.yul\":6963:6975   */\n      div\n        /* \"#utility.yul\":6953:6975   */\n      swap1\n      pop\n        /* \"#utility.yul\":7020:7021   */\n      0x01\n        /* \"#utility.yul\":7014:7018   */\n      dup3\n        /* \"#utility.yul\":7010:7022   */\n      and\n        /* \"#utility.yul\":7041:7059   */\n      dup1\n        /* \"#utility.yul\":7031:7112   */\n      tag_143\n      jumpi\n        /* \"#utility.yul\":7097:7101   */\n      0x7f\n        /* \"#utility.yul\":7089:7095   */\n      dup3\n        /* \"#utility.yul\":7085:7102   */\n      and\n        /* \"#utility.yul\":7075:7102   */\n      swap2\n      pop\n        /* \"#utility.yul\":7031:7112   */\n    tag_143:\n        /* \"#utility.yul\":7159:7161   */\n      0x20\n        /* \"#utility.yul\":7151:7157   */\n      dup3\n        /* \"#utility.yul\":7148:7162   */\n      lt\n        /* \"#utility.yul\":7128:7146   */\n      dup2\n        /* \"#utility.yul\":7125:7163   */\n      sub\n        /* \"#utility.yul\":7122:7206   */\n      tag_144\n      jumpi\n        /* \"#utility.yul\":7178:7196   */\n      tag_145\n      tag_53\n      jump\t// in\n    tag_145:\n        /* \"#utility.yul\":7122:7206   */\n    tag_144:\n        /* \"#utility.yul\":6943:7212   */\n      pop\n        /* \"#utility.yul\":6892:7212   */\n      swap2\n      swap1\n      pop\n      jump\t// out\n        /* \"#utility.yul\":7218:7359   */\n    tag_54:\n        /* \"#utility.yul\":7267:7271   */\n      0x00\n        /* \"#utility.yul\":7290:7293   */\n      dup2\n        /* \"#utility.yul\":7282:7293   */\n      swap1\n      pop\n        /* \"#utility.yul\":7313:7316   */\n      dup2\n        /* \"#utility.yul\":7310:7311   */\n      0x00\n        /* \"#utility.yul\":7303:7317   */\n      mstore\n        /* \"#utility.yul\":7347:7351   */\n      0x20\n        /* \"#utility.yul\":7344:7345   */\n      0x00\n        /* \"#utility.yul\":7334:7352   */\n      keccak256\n        /* \"#utility.yul\":7326:7352   */\n      swap1\n      pop\n        /* \"#utility.yul\":7218:7359   */\n      swap2\n      swap1\n      pop\n      jump\t// out\n        /* \"#utility.yul\":7365:7458   */\n    tag_55:\n        /* \"#utility.yul\":7402:7408   */\n      0x00\n        /* \"#utility.yul\":7449:7451   */\n      0x20\n        /* \"#utility.yul\":7444:7446   */\n      0x1f\n        /* \"#utility.yul\":7437:7442   */\n      dup4\n        /* \"#utility.yul\":7433:7447   */\n      add\n        /* \"#utility.yul\":7429:7452   */\n      div\n        /* \"#utility.yul\":7419:7452   */\n      swap1\n      pop\n        /* \"#utility.yul\":7365:7458   */\n      swap2\n      swap1\n      pop\n      jump\t// out\n        /* \"#utility.yul\":7464:7571   */\n    tag_56:\n        /* \"#utility.yul\":7508:7516   */\n      0x00\n        /* \"#utility.yul\":7558:7563   */\n      dup3\n        /* \"#utility.yul\":7552:7556   */\n      dup3\n        /* \"#utility.yul\":7548:7564   */\n      shl\n        /* \"#utility.yul\":7527:7564   */\n      swap1\n      pop\n        /* \"#utility.yul\":7464:7571   */\n      swap3\n      swap2\n      pop\n      pop\n      jump\t// out\n        /* \"#utility.yul\":7577:7970   */\n    tag_57:\n        /* \"#utility.yul\":7646:7652   */\n      0x00\n        /* \"#utility.yul\":7696:7697   */\n      0x08\n        /* \"#utility.yul\":7684:7694   */\n      dup4\n        /* \"#utility.yul\":7680:7698   */\n      mul\n        /* \"#utility.yul\":7719:7816   */\n      tag_150\n        /* \"#utility.yul\":7749:7815   */\n      0xffffffffffffffffffffffffffffffffffffffffffffffffffffffffffffffff\n        /* \"#utility.yul\":7738:7747   */\n      dup3\n        /* \"#utility.yul\":7719:7816   */\n      tag_56\n      jump\t// in\n    tag_150:\n        /* \"#utility.yul\":7837:7876   */\n      tag_151\n        /* \"#utility.yul\":7867:7875   */\n      dup7\n        /* \"#utility.yul\":7856:7865   */\n      dup4\n        /* \"#utility.yul\":7837:7876   */\n      tag_56\n      jump\t// in\n    tag_151:\n        /* \"#utility.yul\":7825:7876   */\n      swap6\n      pop\n        /* \"#utility.yul\":7909:7913   */\n      dup1\n        /* \"#utility.yul\":7905:7914   */\n      not\n        /* \"#utility.yul\":7898:7903   */\n      dup5\n        /* \"#utility.yul\":7894:7915   */\n      and\n        /* \"#utility.yul\":7885:7915   */\n      swap4\n      pop\n        /* \"#utility.yul\":7958:7962   */\n      dup1\n        /* \"#utility.yul\":7948:7956   */\n      dup7\n        /* \"#utility.yul\":7944:7963   */\n      and\n        /* \"#utility.yul\":7937:7942   */\n      dup5\n        /* \"#utility.yul\":7934:7964   */\n      or\n        /* \"#utility.yul\":7924:7964   */\n      swap3\n      pop\n        /* \"#utility.yul\":7653:7970   */\n      pop\n      pop\n        /* \"#utility.yul\":7577:7970   */\n      swap4\n      swap3\n      pop\n      pop\n      pop\n      jump\t// out\n        /* \"#utility.yul\":7976:8036   */\n    tag_58:\n        /* \"#utility.yul\":8004:8007   */\n      0x00\n        /* \"#utility.yul\":8025:8030   */\n      dup2\n        /* \"#utility.yul\":8018:8030   */\n      swap1\n      pop\n        /* \"#utility.yul\":7976:8036   */\n      swap2\n      swap1\n      pop\n      jump\t// out\n        /* \"#utility.yul\":8042:8184   */\n    tag_59:\n        /* \"#utility.yul\":8092:8101   */\n      0x00\n        /* \"#utility.yul\":8125:8178   */\n      tag_154\n        /* \"#utility.yul\":8143:8177   */\n      tag_155\n        /* \"#utility.yul\":8152:8176   */\n      tag_156\n        /* \"#utility.yul\":8170:8175   */\n      dup5\n        /* \"#utility.yul\":8152:8176   */\n      tag_49\n      jump\t// in\n    tag_156:\n        /* \"#utility.yul\":8143:8177   */\n      tag_58\n      jump\t// in\n    tag_155:\n        /* \"#utility.yul\":8125:8178   */\n      tag_49\n      jump\t// in\n    tag_154:\n        /* \"#utility.yul\":8112:8178   */\n      swap1\n      pop\n        /* \"#utility.yul\":8042:8184   */\n      swap2\n      swap1\n      pop\n      jump\t// out\n        /* \"#utility.yul\":8190:8265   */\n    tag_60:\n        /* \"#utility.yul\":8233:8236   */\n      0x00\n        /* \"#utility.yul\":8254:8259   */\n      dup2\n        /* \"#utility.yul\":8247:8259   */\n      swap1\n      pop\n        /* \"#utility.yul\":8190:8265   */\n      swap2\n      swap1\n      pop\n      jump\t// out\n        /* \"#utility.yul\":8271:8540   */\n    tag_61:\n        /* \"#utility.yul\":8381:8420   */\n      tag_159\n        /* \"#utility.yul\":8412:8419   */\n      dup4\n        /* \"#utility.yul\":8381:8420   */\n      tag_59\n      jump\t// in\n    tag_159:\n        /* \"#utility.yul\":8442:8533   */\n      tag_160\n        /* \"#utility.yul\":8491:8532   */\n      tag_161\n        /* \"#utility.yul\":8515:8531   */\n      dup3\n        /* \"#utility.yul\":8491:8532   */\n      tag_60\n      jump\t// in\n    tag_161:\n        /* \"#utility.yul\":8483:8489   */\n      dup5\n        /* \"#utility.yul\":8476:8480   */\n      dup5\n        /* \"#utility.yul\":8470:8481   */\n      sload\n        /* \"#utility.yul\":8442:8533   */\n      tag_57\n      jump\t// in\n    tag_160:\n        /* \"#utility.yul\":8436:8440   */\n      dup3\n        /* \"#utility.yul\":8429:8534   */\n      sstore\n        /* \"#utility.yul\":8347:8540   */\n      pop\n        /* \"#utility.yul\":8271:8540   */\n      pop\n      pop\n      pop\n      jump\t// out\n        /* \"#utility.yul\":8546:8619   */\n    tag_62:\n        /* \"#utility.yul\":8591:8594   */\n      0x00\n        /* \"#utility.yul\":8546:8619   */\n      swap1\n      jump\t// out\n        /* \"#utility.yul\":8625:8814   */\n    tag_63:\n        /* \"#utility.yul\":8702:8734   */\n      tag_164\n      tag_62\n      jump\t// in\n    tag_164:\n        /* \"#utility.yul\":8743:8808   */\n      tag_165\n        /* \"#utility.yul\":8801:8807   */\n      dup2\n        /* \"#utility.yul\":8793:8799   */\n      dup5\n        /* \"#utility.yul\":8787:8791   */\n      dup5\n        /* \"#utility.yul\":8743:8808   */\n      tag_61\n      jump\t// in\n    tag_165:\n        /* \"#utility.yul\":8678:8814   */\n      pop\n        /* \"#utility.yul\":8625:8814   */\n      pop\n      pop\n      jump\t// out\n        /* \"#utility.yul\":8820:9006   */\n    tag_64:\n        /* \"#utility.yul\":8880:9000   */\n    tag_167:\n        /* \"#utility.yul\":8897:8900   */\n      dup2\n        /* \"#utility.yul\":8890:8895   */\n      dup2\n        /* \"#utility.yul\":8887:8901   */\n      lt\n        /* \"#utility.yul\":8880:9000   */\n      iszero\n      tag_169\n      jumpi\n        /* \"#utility.yul\":8951:8990   */\n      tag_170\n        /* \"#utility.yul\":8988:8989   */\n      0x00\n        /* \"#utility.yul\":8981:8986   */\n      dup3\n        /* \"#utility.yul\":8951:8990   */\n      tag_63\n      jump\t// in\n    tag_170:\n        /* \"#utility.yul\":8924:8925   */\n      0x01\n        /* \"#utility.yul\":8917:8922   */\n      dup2\n        /* \"#utility.yul\":8913:8926   */\n      add\n        /* \"#utility.yul\":8904:8926   */\n      swap1\n      pop\n        /* \"#utility.yul\":8880:9000   */\n      jump(tag_167)\n    tag_169:\n        /* \"#utility.yul\":8820:9006   */\n      pop\n      pop\n      jump\t// out\n        /* \"#utility.yul\":9012:9555   */\n    tag_65:\n        /* \"#utility.yul\":9113:9115   */\n      0x1f\n        /* \"#utility.yul\":9108:9111   */\n      dup3\n        /* \"#utility.yul\":9105:9116   */\n      gt\n        /* \"#utility.yul\":9102:9548   */\n      iszero\n      tag_172\n      jumpi\n        /* \"#utility.yul\":9147:9185   */\n      tag_173\n        /* \"#utility.yul\":9179:9184   */\n      dup2\n        /* \"#utility.yul\":9147:9185   */\n      tag_54\n      jump\t// in\n    tag_173:\n        /* \"#utility.yul\":9231:9260   */\n      tag_174\n        /* \"#utility.yul\":9249:9259   */\n      dup5\n        /* \"#utility.yul\":9231:9260   */\n      tag_55\n      jump\t// in\n    tag_174:\n        /* \"#utility.yul\":9221:9229   */\n      dup2\n        /* \"#utility.yul\":9217:9261   */\n      add\n        /* \"#utility.yul\":9414:9416   */\n      0x20\n        /* \"#utility.yul\":9402:9412   */\n      dup6\n        /* \"#utility.yul\":9399:9417   */\n      lt\n        /* \"#utility.yul\":9396:9445   */\n      iszero\n      tag_175\n      jumpi\n        /* \"#utility.yul\":9435:9443   */\n      dup2\n        /* \"#utility.yul\":9420:9443   */\n      swap1\n      pop\n        /* \"#utility.yul\":9396:9445   */\n    tag_175:\n        /* \"#utility.yul\":9458:9538   */\n      tag_176\n        /* \"#utility.yul\":9514:9536   */\n      tag_177\n        /* \"#utility.yul\":9532:9535   */\n      dup6\n        /* \"#utility.yul\":9514:9536   */\n      tag_55\n      jump\t// in\n    tag_177:\n        /* \"#utility.yul\":9504:9512   */\n      dup4\n        /* \"#utility.yul\":9500:9537   */\n      add\n        /* \"#utility.yul\":9487:9498   */\n      dup3\n        /* \"#utility.yul\":9458:9538   */\n      tag_64\n      jump\t// in\n    tag_176:\n        /* \"#utility.yul\":9117:9548   */\n      pop\n      pop\n        /* \"#utility.yul\":9102:9548   */\n    tag_172:\n        /* \"#utility.yul\":9012:9555   */\n      pop\n      pop\n      pop\n      jump\t// out\n        /* \"#utility.yul\":9561:9678   */\n    tag_66:\n        /* \"#utility.yul\":9615:9623   */\n      0x00\n        /* \"#utility.yul\":9665:9670   */\n      dup3\n        /* \"#utility.yul\":9659:9663   */\n      dup3\n        /* \"#utility.yul\":9655:9671   */\n      shr\n        /* \"#utility.yul\":9634:9671   */\n      swap1\n      pop\n        /* \"#utility.yul\":9561:9678   */\n      swap3\n      swap2\n      pop\n      pop\n      jump\t// out\n        /* \"#utility.yul\":9684:9853   */\n    tag_67:\n        /* \"#utility.yul\":9728:9734   */\n      0x00\n        /* \"#utility.yul\":9761:9812   */\n      tag_180\n        /* \"#utility.yul\":9809:9810   */\n      0x00\n        /* \"#utility.yul\":9805:9811   */\n      not\n        /* \"#utility.yul\":9797:9802   */\n      dup5\n        /* \"#utility.yul\":9794:9795   */\n      0x08\n        /* \"#utility.yul\":9790:9803   */\n      mul\n        /* \"#utility.yul\":9761:9812   */\n      tag_66\n      jump\t// in\n    tag_180:\n        /* \"#utility.yul\":9757:9813   */\n      not\n        /* \"#utility.yul\":9842:9846   */\n      dup1\n        /* \"#utility.yul\":9836:9840   */\n      dup4\n        /* \"#utility.yul\":9832:9847   */\n      and\n        /* \"#utility.yul\":9822:9847   */\n      swap2\n      pop\n        /* \"#utility.yul\":9735:9853   */\n      pop\n        /* \"#utility.yul\":9684:9853   */\n      swap3\n      swap2\n      pop\n      pop\n      jump\t// out\n        /* \"#utility.yul\":9858:10153   */\n    tag_68:\n        /* \"#utility.yul\":9934:9938   */\n      0x00\n        /* \"#utility.yul\":10080:10109   */\n      tag_182\n        /* \"#utility.yul\":10105:10108   */\n      dup4\n        /* \"#utility.yul\":10099:10103   */\n      dup4\n        /* \"#utility.yul\":10080:10109   */\n      tag_67\n      jump\t// in\n    tag_182:\n        /* \"#utility.yul\":10072:10109   */\n      swap2\n      pop\n        /* \"#utility.yul\":10142:10145   */\n      dup3\n        /* \"#utility.yul\":10139:10140   */\n      0x02\n        /* \"#utility.yul\":10135:10146   */\n      mul\n        /* \"#utility.yul\":10129:10133   */\n      dup3\n        /* \"#utility.yul\":10126:10147   */\n      or\n        /* \"#utility.yul\":10118:10147   */\n      swap1\n      pop\n        /* \"#utility.yul\":9858:10153   */\n      swap3\n      swap2\n      pop\n      pop\n      jump\t// out\n        /* \"#utility.yul\":10158:11553   */\n    tag_20:\n        /* \"#utility.yul\":10275:10312   */\n      tag_184\n        /* \"#utility.yul\":10308:10311   */\n      dup3\n        /* \"#utility.yul\":10275:10312   */\n      tag_45\n      jump\t// in\n    tag_184:\n        /* \"#utility.yul\":10377:10395   */\n      0xffffffffffffffff\n        /* \"#utility.yul\":10369:10375   */\n      dup2\n        /* \"#utility.yul\":10366:10396   */\n      gt\n        /* \"#utility.yul\":10363:10419   */\n      iszero\n      tag_185\n      jumpi\n        /* \"#utility.yul\":10399:10417   */\n      tag_186\n      tag_37\n      jump\t// in\n    tag_186:\n        /* \"#utility.yul\":10363:10419   */\n    tag_185:\n        /* \"#utility.yul\":10443:10481   */\n      tag_187\n        /* \"#utility.yul\":10475:10479   */\n      dup3\n        /* \"#utility.yul\":10469:10480   */\n      sload\n        /* \"#utility.yul\":10443:10481   */\n      tag_22\n      jump\t// in\n    tag_187:\n        /* \"#utility.yul\":10528:10595   */\n      tag_188\n        /* \"#utility.yul\":10588:10594   */\n      dup3\n        /* \"#utility.yul\":10580:10586   */\n      dup3\n        /* \"#utility.yul\":10574:10578   */\n      dup6\n        /* \"#utility.yul\":10528:10595   */\n      tag_65\n      jump\t// in\n    tag_188:\n        /* \"#utility.yul\":10622:10623   */\n      0x00\n        /* \"#utility.yul\":10646:10650   */\n      0x20\n        /* \"#utility.yul\":10633:10650   */\n      swap1\n      pop\n        /* \"#utility.yul\":10678:10680   */\n      0x1f\n        /* \"#utility.yul\":10670:10676   */\n      dup4\n        /* \"#utility.yul\":10667:10681   */\n      gt\n        /* \"#utility.yul\":10695:10696   */\n      0x01\n        /* \"#utility.yul\":10690:11308   */\n      dup2\n      eq\n      tag_190\n      jumpi\n        /* \"#utility.yul\":11352:11353   */\n      0x00\n        /* \"#utility.yul\":11369:11375   */\n      dup5\n        /* \"#utility.yul\":11366:11443   */\n      iszero\n      tag_191\n      jumpi\n        /* \"#utility.yul\":11418:11427   */\n      dup3\n        /* \"#utility.yul\":11413:11416   */\n      dup8\n        /* \"#utility.yul\":11409:11428   */\n      add\n        /* \"#utility.yul\":11403:11429   */\n      mload\n        /* \"#utility.yul\":11394:11429   */\n      swap1\n      pop\n        /* \"#utility.yul\":11366:11443   */\n    tag_191:\n        /* \"#utility.yul\":11469:11536   */\n      tag_192\n        /* \"#utility.yul\":11529:11535   */\n      dup6\n        /* \"#utility.yul\":11522:11527   */\n      dup3\n        /* \"#utility.yul\":11469:11536   */\n      tag_68\n      jump\t// in\n    tag_192:\n        /* \"#utility.yul\":11463:11467   */\n      dup7\n        /* \"#utility.yul\":11456:11537   */\n      sstore\n        /* \"#utility.yul\":11325:11547   */\n      pop\n        /* \"#utility.yul\":10660:11547   */\n      jump(tag_189)\n        /* \"#utility.yul\":10690:11308   */\n    tag_190:\n        /* \"#utility.yul\":10742:10746   */\n      0x1f\n        /* \"#utility.yul\":10738:10747   */\n      not\n        /* \"#utility.yul\":10730:10736   */\n      dup5\n        /* \"#utility.yul\":10726:10748   */\n      and\n        /* \"#utility.yul\":10776:10813   */\n      tag_193\n        /* \"#utility.yul\":10808:10812   */\n      dup7\n        /* \"#utility.yul\":10776:10813   */\n      tag_54\n      jump\t// in\n    tag_193:\n        /* \"#utility.yul\":10835:10836   */\n      0x00\n        /* \"#utility.yul\":10849:11057   */\n    tag_194:\n        /* \"#utility.yul\":10863:10870   */\n      dup3\n        /* \"#utility.yul\":10860:10861   */\n      dup2\n        /* \"#utility.yul\":10857:10871   */\n      lt\n        /* \"#utility.yul\":10849:11057   */\n      iszero\n      tag_196\n      jumpi\n        /* \"#utility.yul\":10942:10951   */\n      dup5\n        /* \"#utility.yul\":10937:10940   */\n      dup10\n        /* \"#utility.yul\":10933:10952   */\n      add\n        /* \"#utility.yul\":10927:10953   */\n      mload\n        /* \"#utility.yul\":10919:10925   */\n      dup3\n        /* \"#utility.yul\":10912:10954   */\n      sstore\n        /* \"#utility.yul\":10993:10994   */\n      0x01\n        /* \"#utility.yul\":10985:10991   */\n      dup3\n        /* \"#utility.yul\":10981:10995   */\n      add\n        /* \"#utility.yul\":10971:10995   */\n      swap2\n      pop\n        /* \"#utility.yul\":11040:11042   */\n      0x20\n        /* \"#utility.yul\":11029:11038   */\n      dup6\n        /* \"#utility.yul\":11025:11043   */\n      add\n        /* \"#utility.yul\":11012:11043   */\n      swap5\n      pop\n        /* \"#utility.yul\":10886:10890   */\n      0x20\n        /* \"#utility.yul\":10883:10884   */\n      dup2\n        /* \"#utility.yul\":10879:10891   */\n      add\n        /* \"#utility.yul\":10874:10891   */\n      swap1\n      pop\n        /* \"#utility.yul\":10849:11057   */\n      jump(tag_194)\n    tag_196:\n        /* \"#utility.yul\":11085:11091   */\n      dup7\n        /* \"#utility.yul\":11076:11083   */\n      dup4\n        /* \"#utility.yul\":11073:11092   */\n      lt\n        /* \"#utility.yul\":11070:11249   */\n      iszero\n      tag_197\n      jumpi\n        /* \"#utility.yul\":11143:11152   */\n      dup5\n        /* \"#utility.yul\":11138:11141   */\n      dup10\n        /* \"#utility.yul\":11134:11153   */\n      add\n        /* \"#utility.yul\":11128:11154   */\n      mload\n        /* \"#utility.yul\":11186:11234   */\n      tag_198\n        /* \"#utility.yul\":11228:11232   */\n      0x1f\n        /* \"#utility.yul\":11220:11226   */\n      dup10\n        /* \"#utility.yul\":11216:11233   */\n      and\n        /* \"#utility.yul\":11205:11214   */\n      dup3\n        /* \"#utility.yul\":11186:11234   */\n      tag_67\n      jump\t// in\n    tag_198:\n        /* \"#utility.yul\":11178:11184   */\n      dup4\n        /* \"#utility.yul\":11171:11235   */\n      sstore\n        /* \"#utility.yul\":11093:11249   */\n      pop\n        /* \"#utility.yul\":11070:11249   */\n    tag_197:\n        /* \"#utility.yul\":11295:11296   */\n      0x01\n        /* \"#utility.yul\":11291:11292   */\n      0x02\n        /* \"#utility.yul\":11283:11289   */\n      dup9\n        /* \"#utility.yul\":11279:11293   */\n      mul\n        /* \"#utility.yul\":11275:11297   */\n      add\n        /* \"#utility.yul\":11269:11273   */\n      dup9\n        /* \"#utility.yul\":11262:11298   */\n      sstore\n        /* \"#utility.yul\":10697:11308   */\n      pop\n      pop\n      pop\n        /* \"#utility.yul\":10660:11547   */\n    tag_189:\n      pop\n        /* \"#utility.yul\":10250:11553   */\n      pop\n      pop\n      pop\n        /* \"#utility.yul\":10158:11553   */\n      pop\n      pop\n      jump\t// out\n\n    auxdata: 0xa26469706673582212206756809aa81a5c16972fa5f6755f92b8f1f5f58a947eb1de71e523915e01c05264736f6c634300081a0033\n}\n",
				"bytecode": {
					"linkReferences": {},
					"object": "6080604052348015600e575f80fd5b506109088061001c5f395ff3fe608060405234801561000f575f80fd5b5060043610610034575f3560e01c8063b64fe1c614610038578063e2eb41ff14610054575b5f80fd5b610052600480360381019061004d9190610459565b610086565b005b61006e600480360381019061006991906104b3565b6101e8565b60405161007d93929190610565565b60405180910390f35b5f73ffffffffffffffffffffffffffffffffffffffff165f808473ffffffffffffffffffffffffffffffffffffffff1673ffffffffffffffffffffffffffffffffffffffff1681526020019081526020015f205f015f9054906101000a900473ffffffffffffffffffffffffffffffffffffffff1673ffffffffffffffffffffffffffffffffffffffff1614610151576040517f08c379a0000000000000000000000000000000000000000000000000000000008152600401610148906105eb565b60405180910390fd5b5f805f8473ffffffffffffffffffffffffffffffffffffffff1673ffffffffffffffffffffffffffffffffffffffff1681526020019081526020015f20905082815f015f6101000a81548173ffffffffffffffffffffffffffffffffffffffff021916908373ffffffffffffffffffffffffffffffffffffffff160217905550818160010190816101e29190610803565b50505050565b5f602052805f5260405f205f91509050805f015f9054906101000a900473ffffffffffffffffffffffffffffffffffffffff169080600101805461022b90610636565b80601f016020809104026020016040519081016040528092919081815260200182805461025790610636565b80156102a25780601f10610279576101008083540402835291602001916102a2565b820191905f5260205f20905b81548152906001019060200180831161028557829003601f168201915b5050505050908060020154905083565b5f604051905090565b5f80fd5b5f80fd5b5f73ffffffffffffffffffffffffffffffffffffffff82169050919050565b5f6102ec826102c3565b9050919050565b6102fc816102e2565b8114610306575f80fd5b50565b5f81359050610317816102f3565b92915050565b5f80fd5b5f80fd5b5f601f19601f8301169050919050565b7f4e487b71000000000000000000000000000000000000000000000000000000005f52604160045260245ffd5b61036b82610325565b810181811067ffffffffffffffff8211171561038a57610389610335565b5b80604052505050565b5f61039c6102b2565b90506103a88282610362565b919050565b5f67ffffffffffffffff8211156103c7576103c6610335565b5b6103d082610325565b9050602081019050919050565b828183375f83830152505050565b5f6103fd6103f8846103ad565b610393565b90508281526020810184848401111561041957610418610321565b5b6104248482856103dd565b509392505050565b5f82601f8301126104405761043f61031d565b5b81356104508482602086016103eb565b91505092915050565b5f806040838503121561046f5761046e6102bb565b5b5f61047c85828601610309565b925050602083013567ffffffffffffffff81111561049d5761049c6102bf565b5b6104a98582860161042c565b9150509250929050565b5f602082840312156104c8576104c76102bb565b5b5f6104d584828501610309565b91505092915050565b6104e7816102e2565b82525050565b5f81519050919050565b5f82825260208201905092915050565b8281835e5f83830152505050565b5f61051f826104ed565b61052981856104f7565b9350610539818560208601610507565b61054281610325565b840191505092915050565b5f819050919050565b61055f8161054d565b82525050565b5f6060820190506105785f8301866104de565b818103602083015261058a8185610515565b90506105996040830184610556565b949350505050565b7f5573657220616c726561647920657869737400000000000000000000000000005f82015250565b5f6105d56012836104f7565b91506105e0826105a1565b602082019050919050565b5f6020820190508181035f830152610602816105c9565b9050919050565b7f4e487b71000000000000000000000000000000000000000000000000000000005f52602260045260245ffd5b5f600282049050600182168061064d57607f821691505b6020821081036106605761065f610609565b5b50919050565b5f819050815f5260205f209050919050565b5f6020601f8301049050919050565b5f82821b905092915050565b5f600883026106c27fffffffffffffffffffffffffffffffffffffffffffffffffffffffffffffffff82610687565b6106cc8683610687565b95508019841693508086168417925050509392505050565b5f819050919050565b5f6107076107026106fd8461054d565b6106e4565b61054d565b9050919050565b5f819050919050565b610720836106ed565b61073461072c8261070e565b848454610693565b825550505050565b5f90565b61074861073c565b610753818484610717565b505050565b5b818110156107765761076b5f82610740565b600181019050610759565b5050565b601f8211156107bb5761078c81610666565b61079584610678565b810160208510156107a4578190505b6107b86107b085610678565b830182610758565b50505b505050565b5f82821c905092915050565b5f6107db5f19846008026107c0565b1980831691505092915050565b5f6107f383836107cc565b9150826002028217905092915050565b61080c826104ed565b67ffffffffffffffff81111561082557610824610335565b5b61082f8254610636565b61083a82828561077a565b5f60209050601f83116001811461086b575f8415610859578287015190505b61086385826107e8565b8655506108ca565b601f19841661087986610666565b5f5b828110156108a05784890151825560018201915060208501945060208101905061087b565b868310156108bd57848901516108b9601f8916826107cc565b8355505b6001600288020188555050505b50505050505056fea26469706673582212206756809aa81a5c16972fa5f6755f92b8f1f5f58a947eb1de71e523915e01c05264736f6c634300081a0033",
					"opcodes": "PUSH1 0x80 PUSH1 0x40 MSTORE CALLVALUE DUP1 ISZERO PUSH1 0xE JUMPI PUSH0 DUP1 REVERT JUMPDEST POP PUSH2 0x908 DUP1 PUSH2 0x1C PUSH0 CODECOPY PUSH0 RETURN INVALID PUSH1 0x80 PUSH1 0x40 MSTORE CALLVALUE DUP1 ISZERO PUSH2 0xF JUMPI PUSH0 DUP1 REVERT JUMPDEST POP PUSH1 0x4 CALLDATASIZE LT PUSH2 0x34 JUMPI PUSH0 CALLDATALOAD PUSH1 0xE0 SHR DUP1 PUSH4 0xB64FE1C6 EQ PUSH2 0x38 JUMPI DUP1 PUSH4 0xE2EB41FF EQ PUSH2 0x54 JUMPI JUMPDEST PUSH0 DUP1 REVERT JUMPDEST PUSH2 0x52 PUSH1 0x4 DUP1 CALLDATASIZE SUB DUP2 ADD SWAP1 PUSH2 0x4D SWAP2 SWAP1 PUSH2 0x459 JUMP JUMPDEST PUSH2 0x86 JUMP JUMPDEST STOP JUMPDEST PUSH2 0x6E PUSH1 0x4 DUP1 CALLDATASIZE SUB DUP2 ADD SWAP1 PUSH2 0x69 SWAP2 SWAP1 PUSH2 0x4B3 JUMP JUMPDEST PUSH2 0x1E8 JUMP JUMPDEST PUSH1 0x40 MLOAD PUSH2 0x7D SWAP4 SWAP3 SWAP2 SWAP1 PUSH2 0x565 JUMP JUMPDEST PUSH1 0x40 MLOAD DUP1 SWAP2 SUB SWAP1 RETURN JUMPDEST PUSH0 PUSH20 0xFFFFFFFFFFFFFFFFFFFFFFFFFFFFFFFFFFFFFFFF AND PUSH0 DUP1 DUP5 PUSH20 0xFFFFFFFFFFFFFFFFFFFFFFFFFFFFFFFFFFFFFFFF AND PUSH20 0xFFFFFFFFFFFFFFFFFFFFFFFFFFFFFFFFFFFFFFFF AND DUP2 MSTORE PUSH1 0x20 ADD SWAP1 DUP2 MSTORE PUSH1 0x20 ADD PUSH0 KECCAK256 PUSH0 ADD PUSH0 SWAP1 SLOAD SWAP1 PUSH2 0x100 EXP SWAP1 DIV PUSH20 0xFFFFFFFFFFFFFFFFFFFFFFFFFFFFFFFFFFFFFFFF AND PUSH20 0xFFFFFFFFFFFFFFFFFFFFFFFFFFFFFFFFFFFFFFFF AND EQ PUSH2 0x151 JUMPI PUSH1 0x40 MLOAD PUSH32 0x8C379A000000000000000000000000000000000000000000000000000000000 DUP2 MSTORE PUSH1 0x4 ADD PUSH2 0x148 SWAP1 PUSH2 0x5EB JUMP JUMPDEST PUSH1 0x40 MLOAD DUP1 SWAP2 SUB SWAP1 REVERT JUMPDEST PUSH0 DUP1 PUSH0 DUP5 PUSH20 0xFFFFFFFFFFFFFFFFFFFFFFFFFFFFFFFFFFFFFFFF AND PUSH20 0xFFFFFFFFFFFFFFFFFFFFFFFFFFFFFFFFFFFFFFFF AND DUP2 MSTORE PUSH1 0x20 ADD SWAP1 DUP2 MSTORE PUSH1 0x20 ADD PUSH0 KECCAK256 SWAP1 POP DUP3 DUP2 PUSH0 ADD PUSH0 PUSH2 0x100 EXP DUP2 SLOAD DUP2 PUSH20 0xFFFFFFFFFFFFFFFFFFFFFFFFFFFFFFFFFFFFFFFF MUL NOT AND SWAP1 DUP4 PUSH20 0xFFFFFFFFFFFFFFFFFFFFFFFFFFFFFFFFFFFFFFFF AND MUL OR SWAP1 SSTORE POP DUP2 DUP2 PUSH1 0x1 ADD SWAP1 DUP2 PUSH2 0x1E2 SWAP2 SWAP1 PUSH2 0x803 JUMP JUMPDEST POP POP POP POP JUMP JUMPDEST PUSH0 PUSH1 0x20 MSTORE DUP1 PUSH0 MSTORE PUSH1 0x40 PUSH0 KECCAK256 PUSH0 SWAP2 POP SWAP1 POP DUP1 PUSH0 ADD PUSH0 SWAP1 SLOAD SWAP1 PUSH2 0x100 EXP SWAP1 DIV PUSH20 0xFFFFFFFFFFFFFFFFFFFFFFFFFFFFFFFFFFFFFFFF AND SWAP1 DUP1 PUSH1 0x1 ADD DUP1 SLOAD PUSH2 0x22B SWAP1 PUSH2 0x636 JUMP JUMPDEST DUP1 PUSH1 0x1F ADD PUSH1 0x20 DUP1 SWAP2 DIV MUL PUSH1 0x20 ADD PUSH1 0x40 MLOAD SWAP1 DUP2 ADD PUSH1 0x40 MSTORE DUP1 SWAP3 SWAP2 SWAP1 DUP2 DUP2 MSTORE PUSH1 0x20 ADD DUP3 DUP1 SLOAD PUSH2 0x257 SWAP1 PUSH2 0x636 JUMP JUMPDEST DUP1 ISZERO PUSH2 0x2A2 JUMPI DUP1 PUSH1 0x1F LT PUSH2 0x279 JUMPI PUSH2 0x100 DUP1 DUP4 SLOAD DIV MUL DUP4 MSTORE SWAP2 PUSH1 0x20 ADD SWAP2 PUSH2 0x2A2 JUMP JUMPDEST DUP3 ADD SWAP2 SWAP1 PUSH0 MSTORE PUSH1 0x20 PUSH0 KECCAK256 SWAP1 JUMPDEST DUP2 SLOAD DUP2 MSTORE SWAP1 PUSH1 0x1 ADD SWAP1 PUSH1 0x20 ADD DUP1 DUP4 GT PUSH2 0x285 JUMPI DUP3 SWAP1 SUB PUSH1 0x1F AND DUP3 ADD SWAP2 JUMPDEST POP POP POP POP POP SWAP1 DUP1 PUSH1 0x2 ADD SLOAD SWAP1 POP DUP4 JUMP JUMPDEST PUSH0 PUSH1 0x40 MLOAD SWAP1 POP SWAP1 JUMP JUMPDEST PUSH0 DUP1 REVERT JUMPDEST PUSH0 DUP1 REVERT JUMPDEST PUSH0 PUSH20 0xFFFFFFFFFFFFFFFFFFFFFFFFFFFFFFFFFFFFFFFF DUP3 AND SWAP1 POP SWAP2 SWAP1 POP JUMP JUMPDEST PUSH0 PUSH2 0x2EC DUP3 PUSH2 0x2C3 JUMP JUMPDEST SWAP1 POP SWAP2 SWAP1 POP JUMP JUMPDEST PUSH2 0x2FC DUP2 PUSH2 0x2E2 JUMP JUMPDEST DUP2 EQ PUSH2 0x306 JUMPI PUSH0 DUP1 REVERT JUMPDEST POP JUMP JUMPDEST PUSH0 DUP2 CALLDATALOAD SWAP1 POP PUSH2 0x317 DUP2 PUSH2 0x2F3 JUMP JUMPDEST SWAP3 SWAP2 POP POP JUMP JUMPDEST PUSH0 DUP1 REVERT JUMPDEST PUSH0 DUP1 REVERT JUMPDEST PUSH0 PUSH1 0x1F NOT PUSH1 0x1F DUP4 ADD AND SWAP1 POP SWAP2 SWAP1 POP JUMP JUMPDEST PUSH32 0x4E487B7100000000000000000000000000000000000000000000000000000000 PUSH0 MSTORE PUSH1 0x41 PUSH1 0x4 MSTORE PUSH1 0x24 PUSH0 REVERT JUMPDEST PUSH2 0x36B DUP3 PUSH2 0x325 JUMP JUMPDEST DUP2 ADD DUP2 DUP2 LT PUSH8 0xFFFFFFFFFFFFFFFF DUP3 GT OR ISZERO PUSH2 0x38A JUMPI PUSH2 0x389 PUSH2 0x335 JUMP JUMPDEST JUMPDEST DUP1 PUSH1 0x40 MSTORE POP POP POP JUMP JUMPDEST PUSH0 PUSH2 0x39C PUSH2 0x2B2 JUMP JUMPDEST SWAP1 POP PUSH2 0x3A8 DUP3 DUP3 PUSH2 0x362 JUMP JUMPDEST SWAP2 SWAP1 POP JUMP JUMPDEST PUSH0 PUSH8 0xFFFFFFFFFFFFFFFF DUP3 GT ISZERO PUSH2 0x3C7 JUMPI PUSH2 0x3C6 PUSH2 0x335 JUMP JUMPDEST JUMPDEST PUSH2 0x3D0 DUP3 PUSH2 0x325 JUMP JUMPDEST SWAP1 POP PUSH1 0x20 DUP2 ADD SWAP1 POP SWAP2 SWAP1 POP JUMP JUMPDEST DUP3 DUP2 DUP4 CALLDATACOPY PUSH0 DUP4 DUP4 ADD MSTORE POP POP POP JUMP JUMPDEST PUSH0 PUSH2 0x3FD PUSH2 0x3F8 DUP5 PUSH2 0x3AD JUMP JUMPDEST PUSH2 0x393 JUMP JUMPDEST SWAP1 POP DUP3 DUP2 MSTORE PUSH1 0x20 DUP2 ADD DUP5 DUP5 DUP5 ADD GT ISZERO PUSH2 0x419 JUMPI PUSH2 0x418 PUSH2 0x321 JUMP JUMPDEST JUMPDEST PUSH2 0x424 DUP5 DUP3 DUP6 PUSH2 0x3DD JUMP JUMPDEST POP SWAP4 SWAP3 POP POP POP JUMP JUMPDEST PUSH0 DUP3 PUSH1 0x1F DUP4 ADD SLT PUSH2 0x440 JUMPI PUSH2 0x43F PUSH2 0x31D JUMP JUMPDEST JUMPDEST DUP2 CALLDATALOAD PUSH2 0x450 DUP5 DUP3 PUSH1 0x20 DUP7 ADD PUSH2 0x3EB JUMP JUMPDEST SWAP2 POP POP SWAP3 SWAP2 POP POP JUMP JUMPDEST PUSH0 DUP1 PUSH1 0x40 DUP4 DUP6 SUB SLT ISZERO PUSH2 0x46F JUMPI PUSH2 0x46E PUSH2 0x2BB JUMP JUMPDEST JUMPDEST PUSH0 PUSH2 0x47C DUP6 DUP3 DUP7 ADD PUSH2 0x309 JUMP JUMPDEST SWAP3 POP POP PUSH1 0x20 DUP4 ADD CALLDATALOAD PUSH8 0xFFFFFFFFFFFFFFFF DUP2 GT ISZERO PUSH2 0x49D JUMPI PUSH2 0x49C PUSH2 0x2BF JUMP JUMPDEST JUMPDEST PUSH2 0x4A9 DUP6 DUP3 DUP7 ADD PUSH2 0x42C JUMP JUMPDEST SWAP2 POP POP SWAP3 POP SWAP3 SWAP1 POP JUMP JUMPDEST PUSH0 PUSH1 0x20 DUP3 DUP5 SUB SLT ISZERO PUSH2 0x4C8 JUMPI PUSH2 0x4C7 PUSH2 0x2BB JUMP JUMPDEST JUMPDEST PUSH0 PUSH2 0x4D5 DUP5 DUP3 DUP6 ADD PUSH2 0x309 JUMP JUMPDEST SWAP2 POP POP SWAP3 SWAP2 POP POP JUMP JUMPDEST PUSH2 0x4E7 DUP2 PUSH2 0x2E2 JUMP JUMPDEST DUP3 MSTORE POP POP JUMP JUMPDEST PUSH0 DUP2 MLOAD SWAP1 POP SWAP2 SWAP1 POP JUMP JUMPDEST PUSH0 DUP3 DUP3 MSTORE PUSH1 0x20 DUP3 ADD SWAP1 POP SWAP3 SWAP2 POP POP JUMP JUMPDEST DUP3 DUP2 DUP4 MCOPY PUSH0 DUP4 DUP4 ADD MSTORE POP POP POP JUMP JUMPDEST PUSH0 PUSH2 0x51F DUP3 PUSH2 0x4ED JUMP JUMPDEST PUSH2 0x529 DUP2 DUP6 PUSH2 0x4F7 JUMP JUMPDEST SWAP4 POP PUSH2 0x539 DUP2 DUP6 PUSH1 0x20 DUP7 ADD PUSH2 0x507 JUMP JUMPDEST PUSH2 0x542 DUP2 PUSH2 0x325 JUMP JUMPDEST DUP5 ADD SWAP2 POP POP SWAP3 SWAP2 POP POP JUMP JUMPDEST PUSH0 DUP2 SWAP1 POP SWAP2 SWAP1 POP JUMP JUMPDEST PUSH2 0x55F DUP2 PUSH2 0x54D JUMP JUMPDEST DUP3 MSTORE POP POP JUMP JUMPDEST PUSH0 PUSH1 0x60 DUP3 ADD SWAP1 POP PUSH2 0x578 PUSH0 DUP4 ADD DUP7 PUSH2 0x4DE JUMP JUMPDEST DUP2 DUP2 SUB PUSH1 0x20 DUP4 ADD MSTORE PUSH2 0x58A DUP2 DUP6 PUSH2 0x515 JUMP JUMPDEST SWAP1 POP PUSH2 0x599 PUSH1 0x40 DUP4 ADD DUP5 PUSH2 0x556 JUMP JUMPDEST SWAP5 SWAP4 POP POP POP POP JUMP JUMPDEST PUSH32 0x5573657220616C72656164792065786973740000000000000000000000000000 PUSH0 DUP3 ADD MSTORE POP JUMP JUMPDEST PUSH0 PUSH2 0x5D5 PUSH1 0x12 DUP4 PUSH2 0x4F7 JUMP JUMPDEST SWAP2 POP PUSH2 0x5E0 DUP3 PUSH2 0x5A1 JUMP JUMPDEST PUSH1 0x20 DUP3 ADD SWAP1 POP SWAP2 SWAP1 POP JUMP JUMPDEST PUSH0 PUSH1 0x20 DUP3 ADD SWAP1 POP DUP2 DUP2 SUB PUSH0 DUP4 ADD MSTORE PUSH2 0x602 DUP2 PUSH2 0x5C9 JUMP JUMPDEST SWAP1 POP SWAP2 SWAP1 POP JUMP JUMPDEST PUSH32 0x4E487B7100000000000000000000000000000000000000000000000000000000 PUSH0 MSTORE PUSH1 0x22 PUSH1 0x4 MSTORE PUSH1 0x24 PUSH0 REVERT JUMPDEST PUSH0 PUSH1 0x2 DUP3 DIV SWAP1 POP PUSH1 0x1 DUP3 AND DUP1 PUSH2 0x64D JUMPI PUSH1 0x7F DUP3 AND SWAP2 POP JUMPDEST PUSH1 0x20 DUP3 LT DUP2 SUB PUSH2 0x660 JUMPI PUSH2 0x65F PUSH2 0x609 JUMP JUMPDEST JUMPDEST POP SWAP2 SWAP1 POP JUMP JUMPDEST PUSH0 DUP2 SWAP1 POP DUP2 PUSH0 MSTORE PUSH1 0x20 PUSH0 KECCAK256 SWAP1 POP SWAP2 SWAP1 POP JUMP JUMPDEST PUSH0 PUSH1 0x20 PUSH1 0x1F DUP4 ADD DIV SWAP1 POP SWAP2 SWAP1 POP JUMP JUMPDEST PUSH0 DUP3 DUP3 SHL SWAP1 POP SWAP3 SWAP2 POP POP JUMP JUMPDEST PUSH0 PUSH1 0x8 DUP4 MUL PUSH2 0x6C2 PUSH32 0xFFFFFFFFFFFFFFFFFFFFFFFFFFFFFFFFFFFFFFFFFFFFFFFFFFFFFFFFFFFFFFFF DUP3 PUSH2 0x687 JUMP JUMPDEST PUSH2 0x6CC DUP7 DUP4 PUSH2 0x687 JUMP JUMPDEST SWAP6 POP DUP1 NOT DUP5 AND SWAP4 POP DUP1 DUP7 AND DUP5 OR SWAP3 POP POP POP SWAP4 SWAP3 POP POP POP JUMP JUMPDEST PUSH0 DUP2 SWAP1 POP SWAP2 SWAP1 POP JUMP JUMPDEST PUSH0 PUSH2 0x707 PUSH2 0x702 PUSH2 0x6FD DUP5 PUSH2 0x54D JUMP JUMPDEST PUSH2 0x6E4 JUMP JUMPDEST PUSH2 0x54D JUMP JUMPDEST SWAP1 POP SWAP2 SWAP1 POP JUMP JUMPDEST PUSH0 DUP2 SWAP1 POP SWAP2 SWAP1 POP JUMP JUMPDEST PUSH2 0x720 DUP4 PUSH2 0x6ED JUMP JUMPDEST PUSH2 0x734 PUSH2 0x72C DUP3 PUSH2 0x70E JUMP JUMPDEST DUP5 DUP5 SLOAD PUSH2 0x693 JUMP JUMPDEST DUP3 SSTORE POP POP POP POP JUMP JUMPDEST PUSH0 SWAP1 JUMP JUMPDEST PUSH2 0x748 PUSH2 0x73C JUMP JUMPDEST PUSH2 0x753 DUP2 DUP5 DUP5 PUSH2 0x717 JUMP JUMPDEST POP POP POP JUMP JUMPDEST JUMPDEST DUP2 DUP2 LT ISZERO PUSH2 0x776 JUMPI PUSH2 0x76B PUSH0 DUP3 PUSH2 0x740 JUMP JUMPDEST PUSH1 0x1 DUP2 ADD SWAP1 POP PUSH2 0x759 JUMP JUMPDEST POP POP JUMP JUMPDEST PUSH1 0x1F DUP3 GT ISZERO PUSH2 0x7BB JUMPI PUSH2 0x78C DUP2 PUSH2 0x666 JUMP JUMPDEST PUSH2 0x795 DUP5 PUSH2 0x678 JUMP JUMPDEST DUP2 ADD PUSH1 0x20 DUP6 LT ISZERO PUSH2 0x7A4 JUMPI DUP2 SWAP1 POP JUMPDEST PUSH2 0x7B8 PUSH2 0x7B0 DUP6 PUSH2 0x678 JUMP JUMPDEST DUP4 ADD DUP3 PUSH2 0x758 JUMP JUMPDEST POP POP JUMPDEST POP POP POP JUMP JUMPDEST PUSH0 DUP3 DUP3 SHR SWAP1 POP SWAP3 SWAP2 POP POP JUMP JUMPDEST PUSH0 PUSH2 0x7DB PUSH0 NOT DUP5 PUSH1 0x8 MUL PUSH2 0x7C0 JUMP JUMPDEST NOT DUP1 DUP4 AND SWAP2 POP POP SWAP3 SWAP2 POP POP JUMP JUMPDEST PUSH0 PUSH2 0x7F3 DUP4 DUP4 PUSH2 0x7CC JUMP JUMPDEST SWAP2 POP DUP3 PUSH1 0x2 MUL DUP3 OR SWAP1 POP SWAP3 SWAP2 POP POP JUMP JUMPDEST PUSH2 0x80C DUP3 PUSH2 0x4ED JUMP JUMPDEST PUSH8 0xFFFFFFFFFFFFFFFF DUP2 GT ISZERO PUSH2 0x825 JUMPI PUSH2 0x824 PUSH2 0x335 JUMP JUMPDEST JUMPDEST PUSH2 0x82F DUP3 SLOAD PUSH2 0x636 JUMP JUMPDEST PUSH2 0x83A DUP3 DUP3 DUP6 PUSH2 0x77A JUMP JUMPDEST PUSH0 PUSH1 0x20 SWAP1 POP PUSH1 0x1F DUP4 GT PUSH1 0x1 DUP2 EQ PUSH2 0x86B JUMPI PUSH0 DUP5 ISZERO PUSH2 0x859 JUMPI DUP3 DUP8 ADD MLOAD SWAP1 POP JUMPDEST PUSH2 0x863 DUP6 DUP3 PUSH2 0x7E8 JUMP JUMPDEST DUP7 SSTORE POP PUSH2 0x8CA JUMP JUMPDEST PUSH1 0x1F NOT DUP5 AND PUSH2 0x879 DUP7 PUSH2 0x666 JUMP JUMPDEST PUSH0 JUMPDEST DUP3 DUP2 LT ISZERO PUSH2 0x8A0 JUMPI DUP5 DUP10 ADD MLOAD DUP3 SSTORE PUSH1 0x1 DUP3 ADD SWAP2 POP PUSH1 0x20 DUP6 ADD SWAP5 POP PUSH1 0x20 DUP2 ADD SWAP1 POP PUSH2 0x87B JUMP JUMPDEST DUP7 DUP4 LT ISZERO PUSH2 0x8BD JUMPI DUP5 DUP10 ADD MLOAD PUSH2 0x8B9 PUSH1 0x1F DUP10 AND DUP3 PUSH2 0x7CC JUMP JUMPDEST DUP4 SSTORE POP JUMPDEST PUSH1 0x1 PUSH1 0x2 DUP9 MUL ADD DUP9 SSTORE POP POP POP JUMPDEST POP POP POP POP POP POP JUMP INVALID LOG2 PUSH5 0x6970667358 0x22 SLT KECCAK256 PUSH8 0x56809AA81A5C1697 0x2F 0xA5 0xF6 PUSH22 0x5F92B8F1F5F58A947EB1DE71E523915E01C05264736F PUSH13 0x634300081A0033000000000000 "
				},
				"gasEstimates": {
					"creation": {
						"codeDepositCost": "462400",
						"executionCost": "497",
						"totalCost": "462897"
					},
					"external": {
						"createPlayer(address,string)": "infinite",
						"players(address)": "infinite"
					}
				},
				"methodIdentifiers": {
					"createPlayer(address,string)": "b64fe1c6",
					"players(address)": "e2eb41ff"
				}
			},
			"storageLayout": {
				"storage": [
					{
						"astId": 13,
						"contract": "contracts/Interaction-Between-Contracts-User.sol:User",
						"label": "players",
						"offset": 0,
						"slot": "0",
						"type": "t_mapping(t_address,t_struct(Player)8_storage)"
					}
				],
				"types": {
					"t_address": {
						"encoding": "inplace",
						"label": "address",
						"numberOfBytes": "20"
					},
					"t_mapping(t_address,t_struct(Player)8_storage)": {
						"encoding": "mapping",
						"key": "t_address",
						"label": "mapping(address => struct User.Player)",
						"numberOfBytes": "32",
						"value": "t_struct(Player)8_storage"
					},
					"t_string_storage": {
						"encoding": "bytes",
						"label": "string",
						"numberOfBytes": "32"
					},
					"t_struct(Player)8_storage": {
						"encoding": "inplace",
						"label": "struct User.Player",
						"members": [
							{
								"astId": 3,
								"contract": "contracts/Interaction-Between-Contracts-User.sol:User",
								"label": "playerAddress",
								"offset": 0,
								"slot": "0",
								"type": "t_address"
							},
							{
								"astId": 5,
								"contract": "contracts/Interaction-Between-Contracts-User.sol:User",
								"label": "playerName",
								"offset": 0,
								"slot": "1",
								"type": "t_string_storage"
							},
							{
								"astId": 7,
								"contract": "contracts/Interaction-Between-Contracts-User.sol:User",
								"label": "score",
								"offset": 0,
								"slot": "2",
								"type": "t_uint256"
							}
						],
						"numberOfBytes": "96"
					},
					"t_uint256": {
						"encoding": "inplace",
						"label": "uint256",
						"numberOfBytes": "32"
					}
				}
			},
			"userdoc": {
				"kind": "user",
				"methods": {},
				"version": 1
			}
		}
	}
}